:200000000C9496000C94BE000C94BE000C94BE000C94BE000C94BE000C94BE000C94BE0018
:200020000C94BE000C94BE000C94BE000C94BE000C94BE000C94BE000C94BE000C94BE00D0
:200040000C942C070C94BE000C94AA080C94F1080C94BE000C94BE000C94BE000C94BE000C
:200060000C947D050C94BE00EA01F9014E034E034E034E034E034E034E034E034E034E03F1
:200080004E034E034E034E034E0308024E034E034E034902B00226034E0335034E034E037D
:2000A0004E034E034E034E03E400EB00FA00090118012701360145015401630172018101BD
:2000C00090019F01AE01BD01CC014E03DB0100000000240027002A000000000025002800C6
:2000E0002B0000000000230026002900040404040404040402020202020203030303030325
:2001000001020408102040800102040810200102040810200000000700020100000304064B
:2001200000000000000000001904570A11241FBECFEFD8E0DEBFCDBF12E0A0E0B1E0E2E9C2
:20014000F8E102C005900D92A43CB107D9F714E0A4ECB2E001C01D92A834B107E1F711E085
:20016000CCE2D1E004C02297FE010E94430CC832D107C9F70E94A70A0C94470C0C9400003B
:200180001F9389E294E00E94E3099093CD028093CC028337910509F081C289E294E00E9460
:2001A000E3099093CF028093CE02FC01E154F040E333F10508F072C2EC5CFF4FEE0FFF1F31
:2001C0000590F491E02D099489E294E063E071E00E94ED0B63C289E294E06DE171E00E9409
:2001E000ED0B8EE193E06CE20E94DF038EE193E061E94EC289E294E06FE271E00E94ED0BFC
:200200008EE193E06CE20E94DF038EE193E069E83FC289E294E065E471E00E94ED0B8EE174
:2002200093E06CE20E94DF038EE193E063E930C289E294E067E571E00E94ED0B8EE193E061
:200240006CE20E94DF038EE193E06BE821C289E294E06DE671E00E94ED0B8EE193E06CE267
:200260000E94DF038EE193E061ED12C289E294E06EE771E00E94ED0B8EE193E06CE20E9405
:20028000DF038EE193E063ED03C289E294E06EE871E00E94ED0B8EE193E06CE20E94DF03B1
:2002A0008EE193E069EAF4C189E294E06EE971E00E94ED0B8EE193E06CE20E94DF038EE110
:2002C00093E06BEAE5C189E294E06EEA71E00E94ED0B8EE193E06CE20E94DF038EE193E0F8
:2002E00069E9D6C189E294E066EB71E00E94ED0B8EE193E06CE20E94DF038EE193E06BE910
:20030000C7C189E294E06EEB71E00E94ED0B8EE193E06CE20E94DF038EE193E061ECB8C1D6
:2003200089E294E066EC71E00E94ED0B8EE193E06CE20E94DF038EE193E063ECA9C189E2E7
:2003400094E06EEC71E00E94ED0B8EE193E06CE20E94DF038EE193E060EA9AC189E294E0CA
:2003600065EE71E00E94ED0B8EE193E06CE20E94DF038EE193E068EC8BC189E294E06CEFCF
:2003800071E00E94ED0B8EE193E06CE20E94DF038EE193E060EB7CC189E294E06CE072E0D7
:2003A0000E94ED0B8EE193E06CE20E94DF038EE193E068ED6DC189E294E06CE172E00E946A
:2003C000ED0B8EE193E06CE20E94DF038EE193E068EB5EC189E294E063E372E00E94ED0B0C
:2003E0008EE193E06CE20E94DF038EE193E061E24AC189E294E068E472E00E94ED0B8EE193
:2004000093E06CE20E94DF038EE193E063E23BC189E294E06DE572E00E94ED0B8EE193E075
:200420006CE20E94DF038EE193E060E00E9461048EE193E00E94A4048EE193E06CE248E03D
:200440000E94B5048EE193E00E94F2038EE193E00E94F203682F89E294E070E04AE050E02F
:200460000E94B80B89E294E060E071E00E94EA0B8EE193E00E94F2038EE193E00E94F2031E
:20048000682F89E294E070E04AE050E00E94CB0B05C16DE070E080E090E00E94820789E2FB
:2004A00094E00E94B20903970CF4CBC089E294E00E94E309C0979093D1028093D00289E23C
:2004C00094E00E94E309C0979093D3028093D20289E294E00E94E309C0979093D502809313
:2004E000D4022091D2023091D302A901F3E0440F551FFA95E1F7220F331F420F531F609129
:20050000D0027091D10224E630E0F9016E9F90016F9F300D7E9F300D1124420F531F480F8F
:20052000591F5093D7024093D60289E294E06CE672E00E94EA0B6091D6027091D70289E2B4
:2005400094E04AE050E00E94CB0B1091D6028EE193E06CE20E94DF038EE193E061E066C0DF
:200560006DE070E080E090E00E94820789E294E00E94B20903970CF464C089E294E00E9468
:20058000E309C0979093D1028093D00289E294E00E94E309C0979093D3028093D20289E22F
:2005A00094E00E94E309C0979093D5028093D4022091D2023091D302A90173E0440F551F20
:2005C0007A95E1F7220F331F420F531F6091D0027091D10224E630E0F9016E9F90016F9F97
:2005E000300D7E9F300D1124420F531F480F591F5093D7024093D60289E294E067E772E0B7
:200600000E94EA0B6091D6027091D70289E294E04AE050E00E94CB0B1091D6028EE193E094
:200620006CE20E94DF038EE193E063E00E9461048EE193E0612F0E9461048EE193E00E94BF
:20064000A40489E294E00E940C0A28C089E294E062E872E00E94ED0B8EE193E06CE20E948C
:20066000DF038EE193E061E00EC089E294E061E972E00E94ED0B8EE193E06CE20E94DF03DE
:200680008EE193E063E00E9461048EE193E060E00E9461048EE193E00E94A4041F9108958C
:2006A000EF92FF920F931F930E9474077B018C0189E294E00E94B209029714F00E94C00073
:2006C0008091C8029091C902A091CA02B091CB02A8019701281B390B4A0B5B0B2093C4024C
:2006E0003093C5024093C6025093C702283E83E0380780E0480780E0580788F08091A20286
:200700009091A30201969093A3028093A202E092C802F092C9020093CA021093CB0221156F
:2007200031054105510541F4E092C802F092C9020093CA021093CB021F910F91FF90EF90FC
:2007400008958091A00261E00E9416088CE061E00E9416088BE061E00E9416088AE061E0C4
:200760000E94160889E061E00E94160888E061E00E94160887E061E00E94160886E061E0D7
:200780000E94160885E061E00E94160884E061E00E94160883E061E00E94160882E061E0C7
:2007A0000E94160889E294E040E855E260E070E00E942C098EE193E00E94B904089581E095
:2007C00080931D036093FA0210921B0310921C0308952091F90230E08091F802281B310995
:2007E000C90108954091F8028091F902481718F02FEF3FEF0AC0E42FF0E0E852FD4F8081D4
:20080000282F30E04F5F4093F802C9010895E091F8028091F902E81718F0EFEFFFEF06C07F
:20082000F0E0E852FD4F8081E82FF0E0CF0108950895109221031092200388EE93E0A0E07C
:20084000B0E08093220390932303A0932403B093250388EA92E090931F0380931E030895C8
:20086000CF92DF92EF92FF920F931F93CF93DF937C016B018A0180911D038823A1F0C0E0EB
:20088000D0E00DC0D701ED91FC91D601AC0FBD1F0190F081E02DC7016C9109952196C0178A
:2008A000D10780F304C0CB01642F0E946205C801DF91CF911F910F91FF90EF90DF90CF90FC
:2008C0000895DF93CF930F92CDB7DEB7FC01698380911D038823C9F080911C03803238F065
:2008E00081E090E09383828320E030E015C080911B03E82FF0E0E550FD4F998190838F5F75
:2009000080931B0380931C0305C0CE01019661E00E94620521E030E0C9010F90CF91DF91B5
:2009200008950F93062F8091FA026BEF72E040911C0321E00E940D0510921B0310921C0364
:2009400010921D030F91089561E00E9491040895413208F040E2862F68ED72E00E94C40430
:200960001092F8028093F902089521E00E94A80408951092F8021092F90210921B031092A9
:200980001C030E940E070895382F413210F040E042C080912A038823E1F791E090932A0366
:2009A00020932C038FEF80939703109252034150409353034F5F90932B0380912B03330FF9
:2009C000832B80932B0380912D03813041F410922D0380912B038093BB0085EC01C085EE7D
:2009E0008093BC0080912A038130E1F380915203841710F44091520320E030E00AC0FB0164
:200A0000E20FF31FD901AE5CBC4F8C9180832F5F3F4F2417A0F3842F08950F931F93582FAF
:200A2000122F413210F081E04AC080912A038823E1F782E080932A0300932C038FEF8093E1
:200A400097031092520340935303A2E3B3E0FB0102C081918D938E2F861B8417D0F3109276
:200A60002B0380912B03550F852B80932B0380912D03813041F410922D0380912B03809369
:200A8000BB0085EC01C085EE8093BC00112321F080912A038230E1F3809197038F3F11F4A0
:200AA00080E00DC080919703803211F482E007C080919703803311F084E001C083E01F91E7
:200AC0000F910895482F613210F081E0089580912A03843011F082E0089560937503A4E5EB
:200AE000B3E0842F9C01F90102C081918D938E2F841B8617D0F380E008951F920F920FB655
:200B00000F9211242F933F934F935F936F937F938F939F93AF93BF93EF93FF938091B900BD
:200B200090E0887F90708036910509F4F2C081369105CCF58832910509F47BC0893291055C
:200B4000B4F48031910509F46FC0813191053CF4009709F447C1089709F04FC165C08831E0
:200B6000910509F466C0809709F047C182C08034910509F4A4C08134910544F480339105EB
:200B800009F482C0C89709F038C189C08035910509F489C08835910509F496C088349105F3
:200BA00009F02BC1AEC08839910509F413C189399105ECF48837910509F4ABC0893791056F
:200BC0004CF48836910509F4A4C08037910509F014C19FC08838910509F4FCC08039910548
:200BE00009F49DC08038910509F007C198C0803B910509F4C6C0813B91054CF4803A91057E
:200C000009F49FC0883A910509F0F7C0BAC0803C910509F4E3C0883C910509F4DFC0883B4B
:200C2000910509F0EAC0C2C080912B038093BB00CFC09091520380915303981768F4909154
:200C40005203E92FF0E0EE5CFC4F80818093BB009F5F90935203BCC080912C03882309F419
:200C60004BC085ED8093BC008091BC0084FDFCCFC2C080E28093970385ED8093BC0080912C
:200C8000BC0084FDFCCFB7C080E38093970385ED8093BC008091BC0084FDFCCFACC088E394
:200CA000809397039BC0809152039091BB00E82FF0E0EE5CFC4F90838F5F809352039091E4
:200CC00052038091530382C0809152039091BB00E82FF0E0EE5CFC4F90838F5F80935203EF
:200CE00080912C03882341F085ED8093BC008091BC0084FDFCCF7FC081E080932D0384EA2D
:200D00006EC085ED8093BC008091BC0084FDFCCF72C083E080932A031092960359C0809111
:200D20009603803208F056C0809196039091BB00E82FF0E0EA58FC4F90838F5F80939603B3
:200D400047C080919603803230F4E0919603F0E0EA58FC4F108285ED8093BC008091BC0005
:200D600084FDFCCF10922A0360919603E0913003F091310386E793E070E00995109296036C
:200D80002DC084E080932A031092740310927503E0912E03F0912F03099580917503882368
:200DA00029F481E0809375031092540390917403E92FF0E0EC5AFC4F80818093BB009F5F53
:200DC000909374039091740380917503981710F485EC01C085E88093BC000FC085EC8093E4
:200DE000BC0009C01092970385ED8093BC008091BC0084FDFCCF10922A03FF91EF91BF91A9
:200E0000AF919F918F917F916F915F914F913F912F910F900FBE0F901F90189510922A039C
:200E200081E080932C0310922D0382E161E00E94550883E161E00E945508E9EBF0E0808151
:200E40008E7F808380818D7F808388E48093B80085E48093BC0008951F920F920FB60F92AE
:200E600011242F933F938F939F93AF93BF9380919C0390919D03A0919E03B0919F033091DA
:200E8000A0030196A11DB11D232F2D5F2D3720F02D570196A11DB11D2093A00380939C038B
:200EA00090939D03A0939E03B0939F038091980390919903A0919A03B0919B030196A11D4B
:200EC000B11D8093980390939903A0939A03B0939B03BF91AF919F918F913F912F910F9017
:200EE0000FBE0F901F9018958FB7F89420919C0330919D0340919E0350919F038FBFB901AA
:200F0000CA0108959B01AC017FB7F8948091980390919903A0919A03B0919B0366B5A89BEA
:200F200005C06F3F19F00196A11DB11D7FBFBA2FA92F982F8827860F911DA11DB11D62E08C
:200F4000880F991FAA1FBB1F6A95D1F7BC012DC0FFB7F8948091980390919903A0919A03B5
:200F6000B0919B03E6B5A89B05C0EF3F19F00196A11DB11DFFBFBA2FA92F982F88278E0F03
:200F8000911DA11DB11DE2E0880F991FAA1FBB1FEA95D1F7861B970B885E9340C8F22150F5
:200FA00030404040504068517C4F211531054105510571F60895789484B5826084BD84B580
:200FC000816084BD85B5826085BD85B5816085BDEEE6F0E0808181608083E1E8F0E0108280
:200FE000808182608083808181608083E0E8F0E0808181608083E1EBF0E080818460808325
:20100000E0EBF0E0808181608083EAE7F0E0808184608083808182608083808181608083FC
:201020008081806880831092C1000895CF93DF93482F50E0CA0180509F4FFC013491445169
:201040005F4FFA018491882369F190E0880F991FFC01E253FF4FA591B491FC01E852FF4F8E
:20106000C591D491662351F42FB7F8948C91932F909589238C93888189230BC0623061F43F
:201080002FB7F8948C91932F909589238C938881832B88832FBF06C09FB7F8948C91832BEC
:2010A0008C939FBFDF91CF910895482F50E0CA018C5E9E4FFC012491CA0180509F4FFC01C5
:2010C000949144515F4FFA013491332309F440C0222351F1233071F0243028F42130A1F008
:2010E000223011F514C02630B1F02730C1F02430D9F404C0809180008F7703C080918000F5
:201100008F7D8093800010C084B58F7702C084B58F7D84BD09C08091B0008F7703C0809175
:20112000B0008F7D8093B000E32FF0E0EE0FFF1FE852FF4FA591B4912FB7F894662321F420
:201140008C919095892302C08C91892B8C932FBF089508951F920F920FB60F9211242F9318
:201160003F934F938F939F93EF93FF934091C6002091E1033091E2032F5F3F4F2F73307023
:201180008091E3039091E4032817390759F0E091E103F091E203EF55FC4F40833093E203D3
:2011A0002093E103FF91EF919F918F914F913F912F910F900FBE0F901F901895E0913504B7
:2011C000F0913604E05CFF4F8191919120813181821B930B8F739070892B11F00E94A908FE
:2011E00008951F920F920FB60F9211242F933F938F939F93EF93FF932091250430912604A4
:2012000080912704909128042817390731F48091C1008F7D8093C10014C0E0912704F091FE
:201220002804EB51FC4F2081809127049091280401968F73907090932804809327042093F8
:20124000C600FF91EF919F918F913F912F910F900FBE0F901F901895AF92BF92DF92EF92ED
:20126000FF920F931F93CF93DF93EC017A018B01DD24403081EE580780E0680780E07807D4
:2012800011F0DD24D39491E0A92EB12CEC89FD89DD2069F0C5010E8C02C0880F991F0A9460
:2012A000E2F7808360E079E08DE390E005C0108260E874E88EE190E0A80197010E941F0CF1
:2012C0002150304040405040569547953795279580E12030380720F0DD2011F0DD24D6CF2A
:2012E000E889F9893083EA89FB892083EE89FF89408121E030E0C9010A8C02C0880F991F6C
:201300000A94E2F7482B4083EE89FF894081C9010B8C02C0880F991F0A94E2F7482B408341
:20132000EE89FF894081C9010C8C02C0880F991F0A94E2F7482B4083EE89FF8980810D8C34
:2013400002C0220F331F0A94E2F7209528232083DF91CF911F910F91FF90EF90DF90BF9042
:20136000AF900895DC011C96ED91FC911D97E05CFF4F2191319180819181281B390B2F7309
:201380003070C9010895DC011C96ED91FC911D97E05CFF4F20813181E054F040DF01AE5BCE
:2013A000BF4F8D919C9111972817390719F42FEF3FEF07C08D919C91E80FF91F8081282FDB
:2013C00030E0C9010895DC011C96ED91FC911D97E05CFF4F20813181E054F040DF01AE5B1E
:2013E000BF4F8D919C9111972817390719F42FEF3FEF10C08D919C911197E80FF91F2081A1
:201400008D919C91119701968F73907011969C938E9330E0C9010895FC0186859785DC01D1
:20142000A05CBF4FFC01EE5BFF4F2D913C9111978081918128173907C1F70895CF93DF9320
:20144000EC01EE85FF85E05CFF4F20813181E054F0402F5F3F4F2F733070DF01AE5BBF4F12
:201460008D919C91119728173907D1F3E05CFF4F80819181E054F040E80FF91F6083EE85D0
:20148000FF85E05CFF4F31832083EE89FF89208181E090E00D8C02C0880F991F0A94E2F755
:2014A000282B208381E090E0DF91CF91089510922C0410922B0488EE93E0A0E0B0E0809349
:2014C0002D0490932E04A0932F04B093300488EB92E090932A048093290481EA93E0909332
:2014E00036048093350485EE93E0909338048093370485EC90E090933A048093390484ECD1
:2015000090E090933C0480933B0480EC90E090933E0480933D0481EC90E0909340048093BA
:201520003F0486EC90E0909342048093410484E08093430483E08093440487E08093450486
:2015400085E08093460481E0809347040895CF93DF930E94DB070E94A103CEEDD8E00E94BA
:2015600050032097E1F30E94DE08F9CFCF92DF92EF92FF920F931F93CF93DF937C016B0148
:201580008A01C0E0D0E00FC0D6016D916D01D701ED91FC910190F081E02DC7010995C80F2F
:2015A000D91F015010400115110571F7CE01DF91CF911F910F91FF90EF90DF90CF90089596
:2015C000EF92FF920F931F938C01DC01ED91FC910190F081E02D6DE009957C01D801ED9162
:2015E000FC910190F081E02DC8016AE009959C012E0D3F1DC9011F910F91FF90EF900895A5
:20160000CF93DF93DB010D900020E9F71197A61BB70BEC01E881F9810280F381E02DAD01D1
:201620000995DF91CF9108954F925F927F928F929F92AF92BF92CF92DF92EF92FF920F9352
:201640001F93DF93CF93CDB7DEB7A1970FB6F894DEBF0FBECDBF2C01742ECB01223008F483
:201660002AE019A231E2C32ED12CCC0EDD1E822E9924AA24BB24672D752FA50194010E94A0
:201680001F0C79018A01C801B701A50194010E94000C472D461B0894C108D1084A3014F41B
:2016A000405D01C0495CF6014083E114F1040105110521F07E2C5F2DC801DDCFC201B60131
:2016C0000E94000BA1960FB6F894DEBF0FBECDBFCF91DF911F910F91FF90EF90DF90CF90E3
:2016E000BF90AF909F908F907F905F904F900895CF92DF92EF92FF920F931F93CF93DF9388
:20170000EC016A017B012115310541F4E881F9810190F081E02D642F09951FC02A303105C2
:20172000D1F477FF17C0E881F9810190F081E02D6DE209958C0144275527BA014C195D09BE
:201740006E097F09CE012AE00E94140B9801280F391F04C02AE00E94140B9C01C901DF9162
:20176000CF911F910F91FF90EF90DF90CF900895EF92FF920F931F937B019A010027F7FCA9
:201780000095102FB801A7010E94780B1F910F91FF90EF900895CF92DF92EF92FF920F936E
:2017A0001F936C017B019A010027F7FC0095102FB801A7010E94780B8C01C6010E94E00A9F
:2017C000080F191FC8011F910F91FF90EF90DF90CF9008950E94000B0895EF92FF920F932A
:2017E0001F937C010E94000B8C01C7010E94E00A080F191FC8011F910F91FF90EF90089519
:20180000629FD001739FF001829FE00DF11D649FE00DF11D929FF00D839FF00D749FF00D7C
:20182000659FF00D9927729FB00DE11DF91F639FB00DE11DF91FBD01CF0111240895A1E24B
:201840001A2EAA1BBB1BFD010DC0AA1FBB1FEE1FFF1FA217B307E407F50720F0A21BB30B27
:20186000E40BF50B661F771F881F991F1A9469F760957095809590959B01AC01BD01CF01E6
:201880000895EE0FFF1F0590F491E02D0994F894FFCF2C2000566172205244442050726FB2
:2018A0006772616D6D65722076312E30303100577269746520413020746F2045454D454D8F
:2018C00000526573746F72652041302066726F6D2045454D454D0057726974652041312079
:2018E000746F2045454D454D00526573746F72652041312066726F6D2045454D454D004960
:201900006E6372656D656E74696E672020413000496E6372656D656E74696E672041310007
:2019200044656372656D656E74696E672041300044656372656D656E74696E6720413100DA
:201940002D364442204130002D364442204131002B364442204130002B36444220413100A1
:2019600044656372656D656E742041302C41312062792036644200496E6372656D656E7405
:201980002041302C4131206279203664420044656372656D656E742041302C413100496EA4
:2019A0006372656D656E742041302C41310052657365742045454D454D7320746F20413077
:2019C0002C204131005365742045454D454D20413020746F20307830300053657420454502
:2019E0004D454D20413120746F2030783030005265616420413020616E64204131005365A1
:201A00007420413020746F200053657420413120746F200053657420413020746F20307835
:201A200030300053657420413120746F2030783030000C00FFFF0000000061043004E903CE
:201A4000F20307041804000000001E0AB60AB209E309C3090C0A783030005365742045454B
:201A60004D454D20413120746F2030783030005265616420413020616E6420413100536520
:201A80007F916F915F914F913F912F910F900FBE0F901F901895AF92BF92DF92EF92FF925A
:201AA0000F931F93CF93DF93EC017A018B01DD24403081EE580780E0680780E0780711F01C
:201AC000DD24D39491E0A92EB12CEC89FD89DD2069F0C5010E8C02C0880F991F0A94E2F740
:201AE000808360E079E08DE390E005C0108260E874E88EE190E0A80197010E947D132150AC
:201B0000304040405040569547953795279580E12030380720F0DD2011F0DD24D6CFE889E1
:201B2000F9893083EA89FB892083EE89FF89408121E030E0C9010A8C02C0880F991F0A94F6
:201B4000E2F7482B4083EE89FF894081C9010B8C02C0880F991F0A94E2F7482B4083EE8920
:201B6000FF894081C9010C8C02C0880F991F0A94E2F7482B4083EE89FF8980810D8C02C0A1
:201B8000220F331F0A94E2F7209528232083DF91CF911F910F91FF90EF90DF90BF90AF907D
:201BA0000895DC011C96ED91FC911D97E05CFF4F2191319180819181281B390B2F73307060
:201BC000C9010895DC011C96ED91FC911D97E05CFF4F20813181E054F040DF01AE5BBF4F18
:201BE0008D919C9111972817390719F42FEF3FEF07C08D919C91E80FF91F8081282F30E091
:201C0000C9010895DC011C96ED91FC911D97E05CFF4F20813181E054F040DF01AE5BBF4FD7
:201C20008D919C9111972817390719F42FEF3FEF10C08D919C911197E80FF91F20818D9148
:201C40009C91119701968F73907011969C938E9330E0C9010895FC0186859785DC01A05CAB
:201C6000BF4FFC01EE5BFF4F2D913C9111978081918128173907C1F70895CF93DF93EC01E7
:201C8000462FEE85FF85E05CFF4F80819181E054F040019660E470E00E946A139C01DF0110
:201CA000AE5BBF4F8D919C91119728173907D1F3E05CFF4F80819181E054F040E80FF91FC7
:201CC0004083EE85FF85E05CFF4F31832083EE89FF89208181E090E00D8C02C0880F991F4E
:201CE0000A94E2F7282B208381E090E0DF91CF910895109261031092600388EE93E0A0E0C5
:201D0000B0E08093620390936303A0936403B09365038AE392E090935F0380935E0386EDA2
:201D200092E090936B0380936A038AE193E090936D0380936C0385EC90E090936F038093A4
:201D40006E0384EC90E0909371038093700380EC90E0909373038093720381EC90E0909318
:201D600075038093740386EC90E0909377038093760384E08093780383E08093790387E00B
:201D800080937A0385E080937B0381E080937C030895CF93DF930E94830B0E948909CFEE38
:201DA000DCE00E94D5082097E1F30E94EF0CF9CFCF92DF92EF92FF920F931F93CF93DF93EC
:201DC0007C016B018A01C0E0D0E00FC0D6016D916D01D701ED91FC910190F081E02DC70173
:201DE0000995C80FD91F015010400115110571F7CE01DF91CF911F910F91FF90EF90DF90D5
:201E0000CF900895DC01ED91FC910190F081E02D09950895EF92FF920F931F938C01DC01C4
:201E2000ED91FC910190F081E02D6DE009957C01D801ED91FC910190F081E02DC8016AE01A
:201E400009959C012E0D3F1DC9011F910F91FF90EF900895CF93DF93DB010D900020E9F79E
:201E60001197A61BB70BEC01E881F9810280F381E02DAD010995DF91CF9108954F925F92D9
:201E80007F928F929F92AF92BF92CF92DF92EF92FF920F931F93DF93CF93CDB7DEB7A197F0
:201EA0000FB6F894DEBF0FBECDBF2C01742ECB01223008F42AE019A231E2C32ED12CCC0E52
:201EC000DD1E822E9924AA24BB24672D752FA50194010E947D1379018A01C801B701A5011C
:201EE00094010E944B13472D461B0894C108D1084A3014F4405D01C0495CF6014083E11406
:201F0000F1040105110521F07E2C5F2DC801DDCFC201B6010E942A0FA1960FB6F894DEBF7A
:201F20000FBECDBFCF91DF911F910F91FF90EF90DF90CF90BF90AF909F908F907F905F9072
:201F40004F900895DC012115310541F4ED91FC910190F081E02D642F099508950E943E0FB0
:201F60000895CF92DF92EF92FF920F931F93CF93DF93EC016A017B012115310541F4E881DA
:201F8000F9810190F081E02D642F09951FC02A303105D1F477FF17C0E881F9810190F08121
:201FA000E02D6DE209958C0144275527BA014C195D096E097F09CE012AE00E943E0F9801CD
:201FC000280F391F04C02AE00E943E0F9C01C901DF91CF911F910F91FF90EF90DF90CF9052
:201FE0000895EF92FF920F931F937B019A010027F7FC0095102FB801A7010E94B10F1F9166
:202000000F91FF90EF900895CF92DF92EF92FF920F931F936C017B019A010027F7FC00950A
:20202000102FB801A7010E94B10F8C01C6010E940A0F080F191FC8011F910F91FF90EF9019
:20204000DF90CF9008950E942A0F08957F928F929F92AF92BF92CF92DF92EF92FF920F9322
:202060001F93CF93DF934C017A018B01722ECB01BA0120E030E040E050E00E94951187FD33
:2020800003C0C0E0D0E00EC0D401ED91FC910190F081E02DC4016DE20995EC0117FB10951A
:2020A00017F9109520E030E040E05FE3AA240BC0CA01B90120E030E040E251E40E94991128
:2020C0009B01AC01A394A71498F3C801B7010E9431115B016C010E9406127B018C01C40184
:2020E000B801A7012AE030E00E94A20FC80FD91F772039F0C4016BE272E00E942A0FC80F6D
:20210000D91FC801B7010E9432129B01AC01C601B5010E94301124C020E030E040E251E46C
:202120000E94E8127B018C010E9401125B016C01CC24B7FCC094DC2CC401B601A5012AE051
:2021400030E00E94B10FC80FD91FC601B5010E9434129B01AC01C801B7010E9430117A941E
:202160007720D1F6CE01DF91CF911F910F91FF90EF90DF90CF90BF90AF909F908F907F904B
:202180000895EF92FF920F931F937C010E9426108C01C7010E940A0F080F191FC8011F910F
:2021A0000F91FF90EF900895EF92FF920F931F937C010E942A0F8C01C7010E940A0F080FEF
:2021C000191FC8011F910F91FF90EF9008952F923F924F925F926F927F928F929F92AF92FA
:2021E000BF92CF92DF92EF92FF920F931F93DF93CF93CDB7DEB73B014C0119012A016D89A5
:202200007E898F89988D6A197B098C099D09621A730A840A950AA40193010E944B13E218DF
:20222000F30804091509A80197010E949F132A0D3B1D4C1D5D1DB901CA01CF91DF911F916C
:202240000F91FF90EF90DF90CF90BF90AF909F908F907F906F905F904F903F902F9008951F
:202260005058BB27AA270ED075C166D130F06BD120F031F49F3F11F41EF45BC10EF4E0959F
:20228000E7FB51C1E92F77D180F3BA17620773078407950718F071F49EF58FC10EF4E095D5
:2022A0000B2EBA2FA02D0B01B90190010C01CA01A0011124FF27591B99F0593F50F4503E9D
:2022C00068F11A16F040A22F232F342F4427585FF3CF469537952795A795F0405395C9F764
:2022E0007EF41F16BA0B620B730B840BBAF09150A1F0FF0FBB1F661F771F881FC2F70EC0AB
:20230000BA0F621F731F841F48F4879577956795B795F7959E3F08F0B3CF9395880F08F0F8
:202320009927EE0F979587950895D9D008F481E008950CD00FC107D140F0FED030F021F4A1
:202340005F3F19F0F0C0511139C1F3C014D198F39923C9F35523B1F3951B550BBB27AA2750
:2023600062177307840738F09F5F5F4F220F331F441FAA1FA9F333D00E2E3AF0E0E830D08F
:2023800091505040E695001CCAF729D0FE2F27D0660F771F881FBB1F261737074807AB074F
:2023A000B0E809F0BB0B802DBF01FF2793585F4F2AF09E3F510568F0B6C000C15F3FECF341
:2023C000983EDCF3869577956795B795F7959F5FC9F7880F911D9695879597F90895E1E025
:2023E000660F771F881FBB1F621773078407BA0720F0621B730B840BBA0BEE1F88F7E095B2
:20240000089504D06894B111D9C00895BCD088F09F5790F0B92F9927B751A0F0D1F0660F67
:20242000771F881F991F1AF0BA95C9F712C0B13081F0C3D0B1E00895C0C0672F782F88273D
:20244000B85F39F0B93FCCF3869577956795B395D9F73EF490958095709561957F4F8F4F37
:202460009F4F0895E89409C097FB3EF490958095709561957F4F8F4F9F4F9923A9F0F92F7C
:2024800096E9BB279395F695879577956795B795F111F8CFFAF4BB0F11F460FF1BC06F5F2A
:2024A0007F4F8F4F9F4F16C0882311F096E911C0772321F09EE8872F762F05C0662371F075
:2024C00096E8862F70E060E02AF09A95660F771F881FDAF7880F9695879597F90895990FBA
:2024E0000008550FAA0BE0E8FEEF16161706E807F907C0F012161306E407F50798F0621BF1
:20250000730B840B950B39F40A2661F0232B242B252B21F408950A2609F4A140A6958FEFFA
:20252000811D811D089597F99F6780E870E060E008959FEF80EC089500240A9416161706F5
:2025400018060906089500240A9412161306140605060895092E0394000C11F4882352F020
:20256000BB0F40F4BF2B11F460FF04C06F5F7F4F8F4F9F4F089557FD9058440F551F59F0FA
:202580005F3F71F04795880F97FB991F61F09F3F79F087950895121613061406551FF2CF9E
:2025A0004695F1DF08C0161617061806991FF1CF86957105610508940895E894BB276627AE
:2025C0007727CB0197F908958ADF08F48FEF08950BD0C0CFB1DF28F0B6DF18F0952309F084
:2025E000A2CFA7CF1124EACFC6DFA0F3959FD1F3950F50E0551F629FF001729FBB27F00DAC
:20260000B11D639FAA27F00DB11DAA1F649F6627B00DA11D661F829F2227B00DA11D621F8F
:20262000739FB00DA11D621F839FA00D611D221F749F3327A00D611D231F849F600D211D56
:20264000822F762F6A2F11249F5750408AF0E1F088234AF0EE0FFF1FBB1F661F771F881FE9
:2026600091505040A9F79E3F510570F05CCFA6CF5F3FECF3983EDCF3869577956795B79585
:20268000F795E7959F5FC1F7FE2B880F911D9695879597F90895629FD001739FF001829FA4
:2026A000E00DF11D649FE00DF11D929FF00D839FF00D749FF00D659FF00D9927729FB00D35
:2026C000E11DF91F639FB00DE11DF91FBD01CF011124089597FB092E07260AD077FD04D097
:2026E00049D006D000201AF4709561957F4F0895F6F7909581959F4F0895A1E21A2EAA1B14
:20270000BB1BFD010DC0AA1FBB1FEE1FFF1FA217B307E407F50720F0A21BB30BE40BF50B76
:20272000661F771F881F991F1A9469F760957095809590959B01AC01BD01CF01089597FBD7
:20274000092E05260ED057FD04D0D7DF0AD0001C38F450954095309521953F4F4F4F5F4F2A
:202760000895F6F790958095709561957F4F8F4F9F4F0895AA1BBB1B51E107C0AA1FBB1F2C
:20278000A617B70710F0A61BB70B881F991F5A95A9F780959095BC01CD010895EE0FFF1FD0
:2027A0000590F491E02D099410E0C6ECD0E004C0FE010E94D0132296C83CD107C9F7F894DB
:2027C000FFCF57726F6E67206D696E56616C75654F757420616E642F6F72206D6178566105
:2027E0006C75654F75740020200009000D0A00434D2D435244532056657273696F6E2031BB
:202800002E30370046616E2050574D202520736574706F696E742061742000457874204871
:202820006561746572204C696E652054656D7020736574706F696E7420617420003100301D
:202840000052656C6179204F46460052656C6179204F4E00504944206C6F636B6564200037
:20286000504944206E6F74206C6F636B65642000200056616C76652031204F464600566137
:202880006C76652031204F4E0056616C76652032204F46460056616C76652032204F4E008B
:2028A00056616C76652033204F46460056616C76652033204F4E0056616C76652034204FFD
:2028C00046460056616C76652034204F4E004B703D00202054693D00202054643D002020B6
:2028E000703D002020693D002020643D002E000D00000020410F0001000000003D0ED80E87
:20290000D10D020EE20D2B0E0056616C76652032204F46460056616C76652032204F4E0049
:2029200056616C76652033204F46460056616C76652033204F4E0056616C76652034204F7C
:2029400046460056616C76652034204F4E004B703D00202054693D00202054643D00202035
:20296000703D002020693D002020643D002E000D00000020410F0001000000003D0ED80E06
:20298000FFFFFFFFFFFFFFFFFFFFFFFFFFFFFFFFFFFFFFFFFFFFFFFFFFFFFFFFFFFFFFFF57
:2029A000FFFFFFFFFFFFFFFFFFFFFFFFFFFFFFFFFFFFFFFFFFFFFFFFFFFFFFFFFFFFFFFF37
:2029C000FFFFFFFFFFFFFFFFFFFFFFFFFFFFFFFFFFFFFFFFFFFFFFFFFFFFFFFFFFFFFFFF17
:2029E000FFFFFFFFFFFFFFFFFFFFFFFFFFFFFFFFFFFFFFFFFFFFFFFFFFFFFFFFFFFFFFFFF7
:207E0000112484B714BE81FFF0D085E08093810082E08093C00088E18093C10086E08093FC
:207E2000C20080E18093C4008EE0C9D0259A86E020E33CEF91E0309385002093840096BBAD
:207E4000B09BFECF1D9AA8958150A9F7CC24DD2488248394B5E0AB2EA1E19A2EF3E0BF2E79
:207E6000A2D0813461F49FD0082FAFD0023811F0013811F484E001C083E08DD089C0823404
:207E800011F484E103C0853419F485E0A6D080C0853579F488D0E82EFF2485D0082F10E0A0
:207EA000102F00270E291F29000F111F8ED068016FC0863521F484E090D080E0DECF84364D
:207EC00009F040C070D06FD0082F6DD080E0C81680E7D80618F4F601B7BEE895C0E0D1E0ED
:207EE00062D089930C17E1F7F0E0CF16F0E7DF0618F0F601B7BEE89568D007B600FCFDCF1A
:207F0000A601A0E0B1E02C9130E011968C91119790E0982F8827822B932B1296FA010C016F
:207F200087BEE89511244E5F5F4FF1E0A038BF0751F7F601A7BEE89507B600FCFDCF97BE85
:207F4000E89526C08437B1F42ED02DD0F82E2BD03CD0F601EF2C8F010F5F1F4F84911BD0B8
:207F6000EA94F801C1F70894C11CD11CFA94CF0CD11C0EC0853739F428D08EE10CD085E9AE
:207F80000AD08FE07ACF813511F488E018D01DD080E101D065CF982F8091C00085FFFCCF0A
:207FA0009093C60008958091C00087FFFCCF8091C00084FD01C0A8958091C6000895E0E68F
:207FC000F0E098E1908380830895EDDF803219F088E0F5DFFFCF84E1DECF1F93182FE3DF47
:207FE0001150E9F7F2DF1F91089580E0E8DFEE27FF270994FFFFFFFFFFFFFFFFFFFF040425
:00000001FF
