:101300001201000200000040EF0301100000010282
:1013100000010A06000200000040010009022E0040
:10132000010100C0000904000004FF0000000705DF
:1013300002020002000705040200020007058602FF
:101340000002000705880200020009022E000101C8
:1013500000C0320904000004FF000000070502027B
:101360004000000705040240000007058602400017
:101370000007058802400000040309041003500020
:10138000690063006100720072006F001803500072
:10139000690063006100720072006F002D0055004B
:0613A000530042000000B2
:0A1929000001020203030404050597
:1007E100901FA7120DD100000000C203C200C20277
:1007F100C201120FD37E137F00901FC1EEF0A3EF51
:10080100F0901FC97413F0A37412F0901FBF7413FA
:10081100F0A3741CF0901FC77413F0A3744AF090F6
:100821001FCB7413F0A37478F0EE54E07003020947
:100831009B901FABE4F0A37480F0A3EEF0A3EFF064
:10084100C374A49FFF74139ECF2402CF3400FEE42F
:10085100FCFD901FA3120DC5901F9F120DD100002A
:100861000000901FA3E0FCA3E0FDA3E0FEA3E0FFD6
:10087100901F9FE0F8A3E0F9A3E0FAA3E0FBC31205
:100881000DB4503A901FA1E0FEA3E0FF901FABE032
:10089100FCA3E02FF582EC3EF58374CDF0901F9F11
:1008A100E0FCA3E0FDA3E0FEA3E02401FFE43EFEA3
:1008B100E43DFDE43CFC901F9F120DC580A4901FF8
:1008C1009F120DD100000000901FA3E0FCA3E0FDEA
:1008D100A3E0FEA3E0FF901F9FE0F8A3E0F9A3E0EF
:1008E100FAA3E0FBC3120DB45049901FA1E0FEA38F
:1008F100E0FF901FADE0FCA3E02FF582EC3EF58315
:10090100E0FD901FABE0FAA3E02FF582EA3EF5830C
:10091100EDF0901F9FE0FCA3E0FDA3E0FEA3E02427
:1009210001FFE43EFEE43DFDE43CFC901F9F120DFF
:10093100C58095901FABE0FFA3E0901FC1CFF0A34E
:10094100EFF074002480FF741334FFFEC3901FCABC
:10095100E09FF0901FC9E09EF0C3901FC4E09FF09C
:10096100901FC3E09EF0C3901FC6E09FF0901FC58B
:10097100E09EF0C3901FC0E09FF0901FBFE09EF08B
:10098100C3901FC8E09FF0901FC7E09EF0C3901F67
:10099100CCE09FF0901FCBE09EF0D2E843D82090AE
:1009A100E668E04409F090E65CE0443DF0D2AF90A7
:1009B100E680E020E105D20512175690E680E0546A
:1009C100F7F0538EF8C2033001051205ADC20130B4
:1009D10003291219555024C20312180C2000169035
:1009E100E682E030E704E020E1EF90E682E030E6E5
:1009F10004E020E0E41217E0121957120A0180C73F
:1005AD0090E6B9E0700302066E1470030206EB24A8
:1005BD00FE700302076E24FB7003020668147003BD
:1005CD0002066214700302065614700302065C24C0
:1005DD000560030207CD12195940030207D990E6B1
:1005ED00BBE024FE602814604024FD601414602BD1
:1005FD0024067052901FC1E090E6B3F0901FC280A8
:10060D0025901FC9E090E6B3F0901FCA8018901F87
:10061D00C3E090E6B3F0901FC4800B901FC5E0902F
:10062D00E6B3F0901FC6E0801690E6BAE0FF121711
:10063D0085AA06A907EA49600DEE90E6B3F0EF90A2
:10064D00E6B4F00207D90207D21219150207D91222
:10065D00193D0207D912162E0207D91219010207E8
:10066D00D912195B40030207D990E6B8E0247F60E8
:10067D001514601924027063A200E43325E0FFA273
:10068D0002E4334F8041E490E740F0803F90E6BCB8
:10069D00E0547EFF7E00E0D394807C0040047D0119
:1006AD0080027D00EC4EFEED4F2429F58274193E3B
:1006BD00F583E493FF3395E0FEEF24A1FFEE34E6DE
:1006CD008F82F583E0540190E740F0E4A3F090E6CB
:1006DD008AF090E68B7402F00207D90207D2121944
:1006ED005D40030207D990E6B8E024FE60162402AF
:1006FD0060030207D990E6BAE0B40105C200020713
:10070D00D90207D290E6BAE0705590E6BCE0547E6F
:10071D00FF7E00E0D394807C0040047D0180027D4B
:10072D0000EC4EFEED4F2429F58274193EF583E45D
:10073D0093FF3395E0FEEF24A1FFEE34E68F82F5B3
:10074D0083E054FEF090E6BCE05480131313541F65
:10075D00FFE0540F2F90E683F0E04420F0806D8091
:10076D006412195F506690E6B8E024FE6019240209
:10077D00705A90E6BAE0B40104D200804F90E6BA08
:10078D00E064026047803E90E6BCE0547EFF7E0050
:10079D00E0D394807C0040047D0180027D00EC4E0E
:1007AD00FEED4F2429F58274193EF583E493FF3352
:1007BD0095E0FEEF24A1FFEE34E68F82F5838008ED
:1007CD00120080500790E6A0E04401F090E6A0E012
:0307DD004480F065
:0107E00022F6
:030033000219515E
:0419510053D8EF3246
:100EED0060801EF42101013F01013F070100000355
:100EFD0000000300070301030705070709000000B1
:100F0D000000003F2101013F01013F0701000201E7
:100F1D000002010007020002060406070900000096
:100F2D000000003F02021302022EB807000001026A
:100F3D00000103000301010705050707000000007C
:100F4D0000002D3F02021302022E38070002030497
:100F5D00020305000200000604040707000000005C
:100F6D0000002D3F60241F7B0000000000000000EA
:100F7D000000000000000000000000000000000064
:100F8D00000000000000000000000000471F74E09A
:060F9D00000007EA4E000F
:1010A00090E60174EAF090E6F574FFF0901F74E0AA
:1010B00090E6F3F0901F75E090E6C3F0901F76E0A5
:1010C00090E6C1F0901F77E090E6C2F0901F79E0C3
:1010D00090E6C0F0901F7AE090E6F4F075AF0774E8
:1010E0001EF59A74F4F59B759DE4E4F59EFF90E679
:1010F0007BE090E67CF00FEFB480F3E490E671F0D3
:10110000F5B490E672E0547FF053B67F000000E43F
:1011100090E6C4F000000090E6C5F0901F7BE090E0
:10112000E6C6F0901F7CE090E6C7F0901F7DE0904F
:10113000E6C8F0901F7EE090E6C9F0901F7FE09037
:10114000E6CAF0901F80E090E6CBF0901F81E0901F
:0B115000E6CCF0901F82E090E6CDF0AE
:01115B002271
:100FA300421EE60000411EE5004219C10000C104D3
:100FB300421EEE00004219C60000421EEA00004134
:0F0FC30019C8004119C9004119C0004119CA00DD
:0515DA00E490E68BF037
:1015DF00E4FFFE901FBAF0A304F0901FBAE0FCA343
:1015EF00E0FD4C601EE5BA30E0190FBF00010EEFB1
:1015FF004E70E7901FBBE024FFF0901FBAE034FF5E
:10160F00F080D7ED4C70057F02121888901FBAE05A
:0E161F007002A3E07E0060047F0180027F0065
:01162D00229A
:10167F00E4FFFE901FBDF0A304F0901FBDE0FCA39C
:10168F00E0FD4C601EE5BB20E7190FBF00010EEF18
:10169F004E70E7901FBEE024FFF0901FBDE034FFB7
:1016AF00F080D7ED4C70057F04121888901FBDE0B5
:0E16BF007002A3E07E0060047F0180027F00C5
:0116CD0022FA
:1014D600E4FFFE901FBAF0A304F0901FBAE0FCA34D
:1014E600E0FD4C602990E6F4E070047B0180027B0D
:1014F60000EB30E0190FBF00010EEF4E70DC901FBD
:10150600BBE024FFF0901FBAE034FFF080CCED4C36
:1015160070057F08121888901FBAE07002A3E07E5B
:091526000060047F0180027F00D7
:01152F002299
:0C17B40090E741E090E740FEE0FDEDFF13
:1017C000901FBAEEF0A3EFF012167FEF4E6010906C
:1017D0001FBAE090E6F0F0901FBBE090E6F1F02237
:0B16CE00901FB3E0FBA3E0FAA3E0F9DB
:0B16D900901FBAEBF0A3EAF0A3E9F0C9
:1016E40012167FEF4E602C90E6F1E09019C0F012D4
:1016F400167FEF4E601D90E6F2E0FE90E6F0E0FD0E
:10170400EDFF901FBAE0FBA3E0FAA3E0F9EE8FF03F
:03171400120D951E
:0117170022AF
:1011E800C2AFE49019CFF0A3F09019CDF0A3F0901E
:0811F80019CBF0A3F0D2AF22E5
:1013A600901FB7E475F001120D7FFE744025F0F52D
:0813B6008274E73EF583E0FFBD
:1013BE00C2AF9019CFE0B40511A3E0B4140C90198C
:1013CE00C8E04401F0D2AF7F00229019CDE475F051
:1013DE0001120D7FFC74D125F0F58274193CF58352
:1013EE00EFF09019CDE0B4050CA3E0B41407E4902F
:1013FE0019CDF0A3F09019D0E004F070069019CF3B
:08140E00E004F0D2AF7F0122DF
:0C141600FFE4F0A3EFF07B017A1F79AF38
:10142200C2AF9019CFE07002A3E0700C9019C8E02F
:101432004402F0D2AF7F00229019CBE475F0011282
:101442000D7FFE74D125F0F58274193EF583E0120A
:101452000D359019CBE0B4050CA3E0B41407E49069
:1014620019CBF0A3F09019D0E024FFF09019CFE04F
:0814720034FFF0D2AF7F01222C
:0812F700E49019C8F00211E8AF
:0A193300E4901EEAF0A3F00212F7A0
:10183100C2ADEF4430901EF0F0ECA3F0EDA3F07ACE
:0D1841001E7BF07D037F10121718D2AD2220
:100FD30000000090E600E054E74410F000000090A9
:100FE300E605E054FDF0D20090E61074A0F090E620
:100FF30011F000000090E612F0000000E490E61308
:10100300F000000090E61474E0F0000000E490E6C5
:1010130015F000000090E6047480F00000007402F4
:10102300F00000007406F0000000E4F000000090FF
:10103300E61804F00000007411F000000090E61AB6
:101043007409F0000000E490E68DF01210A090E621
:10105300727408F075B693E4F5B1F59890E67004F0
:10106300F043B29E75808112194790E67A7401F0BD
:10107300538EDFD2CAC2CCC2CDC2C8C2CF75CB6336
:1010830075CAC0121933D2AD901EEBE0240AFE904C
:0D1093001EEAE03400901EE8F0A3CEF0222B
:100E02009019CAE0704D9019C9E06047901EEAE05F
:100E1200FEA3E0FFC3901EE9E09FFF901EE8E09E64
:100E2200FED3EF9400EE648094804003020EEC1235
:100E3200141CEF7003020EEC901FAFE0B453F07B72
:100E4200017A1979CA121422EF7003020EECE490AF
:100E52001EECF09019CAE0FF600E20E00BC313F005
:100E6200901EECE004F080EB9019CAE0607C121452
:100E72001CEF6076901FAFE0A3121416EF606B9028
:100E82001FAFE0FEA3E04EFEA3E0FF901FB0EEF026
:100E9200FCA3EFF0AD07901EECE0FF1218319019A1
:100EA200CAE0C313FFF0901EECE004F0EF703BE4E5
:100EB2009019C9F0D39019D0E094009019CFE09422
:100EC20000402712141CEF6021901FAFE0901EE833
:100ED200121416EF6014901FAFE0FE901EE8E04E71
:0A0EE200F0A3E0F09019C97401F0CC
:010EEC0022E3
:100A0100E5BB20E703020B8FE5AB30E103020A9E51
:100A11001214D6EF4E7003020BCB90E6ABE0FE90C2
:100A2100E6ACE0FDAC06ECC313FCED1324FEFD7453
:100A3100FF3CFCD3ED9400EC94004023758089ECDD
:100A410090E6D0F0000000AF05EF90E6D1F0000095
:100A510000E4F5BB000000E5BB30E7FB000000123D
:100A610014D6EF4E7003020BCB75808DE490E6D067
:100A7100F000000090E6D17402F0000000E4F5BB44
:100A810000000012167FEF4E7003020BCB00000036
:100A91001214D6EF4E7003020BCB0000009019C167
:100AA100E07002A3E07003020B8FE5AC30E00302BB
:100AB1000B8F1214D6EF4E7003020BCB9019C2E0CC
:100AC10024FEF09019C1E034FFF0D3A3E09400902C
:100AD10019C1E064809480403D758089E490E6CE40
:100AE100F000000090E6CFF00000009019C1E0FC9A
:100AF100A3E0FDEC90E6D0F0000000ED90E6D1F02F
:100B010000000075BB0600000012167FEF4E700357
:100B1100020BCB00000075808DE490E6CEF0000062
:100B21000090E6CFF000000090E6D0F000000090C9
:100B3100E6D17402F000000075BB06000000121639
:100B41007FEF4E7003020BCB00000090E6AFE0FE9A
:100B510090E6B0E0FDEDFF9019C6EEF0A3EFF09046
:100B61001EEEE0FEA3E0FFC39019C7E09F9019C6F7
:100B7100E09E500690E6487406F0E49019C1F0A397
:100B8100F075808D1214D6EF4E603F000000901F6B
:100B9100D2E07003120E02901EE6E07002A3E07034
:100BA1001B901EE5E07F01600A12186BE4901EE5C0
:100BB100F08009121888901EE57401F0901EE7E09C
:0A0BC10004F07006901EE6E004F058
:010BCB002207
:02195500D3229B
:02195700D32299
:02195900D32297
:10162E0090E680E030E72100000090E6247402F09E
:10163E00000000E490E625F0000000D204901EEEBB
:10164E007404F0A3E4F0801F000000E490E624F0A0
:10165E0000000090E6257440F0000000C204901EC9
:10166E00EEE4F0A37440F090E6BAE0901EEDF0D3F5
:01167E002249
:10190100901EEDE090E740F0E490E68AF090E68BDF
:0419110004F0D322E9
:0A193D0090E6BAE09019C5F0D3223D
:101915009019C5E090E740F0E490E68AF090E68BF8
:0419250004F0D322D5
:02195B00D32295
:02195D00D32293
:02195F00D32291
:1000800090E6BBE0FE90E6BAE0FDEDFF901FAFEE1C
:10009000F0A3EFF090E6BFE0FE90E6BEE0FDEDFFDE
:1000A000901FB1EEF0A3EFF090E6B9E02450603F6E
:1000B00024F0B40D0040030205A99000C875F003B8
:1000C000A4C58325F0C5837302010602022E020235
:1000D000830202C30203150203560203820201CF08
:1000E0000203A80203D902040C0204710204F49072
:1000F000E74074E9F0A37403F0E490E68AF090E638
:100100008B74020204E9901FAFE0FEA3E0FFEE60F3
:10011000030201CDEF24FE603E1470030201A0240F
:100120000260030201CD75B69375B11000000000A6
:100130000000000053B1EF00000000000000004389
:10014000B11075B68390E7407401F0E490E68AF050
:1001500090E68B040204E91215DAEF4E7002D32206
:10016000E4901FB7F0A3F0901FB1E0FEA3E0FFC33F
:10017000901FB8E09F901FB7E09E40030205ABA31D
:10018000E02440F582E434E7F583E0F5995398FDE7
:10019000901FB8E004F070CF901FB7E004F080C764
:1001A000901FB6E5B1F0E0FF30E6047E0280027EEB
:1001B00000EF30E5047F0180027F00EF4E90E740C2
:1001C000F0E490E68AF090E68B040204E9D32290F2
:1001D0001FAFE0FEA3E0FFEE704BEF24FE601014B3
:1001E000601B2402703FA204E43390E74080059036
:1001F000E740E5BBF090E68B7401F0802A90E6D1F1
:10020000E090E740F090E6D0E090E741F090E6CF54
:10021000E090E742F090E6CEE090E743F090E68B86
:100220007404F08002D322E490E68A0204E91214F6
:10023000D6EF4E7002D322000000901FB37401F07D
:10024000A374E7F0A37440F07580810000001216DB
:10025000CE12167FEF4E7002D322901FB4E475F0D9
:1002600002120D697580830000001216CE12167FEF
:10027000EF4E7002D322E490E68AF090E68B74048D
:100280000204E91215DAEF4E7002D3221214D6EFEF
:100290004E7002D3227580810000001217B412162E
:1002A0007FEF4E7002D32275808300000090E743F9
:1002B000E090E7421217BB12167FEF4E6003020573
:1002C000ABD3221214D6EF4E7002D322901FB37418
:1002D00001F0A374E7F0A37440F07580850000007E
:1002E0001216CE12167FEF4E7002D322901FB4E486
:1002F00075F002120D697580870000001216CE128B
:10030000167FEF4E7002D322E490E68AF090E68BDF
:1003100074040204E91215DAEF4E7002D3221214AB
:10032000D6EF4E7002D3227580850000001217B4FC
:1003300012167FEF4E7002D3227580870000009066
:10034000E743E0FE90E7421217BC12167FEF4E60C3
:10035000030205ABD3221215DAEF4E7002D32290BE
:10036000E741E0FE90E740E0FDEDFF9019C1EEF0BF
:10037000A3EFF09019C1E0A2E713F0A3E013F0029D
:1003800005AB90E6047480F00000007406F00000F5
:1003900000E4F000000090E74004F0E490E68AF00A
:1003A00090E68B04F00205AB901FAFA3E0FF30E0B6
:1003B0000553807F8003438080EF30E1055380FE4A
:1003C0008003438001901FB0E090E740F0E490E6A6
:1003D0008AF090E68B040204E91215DAEF4E7002FF
:1003E000D32290E6BAE054074430901EF0F090E734
:1003F00040E0901EF1F090E741E0901EF2F07A1E8E
:100400007BF07D037F101212B80205AB1215DAEFF4
:100410004E7002D322901FAFE0FEA3E0FFEE600318
:100420000205ABEF24FC6010146035240460030265
:1004300005AB1212F70205AB90E741E0FE90E740F2
:10044000E0FDEDFF901EEAEEF0A3EFF0E0240AFEDF
:10045000901EEAE03400901EE8F0A3CEF00205AB57
:10046000C2AD90E740E0F5CAA3E0F5CBD2AD0205FE
:10047000AB901FAFE0FEA3E0FFEE7069EF14602ABF
:1004800014605424FE601704705B901EEBE090E74C
:1004900040F0901EEAE090E741F0D2AD803190E765
:1004A00040E5CAF0A3E5CBF080259019CFE0FEA38C
:1004B000E0FFC374149F901FB8F074059E901FB79F
:1004C000F0A3E090E740F0901FB7E090E741F09094
:1004D000E68B7402F0800E9019C8E090E740F0902F
:1004E000E68B7401F0E490E68AF090E6A0E04480A8
:1004F000F00205AB1215DAEF4E7002D322E4901F22
:10050000B7F0A3F0901FB1E0FEA3E0FFC3901FB8C7
:09051000E09F901FB7E09E5055DA
:100519001213A9EF604F1213A6EF60497F5312130C
:10052900BEEF6041901FB7E475F001120D7FFE74B4
:100539004025F0F58274E73EF583E0FF901FB9F09E
:100549001213BEEF601F901FB9E060AF30E00C12CC
:1005590013A6EF60A61213A6EF60A0901FB9E0FFE3
:05056900C313F080E166
:10056E009019C9E070377B017A1F79B6121422EF09
:10057E00602B901FB6E0FF901EE8E4F0A3EFF012A0
:10058E001422EF6018901FB6E0FE901EE8E04EF0C9
:0E059E00A3E0F09019C97401F08002D322C3CB
:0105AC00222C
:10184E00C0E0C083C082901EEBE004F07006901ED4
:0D185E00EAE004F0C2CFD082D083D0E032A7
:1018A500C0E0C083C082D2015391EF90E65D740120
:0818B500F0D082D083D0E032B4
:1018D500C0E0C083C0825391EF90E65D7404F0D000
:0618E50082D083D0E03246
:1018EB00C0E0C083C0825391EF90E65D7402F0D0EC
:0618FB0082D083D0E03230
:10153000C0E0C083C082C0D075D000C006C0079094
:101540001FC7E0FEA3E0FF901FC3EEF0A3EFF0F58E
:10155000828E83A37402F0901FBFE0FEA3E0FF9091
:101560001FC5EEF0A3EFF0F5828E83A37407F0534E
:1015700091EF90E65D7410F0D007D006D0D0D08205
:05158000D083D0E03231
:1018BD00C0E0C083C082D2035391EF90E65D7408FF
:0818CD00F0D082D083D0E0329C
:10147A00C0E0C083C082C0D075D000C006C007904B
:10148A00E680E030E730901FBFE0FEA3E0FF901F48
:10149A00C3EEF0A3EFF0F5828E83A37402F0901FDF
:1014AA00C7E0FEA3E0FF901FC5EEF0A3EFF0F582C0
:1014BA008E83A37407F05391EF90E65D7420F0D009
:0C14CA0007D006D0D0D082D083D0E03212
:0112FF0032BC
:011961003253
:011962003252
:011963003251
:011964003250
:01196500324F
:01196600324E
:01196700324D
:01196800324C
:01196900324B
:01196A00324A
:01196B003249
:01196C003248
:01196D003247
:01196E003246
:01196F003245
:011970003244
:011971003243
:011972003242
:011973003241
:011974003240
:01197500323F
:01197600323E
:01197700323D
:01197800323C
:01197900323B
:01197A00323A
:01197B003239
:01197C003238
:01197D003237
:01197E003236
:01197F003235
:011980003234
:011981003233
:011982003232
:011983003231
:10186B00EF30E00353B1FEEF30E10353B1FDEF3046
:0D187B00E20353B17FEF30E3035380EF220F
:10188800EF30E00343B101EF30E10343B102EF3041
:0D189800E20343B180EF30E30343801022F0
:03004300021200A6
:0300530002120096
:101200000218A5000218EB000218D5000218BD0054
:101210000215300002147A000212FF000219610068
:1012200002196200021963000219640002196500C4
:1012300002196600021967000219680002196900A4
:1012400002196A000219610002196B0002196C0090
:1012500002196D0002196E0002196F000219700068
:10126000021971000219610002196100021961007E
:101270000219720002197300021974000219750034
:101280000219760002197700021978000219790014
:1012900002197A0002197B0002197C0002197D00F4
:1012A00002197E0002197F000219800002198100D4
:0812B0000219820002198300FB
:03002B0002184E6A
:0A194700E4901FD2F0D2E9D2AF22E3
:10171800AC0790E678E020E6F9901FD2E0702D90B3
:10172800E678E04480F0AF04EF25E090E679F090A9
:101738001FCDEDF0AF03A907A37401F0A3EAF0A34E
:0E174800E9F0E4901FD1F0A304F0D322C322F5
:03004B00020BCCD9
:100BCC00C0E0C083C082C0D075D000C000C001C0DE
:100BDC0002C003C00790E678E030E209901FD2749F
:100BEC0006F0020CF290E678E020E10E901FD2E0C5
:100BFC00640260067407F0020CF2901FD2E024FE2F
:100C0C007003020C9114604924FE7003020CE4245E
:100C1C00FC7003020CED24086003020CF2901FCE52
:100C2C00E0FBA3E0FAA3E0F9901FD1E0FF04F08F02
:100C3C0082758300120D0890E679F0901FCDE0FFCD
:100C4C00901FD1E06F6003020CF2A37405F0020C4C
:100C5C00F290E679E0FF901FCEE0FBA3E0FAA3E070
:100C6C00F9901FD1E0F582758300EF120D47901FAC
:100C7C00D27402F0901FCDE06401706A90E678E0C7
:100C8C004420F08061901FCDE024FEFF901FD1E046
:100C9C00B5070790E678E04420F0901FCDE014FFF4
:100CAC00901FD1E0B5070C90E678E04440F0901F1F
:100CBC00D2E4F090E679E0FF901FCEE0FBA3E0FADF
:100CCC00A3E0F9901FD1E0F582758300EF120D4778
:100CDC00901FD1E004F0800E90E678E04440F08064
:100CEC0000901FD2E4F05391DFD007D003D002D094
:0C0CFC0001D000D0D0D082D083D0E032F4
:10180C0090E682E044C0F090E681F043870100004E
:04181C0000000022A6
:101820007400F58690FDA57C05A3E582458370F9DB
:011830002295
:1017E00090E682E030E004E020E60B90E682E03014
:1017F000E119E030E71590E680E04401F07F147EC7
:0C1800000012158590E680E054FEF022F6
:1017560030050990E680E0440AF0800790E680E0D4
:101766004408F07FDC7E0512158590E65D74FFF077
:0F17760090E65FF05391EF90E680E054F7F02299
:10158500901FAFEEF0A3EFF090E600E05418701A4C
:10159500901FB0E02401FF901FAFE03400C313FE9D
:1015A500EF13FFEEF0A3EFF0801790E600E054187C
:1015B500FFBF100D901FB0E025E0F0901FAFE033A6
:1015C500F0901FAF74FFF5F0120D7F45F060051226
:0515D500182080ED224A
:02178500A907B2
:10178700901FCBE0FEA3E0FF8F828E83A3E064036C
:101797007017AD0119ED7001228F828E83E07C00F6
:0C17A7002FFDEC3EFEAF0580DFE4FEFFEE
:0117B3002213
:1012B800901FBAE4F0A304F0121718901FBAE07058
:1012C80002A3E06028901FD2E024FA6009146006A7
:1012D80024077009D322E4901FD2F0D322901FBBB9
:0E12E800E004F070D6901FBAE004F080CED380
:0112F60022D5
:0300000002115C8E
:0C115C00787FE4F6D8FD7581200211A315
:100D0800BB010CE58229F582E5833AF583E02250A0
:100D180006E92582F8E622BBFE06E92582F8E222EA
:0D0D2800E58229F582E5833AF583E4932204
:100D3500BB010689828A83F0225002F722BBFE019D
:020D4500F32297
:100D4700F8BB010DE58229F582E5833AF583E8F0E2
:100D5700225006E92582C8F622BBFE05E92582C88E
:020D6700F22276
:100D6900C5F0F8A3E028F0C5F0F8E5821582700215
:060D79001583E038F022B2
:100D7F00A3F8E0C5F025F0F0E58215827002158327
:060D8F00E0C838F0E82284
:100D9500BB010A89828A83F0E5F0A3F0225006F7A9
:0F0DA50009A7F01922BBFE06F3E5F009F31922A6
:100DB400EB9FF5F0EA9E42F0E99D42F0E89C45F095
:010DC400220C
:0C0DC500ECF0A3EDF0A3EEF0A3EFF022A1
:100DD100A8828583F0D083D082120DE8120DE8122B
:100DE1000DE8120DE8E473E493A3C583C5F0C58350
:100DF100C8C582C8F0A3C583C5F0C583C8C582C86C
:010E010022CE
:101168000207E1E493A3F8E493A34003F68001F2B5
:1011780008DFF48029E493A3F85407240CC8C33388
:10118800C4540F4420C8834004F456800146F6DF57
:10119800E4800B0102040810204080900EEDE47EEC
:1011A800019360BCA3FF543F30E509541FFEE4934C
:1011B800A360010ECF54C025E060A840B8E493A313
:1011C800FAE493A3F8E493A3C8C582C8CAC583CA3E
:1011D800F0A3C8C582C8CAC583CADFE9DEE780BEF6
:010FD200001E
:00000001FF
