:100F00001201000200000040EF0301100000010286
:100F100000010A06000200000040010009022E0044
:100F2000010100C0000904000004FF0000000705E3
:100F30000202000200070504020002000705860203
:100F40000002000705880200020009022E000101CC
:100F500000C0320904000004FF000000070502027F
:100F6000400000070504024000000705860240001B
:100F70000007058802400000040309041003500024
:100F8000690063006100720072006F001803500076
:100F9000690063006100720072006F002D0055004F
:060FA000530042000000B6
:0A13E40000010202030304040505E2
:10080200E4F513F512F511F510C203C200C202C2DB
:1008120001120BA57E0F7F008E238F24752B0F757F
:100822002C1275210F75221C75290F752A4A752DF8
:100832000F752E78EE54E0700302094675140075A8
:1008420015808E168F17C374A49FFF740F9ECF243A
:1008520002CF3400FEE48F0F8E0EF50DF50CF50B72
:10086200F50AF509F508AF0FAE0EAD0DAC0CAB0BEA
:10087200AA0AA909A808C3120DC05026E515250B1E
:10088200F582E514350AF58374CDF0E50B2401F504
:100892000BE4350AF50AE43509F509E43508F508EB
:1008A20080C4E4F50BF50AF509F508AF0FAE0EADFD
:1008B2000DAC0CAB0BAA0AA909A808C3120DC050B3
:1008C20031AE0AAF0BE5172FF582E5163EF583E050
:1008D200FDE5152FF582E5143EF583EDF0EF2401D9
:1008E200F50BE43EF50AE43509F509E43508F508A7
:1008F20080B985142385152474002480FF740F3475
:10090200FFFEC3E52C9FF52CE52B9EF52BC3E526B8
:100912009FF526E5259EF525C3E5289FF528E527C1
:100922009EF527C3E5229FF522E5219EF521C3E529
:100932002A9FF52AE5299EF529C3E52E9FF52EE586
:100942002D9EF52DD2E843D82090E668E04409F0C8
:1009520090E65CE0443DF0D2AF90E680E020E10515
:10096200D205120DD190E680E054F7F0538EF8C212
:10097200033001051205E1C20130032912140250AD
:1009820024C2031212E720001690E682E030E70448
:10099200E020E1EF90E682E030E604E020E0E412BD
:0A09A20012671214041203A080C7AC
:1005E10090E6B9E0700302068F14700302070C2431
:1005F100FE700302078F24FB700302068914700347
:10060100020683146070146073240560030207EE10
:1006110012140640030207FA90E6BBE024FE6022B2
:1006210014603324FD601114602224067045E52313
:1006310090E6B3F0E5248034E52B90E6B3F0E52CA9
:10064100802AE52590E6B3F0E5268020E52790E6AF
:10065100B3F0E528801690E6BAE0FF121293AA06DD
:10066100A907EA49600DEE90E6B3F0EF90E6B4F029
:100671000207FA0207F31213D20207FA1213EE026B
:1006810007FA120EB80207FA1213C00207FA12147F
:100691000840030207FA90E6B8E0247F6015146071
:1006A1001924027063A200E43325E0FFA202E433BF
:1006B1004F8041E490E740F0803F90E6BCE0547EFB
:1006C100FF7E00E0D394807C0040047D0180027DA8
:1006D10000EC4EFEED4F24E4F58274133EF583E405
:1006E10093FF3395E0FEEF24A1FFEE34E68F82F510
:1006F10083E0540190E740F0E4A3F090E68AF090A3
:10070100E68B7402F00207FA0207F312140A40039F
:100711000207FA90E6B8E024FE60162402600302A4
:1007210007FA90E6BAE0B40105C2000207FA02072F
:10073100F390E6BAE0705590E6BCE0547EFF7E008F
:10074100E0D394807C0040047D0180027D00EC4E6A
:10075100FEED4F24E4F58274133EF583E493FF33F9
:1007610095E0FEEF24A1FFEE34E68F82F583E0549D
:10077100FEF090E6BCE05480131313541FFFE054C5
:100781000F2F90E683F0E04420F0806D8064121416
:100791000C506690E6B8E024FE60192402705A906D
:1007A100E6BAE0B40104D200804F90E6BAE06402F8
:1007B1006047803E90E6BCE0547EFF7E00E0D3942B
:1007C100807C0040047D0180027D00EC4EFEED4FF7
:1007D10024E4F58274133EF583E493FF3395E0FE40
:1007E100EF24A1FFEE34E68F82F5838008120080AA
:1007F100500790E6A0E04401F090E6A0E04480F0CC
:0108010022D4
:030033000213FEB7
:0413FE0053D8EF329F
:100AB400608018002101013F01013F07010000038C
:100AC40000000300070301030705070709000000EE
:100AD4000000003F2101013F01013F070100020125
:100AE40000020100070200020604060709000000D4
:100AF4000000003F02021302022EB80700000102A8
:100B040000010300030101070505070700000000B9
:100B140000002D3F02021302022E380700020304D4
:100B24000203050002000006040407070000000099
:100B340000002D3F60241887000000000000000022
:100B440000000000000000000000000000000000A1
:100B5400000000000000000000000000471880E0D2
:060B6400000007EA4E004C
:100C810090E60174EAF090E6F574FFF0901880E0C8
:100C910090E6F3F0901881E090E6C3F0901882E0BE
:100CA10090E6C1F0901883E090E6C2F0901885E0DC
:100CB10090E6C0F0901886E090E6F4F075AF077406
:100CC10018F59A7400F59B759DE4E4F59EFF90E696
:100CD1007BE090E67CF00FBF80F4E490E671F0F5E4
:100CE100B490E672E0547FF053B67F000000E490C8
:100CF100E6C4F000000090E6C5F0901887E090E6A9
:100D0100C6F0901888E090E6C7F0901889E090E668
:100D1100C8F090188AE090E6C9F090188BE090E650
:100D2100CAF090188CE090E6CBF090188DE090E638
:0A0D3100CCF090188EE090E6CDF0B3
:010D3B002295
:100B6A004218B000004118AF005018B2C0F9A4B042
:100B7A00999282F880988883C6A1868E4218AB0023
:100B8A0000C10402360000023300000231000001F5
:0A0B9A002F004118AD004118AE0015
:10103200C0E0C0F0C083C082C0D075D000C000C084
:1010420001C002C003C004C005C006C007E53245A6
:10105200317F0860051210CB80031210846332FFC7
:101062006331FFC2CFC2CED007D006D005D004D0A4
:1010720003D002D001D000D0D0D082D083D0F0D023
:02108200E0325A
:0C130C0090E741E090E740FEE0FDEDFFBF
:10131800AD07AC06E5BB30E7FB90E6F0ECF0ED90EE
:04132800E6F1F022D8
:0612BF00AB1AAA1BA91CDA
:1012C500E5BB30E7FB90E6F1E0F52FE5BB30E7FB4A
:1012D50090E6F2E0FE90E6F0E0FDEDFFEE8FF00225
:0212E5000DA159
:100BA50000000090E600E054E74410F000000090DB
:100BB500E605E054FDF0D20090E61074A0F090E652
:100BC50011F000000090E61274A2F000000090E61B
:100BD5001374A0F000000090E61474E0F00000002B
:100BE500E490E615F000000090E6047480F0000043
:100BF500007402F00000007404F00000007406F0B8
:100C0500000000E4F000000090E61804F000000089
:100C15007411F0000000E490E619F000000090E681
:100C25001A7409F0000000E490E68DF000000090D1
:100C3500E6957480F0000000F0000000120C819031
:100C4500E6727408F075B693E4F5B1538EDFD2CA37
:100C5500C2CCC2CDC2C8C2BDC2CFC2CE75CB637530
:100C6500CAC0D2ADD2AFF59890E67004F043B29EFB
:0C0C750075808143AF010000000213F6FF
:1003A000E4F518F519F51AE5BB20E70302049DE50D
:1003B000AA20E2457AF4790074F4F59A7400F59B6A
:1003C00090E694E0FE90E695E07C002400FFEC3E91
:1003D000FEE4FDC3ED9FEC9E501090E67BE07518A7
:1003E00000F5190DBD00010C80E9751A010000002F
:1003F00090E6957480F0000000E5AB30E103020464
:100400009D90E6F4E070047F0180027F00EF20E021
:10041000F090E6ABE0FE90E6ACE0FDAC06ECC3137A
:10042000FCED1324FEFD74FF3CFCD3ED9400EC9432
:10043000004025758089AF0490E6D0EFF000000001
:10044000AF05EF90E6D1F0000000E4F5BB0000003E
:10045000E5BB30E7FB00000090E6F4E070047F01AC
:1004600080027F00EF20E0F075808DE490E6D0F010
:1004700000000090E6D17402F0000000E4F5BB003B
:100480000000E5BB30E7FB00000090E6F4E07004FC
:100490007F0180027F00EF20E0F00000009018ABA9
:1004A000E07002A3E0700302058BE5BB20E70302C6
:1004B000058BE5AC30E00302058B90E6F4E07004B8
:1004C0007F0180027F00EF20E0F09018ACE024FE76
:1004D000F09018ABE034FFF0D3A3E094009018AB99
:1004E000E0648094804038758089E490E6CEF00026
:1004F000000090E6CFF00000009018ABE0FCA3E015
:10050000FDEC90E6D0F0000000ED90E6D1F00000A8
:100510000075BB06000000E5BB30E7FB000000757E
:10052000808DE490E6CEF000000090E6CFF0000071
:100530000090E6D0F000000090E6D17402F00000D8
:100540000075BB06000000E5BB30E7FB0000009033
:10055000E6AFE0FE90E6B0E0FDEEF533EDF534C336
:100560009537E5339536500690E6487406F0E490EA
:1005700018ABF0A3F075808D90E6F4E070047F0175
:1005800080027F00EF20E0F00000009018B0E475DA
:10059000F001120D8BAFF0FEBE2722BF101F901886
:1005A000AFE004F0E05407FF1210CB9018AFE0F476
:1005B0005407FF121084E49018B0F0A3F0E51A601D
:1005C0001F7E00E519540F24B2F582EE3418AB8279
:1005D000FA7D017F211213487F211211CBE4F51A15
:0105E00022F8
:02140200D322F3
:02140400D322F1
:02140600D322EF
:100EB80090E680E030E71D00000090E6247402F020
:100EC800000000E490E625F0000000D20475360426
:100ED800F537801B000000E490E624F00000009045
:100EE800E6257440F0000000C204753600F537901E
:070EF800E6BAE0F535D32254
:1013C00090E740E535F0E490E68AF090E68B04F093
:0213D000D32226
:0813EE0090E6BAE0F530D322CD
:1013D20090E740E530F0E490E68AF090E68B04F086
:0213E200D32214
:02140800D322ED
:02140A00D322EB
:02140C00D322E9
:1000800090E6BBE0FE90E6BAE0FDEEF518EDF5195E
:1000900090E6BFE0FE90E6BEE0FDEDFFE4F51DF565
:1000A0001E90E6B9E02450603324F0B40900400308
:1000B00002039C9000C175F003A4C58325F0C5839D
:1000C000730200F30201F90202460202880202D51D
:1000D00002031802034402019302036990E740748B
:1000E000E9F0A37403F0E490E68AF090E68B7402E2
:1000F000020392E5186003020191E51924FE603BBA
:100100001460662402600302019175B69375B11004
:10011000000000000000000053B1EF0000000000EC
:1001200000000043B11075B68390E7407401F0E41D
:1001300090E68AF090E68B04020392E490E68BF05E
:10014000E5BA20E0FBE4FDFCC3ED9FEC9E4003021A
:10015000039E74402DF582E434E7F583E0F599536E
:1001600098FD0DBD00010C80DFAFB1EF30E6047EDD
:100170000280027E00EF30E5047F0180027F00EF05
:100180004E90E740F0E490E68AF090E68B0402039C
:1001900092D322E5187060E51924FE601B14602AD2
:1001A00024027053A204E43390E740F0E490E68A1E
:1001B000F090E68B0402039290E740E5BBF0E490F8
:1001C000E68AF090E68B0402039290E6D1E090E795
:1001D00040F090E6D0E090E741F090E6CFE090E785
:1001E00042F090E6CEE090E743F0E490E68AF090AB
:1001F000E68B7404020392D32290E6F4E070047F4D
:100200000180027F00EF20E0F0751A01751BE77591
:100210001C407580810000001212BFE5BB30E7FB77
:100220007402251CF51CE4351BF51B75808300004A
:10023000001212BFE5BB30E7FBE490E68AF090E6DF
:100240008B7404020392E490E68BF0E5BA20E0FBA5
:1002500090E6F4E070047F0180027F00EF20E0F080
:1002600075808100000012130CE5BB30E7FB758040
:100270008300000090E743E090E742121313E5BBD0
:1002800030E70302039E80F690E6F4E070047F01FD
:1002900080027F00EF20E0F0751A01751BE7751CE6
:1002A000407580850000001212BFE5BB30E7FB748B
:1002B00002251CF51CE4351BF51B7580870000002A
:1002C0001212BFE5BB30E7FBE490E68AF090E68BC4
:1002D0007404020392E490E68BF0E5BA20E0FB9010
:1002E000E6F4E070047F0180027F00EF20E0F0750B
:1002F000808500000012130CE5BB30E7FB7580879A
:1003000000000090E743E0FE90E742121314E5BBC3
:1003100030E70302039E80F6E490E68BF0E5BA2016
:10032000E0FB90E741E0FE90E740E0FDEDFF901834
:10033000ABEEF0A3EFF09018ABE0A2E713F0A3E070
:1003400013F0805A90E6047480F00000007406F008
:10035000000000E4F000000090E74004F0E490E6C4
:100360008AF090E68B04F08035E51930E005538083
:100370007F8003438080E51930E1055380FE8003D0
:1003800043800190E740E519F0E490E68AF090E6BA
:0F0390008B04F090E6A0E04480F08002D322C3FB
:01039F00223B
:10136400C0E0C083C082D2015391EF90E65D740166
:08137400F0D082D083D0E032FA
:10139400C0E0C083C0825391EF90E65D7404F0D046
:0613A40082D083D0E0328C
:1013AA00C0E0C083C0825391EF90E65D7402F0D032
:0613BA0082D083D0E03276
:10119500C0E0C083C082852925852A2685268285CB
:1011A5002583A37402F08521278522288528828539
:1011B5002783A37407F05391EF90E65D7410F0D088
:0611C50082D083D0E0326D
:10137C00C0E0C083C082D2035391EF90E65D740845
:08138C00F0D082D083D0E032E2
:10115800C0E0C083C08290E680E030E7208521258A
:10116800852226852682852583A37402F085292772
:10117800852A28852882852783A37407F05391EF51
:0D11880090E65D7420F0D082D083D0E0327C
:010EFF0032C0
:01140E0032AB
:01140F0032AA
:0114100032A9
:0114110032A8
:0114120032A7
:0114130032A6
:0114140032A5
:0114150032A4
:0114160032A3
:0114170032A2
:0114180032A1
:0114190032A0
:01141A00329F
:01141B00329E
:01141C00329D
:01141D00329C
:01141E00329B
:01141F00329A
:011420003299
:011421003298
:011422003297
:011423003296
:011424003295
:011425003294
:011426003293
:011427003292
:011428003291
:011429003290
:01142A00328F
:01142B00328E
:01142C00328D
:01142D00328C
:01142E00328B
:01142F00328A
:011430003289
:10108400AD07ED30E00D908100E09018ADF0A3E0E5
:1010940054FEF0ED30E10D909100E09018ADF0A316
:1010A400E054FDF0ED30E20D90A100E09018ADF0B9
:1010B400A3E054FBF0ED30E30D90B100E09018ADE7
:0710C400F0A3E054F7F02255
:1010CB00AD07ED30E00D908000E09018ADF0A3E09F
:1010DB004401F0ED30E10D909000E09018ADF0A3DD
:1010EB00E04402F0ED30E20D90A000E09018ADF07E
:1010FB00A3E04404F0ED30E30D90B000E09018ADA8
:07110B00F0A3E04408F0220C
:03002B000210328E
:1012670090E682E030E004E020E60B90E682E03092
:10127700E119E030E71590E680E04401F07F147E45
:0C1287000012111290E680E054FEF022EC
:1012E70090E682E044C0F090E681F0438701000079
:0412F70000000022D1
:100DD10030050990E680E0440AF0800790E680E063
:100DE1004408F07FDC7E0512111290E65D74FFF07D
:0F0DF10090E65FF05391EF90E680E054F7F02228
:0813F600E4F53DD2E9D2AF227B
:1011CB0090E678E020E6F9C2E990E678E04480F01A
:1011DB00EF25E090E679F090E678E030E0F990E6E4
:1011EB0078E04440F090E678E020E6F990E678E08D
:0611FB0030E1D6D2E9222A
:10123500A90790E678E020E6F9E53D702390E67889
:10124500E04480F0E925E090E679F08D38AF03A918
:10125500077539018A3A893BE4F53C753D01D3228E
:02126500C322A2
:10120100A90790E678E020E6F9E53D702590E678BB
:10121100E04480F0E925E0440190E679F08D38AFB3
:1012210003A9077539018A3A893BE4F53C753D0309
:04123100D322C322DF
:03004B000209ACFB
:1009AC00C0E0C083C082C085C084C086758600C08C
:1009BC00D075D000C000C001C002C003C006C00783
:1009CC0090E678E030E206753D06020A9690E678ED
:1009DC00E020E10CE53D64026006753D07020A96D5
:1009EC00E53D24FE605F14603624FE7003020A8726
:1009FC0024FC7003020A9324086003020A96AB39A4
:100A0C00AA3AA93BAF3C053C8F82758300120D3C82
:100A1C0090E679F0E53C65387070753D05806B901B
:100A2C00E679E0AB39AA3AA93BAE3C8E82758300DD
:100A3C00120D69753D02E5386401704E90E678E060
:100A4C004420F08045E53824FEB53C0790E678E07C
:100A5C004420F0E53814B53C0A90E678E04440F0C8
:100A6C00753D0090E679E0AB39AA3AA93BAE3C8ED5
:100A7C0082758300120D69053C800F90E678E04486
:100A8C0040F0753D008003753D005391DFD007D0D9
:100A9C0006D003D002D001D000D0D0D086D084D0E4
:080AAC0085D082D083D0E03236
:02129300A907A9
:10129500AE2DAF2E8F828E83A3E064037017AD0150
:1012A50019ED7001228F828E83E07C002FFDEC3ECC
:0912B500FEAF0580DF7E007F0022
:0112BE00220D
:10132C00121201E53D24FA600E146006240770F3D6
:0C133C00D322E4F53DD322E4F53DD3229A
:10134800121235E53D24FA600E146006240770F386
:0C135800D322E4F53DD322E4F53DD3227E
:101112008E188F1990E600E054187012E519240118
:10112200FFE43518C313F518EF13F519801590E68F
:1011320000E05418FFBF100BE51925E0F519E5187A
:1011420033F518E5191519AE18700215184E600519
:061152001212FB80EE22E8
:1012FB007400F58690FDA57C05A3E582458370F906
:01130B0022BF
:03004300020E00AA
:03005300020E009A
:100E0000021364000213AA000213940002137C0070
:100E10000211950002115800020EFF0002140E008C
:100E200002140F0002141000021411000214120028
:100E30000214130002141400021415000214160008
:100E40000214170002140E000214180002141900F4
:100E500002141A0002141B0002141C0002141D00CC
:100E600002141E0002140E0002140E0002140E00E2
:100E700002141F0002142000021421000214220098
:100E80000214230002142400021425000214260078
:100E900002142700021428000214290002142A0058
:100EA00002142B0002142C0002142D0002142E0038
:080EB00002142F0002143000AF
:03000000020FA646
:0C0FA600787FE4F6D8FD75813D020FED68
:100D3C00BB010CE58229F582E5833AF583E022506C
:100D4C0006E92582F8E622BBFE06E92582F8E222B6
:0D0D5C00E58229F582E5833AF583E49322D0
:100D6900F8BB010DE58229F582E5833AF583E8F0C0
:100D7900225006E92582C8F622BBFE05E92582C86C
:020D8900F22254
:100D8B00C5F0F8A3E028F0C5F0F8E58215827002F3
:060D9B001583E038F02290
:100DA100BB010A89828A83F0E5F0A3F0225006F79D
:0F0DB10009A7F01922BBFE06F3E5F009F319229A
:100DC000EB9FF5F0EA9E42F0E99D42F0E89C45F089
:010DD0002200
:100FB200020802E493A3F8E493A34003F68001F24B
:100FC20008DFF48029E493A3F85407240CC8C33340
:100FD200C4540F4420C8834004F456800146F6DF0F
:100FE200E4800B0102040810204080900AB4E47EE1
:100FF200019360BCA3FF543F30E509541FFEE49304
:10100200A360010ECF54C025E060A840B8E493A3CA
:10101200FAE493A3F8E493A3C8C582C8CAC583CAF5
:10102200F0A3C8C582C8CAC583CADFE9DEE780BEAD
:010BA4000050
:00000001FF
