:100000000C942B060C944C060C944C060C944C0649
:100010000C944C060C944C060C944C060C944C0618
:100020000C944C060C944C060C944C060C944C0608
:100030000C944C060C944C060C944C060C944C06F8
:100040000C944C060C944C060C944C060C94450FE6
:100050000C944C060C944C060C944C060C944C06D8
:100060000C944C060C944E060C944C060C944C06C6
:100070000C944C060C944C060C944C060C944C06B8
:100080000C944C060C944C060C944C060C944C06A8
:100090000C944C060C944C060C944C060C944C0698
:1000A0000C944C060C944C060C944C060C944C0688
:1000B0000C944C060C944C060C944C060C944C0678
:1000C0000C944C060C944C060C944C060C944C0668
:1000D0000C944C060C944C060C944C060C944C0658
:1000E0000C944C060C94E6120C94910D0C94330F66
:1000F0000C94060D0C948E0E0C943B0F0C94520A2B
:100100000C94A5120C94400D0C940F130C94CF1268
:100110000C94460E0C94A40B0C940B100C9415101C
:100120000C94700B0C948D120C94350D5265636514
:100130006976656420636861726163746572206EBC
:10014000756D6265722061626F7665206C696D699C
:100150007400256320203C2D2D20636F7069656439
:1001600020746F20726563656976652062756666C6
:1001700065722E2020526563656976656420636F21
:10018000756E742069732025640050617273652058
:1001900062756666657220636F6E7461696E732046
:1001A0002725732700436F6D6D616E642070726F39
:1001B00063657373207370656564206572726F7216
:1001C00021005265636569766564206120636F6D07
:1001D0006D616E64207465726D696E61746F72001A
:1001E0004261642073797374656D20737461746502
:1001F000202564004669726D7761726520766572AC
:1002000073696F6E206973202573004E6F206861DB
:100210006E646C65722073706563696669656420DD
:10022000666F7220257320617267756D656E742E1E
:1002300000457865637574696E6720636F6D6D61E5
:100240006E642077697468207369676E65642069DD
:100250006E7420617267756D656E742E00457865E9
:10026000637574696E6720636F6D6D616E6420776E
:1002700069746820756E7369676E656420696E7451
:1002800020617267756D656E742E0054686520611B
:100290007267756D656E742076616C756520697323
:1002A0002025752E00457865637574696E67206337
:1002B0006F6D6D616E642077697468206865782061
:1002C000617267756D656E742E004578656375742F
:1002D000696E6720636F6D6D616E64207769746805
:1002E000206E6F20617267756D656E742E00556E9D
:1002F0007265636F676E697A656420636F6D6D61A7
:100300006E643A20272573272E0049676E6F726945
:100310006E6720617267756D656E7420666F7220FE
:10032000636F6D6D616E6420272573272E00417207
:1003300067756D656E7420746F202725732720699B
:10034000732077697468696E206C696D6974732EA7
:1003500000417267756D656E7420746F2027257378
:1003600027206973206F7574206F662072616E6735
:10037000652E00436F6D6D616E6420272573272005
:100380007265636F676E697A65642E0054686520D4
:10039000636F6D6D616E64277320617267756D6543
:1003A0006E7420697320272573272E0054686520FA
:1003B000636F6D6D616E6420636F6E7461696E73DF
:1003C00020612073706163652E0054686520706140
:1003D00072736520627566666572206973206C6F42
:1003E000636B65642E00417267756D656E74207372
:1003F000697A652069732025640053797374656D8B
:10040000202573206E6F7420666F756E64004E6FCA
:1004100077206C6F6767696E672073797374656D99
:100420002025730025750D0A004C6F6767657220E3
:10043000656E61626C6520726567697374657220B0
:1004400073657420746F2025752E004C6F67206CC7
:100450006576656C202575206973206E6F74207237
:1004600065636F676E697A65642E004C6F676769B4
:100470006E672073657420746F206C6576656C20E0
:100480002569005069636172726F2C426F786572E2
:100490002C534E25752C2573004C6F6164696E6773
:1004A00020736C6F7420494420257500577269745D
:1004B000696E6720736C6F74204944202575004C69
:1004C0006F6164696E672073657269616C206E7517
:1004D0006D6265722025750057726974696E6720B8
:1004E00073657269616C206E756D62657220257529
:1004F00000526561642025692066726F6D20616419
:1005000064726573732025690057726F74652025C6
:100510006920746F206164647265737320256900BB
:100520005265616420307825780057726F746520B9
:1005300030782578004661696C656420746F20739B
:100540006574206D6173746572206D6F646500530E
:10055000504920636F6E74726F6C207265676973A7
:10056000746572206973203078257800496E69744B
:1005700069616C697A696E67206D6574726F6E6F00
:100580006D650057726F746520307825780057725A
:100590006F7465203078257800536C617665204152
:1005A000434B656420646174612062797465202521
:1005B000752E0054574920737461747573206973E4
:1005C000203078257800536C6176652041434B6577
:1005D0006420696E737472756374696F6E2030780D
:1005E00025780054574920737461747573206973BA
:1005F000203078257800436F756C64206E6F74200E
:1006000073656C6563742064657669636500417227
:10061000626974726174696F6E206C6F73740053D9
:100620004C412B57207472616E736D6974746564EC
:100630002C204E41434B20726563656976656420CA
:100640006166746572202575207472696573005344
:100650004C412B57207472616E736D6974746564BC
:100660002C2041434B2072656365697665640054B4
:10067000574920737461747573206973203078252D
:100680007800436F756C64206E6F742073657420FE
:10069000737461727420636F6E646974696F6E0045
:1006A0004172626974726174696F6E206C6F7374E9
:1006B00000537461727420636F6E646974696F6E45
:1006C000207365740057726F746520307825780048
:1006D00057726F7465203078257820746F207265AA
:1006E000676973746572203078257800536C617681
:1006F000652041434B6564206461746120627974B4
:10070000652025752E0054574920737461747573E4
:10071000206973203078257800536C61766520411C
:10072000434B65642061646472657373203078257F
:10073000780054574920737461747573206973206D
:100740003078257800436F756C64206E6F74207369
:10075000656C6563742064657669636500417262E7
:100760006974726174696F6E206C6F737400534C9E
:10077000412B57207472616E736D69747465642CBB
:10078000204E41434B207265636569766564206144
:100790006674657220257520747269657300534C08
:1007A000412B57207472616E736D69747465642C8B
:1007B0002041434B20726563656976656400545738
:1007C00049207374617475732069732030782578BB
:1007D00000436F756C64206E6F74207365742073B2
:1007E0007461727420636F6E646974696F6E004126
:1007F00072626974726174696F6E206C6F737400D9
:10080000537461727420636F6E646974696F6E20D3
:1008100073657400526561642025752066726F6D82
:10082000207265676973746572202575004E4143B7
:100830004B207265636569766564206166746572D4
:10084000206461746120726571756573740054571A
:10085000492073746174757320697320307825782A
:100860000054574920737461747573206973203084
:1008700078257800536574207265706561746564CD
:1008800020737461727420636F6E646974696F6E33
:100890000044617461207472616E736D6974746573
:1008A000642C204E41434B20726563656976656414
:1008B0000044617461207472616E736D6974746553
:1008C000642C2041434B2072656365697665640042
:1008D000545749207374617475732069732030789C
:1008E000257800436F756C64206E6F742073656C9F
:1008F000656374206465766963650041726269743A
:10090000726174696F6E206C6F737400534C412B6D
:1009100057207472616E736D69747465642C204E17
:1009200041434B2072656365697665642061667436
:10093000657220257520747269657300534C412BD4
:1009400057207472616E736D69747465642C2041F4
:10095000434B20726563656976656400545749208E
:10096000737461747573206973203078257800433F
:100970006F756C64206E6F7420736574207374617E
:10098000727420636F6E646974696F6E0041726285
:100990006974726174696F6E206C6F737400536553
:1009A0007420737461727420636F6E646974696F0C
:1009B0006E005265616420307825782066726F6D14
:1009C00020726567697374657220300057726F74A6
:1009D00065203078257820746F20636F6E74726F95
:1009E0006C20726567697374657200536C6176651B
:1009F0002041434B656420646174612062797465B1
:100A00002025752E00545749207374617475732026
:100A10006973203078257800436F756C64206E6FA1
:100A2000742073656C656374206465766963650022
:100A30004172626974726174696F6E206C6F737455
:100A400000534C412B572073656E742C20676F74D4
:100A5000204E41434B2066726F6D20616464726565
:100A6000737320307825782061667465722025754F
:100A700020747269657300534C412B572074726166
:100A80006E736D69747465642C2041434B207265EC
:100A900063656976656400545749207374617475A1
:100AA00073206973203078257800436F756C64205B
:100AB0006E6F742073657420737461727420636F39
:100AC0006E646974696F6E004172626974726174F8
:100AD000696F6E206C6F737400537461727420635D
:100AE0006F6E646974696F6E20736574005265611E
:100AF000642025752066726F6D20636F6E74726F4F
:100B00006C207265676973746572004E41434B20B7
:100B100072656365697665642061667465722064D8
:100B20006174612072657175657374005457492052
:100B3000737461747573206973203078257800436D
:100B40006F756C64206E6F742073656C65637420C0
:100B50006465766963650041726269747261746983
:100B60006F6E206C6F737400534C412B5220747263
:100B7000616E736D69747465642C204E41434B2023
:100B800072656365697665642061667465722025A7
:100B90007520747269657300534C412B5220747236
:100BA000616E736D69747465642C2041434B2072CF
:100BB0006563656976656400545749207374617490
:100BC0007573206973203078257800436F756C64E5
:100BD000206E6F7420736574207374617274206367
:100BE0006F6E646974696F6E0041726269747261DC
:100BF00074696F6E206C6F73740053657420737426
:100C000061727420636F6E646974696F6E00436F04
:100C10006E74726F6C20726567697374657220639D
:100C20006F6E7461696E732030782578005072653C
:100C3000737375726520636F6465203078256C78F6
:100C400000496E697469616C697A696E67207365C1
:100C50006E736F72000011241FBECFEFD1E2DEBFB2
:100C6000CDBF00E00CBF14E0A0E0B2E0E8ECFCE394
:100C700000E00BBF02C007900D92AC30B107D9F76E
:100C800025E0ACE0B4E001C01D92A533B207E1F766
:100C90000E94131A0C94621E0C9400001F920F9273
:100CA0000FB60F9211240BB60F92EF92FF920F9393
:100CB0001F932F933F934F935F936F937F938F93E4
:100CC0009F93AF93BF93CF93DF93EF93FF93E09105
:100CD0000002F09101020488F589E02D8091C600A0
:100CE0008083E0910002F0910102A489B5898C9182
:100CF0008D3009F075C082EC91E09F938F931F9225
:100D0000CBEDD2E0DF93CF930E941C0BE091000269
:100D1000F09101020F900F900F900F900F9084A50B
:100D2000882309F444C085A58823B1F085EA91E0C1
:100D30009F938F9384E08F93DF93CF930E941C0B3C
:100D400080910002909101020E9471070F900F9014
:100D50000F900F900F902BC00488F589E02D108222
:100D6000E0900002F090010287010A5E1F4FB70178
:100D7000C8010E940D1B81E0F70185A71F930F9307
:100D80008AE891E09F938F931F92DF93CF930E9405
:100D90001C0B80910002909101020E947107EDB737
:100DA000FEB737960FB6F894FEBF0FBEEDBFFF91AA
:100DB000EF91DF91CF91BF91AF919F918F917F91F3
:100DC0006F915F914F913F912F911F910F91FF90E4
:100DD000EF900F900BBE0F900FBE0F901F901895C5
:100DE00084A58F5F84A71F928F938C911F928F93FE
:100DF00082E591E09F938F931F92CBEDD2E0DF933A
:100E0000CF930E941C0BE0910002F09101028DB77C
:100E10009EB709960FB6F8949EBF0FBE8DBF84A5EE
:100E2000833168F08CE291E09F938F9384E08F93FD
:100E3000DF93CF930E941C0B0E944A0881CF8489C4
:100E400095890196958B848BB2CFCF93DF93FC016C
:100E500084E1DF01C82F1D92CA95E9F7F58BE48B79
:100E6000DF015696ED0119928A95E9F7B3A7A2A77B
:100E700014A615A6DF91CF9108950F931F93CF93DA
:100E8000DF938B01FC01A2A5B3A5ED010990002021
:100E9000E9F72197CA1BDB0BCE0199279F938F930C
:100EA00086EE93E09F938F9382E08F9382EE92E0A1
:100EB0009F938F930E941C0B81E02DB73EB7295F53
:100EC0003F4F0FB6F8943EBF0FBE2DBFF80194817F
:100ED0009C1708F080E08195DF91CF911F910F91D1
:100EE0000895FC0184E1DF011D928A95E9F7F58BF5
:100EF000E48B14A60895BF92CF92DF92EF92FF92F7
:100F00000F931F93CF93DF938C016B01EA01DC01F8
:100F10001296FC9012971396EC906EE273E08F2D70
:100F20009E2D0E94041B892B91F48AEC92E09F93E2
:100F30008F9382E08F9382EE92E09F938F930E9433
:100F40001C0B0F900F900F900F900F902FC063E32A
:100F500073E08F2D9E2D0E94041B892BB1F585EA2D
:100F600092E09F938F9382E0B82EBF9292EEE92E8B
:100F700092E0F92EFF92EF920E941C0BC6010E9494
:100F8000460C888399839F938F938BE892E09F937D
:100F90008F93BF92FF92EF920E941C0BEDB7FEB7AA
:100FA0003C960FB6F894FEBF0FBEEDBFD801159664
:100FB000ED91FC91CE01DF91CF911F910F91FF90A8
:100FC000EF90DF90CF90BF90199469E373E08F2D7D
:100FD0009E2D0E94041B892B91F48DE592E09F9336
:100FE0008F9382E08F9382EE92E09F938F930E9483
:100FF0001C0BC6010E94770C99838883A2CF60E402
:1010000073E08F2D9E2D0E94041B892B91F481E3A8
:1010100092E09F938F9382E08F9382EE92E09F9372
:101020008F930E941C0BC6010E94790C9B838A83BC
:1010300088CFEF92FF928BE092E09F938F9384E0B2
:101040008F9382EE92E09F938F930E941C0BEDB7DB
:10105000FEB737960FB6F894FEBF0FBEEDBFDF9117
:10106000CF911F910F91FF90EF90DF90CF90BF90A5
:10107000089587E493E09F938F9389E493E09F938F
:101080008F931F920E94BB090F900F900F900F90AB
:101090000F90089587E493E09F938F938DE493E0FE
:1010A0009F938F931F920E94BB090F900F900F90F8
:1010B0000F900F900895BF92CF92DF92EF92FF9220
:1010C0000F931F93CF93DF93EC018B018DA58823A2
:1010D00009F4EEC08AEC93E09F938F9322E0B22E46
:1010E000BF9232EEC32E32E0D32EDF92CF920E9417
:1010F0001C0B7E0126E1E20EF11C60E270E0C701EC
:101100000E94F91A9BA78AA70F900F900F900F903B
:101110000F90892B89F18CEA93E09F938F93BF9274
:10112000DF92CF920E941C0BEAA5FBA510828AA534
:101130009BA501969BA78AA70F900F900F900F90E9
:101140000F90EAA5FBA580818032C9F1FF93EF9350
:101150008CE893E09F938F9382E08F9382EE92E0EE
:101160009F938F930E941C0B8DB79EB707960FB667
:10117000F8949EBF0FBE8DBFC7010E94840CF8017A
:1011800085819681892BF9F4FF92EF928EEE92E0A1
:101190009F938F9384E08F9382EE92E09F938F933F
:1011A0000E941C0B0E944A081DA62DB73EB7295F5E
:1011B0003F4F0FB6F8943EBF0FBE2DBF79C031969A
:1011C000FBA7EAA7BECFF801D080C1806D2D7C2D92
:1011D000C7010E94041B892B09F09AC0CF92DF92AD
:1011E00083E793E09F938F9382E0D82EDF9292EE75
:1011F000E92E92E0F92EFF92EF920E941C0B6EE214
:1012000073E0F801828193810E94041B2DB73EB7E1
:10121000295F3F4F0FB6F8943EBF0FBE2DBF892BFD
:1012200009F450C0B801CE010E943D07F8012181A8
:101230009081882301F12F939F9381E593E09F9301
:101240008F9384E08F93FF92EF920E941C0B2DB737
:101250003EB7295F3F4F0FB6F8943EBF0FBE2DBF7C
:10126000DF91CF911F910F91FF90EF90DF90CF9082
:10127000BF900C944A082F939F938EE293E09F9324
:101280008F93DF92FF92EF920E941C0B409102021B
:10129000509103026AA57BA5C8010E947B078DB708
:1012A0009EB707960FB6F8949EBF0FBE8DBF1DA6C2
:1012B000DF91CF911F910F91FF90EF90DF90CF9032
:1012C000BF9008958AA59BA5892BC1F0F801818163
:1012D0008F9380818F938AE093E09F938F9383E035
:1012E0008F93FF92EF920E941C0B2DB73EB7295FA0
:1012F0003F4F0FB6F8943EBF0FBE2DBF4091020284
:101300005091030270E060E0C8010E947B07CFCFDC
:10131000095F1F4F34CF8091C00087FFFCCF8091C1
:10132000C6000895882319F0813041F00895809116
:10133000C00085FFFCCF6093C60008958091300106
:1013400085FFFCCF6093360108950F931F93CF93D1
:10135000DF93082FC62FD72F16E9160F6991662342
:1013600029F0802F0E9492091C13F8CFDF91CF91B2
:101370001F910F910895CF93DF93CDB7DEB79E01F4
:10138000275F3F4F4F81588566E970E083E994E01D
:101390000E94591B63E974E08E810E94A50980E0D8
:1013A000DF91CF910895CF93DF93CDB7DEB79E0144
:1013B000275F3F4F4F81588566E970E083E994E0ED
:1013C0000E94921B63E974E08E810E94A50980E06F
:1013D000DF91CF9108950F931F93CF93DF93082F41
:1013E000EB01FE011491612F802F0E94920921963A
:1013F0001111F7CFDF91CF911F910F910895E0EC7C
:10140000F0E080818D7F80831092C50029E12093D8
:10141000C400A1ECB0E098E19C93E2ECF0E08081A4
:101420008F73808380818F7C80838081877F80839E
:1014300080818B7F80838081866080838C918068AF
:101440008C93E0E3F1E080818D7F80831092350101
:101450002093340190933101E2E3F1E080818F73B6
:10146000808380818F7C80838081877F808380815F
:101470008B7F808380818660808308951092C50071
:101480008CE08093C4000895E091A602F091A70239
:101490008FEF9FEFDC0180839183A283B38384E08D
:1014A00084830895E091A602F091A70283818F932F
:1014B00082818F9381818F9380818F9384E294E0E6
:1014C0009F938F931F920E94D3098DB79EB7079663
:1014D0000FB6F8949EBF0FBE8DBF0895E091A6028F
:1014E000F091A702108211821282138208959F93B5
:1014F0008F938AE493E09F938F9381E08F930E9470
:10150000BB090F900F900F900F900F9008958F923E
:101510009F92AF92BF92CF92DF92FF920F931F9351
:10152000CF93DF93CDB7DEB7E2970FB6F894DEBF67
:101530000FBECDBF5C01F62E4A01C090A602D0902E
:10154000A7020DE612E0F80160817181FB01808144
:10155000882309F445C0C5010E94041B892B09F0AA
:1015600068C0F8012281F60180819181A281B38156
:1015700004C0B695A795979587952A95D2F780FFD1
:1015800058C0F2E0FF1609F44EC0FF15D8F1FF2055
:1015900009F443C081E0F81609F442C0F8018181E2
:1015A0008F9380818F9380ED93E09F938F931F9211
:1015B00082E38F938E010F5F1F4F1F930F930E9443
:1015C0001C1BC8010E94770AC4010E94770A87E4A5
:1015D00093E00E94770A0FB6F894DEBF0FBECDBF2E
:1015E000E2960FB6F894DEBF0FBECDBFDF91CF916C
:1015F0001F910F91FF90DF90CF90BF90AF909F9081
:101600008F90089593E0F91689F0E4E08CEC93E074
:10161000FE12C4CF0E94770AC1CF8CEB93E0FACFC1
:1016200080EC93E0F7CF84EC93E0F4CF88EC93E088
:10163000F1CF0D5F1F4F87CF1F93CF93DF93CDB7B0
:10164000DEB7E2970FB6F894DEBF0FBECDBF1BAD7D
:10165000E091A602F091A70280819181A281B381DD
:10166000892B8A2B8B2BB1F08481181798F09E015F
:10167000225C3F4F4CAD5DAD62E370E0CE01019660
:101680000E94921BAE014F5F5F4F612F89AD9AADF3
:101690000E94870AE2960FB6F894DEBF0FBECDBF58
:1016A000DF91CF911F910895E091A602F091A702DA
:1016B00084831F928F938BE694E09F938F9382E0B5
:1016C0008F938EEB92E09F938F930E941C0B8DB7AC
:1016D0009EB707960FB6F8949EBF0FBE8DBF0895B4
:1016E000FC01808191818230910551F1E0F40097F5
:1016F00011F18130910511F19F938F938BE494E068
:101700009F938F9384E08F938EEB92E09F938F93C0
:101710000E941C0B8DB79EB707960FB6F8949EBF1C
:101720000FBE8DBF08958330910561F0843091051F
:1017300019F784E001C080E00C94540B81E0FCCFE9
:1017400082E0FACF83E0F8CFFC0180819181E091C3
:10175000A602F091A702AC0170E060E040835183E3
:10176000628373839F938F9389E294E09F938F9317
:1017700082E08F938EEB92E09F938F930E941C0BDD
:101780008DB79EB707960FB6F8949EBF0FBE8DBF5C
:101790000895EF92FF920F931F93CF93DF93F82E4C
:1017A000E92E0DE612E0D801CD91DC9188818111FE
:1017B00018C0EF92FF928AEF93E09F938F9384E09B
:1017C0008F938EEB92E09F938F930E941C0BEDB74B
:1017D000FEB737960FB6F894FEBF0FBEEDBF81E09F
:1017E0003CC0BE018F2D9E2D0E94041B892BE1F56C
:1017F000E091A602F091A702D80112962C9181E007
:1018000090E0A0E0B0E004C0880F991FAA1FBB1FA2
:101810002A95D2F74081518162817381842B952B67
:10182000A62BB72B80839183A283B383DF93CF93BF
:101830008EE094E09F938F9382E08F938EEB92E003
:101840009F938F930E941C0B8DB79EB707960FB680
:10185000F8949EBF0FBE8DBF80E0DF91CF911F91A6
:101860000F91FF90EF9008950D5F1F4F9CCF982F21
:1018700080ED890F8A3048F089EC890F803128F09B
:1018800089EA890F803108F080E00895EF92FF9295
:101890000F931F93CF93DF93EC0109900020E9F79A
:1018A0002197C81BD90B8C01DD27CC0FDD1FCC0F76
:1018B000DD1FF12CE12C2497CC3F2FEFD20741F410
:1018C000C701DF91CF911F910F91FF90EF90089585
:1018D000F80181918F010E94370C90E00C2E02C01C
:1018E000880F991F0A94E2F7E80EF91EE4CF0C94D2
:1018F000D31A0C94D31A282F80E091E0921708F0A5
:101900000895990F8F5FFACFCF93DF93EC01899100
:10191000811103C0DF91CF91089590E00E94F11AE8
:10192000FE0131978083F3CF80E88093610083E0EC
:10193000809361001092700080E28093B60088EC82
:101940008093B30010926E0081E0809381008093B9
:10195000B0009091B6008091B60084709170892B90
:10196000C1F78AE090E020E335E7F9013197F1F71C
:101970000197D9F73FEF41E0F89436BB37BB10929F
:101980008500109284001092B20087B38823E9F397
:1019900010928100789486B381111CC0209184003C
:1019A0008091850090E0982F8827820F911D8B36BB
:1019B00028E1920744F08091660081508093660090
:1019C00040938100D9CF883E974124F081E08093F5
:1019D00081000895809166008F5FF0CFE1E6F0E02E
:1019E00080E8808310820895E1E6F0E080E880835B
:1019F000108208958091A8029091A9020E94170E6A
:101A00008091A8029091A9020C946D0E88E293E057
:101A10009F938F93E091A802F091A90281818F9307
:101A200080818F9383E894E09F938F931F920E940D
:101A3000D30987E493E09F938F931F920E94BB0981
:101A40008DB79EB70A960FB6F8949EBF0FBE8DBF96
:101A50000895E091A802F091A90283830895E0918E
:101A6000A802F091A9028381089588E198E00FB659
:101A7000F894A895809360000FBE90936000FFCF0C
:101A8000E091A802F091A90283818823D1F08130EE
:101A900081F587E493E09F938F9386EE93E09F9385
:101AA0008F938BEE93E09F938F931F920E94BB09BD
:101AB0008DB79EB707960FB6F8949EBF0FBE8DBF29
:101AC000089587E493E09F938F9380EF93E09F9333
:101AD0008F938BEE93E09F938F931F920E94BB098D
:101AE0008DB79EB707960FB6F8949EBF0FBE8DBFF9
:101AF000089587E493E09F938F938EE293E09F9302
:101B00008F938BEE93E09F938F931F920E94BB095C
:101B10008DB79EB707960FB6F8949EBF0FBE8DBFC8
:101B2000089587E493E09F938F93E091A802F0914A
:101B3000A90282811F928F9388EF93E09F938F93E6
:101B40001F920E94BB098DB79EB707960FB6F894F7
:101B50009EBF0FBE8DBF0895F894F999FECF92BD38
:101B600081BD60BDFA9AF99A78949F938F931F92E2
:101B70006F9389E095E09F938F9382E08F9387EF37
:101B800092E09F938F930E941C0B8DB79EB709968E
:101B90000FB6F8949EBF0FBE8DBF0895F894F999C3
:101BA000FECF92BD81BDF89A789420B59F938F9314
:101BB0001F922F9381EF94E09F938F9382E08F93F6
:101BC00087EF92E09F938F930E941C0B80B52DB7F7
:101BD0003EB7275F3F4F0FB6F8943EBF0FBE2DBFF5
:101BE0000895CF93DF93D82FC92F9F938F9388EDBC
:101BF00094E09F938F9381E08F9387EF92E09F9380
:101C00008F930E941C0B6D2F90E080E00E94AC0D22
:101C10008DB79EB707960FB6F8949EBF0FBE8DBFC7
:101C20006C2F81E090E0DF91CF910C94AC0D0F937D
:101C30001F93CF938C0190E080E00E94CE0DC82FBF
:101C400081E090E00E94CE0D90E0982F88278C0FC5
:101C5000911DF801918380839F938F938FEB94E084
:101C60009F938F9381E08F9387EF92E09F938F9361
:101C70000E941C0B8DB79EB707960FB6F8949EBFB7
:101C80000FBE8DBFCF911F910F910895FC018081F0
:101C900091810E94F10D0E94FA0C0C943908CF93A7
:101CA000C82F1F928F938CEA94E09F938F9381E0CB
:101CB0008F9387EF92E09F938F930E941C0B8DB7B9
:101CC0009EB707960FB6F8949EBF0FBE8DBF6C2FC0
:101CD00082E090E0CF910C94AC0DCF93DF93EC01B8
:101CE00082E090E00E94CE0D8A831F928F9389E953
:101CF00094E09F938F9381E08F9387EF92E09F937F
:101D00008F930E941C0B8DB79EB707960FB6F89461
:101D10009EBF0FBE8DBFDF91CF910895FC018081E2
:101D20000E944F0E0E94FA0C0C943908CF93DF9357
:101D3000219A229A8CB582608CBD8CB580618CBD55
:101D40008CB580648CBD29988CB51F928F938FE4DD
:101D500095E09F938F9382E08F93CAE0D3E0DF9367
:101D6000CF930E941C0B8DB79EB707960FB6F894C1
:101D70009EBF0FBE8DBF0CB404FC0FC085E395E081
:101D80009F938F9384E08F93DF93CF930E941C0BDC
:101D90000F900F900F900F900F90DF91CF910895BB
:101DA0000F931F93CF93DF938EBD0DB407FEFDCF2E
:101DB0001F928F938AE295E09F938F9301E00F9398
:101DC000CAE0D3E0DF93CF930E941C0B1EB51F9295
:101DD0001F9380E295E09F938F930F93DF93CF93B0
:101DE0000E941C0B8DB79EB70E960FB6F8949EBF3F
:101DF0000FBE8DBF812FDF91CF911F910F9108955D
:101E00001092B90080E48093B8000895279A08954D
:101E10002F9A08952F9808952F990C940A0F0C94D7
:101E2000080F8CE695E09F938F9382E08F9385EC6B
:101E300092E09F938F930E941C0BE1E8F0E0808179
:101E40008460808381E792E090938D0080938C0082
:101E5000EFE6F0E08081886080830F900F900F9014
:101E60000F900F9008958BE090E10E948E1960E032
:101E700081E00C94E40F6CE074E08BE090E10E9450
:101E8000A41962E081E00C94E40F1F920F920FB648
:101E90000F9211240BB60F922F933F934F935F93A2
:101EA0006F937F938F939F93AF93BF93EF93FF9322
:101EB00010928500109284000E94910FFF91EF9183
:101EC000BF91AF919F918F917F916F915F914F9152
:101ED0003F912F910F900BBE0F900FBE0F901F9050
:101EE00018959C01CB01019780319742B0F49091F5
:101EF00010049A30A0F487E0989FF0011124EF5E5F
:101F0000FB4F31832083738362834683158214825F
:101F10009F5F9093100480E0089582E0089583E02D
:101F2000089530911004E1E1F4E020E04AE050E04F
:101F300061E0321301C008958681823051F08481BE
:101F40009581A281B3818A179B0730F05583448322
:101F500066832F5F3796EDCF0A9695838483F9CFFA
:101F6000CF93DF93C0E0D7E080911004C81718F03A
:101F7000DF91CF910895DC9FF0011124EF5EFB4FBC
:101F80008681813029F416820190F081E02D199527
:101F9000CF5FEACF97E0899FF0011124EF5EFB4FFE
:101FA0008681089597E0899FF0011124EF5EFB4F31
:101FB00082819381089597E0899FF0011124EF5E5B
:101FC000FB4F84819581089597E0899FF00111244A
:101FD000EF5EFB4F6683089597E0899FF00111241F
:101FE000EF5EFB4F73836283089597E0899FF00152
:101FF0001124EF5EFB4F758364830895289A209A1D
:10200000EBE0F1E0808188608083EAE0F1E08081AC
:10201000886080830895882321F0289A289BFECF2A
:10202000089528982899FECF0895882351F080912B
:102030000B01886080930B0180910B0183FFFCCF23
:10204000089580910B01877F80930B0180910B0194
:1020500083FDFCCF08950895BF92CF92DF92EF9257
:10206000FF920F931F93CF93DF936C01162FEA011A
:1020700080E0F6011995812F8295807F0E94D00E15
:102080008D2F0E94D00E1F92DF9383E8E82E85E00B
:10209000F82EFF92EF92BB24B394BF920EE013E0B0
:1020A0001F930F930E941C0B8C2F0E94D00EDD27D4
:1020B000DF93CF93FF92EF92BF921F930F930E94F3
:1020C0001C0B81E0F60119958DB79EB70E960FB6E1
:1020D000F8949EBF0FBE8DBF80E0DF91CF911F911E
:1020E0000F91FF90EF90DF90CF90BF9008954091B7
:1020F00057045091580463E08BE090E10E942C104B
:102100008091570490915804805F984D90935804A3
:102110008093570480E0089580E008952F923F92C5
:102120004F925F926F927F928F929F92AF92BF92E7
:10213000CF92DF92EF92FF920F931F93CF93DF9393
:102140000F920F92CDB7DEB7382E330C3A83298326
:102150006295607F762E740EEE24E394F12C06E1F6
:1021600013E033EE832E35E0932E84EA8093BC0097
:102170008091BC0087FFFCCF8091B900887F80935D
:102180003205803131F0883309F4F6C0883009F027
:1021900003C121EB36E03F932F9381E08F931F9390
:1021A0000F930E941C0B3092BB0084E88093BC000C
:1021B0000F900F900F900F900F908091BC0087FFB1
:1021C000FCCF8091B900887F809332051F928F9356
:1021D000EFE6F6E0FF93EF93DD24D394DF921F93B5
:1021E0000F930E941C0B809132050FB6F894DEBF4E
:1021F0000FBECDBF803209F4E2C0883309F4F8C0C5
:10220000883109F0FBC02FE436E03F932F93DF9233
:102210001F930F930E941C0B7092BB0084E8809365
:10222000BC000F900F900F900F900F908091BC000A
:1022300087FFFCCF8091B900887F809332051F9281
:102240008F939F928F92DD24D394DF921F930F93ED
:102250000E941C0B809132050FB6F894DEBF0FBEB2
:10226000CDBF803309F46FC0883309F47ECF883244
:1022700009F0D3C01F927F9286EC95E09F938F93D5
:10228000DF921F930F930E941C0B9E012F5F3F4F05
:1022900059010FB6F894DEBF0FBECDBFCC24C39456
:1022A000D12C94E8292E662463945C2C4D2CF501E6
:1022B00081818093BB002092BC008091BC0087FF8D
:1022C000FCCF8091B900887F809332051F928F9355
:1022D00023EB35E03F932F936F921F930F930E9450
:1022E0001C0B809132050FB6F894DEBF0FBECDBF38
:1022F000803349F1883309F438CF883209F08DC032
:102300004F925F9229E935E03F932F936F921F938D
:102310000F930E941C0BF50181811F928F932EE871
:1023200035E03F932F936F921F930F930E941C0BE6
:1023300091E0A91AB1080FB6F894DEBF0FBECDBF69
:10234000CD2809F06CC080E094E99093BC000F9018
:102350000F90DF91CF911F910F91FF90EF90DF9041
:10236000CF90BF90AF909F908F907F906F905F9035
:102370004F903F902F90089580EA96E09F938F931F
:1023800081E08F931F930F930E941C0B0F900F906F
:102390000F900F900F90E9CE82E896E09F938F9375
:1023A00084E08F9386E193E09F938F930E941C0BB0
:1023B0000F900F900F900F900F908FEFC8CFFF925C
:1023C000EF92EFE1F6E0FF93EF93DF921F930F930D
:1023D0000E941C0B3FEFE31AF30A0FB6F894DEBF1E
:1023E0000FBECDBF99ECE916F10409F0BECEE5CFE2
:1023F000EEE0F6E0FF93EF93DF92C4CF86EF95E037
:102400009F938F9384E08F931F930F930E941C0BD5
:102410000F900F900F900F900F908FEF95CFD12CC2
:10242000C12C43CF0895BF92CF92DF92EF92FF92DB
:102430000F931F93CF93DF936C01EB0180E0F601C4
:1024400019958D2F0E94D00E1F92DF9385ECE82EF8
:1024500086E0F82EFF92EF92BB24B394BF920DEF6B
:1024600013E01F930F930E941C0B8C2F0E94D00E21
:10247000DD27DF93CF93FF92EF92BF921F930F93CD
:102480000E941C0B81E0F60119958DB79EB70E9640
:102490000FB6F8949EBF0FBE8DBF80E0DF91CF9145
:1024A0001F910F91FF90EF90DF90CF90BF90089514
:1024B00080E070E060E041E050E0282F30E0F9017A
:1024C000EE0FFF1FE455FD4F9081911106C085E18D
:1024D00090E10E94131280E008959181992341F0C8
:1024E000FA0102C0EE0FFF1F2A95E2F76E0F7F1F61
:1024F0008F5FE3CF0E94581280E0089580E0E82FBC
:10250000F0E0EE0FFF1FE455FD4F9081911102C0E6
:102510000C94581211828F5FF2CFFC01808191815F
:102520009C01215031092830310510F00C944A08E3
:102530008150E82FF0E0EE0FFF1FE455FD4F81E0E2
:1025400081830E9458120C943908FC01808191818A
:10255000EFEFE80F0197089710F00C944A08F0E0AD
:10256000EE0FFF1FE455FD4F8181882389F087E43A
:1025700093E09F938F938EE493E09F938F931F92AA
:102580000E94BB090F900F900F900F900F9008952D
:1025900087E493E09F938F9389E493E0EECFFC016F
:1025A000808191819C01215031092830310510F042
:1025B0000C944A088150E82FF0E0EE0FFF1FE4551D
:1025C000FD4F11820E9458120C943908FC01408181
:1025D000518180E061E070E0A1E04F3F510581F062
:1025E00078F00C944A089B01082E02C0220F331F7A
:1025F0000A94E2F724233523232B79F0A1838F5FFC
:10260000E82FF0E0EE0FFF1FE455FD4F9081911190
:10261000EACF0E9458120C9439081182F0CF90E052
:1026200080E061E070E0292F30E0F901EE0FFF1F3C
:10263000E455FD4F4081411116C027E433E03F933C
:102640002F931F928F9386E094E09F938F931F9216
:102650000E94BB098DB79EB707960FB6F8949EBF30
:102660000FBE8DBF08954181442339F0AB0102C0F4
:10267000440F551F2A95E2F7840F9F5FD4CF2F9206
:102680003F924F925F926F927F928F929F92AF9202
:10269000BF92CF92DF92EF92FF920F931F93CF934F
:1026A000DF93562E482E440C01E010E084EA382EC9
:1026B000C2E0D3E090ED892E98E0992E21EBE22E36
:1026C00028E0F22E34E7C32E38E0D32E242C689471
:1026D00020F84DE8A42E49E0B42E3092BC00809141
:1026E000BC0087FFFCCF8091B900887F80933205C2
:1026F000803131F0883309F427C1883009F032C1C4
:102700002EE939E03F932F9381E08F93DF93CF93AE
:102710000E941C0B4092BB0084E88093BC000F9089
:102720000F900F900F900F908091BC0087FFFCCF0F
:102730008091B900887F809332051F928F932CE59A
:1027400039E03F932F93662463946F92DF93CF9386
:102750000E941C0B809132052DB73EB7295F3F4F79
:102760000FB6F8943EBF0FBE2DBF803209F40DC1E5
:10277000883309F424C1883109F029C18CE399E038
:102780009F938F936F92DF93CF930E941C0B509275
:10279000BB0084E88093BC000F900F900F900F90C7
:1027A0000F908091BC0087FFFCCF8091B900887F9B
:1027B000809332051F928F939F928F926624639429
:1027C0006F92DF93CF930E941C0B809132052DB73F
:1027D0003EB7295F3F4F0FB6F8943EBF0FBE2DBFE7
:1027E000803309F41AC1883309F477CF883209F0AD
:1027F000FDC0FF92EF926F92DF93CF930E941C0B6C
:102800003092BC000F900F900F900F900F9080911E
:10281000BC0087FFFCCF8091B900887F8093320590
:10282000803131F0883309F458CF883009F0DEC0A8
:10283000DF92CF9281E08F93DF93CF930E941C0BA6
:102840002092BB0084E88093BC000F900F900F9003
:102850000F900F908091BC0087FFFCCF8091B90052
:10286000887F809332051F928F9321E638E03F9353
:102870002F9381E08F93DF93CF930E941C0B809165
:1028800032052DB73EB7295F3F4F0FB6F8943EBFD4
:102890000FBE2DBF883309F420CF803409F0A6C0C5
:1028A00084E88093BC008091BC0087FFFCCF8091BE
:1028B000B900887F809332051F928F938EE498E051
:1028C0009F938F9311E01F93C2E0D3E0DF93CF93E8
:1028D0000E941C0B809132052DB73EB7295F3F4FF8
:1028E0000FB6F8943EBF0FBE2DBF803589F08835F6
:1028F00009F07CC08DE298E09F938F931F93DF9344
:10290000CF930E941C0B0F900F900F900F900F9081
:102910007090BB001F925F921F927F9284E198E0BB
:102920009F938F9381E08F9382E093E09F938F93A7
:102930000E941C0B2DB73EB7275F3F4F0FB6F89490
:102940003EBF0FBE2DBF52C0BF92AF9281E08F93AA
:10295000DF93CF930E941C0B0F900F900F900F905E
:102960000F90BBCE8FE699E09F938F9384E08F9377
:1029700082E093E09F938F930E941C0B0F900F9027
:102980000F900F900F908FEF35C01F930F932CE097
:1029900039E03F932F936F92DF93CF930E941C0BEC
:1029A0000F5F1F4F8DB79EB707960FB6F8949EBF67
:1029B0000FBE8DBF093C110509F08FCEE4CF2BEF80
:1029C00038E03F932F936F92DF93CF93C3CF83EE83
:1029D00098E09F938F9384E08F93DF93CF930E942F
:1029E0001C0B0F900F900F900F900F9084E9809325
:1029F000BC00872DDF91CF911F910F91FF90EF9039
:102A0000DF90CF90BF90AF909F908F907F906F900E
:102A10005F904F903F902F90089581E998E09F93A9
:102A20008F936F92DF93CF93DACF2F923F924F9293
:102A30005F926F927F928F929F92AF92BF92CF924E
:102A4000DF92EF92FF920F931F93CF93DF930F923A
:102A50000F92CDB7DEB7E62E4983880F8A8301E057
:102A600010E0FF24F3948EE6282E87E0382E9DE5B3
:102A7000492E97E0592E2EE9622E27E0722E32E37E
:102A8000832E37E0932EC62ED12C4FEEA42E47E096
:102A9000B42E24EA2093BC008091BC0087FFFCCFB9
:102AA0008091B900887F80933205803131F088337E
:102AB00009F4EEC0883009F0FAC080E098E09F93F6
:102AC0008F93FF9282E093E09F938F930E941C0B61
:102AD0003A813093BB0084E88093BC000F900F9044
:102AE0000F900F900F908091BC0087FFFCCF8091DA
:102AF000B900887F809332051F928F938EEB97E009
:102B00009F938F93FF9282E093E09F938F930E9415
:102B10001C0B809132050FB6F894DEBF0FBECDBFFF
:102B2000803209F4D7C0883309F4EBC0883109F04A
:102B3000F0C07F926F92FF9282E093E09F938F9319
:102B40000E941C0BE092BB0084E88093BC000F90B5
:102B50000F900F900F900F908091BC0087FFFCCFDB
:102B60008091B900887F809332051F928F939F9246
:102B70008F92FF9222E033E03F932F930E941C0B31
:102B8000809132050FB6F894DEBF0FBECDBF803303
:102B900009F465C0883309F47CCF883209F0CAC0D3
:102BA0001F92EF9289E197E09F938F93FF9282E0CB
:102BB00093E09F938F930E941C0B39813093BB004D
:102BC00084E88093BC000FB6F894DEBF0FBECDBF83
:102BD0008091BC0087FFFCCF8091B900887F8093F3
:102BE00032051F928F9326E037E03F932F93FF9299
:102BF00022E033E03F932F930E941C0B809132051B
:102C00000FB6F894DEBF0FBECDBF803341F18833DD
:102C100009F43FCF883209F08DC01F921F928CEECD
:102C200096E09F938F93FF9282E093E09F938F9320
:102C30000E941C0BDF92CF921F9239813F9380ED4F
:102C400096E09F938F93FF9282E093E09F938F9300
:102C50000E941C0B0FB6F894DEBF0FBECDBF80E004
:102C600094E99093BC000F900F90DF91CF911F914A
:102C70000F91FF90EF90DF90CF90BF90AF909F901B
:102C80008F907F906F905F904F903F902F9008951E
:102C9000BF92AF92FF9282E093E09F938F930E9446
:102CA0001C0B0F900F900F900F900F90F2CE81EDB4
:102CB00097E09F938F9384E08F9382E093E09F93BC
:102CC0008F930E941C0B0F900F900F900F900F90FE
:102CD0008FEFC9CF1F930F933F922F92FF9282E005
:102CE00093E09F938F930E941C0B0F5F1F4F0FB6B3
:102CF000F894DEBF0FBECDBF093C110509F0C9CE67
:102D0000E7CF5F924F92FF9222E033E03F932F9301
:102D1000C6CF85E497E09F938F9384E08F9322E062
:102D200033E03F932F930E941C0B0F900F900F9056
:102D30000F900F908FEF94CF41E066E087E70E94FD
:102D4000151540E067E087E70E9415154FEF63E037
:102D500087E70E94151560E087E70E943F131F92E6
:102D60008F9382EB99E09F938F9381E08F9382E022
:102D700093E09F938F930E941C0B8DB79EB707968D
:102D80000FB6F8949EBF0FBE8DBF80E008952F92BE
:102D90003F924F925F926F927F928F929F92AF92EB
:102DA000BF92CF92DF92EF92FF920F931F93CF9338
:102DB000DF93880F01E010E094EA392E2AEF822E8B
:102DC0002BE0922E55245394CEEED2E0482E6894F8
:102DD00040F834E8232E48EBE42E4BE0F42E58E67E
:102DE000C52E5BE0D52E67E5662E6BE0762E79EE7C
:102DF000A72E7BE0B72E3092BC008091BC0087FFED
:102E0000FCCF8091B900887F80933205803129F012
:102E10008833F1F1883009F048C09F928F925F9219
:102E2000DF93CF930E941C0B4092BB002092BC000A
:102E30000F900F900F900F900F908091BC0087FF24
:102E4000FCCF8091B900887F809332051F928F93C9
:102E5000FF92EF925F92DF93CF930E941C0B8091C1
:102E600032052DB73EB7295F3F4F0FB6F8943EBFEE
:102E70000FBE2DBF803461F1883409F4A0C08833BF
:102E800009F0B5C07F926F925F92DF93CF9305C038
:102E9000BF92AF925F92DF93CF930E941C0B0F9073
:102EA0000F900F900F900F90A6CF8BEC9BE09F930D
:102EB0008F9384E08F938EEE92E09F938F930E9486
:102EC0001C0B0F900F900F900F900F908FEF63C01F
:102ED00088E99BE09F938F935F92DF93CF930E944B
:102EE0001C0B84E88093BC000F900F900F900F9004
:102EF0000F908091BC0087FFFCCF8091B900887F44
:102F0000809332051F928F938CE29BE09F938F9367
:102F100011E01F93CEEED2E0DF93CF930E941C0B03
:102F2000809132052DB73EB7295F3F4F0FB6F89419
:102F30003EBF0FBE2DBF803589F0883509F066C0D1
:102F40008BE09BE09F938F931F93DF93CF930E941F
:102F50001C0B0F900F900F900F900F90C091BB0023
:102F60001F92CF938DEE9AE09F938F9381E08F9382
:102F70008EEE92E09F938F930E941C0B2DB73EB76D
:102F8000295F3F4F0FB6F8943EBF0FBE2DBF84E9B7
:102F90008093BC008C2F9FEFDF91CF911F910F91F9
:102FA000FF90EF90DF90CF90BF90AF909F908F9069
:102FB0007F906F905F904F903F902F9008951F9358
:102FC0000F93DF92CF925F92DF93CF930E941C0BFF
:102FD0000F5F1F4F8DB79EB707960FB6F8949EBF31
:102FE0000FBE8DBF093C110509F005CF6FCF8FE3F0
:102FF0009BE09F938F9384E08F93DF93CF930E9406
:103000001C0B0F900F900F900F900F90CFEFBFCF32
:103010002F923F924F925F926F927F928F929F92E8
:10302000AF92BF92CF92DF92EF92FF920F931F93D6
:10303000CF93DF930F920F92CDB7DEB78983E62E41
:10304000880F8A8301E010E089ED282E8AE0382E6F
:10305000FF24F39497E9492E9AE0592E21E4622E39
:103060002AE0722E30E3832E3AE0932E45E0C42E00
:103070004AE0D42E58ECA52E5AE0B52E24EA20932F
:10308000BC008091BC0087FFFCCF8091B900887F95
:1030900080933205803131F0883309F4ABC0883039
:1030A00009F0B7C03F922F92FF928EEE92E09F936D
:1030B0008F930E941C0B3A813093BB0084E880936D
:1030C000BC000F900F900F900F900F908091BC005C
:1030D00087FFFCCF8091B900887F809332051F92D3
:1030E0008F935F924F92FF922EEE32E03F932F9399
:1030F0000E941C0B809132050FB6F894DEBF0FBE04
:10310000CDBF803209F498C0883309F4AFC088314C
:1031100009F0B4C087E79AE09F938F93FF928EEEF9
:1031200092E09F938F930E941C0BE092BB0034E8C7
:103130003093BC000F900F900F900F900F908091E4
:10314000BC0087FFFCCF8091B900887F8093320557
:103150001F928F93DF92CF92FF928EEE92E09F9319
:103160008F930E941C0B809132050FB6F894DEBF3E
:103170000FBECDBF803329F1883309F47FCF883269
:1031800009F08DC01F921F928BEE99E09F938F9351
:10319000FF928EEE92E09F938F930E941C0B1F92E2
:1031A000EF928CEC99E09F938F93FF928EEE92E0DA
:1031B0009F938F930E941C0B0FB6F894DEBF0FBE37
:1031C000CDBF80E094E99093BC000F900F90DF9109
:1031D000CF911F910F91FF90EF90DF90CF90BF9014
:1031E000AF909F908F907F906F905F904F903F90A7
:1031F0002F900895BF92AF92FF922EEE32E03F9350
:103200002F930E941C0B0F900F900F900F900F9018
:1032100035CF8AEA9AE09F938F9384E08F938EEE66
:1032200092E09F938F930E941C0B0F900F900F9032
:103230000F900F908FEFC9CF1F930F931F9289812B
:103240008F937F926F92FF922EEE32E03F932F93F7
:103250000E941C0B0F5F1F4F0FB6F894DEBF0FBE0E
:10326000CDBF093C110509F009CFE4CF9F928F92A1
:10327000FF928EEE92E09F938F93C3CF88E19AE006
:103280009F938F9384E08F938EEE92E09F938F9322
:103290000E941C0B0F900F900F900F900F908FEFCC
:1032A00091CF60E00E94081884E70E94C716992712
:1032B0009F938F938EE09CE09F938F9381E08F93F9
:1032C0008EEE92E09F938F930E941C0B8DB79EB75A
:1032D00007960FB6F8949EBF0FBE8DBF80E008958D
:1032E00021E030E0A90102C0440F551F6A95E2F7C2
:1032F000BA010C94081881E49CE09F938F9381E0BD
:103300008F9387ED92E09F938F930E941C0B0F90F9
:103310000F900F900F900F9080E00895CF93DF9360
:10332000EC0180E0FE0119958AEA0E94D00E80E04F
:103330000E94D00E80E00E94D00E81E0FE0119951F
:1033400080E0DF91CF910895AF92BF92CF92DF924C
:10335000EF92FF920F931F93CF93DF9300D00F92C2
:10336000CDB7DEB76C017B0119821A821B821C82E9
:1033700080E0F601199503E010E00330C1F580EF1D
:103380000E94D00E1C8201501109B8F7A980BA80A2
:103390000B811C811F930F93BF92AF928DE29CE033
:1033A0009F938F9382E08F9387ED92E09F938F930B
:1033B0000E941C0BF701A082B1820283138381E07B
:1033C000F60119950FB6F894DEBF0FBECDBF80E0B1
:1033D0000F900F900F900F90DF91CF911F910F9151
:1033E000FF90EF90DF90CF90BF90AF90089580E076
:1033F0000E94D00EE1E0F0E0EC0FFD1FE00FF11FA6
:103400008083C1CFE0E6F0E080818860808388E13E
:103410009EE00FB6F894A895809360000FBE90933D
:10342000600080E0089578940E94F40C0E94021AD3
:1034300081E00E94290D0E94060F0E94FF090E9450
:10344000440A0E94FE0F0E94960E0E946E0A8EEBA6
:1034500092E00E94C90B85EC92E00E94C90B8FECB0
:1034600092E00E94C90B87ED92E00E94C90B8BEDA0
:1034700092E00E94C90B82EE92E00E94C90B8AEE94
:1034800092E00E94C90B8EEE92E00E94C90B87EF7A
:1034900092E00E94C90B8EEF92E00E94C90B82E07D
:1034A00093E00E94C90B8AE093E00E94C90B8EE072
:1034B00093E00E94C90B86E193E00E94C90B8EE164
:1034C00093E00E94C90B83E293E00E94C90B0E9423
:1034D000000F0E94FA0C0E94110F0E947E128BE0D6
:1034E00090E10E947B1980910002909101020E945C
:1034F0002507E7E8F4E084E0DF011D928A95E9F70B
:1035000088E293E09F938F9384EF91E09F938F9352
:1035100082E08F9383E293E09F938F930E941C0B32
:1035200080E00E94290D40E068EE73E083E39FE0B5
:103530000E94710F42E064EF71E08BE39FE00E9414
:10354000710F8DB79EB707960FB6F8949EBF0FBE4A
:103550008DBFC0EED1E084E0F82E03E213E0E091ED
:10356000A802F091A9028381833088F01F928F9383
:10357000DF93CF93FF921F930F930E941C0B8DB785
:103580009EB707960FB6F8949EBF0FBE8DBF64E03E
:1035900072E080910002909101020E945B080E94FB
:1035A000B00FA895DCCFFC0188279927E8942191DA
:1035B0002032E9F3293010F02E30C8F32B3241F0DD
:1035C0002D3239F4689404C00E94141B820F911D9F
:1035D000219120532A30C0F31EF4909581959F4F7E
:1035E00008959111089581548A5108F4805E855A96
:1035F0000895FC018191861721F08823D9F7992736
:1036000008953197CF010895FB01DC018D91019060
:1036100080190110D9F3990B0895FB01DC01019089
:103620000D920020E1F708957AE0979F902D879FF3
:10363000802D910D112408950F931F93CF93DF9345
:10364000CDB7DEB72E970FB6F894DEBF0FBECDBF55
:103650000E891F89888D998D26E02C831A83098312
:1036600097FF02C080E090E801979E838D83AE01B2
:10367000445E5F4F6A8D7B8DCE0101960E94CB1B0D
:103680004D815E8157FD0AC02F813885421753074F
:103690000CF49A01020F131FF80110822E960FB638
:1036A000F894DEBF0FBECDBFDF91CF911F910F9178
:1036B00008950F931F93CF93DF93CDB7DEB72E9767
:1036C0000FB6F894DEBF0FBECDBF8C01FA0186E0C5
:1036D0008C831A83098377FF02C060E070E8615031
:1036E00071097E836D83A901BF01CE0101960E94FD
:1036F000CB1B4D815E8157FD0AC02F813885421753
:1037000053070CF49A01020F131FF80110822E9632
:103710000FB6F894DEBF0FBECDBFDF91CF911F91E2
:103720000F9108950F931F93CF93DF93CDB7DEB71B
:103730002E970FB6F894DEBF0FBECDBF8C01FA01F5
:103740008EE08C831A83098377FF02C060E070E803
:10375000615071097E836D83A901BF01CE0101967D
:103760000E94CB1B4D815E8157FD0AC02F81388599
:10377000421753070CF49A01020F131FF80110822D
:103780002E960FB6F894DEBF0FBECDBFDF91CF915E
:103790001F910F9108952F923F924F925F926F92D7
:1037A0007F928F929F92AF92BF92CF92DF92EF92D1
:1037B000FF920F931F93CF93DF9300D000D000D0E0
:1037C0000F920F92CDB7DEB77C013B018A01FC015D
:1037D00017821682838181FFCEC19AE0292ECE0105
:1037E00001965C01F7019381F30193FD859193FFAD
:1037F00081913F01882309F446C1853239F493FD54
:10380000859193FF81913F01853229F4B70190E0C2
:103810000E94D41DE7CF912C412C512CFFE1F515CE
:1038200038F08B3209F188F4803201F1833221F1D2
:1038300057FC3AC020ED280F2A3040F556FE1FC035
:10384000929C200D1124922E06C08D3291F080336F
:1038500079F7689450F8F30193FD859193FF819176
:103860003F018111DBCF20C0689451F8689452F871
:10387000F2CF689453F8EFCF689454F8ECCF429CA1
:10388000200D1124422E689455F8E5CF8E3229F48C
:1038900056FCF9C0689456F8DECF8C3619F468945B
:1038A00057F8D9CF8836B9F2982F9F7D9554933029
:1038B000C0F08336A1F18337C1F1833509F05BC0D5
:1038C000F801C190D1908F01692D70E056FC02C0C3
:1038D0006FEF7FEFC6010E94BE1D4C01689457F840
:1038E0000AC00C5F1F4F2FE3298388248394912CF7
:1038F0006501E89457F853FC04C04814190409F012
:1039000018F5342C8114910431F5332009F46ACF71
:10391000B70180E290E00E94D41D3A94F6CFF801FE
:10392000808189830E5F1F4FE0CFF801C190D19055
:103930008F01692D70E056FC02C06FEF7FEFC6016A
:103940000E94C91D4C01D5CFB70180E290E00E94D2
:10395000D41D4A94D2CFF60157FC859157FE819130
:103960006F01B70190E00E94D41D31103A94F1E04C
:103970008F1A9108C7CF843619F0893609F074C0C0
:10398000F80157FE6AC061917191819191918F0107
:10399000252D2F76D22E97FF09C090958095709592
:1039A00061957F4F8F4F9F4F6894D7F82AE030E0A2
:1039B000A5010E94041EC82ECA188C2C5D2CD6FEB0
:1039C0000CC0E89450F8C91440F4D4FE05C0D2FCF1
:1039D00003C0FD2DFE7E5F2E892C54FEA4C0FE0187
:1039E000EC0DF11D8081803309F096C0252D297ED4
:1039F000522E852D8870382E53FCA4C050FE9EC0D8
:103A00009C2C841418F44C0C942C981854FEA0C0D0
:103A1000B70180E390E00E94D41D52FE09C088E700
:103A200090E051FE02C088E590E0B7010E94D41DED
:103A3000C91408F499C0CA94D12C9FEFC91AD90AA5
:103A4000CA0CDB1CF60182916F01B70190E00E9465
:103A5000D41DAC14BD04B1F758CF61917191072EFC
:103A6000000C880B990B93CFD52CE894D4F82AE05E
:103A700030E08537E1F1952D997FD92E8F36A9F168
:103A8000F0F4883551F1F701868197812B960FB6B6
:103A9000F894DEBF0FBECDBFDF91CF911F910F9184
:103AA000FF90EF90DF90CF90BF90AF909F908F905E
:103AB0007F906F905F904F903F902F900895803748
:103AC00049F0883701F7D4FE02C06894D2F820E1AB
:103AD00030E00DC06894D4F8F6CF54FE03C0E92F4F
:103AE000E660DE2E20E132E002C028E030E0F8019E
:103AF000D7FE0DC061917191819191918F01A501C6
:103B00000E94041EC82ECA18E894D7F856CF6191B7
:103B1000719190E080E0F2CF52FC02C0839469CFB3
:103B20008394839466CF852D867809F462CFF6CF8F
:103B3000B70180E290E00E94D41D83948414C0F306
:103B4000312C64CF342C3818841408F45FCFF8CFAC
:103B5000852D867809F46CCF8BE251FE80E257FC0C
:103B60008DE2B70190E062CFB70180E390E00E9460
:103B7000D41D9A945DCF8FEF9FEF88CFFC01059005
:103B8000615070400110D8F7809590958E0F9F1F5F
:103B90000895FC016150704001900110D8F78095A4
:103BA00090958E0F9F1F08950F931F93CF93DF93D0
:103BB000182F092FEB018B8181FD09C01FEF0FEF3B
:103BC000812F902FDF91CF911F910F91089582FF48
:103BD00014C02E813F818C819D81281739073CF4C8
:103BE000E881F981CF0101969983888310838E81C2
:103BF0009F8101969F838E83E3CFE885F985812F8E
:103C00001995892BA1F3DACFFA01AA27283051F1AF
:103C1000203181F1E8946F936E7F6E5F7F4F8F4FFD
:103C20009F4FAF4FB1E03ED0B4E03CD0670F781F5C
:103C3000891F9A1FA11D680F791F8A1F911DA11D41
:103C40006A0F711D811D911DA11D20D009F468947A
:103C50003F912AE0269F11243019305D3193DEF622
:103C6000CF010895462F4770405D4193B3E00FD0D8
:103C7000C9F7F6CF462F4F70405D4A3318F0495DC3
:103C800031FD4052419302D0A9F7EACFB4E0A695A6
:103C90009795879577956795BA95C9F700976105C8
:103CA000710508959B01AC010A2E0694579547951E
:103CB00037952795BA95C9F7620F731F841F951F13
:083CC000A01D0895F894FFCF48
:103CC80059048F0452032E0300060D58032E0300D7
:103CD800350D5D03390301700B6403390304A40B2C
:103CE8006B032E0300520A7303390305460E7A0349
:103CF8003903018D128203390301A5128B0339039D
:103D080001CF129303390303E6129B032E03000F1E
:103D180013A4033903018E0EAB032E0300910DB3D8
:103D2800032E0300400D48034803000000BE0200B4
:103D3800E20201DB0202EA0203C50204D60305E03F
:103D48000306020307F70208FE0209D7020ACF0298
:103D58000BEE020C0A030D0E030E1E030F230310B5
:103D680016031148030029052E053305010002003A
:103D780003000400050006000700080000006C6F3F
:103D880067676572006D6574726F6E6F6D6500634D
:103D980068616E6E656C006D707200727863686140
:103DA8007200636F6D6D616E6400616463007463BB
:103DB80061393534786100656570726F6D006361D3
:103DC8006C007463613935333900737069006C7441
:103DD8006332363031006C746332363037006C6DC4
:103DE8003735006D61696E00312E302E35006E6FEB
:103DF8006E650068657831360075696E7431360015
:103E080073696E743136000A00302573002D312530
:103E180073002A69646E3F002A727374006C6F67BE
:103E28006C6576006C6F67726567006C6F677265AA
:103E3800673F007365726E756D006368616E656ECD
:103E480061006368616E656E613F006368616E6FF3
:103E58006666006368616E736574006368616E739B
:103E680065743F00736C6F74696400736C6F746978
:103E7800643F006F7073746174653F005B525D004E
:103E88005B445D005B495D005B575D005B455D0021
:103E980028257329200066756E6374696F6E730038
:103EA800736F756E6400696E6974002573257300FD
:103EB8007374616E6462790025752573006261729E
:0C3EC800677261706800256425730000BB
:00000001FF
