:100000000C9419080C943A080C943A080C943A0889
:100010000C943A080C943A080C943A080C943A0858
:100020000C943A080C943A080C943A080C943A0848
:100030000C943A080C943A080C943A080C943A0838
:100040000C943A080C943A080C943A080C94591100
:100050000C943A080C943A080C943A080C943A0818
:100060000C943A080C943C080C943A080C943A0806
:100070000C943A080C943A080C943A080C943A08F8
:100080000C943A080C943A080C943A080C943A08E8
:100090000C943A080C943A080C943A080C943A08D8
:1000A0000C943A080C943A080C943A080C943A08C8
:1000B0000C943A080C943A080C943A080C943A08B8
:1000C0000C943A080C943A080C943A080C943A08A8
:1000D0000C943A080C943A080C943A080C943A0898
:1000E0000C943A080C94BD150C940E220C94D51562
:1000F0000C948E0F0C94A4100C944C0C0C94A32311
:100100000C94030F0C943C220C9453120C942C1559
:100110000C94320F0C9492150C9435120C944F21C0
:100120000C945C100C949E0D0C9449120C943C128F
:100130000C946A0D0C9464220C941B260C94DD2004
:100140000C9491220C94FF150C943D0F0C941422E6
:100150005265636569766564206368617261637482
:100160006572206E756D6265722061626F766520C2
:100170006C696D697400256320203C2D2D20636F10
:100180007069656420746F207265636569766520A7
:100190006275666665722E202052656365697665B4
:1001A0006420636F756E742069732025640050614C
:1001B0007273652062756666657220636F6E746126
:1001C000696E73202725732700436F6D6D616E6420
:1001D0002070726F6365737320737065656420654A
:1001E00072726F7221005265636569766564206181
:1001F00020636F6D6D616E64207465726D696E61F0
:10020000746F72004261642073797374656D20733A
:1002100074617465202564004669726D776172654A
:100220002076657273696F6E206973202573004EA6
:100230006F2068616E646C657220737065636966B7
:1002400069656420666F7220257320617267756D21
:10025000656E742E00457865637574696E672063FA
:100260006F6D6D616E642077697468207369676E65
:10027000656420696E7420617267756D656E742E99
:1002800000457865637574696E6720636F6D6D6195
:100290006E64207769746820756E7369676E656433
:1002A00020696E7420617267756D656E742E0054DE
:1002B000686520617267756D656E742076616C7516
:1002C000652069732025752E00457865637574690E
:1002D0006E6720636F6D6D616E642077697468204E
:1002E00068657820617267756D656E742E0045785B
:1002F00065637574696E6720636F6D6D616E6420F0
:1003000077697468206E6F20617267756D656E74B1
:100310002E00556E7265636F676E697A656420633F
:100320006F6D6D616E643A20272573272E00496733
:100330006E6F72696E6720617267756D656E74208D
:10034000666F7220636F6D6D616E64202725732761
:100350002E00417267756D656E7420746F202725BD
:1003600073272069732077697468696E206C696DE2
:100370006974732E00417267756D656E7420746FB9
:100380002027257327206973206F7574206F6620DE
:1003900072616E67652E00436F6D6D616E6420271C
:1003A000257327207265636F676E697A65642E0016
:1003B00054686520636F6D6D616E64277320617290
:1003C00067756D656E7420697320272573272E006D
:1003D00054686520636F6D6D616E6420636F6E7429
:1003E00061696E7320612073706163652E005468CB
:1003F000652070617273652062756666657220693A
:1004000073206C6F636B65642E00417267756D6558
:100410006E742073697A65206973202564005379AE
:100420007374656D202573206E6F7420666F756E12
:1004300064004E6F77206C6F6767696E6720737911
:100440007374656D2025730025750D0A004C6F6768
:1004500067657220656E61626C652072656769739D
:100460007465722073657420746F2025752E004C9E
:100470006F67206C6576656C202575206973206E2A
:100480006F74207265636F676E697A65642E004CC5
:100490006F6767696E672073657420746F206C6581
:1004A00076656C202569005069636172726F2C4219
:1004B0006F7865722C534E25752C2573004C6F6137
:1004C00064696E6720736C6F742049442025750041
:1004D00057726974696E6720736C6F742049442089
:1004E0002575004C6F6164696E6720736572696180
:1004F0006C206E756D626572202575005772697487
:10050000696E672073657269616C206E756D6265D6
:100510007220257500526561642025692066726F1E
:100520006D20616464726573732025690057726F72
:10053000746520256920746F20616464726573732B
:100540002025690052656164203078257800577253
:100550006F74652030782578004661696C65642089
:10056000746F20736574206D6173746572206D6F94
:1005700064650053504920636F6E74726F6C207213
:100580006567697374657220697320307825780017
:10059000496E697469616C697A696E67206D65740A
:1005A000726F6E6F6D650057726F746520307825BD
:1005B000780057726F7465203078257800536C612D
:1005C00076652041434B65642064617461206279E3
:1005D00074652025752E0054574920737461747515
:1005E00073206973203078257800536C617665201C
:1005F00041434B656420696E737472756374696FEF
:100600006E203078257800545749207374617475D2
:1006100073206973203078257800436F756C6420EF
:100620006E6F742073656C656374206465766963AE
:1006300065004172626974726174696F6E206C6FDB
:10064000737400534C412B57207472616E736D6943
:10065000747465642C204E41434B20726563656958
:1006600076656420616674657220257520747269F0
:10067000657300534C412B57207472616E736D6922
:10068000747465642C2041434B2072656365697600
:1006900065640054574920737461747573206973DD
:1006A000203078257800436F756C64206E6F74205D
:1006B00073657420737461727420636F6E646974FF
:1006C000696F6E004172626974726174696F6E2045
:1006D0006C6F737400537461727420636F6E64691D
:1006E00074696F6E2073657400546F70617A202591
:1006F00063206973206E6F7420636F6E6E65637420
:10070000656400546F70617A202563206973206EE0
:100710006F7420636F6E6E656374656400546F70F0
:10072000617A202563206973206E6F7420636F6E79
:100730006E65637465640057726F74652030782548
:100740007820746F207265676973746572203078E1
:10075000257800536C6176652041434B65642064C5
:1007600061746120627974652025752E00545749A3
:100770002073746174757320697320307825780054
:10078000536C6176652041434B65642061646472FB
:10079000657373203078257800545749207374614D
:1007A000747573206973203078257800436F756CF9
:1007B00064206E6F742073656C6563742064657665
:1007C000696365004172626974726174696F6E2059
:1007D0006C6F737400534C412B57207472616E73AD
:1007E0006D69747465642C204E41434B20726563BF
:1007F000656976656420616674657220257520746C
:100800007269657300534C412B57207472616E738B
:100810006D69747465642C2041434B207265636577
:100820006976656400545749207374617475732048
:100830006973203078257800436F756C64206E6F83
:10084000742073657420737461727420636F6E64B6
:100850006974696F6E004172626974726174696F64
:100860006E206C6F737400537461727420636F6ECA
:10087000646974696F6E20736574005265616420E9
:1008800025752066726F6D20726567697374657275
:10089000202575004E41434B20726563656976657E
:1008A0006420616674657220646174612072657190
:1008B000756573740054574920737461747573209F
:1008C0006973203078257800545749207374617417
:1008D0007573206973203078257800536574207211
:1008E0006570656174656420737461727420636FF0
:1008F0006E646974696F6E00446174612074726122
:100900006E736D69747465642C204E41434B207284
:100910006563656976656400446174612074726121
:100920006E736D69747465642C2041434B2072654D
:100930006365697665640054574920737461747502
:1009400073206973203078257800436F756C6420BC
:100950006E6F742073656C6563742064657669637B
:1009600065004172626974726174696F6E206C6FA8
:10097000737400534C412B57207472616E736D6910
:10098000747465642C204E41434B20726563656925
:1009900076656420616674657220257520747269BD
:1009A000657300534C412B57207472616E736D69EF
:1009B000747465642C2041434B20726563656976CD
:1009C00065640054574920737461747573206973AA
:1009D000203078257800436F756C64206E6F74202A
:1009E00073657420737461727420636F6E646974CC
:1009F000696F6E004172626974726174696F6E2012
:100A00006C6F737400536574207374617274206327
:100A10006F6E646974696F6E0057726F7465203011
:100A200078257820746F20636F6E74726F6C2072FB
:100A30006567697374657200536C61766520414324
:100A40004B6564206461746120627974652025754A
:100A50002E00545749207374617475732069732094
:100A60003078257800436F756C64206E6F74207346
:100A7000656C6563742064657669636500417262C4
:100A80006974726174696F6E206C6F737400534C7B
:100A9000412B572073656E742C20676F74204E4174
:100AA000434B2066726F6D206164647265737320BE
:100AB00030782578206166746572202575207472FF
:100AC00069657300534C412B57207472616E736DCE
:100AD00069747465642C2041434B207265636569B9
:100AE0007665640054574920737461747573206986
:100AF00073203078257800436F756C64206E6F74B6
:100B00002073657420737461727420636F6E6469FE
:100B100074696F6E004172626974726174696F6E9C
:100B2000206C6F737400537461727420636F6E6411
:100B30006974696F6E207365740052656164202565
:100B4000752066726F6D20636F6E74726F6C2072A9
:100B500065676973746572004E41434B207265632B
:100B6000656976656420616674657220646174618C
:100B700020726571756573740054574920737461F0
:100B8000747573206973203078257800436F756C15
:100B900064206E6F742073656C6563742064657681
:100BA000696365004172626974726174696F6E2075
:100BB0006C6F737400534C412B52207472616E73CE
:100BC0006D69747465642C204E41434B20726563DB
:100BD0006569766564206166746572202575207488
:100BE0007269657300534C412B52207472616E73AD
:100BF0006D69747465642C2041434B207265636594
:100C00006976656400545749207374617475732064
:100C10006973203078257800436F756C64206E6F9F
:100C2000742073657420737461727420636F6E64D2
:100C30006974696F6E004172626974726174696F80
:100C40006E206C6F737400536574207374617274DA
:100C500020636F6E646974696F6E00436F6E7472A7
:100C60006F6C20726567697374657220636F6E7450
:100C700061696E73203078257800507265737375E2
:100C8000726520636F6465203078256C7800496E4A
:100C9000697469616C697A696E672073656E736FD8
:100CA000720057726F7465203078257820746F2039
:100CB0007265676973746572203078257800536CAB
:100CC0006176652041434B656420646174612062F4
:100CD0007974652025752E0054574920737461740A
:100CE0007573206973203078257800536C617665C0
:100CF0002041434B656420616464726573732062B4
:100D00007974652025750054574920737461747592
:100D100073206973203078257800436F756C6420E8
:100D20006E6F742073656C656374206465766963A7
:100D300065004172626974726174696F6E206C6FD4
:100D4000737400534C412B57207472616E736D693C
:100D5000747465642C204E41434B20726563656951
:100D600076656420616674657220257520747269E9
:100D7000657300534C412B57207472616E736D691B
:100D8000747465642C2041434B20726563656976F9
:100D900065640054574920737461747573206973D6
:100DA000203078257800436F756C64206E6F742056
:100DB00073657420737461727420636F6E646974F8
:100DC000696F6E004172626974726174696F6E203E
:100DD0006C6F737400537461727420636F6E646916
:100DE00074696F6E207365740052656164202575A7
:100DF0002066726F6D207265676973746572202555
:100E000075004E41434B20726563656976656420C9
:100E100061667465722064617461207265717565C4
:100E20007374005457492073746174757320697327
:100E30002030782578005457492073746174757395
:100E400020697320307825780053657420726570AE
:100E5000656174656420737461727420636F6E647D
:100E60006974696F6E0044617461207472616E739D
:100E70006D69747465642C204E41434B2072656328
:100E8000656976656400536C6176652041434B6506
:100E900064206164647265737320627974652025CF
:100EA00075005457492073746174757320697320F9
:100EB0003078257800436F756C64206E6F742073F2
:100EC000656C656374206465766963650041726270
:100ED0006974726174696F6E206C6F737400534C27
:100EE000412B57207472616E736D69747465642C44
:100EF000204E41434B2072656365697665642061CD
:100F00006674657220257520747269657300534C90
:100F1000412B57207472616E736D69747465642C13
:100F20002041434B207265636569766564005457C0
:100F30004920737461747573206973203078257843
:100F400000436F756C64206E6F742073657420733A
:100F50007461727420636F6E646974696F6E0041AE
:100F600072626974726174696F6E206C6F73740061
:100F700053657420737461727420636F6E64697456
:100F8000696F6E00466F756E642073657269616C7F
:100F900020257520666F7220626F61726420256360
:100FA00000546F70617A202563206973206E6F741E
:100FB00020636F6E6E656374656400546F70617A50
:100FC000202563206973206E6F7420636F6E6E65D9
:100FD0006374656400436F6E766572746564207037
:100FE0007265737375726520697320256C75205066
:100FF000617363616C7300436F6E766572746564D0
:1010000020707265737375726520697320256C7525
:101010002050617363616C73004F6C642070726563
:10102000737375726520636F6465203078256C7802
:10103000000011241FBECFEFD1E2DEBFCDBF00E024
:101040000CBF14E0A0E0B2E0E4E5F5E500E00BBF82
:1010500002C007900D92AA39B107D9F726E0AAE994
:10106000B4E001C01D92A736B207E1F70E94BF2489
:101070000C94A82A0C9400001F920F920FB60F92A6
:1010800011240BB60F92EF92FF920F931F932F93A1
:101090003F934F935F936F937F938F939F93AF9300
:1010A000BF93CF93DF93EF93FF93E0910002F09112
:1010B00001020488F589E02D8091C6008083E091CB
:1010C0000002F0910102A489B5898C918D3009F05C
:1010D00075C086EE91E09F938F931F92CEE0D3E090
:1010E000DF93CF930E94160DE0910002F091010270
:1010F0000F900F900F900F900F9084A5882309F404
:1011000044C085A58823B1F089EC91E09F938F932B
:1011100084E08F93DF93CF930E94160D809100029D
:10112000909101020E9460090F900F900F900F9014
:101130000F902BC00488F589E02D1082E09000020A
:10114000F090010287010A5E1F4FB701C8010E949B
:10115000532781E0F70185A71F930F938EEA91E053
:101160009F938F931F92DF93CF930E94160D8091D0
:101170000002909101020E946009EDB7FEB7379618
:101180000FB6F894FEBF0FBEEDBFFF91EF91DF9158
:10119000CF91BF91AF919F918F917F916F915F910F
:1011A0004F913F912F911F910F91FF90EF900F90D2
:1011B0000BBE0F900FBE0F901F90189584A58F5FE8
:1011C00084A71F928F938C911F928F9386E791E053
:1011D0009F938F931F92CEE0D3E0DF93CF930E9433
:1011E000160DE0910002F09101028DB79EB70996AD
:1011F0000FB6F8949EBF0FBE8DBF84A5833170F0EB
:1012000080E591E09F938F9384E08F93DF93CF935A
:101210000E94160D8CEF0E94390A80CF848995892F
:101220000196958B848BB1CFCF93DF93FC0184E142
:10123000DF01C82F1D92CA95E9F7F58BE48BDF011A
:101240005696ED0119928A95E9F7B3A7A2A714A6BD
:1012500015A6DF91CF9108950F931F93CF93DF933E
:101260008B01FC01A2A5B3A5ED0109900020E9F7CF
:101270002197CA1BDB0BCE0199279F938F938AE09E
:1012800094E09F938F9382E08F9385E193E09F9307
:101290008F930E94160D81E02DB73EB7295F3F4F17
:1012A0000FB6F8943EBF0FBE2DBFF80194819C1776
:1012B00008F080E08195DF91CF911F910F91089503
:1012C000FC0184E1DF011D928A95E9F7F58BE48B3F
:1012D00014A60895BF92CF92DF92EF92FF920F93E0
:1012E0001F93CF93DF938C016B01EA01DC0112960F
:1012F000FC9012971396EC9067E773E08F2D9E2D6C
:101300000E944A27892B91F48EEE92E09F938F934F
:1013100082E08F9385E193E09F938F930E94160D57
:101320000F900F900F900F900F902FC06CE773E00D
:101330008F2D9E2D0E944A27892BB1F589EC92E0D2
:101340009F938F9382E0B82EBF9295E1E92E93E0B0
:10135000F92EFF92EF920E94160DC6010E94400ED8
:10136000888399839F938F938FEA92E09F938F93C3
:10137000BF92FF92EF920E94160DEDB7FEB73C961A
:101380000FB6F894FEBF0FBEEDBFD8011596ED91D4
:10139000FC91CE01DF91CF911F910F91FF90EF90C3
:1013A000DF90CF90BF90199462E873E08F2D9E2D4F
:1013B0000E944A27892B91F481E892E09F938F93B2
:1013C00082E08F9385E193E09F938F930E94160DA7
:1013D000C6010E94710E99838883A2CF69E873E0E9
:1013E0008F2D9E2D0E944A27892B91F485E592E04E
:1013F0009F938F9382E08F9385E193E09F938F93E8
:101400000E94160DC6010E94730E9B838A8388CFAB
:10141000EF92FF928FE292E09F938F9384E08F93FD
:1014200085E193E09F938F930E94160DEDB7FEB771
:1014300037960FB6F894FEBF0FBEEDBFDF91CF9188
:101440001F910F91FF90EF90DF90CF90BF90089584
:1014500080E993E09F938F9382E993E09F938F932A
:101460001F920E94B50B0F900F900F900F900F904E
:10147000089520E933E03F932F93282F082E000C86
:10148000330B3F938F9386E993E09F938F931F9243
:101490000E94B50B8DB79EB707960FB6F8949EBF06
:1014A0000FBE8DBF0895BF92CF92DF92EF92FF9251
:1014B0000F931F93CF93DF93EC018B018DA58823AE
:1014C00009F4F0C08EEE93E09F938F9322E0B22E4A
:1014D000BF9235E1C32E33E0D32EDF92CF920E942C
:1014E000160D7E0126E1E20EF11C60E270E0C701FC
:1014F0000E943F279BA78AA70F900F900F900F90F5
:101500000F90892B89F180ED93E09F938F93BF9289
:10151000DF92CF920E94160DEAA5FBA510828AA544
:101520009BA501969BA78AA70F900F900F900F90F5
:101530000F90EAA5FBA580818032D1F1FF93EF9354
:1015400080EB93E09F938F9382E08F9385E193E00C
:101550009F938F930E94160D8DB79EB707960FB677
:10156000F8949EBF0FBE8DBFC7010E947E0EF8018A
:1015700085819681892B01F5FF92EF9282E193E0BC
:101580009F938F9384E08F9385E193E09F938F9354
:101590000E94160D8FEF0E94390A1DA62DB73EB787
:1015A000295F3F4F0FB6F8943EBF0FBE2DBF7AC0E4
:1015B0003196FBA7EAA7BDCFF801D080C1806D2D81
:1015C0007C2DC7010E944A27892B09F09BC0CF922E
:1015D000DF9287E993E09F938F9382E0D82EDF928A
:1015E00095E1E92E93E0F92EFF92EF920E94160DFD
:1015F00067E773E0F801828193810E944A272DB743
:101600003EB7295F3F4F0FB6F8943EBF0FBE2DBFC8
:10161000892B09F451C0B801CE010E942C09F801B0
:1016200021819081882309F12F939F9385E793E08F
:101630009F938F9384E08F93FF92EF920E94160DF9
:101640002DB73EB7295F3F4F0FB6F8943EBF0FBE90
:101650002DBF8BEFDF91CF911F910F91FF90EF90F6
:10166000DF90CF90BF900C94390A2F939F9382E51F
:1016700093E09F938F93DF92FF92EF920E94160D5B
:1016800040910202509103026AA57BA5C8010E9405
:101690006A098DB79EB707960FB6F8949EBF0FBE26
:1016A0008DBF1DA6DF91CF911F910F91FF90EF90FD
:1016B000DF90CF90BF9008958AA59BA5892BC1F09C
:1016C000F80181818F9380818F938EE293E09F93C5
:1016D0008F9383E08F93FF92EF920E94160D2DB7A8
:1016E0003EB7295F3F4F0FB6F8943EBF0FBE2DBFE8
:1016F000409102025091030270E060E0C8010E9434
:101700006A09CFCF095F1F4F32CF8091C00087FF9A
:10171000FCCF8091C6000895882319F0813041F0F4
:1017200008958091C00085FFFCCF6093C6000895A6
:101730008091300185FFFCCF6093360108950F93AF
:101740001F93CF93DF93082FC62FD72F16E9160FBD
:101750006991662329F0802F0E948C0B1C13F8CF0F
:10176000DF91CF911F910F910895CF93DF93CDB764
:10177000DEB79E01275F3F4F4F81588566E970E0D5
:1017800081EC95E00E949F2761EC75E08E810E94BC
:101790009F0B80E0DF91CF910895CF93DF93CDB77A
:1017A000DEB79E01275F3F4F4F81588566E970E0A5
:1017B00081EC95E00E94D82761EC75E08E810E9453
:1017C0009F0B80E0DF91CF9108950F931F93CF93EC
:1017D000DF93082FEB01FE011491612F802F0E94EF
:1017E0008C0B21961111F7CFDF91CF911F910F91A3
:1017F0000895E0ECF0E080818D7F80831092C50039
:1018000029E12093C400A1ECB0E098E19C93E2ECC4
:10181000F0E080818F73808380818F7C80838081E2
:10182000877F808380818B7F8083808186608083B7
:101830008C9180688C93E0E3F1E080818D7F8083E0
:10184000109235012093340190933101E2E3F1E0ED
:1018500080818F73808380818F7C80838081877F6C
:10186000808380818B7F80838081866080830895E0
:101870001092C5008CE08093C4000895E091D902D5
:10188000F091DA028FEF9FEFDC0180839183A283D6
:10189000B38384E084830895E091D902F091DA0261
:1018A00083818F9382818F9381818F9380818F93A6
:1018B00088E494E09F938F931F920E94CD0B8DB785
:1018C0009EB707960FB6F8949EBF0FBE8DBF0895C2
:1018D000E091D902F091DA02108211821282138211
:1018E00008959F938F9383E993E09F938F9381E073
:1018F0008F930E94B50B0F900F900F900F900F9049
:1019000008958F929F92AF92BF92CF92DF92FF92F3
:101910000F931F93CF93DF93CDB7DEB7E2970FB648
:10192000F894DEBF0FBECDBF5C01F62E4A01C09019
:10193000D902D090DA0207E912E0F80160817181E2
:10194000FB018081882309F445C0C5010E944A2714
:10195000892B09F068C0F8012281F601808191810C
:10196000A281B38104C0B695A795979587952A95CE
:10197000D2F780FF58C0F2E0FF1609F44EC0FF1501
:10198000D8F1FF2009F443C081E0F81609F442C001
:10199000F80181818F9380818F938AE594E09F93F2
:1019A0008F931F9282E38F938E010F5F1F4F1F93C0
:1019B0000F930E946227C8010E94710CC4010E940B
:1019C000710C80E993E00E94710C0FB6F894DEBFB1
:1019D0000FBECDBFE2960FB6F894DEBF0FBECDBFEF
:1019E000DF91CF911F910F91FF90DF90CF90BF902B
:1019F000AF909F908F90089593E0F91689F0E4E0FE
:101A000086E594E0FE12C4CF0E94710CC1CF86E43B
:101A100094E0FACF8AE494E0F7CF8EE494E0F4CF38
:101A200082E594E0F1CF0D5F1F4F87CF1F93CF93D7
:101A3000DF93CDB7DEB7E2970FB6F894DEBF0FBEE7
:101A4000CDBF1BADE091D902F091DA028081918186
:101A5000A281B381892B8A2B8B2BB1F0848118173B
:101A600098F09E01225C3F4F4CAD5DAD62E370E0AB
:101A7000CE0101960E94D827AE014F5F5F4F612FC4
:101A800089AD9AAD0E94810CE2960FB6F894DEBF44
:101A90000FBECDBFDF91CF911F910895E091D90284
:101AA000F091DA0284831F928F938FE894E09F93E2
:101AB0008F9382E08F9381EF92E09F938F930E94A8
:101AC000160D8DB79EB707960FB6F8949EBF0FBE42
:101AD0008DBF0895FC01808191818230910551F183
:101AE000E0F4009711F18130910511F19F938F93EC
:101AF0008FE694E09F938F9384E08F9381EF92E041
:101B00009F938F930E94160D8DB79EB707960FB6C1
:101B1000F8949EBF0FBE8DBF08958330910561F08C
:101B20008430910519F784E001C080E00C944E0DDB
:101B300081E0FCCF82E0FACF83E0F8CFFC01808126
:101B40009181E091D902F091DA02AC0170E060E09D
:101B500040835183628373839F938F938DE494E0DA
:101B60009F938F9382E08F9381EF92E09F938F9367
:101B70000E94160D8DB79EB707960FB6F8949EBFBC
:101B80000FBE8DBF0895EF92FF920F931F93CF93D7
:101B9000DF93F82EE92E07E912E0D801CD91DC9110
:101BA0008881811118C0EF92FF928EE194E09F939B
:101BB0008F9384E08F9381EF92E09F938F930E94A5
:101BC000160DEDB7FEB737960FB6F894FEBF0FBEF1
:101BD000EDBF81E03CC0BE018F2D9E2D0E944A27A3
:101BE000892BE1F5E091D902F091DA02D801129641
:101BF0002C9181E090E0A0E0B0E004C0880F991F34
:101C0000AA1FBB1F2A95D2F740815181628173813F
:101C1000842B952BA62BB72B80839183A283B38330
:101C2000DF93CF9382E394E09F938F9382E08F932F
:101C300081EF92E09F938F930E94160D8DB79EB710
:101C400007960FB6F8949EBF0FBE8DBF80E0DF9160
:101C5000CF911F910F91FF90EF9008950D5F1F4F4F
:101C60009CCF982F80ED890F8A3048F089EC890F3E
:101C7000803128F089EA890F803108F080E00895EA
:101C8000EF92FF920F931F93CF93DF93EC01099094
:101C90000020E9F72197C81BD90B8C01DD27CC0F59
:101CA000DD1FCC0FDD1FF12CE12C2497CC3F2FEF53
:101CB000D20741F4C701DF91CF911F910F91FF909F
:101CC000EF900895F80181918F010E94310E90E00C
:101CD0000C2E02C0880F991F0A94E2F7E80EF91E35
:101CE000E4CF0C9419270C941927282F80E091E059
:101CF000921708F00895990F8F5FFACFCF93DF9373
:101D0000EC018991811103C0DF91CF91089590E09A
:101D10000E943727FE0131978083F3CF80E88093BC
:101D2000610083E0809361001092700080E28093F4
:101D3000B60088EC8093B30010926E0081E080932F
:101D400081008093B0009091B6008091B6008470BD
:101D50009170892BC1F78AE090E020E335E7F90123
:101D60003197F1F70197D9F73FEF41E0F89436BB8F
:101D700037BB10928500109284001092B20087B396
:101D80008823E9F310928100789486B381111CC0F6
:101D9000209184008091850090E0982F8827820F01
:101DA000911D8B3628E1920744F0809166008150A6
:101DB0008093660040938100D9CF883E974124F0FC
:101DC00081E0809381000895809166008F5FF0CF5D
:101DD000E1E6F0E080E8808310820895E1E6F0E03B
:101DE00080E88083108208958091DB029091DC026C
:101DF0000E942D108091DB029091DC020E948310E2
:101E000081E60C94822081E793E09F938F93E09189
:101E1000DB02F091DC0281818F9380818F9387EACE
:101E200094E09F938F931F920E94CD0B80E993E0E3
:101E30009F938F931F920E94B50B8DB79EB70A9602
:101E40000FB6F8949EBF0FBE8DBF0895E091DB02E0
:101E5000F091DC0283830895E091DB02F091DC02D3
:101E60008381089588E198E00FB6F894A89580934F
:101E700060000FBE90936000FFCFE091DB02F09115
:101E8000DC0283818823D1F0813081F580E993E001
:101E90009F938F9384E794E09F938F9389E794E0D7
:101EA0009F938F931F920E94B50B8DB79EB7079695
:101EB0000FB6F8949EBF0FBE8DBF089580E993E0E2
:101EC0009F938F938EE794E09F938F9389E794E09D
:101ED0009F938F931F920E94B50B8DB79EB7079665
:101EE0000FB6F8949EBF0FBE8DBF089580E993E0B2
:101EF0009F938F9387E793E09F938F9389E794E075
:101F00009F938F931F920E94B50B8DB79EB7079634
:101F10000FB6F8949EBF0FBE8DBF089580E993E081
:101F20009F938F93E091DB02F091DC0282811F92FC
:101F30008F9386E894E09F938F931F920E94B50B36
:101F40008DB79EB707960FB6F8949EBF0FBE8DBF94
:101F50000895813631F4709361066093600680E0E5
:101F600008957093630660936206F9CF813629F471
:101F7000809160069091610608958091620690912B
:101F800063060895F894F999FECF92BD81BD60BDB6
:101F9000FA9AF99A78949F938F931F926F938DE298
:101FA00095E09F938F9382E08F9385E393E09F93D7
:101FB0008F930E94160D8DB79EB709960FB6F894B1
:101FC0009EBF0FBE8DBF0895F894F999FECF92BDC4
:101FD00081BDF89A789420B59F938F931F922F9389
:101FE00085E195E09F938F9382E08F9385E393E063
:101FF0009F938F930E94160D80B52DB73EB7275F34
:102000003F4F0FB6F8943EBF0FBE2DBF0895CF933C
:10201000DF93D82FC92F9F938F938CEF94E09F93DA
:102020008F9381E08F9385E393E09F938F930E943A
:10203000160D6D2F90E080E00E94C20F8DB79EB705
:1020400007960FB6F8949EBF0FBE8DBF6C2F81E030
:1020500090E0DF91CF910C94C20F0F931F93CF9319
:102060008C0190E080E00E94E40FC82F81E090E0B6
:102070000E94E40F90E0982F88278C0F911DF801A3
:10208000918380839F938F9383EE94E09F938F93AC
:1020900081E08F9385E393E09F938F930E94160DC9
:1020A0008DB79EB707960FB6F8949EBF0FBE8DBF33
:1020B000CF911F910F910895FC01808191810E9421
:1020C00007100E94F40E0C94280ACF93C82F1F9279
:1020D0008F9380ED94E09F938F9381E08F9385E3BE
:1020E00093E09F938F930E94160D8DB79EB707962E
:1020F0000FB6F8949EBF0FBE8DBF6C2F82E090E0AC
:10210000CF910C94C20FCF93DF93EC0182E090E06B
:102110000E94E40F8A831F928F938DEB94E09F932C
:102120008F9381E08F9385E393E09F938F930E9439
:10213000160D8DB79EB707960FB6F8949EBF0FBECB
:102140008DBFDF91CF910895FC0180810E946510C1
:102150000E94F40E0C94280ACF93DF93219A229ABE
:102160008CB582608CBD8CB580618CBD8CB5806473
:102170008CBD29988CB51F928F9383E795E09F9330
:102180008F9382E08F93C0E7D4E0DF93CF930E94D8
:10219000160D8DB79EB707960FB6F8949EBF0FBE6B
:1021A0008DBF0CB404FC0FC089E595E09F938F931D
:1021B00084E08F93DF93CF930E94160D0F900F90C2
:1021C0000F900F900F90DF91CF9108950F931F9371
:1021D000CF93DF938EBD0DB407FEFDCF1F928F937B
:1021E0008EE495E09F938F9301E00F93C0E7D4E0D6
:1021F000DF93CF930E94160D1EB51F921F9384E4A8
:1022000095E09F938F930F93DF93CF930E94160DCA
:102210008DB79EB70E960FB6F8949EBF0FBE8DBFBA
:10222000812FDF91CF911F910F9108951092B900E6
:1022300080E48093B8000895279A08952F9A08950E
:102240002F9808952F990C9420110C941E1180E959
:1022500095E09F938F9382E08F9388EF92E09F9316
:102260008F930E94160DE1E8F0E080818460808306
:1022700081E792E090938D0080938C00EFE6F0E090
:102280008081886080830F900F900F900F900F9047
:1022900008950E94C02160E081E00C94F8116AE981
:1022A00074E081E690E00E94F52162E081E00C9408
:1022B000F8111F920F920FB60F9211240BB60F92C6
:1022C0002F933F934F935F936F937F938F939F933E
:1022D000AF93BF93EF93FF93109285001092840009
:1022E0000E94A511FF91EF91BF91AF919F918F91A6
:1022F0007F916F915F914F913F912F910F900BBE06
:102300000F900FBE0F901F9018959C01CB01019765
:1023100080319742B0F490919E049A30A0F487E007
:10232000989FF0011124E156FB4F31832083738382
:1023300062834683158214829F5F90939E0480E09F
:10234000089582E0089583E0089530919E04EFE9B6
:10235000F4E020E04AE050E061E0321301C008956B
:102360008681823051F084819581A281B3818A1760
:102370009B0730F05583448366832F5F3796EDCFFC
:102380000A9695838483F9CFCF93DF93C0E0D7E09B
:1023900080919E04C81718F0DF91CF910895DC9FBB
:1023A000F0011124E156FB4F8681813029F4168219
:1023B0000190F081E02D1995CF5FEACF97E0899FDA
:1023C000F0011124E156FB4F8681089597E0899F23
:1023D000F0011124E156FB4F82819381089597E02B
:1023E000899FF0011124E156FB4F84819581089566
:1023F00097E0899FF0011124E156FB4F6683089511
:1024000097E0899FF0011124E156FB4F73836283AB
:10241000089597E0899FF0011124E156FB4F7583E1
:1024200064830895289A289BFECF089580910B011C
:10243000886080930B0180910B0183FFFCCF08958E
:10244000289A209A73986B9A889A809AEBE0F1E028
:10245000808188608083EAE0F1E080818860808309
:1024600074986C9A899A819A089581110C94121229
:1024700028982899FECF089581110C941612809106
:102480000B01877F80930B0180910B0183FDFCCFB3
:102490000895882321F0889A889BFECF0895889814
:1024A0008899FECF0895882321F0899A899BFECFD1
:1024B000089589988999FECF089580E00E94351289
:1024C00090E080E00E94E6100C94121280E00E94DE
:1024D000351282E090E00E94E6100C94121280E027
:1024E0000E94351284E090E00E94E6100C941212D3
:1024F00080E00E94351286E090E00E94E6100C9485
:10250000121280E00E94351281E090E00E94E610F5
:102510000C94121280E00E94351283E090E00E9439
:10252000E6100C94121280E00E94351285E090E0D3
:102530000E94E6100C94121280E00E94351287E08F
:1025400090E00E94E6100C94121280E00E94351276
:1025500088E090E00E94E6100C94121280E00E9445
:102560003C1288E090E00E94E6100C941612089548
:10257000BF92CF92DF92EF92FF920F931F93CF9370
:10258000DF936C01162FEA0180E0F6011995812F87
:102590008295807F0E94E6108D2F0E94E6101F9288
:1025A000DF9387EAE82E85E0F82EFF92EF92BB24B6
:1025B000B394BF9208E413E01F930F930E94160D8B
:1025C0008C2F0E94E610DD27DF93CF93FF92EF92CE
:1025D000BF921F930F930E94160D81E0F60119958B
:1025E0008DB79EB70E960FB6F8949EBF0FBE8DBFE7
:1025F00080E0DF91CF911F910F91FF90EF90DF90DE
:10260000CF90BF9008954091E5045091E60463E0B7
:1026100085E392E10E94B8128091E5049091E6046E
:10262000805F984D9093E6048093E50480E00895E0
:1026300080E008952F923F924F925F926F927F9227
:102640008F929F92AF92BF92CF92DF92EF92FF92C2
:102650000F931F93CF93DF930F920F92CDB7DEB7F7
:10266000382E330C3A8329836295607F762E740E60
:10267000EE24E394F12C00E513E037E0832E36E0FE
:10268000932E84EA8093BC008091BC0087FFFCCF2E
:102690008091B900887F80936406803131F088335F
:1026A00009F4F6C0883009F003C125ED36E03F9308
:1026B0002F9381E08F931F930F930E94160D3092FA
:1026C000BB0084E88093BC000F900F900F900F9098
:1026D0000F908091BC0087FFFCCF8091B900887F6C
:1026E000809364061F928F93E3E9F6E0FF93EF93E4
:1026F000DD24D394DF921F930F930E94160D8091D7
:1027000064060FB6F894DEBF0FBECDBF803209F469
:10271000E2C0883309F4F7C0883109F0FAC023E732
:1027200036E03F932F93DF921F930F930E94160D75
:102730007092BB0084E88093BC000F900F900F90C4
:102740000F900F908091BC0087FFFCCF8091B90063
:10275000887F809364061F928F939F928F92DD24CF
:10276000D394DF921F930F930E94160D80916406FD
:102770000FB6F894DEBF0FBECDBF803309F46FC033
:10278000883309F47ECF883209F0D2C01F927F923D
:102790008AEE95E09F938F93DF921F930F930E9491
:1027A000160D9E012F5F3F4F59010FB6F894DEBF03
:1027B0000FBECDBFCC24C394D12C94E8292E66241F
:1027C00063945C2C4D2CF50181818093BB00209299
:1027D000BC008091BC0087FFFCCF8091B900887F4E
:1027E000809364061F928F9327ED35E03F932F93DC
:1027F0006F921F930F930E94160D809164060FB67F
:10280000F894DEBF0FBECDBF803349F1883309F4A1
:1028100038CF883209F08CC04F925F922DEB35E0B3
:102820003F932F936F921F930F930E94160DF50104
:1028300081811F928F9322EB35E03F932F936F920C
:102840001F930F930E94160D91E0A91AB1080FB6BD
:10285000F894DEBF0FBECDBFCD2809F06BC080E07D
:1028600094E99093BC000F900F90DF91CF911F914E
:102870000F91FF90EF90DF90CF90BF90AF909F901F
:102880008F907F906F905F904F903F902F90089522
:1028900084EC96E09F938F9381E08F931F930F9327
:1028A0000E94160D0F900F900F900F900F90E9CE91
:1028B00086EA96E09F938F9384E08F9380E593E080
:1028C0009F938F930E94160D0F900F900F900F9073
:1028D0000F908FEFC8CFFF92EF92E3E4F6E0FF9303
:1028E000EF93DF921F930F930E94160D3FEFE31AB1
:1028F000F30A0FB6F894DEBF0FBECDBF9BE0E9161A
:10290000F10439F3BECEE2E3F6E0FF93EF93DF92FA
:10291000C5CF8AE196E09F938F9384E08F931F93B6
:102920000F930E94160D0F900F900F900F900F9025
:102930008FEF96CFD12CC12C44CF08950F931F93C6
:10294000CF93DF93EC01162F072F80E0FE0119953E
:10295000802F0E94E610812F0E94E61081E0FE0188
:10296000199580E0DF91CF911F910F91089580E03C
:1029700070E060E041E050E0282F30E0F901EE0F18
:10298000FF1FE152FD4F9081911106C08CE392E14F
:102990000E949E1480E008959181992349F0FA01E4
:1029A00002C0EE0FFF1F2A95E2F79F016E2B732BDB
:1029B0008F5FE2CFCF9380E0C0E041E050E0282F6E
:1029C00030E0F901EE0FFF1FE152FD4F90819111B0
:1029D0000FC081E60E940B218823B1F04C2F62E0EA
:1029E00084E70E9404180E94B71480E0CF910895F4
:1029F0009181992339F0BA0102C0660F771F2A9599
:102A0000E2F7C62B8F5FDBCF1F9281E68F938DE1BC
:102A100097E09F938F9384E08F9382E693E09F9358
:102A20008F930E94160D8DB79EB707960FB6F89438
:102A30009EBF0FBE8DBF8FEFD9CF80E0E82FF0E0B3
:102A4000EE0FFF1FE152FD4F9081911102C00C94D7
:102A5000DA1411828F5FF2CFCF93FC0180819181D4
:102A6000CFEFC80F9C01215031092830310520F0EB
:102A70008BEFCF910C94390A059790F481E60E9470
:102A80000B21882379F1EC2FF0E0EE0FFF1FE152CC
:102A9000FD4F81E081830E94DA14CF910C94280AC3
:102AA00082E60E940B218111EECF81E60E940B216C
:102AB000811136C01F9282E68F9389EE96E09F9334
:102AC0008F9384E08F9382E693E09F938F930E948D
:102AD000160DEDB7FEB737960FB6F894FEBF0FBED2
:102AE000EDBF1CC081E60E940B218111D9CF1F923E
:102AF00081E68F9383E097E09F938F9384E08F9399
:102B000082E693E09F938F930E94160D8DB79EB738
:102B100007960FB6F8949EBF0FBE8DBF8DEFA9CF5D
:102B2000CF910895FC0180819181EFEFE80F01972B
:102B3000089718F08BEF0C94390AF0E0EE0FFF1FA6
:102B4000E152FD4F8181882389F080E993E09F93D2
:102B50008F938BE894E09F938F931F920E94B50B05
:102B60000F900F900F900F900F90089580E993E0D1
:102B70009F938F9382E993E0EECFFC018081918156
:102B80009C01215031092830310518F08BEF0C944D
:102B9000390A8150E82FF0E0EE0FFF1FE152FD4FA0
:102BA00011820E94DA140C94280AFC0140815181A0
:102BB00080E061E070E0A1E04F3F510589F080F0D6
:102BC0008BEF0C94390A9B01082E02C0220F331F91
:102BD0000A94E2F724233523232B79F0A1838F5F16
:102BE000E82FF0E0EE0FFF1FE152FD4F90819111B1
:102BF000EACF0E94DA140C94280A1182F0CF90E0F8
:102C000080E061E070E0292F30E0F901EE0FFF1F56
:102C1000E152FD4F4081411116C020E933E03F935E
:102C20002F931F928F938FE894E09F938F931F921F
:102C30000E94B50B8DB79EB707960FB6F8949EBF4E
:102C40000FBE8DBF08954181442339F0AB0102C00E
:102C5000440F551F2A95E2F7840F9F5FD4CF2F9220
:102C60003F924F925F926F927F928F929F92AF921C
:102C7000BF92CF92DF92EF92FF920F931F93CF9369
:102C8000DF93562E482E440C01E010E084EA382EE3
:102C9000C0E4D3E097E3892E99E0992E28E1E22E53
:102CA00029E0F22E3BEDC32E38E0D32E242C68947D
:102CB00020F844EFA42E49E0B42E3092BC0080915D
:102CC000BC0087FFFCCF8091B900887F80936406A9
:102CD000803131F0883309F427C1883009F032C1DE
:102CE00025E03AE03F932F9381E08F93DF93CF93DA
:102CF0000E94160D4092BB0084E88093BC000F90A8
:102D00000F900F900F900F908091BC0087FFFCCF29
:102D10008091B900887F809364061F928F9323EC83
:102D200039E03F932F93662463946F92DF93CF93A0
:102D30000E94160D809164062DB73EB7295F3F4F64
:102D40000FB6F8943EBF0FBE2DBF803209F40DC1FF
:102D5000883309F423C1883109F028C183EA99E056
:102D60009F938F936F92DF93CF930E94160D509293
:102D7000BB0084E88093BC000F900F900F900F90E1
:102D80000F908091BC0087FFFCCF8091B900887FB5
:102D9000809364061F928F939F928F926624639410
:102DA0006F92DF93CF930E94160D809164062DB72A
:102DB0003EB7295F3F4F0FB6F8943EBF0FBE2DBF01
:102DC000803309F419C1883309F477CF883209F0C8
:102DD000FCC0FF92EF926F92DF93CF930E94160D8B
:102DE0003092BC000F900F900F900F900F90809139
:102DF000BC0087FFFCCF8091B900887F8093640678
:102E0000803131F0883309F458CF883009F0DDC0C3
:102E1000DF92CF9281E08F93DF93CF930E94160DC4
:102E20002092BB0084E88093BC000F900F900F901D
:102E30000F900F908091BC0087FFFCCF8091B9006C
:102E4000887F809364061F928F9328EC38E03F932D
:102E50002F9381E08F93DF93CF930E94160D809183
:102E600064062DB73EB7295F3F4F0FB6F8943EBFBB
:102E70000FBE2DBF883309F420CF803409F0A5C0E0
:102E800084E88093BC008091BC0087FFFCCF8091D8
:102E9000B900887F809364061F928F9385EB98E03A
:102EA0009F938F9311E01F93C0E4D3E0DF93CF9300
:102EB0000E94160D809164062DB73EB7295F3F4FE3
:102EC0000FB6F8943EBF0FBE2DBF803589F0883510
:102ED00009F07BC084E998E09F938F931F93DF9361
:102EE000CF930E94160D0F900F900F900F900F90A0
:102EF0007090BB001F925F921F927F928BE798E0C9
:102F00009F938F9381E08F9380E493E09F938F93BF
:102F10000E94160D2DB73EB7275F3F4F0FB6F894AE
:102F20003EBF0FBE2DBF51C0BF92AF9281E08F93C5
:102F3000DF93CF930E94160D0F900F900F900F907C
:102F40000F90BBCE86ED99E09F938F9384E08F9393
:102F500080E493E09F938F930E94160D0F900F9043
:102F60000F900F900F908FEF34C01F930F9323E7B4
:102F700039E03F932F936F92DF93CF930E94160D0A
:102F80000F5F1F4F8DB79EB707960FB6F8949EBF81
:102F90000FBE8DBF0B30110531F38FCE22E639E025
:102FA0003F932F936F92DF93CF93C4CF8AE499E03E
:102FB0009F938F9384E08F93DF93CF930E94160D9E
:102FC0000F900F900F900F900F9084E98093BC00AA
:102FD000872DDF91CF911F910F91FF90EF90DF90A0
:102FE000CF90BF90AF909F908F907F906F905F90A9
:102FF0004F903F902F90089588EF98E09F938F9384
:103000006F92DF93CF93DACF2F923F924F925F92DE
:103010006F927F928F929F92AF92BF92CF92DF92E8
:10302000EF92FF920F931F93CF93DF930F920F9224
:10303000CDB7DEB7E62E4983880F8A8301E010E022
:10304000FF24F39485ED282E87E0382E94EC492E4A
:1030500097E0592E25E0622E28E0722E39E9832E62
:1030600037E0932EC62ED12C46E5A42E48E0B42E90
:1030700024EA2093BC008091BC0087FFFCCF8091A4
:10308000B900887F80936406803131F0883309F479
:10309000EEC0883009F0FAC087E698E09F938F93DE
:1030A000FF9280E493E09F938F930E94160D3A81E4
:1030B0003093BB0084E88093BC000F900F900F907A
:1030C0000F900F908091BC0087FFFCCF8091B900DA
:1030D000887F809364061F928F9385E298E09F9388
:1030E0008F93FF9280E493E09F938F930E94160D3D
:1030F000809164060FB6F894DEBF0FBECDBF80325C
:1031000009F4D7C0883309F4EAC0883109F0EFC068
:103110007F926F92FF9280E493E09F938F930E943F
:10312000160DE092BB0084E88093BC000F900F90D6
:103130000F900F900F908091BC0087FFFCCF809183
:10314000B900887F809364061F928F939F928F921D
:10315000FF9220E433E03F932F930E94160D80915D
:1031600064060FB6F894DEBF0FBECDBF803309F4FE
:1031700065C0883309F47CCF883209F0C9C01F923A
:10318000EF9280E897E09F938F93FF9280E493E023
:103190009F938F930E94160D39813093BB0084E872
:1031A0008093BC000FB6F894DEBF0FBECDBF8091F8
:1031B000BC0087FFFCCF8091B900887F80936406B4
:1031C0001F928F932DE637E03F932F93FF9220E4D9
:1031D00033E03F932F930E94160D809164060FB643
:1031E000F894DEBF0FBECDBF803341F1883309F4C0
:1031F0003FCF883209F08CC01F921F9283E597E081
:103200009F938F93FF9280E493E09F938F930E940C
:10321000160DDF92CF921F9239813F9387E397E09B
:103220009F938F93FF9280E493E09F938F930E94EC
:10323000160D0FB6F894DEBF0FBECDBF80E094E947
:103240009093BC000F900F90DF91CF911F910F9141
:10325000FF90EF90DF90CF90BF90AF909F908F90B6
:103260007F906F905F904F903F902F900895BF9206
:10327000AF92FF9280E493E09F938F930E94160D8C
:103280000F900F900F900F900F90F2CE88E398E080
:103290009F938F9384E08F9380E493E09F938F9329
:1032A0000E94160D0F900F900F900F900F908FEFC0
:1032B000C9CF1F930F933F922F92FF9280E493E028
:1032C0009F938F930E94160D0F5F1F4F0FB6F894B8
:1032D000DEBF0FBECDBF0B30110549F3C9CE5F92E3
:1032E0004F92FF9220E433E03F932F93C7CF8CEAB5
:1032F00097E09F938F9384E08F9320E433E03F9394
:103300002F930E94160D0F900F900F900F900F901B
:103310008FEF95CF2F923F924F925F926F927F9255
:103320008F929F92AF92BF92CF92DF92EF92FF92D5
:103330000F931F93CF93DF93880F01E010E094EA7F
:10334000392E27E4822E2CE0922E55245394C1E28C
:10335000D3E0482E689440F834E8232E45E0E42E6C
:103360004CE0F42E55EBC52E5BE0D52E64EA662EBC
:103370006BE0762E76E3A72E7CE0B72E3092BC0071
:103380008091BC0087FFFCCF8091B900887F80933B
:103390006406803129F08833F1F1883009F048C0A3
:1033A0009F928F925F92DF93CF930E94160D40926F
:1033B000BB002092BC000F900F900F900F900F90C9
:1033C0008091BC0087FFFCCF8091B900887F8093FB
:1033D00064061F928F93FF92EF925F92DF93CF93D9
:1033E0000E94160D809164062DB73EB7295F3F4FAE
:1033F0000FB6F8943EBF0FBE2DBF803461F1883404
:1034000009F4A0C0883309F0B5C07F926F925F9233
:10341000DF93CF9305C0BF92AF925F92DF93CF93BC
:103420000E94160D0F900F900F900F900F90A6CF47
:1034300088E19CE09F938F9384E08F9381E293E0F7
:103440009F938F930E94160D0F900F900F900F90E7
:103450000F908FEF63C085EE9BE09F938F935F92F9
:10346000DF93CF930E94160D84E88093BC000F90E9
:103470000F900F900F900F908091BC0087FFFCCFB2
:103480008091B900887F809364061F928F9389E7AB
:103490009BE09F938F9311E01F93C1E2D3E0DF93F2
:1034A000CF930E94160D809164062DB73EB7295F19
:1034B0003F4F0FB6F8943EBF0FBE2DBF803589F049
:1034C000883509F066C088E59BE09F938F931F9332
:1034D000DF93CF930E94160D0F900F900F900F90D7
:1034E0000F90C091BB001F92CF938AE39BE09F9304
:1034F0008F9381E08F9381E293E09F938F930E945B
:10350000160D2DB73EB7295F3F4F0FB6F8943EBF5B
:103510000FBE2DBF84E98093BC008C2F9FEFDF91FD
:10352000CF911F910F91FF90EF90DF90CF90BF90C0
:10353000AF909F908F907F906F905F904F903F9053
:103540002F9008951F930F93DF92CF925F92DF9396
:10355000CF930E94160D0F5F1F4F8DB79EB7079632
:103560000FB6F8949EBF0FBE8DBF0B30110509F446
:1035700070CF04CF8CE89BE09F938F9384E08F9370
:10358000DF93CF930E94160D0F900F900F900F9026
:103590000F90CFEFBFCF2F923F924F925F926F92DB
:1035A0007F928F929F92AF92BF92CF92DF92EF92D3
:1035B000FF920F931F93CF93DF930F920F92CDB78C
:1035C000DEB78983E62E880F8A8301E010E086E269
:1035D000282E8BE0382EFF24F39494EE492E9AE0A7
:1035E000592E2EE8622E2AE0722E3DE7832E3AE015
:1035F000932E42E5C42E4AE0D42E55E1A52E5BE081
:10360000B52E24EA2093BC008091BC0087FFFCCF3C
:103610008091B900887F80936406803131F08833CF
:1036200009F4ABC0883009F0B7C03F922F92FF92E7
:1036300081E293E09F938F930E94160D3A8130931D
:10364000BB0084E88093BC000F900F900F900F9008
:103650000F908091BC0087FFFCCF8091B900887FDC
:10366000809364061F928F935F924F92FF9221E2A4
:1036700033E03F932F930E94160D809164060FB69E
:10368000F894DEBF0FBECDBF803209F498C08833F6
:1036900009F4AEC0883109F0B3C084EC9AE09F937E
:1036A0008F93FF9281E293E09F938F930E94160D78
:1036B000E092BB0034E83093BC000F900F900F9065
:1036C0000F900F908091BC0087FFFCCF8091B900D4
:1036D000887F809364061F928F93DF92CF92FF9230
:1036E00081E293E09F938F930E94160D8091640670
:1036F0000FB6F894DEBF0FBECDBF803329F18833FB
:1037000009F47FCF883209F08CC01F921F9288E3A2
:103710009AE09F938F93FF9281E293E09F938F9320
:103720000E94160D1F92EF9289E19AE09F938F936A
:10373000FF9281E293E09F938F930E94160D0FB644
:10374000F894DEBF0FBECDBF80E094E99093BC003B
:103750000F900F90DF91CF911F910F91FF90EF90FD
:10376000DF90CF90BF90AF909F908F907F906F90A1
:103770005F904F903F902F900895BF92AF92FF922D
:1037800021E233E03F932F930E94160D0F900F908C
:103790000F900F900F9035CF87EF9AE09F938F9304
:1037A00084E08F9381E293E09F938F930E94160DA4
:1037B0000F900F900F900F900F908FEFC9CF1F9326
:1037C0000F931F9289818F937F926F92FF9221E2D4
:1037D00033E03F932F930E94160D0F5F1F4F0FB6DC
:1037E000F894DEBF0FBECDBF0B30110531F309CF0A
:1037F0009F928F92FF9281E293E09F938F93C4CF29
:1038000085E69AE09F938F9384E08F9381E293E023
:103810009F938F930E94160D0F900F900F900F9013
:103820000F908FEF92CF60E00E94CB1A84E70E9446
:103830008A1999279F938F938BE59CE09F938F9391
:1038400081E08F9381E293E09F938F930E94160D06
:103850008DB79EB707960FB6F8949EBF0FBE8DBF6B
:1038600080E0089521E030E0A90102C0440F551F17
:103870006A95E2F7BA010C94CB1A8EE89CE09F930C
:103880008F9381E08F938AE093E09F938F930E94C0
:10389000160D0F900F900F900F900F9080E00895ED
:1038A000CF93DF93EC0180E0FE0119958AEA0E9434
:1038B000E61080E00E94E61080E00E94E61081E0C1
:1038C000FE01199580E0DF91CF910895AF92BF92EC
:1038D000CF92DF92EF92FF920F931F93CF93DF93DC
:1038E00000D00F92CDB7DEB76C017B0119821A822E
:1038F0001B821C8280E0F601199503E010E0033082
:10390000C1F580EF0E94E6101C8201501109B8F742
:10391000A980BA800B811C811F930F93BF92AF9235
:103920008AE79CE09F938F9381E08F938AE093E0F6
:103930009F938F930E94160DF701A082B18202839C
:10394000138381E0F60119950FB6F894DEBF0FBE20
:10395000CDBF80E00F900F900F900F90DF91CF912F
:103960001F910F91FF90EF90DF90CF90BF90AF909D
:10397000089580E00E94E610E1E0F0E0EC0FFD1F0A
:10398000E00FF11F8083C1CF2F923F924F925F9241
:103990006F927F928F929F92AF92BF92CF92DF925F
:1039A000EF92FF920F931F93CF93DF9300D000D03D
:1039B0000F92CDB7DEB76C837D83880F8B836983CD
:1039C0007A83EE24E394F12C0AE213E02DEC422EEC
:1039D0002EE0522E3EE0632E3FE0732E42EAA42EEC
:1039E0004EE0B42E56E8852E5EE0952E84EA809354
:1039F000BC008091BC0087FFFCCF8091B900887F1C
:103A000080936406803131F0883309F495C08830A2
:103A100009F0A2C080E79FE09F938F9381E08F938E
:103A20001F930F930E94160D3B813093BB0084E8D7
:103A30008093BC000F900F900F900F900F9080918B
:103A4000BC0087FFFCCF8091B900887F809364061B
:103A50001F928F938EE29FE09F938F93DD24D394E8
:103A6000DF921F930F930E94160D809164060FB68C
:103A7000F894DEBF0FBECDBF803209F481C0883319
:103A800009F496C0883109F097C07F926F92DF9257
:103A90001F930F930E94160D0F900F900F900F9091
:103AA0000F90CC24C394D12C22242394CE82DF8285
:103AB000E1E0F0E0EC0FFD1FEC0DFD1D8081809337
:103AC000BB0024E82093BC008091BC0087FFFCCFA2
:103AD0008091B900887F809364061F928F93BF9274
:103AE000AF922F921F930F930E94160D8091640640
:103AF0000FB6F894DEBF0FBECDBF803309F488C087
:103B0000883309F473CF883209F065C03F813F9351
:103B10008E818F939F928F922F921F930F930E946B
:103B2000160D0FB6F894DEBF0FBECDBFCD2809F439
:103B300075C0D12CC12CBACF8FE59FE09F938F9396
:103B400081E08F931F930F930E94160D0F900F909B
:103B50000F900F900F904ACF81E49FE09F938F9337
:103B600084E08F938AE293E09F938F930E94160DD7
:103B70000F900F900F900F900F9033243A942EC017
:103B8000FF92EF928EED9EE09F938F93DF921F93B3
:103B90000F930E94160D3FEFE31AF30A0FB6F89445
:103BA000DEBF0FBECDBF9BE0E916F10431F31ECF9F
:103BB0005F924F92DF92C6CF85EB9EE09F938F93EB
:103BC00084E08F931F930F930E94160D0F900F9018
:103BD0000F900F900F9084E98093BC00832D27965F
:103BE0000FB6F894DEBF0FBECDBFDF91CF911F910E
:103BF0000F91FF90EF90DF90CF90BF90AF909F908C
:103C00008F907F906F905F904F903F902F9008958E
:103C100086E69EE09F938F932F92D4CF84EA809381
:103C2000BC008091BC0087FFFCCF8091B900887FE9
:103C300080936406803129F0883309F4D7CE883028
:103C400051F689E49EE09F938F9381E08F931F93B9
:103C50000F930E94160D8B8181608093BB0084E8D6
:103C60008093BC000F900F900F900F900F90809159
:103C7000BC0087FFFCCF8091B900887F80936406E9
:103C80001F928F9386E39EE09F938F9381E08F93A3
:103C90001F930F930E94160D809164060FB6F8943F
:103CA000DEBF0FBECDBF883309F4A0CE803409F04B
:103CB00092CF84E88093BC008091BC0087FFFCCF4A
:103CC0008091B900887F809364061F928F9383E26E
:103CD0009EE09F938F93FF24F394FF920AE213E0F8
:103CE0001F930F930E94160D809164060FB6F894EF
:103CF000DEBF0FBECDBF803589F0883509F06BCFB0
:103D000082E09EE09F938F93FF921F930F930E94F8
:103D1000160D0F900F900F900F900F903090BB00EA
:103D20003D813F938C818F931F923F9289EE9DE05E
:103D30009F938F9381E08F938AE293E09F938F9379
:103D40000E94160D0FB6F894DEBF0FBECDBF43CF55
:103D50002F923F924F925F926F927F928F929F929B
:103D6000AF92BF92CF92DF92EF92FF920F931F9389
:103D7000CF93DF9300D000D00F920F92CDB7DEB774
:103D80006C837D834B83880F8E8369837A83EE24D3
:103D9000E394F12C0AE213E023E4222E2DE0322EEC
:103DA00032E3432E3DE0532E43E7642E4DE0742E64
:103DB00057E0A52E5DE0B52E6BEE862E6CE0962EBC
:103DC00084EA8093BC008091BC0087FFFCCF809187
:103DD000B900887F80936406803131F0883309F41C
:103DE00095C0883009F0A2C085ED9DE09F938F9328
:103DF00081E08F931F930F930E94160D3E813093A5
:103E0000BB0084E88093BC000F900F900F900F9040
:103E10000F908091BC0087FFFCCF8091B900887F14
:103E2000809364061F928F9383E99DE09F938F9305
:103E3000DD24D394DF921F930F930E94160D80917F
:103E400064060FB6F894DEBF0FBECDBF803209F412
:103E500080C0883309F493C0883109F094C07F9200
:103E60006F92DF921F930F930E94160D0F900F9089
:103E70000F900F900F90CC24C394D12CCF82D88672
:103E8000E1E0F0E0EC0FFD1FEC0DFD1D8081809363
:103E9000BB0024E82093BC008091BC0087FFFCCFCE
:103EA0008091B900887F809364061F928F93BF92A0
:103EB000AF9231E03F931F930F930E94160D8091B4
:103EC00064060FB6F894DEBF0FBECDBF803309F491
:103ED000B5C0883309F474CF883209F063C03885DF
:103EE0003F938F818F939F928F9291E09F931F9327
:103EF0000F930E94160D0FB6F894DEBF0FBECDBF14
:103F0000CD2809F451C0D12CC12CB8CF84EC9DE050
:103F10009F938F9381E08F931F930F930E94160DB1
:103F20000F900F900F900F900F904ACF86EA9DE070
:103F30009F938F9384E08F938AE293E09F938F9374
:103F40000E94160D0F900F900F900F900F908FEF13
:103F500079C0FF92EF923F922F92DF921F930F93BF
:103F60000E94160D3FEFE31AF30A0FB6F894DEBF76
:103F70000FBECDBF9BE0E916F10449F321CF5F925C
:103F80004F92DF92C9CF8AE19DE09F938F9384E0A7
:103F90008F931F930F930E94160D0F900F900F9009
:103FA0000F900F908FEF4BC03B813093BB0084E8A4
:103FB0008093BC008091BC0087FFFCCF8091B9004A
:103FC000887F809364061F928F9388ED9CE09F9377
:103FD0008F93DD24D394DF921F930F930E94160DCD
:103FE000809164060FB6F894DEBF0FBECDBF80335C
:103FF00029F1883309F4E4CE8832A1F61F921F928A
:104000008EEB9CE09F938F93DF921F930F930E9400
:10401000160D3D813F938C818F931F929B819F93BF
:1040200082EA9CE09F938F93DF921F930F930E94ED
:10403000160D0FB6F894DEBF0FBECDBF80E094E939
:104040009093BC0028960FB6F894DEBF0FBECDBF8C
:10405000DF91CF911F910F91FF90EF90DF90CF9064
:10406000BF90AF909F908F907F906F905F904F9098
:104070003F902F900895E0E6F0E080818860808393
:1040800088E19FE00FB6F894A895809360000FBE7A
:104090009093600080E0089540E063E084E70E9430
:1040A000041840E863E084E70C94041861E070E0D1
:1040B00080E790E00E94CB1A91E0811101C090E06E
:1040C000892F81950895813611F40E944C2080E05B
:1040D00008951F93CF93DF93D62F172F0E9456205A
:1040E000C82F412F61E070E080E50E94A81E4D2F8F
:1040F00070E060E080E50E94A81E8C2FDF91CF91D8
:104100001F910895EF92FF921F93CF93DF93182F83
:104110000E945620E12EF12C811131C061E070E047
:1041200080E50E94C41CC82F70E060E080E50E941A
:10413000C41CD82F682F7C2FC7010E94A90F1F9283
:104140001F93CF93DF9384E89FE09F938F9382E048
:104150008F9382E693E09F938F930E94160D8DB705
:104160009EB709960FB6F8949EBF0FBE8DBF8D2FD8
:104170009C2FDF91CF911F91FF90EF90089570E0F9
:1041800060E0C7010E94A90F1F921F9381EA9FE080
:104190009F938F9384E08F9382E693E09F938F9316
:1041A0000E94160D8DB79EB707960FB6F8949EBF66
:1041B0000FBE8DBFD0E0C0E0DACFFC01608171811D
:1041C00081E60E94692087FF03C08DEF0C94390AB5
:1041D0000C94280AFC016081718182E60E946920AA
:1041E0000C94280A82E60E94822020E933E03F9363
:1041F0002F939F938F9386E894E09F938F931F92C2
:104200000E94B50B8DB79EB707960FB6F8949EBF68
:104210000FBE8DBF089590E00E94B60F21E0892B5C
:1042200009F420E0822F089581E60E940B21882363
:10423000E9F040EF66E084E70E94041840E066E0A1
:1042400084E70E94041840EF62E084E70E940418AB
:104250004FE767E084E70E94041840E863E084E7E2
:104260000E9404180E944C2080E008951F9281E66D
:104270008F938BEB9FE09F938F9384E08F9382E6E5
:1042800093E09F938F930E94160D8DB79EB707966C
:104290000FB6F8949EBF0FBE8DBF8FEF089581E6D5
:1042A0000E940B21811103C08DEF0C94390A81E625
:1042B0000E94822020E933E03F932F939F938F93B6
:1042C00086E894E09F938F931F920E94B50B8DB761
:1042D0009EB707960FB6F8949EBF0FBE8DBF089588
:1042E000CF93DF93EB018230C1F030F4813059F08D
:1042F00080E0DF91CF910895833091F08430C1F751
:104300000E94781202C00E945D12AE0163E070E06C
:1043100089E492E10E94B812EBCF0E946612F5CFB9
:104320000E946F12F2CF823099F020F4813049F070
:1043300080E00895833079F08430D1F70E949C1298
:1043400002C00E94811289E492E10E94501CF0CFC9
:104350000E948A12F8CF0E949312F5CF813621F085
:10436000823649F080E008950E94A51289E492E126
:104370000E94501CF7CF0E94AE1283E592E1F8CF65
:1043800081E00E94932182E00E94932183E00E94B9
:10439000932184E00E9493210E94A51289E492E176
:1043A0000E94501C80E00895CF93DF93EB01823090
:1043B000B1F030F4813059F080E0DF91CF91089571
:1043C000833081F08430C1F70E949C1202C00E94A9
:1043D0008112BE0189E492E10E94661CEDCF0E9429
:1043E0008A12F7CF0E949312F4CFCF93DF93EB01A1
:1043F000813631F0823661F080E0DF91CF9108950F
:104400000E94A512BE0189E492E10E94661CF4CFCD
:104410000E94AE12BE0183E592E1F7CF0E94C02157
:1044200060E081E00C94F811FC018081918101979A
:1044300001F580E993E09F938F93809162058F93BC
:10444000809161058F93809160058F9380915F05C6
:104450008F9384E994E09F938F931F920E94B50BF2
:104460008DB79EB709960FB6F8949EBF0FBE8DBF4D
:1044700008958BEF0C94390AFC018081918101979A
:1044800001F580E993E09F938F93809112058F93BC
:10449000809111058F93809110058F9380910F0566
:1044A0008F9384E994E09F938F931F920E94B50BA2
:1044B0008DB79EB709960FB6F8949EBF0FBE8DBFFD
:1044C00008958BEF0C94390ADC01ED91FC91CF013A
:1044D0000197089718F08BEF0C94390A80E993E064
:1044E0009F938F93E150B4E0EB9FF0011124E959C1
:1044F000FA4F83818F9382818F9381818F93808103
:104500008F9384E994E09F938F931F920E94B50B41
:104510008DB79EB709960FB6F8949EBF0FBE8DBF9C
:104520000895DC01ED91FC91CF010197089718F0F7
:104530008BEF0C94390A80E993E09F938F93E150BD
:10454000B4E0EB9FF0011124E95EFA4F83818F9371
:1045500082818F9381818F9380818F9384E994E00E
:104560009F938F931F920E94B50B8DB79EB70996AC
:104570000FB6F8949EBF0FBE8DBF08958F929F9285
:10458000AF92BF92CF92DF92EF92FF920F931F9361
:10459000CF93DF9300E010E09801C12CD12C76017D
:1045A000812C912C5401813689F40DEF13E921E01F
:1045B00030E086E6C82EDC2C86EEE82EF12C9AE957
:1045C000892E99E9992E99E1A92EB12CCB01BA0136
:1045D000681979098A099B09A90198010E94E225B5
:1045E000D22FC32FC818D908EA08FB085601670163
:1045F000E12CF12C00E010E02D2F3C2F0E944026F2
:104600008901D42FC52F9F938F937F936F935F93CF
:104610004F931F932F9387EF9FE09F938F9381E09A
:104620008F9388E693E09F938F930E94160DB801B5
:104630008D2F9C2F2DB73EB7235F3F4F0FB6F894B9
:104640003EBF0FBE2DBFDF91CF911F910F91FF9005
:10465000EF90DF90CF90BF90AF909F908F90089594
:104660008F929F92AF92BF92CF92DF92EF92FF9282
:104670000F931F93CF93DF93815000E010E09801D8
:10468000C12CD12C7601812C912C5401883088F4D6
:104690000DEF13E921E030E086E6C82EDC2C86EE33
:1046A000E82EF12C9AE9892E99E9992E99E1A92E03
:1046B000B12CCB01BA01681979098A099B09A901B2
:1046C00098010E94E225D22FC32FC818D908EA0802
:1046D000FB0856016701E12CF12C00E010E02D2FC2
:1046E0003C2F0E9440268901D42FC52F9F938F9382
:1046F0007F936F935F934F931F932F9385ED9FE06D
:104700009F938F9381E08F9388E693E09F938F939D
:104710000E94160DB8018D2F9C2F2DB73EB7235F39
:104720003F4F0FB6F8943EBF0FBE2DBFDF91CF9124
:104730001F910F91FF90EF90DF90CF90BF90AF90BF
:104740009F908F900895AF92BF92CF92DF92EF9299
:10475000FF920F931F93CF9387E6C82E85E0D82E44
:104760009FE3E92E95E0F92E27E1A22E25E0B22E57
:10477000C1E0B7018C2F0E94D421F6012191319123
:10478000419151916F01F701608171818281938123
:10479000F4E0EF0EF11C0FEF1FEF0E943F24AB017E
:1047A000BC01F601349740835183628373838C2F5D
:1047B0000E943023F50161937193819391935F017E
:1047C000CF5FC530B1F60E94A51267E375E089E4BA
:1047D00092E10E94661C20915F0530916005409136
:1047E000610550916205609137057091380580919F
:1047F000390590913A050E943F24AB01BC014093DA
:104800005F0550936005609361057093620581E6D2
:104810000E94BE2260930F057093100580931105CE
:1048200090931205809162058F93809161058F931B
:10483000809160058F9380915F058F9389E190E16E
:104840009F938F9382E08F9388E693E09F938F935B
:104850000E94160D8DB79EB709960FB6F8949EBFAD
:104860000FBE8DBF62E081E0CF911F910F91FF904D
:10487000EF90DF90CF90BF90AF900C94F8112F92F3
:104880003F924F925F926F927F928F929F92AF92E0
:10489000BF92CF92DF92EF92FF920F931F93CF932D
:1048A000DF9300D000D000D00F920F92CDB7DEB7CB
:1048B0006D837E838F8398872801712C612C8FEF05
:1048C0009FEFA0E0B0E084199509A609B7097C0123
:1048D0008D01110FEE08FE2C8701E982FA820B830D
:1048E0001C83890158016A01E12CF12C00E010E0E1
:1048F0009C01AD016981762F862F962F0E948A2513
:10490000298339871A014B018B879A87C301B2012A
:104910002D813E814F8158850E94E22530584F4FAE
:104920005F4F6F4F7F4F8F4F9F4F59016A017B0140
:104930008C0129813985A101B4018B859A850E945A
:10494000012700E10E94E626B901CA012B960FB6A5
:10495000F894DEBF0FBECDBFDF91CF911F910F91B5
:10496000FF90EF90DF90CF90BF90AF909F908F908F
:104970007F906F905F904F903F902F900895789424
:104980000E94EE0E0E943B2081E00E94260F0E94B2
:104990001C110E94F90B0E943E0C0E9420120E94E2
:1049A000AC100E94680C81EF92E00E94C30D88EF6A
:1049B00092E00E94C30D82E093E00E94C30D8AE062
:1049C00093E00E94C30D8EE093E00E94C30D85E149
:1049D00093E00E94C30D8DE193E00E94C30D81E23C
:1049E00093E00E94C30D8AE293E00E94C30D85E329
:1049F00093E00E94C30D8CE393E00E94C30D80E41A
:104A000093E00E94C30D88E493E00E94C30D80E50B
:104A100093E00E94C30D88E593E00E94C30D8DE5ED
:104A200093E00E94C30D82E693E00E94C30D88E6E6
:104A300093E00E94C30D0E9416110E94F40E0E9482
:104A4000271181E60E9414210E941D1585E392E141
:104A50000E943D1C80910002909101020E94140965
:104A6000E5EBF5E084E0DF011D928A95E9F781E747
:104A700093E09F938F9388E192E09F938F9382E0DE
:104A80008F938DE593E09F938F930E94160D80E0A6
:104A90000E94260F40E060ED77E08EE092E20E94F7
:104AA000851142E068EE73E083EA93E20E9485118B
:104AB0008DB79EB707960FB6F8949EBF0FBE8DBFF9
:104AC000C4E0D2E084E0F82E0DE513E0E091DB02D3
:104AD000F091DC028381833088F01F928F93DF9303
:104AE000CF93FF921F930F930E94160D8DB79EB721
:104AF00007960FB6F8949EBF0FBE8DBF64E072E0BC
:104B000080910002909101020E94530A0E94C411F8
:104B1000A895DCCFDF93CF931F930F939A9DF02D31
:104B2000219FF00D8B9DF00D8A9DE02DF10D039FCF
:104B3000F00D029FE00DF11D4E9DE00DF11D5E9DFB
:104B4000F00D4F9DF00D7F936F93BF92AF925F93E7
:104B50004F93D5010E940A278B01AC01D7010E9417
:104B60000A27EB01E80FF91FD6010E94D9252F91E2
:104B70003F91D6010E940A27C60FD71FE81FF91FD1
:104B8000AF91BF910E94D9252F913F910E940A2792
:104B9000C60FD71FE81FF91FD6010E940A27E60F8C
:104BA000F71F9801BE01CF010F911F91CF91DF91A7
:104BB00008950E940A27460F571FC81FD91F08F4DF
:104BC00031960895E894DF93CF93FC01DB010E94B6
:104BD0000A277F936F93E9019A01AC01BF93AF93CA
:104BE0003F932F93DF010E940A2726F46C1B7D0B55
:104BF000820B930B9E01EB01FC010E94D925AF9122
:104C0000BF912F913F910E94D925BE01CF01F9019B
:104C10002F913F91CF91DF910895689401C0E8945E
:104C2000F92FF12B12F00C944126A0E0B0E0EBE15B
:104C3000F6E20C94B326092E059422F40E949D26D8
:104C4000112392F4F0E80F26FFEFE094F094009522
:104C50001095B094C094D094A194BF0ACF0ADF0AF3
:104C6000EF0AFF0A0F0B1F0B0E944C2607FC0E9445
:104C70009D26CDB7DEB7ECE00C94CF26689401C03A
:104C8000E8948F929F92CF93DF930E944C26DF91FE
:104C9000CF919F908F90089588249924F401E40186
:104CA000B0E49F93AA279A158B049C04ED05FE059A
:104CB000CF05D007A10798F4AD2FDC2FCF2FFE2F03
:104CC000E92D982C892E982F872F762F652F542F1A
:104CD000432F322F2227B85031F7BF9127C01B2E08
:104CE000BF91BB27220F331F441F551F661F771F1D
:104CF000881F991F881C991CEE1FFF1FCC1FDD1FEA
:104D0000AA1FBB1F8A149B04EC05FD05CE05DF0519
:104D1000A007B10748F08A189B08EC09FD09CE09E5
:104D2000DF09A00BB10B21601A94E1F62EF4940177
:104D3000AF01BE01CD01000C08956095709580957E
:104D4000909530954095509521953F4F4F4F5F4F2F
:104D50006F4F7F4F8F4F9F4F08952F923F924F92EB
:104D60005F926F927F928F929F92AF92BF92CF92FB
:104D7000DF92EF92FF920F931F93CF93DF93CDB704
:104D8000DEB7CA1BDB0B0FB6F894DEBF0FBECDBF7C
:104D900019942A88398848885F846E847D848C843D
:104DA0009B84AA84B984C884DF80EE80FD800C8156
:104DB0001B81AA81B981CE0FD11D0FB6F894DEBF39
:104DC0000FBECDBFED01089597FD1094002E083061
:104DD00098F00850232F342F452F562F672F782F08
:104DE000892F912DF4CF1594979587957795679591
:104DF00057954795379527950A95AAF71124002DC1
:104E000008952A0D3B1D4C1D5D1D6E1D7F1D801FCD
:104E1000911F0895A29FB001B39FC001A39F700D81
:104E2000811D1124911DB29F700D811D1124911DB2
:104E30000895FC0188279927E89421912032E9F30D
:104E4000293010F02E30C8F32B3241F02D3239F4D6
:104E5000689404C00E945A27820F911D219120530B
:104E60002A30C0F31EF4909581959F4F08959111BB
:104E7000089581548A5108F4805E855A0895FC0192
:104E80008191861721F08823D9F7992708953197C2
:104E9000CF010895FB01DC018D9101908019011073
:104EA000D9F3990B0895FB01DC0101900D920020CC
:104EB000E1F708957AE0979F902D879F802D910DBF
:104EC000112408950F931F93CF93DF93CDB7DEB7CF
:104ED0002E970FB6F894DEBF0FBECDBF0E891F8987
:104EE000888D998D26E02C831A83098397FF02C051
:104EF00080E090E801979E838D83AE01445E5F4F12
:104F00006A8D7B8DCE0101960E9411284D815E81B4
:104F100057FD0AC02F813885421753070CF49A01B8
:104F2000020F131FF80110822E960FB6F894DEBF01
:104F30000FBECDBFDF91CF911F910F9108950F93B9
:104F40001F93CF93DF93CDB7DEB72E970FB6F894AC
:104F5000DEBF0FBECDBF8C01FA0186E08C831A83C1
:104F6000098377FF02C060E070E8615071097E83B9
:104F70006D83A901BF01CE0101960E9411284D81C8
:104F80005E8157FD0AC02F813885421753070CF404
:104F90009A01020F131FF80110822E960FB6F89493
:104FA000DEBF0FBECDBFDF91CF911F910F9108954E
:104FB0000F931F93CF93DF93CDB7DEB72E970FB626
:104FC000F894DEBF0FBECDBF8C01FA018EE08C835A
:104FD0001A83098377FF02C060E070E861507109AD
:104FE0007E836D83A901BF01CE0101960E94112825
:104FF0004D815E8157FD0AC02F81388542175307C6
:105000000CF49A01020F131FF80110822E960FB6AE
:10501000F894DEBF0FBECDBFDF91CF911F910F91EE
:1050200008952F923F924F925F926F927F928F924C
:105030009F92AF92BF92CF92DF92EF92FF920F9327
:105040001F93CF93DF9300D000D000D00F920F9228
:10505000CDB7DEB77C013B018A01FC0117821682C5
:10506000838181FFCEC19AE0292ECE0101965C0199
:10507000F7019381F30193FD859193FF81913F01A6
:10508000882309F446C1853239F493FD859193FF55
:1050900081913F01853229F4B70190E00E941A2ADC
:1050A000E7CF912C412C512CFFE1F51538F08B32D4
:1050B00009F188F4803201F1833221F157FC3AC0C2
:1050C00020ED280F2A3040F556FE1FC0929C200D7F
:1050D0001124922E06C08D3291F0803379F76894B6
:1050E00050F8F30193FD859193FF81913F01811168
:1050F000DBCF20C0689451F8689452F8F2CF6894DE
:1051000053F8EFCF689454F8ECCF429C200D112453
:10511000422E689455F8E5CF8E3229F456FCF9C03A
:10512000689456F8DECF8C3619F4689457F8D9CFC6
:105130008836B9F2982F9F7D95549330C0F083360E
:10514000A1F18337C1F1833509F05BC0F801C1904B
:10515000D1908F01692D70E056FC02C06FEF7FEF98
:10516000C6010E94042A4C01689457F80AC00C5FDB
:105170001F4F2FE3298388248394912C6501E894A1
:1051800057F853FC04C04814190409F018F5342CDE
:105190008114910431F5332009F46ACFB70180E21C
:1051A00090E00E941A2A3A94F6CFF8018081898310
:1051B0000E5F1F4FE0CFF801C190D1908F01692D94
:1051C00070E056FC02C06FEF7FEFC6010E940F2A0D
:1051D0004C01D5CFB70180E290E00E941A2A4A9490
:1051E000D2CFF60157FC859157FE81916F01B7012F
:1051F00090E00E941A2A31103A94F1E08F1A910837
:10520000C7CF843619F0893609F074C0F80157FE0B
:105210006AC061917191819191918F01252D2F76B5
:10522000D22E97FF09C090958095709561957F4F1C
:105230008F4F9F4F6894D7F82AE030E0A5010E9475
:105240004A2AC82ECA188C2C5D2CD6FE0CC0E894B5
:1052500050F8C91440F4D4FE05C0D2FC03C0FD2DA3
:10526000FE7E5F2E892C54FEA4C0FE01EC0DF11DC4
:105270008081803309F096C0252D297E522E852D00
:105280008870382E53FCA4C050FE9EC09C2C841401
:1052900018F44C0C942C981854FEA0C0B70180E36D
:1052A00090E00E941A2A52FE09C088E790E051FE61
:1052B00002C088E590E0B7010E941A2AC91408F4D8
:1052C00099C0CA94D12C9FEFC91AD90ACA0CDB1C09
:1052D000F60182916F01B70190E00E941A2AAC1486
:1052E000BD04B1F758CF61917191072E000C880B66
:1052F000990B93CFD52CE894D4F82AE030E0853789
:10530000E1F1952D997FD92E8F36A9F1F0F48835EA
:1053100051F1F701868197812B960FB6F894DEBF85
:105320000FBECDBFDF91CF911F910F91FF90EF90F6
:10533000DF90CF90BF90AF909F908F907F906F90B5
:105340005F904F903F902F900895803749F08837B5
:1053500001F7D4FE02C06894D2F820E130E00DC01D
:105360006894D4F8F6CF54FE03C0E92FE660DE2E31
:1053700020E132E002C028E030E0F801D7FE0DC0A5
:1053800061917191819191918F01A5010E944A2AA9
:10539000C82ECA18E894D7F856CF6191719190E061
:1053A00080E0F2CF52FC02C0839469CF839483944F
:1053B00066CF852D867809F462CFF6CFB70180E2FB
:1053C00090E00E941A2A83948414C0F3312C64CF95
:1053D000342C3818841408F45FCFF8CF852D8678E4
:1053E00009F46CCF8BE251FE80E257FC8DE2B701ED
:1053F00090E062CFB70180E390E00E941A2A9A946D
:105400005DCF8FEF9FEF88CFFC010590615070401A
:105410000110D8F7809590958E0F9F1F0895FC017D
:105420006150704001900110D8F7809590958E0FD3
:105430009F1F08950F931F93CF93DF93182F092F6A
:10544000EB018B8181FD09C01FEF0FEF812F902FA2
:10545000DF91CF911F910F91089582FF14C02E818B
:105460003F818C819D81281739073CF4E881F981BF
:10547000CF0101969983888310838E819F81019645
:105480009F838E83E3CFE885F985812F1995892B3A
:10549000A1F3DACFFA01AA27283051F1203181F1A6
:1054A000E8946F936E7F6E5F7F4F8F4F9F4FAF4F2C
:1054B000B1E03ED0B4E03CD0670F781F891F9A1F3F
:1054C000A11D680F791F8A1F911DA11D6A0F711DF3
:1054D000811D911DA11D20D009F468943F912AE0FF
:1054E000269F11243019305D3193DEF6CF010895E7
:1054F000462F4770405D4193B3E00FD0C9F7F6CF18
:10550000462F4F70405D4A3318F0495D31FD4052DF
:10551000419302D0A9F7EACFB4E0A6959795879575
:1055200077956795BA95C9F7009761057105089554
:105530009B01AC010A2E0694579547953795279500
:10554000BA95C9F7620F731F841F951FA01D089598
:04555000F894FFCFFD
:105554008705BD059B03770300030FA103770300B1
:10556400320FA6038203016A0DAD038203049E0D6C
:10557400B4037703004C0CBC038203055C10C30323
:105584008203012C15CB038203019215D4038203F9
:1055940001BD15DC03820303D515E403770300FF83
:1055A40015ED03820301A410F4037703008E0FFCAE
:1055B400037703003D0F0504820305DD200C047707
:1055C40003004F21140482030114222104820301E5
:1055D40064222D048203013C223A048203019122B5
:1055E40091039103000000F102001503010E030270
:1055F4001D0303F802046004056A0406400307352A
:1056040003083C03090A030A02030B21030C700478
:105614000D48030E58030F5D03105003112A0312A3
:1056240062031368031491030057065C06650601C0
:105634000002000300040005000600070008000043
:10564400006C6F67676572006D6574726F6E6F6D65
:1056540065006368616E6E656C006D7072007278CF
:105664006368617200636F6D6D616E640061646391
:10567400007463613935347861006D623835726362
:105684003235367600656570726F6D0063616C004B
:1056940074636139353339006C74633236303100E8
:1056A4006C746332363037006C6D3735006D616968
:1056B4006E00746F70617A007072657373757265D1
:1056C40000312E302E38006E6F6E650068657831BB
:1056D400360075696E7431360073696E7431360044
:1056E4000A003025730025692573002A69646E3F1A
:1056F400002A727374006C6F676C6576006C6F6758
:10570400726567006C6F677265673F007365726EE0
:10571400756D006368616E656E61006368616E65D6
:105724006E613F006368616E6F6666006368616EF8
:10573400736574006368616E7365743F00736C6FA6
:1057440074696400736C6F7469643F006F70737480
:105754006174653F00747A612E736E00747A612EF1
:10576400736E3F007072732E6F75742E7261773F83
:10577400007072732E696E2E7261773F00707273BF
:105784002E6F75742E7061733F007072732E696E84
:105794002E7061733F005B525D005B445D005B49AA
:1057A4005D005B575D005B455D0028257329200083
:1057B40066756E6374696F6E7300736F756E6400E3
:1057C40073706900696E69740025732573007374BE
:1057D400616E646279002575257300312573002597
:0A57E40064257300256C7525730021
:00000001FF
