:100000000C94DB070C94FC070C94FC070C94FC0785
:100010000C94FC070C94FC070C94FC070C94FC0754
:100020000C94FC070C94FC070C94FC070C94FC0744
:100030000C94FC070C94FC070C94FC070C94FC0734
:100040000C94FC070C94FC070C94FC070C94111105
:100050000C94FC070C94FC070C94FC070C94FC0714
:100060000C94FC070C94FE070C94FC070C94FC0702
:100070000C94FC070C94FC070C94FC070C94FC07F4
:100080000C94FC070C94FC070C94FC070C94FC07E4
:100090000C94FC070C94FC070C94FC070C94FC07D4
:1000A0000C94FC070C94FC070C94FC070C94FC07C4
:1000B0000C94FC070C94FC070C94FC070C94FC07B4
:1000C0000C94FC070C94FC070C94FC070C94FC07A4
:1000D0000C94FC070C94FC070C94FC070C94FC0794
:1000E0000C94FC070C94E3110C9475150C94440FBC
:1000F0000C945A100C94020C0C94B90E0C94D0145D
:100100000C94E80E0C94F6200C9434150C94E12019
:100110000C9412100C94540D0C94200D0C949E15FC
:100120000C945E150C94EA110C94F30E0C940012CE
:1001300052656365697665642063686172616374A2
:100140006572206E756D6265722061626F766520E2
:100150006C696D697400256320203C2D2D20636F30
:100160007069656420746F207265636569766520C7
:100170006275666665722E202052656365697665D4
:100180006420636F756E742069732025640050616C
:100190007273652062756666657220636F6E746146
:1001A000696E73202725732700436F6D6D616E6440
:1001B0002070726F6365737320737065656420656A
:1001C00072726F72210052656365697665642061A1
:1001D00020636F6D6D616E64207465726D696E6110
:1001E000746F72004261642073797374656D20735B
:1001F00074617465202564004669726D776172656B
:100200002076657273696F6E206973202573004EC6
:100210006F2068616E646C657220737065636966D7
:1002200069656420666F7220257320617267756D41
:10023000656E742E00457865637574696E6720631A
:100240006F6D6D616E642077697468207369676E85
:10025000656420696E7420617267756D656E742EB9
:1002600000457865637574696E6720636F6D6D61B5
:100270006E64207769746820756E7369676E656453
:1002800020696E7420617267756D656E742E0054FE
:10029000686520617267756D656E742076616C7536
:1002A000652069732025752E00457865637574692E
:1002B0006E6720636F6D6D616E642077697468206E
:1002C00068657820617267756D656E742E0045787B
:1002D00065637574696E6720636F6D6D616E642010
:1002E00077697468206E6F20617267756D656E74D2
:1002F0002E00556E7265636F676E697A6564206360
:100300006F6D6D616E643A20272573272E00496753
:100310006E6F72696E6720617267756D656E7420AD
:10032000666F7220636F6D6D616E64202725732781
:100330002E00417267756D656E7420746F202725DD
:1003400073272069732077697468696E206C696D02
:100350006974732E00417267756D656E7420746FD9
:100360002027257327206973206F7574206F6620FE
:1003700072616E67652E00436F6D6D616E6420273C
:10038000257327207265636F676E697A65642E0036
:1003900054686520636F6D6D616E642773206172B0
:1003A00067756D656E7420697320272573272E008D
:1003B00054686520636F6D6D616E6420636F6E7449
:1003C00061696E7320612073706163652E005468EB
:1003D000652070617273652062756666657220695A
:1003E00073206C6F636B65642E00417267756D6579
:1003F0006E742073697A65206973202564005379CF
:100400007374656D202573206E6F7420666F756E32
:1004100064004E6F77206C6F6767696E6720737931
:100420007374656D2025730025750D0A004C6F6788
:1004300067657220656E61626C65207265676973BD
:100440007465722073657420746F2025752E004CBE
:100450006F67206C6576656C202575206973206E4A
:100460006F74207265636F676E697A65642E004CE5
:100470006F6767696E672073657420746F206C65A1
:1004800076656C202569005069636172726F2C4239
:100490006F7865722C534E25752C2573004C6F6157
:1004A00064696E6720736C6F742049442025750061
:1004B00057726974696E6720736C6F7420494420A9
:1004C0002575004C6F6164696E67207365726961A0
:1004D0006C206E756D6265722025750057726974A7
:1004E000696E672073657269616C206E756D6265F7
:1004F0007220257500526561642025692066726F3F
:100500006D20616464726573732025690057726F92
:10051000746520256920746F20616464726573734B
:100520002025690052656164203078257800577273
:100530006F74652030782578004661696C656420A9
:10054000746F20736574206D6173746572206D6FB4
:1005500064650053504920636F6E74726F6C207233
:100560006567697374657220697320307825780037
:10057000496E697469616C697A696E67206D65742A
:10058000726F6E6F6D650057726F746520307825DD
:10059000780057726F7465203078257800536C614D
:1005A00076652041434B6564206461746120627903
:1005B00074652025752E0054574920737461747535
:1005C00073206973203078257800536C617665203C
:1005D00041434B656420696E737472756374696F0F
:1005E0006E203078257800545749207374617475F3
:1005F00073206973203078257800436F756C642010
:100600006E6F742073656C656374206465766963CE
:1006100065004172626974726174696F6E206C6FFB
:10062000737400534C412B57207472616E736D6963
:10063000747465642C204E41434B20726563656978
:100640007665642061667465722025752074726910
:10065000657300534C412B57207472616E736D6942
:10066000747465642C2041434B2072656365697620
:1006700065640054574920737461747573206973FD
:10068000203078257800436F756C64206E6F74207D
:1006900073657420737461727420636F6E6469741F
:1006A000696F6E004172626974726174696F6E2065
:1006B0006C6F737400537461727420636F6E64693D
:1006C00074696F6E2073657400546F70617A2025B1
:1006D00063206973206E6F7420636F6E6E65637440
:1006E000656400546F70617A202563206973206E01
:1006F0006F7420636F6E6E656374656400546F7011
:10070000617A202563206973206E6F7420636F6E99
:100710006E65637465640057726F74652030782568
:100720007820746F20726567697374657220307801
:10073000257800536C6176652041434B65642064E5
:1007400061746120627974652025752E00545749C3
:100750002073746174757320697320307825780074
:10076000536C6176652041434B656420616464721B
:10077000657373203078257800545749207374616D
:10078000747573206973203078257800436F756C19
:1007900064206E6F742073656C6563742064657685
:1007A000696365004172626974726174696F6E2079
:1007B0006C6F737400534C412B57207472616E73CD
:1007C0006D69747465642C204E41434B20726563DF
:1007D000656976656420616674657220257520748C
:1007E0007269657300534C412B57207472616E73AC
:1007F0006D69747465642C2041434B207265636598
:100800006976656400545749207374617475732068
:100810006973203078257800436F756C64206E6FA3
:10082000742073657420737461727420636F6E64D6
:100830006974696F6E004172626974726174696F84
:100840006E206C6F737400537461727420636F6EEA
:10085000646974696F6E2073657400526561642009
:1008600025752066726F6D20726567697374657295
:10087000202575004E41434B20726563656976659E
:1008800064206166746572206461746120726571B0
:1008900075657374005457492073746174757320BF
:1008A0006973203078257800545749207374617437
:1008B0007573206973203078257800536574207231
:1008C0006570656174656420737461727420636F10
:1008D0006E646974696F6E00446174612074726142
:1008E0006E736D69747465642C204E41434B2072A5
:1008F0006563656976656400446174612074726142
:100900006E736D69747465642C2041434B2072656D
:100910006365697665640054574920737461747522
:1009200073206973203078257800436F756C6420DC
:100930006E6F742073656C6563742064657669639B
:1009400065004172626974726174696F6E206C6FC8
:10095000737400534C412B57207472616E736D6930
:10096000747465642C204E41434B20726563656945
:1009700076656420616674657220257520747269DD
:10098000657300534C412B57207472616E736D690F
:10099000747465642C2041434B20726563656976ED
:1009A00065640054574920737461747573206973CA
:1009B000203078257800436F756C64206E6F74204A
:1009C00073657420737461727420636F6E646974EC
:1009D000696F6E004172626974726174696F6E2032
:1009E0006C6F737400536574207374617274206348
:1009F0006F6E646974696F6E0057726F7465203032
:100A000078257820746F20636F6E74726F6C20721B
:100A10006567697374657200536C61766520414344
:100A20004B6564206461746120627974652025756A
:100A30002E005457492073746174757320697320B4
:100A40003078257800436F756C64206E6F74207366
:100A5000656C6563742064657669636500417262E4
:100A60006974726174696F6E206C6F737400534C9B
:100A7000412B572073656E742C20676F74204E4194
:100A8000434B2066726F6D206164647265737320DE
:100A9000307825782061667465722025752074721F
:100AA00069657300534C412B57207472616E736DEE
:100AB00069747465642C2041434B207265636569D9
:100AC00076656400545749207374617475732069A6
:100AD00073203078257800436F756C64206E6F74D6
:100AE0002073657420737461727420636F6E64691F
:100AF00074696F6E004172626974726174696F6EBD
:100B0000206C6F737400537461727420636F6E6431
:100B10006974696F6E207365740052656164202585
:100B2000752066726F6D20636F6E74726F6C2072C9
:100B300065676973746572004E41434B207265634B
:100B400065697665642061667465722064617461AC
:100B50002072657175657374005457492073746110
:100B6000747573206973203078257800436F756C35
:100B700064206E6F742073656C65637420646576A1
:100B8000696365004172626974726174696F6E2095
:100B90006C6F737400534C412B52207472616E73EE
:100BA0006D69747465642C204E41434B20726563FB
:100BB00065697665642061667465722025752074A8
:100BC0007269657300534C412B52207472616E73CD
:100BD0006D69747465642C2041434B2072656365B4
:100BE0006976656400545749207374617475732085
:100BF0006973203078257800436F756C64206E6FC0
:100C0000742073657420737461727420636F6E64F2
:100C10006974696F6E004172626974726174696FA0
:100C20006E206C6F737400536574207374617274FA
:100C300020636F6E646974696F6E00436F6E7472C7
:100C40006F6C20726567697374657220636F6E7470
:100C500061696E7320307825780050726573737502
:100C6000726520636F6465203078256C7800496E6A
:100C7000697469616C697A696E672073656E736FF8
:100C8000720057726F7465203078257820746F2059
:100C90007265676973746572203078257800536CCB
:100CA0006176652041434B65642064617461206214
:100CB0007974652025752E0054574920737461742A
:100CC0007573206973203078257800536C617665E0
:100CD0002041434B656420616464726573732062D4
:100CE00079746520257500545749207374617475B3
:100CF00073206973203078257800436F756C642009
:100D00006E6F742073656C656374206465766963C7
:100D100065004172626974726174696F6E206C6FF4
:100D2000737400534C412B57207472616E736D695C
:100D3000747465642C204E41434B20726563656971
:100D40007665642061667465722025752074726909
:100D5000657300534C412B57207472616E736D693B
:100D6000747465642C2041434B2072656365697619
:100D700065640054574920737461747573206973F6
:100D8000203078257800436F756C64206E6F742076
:100D900073657420737461727420636F6E64697418
:100DA000696F6E004172626974726174696F6E205E
:100DB0006C6F737400537461727420636F6E646936
:100DC00074696F6E207365740052656164202575C7
:100DD0002066726F6D207265676973746572202575
:100DE00075004E41434B20726563656976656420EA
:100DF00061667465722064617461207265717565E5
:100E00007374005457492073746174757320697347
:100E100020307825780054574920737461747573B5
:100E200020697320307825780053657420726570CE
:100E3000656174656420737461727420636F6E649D
:100E40006974696F6E0044617461207472616E73BD
:100E50006D69747465642C204E41434B2072656348
:100E6000656976656400536C6176652041434B6526
:100E700064206164647265737320627974652025EF
:100E80007500545749207374617475732069732019
:100E90003078257800436F756C64206E6F74207312
:100EA000656C656374206465766963650041726290
:100EB0006974726174696F6E206C6F737400534C47
:100EC000412B57207472616E736D69747465642C64
:100ED000204E41434B2072656365697665642061ED
:100EE0006674657220257520747269657300534CB1
:100EF000412B57207472616E736D69747465642C34
:100F00002041434B207265636569766564005457E0
:100F10004920737461747573206973203078257863
:100F200000436F756C64206E6F742073657420735A
:100F30007461727420636F6E646974696F6E0041CE
:100F400072626974726174696F6E206C6F73740081
:100F500053657420737461727420636F6E64697476
:100F6000696F6E00466F756E642073657269616C9F
:100F700020257520666F7220626F61726420256380
:100F800000546F70617A202563206973206E6F743E
:100F900020636F6E6E656374656400546F70617A70
:100FA000202563206973206E6F7420636F6E6E65F9
:100FB00063746564000011241FBECFEFD1E2DEBF71
:100FC000CDBF00E00CBF14E0A0E0B2E0ECE8FBE431
:100FD00000E00BBF02C007900D92A633B107D9F70E
:100FE00025E0A6E3B4E001C01D92A336B207E1F705
:100FF0000E9478210C94C4250C9400001F920F923B
:101000000FB60F9211240BB60F92EF92FF920F932F
:101010001F932F933F934F935F936F937F938F9380
:101020009F93AF93BF93CF93DF93EF93FF93E091A1
:101030000002F09101020488F589E02D8091C6003C
:101040008083E0910002F0910102A489B5898C911E
:101050008D3009F075C086EC91E09F938F931F92BD
:10106000CFEED2E0DF93CF930E94CC0CE091000250
:10107000F09101020F900F900F900F900F9084A5A8
:10108000882309F444C085A58823B1F089EA91E05A
:101090009F938F9384E08F93DF93CF930E94CC0C28
:1010A00080910002909101020E9421090F900F90FF
:1010B0000F900F900F902BC00488F589E02D1082BF
:1010C000E0900002F090010287010A5E1F4FB70115
:1010D000C8010E946F2281E0F70185A71F930F933B
:1010E0008EE891E09F938F931F92DF93CF930E949E
:1010F000CC0C80910002909101020E942109EDB771
:10110000FEB737960FB6F894FEBF0FBEEDBFFF9146
:10111000EF91DF91CF91BF91AF919F918F917F918F
:101120006F915F914F913F912F911F910F91FF9080
:10113000EF900F900BBE0F900FBE0F901F90189561
:1011400084A58F5F84A71F928F938C911F928F939A
:1011500086E591E09F938F931F92CFEED2E0DF93CD
:10116000CF930E94CC0CE0910002F09101028DB768
:101170009EB709960FB6F8949EBF0FBE8DBF84A58B
:10118000833168F080E391E09F938F9384E08F93A5
:10119000DF93CF930E94CC0C0E94FA0981CF8489FF
:1011A00095890196958B848BB2CFCF93DF93FC0109
:1011B00084E1DF01C82F1D92CA95E9F7F58BE48B16
:1011C000DF015696ED0119928A95E9F7B3A7A2A718
:1011D00014A615A6DF91CF9108950F931F93CF9377
:1011E000DF938B01FC01A2A5B3A5ED0109900020BE
:1011F000E9F72197CA1BDB0BCE0199279F938F93A9
:101200008AEE93E09F938F9382E08F9386EF92E034
:101210009F938F930E94CC0C81E02DB73EB7295F3E
:101220003F4F0FB6F8943EBF0FBE2DBFF80194811B
:101230009C1708F080E08195DF91CF911F910F916D
:101240000895FC0184E1DF011D928A95E9F7F58B91
:10125000E48B14A60895BF92CF92DF92EF92FF9293
:101260000F931F93CF93DF938C016B01EA01DC0195
:101270001296FC9012971396EC9063E573E08F2D15
:101280009E2D0E946622892B91F48EEC92E09F9312
:101290008F9382E08F9386EF92E09F938F930E94CB
:1012A000CC0C0F900F900F900F900F902FC068E50F
:1012B00073E08F2D9E2D0E946622892BB1F589EA5D
:1012C00092E09F938F9382E0B82EBF9296EFE92E23
:1012D00092E0F92EFF92EF920E94CC0CC6010E9480
:1012E000F60D888399839F938F938FE892E09F9365
:1012F0008F93BF92FF92EF920E94CC0CEDB7FEB796
:101300003C960FB6F894FEBF0FBEEDBFD801159600
:10131000ED91FC91CE01DF91CF911F910F91FF9044
:10132000EF90DF90CF90BF9019946EE573E08F2D12
:101330009E2D0E946622892B91F481E692E09F9374
:101340008F9382E08F9386EF92E09F938F930E941A
:10135000CC0CC6010E94270E99838883A2CF65E634
:1013600073E08F2D9E2D0E946622892B91F485E3D8
:1013700092E09F938F9382E08F9386EF92E09F930A
:101380008F930E94CC0CC6010E94290E9B838A83F6
:1013900088CFEF92FF928FE092E09F938F9384E04B
:1013A0008F9386EF92E09F938F930E94CC0CEDB7C2
:1013B000FEB737960FB6F894FEBF0FBEEDBFDF91B4
:1013C000CF911F910F91FF90EF90DF90CF90BF9042
:1013D00008958CE693E09F938F938EE693E09F931E
:1013E0008F931F920E946B0B0F900F900F900F9096
:1013F0000F9008958CE693E09F938F9382E793E09C
:101400009F938F931F920E946B0B0F900F900F90E2
:101410000F900F900895BF92CF92DF92EF92FF92BC
:101420000F931F93CF93DF93EC018B018DA588233E
:1014300009F4EEC08EEC93E09F938F9322E0B22EDE
:10144000BF9236EFC32E32E0D32EDF92CF920E94AE
:10145000CC0C7E0126E1E20EF11C60E270E0C701D7
:101460000E945B229BA78AA70F900F900F900F906E
:101470000F90892B89F180EB93E09F938F93BF921C
:10148000DF92CF920E94CC0CEAA5FBA510828AA520
:101490009BA501969BA78AA70F900F900F900F9086
:1014A0000F90EAA5FBA580818032C9F1FF93EF93ED
:1014B00080E993E09F938F9382E08F9386EF92E091
:1014C0009F938F930E94CC0C8DB79EB707960FB653
:1014D000F8949EBF0FBE8DBFC7010E94340EF80165
:1014E00085819681892BF9F4FF92EF9282EF92E049
:1014F0009F938F9384E08F9386EF92E09F938F93D7
:101500000E94CC0C0E94FA091DA62DB73EB7295F98
:101510003F4F0FB6F8943EBF0FBE2DBF79C0319636
:10152000FBA7EAA7BECFF801D080C1806D2D7C2D2E
:10153000C7010E946622892B09F09AC0CF92DF92E0
:1015400087E793E09F938F9382E0D82EDF9296EF08
:10155000E92E92E0F92EFF92EF920E94CC0C63E507
:1015600073E0F801828193810E9466222DB73EB715
:10157000295F3F4F0FB6F8943EBF0FBE2DBF892B9A
:1015800009F450C0B801CE010E94ED08F801218194
:101590009081882301F12F939F9385E593E09F939A
:1015A0008F9384E08F93FF92EF920E94CC0C2DB723
:1015B0003EB7295F3F4F0FB6F8943EBF0FBE2DBF19
:1015C000DF91CF911F910F91FF90EF90DF90CF901F
:1015D000BF900C94FA092F939F9382E393E09F931B
:1015E0008F93DF92FF92EF920E94CC0C4091020207
:1015F000509103026AA57BA5C8010E942B098DB7F3
:101600009EB707960FB6F8949EBF0FBE8DBF1DA65E
:10161000DF91CF911F910F91FF90EF90DF90CF90CE
:10162000BF9008958AA59BA5892BC1F0F8018181FF
:101630008F9380818F938EE093E09F938F9383E0CD
:101640008F93FF92EF920E94CC0C2DB73EB7295F8B
:101650003F4F0FB6F8943EBF0FBE2DBF4091020220
:101660005091030270E060E0C8010E942B09CFCFC7
:10167000095F1F4F34CF8091C00087FFFCCF80915E
:10168000C6000895882319F0813041F008958091B3
:10169000C00085FFFCCF6093C600089580913001A3
:1016A00085FFFCCF6093360108950F931F93CF936E
:1016B000DF93082FC62FD72F16E9160F69916623DF
:1016C00029F0802F0E94420B1C13F8CFDF91CF919D
:1016D0001F910F910895CF93DF93CDB7DEB79E0191
:1016E000275F3F4F4F81588566E970E08DEB94E0AE
:1016F0000E94BB226DEB74E08E810E94550B80E04E
:10170000DF91CF910895CF93DF93CDB7DEB79E01E0
:10171000275F3F4F4F81588566E970E08DEB94E07D
:101720000E94F4226DEB74E08E810E94550B80E0E4
:10173000DF91CF9108950F931F93CF93DF93082FDD
:10174000EB01FE011491612F802F0E94420B219624
:101750001111F7CFDF91CF911F910F910895E0EC18
:10176000F0E080818D7F80831092C50029E1209375
:10177000C400A1ECB0E098E19C93E2ECF0E0808141
:101780008F73808380818F7C80838081877F80833B
:1017900080818B7F80838081866080838C9180684C
:1017A0008C93E0E3F1E080818D7F8083109235019E
:1017B0002093340190933101E2E3F1E080818F7353
:1017C000808380818F7C80838081877F80838081FC
:1017D0008B7F808380818660808308951092C5000E
:1017E0008CE08093C4000895E091BA02F091BB02AE
:1017F0008FEF9FEFDC0180839183A283B38384E02A
:1018000084830895E091BA02F091BB0283818F93A3
:1018100082818F9381818F9380818F9388E294E07E
:101820009F938F931F920E94830B8DB79EB707964D
:101830000FB6F8949EBF0FBE8DBF0895E091BA0217
:10184000F091BB02108211821282138208959F933D
:101850008F938FE693E09F938F9381E08F930E9405
:101860006B0B0F900F900F900F900F9008958F9229
:101870009F92AF92BF92CF92DF92FF920F931F93EE
:10188000CF93DF93CDB7DEB7E2970FB6F894DEBF04
:101890000FBECDBF5C01F62E4A01C090BA02D090B7
:1018A000BB020BE712E0F80160817181FB018081CE
:1018B000882309F445C0C5010E946622892B09F0DE
:1018C00068C0F8012281F60180819181A281B381F3
:1018D00004C0B695A795979587952A95D2F780FF6E
:1018E00058C0F2E0FF1609F44EC0FF15D8F1FF20F2
:1018F00009F443C081E0F81609F442C0F80181817F
:101900008F9380818F9384E094E09F938F931F92B5
:1019100082E38F938E010F5F1F4F1F930F930E94DF
:101920007E22C8010E94270CC4010E94270C8CE66D
:1019300093E00E94270C0FB6F894DEBF0FBECDBF18
:10194000E2960FB6F894DEBF0FBECDBFDF91CF9108
:101950001F910F91FF90DF90CF90BF90AF909F901D
:101960008F90089593E0F91689F0E4E080E094E028
:10197000FE12C4CF0E94270CC1CF80EF93E0FACFB4
:1019800084EF93E0F7CF88EF93E0F4CF8CEF93E010
:10199000F1CF0D5F1F4F87CF1F93CF93DF93CDB74D
:1019A000DEB7E2970FB6F894DEBF0FBECDBF1BAD1A
:1019B000E091BA02F091BB0280819181A281B38152
:1019C000892B8A2B8B2BB1F08481181798F09E01FC
:1019D000225C3F4F4CAD5DAD62E370E0CE010196FD
:1019E0000E94F422AE014F5F5F4F612F89AD9AAD27
:1019F0000E94370CE2960FB6F894DEBF0FBECDBF43
:101A0000DF91CF911F910895E091BA02F091BB024E
:101A100084831F928F938FE694E09F938F9382E04D
:101A20008F9382ED92E09F938F930E94CC0C8DB7A1
:101A30009EB707960FB6F8949EBF0FBE8DBF089550
:101A4000FC01808191818230910551F1E0F4009791
:101A500011F18130910511F19F938F938FE494E000
:101A60009F938F9384E08F9382ED92E09F938F9367
:101A70000E94CC0C8DB79EB707960FB6F8949EBF08
:101A80000FBE8DBF08958330910561F084309105BC
:101A900019F784E001C080E00C94040D81E0FCCFD4
:101AA00082E0FACF83E0F8CFFC0180819181E09160
:101AB000BA02F091BB02AC0170E060E04083518358
:101AC000628373839F938F938DE294E09F938F93B0
:101AD00082E08F9382ED92E09F938F930E94CC0CD3
:101AE0008DB79EB707960FB6F8949EBF0FBE8DBFF9
:101AF0000895EF92FF920F931F93CF93DF93F82EE9
:101B0000E92E0BE712E0D801CD91DC91888181119B
:101B100018C0EF92FF928EEF93E09F938F9384E033
:101B20008F9382ED92E09F938F930E94CC0CEDB740
:101B3000FEB737960FB6F894FEBF0FBEEDBF81E03B
:101B40003CC0BE018F2D9E2D0E946622892BE1F59F
:101B5000E091BA02F091BB02D80112962C9181E07B
:101B600090E0A0E0B0E004C0880F991FAA1FBB1F3F
:101B70002A95D2F74081518162817381842B952B04
:101B8000A62BB72B80839183A283B383DF93CF935C
:101B900082E194E09F938F9382E08F9382ED92E0B5
:101BA0009F938F930E94CC0C8DB79EB707960FB66C
:101BB000F8949EBF0FBE8DBF80E0DF91CF911F9143
:101BC0000F91FF90EF9008950D5F1F4F9CCF982FBE
:101BD00080ED890F8A3048F089EC890F803128F038
:101BE00089EA890F803108F080E00895EF92FF9232
:101BF0000F931F93CF93DF93EC0109900020E9F737
:101C00002197C81BD90B8C01DD27CC0FDD1FCC0F12
:101C1000DD1FF12CE12C2497CC3F2FEFD20741F4AC
:101C2000C701DF91CF911F910F91FF90EF90089521
:101C3000F80181918F010E94E70D90E00C2E02C007
:101C4000880F991F0A94E2F7E80EF91EE4CF0C946E
:101C500035220C943522282F80E091E0921708F06D
:101C60000895990F8F5FFACFCF93DF93EC0189919D
:101C7000811103C0DF91CF91089590E00E9453221B
:101C8000FE0131978083F3CF80E88093610083E089
:101C9000809361001092700080E28093B60088EC1F
:101CA0008093B30010926E0081E080938100809356
:101CB000B0009091B6008091B60084709170892B2D
:101CC000C1F78AE090E020E335E7F9013197F1F7B9
:101CD0000197D9F73FEF41E0F89436BB37BB10923C
:101CE0008500109284001092B20087B38823E9F334
:101CF00010928100789486B381111CC020918400D9
:101D00008091850090E0982F8827820F911D8B3657
:101D100028E1920744F0809166008150809366002C
:101D200040938100D9CF883E974124F081E0809391
:101D300081000895809166008F5FF0CFE1E6F0E0CA
:101D400080E8808310820895E1E6F0E080E88083F7
:101D5000108208958091BC029091BD020E94E30F11
:101D60008091BC029091BD020E94391081E60C94D2
:101D700021208DE493E09F938F93E091BC02F0913A
:101D8000BD0281818F9380818F9387E894E09F9338
:101D90008F931F920E94830B8CE693E09F938F9307
:101DA0001F920E946B0B8DB79EB70A960FB6F894E0
:101DB0009EBF0FBE8DBF0895E091BC02F091BD02A1
:101DC00083830895E091BC02F091BD028381089560
:101DD00088E198E00FB6F894A895809360000FBE54
:101DE00090936000FFCFE091BC02F091BD0283812F
:101DF0008823D1F0813081F58CE693E09F938F9317
:101E00008AE194E09F938F938FE194E09F938F9367
:101E10001F920E946B0B8DB79EB707960FB6F89472
:101E20009EBF0FBE8DBF08958CE693E09F938F9366
:101E300084E294E09F938F938FE194E09F938F933C
:101E40001F920E946B0B8DB79EB707960FB6F89442
:101E50009EBF0FBE8DBF08958CE693E09F938F9336
:101E600083E593E09F938F938FE194E09F938F930B
:101E70001F920E946B0B8DB79EB707960FB6F89412
:101E80009EBF0FBE8DBF08958CE693E09F938F9306
:101E9000E091BC02F091BD0282811F928F938CE28F
:101EA00094E09F938F931F920E946B0B8DB79EB708
:101EB00007960FB6F8949EBF0FBE8DBF089581366A
:101EC00031F470935D0560935C0580E00895709334
:101ED0005F0560935E05F9CF813629F480915C053A
:101EE00090915D05089580915E0590915F0508953C
:101EF000F894F999FECF92BD81BD60BDFA9AF99A26
:101F000078949F938F931F926F938DE095E09F93AA
:101F10008F9382E08F9386E193E09F938F930E944B
:101F2000CC0C8DB79EB709960FB6F8949EBF0FBE26
:101F30008DBF0895F894F999FECF92BD81BDF89AAE
:101F4000789420B59F938F931F922F9385EF94E001
:101F50009F938F9382E08F9386E193E09F938F937B
:101F60000E94CC0C80B52DB73EB7275F3F4F0FB610
:101F7000F8943EBF0FBE2DBF0895CF93DF93D82FA7
:101F8000C92F9F938F938CED94E09F938F9381E063
:101F90008F9386E193E09F938F930E94CC0C6D2FDB
:101FA00090E080E00E94780F8DB79EB707960FB63D
:101FB000F8949EBF0FBE8DBF6C2F81E090E0DF9143
:101FC000CF910C94780F0F931F93CF938C0190E0D7
:101FD00080E00E949A0FC82F81E090E00E949A0F43
:101FE00090E0982F88278C0F911DF80191838083B2
:101FF0009F938F9383EC94E09F938F9381E08F93D3
:1020000086E193E09F938F930E94CC0C8DB79EB78F
:1020100007960FB6F8949EBF0FBE8DBFCF911F914C
:102020000F910895FC01808191810E94BD0F0E9453
:10203000AA0E0C94E909CF93C82F1F928F9380EBBF
:1020400094E09F938F9381E08F9386E193E09F9339
:102050008F930E94CC0C8DB79EB707960FB6F8945D
:102060009EBF0FBE8DBF6C2F82E090E0CF910C948D
:10207000780FCF93DF93EC0182E090E00E949A0FFB
:102080008A831F928F938DE994E09F938F9381E0D1
:102090008F9386E193E09F938F930E94CC0C8DB732
:1020A0009EB707960FB6F8949EBF0FBE8DBFDF9107
:1020B000CF910895FC0180810E941B100E94AA0EFE
:1020C0000C94E909CF93DF93219A229A8CB5826010
:1020D0008CBD8CB580618CBD8CB580648CBD29981D
:1020E0008CB51F928F9383E595E09F938F9382E049
:1020F0008F93C9E2D3E0DF93CF930E94CC0C8DB7CE
:102100009EB707960FB6F8949EBF0FBE8DBF0CB456
:1021100004FC0FC089E395E09F938F9384E08F9335
:10212000DF93CF930E94CC0C0F900F900F900F90E5
:102130000F90DF91CF9108950F931F93CF93DF936B
:102140008EBD0DB407FEFDCF1F928F938EE295E0FA
:102150009F938F9301E00F93C9E2D3E0DF93CF9376
:102160000E94CC0C1EB51F921F9384E295E09F93B2
:102170008F930F93DF93CF930E94CC0C8DB79EB7B4
:102180000E960FB6F8949EBF0FBE8DBF812FDF91C4
:10219000CF911F910F9108951092B90080E4809320
:1021A000B8000895279A08952F9A08952F980895B2
:1021B0002F990C94D6100C94D41080E795E09F933F
:1021C0008F9382E08F9389ED92E09F938F930E948B
:1021D000CC0CE1E8F0E080818460808381E792E0CC
:1021E00090938D0080938C00EFE6F0E08081886012
:1021F00080830F900F900F900F900F90089584E0C0
:1022000090E00E94392160E081E00C94B01166E317
:1022100074E084E090E00E94582162E081E00C9438
:10222000B0111F920F920FB60F9211240BB60F929E
:102230002F933F934F935F936F937F938F939F93CE
:10224000AF93BF93EF93FF93109285001092840099
:102250000E945D11FF91EF91BF91AF919F918F917E
:102260007F916F915F914F913F912F910F900BBE96
:102270000F900FBE0F901F9018959C01CB010197F6
:1022800080319742B0F490913A049A30A0F487E0FC
:10229000989FF0011124E55CFB4F31832083738309
:1022A00062834683158214829F5F90933A0480E094
:1022B000089582E0089583E0089530913A04EBE3B5
:1022C000F4E020E04AE050E061E0321301C00895FC
:1022D0008681823051F084819581A281B3818A17F1
:1022E0009B0730F05583448366832F5F3796EDCF8D
:1022F0000A9695838483F9CFCF93DF93C0E0D7E02C
:1023000080913A04C81718F0DF91CF910895DC9FAF
:10231000F0011124E55CFB4F8681813029F416829F
:102320000190F081E02D1995CF5FEACF97E0899F6A
:10233000F0011124E55CFB4F8681089597E0899FA9
:10234000F0011124E55CFB4F82819381089597E0B1
:10235000899FF0011124E55CFB4F848195810895EC
:1023600097E0899FF0011124E55CFB4F6683089597
:1023700097E0899FF0011124E55CFB4F7383628332
:10238000089597E0899FF0011124E55CFB4F758368
:1023900064830895289A289BFECF0895289A209A4E
:1023A00073986B9A889A809AEBE0F1E0808188605C
:1023B0008083EAE0F1E080818860808374986C9A81
:1023C000899A819A089581110C94CA1128982899A4
:1023D000FECF0895882351F080910B01886080938F
:1023E0000B0180910B0183FFFCCF089580910B01BD
:1023F000877F80930B0180910B0183FDFCCF0895B3
:10240000882321F0889A889BFECF08958898889920
:10241000FECF089580E00E94E31190E080E00E94EA
:102420009C100C94CA1180E00E94E31182E090E0BD
:102430000E949C100C94CA1180E00E94E31184E079
:1024400090E00E949C100C94CA1180E00E94E3115D
:1024500086E090E00E949C100C94CA1180E00E94DB
:10246000E31181E090E00E949C100C94CA1180E07E
:102470000E94E31183E090E00E949C100C94CA112A
:1024800080E00E94E31185E090E00E949C100C9493
:10249000CA1180E00E94E31187E090E00E949C1046
:1024A0000C94CA1180E00E94E31188E090E00E9441
:1024B0009C100C94CA110895BF92CF92DF92EF92B4
:1024C000FF920F931F93CF93DF936C01162FEA01B6
:1024D00080E0F6011995812F8295807F0E949C10E3
:1024E0008D2F0E949C101F92DF9387E8E82E85E0D5
:1024F000F82EFF92EF92BB24B394BF920DE213E04B
:102500001F930F930E94CC0C8C2F0E949C10DD27F0
:10251000DF93CF93FF92EF92BF921F930F930E948E
:10252000CC0C81E0F60119958DB79EB70E960FB6CB
:10253000F8949EBF0FBE8DBF80E0DF91CF911F91B9
:102540000F91FF90EF90DF90CF90BF900895409152
:1025500081045091820463E083EE91E10E945C1259
:102560008091810490918204805F984D90938204C1
:102570008093810480E0089580E008952F923F9237
:102580004F925F926F927F928F929F92AF92BF9283
:10259000CF92DF92EF92FF920F931F93CF93DF932F
:1025A0000F920F92CDB7DEB7382E330C3A832983C2
:1025B0006295607F762E740EEE24E394F12C05E391
:1025C00013E037EE832E35E0932E84EA8093BC002F
:1025D0008091BC0087FFFCCF8091B900887F8093F9
:1025E0006005803131F0883309F4F6C0883009F095
:1025F00003C125EB36E03F932F9381E08F931F9328
:102600000F930E94CC0C3092BB0084E88093BC00F6
:102610000F900F900F900F900F908091BC0087FF4C
:10262000FCCF8091B900887F809360051F928F93C3
:10263000E3E7F6E0FF93EF93DD24D394DF921F935B
:102640000F930E94CC0C809160050FB6F894DEBF0A
:102650000FBECDBF803209F4E2C0883309F4F7C061
:10266000883109F0FAC023E536E03F932F93DF92DB
:102670001F930F930E94CC0C7092BB0084E8809350
:10268000BC000F900F900F900F900F908091BC00A6
:1026900087FFFCCF8091B900887F809360051F92EF
:1026A0008F939F928F92DD24D394DF921F930F9389
:1026B0000E94CC0C809160050FB6F894DEBF0FBE6F
:1026C000CDBF803309F46FC0883309F47ECF8832E0
:1026D00009F0D2C01F927F928AEC95E09F938F936E
:1026E000DF921F930F930E94CC0C9E012F5F3F4FF0
:1026F00059010FB6F894DEBF0FBECDBFCC24C394F2
:10270000D12C94E8292E662463945C2C4D2CF50181
:1027100081818093BB002092BC008091BC0087FF28
:10272000FCCF8091B900887F809360051F928F93C2
:1027300027EB35E03F932F936F921F930F930E94E7
:10274000CC0C809160050FB6F894DEBF0FBECDBFF4
:10275000803349F1883309F438CF883209F08CC0CE
:102760004F925F922DE935E03F932F936F921F9325
:102770000F930E94CC0CF50181811F928F9322E967
:1027800035E03F932F936F921F930F930E94CC0CD1
:1027900091E0A91AB1080FB6F894DEBF0FBECDBF05
:1027A000CD2809F06BC080E094E99093BC000F90B5
:1027B0000F90DF91CF911F910F91FF90EF90DF90DD
:1027C000CF90BF90AF909F908F907F906F905F90D1
:1027D0004F903F902F90089584EA96E09F938F93B7
:1027E00081E08F931F930F930E94CC0C0F900F905A
:1027F0000F900F900F90E9CE86E896E09F938F930D
:1028000084E08F9385E393E09F938F930E94CC0C99
:102810000F900F900F900F900F908FEFC8CFFF92F7
:10282000EF92E3E2F6E0FF93EF93DF921F930F93B3
:102830000E94CC0C3FEFE31AF30A0FB6F894DEBF08
:102840000FBECDBF9BE0E916F10439F3BECEE2E145
:10285000F6E0FF93EF93DF92C5CF8AEF95E09F9369
:102860008F9384E08F931F930F930E94CC0C0F9053
:102870000F900F900F900F908FEF96CFD12CC12C0F
:1028800044CF08950F931F93CF93DF93EC01162F3E
:10289000072F80E0FE011995802F0E949C10812F48
:1028A0000E949C1081E0FE01199580E0DF91CF919C
:1028B0001F910F91089580E070E060E041E050E0EA
:1028C000282F30E0F901EE0FFF1FE054FD4F9081FB
:1028D000911106C08AEE91E10E94421480E00895B1
:1028E0009181992349F0FA0102C0EE0FFF1F2A954A
:1028F000E2F79F016E2B732B8F5FE2CFCF9380E0C7
:10290000C0E041E050E0282F30E0F901EE0FFF1F5A
:10291000E054FD4F908191110FC081E60E949D20EF
:102920008823B1F04C2F62E084E70E94A3170E9435
:102930005B1480E0CF9108959181992339F0BA0119
:1029400002C0660F771F2A95E2F7C62B8F5FDBCF99
:102950001F9281E68F938DEF96E09F938F9384E093
:102960008F9387E493E09F938F930E94CC0C8DB755
:102970009EB707960FB6F8949EBF0FBE8DBF8FEF20
:10298000D9CF80E0E82FF0E0EE0FFF1FE054FD4FBD
:102990009081911102C00C947E1411828F5FF2CF4E
:1029A000CF93FC0180819181CFEFC80F9C01215012
:1029B00031092830310518F0CF910C94FA090597A8
:1029C00090F481E60E949D20882379F1EC2FF0E0BD
:1029D000EE0FFF1FE054FD4F81E081830E947E14C3
:1029E000CF910C94E90982E60E949D208111EECFDF
:1029F00081E60E949D20811135C01F9282E68F934F
:102A000089EC96E09F938F9384E08F9387E493E023
:102A10009F938F930E94CC0CEDB7FEB737960FB6FD
:102A2000F894FEBF0FBEEDBFC7CF81E60E949D2088
:102A30008111D9CF1F9281E68F9383EE96E09F9309
:102A40008F9384E08F9387E493E09F938F930E940A
:102A5000CC0C8DB79EB707960FB6F8949EBF0FBEED
:102A60008DBFAACFCF910895FC0180819181EFEFB6
:102A7000E80F0197089710F00C94FA09F0E0EE0FB8
:102A8000FF1FE054FD4F8181882389F08CE693E09D
:102A90009F938F9383E793E09F938F931F920E945E
:102AA0006B0B0F900F900F900F900F9008958CE686
:102AB00093E09F938F938EE693E0EECFFC018081AD
:102AC00091819C01215031092830310510F00C947E
:102AD000FA098150E82FF0E0EE0FFF1FE054FD4FA0
:102AE00011820E947E140C94E909FC0140815181FD
:102AF00080E061E070E0A1E04F3F510581F078F0A7
:102B00000C94FA099B01082E02C0220F331F0A946D
:102B1000E2F724233523232B79F0A1838F5FE82F5D
:102B2000F0E0EE0FFF1FE054FD4F90819111EACFCE
:102B30000E947E140C94E9091182F0CF90E080E0AD
:102B400061E070E0292F30E0F901EE0FFF1FE05443
:102B5000FD4F4081411116C02CE633E03F932F9387
:102B60001F928F9381E394E09F938F931F920E9413
:102B70006B0B8DB79EB707960FB6F8949EBF0FBE2E
:102B80008DBF08954181442339F0AB0102C0440F49
:102B9000551F2A95E2F7840F9F5FD4CF2F923F9263
:102BA0004F925F926F927F928F929F92AF92BF925D
:102BB000CF92DF92EF92FF920F931F93CF93DF9309
:102BC000562E482E440C01E010E084EA382EC1E273
:102BD000D3E097E1892E99E0992E28EFE22E28E0A4
:102BE000F22E3BEBC32E38E0D32E242C689420F831
:102BF00044EDA42E49E0B42E3092BC008091BC007C
:102C000087FFFCCF8091B900887F80936005803179
:102C100031F0883309F427C1883009F032C125EE3C
:102C200039E03F932F9381E08F93DF93CF930E94FE
:102C3000CC0C4092BB0084E88093BC000F900F90B6
:102C40000F900F900F908091BC0087FFFCCF809178
:102C5000B900887F809360051F928F9323EA39E043
:102C60003F932F93662463946F92DF93CF930E94D8
:102C7000CC0C809160052DB73EB7295F3F4F0FB652
:102C8000F8943EBF0FBE2DBF803209F40DC18833CA
:102C900009F423C1883109F028C183E899E09F93A2
:102CA0008F936F92DF93CF930E94CC0C5092BB0016
:102CB00084E88093BC000F900F900F900F900F90BE
:102CC0008091BC0087FFFCCF8091B900887F809302
:102CD00060051F928F939F928F92662463946F92E8
:102CE000DF93CF930E94CC0C809160052DB73EB747
:102CF000295F3F4F0FB6F8943EBF0FBE2DBF803304
:102D000009F419C1883309F477CF883209F0FCC07F
:102D1000FF92EF926F92DF93CF930E94CC0C309290
:102D2000BC000F900F900F900F900F908091BC00FF
:102D300087FFFCCF8091B900887F80936005803148
:102D400031F0883309F458CF883009F0DDC0DF92C4
:102D5000CF9281E08F93DF93CF930E94CC0C20928F
:102D6000BB0084E88093BC000F900F900F900F90F1
:102D70000F908091BC0087FFFCCF8091B900887FC5
:102D8000809360051F928F9328EA38E03F932F933A
:102D900081E08F93DF93CF930E94CC0C80916005EC
:102DA0002DB73EB7295F3F4F0FB6F8943EBF0FBE19
:102DB0002DBF883309F420CF803409F0A5C084E802
:102DC0008093BC008091BC0087FFFCCF8091B9004C
:102DD000887F809360051F928F9385E998E09F9389
:102DE0008F9311E01F93C1E2D3E0DF93CF930E9452
:102DF000CC0C809160052DB73EB7295F3F4F0FB6D1
:102E0000F8943EBF0FBE2DBF803589F0883509F09C
:102E10007BC084E798E09F938F931F93DF93CF93BA
:102E20000E94CC0C0F900F900F900F900F9070900D
:102E3000BB001F925F921F927F928BE598E09F9359
:102E40008F9381E08F9381E293E09F938F930E9411
:102E5000CC0C2DB73EB7275F3F4F0FB6F8943EBF5F
:102E60000FBE2DBF51C0BF92AF9281E08F93DF9311
:102E7000CF930E94CC0C0F900F900F900F900F905B
:102E8000BBCE86EB99E09F938F9384E08F9381E292
:102E900093E09F938F930E94CC0C0F900F900F9014
:102EA0000F900F908FEF34C01F930F9323E539E0FD
:102EB0003F932F936F92DF93CF930E94CC0C0F5FC1
:102EC0001F4F8DB79EB707960FB6F8949EBF0FBEE3
:102ED0008DBF0B30110531F38FCE22E439E03F93E3
:102EE0002F936F92DF93CF93C4CF8AE299E09F93A1
:102EF0008F9384E08F93DF93CF930E94CC0C0F903D
:102F00000F900F900F900F9084E98093BC00872D55
:102F1000DF91CF911F910F91FF90EF90DF90CF90B5
:102F2000BF90AF909F908F907F906F905F904F90E9
:102F30003F902F90089588ED98E09F938F936F9224
:102F4000DF93CF93DACF2F923F924F925F926F929F
:102F50007F928F929F92AF92BF92CF92DF92EF9229
:102F6000FF920F931F93CF93DF930F920F92CDB7E2
:102F7000DEB7E62E4983880F8A8301E010E0FF2444
:102F8000F39485EB282E87E0382E94EA492E97E0BB
:102F9000592E25EE622E27E0722E39E7832E37E078
:102FA000932EC62ED12C46E3A42E48E0B42E24EA5C
:102FB0002093BC008091BC0087FFFCCF8091B900BA
:102FC000887F80936005803131F0883309F4EEC04A
:102FD000883009F0FAC087E498E09F938F93FF92BE
:102FE00081E293E09F938F930E94CC0C3A813093BF
:102FF000BB0084E88093BC000F900F900F900F905F
:103000000F908091BC0087FFFCCF8091B900887F32
:10301000809360051F928F9385E098E09F938F9334
:10302000FF9281E293E09F938F930E94CC0C80915A
:1030300060050FB6F894DEBF0FBECDBF803209F435
:10304000D7C0883309F4EAC0883109F0EFC07F9215
:103050006F92FF9281E293E09F938F930E94CC0C3A
:10306000E092BB0084E88093BC000F900F900F901B
:103070000F900F908091BC0087FFFCCF8091B9002A
:10308000887F809360051F928F939F928F92FF920B
:1030900021E233E03F932F930E94CC0C8091600596
:1030A0000FB6F894DEBF0FBECDBF803309F465C004
:1030B000883309F47CCF883209F0C9C01F92EF929F
:1030C00080E697E09F938F93FF9281E293E09F9336
:1030D0008F930E94CC0C39813093BB0084E880939D
:1030E000BC000FB6F894DEBF0FBECDBF8091BC0010
:1030F00087FFFCCF8091B900887F809360051F9285
:103100008F932DE437E03F932F93FF9221E233E03A
:103110003F932F930E94CC0C809160050FB6F894DA
:10312000DEBF0FBECDBF803341F1883309F43FCFFE
:10313000883209F08CC01F921F9283E397E09F931F
:103140008F93FF9281E293E09F938F930E94CC0C28
:10315000DF92CF921F9239813F9387E197E09F934F
:103160008F93FF9281E293E09F938F930E94CC0C08
:103170000FB6F894DEBF0FBECDBF80E094E9909308
:10318000BC000F900F90DF91CF911F910F91FF9096
:10319000EF90DF90CF90BF90AF909F908F907F90F7
:1031A0006F905F904F903F902F900895BF92AF9295
:1031B000FF9281E293E09F938F930E94CC0C0F903B
:1031C0000F900F900F900F90F2CE88E198E09F93B0
:1031D0008F9384E08F9381E293E09F938F930E947B
:1031E000CC0C0F900F900F900F900F908FEFC9CFD6
:1031F0001F930F933F922F92FF9281E293E09F9350
:103200008F930E94CC0C0F5F1F4F0FB6F894DEBF58
:103210000FBECDBF0B30110549F3C9CE5F924F925F
:10322000FF9221E233E03F932F93C7CF8CE897E0E2
:103230009F938F9384E08F9321E233E03F932F930A
:103240000E94CC0C0F900F900F900F900F908FEF6B
:1032500095CF2F923F924F925F926F927F928F9273
:103260009F92AF92BF92CF92DF92EF92FF920F9315
:103270001F93CF93DF93880F01E010E094EA392E7B
:1032800027E2822E2CE0922E55245394C2E0D3E004
:10329000482E689440F834E8232E45EEE42E4BE0A7
:1032A000F42E55E9C52E5BE0D52E64E8662E6BE062
:1032B000762E76E1A72E7CE0B72E3092BC0080916E
:1032C000BC0087FFFCCF8091B900887F80936005A8
:1032D000803129F08833F1F1883009F048C09F929D
:1032E0008F925F92DF93CF930E94CC0C4092BB00F1
:1032F0002092BC000F900F900F900F900F90809134
:10330000BC0087FFFCCF8091B900887F8093600567
:103310001F928F93FF92EF925F92DF93CF930E9461
:10332000CC0C809160052DB73EB7295F3F4F0FB69B
:10333000F8943EBF0FBE2DBF803461F1883409F48C
:10334000A0C0883309F0B5C07F926F925F92DF937F
:10335000CF9305C0BF92AF925F92DF93CF930E944D
:10336000CC0C0F900F900F900F900F90A6CF88EF7E
:103370009BE09F938F9384E08F9382E093E09F93F1
:103380008F930E94CC0C0F900F900F900F900F9086
:103390008FEF63C085EC9BE09F938F935F92DF93E9
:1033A000CF930E94CC0C84E88093BC000F900F90C8
:1033B0000F900F900F908091BC0087FFFCCF809101
:1033C000B900887F809360051F928F9389E59BE009
:1033D0009F938F9311E01F93C2E0D3E0DF93CF93CD
:1033E0000E94CC0C809160052DB73EB7295F3F4FFE
:1033F0000FB6F8943EBF0FBE2DBF803589F08835DB
:1034000009F066C088E39BE09F938F931F93DF933F
:10341000CF930E94CC0C0F900F900F900F900F90B5
:10342000C091BB001F92CF938AE19BE09F938F9343
:1034300081E08F9382E093E09F938F930E94CC0C66
:103440002DB73EB7295F3F4F0FB6F8943EBF0FBE72
:103450002DBF84E98093BC008C2F9FEFDF91CF912B
:103460001F910F91FF90EF90DF90CF90BF90AF90A2
:103470009F908F907F906F905F904F903F902F9094
:1034800008951F930F93DF92CF925F92DF93CF93B4
:103490000E94CC0C0F5F1F4F8DB79EB707960FB6DB
:1034A000F8949EBF0FBE8DBF0B30110509F470CF8D
:1034B00004CF8CE69BE09F938F9384E08F93DF9300
:1034C000CF930E94CC0C0F900F900F900F900F9005
:1034D000CFEFBFCF2F923F924F925F926F927F922A
:1034E0008F929F92AF92BF92CF92DF92EF92FF9214
:1034F0000F931F93CF93DF930F920F92CDB7DEB749
:103500008983E62E880F8A8301E010E086E0282E6A
:103510008BE0382EFF24F39494EC492E9AE0592E38
:103520002EE6622E2AE0722E3DE5832E3AE0932E9F
:1035300042E3C42E4AE0D42E55EFA52E5AE0B52E14
:1035400024EA2093BC008091BC0087FFFCCF8091CF
:10355000B900887F80936005803131F0883309F4A9
:10356000ABC0883009F0B7C03F922F92FF9282E043
:1035700093E09F938F930E94CC0C3A813093BB00D1
:1035800084E88093BC000F900F900F900F900F90E5
:103590008091BC0087FFFCCF8091B900887F809329
:1035A00060051F928F935F924F92FF9222E033E06B
:1035B0003F932F930E94CC0C809160050FB6F89436
:1035C000DEBF0FBECDBF803209F498C0883309F446
:1035D000AEC0883109F0B3C084EA9AE09F938F931C
:1035E000FF9282E093E09F938F930E94CC0CE09235
:1035F000BB0034E83093BC000F900F900F900F90F9
:103600000F908091BC0087FFFCCF8091B900887F2C
:10361000809360051F928F93DF92CF92FF9282E09A
:1036200093E09F938F930E94CC0C809160050FB61E
:10363000F894DEBF0FBECDBF803329F1883309F483
:103640007FCF883209F08CC01F921F9288E19AE0E8
:103650009F938F93FF9282E093E09F938F930E94BA
:10366000CC0C1F92EF9289EF99E09F938F93FF927A
:1036700082E093E09F938F930E94CC0C0FB6F89456
:10368000DEBF0FBECDBF80E094E99093BC000F90E9
:103690000F90DF91CF911F910F91FF90EF90DF90EE
:1036A000CF90BF90AF909F908F907F906F905F90E2
:1036B0004F903F902F900895BF92AF92FF9222E0DB
:1036C00033E03F932F930E94CC0C0F900F900F90FC
:1036D0000F900F9035CF87ED9AE09F938F9384E002
:1036E0008F9382E093E09F938F930E94CC0C0F9076
:1036F0000F900F900F900F908FEFC9CF1F930F93E4
:103700001F9289818F937F926F92FF9222E033E024
:103710003F932F930E94CC0C0F5F1F4F0FB6F8946E
:10372000DEBF0FBECDBF0B30110531F309CF9F9225
:103730008F92FF9282E093E09F938F93C4CF85E4B2
:103740009AE09F938F9384E08F9382E093E09F931E
:103750008F930E94CC0C0F900F900F900F900F90B2
:103760008FEF92CF60E00E946A1A84E70E942919C5
:1037700099279F938F938BE39CE09F938F9381E096
:103780008F9382E093E09F938F930E94CC0C8DB730
:103790009EB707960FB6F8949EBF0FBE8DBF80E010
:1037A000089521E030E0A90102C0440F551F6A9539
:1037B000E2F7BA010C946A1A8EE69CE09F938F930D
:1037C00081E08F938BEE92E09F938F930E94CC0CBD
:1037D0000F900F900F900F900F9080E00895CF936F
:1037E000DF93EC0180E0FE0119958AEA0E949C10AB
:1037F00080E00E949C1080E00E949C1081E0FE010D
:10380000199580E0DF91CF910895AF92BF92CF924A
:10381000DF92EF92FF920F931F93CF93DF9300D02D
:103820000F92CDB7DEB76C017B0119821A821B8221
:103830001C8280E0F601199503E010E00330C1F529
:1038400080EF0E949C101C8201501109B8F7A980DA
:10385000BA800B811C811F930F93BF92AF928AE5B0
:103860009CE09F938F9382E08F938BEE92E09F93E7
:103870008F930E94CC0CF701A082B1820283138344
:1038800081E0F60119950FB6F894DEBF0FBECDBFEB
:1038900080E00F900F900F900F90DF91CF911F91CC
:1038A0000F91FF90EF90DF90CF90BF90AF90089571
:1038B00080E00E949C10E1E0F0E0EC0FFD1FE00FC3
:1038C000F11F8083C1CF2F923F924F925F926F92F0
:1038D0007F928F929F92AF92BF92CF92DF92EF92A0
:1038E000FF920F931F93CF93DF9300D000D00F92DE
:1038F000CDB7DEB76C837D83880F8B8369837A8332
:10390000EE24E394F12C0BE013E02DEA422E2EE09E
:10391000522E3EEE632E3EE0732E42E8A42E4EE081
:10392000B42E56E6852E5EE0952E84EA8093BC0088
:103930008091BC0087FFFCCF8091B900887F809385
:103940006005803131F0883309F495C0883009F082
:10395000A2C080E59FE09F938F9381E08F931F9398
:103960000F930E94CC0C3B813093BB0084E8809382
:10397000BC000F900F900F900F900F908091BC00A3
:1039800087FFFCCF8091B900887F809360051F92EC
:103990008F938EE09FE09F938F93DD24D394DF92EB
:1039A0001F930F930E94CC0C809160050FB6F89482
:1039B000DEBF0FBECDBF803209F481C0883309F469
:1039C00096C0883109F097C07F926F92DF921F9363
:1039D0000F930E94CC0C0F900F900F900F900F90B0
:1039E000CC24C394D12C22242394CE82DF82E1E024
:1039F000F0E0EC0FFD1FEC0DFD1D80818093BB00FE
:103A000024E82093BC008091BC0087FFFCCF80910C
:103A1000B900887F809360051F928F93BF92AF9209
:103A20002F921F930F930E94CC0C809160050FB6CC
:103A3000F894DEBF0FBECDBF803309F488C0883351
:103A400009F473CF883209F065C03F813F938E81BE
:103A50008F939F928F922F921F930F930E94CC0C63
:103A60000FB6F894DEBF0FBECDBFCD2809F475C0E8
:103A7000D12CC12CBACF8FE39FE09F938F9381E02D
:103A80008F931F930F930E94CC0C0F900F900F9069
:103A90000F900F904ACF81E29FE09F938F9384E035
:103AA0008F938BE093E09F938F930E94CC0C0F90A9
:103AB0000F900F900F900F9033243A942EC0FF92E6
:103AC000EF928EEB9EE09F938F93DF921F930F9365
:103AD0000E94CC0C3FEFE31AF30A0FB6F894DEBF56
:103AE0000FBECDBF9BE0E916F10431F31ECF5F920C
:103AF0004F92DF92C6CF85E99EE09F938F9384E03B
:103B00008F931F930F930E94CC0C0F900F900F90E8
:103B10000F900F9084E98093BC00832D27960FB6F9
:103B2000F894DEBF0FBECDBFDF91CF911F910F91F3
:103B3000FF90EF90DF90CF90BF90AF909F908F90CD
:103B40007F906F905F904F903F902F90089586E404
:103B50009EE09F938F932F92D4CF84EA8093BC00F2
:103B60008091BC0087FFFCCF8091B900887F809353
:103B70006005803129F0883309F4D7CE883051F6BA
:103B800089E29EE09F938F9381E08F931F930F9321
:103B90000E94CC0C8B8181608093BB0084E8809371
:103BA000BC000F900F900F900F900F908091BC0071
:103BB00087FFFCCF8091B900887F809360051F92BA
:103BC0008F9386E19EE09F938F9381E08F931F9365
:103BD0000F930E94CC0C809160050FB6F894DEBF65
:103BE0000FBECDBF883309F4A0CE803409F092CF48
:103BF00084E88093BC008091BC0087FFFCCF80915B
:103C0000B900887F809360051F928F9383E09EE0C8
:103C10009F938F93FF24F394FF920BE013E01F9385
:103C20000F930E94CC0C809160050FB6F894DEBF14
:103C30000FBECDBF803589F0883509F06BCF82EE9D
:103C40009DE09F938F93FF921F930F930E94CC0C44
:103C50000F900F900F900F900F903090BB003D8110
:103C60003F938C818F931F923F9289EC9DE09F93AD
:103C70008F9381E08F938BE093E09F938F930E94CB
:103C8000CC0C0FB6F894DEBF0FBECDBF43CF2F9242
:103C90003F924F925F926F927F928F929F92AF92DC
:103CA000BF92CF92DF92EF92FF920F931F93CF9329
:103CB000DF9300D000D00F920F92CDB7DEB76C83A8
:103CC0007D834B83880F8E8369837A83EE24E3940C
:103CD000F12C0BE013E023E2222E2DE0322E32E114
:103CE000432E3DE0532E43E5642E4DE0742E57EEF7
:103CF000A52E5CE0B52E6BEC862E6CE0962E84EA49
:103D00008093BC008091BC0087FFFCCF8091B900FC
:103D1000887F80936005803131F0883309F495C045
:103D2000883009F0A2C085EB9DE09F938F9381E0DE
:103D30008F931F930F930E94CC0C3E813093BB0056
:103D400084E88093BC000F900F900F900F900F901D
:103D50008091BC0087FFFCCF8091B900887F809361
:103D600060051F928F9383E79DE09F938F93DD24DF
:103D7000D394DF921F930F930E94CC0C8091600527
:103D80000FB6F894DEBF0FBECDBF803209F480C0FD
:103D9000883309F493C0883109F094C07F926F9200
:103DA000DF921F930F930E94CC0C0F900F900F90F7
:103DB0000F900F90CC24C394D12CCF82D886E1E011
:103DC000F0E0EC0FFD1FEC0DFD1D80818093BB002A
:103DD00024E82093BC008091BC0087FFFCCF809139
:103DE000B900887F809360051F928F93BF92AF9236
:103DF00031E03F931F930F930E94CC0C809160059C
:103E00000FB6F894DEBF0FBECDBF803309F4B5C046
:103E1000883309F474CF883209F063C038853F9342
:103E20008F818F939F928F9291E09F931F930F9317
:103E30000E94CC0C0FB6F894DEBF0FBECDBFCD28CC
:103E400009F451C0D12CC12CB8CF84EA9DE09F93D6
:103E50008F9381E08F931F930F930E94CC0C0F9050
:103E60000F900F900F900F904ACF86E89DE09F93A0
:103E70008F9384E08F938BE093E09F938F930E94C6
:103E8000CC0C0F900F900F900F900F908FEF79C088
:103E9000FF92EF923F922F92DF921F930F930E9417
:103EA000CC0C3FEFE31AF30A0FB6F894DEBF0FBE57
:103EB000CDBF9BE0E916F10449F321CF5F924F9209
:103EC000DF92C9CF8AEF9CE09F938F9384E08F931A
:103ED0001F930F930E94CC0C0F900F900F900F9098
:103EE0000F908FEF4BC03B813093BB0084E88093F1
:103EF000BC008091BC0087FFFCCF8091B900887F17
:103F0000809360051F928F9388EB9CE09F938F9323
:103F1000DD24D394DF921F930F930E94CC0C8091E9
:103F200060050FB6F894DEBF0FBECDBF803329F118
:103F3000883309F4E4CE8832A1F61F921F928EE9ED
:103F40009CE09F938F93DF921F930F930E94CC0C62
:103F50003D813F938C818F931F929B819F9382E839
:103F60009CE09F938F93DF921F930F930E94CC0C42
:103F70000FB6F894DEBF0FBECDBF80E094E99093FA
:103F8000BC0028960FB6F894DEBF0FBECDBFDF9100
:103F9000CF911F910F91FF90EF90DF90CF90BF9046
:103FA000AF909F908F907F906F905F904F903F90D9
:103FB0002F900895E0E6F0E080818860808388E1BA
:103FC0009FE00FB6F894A895809360000FBE909381
:103FD000600080E0089540E063E084E70E94A3175A
:103FE00040E863E084E70C94A31761E070E080E7A9
:103FF00090E00E946A1A91E0811101C090E0892F3F
:1040000081950895813611F40E94EB1F80E0089598
:10401000CF93DF93EB0161E070E080E790E00E94D6
:104020006A1A4D2F61E070E080E50E94471E4C2F18
:1040300070E060E080E50E94471E80E0DF91CF9154
:104040000895EF92FF921F93CF93DF93182F0E9452
:10405000F51FE12EF12C811131C061E070E080E5A7
:104060000E94631CC82F70E060E080E50E94631C22
:10407000D82F682F7C2FC7010E945F0F1F921F93BC
:10408000CF93DF9384E69FE09F938F9382E08F939B
:1040900087E493E09F938F930E94CC0C8DB79EB7DB
:1040A00009960FB6F8949EBF0FBE8DBF8D2F9C2F23
:1040B000DF91CF911F91FF90EF90089570E060E045
:1040C000C7010E945F0F1F921F9381E89FE09F939B
:1040D0008F9384E08F9387E493E09F938F930E9464
:1040E000CC0C8DB79EB707960FB6F8949EBF0FBE47
:1040F0008DBFD0E0C0E0DACFFC016081718182E643
:104100000E9408200C94E90982E60E9421202CE6F6
:1041100033E03F932F939F938F938CE294E09F9390
:104120008F931F920E946B0B8DB79EB707960FB6A9
:10413000F8949EBF0FBE8DBF089590E00E946C0F53
:1041400021E0892B09F420E0822F089581E60E9466
:104150009D208823E9F040EF66E084E70E94A317E2
:1041600040E066E084E70E94A31740EF62E084E746
:104170000E94A3174FE767E084E70E94A31740E877
:1041800063E084E70E94A3170E94EB1F80E008957C
:104190001F9281E68F938BE99FE09F938F9384E03A
:1041A0008F9387E493E09F938F930E94CC0C8DB7FD
:1041B0009EB707960FB6F8949EBF0FBE8DBF8FEFC8
:1041C0000895CF93DF93EC0181E60E949D20811139
:1041D00004C0DF91CF910C94FA096881798181E65E
:1041E0000E940820DF91CF910C94E90981E60E949A
:1041F0009D20811102C00C94FA0981E60E942120C1
:104200002CE633E03F932F939F938F938CE294E0BF
:104210009F938F931F920E946B0B8DB79EB707964B
:104220000FB6F8949EBF0FBE8DBF0895CF93DF9356
:10423000EB018230C1F030F4813059F080E0DF9141
:10424000CF910895833091F08430C1F70E942512F8
:1042500002C00E940A12AE0163E070E080E092E1C9
:104260000E945C12EBCF0E941312F5CF0E941C1229
:10427000F2CF823081F018F4813031F0089583302C
:1042800069F0843071F008950E942E1280E092E16E
:104290000E94EF1B08950E943712F8CF0E9440122F
:1042A000F5CF0E94491280E092E10E94EF1B089531
:1042B000CF93DF93EB018230A9F028F4813051F0E5
:1042C000DF91CF910895833081F08430C9F70E9447
:1042D000491202C00E942E12BE0180E092E10E94AB
:1042E000051CEECF0E943712F7CF0E944012F4CF88
:1042F00078940E94A40E0E94DA1F81E00E94DC0ED6
:104300000E94D2100E94AF0B0E94F40B0E94CE11AB
:104310000E9462100E941E0C82ED92E00E94790DB4
:1043200089ED92E00E94790D83EE92E00E94790D72
:104330008BEE92E00E94790D8FEE92E00E94790D53
:1043400086EF92E00E94790D8EEF92E00E94790D47
:1043500082E093E00E94790D8BE093E00E94790D5A
:1043600086E193E00E94790D8DE193E00E94790D42
:1043700081E293E00E94790D89E293E00E94790D39
:104380008DE293E00E94790D85E393E00E94790D20
:104390008DE393E00E94790D82E493E00E94790D11
:1043A00087E493E00E94790D0E94CC100E94AA0E2F
:1043B0000E94DD1081E60E94A6200E94C11483EEB7
:1043C00091E10E94DC1B80910002909101020E9409
:1043D000D508E1EBF4E084E0DF011D928A95E9F76E
:1043E0008DE493E09F938F9388EF91E09F938F9359
:1043F00082E08F9382E493E09F938F930E94CC0C92
:1044000080E00E94DC0E8DB79EB707960FB6F89439
:104410009EBF0FBE8DBFC4EED1E084E0F82E02E453
:1044200013E0E091BC02F091BD028381833088F0FB
:104430001F928F93DF93CF93FF921F930F930E944E
:10444000CC0C8DB79EB707960FB6F8949EBF0FBEE3
:104450008DBF64E072E080910002909101020E94A1
:104460000B0A0E947C11A895DCCFFC0188279927B4
:10447000E89421912032E9F3293010F02E30C8F36E
:104480002B3241F02D3239F4689404C00E94762218
:10449000820F911D219120532A30C0F31EF4909574
:1044A00081959F4F08959111089581548A5108F480
:1044B000805E855A0895FC018191861721F088233A
:1044C000D9F7992708953197CF010895FB01DC01B1
:1044D0008D91019080190110D9F3990B0895FB017A
:1044E000DC0101900D920020E1F708957AE0979F9A
:1044F000902D879F802D910D112408950F931F9368
:10450000CF93DF93CDB7DEB72E970FB6F894DEBF0B
:104510000FBECDBF0E891F89888D998D26E02C8313
:104520001A83098397FF02C080E090E801979E8379
:104530008D83AE01445E5F4F6A8D7B8DCE01019607
:104540000E942D234D815E8157FD0AC02F81388541
:10455000421753070CF49A01020F131FF80110823F
:104560002E960FB6F894DEBF0FBECDBFDF91CF9170
:104570001F910F9108950F931F93CF93DF93CDB7A2
:10458000DEB72E970FB6F894DEBF0FBECDBF8C01FD
:10459000FA0186E08C831A83098377FF02C060E00A
:1045A00070E8615071097E836D83A901BF01CE015E
:1045B00001960E942D234D815E8157FD0AC02F81F7
:1045C0003885421753070CF49A01020F131FF801A4
:1045D00010822E960FB6F894DEBF0FBECDBFDF91CE
:1045E000CF911F910F9108950F931F93CF93DF9356
:1045F000CDB7DEB72E970FB6F894DEBF0FBECDBF96
:104600008C01FA018EE08C831A83098377FF02C044
:1046100060E070E8615071097E836D83A901BF017C
:10462000CE0101960E942D234D815E8157FD0AC067
:104630002F813885421753070CF49A01020F131F7C
:10464000F80110822E960FB6F894DEBF0FBECDBFD4
:10465000DF91CF911F910F9108952F923F924F922A
:104660005F926F927F928F929F92AF92BF92CF9202
:10467000DF92EF92FF920F931F93CF93DF9300D0BF
:1046800000D000D00F920F92CDB7DEB77C013B0176
:104690008A01FC0117821682838181FFCEC19AE0D4
:1046A000292ECE0101965C01F7019381F30193FD60
:1046B000859193FF81913F01882309F446C185329A
:1046C00039F493FD859193FF81913F01853229F45F
:1046D000B70190E00E943625E7CF912C412C512C58
:1046E000FFE1F51538F08B3209F188F4803201F1E1
:1046F000833221F157FC3AC020ED280F2A3040F5D3
:1047000056FE1FC0929C200D1124922E06C08D32A1
:1047100091F0803379F7689450F8F30193FD859117
:1047200093FF81913F018111DBCF20C0689451F844
:10473000689452F8F2CF689453F8EFCF689454F825
:10474000ECCF429C200D1124422E689455F8E5CF01
:104750008E3229F456FCF9C0689456F8DECF8C36B8
:1047600019F4689457F8D9CF8836B9F2982F9F7DFD
:1047700095549330C0F08336A1F18337C1F183356E
:1047800009F05BC0F801C190D1908F01692D70E0F4
:1047900056FC02C06FEF7FEFC6010E9420254C013E
:1047A000689457F80AC00C5F1F4F2FE329838824B1
:1047B0008394912C6501E89457F853FC04C0481485
:1047C000190409F018F5342C8114910431F53320C3
:1047D00009F46ACFB70180E290E00E9436253A944E
:1047E000F6CFF801808189830E5F1F4FE0CFF8017B
:1047F000C190D1908F01692D70E056FC02C06FEF1F
:104800007FEFC6010E942B254C01D5CFB70180E276
:1048100090E00E9436254A94D2CFF60157FC85914C
:1048200057FE81916F01B70190E00E94362531104B
:104830003A94F1E08F1A9108C7CF843619F089367F
:1048400009F074C0F80157FE6AC0619171918191BD
:1048500091918F01252D2F76D22E97FF09C090952B
:104860008095709561957F4F8F4F9F4F6894D7F8D3
:104870002AE030E0A5010E946625C82ECA188C2CBB
:104880005D2CD6FE0CC0E89450F8C91440F4D4FE58
:1048900005C0D2FC03C0FD2DFE7E5F2E892C54FE88
:1048A000A4C0FE01EC0DF11D8081803309F096C09B
:1048B000252D297E522E852D8870382E53FCA4C0BC
:1048C00050FE9EC09C2C841418F44C0C942C981808
:1048D00054FEA0C0B70180E390E00E94362552FE4E
:1048E00009C088E790E051FE02C088E590E0B7017A
:1048F0000E943625C91408F499C0CA94D12C9FEFA0
:10490000C91AD90ACA0CDB1CF60182916F01B701E2
:1049100090E00E943625AC14BD04B1F758CF6191E8
:104920007191072E000C880B990B93CFD52CE8942E
:10493000D4F82AE030E08537E1F1952D997FD92E22
:104940008F36A9F1F0F4883551F1F701868197810E
:104950002B960FB6F894DEBF0FBECDBFDF91CF917F
:104960001F910F91FF90EF90DF90CF90BF90AF908D
:104970009F908F907F906F905F904F903F902F907F
:104980000895803749F0883701F7D4FE02C0689453
:10499000D2F820E130E00DC06894D4F8F6CF54FE90
:1049A00003C0E92FE660DE2E20E132E002C028E0FD
:1049B00030E0F801D7FE0DC0619171918191919124
:1049C0008F01A5010E946625C82ECA18E894D7F861
:1049D00056CF6191719190E080E0F2CF52FC02C01D
:1049E000839469CF8394839466CF852D867809F468
:1049F00062CFF6CFB70180E290E00E943625839423
:104A00008414C0F3312C64CF342C3818841408F487
:104A10005FCFF8CF852D867809F46CCF8BE251FEFD
:104A200080E257FC8DE2B70190E062CFB70180E3EE
:104A300090E00E9436259A945DCF8FEF9FEF88CF4C
:104A4000FC010590615070400110D8F78095909559
:104A50008E0F9F1F0895FC0161507040019001105E
:104A6000D8F7809590958E0F9F1F08950F931F93F1
:104A7000CF93DF93182F092FEB018B8181FD09C0A4
:104A80001FEF0FEF812F902FDF91CF911F910F918B
:104A9000089582FF14C02E813F818C819D8128174B
:104AA00039073CF4E881F981CF0101969983888325
:104AB00010838E819F8101969F838E83E3CFE8854B
:104AC000F985812F1995892BA1F3DACFFA01AA274D
:104AD000283051F1203181F1E8946F936E7F6E5F41
:104AE0007F4F8F4F9F4FAF4FB1E03ED0B4E03CD0EF
:104AF000670F781F891F9A1FA11D680F791F8A1FD2
:104B0000911DA11D6A0F711D811D911DA11D20D038
:104B100009F468943F912AE0269F11243019305DF2
:104B20003193DEF6CF010895462F4770405D4193E3
:104B3000B3E00FD0C9F7F6CF462F4F70405D4A3330
:104B400018F0495D31FD4052419302D0A9F7EACFF8
:104B5000B4E0A6959795879577956795BA95C9F727
:104B600000976105710508959B01AC010A2E06941A
:104B70005795479537952795BA95C9F7620F731FD3
:0C4B8000841F951FA01D0895F894FFCF1E
:104B8C008304B9047703530300B90E7D0353030068
:104B9C00E80E82035E0301200D89035E0304540DAD
:104BAC009003530300020C98035E030512109F033D
:104BBC005E0301D014A7035E03013415B0035E033A
:104BCC00015E15B8035E03037515C0035303009E05
:104BDC0015C9035E03015A10D003530300440FD8C8
:104BEC0003530300F30EE1035E0305E120E80353D6
:104BFC000300F6206D036D03000000D20200F602E4
:104C0C0001EF0202FE0203D902040A040514040691
:104C1C002103071603081D0309EB020AE3020B022A
:104C2C00030C29030D2D030E3D030F420310350316
:104C3C00110B03124703136D03005305580561054F
:104C4C000100020003000400050006000700080034
:104C5C0000006C6F67676572006D6574726F6E6FC4
:104C6C006D65006368616E6E656C006D70720072CC
:104C7C00786368617200636F6D6D616E640061646E
:104C8C0063007463613935347861006D6238357254
:104C9C00633235367600656570726F6D0063616CDA
:104CAC00007463613935333900737069006C746357
:104CBC0032363031006C746332363037006C6D37FD
:104CCC0035006D61696E00746F70617A00312E3041
:104CDC002E36006E6F6E650068657831360075692A
:104CEC006E7431360073696E743136000A003025EB
:104CFC0073002D312573002A69646E3F002A72738C
:104D0C0074006C6F676C6576006C6F67726567001A
:104D1C006C6F677265673F007365726E756D0063CB
:104D2C0068616E656E61006368616E656E613F00FF
:104D3C006368616E6F6666006368616E73657400AC
:104D4C006368616E7365743F00736C6F74696400A3
:104D5C00736C6F7469643F006F7073746174653F3A
:104D6C0000747A612E736E00747A612E736E3F003C
:104D7C005B525D005B445D005B495D005B575D0011
:104D8C005B455D0028257329200066756E63746988
:104D9C006F6E7300736F756E6400696E69740025B5
:104DAC00732573007374616E6462790025752573C5
:064DBC00002564257300D0
:00000001FF
