:100000000C940B0A0C942C0A0C942C0A0C942C0AB9
:100010000C942C0A0C942C0A0C942C0A0C942C0A88
:100020000C942C0A0C942C0A0C942C0A0C942C0A78
:100030000C942C0A0C942C0A0C942C0A0C942C0A68
:100040000C942C0A0C942C0A0C942C0A0C94DA14A0
:100050000C942C0A0C942C0A0C942C0A0C942C0A48
:100060000C942C0A0C942E0A0C942C0A0C942C0A36
:100070000C942C0A0C942C0A0C942C0A0C942C0A28
:100080000C942C0A0C942C0A0C942C0A0C942C0A18
:100090000C942C0A0C942C0A0C942C0A0C942C0A08
:1000A0000C942C0A0C942C0A0C942C0A0C942C0AF8
:1000B0000C942C0A0C942C0A0C942C0A0C942C0AE8
:1000C0000C942C0A0C942C0A0C942C0A0C942C0AD8
:1000D0000C942C0A0C942C0A0C942C0A0C942C0AC8
:1000E0000C942C0A0C948A260C94A5270C941029A5
:1000F0000C94EE270C948F270C9437270C949B2597
:100100000C94DB260C9455280C945B260C94F3126B
:100110000C943D120C947A280C9403140C946327CD
:100120000C943C0E0C9421270C9458280C949A267D
:100130000C943A260C940B270C94DC150C94742820
:100140000C9448120C94EB270C942E2A0C94EA126F
:100150000C94F9270C9479270C94E72D0C94F52630
:100160000C94F6270C949E190C94E8260C94A72660
:100170000C9446280C94D2150C9452280C94F32716
:100180000C94CF120C948E0F0C94C5280C94382824
:100190000C9443280C944D270C945A0F0C943D2931
:1001A0000C94CD190C9432190C94A8250C94E527C5
:1001B0000C9449280C94D8270C94E7190C94B42675
:1001C0000C94C1260C944C280C9427110C94141AEE
:1001D0000C94CE260C9419140C94E8275265636590
:1001E0006976656420636861726163746572206E0C
:1001F000756D6265722061626F7665206C696D69EC
:100200007400256320203C2D2D20636F7069656488
:1002100020746F2072656365697665206275666615
:1002200065722E2020526563656976656420636F70
:10023000756E7420697320256400506172736520A7
:1002400062756666657220636F6E7461696E732095
:100250002725732700436F6D6D616E642070726F88
:1002600063657373207370656564206572726F7265
:1002700021005265636569766564206120636F6D56
:100280006D616E64207465726D696E61746F720069
:100290004261642073797374656D20737461746551
:1002A000202564004669726D7761726520766572FB
:1002B00073696F6E206973202573004E6F2068612B
:1002C0006E646C657220737065636966696564202D
:1002D000666F7220257320617267756D656E742E6E
:1002E00000457865637574696E6720636F6D6D6135
:1002F0006E642077697468207369676E656420692D
:100300006E7420617267756D656E742E0045786538
:10031000637574696E6720636F6D6D616E642077BD
:1003200069746820756E7369676E656420696E74A0
:1003300020617267756D656E742E0054686520616A
:100340007267756D656E742076616C756520697372
:100350002025752E00457865637574696E67206386
:100360006F6D6D616E6420776974682068657820B0
:10037000617267756D656E742E004578656375747E
:10038000696E6720636F6D6D616E64207769746854
:10039000206E6F20617267756D656E742E00556EEC
:1003A0007265636F676E697A656420636F6D6D61F6
:1003B0006E643A20272573272E0049676E6F726995
:1003C0006E6720617267756D656E7420666F72204E
:1003D000636F6D6D616E6420272573272E00417257
:1003E00067756D656E7420746F20272573272069EB
:1003F000732077697468696E206C696D6974732EF7
:1004000000417267756D656E7420746F20272573C7
:1004100027206973206F7574206F662072616E6784
:10042000652E00436F6D6D616E6420272573272054
:100430007265636F676E697A65642E005468652023
:10044000636F6D6D616E64277320617267756D6592
:100450006E7420697320272573272E005468652049
:10046000636F6D6D616E6420636F6E7461696E732E
:1004700020612073706163652E005468652070618F
:1004800072736520627566666572206973206C6F91
:10049000636B65642E00417267756D656E742073C1
:1004A000697A652069732025640053797374656DDA
:1004B000202573206E6F7420666F756E64004E6F1A
:1004C00077206C6F6767696E672073797374656DE9
:1004D0002025730025750D0A004C6F676765722033
:1004E000656E61626C652072656769737465722000
:1004F00073657420746F2025752E004C6F67206C17
:100500006576656C202575206973206E6F74207286
:1005100065636F676E697A65642E004C6F67676903
:100520006E672073657420746F206C6576656C202F
:10053000256900456E74657220636C65616E206686
:10054000726F6D206261642073797374656D2073BE
:100550007461746520256400537461746520636858
:10056000616E676520434F4E54524F4C20746F208C
:10057000434C45414E005374617465206368616E5D
:100580006765205354414E44425920746F20434CB8
:1005900045414E00456E74657220636F6E74726FD4
:1005A0006C2066726F6D206261642073797374656C
:1005B0006D207374617465202564005374617465E3
:1005C000206368616E676520434C45414E20746F1F
:1005D00020434F4E54524F4C005374617465206356
:1005E00068616E6765205354414E44425920746FD0
:1005F00020434F4E54524F4C00456E746572207329
:1006000074616E6462792066726F6D20626164202D
:1006100073797374656D207374617465202564004B
:100620005374617465206368616E676520434C454F
:10063000414E20746F205354414E4442590053742C
:10064000617465206368616E676520434F4E545244
:100650004F4C20746F205354414E44425900537400
:10066000617465206368616E676520494E49542056
:10067000746F205354414E444259005665726E6F58
:100680006E2073657269616C206E756D6265722093
:10069000697320256900546F70617A204220736568
:1006A0007269616C206E756D6265722069732025B8
:1006B0006900546F70617A20412073657269616CC2
:1006C000206E756D6265722069732025690050691E
:1006D000636172726F2C426F7865722C534E257570
:1006E0002C2573004C6F6164696E6720736C6F74A6
:1006F0002049442025750057726974696E6720731C
:100700006C6F74204944202575004C6F6164696EDC
:10071000672073657269616C206E756D6265722009
:1007200025750057726974696E6720736572696117
:100730006C206E756D62657220257500526561646E
:100740002025692066726F6D206164647265737321
:100750002025690057726F746520256920746F2009
:100760006164647265737320256900526561642059
:10077000307825780057726F7465203078257800BE
:100780004661696C656420746F20736574206D61C7
:1007900073746572206D6F64650053504920636FF8
:1007A0006E74726F6C20726567697374657220690C
:1007B00073203078257800496E697469616C697AB4
:1007C000696E67206D6574726F6E6F6D650057722C
:1007D0006F746520307825780057726F746520300B
:1007E00078257800536C6176652041434B65642021
:1007F0006461746120627974652025752E005457F8
:10080000492073746174757320697320307825787A
:1008100000536C6176652041434B656420696E73BB
:100820007472756374696F6E203078257800545740
:10083000492073746174757320697320307825784A
:1008400000436F756C64206E6F742073656C656314
:1008500074206465766963650041726269747261CF
:1008600074696F6E206C6F737400534C412B57206A
:100870007472616E736D69747465642C204E4143AB
:100880004B20726563656976656420616674657284
:1008900020257520747269657300534C412B5720D5
:1008A0007472616E736D69747465642C2041434B7E
:1008B00020726563656976656400545749207374D6
:1008C00061747573206973203078257800436F75E3
:1008D0006C64206E6F74207365742073746172741D
:1008E00020636F6E646974696F6E0041726269742F
:1008F000726174696F6E206C6F73740053746172EF
:100900007420636F6E646974696F6E207365740020
:10091000546F70617A202563206973206E6F742094
:10092000636F6E6E656374656400546F70617A20E6
:100930002563206973206E6F7420636F6E6E65632C
:1009400074656400546F70617A2025632069732098
:100950006E6F7420636F6E6E656374656400546FB0
:1009600070617A202563206973206E6F7420636F35
:100970006E6E656374656400493243206D7578203E
:10098000746F20546F70617A20410057726F7465E4
:10099000203078257820746F2072656769737465DC
:1009A00072203078257820617420616464726573E8
:1009B00073203078257800536C6176652041434B75
:1009C0006564206461746120627974652025752EE8
:1009D0000054574920737461747573206973203013
:1009E00078257800536C6176652041434B6564201F
:1009F00061646472657373203078257800545749B8
:100A000020737461747573206973203078257800C1
:100A1000436F756C64206E6F742073656C656374CE
:100A200020646576696365004172626974726174FD
:100A3000696F6E206C6F737400534C412B57207498
:100A400072616E736D69747465642C204E41434B02
:100A500020726563656976656420616674657220DD
:100A6000257520747269657300534C412B572074AF
:100A700072616E736D69747465642C2041434B2000
:100A800072656365697665640054574920737461C3
:100A9000747573206973203078257800436F756C06
:100AA00064206E6F74207365742073746172742097
:100AB000636F6E646974696F6E004172626974720B
:100AC0006174696F6E206C6F73740053746172741B
:100AD00020636F6E646974696F6E20736574005271
:100AE0006561642025752066726F6D207265676987
:100AF00073746572202575004E41434B2072656307
:100B000065697665642061667465722064617461EC
:100B10002072657175657374005457492073746150
:100B200074757320697320307825780054574920F4
:100B3000737461747573206973203078257800535D
:100B40006574207265706561746564207374617288
:100B50007420636F6E646974696F6E0044617461C0
:100B6000207472616E736D69747465642C204E41DB
:100B7000434B207265636569766564004461746106
:100B8000207472616E736D69747465642C204143C6
:100B90004B2072656365697665640054574920731C
:100BA0007461747573206973203078257800436F01
:100BB000756C64206E6F742073656C65637420645B
:100BC0006576696365004172626974726174696F08
:100BD0006E206C6F737400534C412B5720747261FC
:100BE0006E736D69747465642C204E41434B2072A2
:100BF0006563656976656420616674657220257534
:100C000020747269657300534C412B5720747261D4
:100C10006E736D69747465642C2041434B2072655A
:100C2000636569766564005457492073746174750F
:100C300073206973203078257800436F756C6420C9
:100C40006E6F742073657420737461727420636FA7
:100C50006E646974696F6E00417262697472617466
:100C6000696F6E206C6F73740053657420737461C8
:100C7000727420636F6E646974696F6E0057726F6F
:100C80007465203078257820746F20636F6E7472DD
:100C90006F6C20726567697374657200536C61765E
:100CA000652041434B6564206461746120627974FE
:100CB000652025752E00545749207374617475732F
:100CC000206973203078257800436F756C64206E3E
:100CD0006F742073656C6563742064657669636501
:100CE000004172626974726174696F6E206C6F7317
:100CF0007400534C412B572073656E742C20676F22
:100D000074204E41434B2066726F6D2061646472A3
:100D100065737320307825782061667465722025AC
:100D20007520747269657300534C412B572074729F
:100D3000616E736D69747465642C2041434B20723D
:100D400065636569766564005457492073746174FE
:100D50007573206973203078257800436F756C6453
:100D6000206E6F74207365742073746172742063D5
:100D70006F6E646974696F6E00417262697472614A
:100D800074696F6E206C6F73740053746172742099
:100D9000636F6E646974696F6E2073657400526569
:100DA00061642025752066726F6D20636F6E7472AA
:100DB0006F6C207265676973746572004E41434BB6
:100DC000207265636569766564206166746572206A
:100DD000646174612072657175657374005457495C
:100DE00020737461747573206973203078257800DE
:100DF000436F756C64206E6F742073656C656374EB
:100E00002064657669636500417262697472617419
:100E1000696F6E206C6F737400534C412B522074B9
:100E200072616E736D69747465642C204E41434B1E
:100E300020726563656976656420616674657220F9
:100E4000257520747269657300534C412B522074D0
:100E500072616E736D69747465642C2041434B201C
:100E600072656365697665640054574920737461DF
:100E7000747573206973203078257800436F756C22
:100E800064206E6F742073657420737461727420B3
:100E9000636F6E646974696F6E0041726269747227
:100EA0006174696F6E206C6F737400536574207386
:100EB0007461727420636F6E646974696F6E00434D
:100EC0006F6E74726F6C20726567697374657220DF
:100ED000636F6E7461696E7320307825780050728C
:100EE00065737375726520636F6465203078256C57
:100EF00078004D50522072656164202D2D3E2030C7
:100F0000782578206166746572202569207472697D
:100F10006573004D50522072656164202D2D3E2076
:100F20003078257820616674657220256920747296
:100F3000696573004D50522074726967676572204D
:100F40002D2D3E203078257820616674657220252D
:100F500069207472696573004D505220747269671C
:100F6000676572202D2D3E203078257820616674CB
:100F700065722025692074726965730057726F74F9
:100F800065203078257820746F20726567697374E6
:100F90006572203078257800536C61766520414376
:100FA0004B656420646174612062797465202575E5
:100FB0002E0054574920737461747573206973202F
:100FC0003078257800536C6176652041434B656429
:100FD000206164647265737320627974652025757D
:100FE00000545749207374617475732069732030FD
:100FF00078257800436F756C64206E6F742073657C
:101000006C6563742064657669636500417262692A
:1010100074726174696F6E206C6F737400534C410D
:101020002B57207472616E736D69747465642C2023
:101030004E41434B20726563656976656420616645
:1010400074657220257520747269657300534C4174
:101050002B57207472616E736D69747465642C20F3
:1010600041434B2072656365697665640054574956
:10107000207374617475732069732030782578004B
:10108000436F756C64206E6F742073657420737485
:1010900061727420636F6E646974696F6E0041726F
:1010A000626974726174696F6E206C6F737400533F
:1010B0007461727420636F6E646974696F6E2073FB
:1010C000657400526561642025752066726F6D201D
:1010D0007265676973746572202575004E41434BD4
:1010E0002072656365697665642061667465722047
:1010F0006461746120726571756573740054574939
:1011000020737461747573206973203078257800BA
:101110005457492073746174757320697320307853
:10112000257800536574207265706561746564206C
:10113000737461727420636F6E646974696F6E009A
:1011400044617461207472616E736D697474656456
:101150002C204E41434B20726563656976656400BF
:10116000536C6176652041434B6564206164647211
:101170006573732062797465202575005457492082
:101180007374617475732069732030782578004317
:101190006F756C64206E6F742073656C656374206A
:1011A000646576696365004172626974726174692D
:1011B0006F6E206C6F737400534C412B5720747208
:1011C000616E736D69747465642C204E41434B20CD
:1011D0007265636569766564206166746572202551
:1011E0007520747269657300534C412B57207472DB
:1011F000616E736D69747465642C2041434B207279
:101200006563656976656400545749207374617439
:101210007573206973203078257800436F756C648E
:10122000206E6F7420736574207374617274206310
:101230006F6E646974696F6E004172626974726185
:1012400074696F6E206C6F737400536574207374CF
:1012500061727420636F6E646974696F6E00466FAB
:10126000756E642073657269616C20257520666FE8
:101270007220626F61726420256300546F70617A1E
:10128000202563206973206E6F7420636F6E6E6516
:101290006374656400546F70617A202563206973FC
:1012A000206E6F7420636F6E6E65637465640054A6
:1012B0006F70617A202563206973206E6F742063DC
:1012C0006F6E6E656374656400436F6E76657274ED
:1012D000656420707265737375726520697320256B
:1012E0006C752050617363616C7300436F6E76653B
:1012F00072746564207072657373757265206973AA
:1013000020256C752050617363616C7300566572A3
:101310006E6F6E206973206E6F7420636F6E6E65E2
:1013200063746564005665726E6F6E204750494F56
:10133000206F7574707574206279746520697320EC
:101340003078257800436F6E6E6563746564207431
:101350006F205665726E6F6E005665726E6F6E20EE
:101360006973206E6F7420636F6E6E65637465645D
:1013700000576869746669656C642049324320735C
:10138000776974636820746F206368616E6E656C42
:10139000203200576869746669656C64204932437D
:1013A000207377697463682070726F626C656D007A
:1013B0005665726E6F6E206973206E6F7420636F56
:1013C0006E6E6563746564004661696C6564207463
:1013D0006F2073657420493243206D75780049325F
:1013E00043206D757820746F205665726E6F6E00A5
:1013F000493243206D757820746F20546F70617A84
:10140000204200493243206D757820746F20546F5C
:1014100070617A20410011241FBECFEFD1E2DEBF00
:10142000CDBF00E00CBF15E0A0E0B2E0ECE1F5E6D6
:1014300000E00BBF02C007900D92A839B107D9F7A1
:1014400027E0A8E9B5E001C01D92AD36B207E1F78B
:101450000E94962C0C9474320C9400001F920F92F0
:101460000FB60F9211240BB60F92EF92FF920F93CB
:101470001F932F933F934F935F936F937F938F931C
:101480009F93AF93BF93CF93DF93EF93FF93F89422
:10149000E0910002F09101020488F589E02D80912D
:1014A000C6008083E0910002F0910102A489B58911
:1014B0008C918D3009F078C082E792E09F938F93F2
:1014C0001F92CBE7D3E0DF93CF930E94060FE0910A
:1014D0000002F09101020F900F900F900F900F906B
:1014E00084A5811102C0789446C085A58823B9F0EF
:1014F00085E592E09F938F9384E08F93DF93CF9362
:101500000E94060F80910002909101020E94560BEA
:1015100078940F900F900F900F900F902CC004882C
:10152000F589E02D1082E0900002F0900102870121
:101530000A5E1F4FB701C8010E941F2F81E0F7010B
:1015400085A71F930F938AE392E09F938F931F9237
:10155000DF93CF930E94060F8091000290910102C9
:101560000E94560B7894EDB7FEB737960FB6F894F5
:10157000FEBF0FBEEDBFFF91EF91DF91CF91BF9105
:10158000AF919F918F917F916F915F914F913F911B
:101590002F911F910F91FF90EF900F900BBE0F9026
:1015A0000FBE0F901F90189584A58F5F84A71F9280
:1015B0008F938C911F928F9382E092E09F938F93F1
:1015C0001F92CBE7D3E0DF93CF930E94060FE09109
:1015D0000002F09101028DB79EB709960FB6F894FC
:1015E0009EBF0FBE8DBF84A5833170F08CED91E05E
:1015F0009F938F9384E08F93DF93CF930E94060F86
:101600008CEF0E942F0C7ECF848995890196958B53
:10161000848B69CFCF93DF93FC0184E1DF01C82F76
:101620001D92CA95E9F7F58BE48BDF015696ED0123
:1016300019928A95E9F7B3A7A2A714A615A6DF9178
:10164000CF9108950F931F93CF93DF938B01FC01EC
:10165000A2A5B3A5ED0109900020E9F72197CA1BC7
:10166000DB0BCE0199279F938F9386E994E09F939C
:101670008F9382E08F9382E893E09F938F930E94F1
:10168000060F81E02DB73EB7295F3F4F0FB6F894A4
:101690003EBF0FBE2DBFF80194819C1708F080E07B
:1016A0008195DF91CF911F910F910895FC0184E105
:1016B000DF011D928A95E9F7F58BE48B14A6089556
:1016C000BF92CF92DF92EF92FF920F931F93CF932F
:1016D000DF938C016B01EA01DC011296FC901297FA
:1016E0001396EC9060ED73E08F2D9E2D0E94162FC7
:1016F000892B91F48AE793E09F938F9382E08F93F5
:1017000082E893E09F938F930E94060F0F900F90B3
:101710000F900F900F902FC065ED73E08F2D9E2DD1
:101720000E94162F892BB1F585E593E09F938F9347
:1017300082E0B82EBF9292E8E92E93E0F92EFF9254
:10174000EF920E94060FC6010E9430108883998391
:101750009F938F938BE393E09F938F93BF92FF921E
:10176000EF920E94060FEDB7FEB73C960FB6F894C5
:10177000FEBF0FBEEDBFD8011596ED91FC91CE01D5
:10178000DF91CF911F910F91FF90EF90DF90CF905D
:10179000BF9019946BED73E08F2D9E2D0E94162F34
:1017A000892B91F48DE093E09F938F9382E08F9348
:1017B00082E893E09F938F930E94060FC6010E94D8
:1017C000611099838883A2CF62EE73E08F2D9E2DE6
:1017D0000E94162F892B91F481EE92E09F938F93B4
:1017E00082E08F9382E893E09F938F930E94060F8D
:1017F000C6010E9463109B838A8388CFEF92FF9279
:101800008BEB92E09F938F9384E08F9382E893E039
:101810009F938F930E94060FEDB7FEB737960FB6D2
:10182000F894FEBF0FBEEDBFDF91CF911F910F91D6
:10183000FF90EF90DF90CF90BF90089589EE93E0F6
:101840009F938F938BEE93E09F938F931F920E94B1
:10185000AB0D0F900F900F900F900F90089529EE01
:1018600033E03F932F93282F082E000C330B3F9328
:101870008F938FEE93E09F938F931F920E94AB0DF7
:101880008DB79EB707960FB6F8949EBF0FBE8DBF5B
:101890000895BF92CF92DF92EF92FF920F931F9322
:1018A000CF93DF93EC018B018DA5882309F4F0C061
:1018B0008AE794E09F938F9322E0B22EBF9232E8A2
:1018C000C32E33E0D32EDF92CF920E94060F7E010B
:1018D00026E1E20EF11C60E270E0C7010E940B2FCE
:1018E0009BA78AA70F900F900F900F900F90892BB6
:1018F00089F18CE594E09F938F93BF92DF92CF9212
:101900000E94060FEAA5FBA510828AA59BA5019659
:101910009BA78AA70F900F900F900F900F90EAA5AA
:10192000FBA580818032D1F1FF93EF938CE394E0AB
:101930009F938F9382E08F9382E893E09F938F939E
:101940000E94060F8DB79EB707960FB6F8949EBFFC
:101950000FBE8DBFC7010E946E10F8018581968170
:10196000892B01F5FF92EF928EE993E09F938F937D
:1019700084E08F9382E893E09F938F930E94060FF9
:101980008FEF0E942F0C1DA62DB73EB7295F3F4F4A
:101990000FB6F8943EBF0FBE2DBF7AC03196FBA79D
:1019A000EAA7BDCFF801D080C1806D2D7C2DC70185
:1019B0000E94162F892B09F09BC0CF92DF9283E201
:1019C00094E09F938F9382E0D82EDF9292E8E92EE5
:1019D00093E0F92EFF92EF920E94060F60ED73E004
:1019E000F801828193810E94162F2DB73EB7295F9F
:1019F0003F4F0FB6F8943EBF0FBE2DBF892B09F4A1
:101A000051C0B801CE010E94220BF80121819081C2
:101A1000882309F12F939F9381E094E09F938F9304
:101A200084E08F93FF92EF920E94060F2DB73EB78E
:101A3000295F3F4F0FB6F8943EBF0FBE2DBF8BEF0F
:101A4000DF91CF911F910F91FF90EF90DF90CF909A
:101A5000BF900C942F0C2F939F938EED93E09F9348
:101A60008F93DF92FF92EF920E94060F4091020245
:101A7000509103026AA57BA5C8010E94600B8DB737
:101A80009EB707960FB6F8949EBF0FBE8DBF1DA6DA
:101A9000DF91CF911F910F91FF90EF90DF90CF904A
:101AA000BF9008958AA59BA5892BC1F0F80181817B
:101AB0008F9380818F938AEB93E09F938F9383E042
:101AC0008F93FF92EF920E94060F2DB73EB7295FCA
:101AD0003F4F0FB6F8943EBF0FBE2DBF409102029C
:101AE0005091030270E060E0C8010E94600BCFCF0C
:101AF000095F1F4F32CF8091C00087FFFCCF8091DC
:101B0000C6000895882319F0813041F0089580912E
:101B1000C00085FFFCCF6093C6000895809130011E
:101B200085FFFCCF6093360108950F931F93CF93E9
:101B3000DF93082FC62FD72F16E9160F699166235A
:101B400029F0802F0E94820D1C13F8CFDF91CF91D6
:101B50001F910F910895CF93DF93CDB7DEB79E010C
:101B6000275F3F4F4F81588566E970E085EC96E02E
:101B70000E946B2F65EC76E08E810E94950D80E0CF
:101B8000DF91CF910895CF93DF93CDB7DEB79E015C
:101B9000275F3F4F4F81588566E970E085EC96E0FE
:101BA0000E94A42F65EC76E08E810E94950D80E066
:101BB000DF91CF9108950F931F93CF93DF93082F59
:101BC000EB01FE011491612F802F0E94820D21965E
:101BD0001111F7CFDF91CF911F910F910895E0EC94
:101BE000F0E080818D7F80831092C50023E02093F8
:101BF000C400A1ECB0E098E19C93E2ECF0E08081BD
:101C00008F73808380818F7C80838081877F8083B6
:101C100080818B7F80838081866080838C918068C7
:101C20008C93E0E3F1E080818D7F80831092350119
:101C30002093340190933101E2E3F1E080818F73CE
:101C4000808380818F7C80838081877F8083808177
:101C50008B7F80838081866080830895E0913A0342
:101C6000F0913B038FEF9FEFDC0180839183A28390
:101C7000B38384E084830895E0913A03F0913B03B9
:101C800083818F9382818F9381818F9380818F93C2
:101C900084ED94E09F938F931F920E94C30D8DB7A4
:101CA0009EB707960FB6F8949EBF0FBE8DBF0895DE
:101CB000E0913A03F0913B03108211821282138269
:101CC00008959F938F938CEE93E09F938F9381E081
:101CD0008F930E94AB0D0F900F900F900F900F906D
:101CE00008958F929F92AF92BF92CF92DF92FF9210
:101CF0000F931F93CF93DF93CDB7DEB7E2970FB665
:101D0000F894DEBF0FBECDBF5C01F62E4A01C09035
:101D10003A03D0903B0302EF12E0F8016081718139
:101D2000FB018081882309F445C0C5010E94162F5C
:101D3000892B09F068C0F8012281F6018081918128
:101D4000A281B38104C0B695A795979587952A95EA
:101D5000D2F780FF58C0F2E0FF1609F44EC0FF151D
:101D6000D8F1FF2009F443C081E0F81609F442C01D
:101D7000F80181818F9380818F9389E395E09F9310
:101D80008F931F9282E38F938E010F5F1F4F1F93DC
:101D90000F930E942E2FC8010E94610EC4010E9461
:101DA000610E89EE93E00E94610E0FB6F894DEBFDB
:101DB0000FBECDBFE2960FB6F894DEBF0FBECDBF0B
:101DC000DF91CF911F910F91FF90DF90CF90BF9047
:101DD000AF909F908F90089593E0F91689F0E4E01A
:101DE00085E395E0FE12C4CF0E94610EC1CF85E26B
:101DF00095E0FACF89E295E0F7CF8DE295E0F4CF58
:101E000081E395E0F1CF0D5F1F4F87CF1F93CF93F5
:101E1000DF93CDB7DEB7E2970FB6F894DEBF0FBE03
:101E2000CDBF1BADE0913A03F0913B0380819181DE
:101E3000A281B381892B8A2B8B2BB1F08481181757
:101E400098F09E01225C3F4F4CAD5DAD62E370E0C7
:101E5000CE0101960E94A42FAE014F5F5F4F612F0C
:101E600089AD9AAD0E94710EE2960FB6F894DEBF6E
:101E70000FBECDBFDF91CF911F910895E0913A033E
:101E8000F0913B0384831F928F938BE195E09F93A6
:101E90008F9382E08F938BE593E09F938F930E94C3
:101EA000060F8DB79EB707960FB6F8949EBF0FBE6C
:101EB0008DBF0895FC01808191818230910551F19F
:101EC000E0F4009711F18130910511F19F938F9308
:101ED0008BEF94E09F938F9384E08F938BE593E057
:101EE0009F938F930E94060F8DB79EB707960FB6EC
:101EF000F8949EBF0FBE8DBF08958330910561F0A9
:101F00008430910519F784E001C080E00C943E0F05
:101F100081E0FCCF82E0FACF83E0F8CFFC01808142
:101F20009181E0913A03F0913B03AC0170E060E0F5
:101F300040835183628373839F938F9389ED94E0F1
:101F40009F938F9382E08F938BE593E09F938F9382
:101F50000E94060F8DB79EB707960FB6F8949EBFE6
:101F60000FBE8DBF0895EF92FF920F931F93CF93F3
:101F7000DF93F82EE92E02EF12E0D801CD91DC912B
:101F80008881811118C0EF92FF928AEA94E09F93B2
:101F90008F9384E08F938BE593E09F938F930E94C0
:101FA000060FEDB7FEB737960FB6F894FEBF0FBE1B
:101FB000EDBF81E03CC0BE018F2D9E2D0E94162FEB
:101FC000892BE1F5E0913A03F0913B03D801129699
:101FD0002C9181E090E0A0E0B0E004C0880F991F50
:101FE000AA1FBB1F2A95D2F740815181628173815C
:101FF000842B952BA62BB72B80839183A283B3834D
:10200000DF93CF938EEB94E09F938F9382E08F9337
:102010008BE593E09F938F930E94060F8DB79EB739
:1020200007960FB6F8949EBF0FBE8DBF80E0DF917C
:10203000CF911F910F91FF90EF9008950D5F1F4F6B
:102040009CCF982F80ED890F8A3048F089EC890F5A
:10205000803128F089EA890F803108F080E0089506
:10206000EF92FF920F931F93CF93DF93EC010990B0
:102070000020E9F72197C81BD90B8C01DD27CC0F75
:10208000DD1FCC0FDD1FF12CE12C2497CC3F2FEF6F
:10209000D20741F4C701DF91CF911F910F91FF90BB
:1020A000EF900895F80181918F010E94211090E036
:1020B0000C2E02C0880F991F0A94E2F7E80EF91E51
:1020C000E4CF0C94E52E0C94E52E282F80E091E0CF
:1020D000921708F00895990F8F5FFACFCF93DF938F
:1020E000EC018991811103C0DF91CF91089590E0B7
:1020F0000E94032FFE0131978083F3CF80E8809305
:10210000610083E0809361001092700080E2809310
:10211000B60088EC8093B30010926E0081E080934B
:1021200081008093B0009091B6008091B6008470D9
:102130009170892BC1F78AE090E020E335E7F9013F
:102140003197F1F70197D9F73FEF41E0F89436BBAB
:1021500037BB10928500109284001092B20087B3B2
:102160008823E9F310928100789486B381111CC012
:10217000209184008091850090E0982F8827820F1D
:10218000911D8B3628E1920744F0809166008150C2
:102190008093660040938100D9CF883E974124F018
:1021A00081E0809381000895809166008F5FF0CF79
:1021B000E1E6F0E080E88083108208950C94D81066
:1021C0001F93CF93DF9380913C0390913D030E9436
:1021D000951380913C0390913D030E94E21381E6A8
:1021E0000E9446259F938F9382EB96E09F938F9357
:1021F00012E01F93CCE6D3E0DF93CF930E94060F4B
:1022000082E60E9446259F938F9386E996E09F93EE
:102210008F931F93DF93CF930E94060F0E94982BFA
:102220009F938F938BE796E09F938F931F93DF93FA
:10223000CF930E94060F8DB79EB745960FB6F894C0
:102240009EBF0FBE8DBFDF91CF911F9108958AEC85
:1022500093E09F938F93E0913C03F0913D03818144
:102260008F9380818F938EEC96E09F938F931F9234
:102270000E94C30D89EE93E09F938F931F920E945B
:10228000AB0D8DB79EB70A960FB6F8949EBF0FBEE2
:102290008DBF0895E0913C03F0913D038383089541
:1022A000E0913C03F0913D038381089580916307A1
:1022B000813031F1882309F440C0833009F442C0F1
:1022C000843009F448C0E0913C03F0913D038381E0
:1022D0001F928F9389EF95E09F938F9384E08F9364
:1022E0008CE693E09F938F930E94060F8DB79EB765
:1022F00007960FB6F8949EBF0FBE8DBF8FEF08955F
:1023000080E00E94FC1880E00E94FF2B8EE596E0A2
:102310009F938F9382E08F938CE693E09F938F93AC
:102320000E94060FE0913C03F0913D0313820F9051
:102330000F900F900F900F9003C080E00E94FC1848
:1023400080E0089580E00E94FC1880E00E94FF2B4E
:102350008EE396E0DDCF80E00E94FC1880E00E94D2
:10236000FF2B80E296E0D4CF809163078130A9F102
:102370008823E1F0833089F1843089F11F928F93B3
:1023800084E995E09F938F9384E08F938CE693E0AC
:102390009F938F930E94060F8DB79EB707960FB637
:1023A000F8949EBF0FBE8DBF8FEF089589ED95E025
:1023B0009F938F9382E08F938CE693E09F938F930C
:1023C0000E94060FE0913C03F0913D0383E083837C
:1023D0000F900F900F900F900F9080E0089580E085
:1023E0000E94FF2B8BEB95E0E3CF80916307813058
:1023F000C9F18823D1F08330B9F11F928F9383E321
:1024000095E09F938F9384E08F938CE693E09F9366
:102410008F930E94060F8DB79EB707960FB6F8945C
:102420009EBF0FBE8DBF8FEF089580E00E94FC1805
:1024300081E00E94FF2B86E795E09F938F9382E0D7
:102440008F938CE693E09F938F930E94060FE09109
:102450003C03F0913D0384E083830F900F900F9035
:102460000F900F9080E0089580E00E94FC1881E0BA
:102470000E94FF2B88E595E0E0CF88E198E00FB659
:10248000F894A895809360000FBE90936000FFCFF2
:10249000E0913C03F0913D038381813001F1882379
:1024A000B1F1833009F44BC0843009F460C089EE87
:1024B00093E09F938F9380ED93E09F938F9387E7B3
:1024C00095E09F938F931F920E94AB0D8DB79EB79F
:1024D00007960FB6F8949EBF0FBE8DBF089589EE84
:1024E00093E09F938F9382E795E09F938F9387E785
:1024F00095E09F938F931F920E94AB0D8DB79EB76F
:1025000007960FB6F8949EBF0FBE8DBF089589EE53
:1025100093E09F938F9387E195E09F938F9387E755
:1025200095E09F938F931F920E94AB0D8DB79EB73E
:1025300007960FB6F8949EBF0FBE8DBF089589EE23
:1025400093E09F938F938CE795E09F938F9387E71A
:1025500095E09F938F931F920E94AB0D8DB79EB70E
:1025600007960FB6F8949EBF0FBE8DBF089589EEF3
:1025700093E09F938F938FE195E09F938F9387E7ED
:1025800095E09F938F931F920E94AB0D8DB79EB7DE
:1025900007960FB6F8949EBF0FBE8DBF089589EEC3
:1025A00093E09F938F93E0913C03F0913D038281F0
:1025B0001F928F9384E895E09F938F931F920E94C0
:1025C000AB0D8DB79EB707960FB6F8949EBF0FBEA2
:1025D0008DBF08950E945611811102C00C941E0CEB
:1025E0008DEF0C942F0C0E94F511811102C00C94F8
:1025F0001E0C8DEF0C942F0C813631F4709365070F
:102600006093640780E0089570936707609366079E
:10261000F9CF909369078093680780E008959093BD
:1026200061078093600780E008958093620780E0EF
:102630000895813629F48091640790916507089583
:10264000809166079091670708958091680790913F
:1026500069070895F894F999FECF92BD81BD60BDD8
:10266000FA9AF99A78949F938F931F926F9384E5C7
:1026700097E09F938F9382E08F938EE893E09F93F0
:102680008F930E94060F8DB79EB709960FB6F894E8
:102690009EBF0FBE8DBF0895F894F999FECF92BDED
:1026A00081BDF89A789420B59F938F931F922F93B2
:1026B0008CE397E09F938F9382E08F938EE893E073
:1026C0009F938F930E94060F80B52DB73EB7275F6B
:1026D0003F4F0FB6F8943EBF0FBE2DBF0895CF9366
:1026E000DF93D82FC92F9F938F9383E297E09F9317
:1026F0008F9381E08F938EE893E09F938F930E9456
:10270000060F6D2F90E080E00E942A138DB79EB7D0
:1027100007960FB6F8949EBF0FBE8DBF6C2F81E059
:1027200090E0DF91CF910C942A130F931F93CF93D6
:102730008C0190E080E00E944C13C82F81E090E073
:102740000E944C1390E0982F88278C0F911DF80160
:10275000918380839F938F938AE097E09F938F93D9
:1027600081E08F938EE893E09F938F930E94060FF2
:102770008DB79EB707960FB6F8949EBF0FBE8DBF5C
:10278000CF911F910F910895CF93C82F1F928F93D0
:1027900087EF96E09F938F9381E08F938EE893E08D
:1027A0009F938F930E94060F8DB79EB707960FB623
:1027B000F8949EBF0FBE8DBF6C2F82E090E0CF914A
:1027C0000C942A13CF93DF93EC0182E090E00E94F7
:1027D0004C138A831F928F9384EE96E09F938F937E
:1027E00081E08F938EE893E09F938F930E94060F72
:1027F0008DB79EB707960FB6F8949EBF0FBE8DBFDC
:10280000DF91CF910895CF93DF93FC01C081D181F7
:10281000CE010E946F13CE010E940F13811104C0DC
:10282000DF91CF910C941E0C8DEFDF91CF910C9422
:102830002F0CCF93FC01C0818C2F0E94C4138C2FCE
:102840000E941513811103C0CF910C941E0C8DEFC3
:10285000CF910C942F0CCF93DF93219A229A8CB5B1
:1028600082608CBD8DB581608DBD8CB580618CBD65
:102870008CB580648CBD29988CB51F928F938AE9A2
:1028800097E09F938F9382E08F93C2E5D5E0DF932B
:10289000CF930E94060F8DB79EB707960FB6F89498
:1028A0009EBF0FBE8DBF0CB404FC0FC080E897E044
:1028B0009F938F9384E08F93DF93CF930E94060FB3
:1028C0000F900F900F900F900F90DF91CF91089580
:1028D0000F931F93CF93DF938EBD0DB407FEFDCFF3
:1028E0001F928F9385E797E09F938F9301E00F935B
:1028F000C2E5D5E0DF93CF930E94060F1EB51F926D
:102900001F938BE697E09F938F930F93DF93CF9363
:102910000E94060F8DB79EB70E960FB6F8949EBF15
:102920000FBE8DBF812FDF91CF911F910F91089521
:102930001092B90080E48093B8000895279A089512
:102940002F9A08952F9808952F990C94A2140C94FF
:10295000A01487EB97E09F938F9382E08F9382E69A
:1029600093E09F938F930E94060FE1E8F0E080814F
:102970008460808389E390E090938D0080938C0045
:10298000EFE6F0E08081886080830F900F900F90D9
:102990000F900F9008950E94132860E081E00C943E
:1029A0007B1568E975E081E60E945B2862E081E0C2
:1029B0000C947B151F920F920FB60F9211240BB639
:1029C0000F922F933F934F935F936F937F938F93C8
:1029D0009F93AF93BF93EF93FF93F894109285006A
:1029E000109284000E9428157894FF91EF91BF9176
:1029F000AF919F918F917F916F915F914F913F9197
:102A00002F910F900BBE0F900FBE0F901F90189537
:102A10009C01CB01019780319742B0F490919C05C5
:102A20009A30A0F487E0989FF0011124E356FA4F02
:102A300031832083738362834683158214829F5F70
:102A400090939C0580E0089582E0089583E00895C6
:102A500030919C05EDE9F5E020E041E050E061E0D7
:102A6000321301C008958681823051F084819581AE
:102A7000A281B3818A179B0730F055834483668314
:102A80002F5F3796EDCF019695838483F9CFCF934F
:102A9000DF93C0E0D7E080919C05C81718F0DF9164
:102AA000CF910895DC9FF0011124E356FA4F8681FF
:102AB000813029F416820190F081E02D1995CF5FC5
:102AC000EACF97E0899FF0011124E356FA4F8681FF
:102AD000089597E0899FF0011124E356FA4F82810F
:102AE0009381089597E0899FF0011124E356FA4FEE
:102AF00084819581089597E0899FF0011124E35620
:102B0000FA4F6683089597E0899FF0011124E356F8
:102B1000FA4F73836283089597E0899FF00111242F
:102B2000E356FA4F758364830895289A289BFECF55
:102B3000089580910B01886080930B0180910B01B7
:102B400083FFFCCF0895289A209A73986B9A889AED
:102B5000809AEBE0F1E0808188608083EAE0F1E038
:102B600080818860808374986C9A899A819A08958C
:102B7000882321F00E94951580E0089528982899CF
:102B8000FECFFACF882321F00E94991580E00895A6
:102B900080910B01877F80930B0180910B0183FD56
:102BA000FCCFF4CF882321F0889A889BFECF08952C
:102BB00088988899FECF0895882321F0899A899B67
:102BC000FECF089589988999FECF089580E00E94EC
:102BD000B81580E00E94C21580E00E9468140E942F
:102BE00095150C94991580E00E94B81580E00E941C
:102BF000C21582E00E9468140E9495150C949915E4
:102C000080E00E94B81580E00E94C21584E00E9416
:102C100068140E9495150C94991580E00E94B815CF
:102C200080E00E94C21586E00E9468140E949515FB
:102C30000C94991580E00E94B81580E00E94C2159E
:102C400081E00E9468140E9495150C94991580E00B
:102C50000E94B81580E00E94C21583E00E946814AB
:102C60000E9495150C94991580E00E94B81580E09B
:102C70000E94C21585E00E9468140E9495150C946C
:102C8000991580E00E94B81580E00E94C21587E087
:102C90000E9468140E9495150C94991580E00E947A
:102CA000B81580E00E94C21588E00E9468140E9456
:102CB00095150C9499150895BF92CF92DF92EF92DB
:102CC000FF920F931F93CF93DF936C01162FEA01AE
:102CD00080E0F6011995812F8295807F0E9468140B
:102CE0008D2F0E9468141F92DF938EECE82E87E0F0
:102CF000F82EFF92EF92BB24B394BF9206E515E045
:102D00001F930F930E94060F8C2F0E946814DD27DB
:102D1000DF93CF93FF92EF92BF921F930F930E9486
:102D2000060F81E0F60119958DB79EB70E960FB686
:102D3000F8949EBF0FBE8DBF80E0DF91CF911F91B1
:102D40000F91FF90EF90DF90CF90BF90089580E0BB
:102D500008952F923F924F925F926F927F928F923F
:102D60009F92AF92BF92CF92DF92EF92FF920F931A
:102D70001F93CF93DF930F920F92CDB7DEB7382E0C
:102D8000330C3A8329836295607F762E740EEE248D
:102D9000E394F12C01EA13E03EE2832E38E0932E17
:102DA00084EA8093BC008091BC0087FFFCCF8091B7
:102DB000B900887F80936A07803131F0883309F445
:102DC000F6C0883009F003C12CEF38E03F932F9311
:102DD00081E08F931F930F930E94060F3092BB00E8
:102DE00084E88093BC000F900F900F900F900F908D
:102DF0008091BC0087FFFCCF8091B900887F8093D1
:102E00006A071F928F93EAEBF8E0FF93EF93DD24BC
:102E1000D394DF921F930F930E94060F80916A074D
:102E20000FB6F894DEBF0FBECDBF803209F4E2C00A
:102E3000883309F4F7C0883109F0FAC02AE938E08C
:102E40003F932F93DF921F930F930E94060F709270
:102E5000BB0084E88093BC000F900F900F900F9000
:102E60000F908091BC0087FFFCCF8091B900887FD4
:102E700080936A071F928F939F928F92DD24D39441
:102E8000DF921F930F930E94060F80916A070FB67F
:102E9000F894DEBF0FBECDBF803309F46FC0883316
:102EA00009F47ECF883209F0D2C01F927F9281E16F
:102EB00098E09F938F93DF921F930F930E94060FCA
:102EC0009E012F5F3F4F59010FB6F894DEBF0FBE32
:102ED000CDBFCC24C394D12C94E8292E66246394CE
:102EE0005C2C4D2CF50181818093BB002092BC00AD
:102EF0008091BC0087FFFCCF8091B900887F8093D0
:102F00006A071F928F932EEF37E03F932F936F92B4
:102F10001F930F930E94060F80916A070FB6F894D3
:102F2000DEBF0FBECDBF803349F1883309F438CFFF
:102F3000883209F08CC04F925F9224EE37E03F93C5
:102F40002F936F921F930F930E94060FF5018181BB
:102F50001F928F9329ED37E03F932F936F921F932A
:102F60000F930E94060F91E0A91AB1080FB6F894CA
:102F7000DEBF0FBECDBFCD2809F06BC080E094E965
:102F80009093BC000F900F90DF91CF911F910F9104
:102F9000FF90EF90DF90CF90BF90AF909F908F9079
:102FA0007F906F905F904F903F902F9008958BEEA1
:102FB00098E09F938F9381E08F931F930F930E94CC
:102FC000060F0F900F900F900F900F90E9CE8DECA1
:102FD00098E09F938F9384E08F9381EA93E09F938F
:102FE0008F930E94060F0F900F900F900F900F90ED
:102FF0008FEFC8CFFF92EF92EAE6F8E0FF93EF93EE
:10300000DF921F930F930E94060F3FEFE31AF30A1C
:103010000FB6F894DEBF0FBECDBF9BE0E916F104FA
:1030200039F3BECEE9E5F8E0FF93EF93DF92C5CF29
:1030300081E498E09F938F9384E08F931F930F9385
:103040000E94060F0F900F900F900F900F908FEF30
:1030500096CFD12CC12C44CF08950F931F93CF93BB
:10306000DF93EC01162F072F80E0FE011995802FCA
:103070000E946814812F0E94681481E0FE01199556
:1030800080E0DF91CF911F910F910895CF92DF9251
:10309000EF92FF920F931F93CF93DF93E12CF12CCC
:1030A000D0E0C0E0CC24C394D12C8E2D90E08C01D4
:1030B000000F111F080F191F005C1C4FF8018081C1
:1030C000811143C0FF2009F460C00E94B411C80FF1
:1030D00081E60E94B525882309F45BC064E080E79F
:1030E0000E94D91EC80F88E799E09F938F9381E0D3
:1030F0008F9380EC93E09F938F930E94060F4D2F48
:1031000062E084E70E941B1C0F900F900F900F90BD
:103110000F9082E60E94B525882309F454C065E02B
:1031200080E70E94D91EC80F4D2F42954F7062E074
:1031300084E70E941B1C8C2FDF91CF911F910F9170
:10314000FF90EF90DF90CF900895F801918199233F
:1031500069F0F3948281960102C0220F331F8A9591
:10316000E2F7C9018095D823E3949FCF6EEE72E415
:103170000E947C26C82FF8018281960102C0220F8E
:10318000331F8A95E2F7D22BEFCF80E00E944A11DD
:103190009FCF1F9281E68F938EE599E09F938F9347
:1031A00084E08F9383EB93E09F938F930E94060FAD
:1031B000C1502DB73EB7295F3F4F0FB6F8943EBFC1
:1031C0000FBE2DBFA6CF1F9282E68F9384E499E0B5
:1031D0009F938F9384E08F9383EB93E09F938F93E0
:1031E0000E94060FC1508DB79EB707960FB6F89490
:1031F0009EBF0FBE8DBF9FCF90E0282F30E061E0D3
:10320000492F50E0FA01EE0FFF1FE40FF51FE05CBD
:10321000FC4F8081811104C00E94461880E008950F
:10322000A901092E02C0559547950A94E2F740FF7F
:1032300003C061839F5FE4CF1182FCCF80E00C94D8
:10324000FC1880E0282F30E0F901EE0FFF1FE20F9D
:10325000F31FE05CFC4F9081911102C080E0089563
:103260008F5FF0CFCF93DF93FC0180819181CFEF0F
:10327000C80F9C01215031092830310528F08BEF0F
:10328000DF91CF910C942F0C0597A8F481E60E9452
:10329000B525882391F1D0E0FE01EE0FFF1FEC0F62
:1032A000FD1FE05CFC4F81E081830E944618DF91A6
:1032B000CF910C941E0C82E60E94B5258111EBCFB4
:1032C00081E60E94B525811136C01F9282E68F9358
:1032D00080E199E09F938F9384E08F9383EB93E059
:1032E0009F938F930E94060FEDB7FEB737960FB6E8
:1032F000F894FEBF0FBEEDBF1CC081E60E94B5254D
:103300008111D9CF1F9281E68F938AE299E09F9332
:103310008F9384E08F9383EB93E09F938F930E942E
:10332000060F8DB79EB707960FB6F8949EBF0FBED7
:103330008DBF8DEFA5CFDF91CF910895FC018081E6
:103340009181EFEFE80F0197089718F08BEF0C943D
:103350002F0C8E2F90E0FC01EE0FFF1FE80FF91FDE
:10336000E05CFC4F8181882389F089EE93E09F9394
:103370008F9389E895E09F938F931F920E94AB0DE6
:103380000F900F900F900F900F90089589EE93E09B
:103390009F938F938BEE93E0EECFFC018081918120
:1033A0009C01215031092830310518F08BEF0C9425
:1033B0002F0C815090E0FC01EE0FFF1FE80FF91F6A
:1033C000E05CFC4F11820E9446180C941E0CFC011C
:1033D0004081518180E061E070E0A1E04F3F510504
:1033E00089F080F08BEF0C942F0C9B01082E02C00B
:1033F000220F331F0A94E2F724233523232B91F065
:10340000A1838F5F282F30E0F901EE0FFF1FE20F3D
:10341000F31FE05CFC4F90819111E7CF0E944618AA
:103420000C941E0C1182EDCF90E080E061E070E022
:10343000292F30E0F901EE0FFF1FE20FF31FE05CD0
:10344000FC4F4081411116C029EE33E03F932F938A
:103450001F928F938DE895E09F938F931F920E9408
:10346000AB0D8DB79EB707960FB6F8949EBF0FBEF3
:103470008DBF08954181442339F0AB0102C0440F50
:10348000551F2A95E2F7840F9F5FD2CF2F923F926C
:103490004F925F926F927F928F929F92AF92BF9264
:1034A000CF92DF92EF92FF920F931F93CF93DF9310
:1034B000562E482E440C01E010E084EA382EC9E96B
:1034C000D3E09BE9892E9BE0992E2CE7E22E2BE09E
:1034D000F22E3FE3C32E3BE0D32E242C689420F839
:1034E00048E5A42E4CE0B42E3092BC008091BC0084
:1034F00087FFFCCF8091B900887F80936A07803175
:1035000031F0883309F427C1883009F032C129E647
:103510003CE03F932F9381E08F93DF93CF930E9402
:10352000060F4092BB0084E88093BC000F900F9080
:103530000F900F900F908091BC0087FFFCCF80917F
:10354000B900887F80936A071F928F9327E23CE03F
:103550003F932F93662463946F92DF93CF930E94DF
:10356000060F80916A072DB73EB7295F3F4F0FB610
:10357000F8943EBF0FBE2DBF803209F40DC18833D1
:1035800009F423C1883109F028C187E09CE09F93AA
:103590008F936F92DF93CF930E94060F5092BB00E0
:1035A00084E88093BC000F900F900F900F900F90C5
:1035B0008091BC0087FFFCCF8091B900887F809309
:1035C0006A071F928F939F928F92662463946F92E3
:1035D000DF93CF930E94060F80916A072DB73EB705
:1035E000295F3F4F0FB6F8943EBF0FBE2DBF80330B
:1035F00009F419C1883309F477CF883209F0FCC087
:10360000FF92EF926F92DF93CF930E94060F30925A
:10361000BC000F900F900F900F900F908091BC0006
:1036200087FFFCCF8091B900887F80936A07803143
:1036300031F0883309F458CF883009F0DDC0DF92CB
:10364000CF9281E08F93DF93CF930E94060F209259
:10365000BB0084E88093BC000F900F900F900F90F8
:103660000F908091BC0087FFFCCF8091B900887FCC
:1036700080936A071F928F932CE23BE03F932F9336
:1036800081E08F93DF93CF930E94060F80916A07AA
:103690002DB73EB7295F3F4F0FB6F8943EBF0FBE20
:1036A0002DBF883309F420CF803409F0A5C084E809
:1036B0008093BC008091BC0087FFFCCF8091B90053
:1036C000887F80936A071F928F9389E19BE09F9385
:1036D0008F9311E01F93C9E9D3E0DF93CF930E944A
:1036E000060F80916A072DB73EB7295F3F4F0FB68F
:1036F000F8943EBF0FBE2DBF803589F0883509F0A4
:103700007BC088EF9AE09F938F931F93DF93CF93B3
:103710000E94060F0F900F900F900F900F907090D7
:10372000BB001F925F921F927F928FED9AE09F9352
:103730008F9381E08F9389E993E09F938F930E9409
:10374000060F2DB73EB7275F3F4F0FB6F8943EBF29
:103750000FBE2DBF51C0BF92AF9281E08F93DF9318
:10376000CF930E94060F0F900F900F900F900F9025
:10377000BBCE8AE39CE09F938F9384E08F9389E98B
:1037800093E09F938F930E94060F0F900F900F90DE
:103790000F900F908FEF34C01F930F9327ED3BE0F6
:1037A0003F932F936F92DF93CF930E94060F0F5F8B
:1037B0001F4F8DB79EB707960FB6F8949EBF0FBEEA
:1037C0008DBF0B30110531F38FCE26EC3BE03F93DC
:1037D0002F936F92DF93CF93C4CF8EEA9BE09F939A
:1037E0008F9384E08F93DF93CF930E94060F0F9007
:1037F0000F900F900F900F9084E98093BC00872D5D
:10380000DF91CF911F910F91FF90EF90DF90CF90BC
:10381000BF90AF909F908F907F906F905F904F90F0
:103820003F902F9008958CE59BE09F938F936F922C
:10383000DF93CF93DACF2F923F924F925F926F92A6
:103840007F928F929F92AF92BF92CF92DF92EF9230
:10385000FF920F931F93CF93DF93482E662E542E23
:10386000382E330C01E010E084EA282E772473947C
:10387000C9E9D3E09DEF892E99E0992EE62EF12C2F
:1038800021EDC22E29E0D22E3AEBA32E3AE0B32E40
:103890002092BC008091BC0087FFFCCF8091B900D2
:1038A000887F80936A07803131F0883309F4EEC055
:1038B000883009F0F8C02BEC3AE03F932F937F92C9
:1038C000DF93CF930E94060F3092BB0084E8809371
:1038D000BC000F900F900F900F900F908091BC0044
:1038E00087FFFCCF8091B900887F80936A071F9281
:1038F0008F9329E83AE03F932F937F92DF93CF9302
:103900000E94060F80916A072DB73EB7295F3F4F8F
:103910000FB6F8943EBF0FBE2DBF803209F4D6C05B
:10392000883309F4ECC0883109F0F1C089E69AE0E7
:103930009F938F937F92DF93CF930E94060F6092A5
:10394000BB0084E88093BC000F900F900F900F9005
:103950000F908091BC0087FFFCCF8091B900887FD9
:1039600080936A071F928F939F928F927F92DF932B
:10397000CF930E94060F80916A072DB73EB7295F4B
:103980003F4F0FB6F8943EBF0FBE2DBF803309F4F2
:1039900066C0883309F47CCF883209F0C7C01F9213
:1039A0006F9284EE99E09F938F937F92DF93CF93F2
:1039B0000E94060F5092BB0084E88093BC002DB794
:1039C0003EB7295F3F4F0FB6F8943EBF0FBE2DBFE5
:1039D0008091BC0087FFFCCF8091B900887F8093E5
:1039E0006A071F928F93DF92CF927F92DF93CF93DC
:1039F0000E94060F80916A072DB73EB7295F3F4F9F
:103A00000FB6F8943EBF0FBE2DBF803341F188330F
:103A100009F43ECF883209F089C01F921F9287EBCC
:103A200099E09F938F937F92DF93CF930E94060F2D
:103A30001F924F92FF92EF921F925F928BE899E054
:103A40009F938F937F92DF93CF930E94060F8DB742
:103A50009EB742960FB6F8949EBF0FBE8DBF80E012
:103A600094E99093BC00DF91CF911F910F91FF904B
:103A7000EF90DF90CF90BF90AF909F908F907F900E
:103A80006F905F904F903F902F900895BF92AF92AC
:103A90007F92DF93CF930E94060F0F900F900F90AD
:103AA0000F900F90F5CE8CE99AE09F938F9384E06E
:103AB0008F9389E993E09F938F930E94060F0F9055
:103AC0000F900F900F900F908FEFCDCF1F930F930C
:103AD00029E33AE03F932F937F92DF93CF930E94A5
:103AE000060F0F5F1F4F8DB79EB707960FB6F8945E
:103AF0009EBF0FBE8DBF0B30110531F3C9CE28E23A
:103B00003AE03F932F937F92DF93CF93C4CF80E12E
:103B10009AE09F938F9384E08F93DF93CF930E94DB
:103B2000060F0F900F900F900F900F908FEF98CF80
:103B30002F923F924F925F926F927F928F929F92BD
:103B4000AF92BF92CF92DF92EF92FF920F931F93AB
:103B5000CF93DF93880F01E010E094EA392E2BEA2F
:103B6000822E2EE0922E55245394C9E4D5E0482E9F
:103B7000689440F834E8232E49E6E42E4EE0F42E13
:103B800059E1C52E5EE0D52E68E0662E6EE0762EF9
:103B90007AE9A72E7EE0B72E3092BC008091BC005F
:103BA00087FFFCCF8091B900887F80936A078031BE
:103BB00029F08833F1F1883009F048C09F928F9244
:103BC0005F92DF93CF930E94060F4092BB0020923A
:103BD000BC000F900F900F900F900F908091BC0041
:103BE00087FFFCCF8091B900887F80936A071F927E
:103BF0008F93FF92EF925F92DF93CF930E94060F15
:103C000080916A072DB73EB7295F3F4F0FB6F894F2
:103C10003EBF0FBE2DBF803461F1883409F4A0C0CF
:103C2000883309F0B5C07F926F925F92DF93CF9394
:103C300005C0BF92AF925F92DF93CF930E94060FB1
:103C40000F900F900F900F900F90A6CF8CE79EE0F3
:103C50009F938F9384E08F9389E495E09F938F9354
:103C60000E94060F0F900F900F900F900F908FEF04
:103C700063C089E49EE09F938F935F92DF93CF931D
:103C80000E94060F84E88093BC000F900F900F9065
:103C90000F900F908091BC0087FFFCCF8091B900FE
:103CA000887F80936A071F928F938DED9DE09F938D
:103CB0008F9311E01F93C9E4D5E0DF93CF930E9467
:103CC000060F80916A072DB73EB7295F3F4F0FB6A9
:103CD000F8943EBF0FBE2DBF803589F0883509F0BE
:103CE00066C08CEB9DE09F938F931F93DF93CF93E0
:103CF0000E94060F0F900F900F900F900F90C091A1
:103D0000BB001F92CF938EE99DE09F938F9381E03C
:103D10008F9389E495E09F938F930E94060F2DB7B0
:103D20003EB7295F3F4F0FB6F8943EBF0FBE2DBF81
:103D300084E98093BC008C2F9FEFDF91CF911F917E
:103D40000F91FF90EF90DF90CF90BF90AF909F903A
:103D50008F907F906F905F904F903F902F9008953D
:103D60001F930F93DF92CF925F92DF93CF930E94C6
:103D7000060F0F5F1F4F8DB79EB707960FB6F894CB
:103D80009EBF0FBE8DBF0B30110509F470CF04CF5D
:103D900080EF9DE09F938F9384E08F93DF93CF9389
:103DA0000E94060F0F900F900F900F900F90CFEF83
:103DB000BFCF2F923F924F925F926F927F928F92DE
:103DC0009F92AF92BF92CF92DF92EF92FF920F93AA
:103DD0001F93CF93DF930F920F92CDB7DEB78983F6
:103DE000E62E880F8A8301E010E08AE8282E8DE015
:103DF000382EFF24F39498E4492E9DE0592E22EFAB
:103E0000622E2CE0722E31EE832E3CE0932E46EB98
:103E1000C42E4CE0D42E59E7A52E5DE0B52E24EA41
:103E20002093BC008091BC0087FFFCCF8091B9003B
:103E3000887F80936A07803131F0883309F4ABC002
:103E4000883009F0B7C03F922F92FF9289E495E045
:103E50009F938F930E94060F3A813093BB0084E8B2
:103E60008093BC000F900F900F900F900F90809157
:103E7000BC0087FFFCCF8091B900887F80936A07E0
:103E80001F928F935F924F92FF9229E435E03F9308
:103E90002F930E94060F80916A070FB6F894DEBF39
:103EA0000FBECDBF803209F498C0883309F4AEC08C
:103EB000883109F0B3C088E29DE09F938F93FF9211
:103EC00089E495E09F938F930E94060FE092BB00D8
:103ED00034E83093BC000F900F900F900F900F902C
:103EE0008091BC0087FFFCCF8091B900887F8093D0
:103EF0006A071F928F93DF92CF92FF9289E495E039
:103F00009F938F930E94060F80916A070FB6F894D3
:103F1000DEBF0FBECDBF803329F1883309F47FCFD8
:103F2000883209F08CC01F921F928CE99CE09F930D
:103F30008F93FF9289E495E09F938F930E94060FE1
:103F40001F92EF928DE79CE09F938F93FF9289E4FD
:103F500095E09F938F930E94060F0FB6F894DEBFF3
:103F60000FBECDBF80E094E99093BC000F900F90FE
:103F7000DF91CF911F910F91FF90EF90DF90CF9045
:103F8000BF90AF909F908F907F906F905F904F9079
:103F90003F902F900895BF92AF92FF9229E435E0B1
:103FA0003F932F930E94060F0F900F900F900F904A
:103FB0000F9035CF8BE59DE09F938F9384E08F9397
:103FC00089E495E09F938F930E94060F0F900F90C6
:103FD0000F900F900F908FEFC9CF1F930F931F92E9
:103FE00089818F937F926F92FF9229E435E03F930E
:103FF0002F930E94060F0F5F1F4F0FB6F894DEBF7E
:104000000FBECDBF0B30110531F309CF9F928F92B8
:10401000FF9289E495E09F938F93C4CF89EC9CE055
:104020009F938F9384E08F9389E495E09F938F9380
:104030000E94060F0F900F900F900F900F908FEF30
:1040400092CF60E00E94D91E84E70E94981D9927B4
:104050009F938F938FEB9EE09F938F9381E08F933D
:1040600089E495E09F938F930E94060F8DB79EB7CA
:1040700007960FB6F8949EBF0FBE8DBF80E00895DF
:1040800021E030E0A90102C0440F551F6A95E2F714
:10409000BA010C94D91E8F929F92AF92BF92CF9289
:1040A000DF92EF92FF920F931F93CF93DF9300D095
:1040B000CDB7DEB76C018AEA89831A821B8280E061
:1040C000F6011995FF24F39400E010E088E5A82E8E
:1040D0008FE0B82EEE24E39495E4892E95E0992E96
:1040E000002369F0E1E0F0E0EC0FFD1FE00FF11DAF
:1040F00007FDFA9580810E94681417C000E089814D
:104100000E946814182F803481F01F92FF921F9232
:104110008F93BF92AF92EF929F928F920E94060F61
:104120000FB6F894DEBF0FBECDBF0F5F0330C1F6F0
:10413000103431F0F3949AE0F912E0CF103611F414
:1041400010E016C01F92FF921F921F9384E39FE01E
:104150009F938F9384E08F9385E495E09F938F9353
:104160000E94060F0FB6F894DEBF0FBECDBF1FEF43
:1041700081E0F6011995812F0F900F900F90DF913C
:10418000CF911F910F91FF90EF90DF90CF90BF9054
:10419000AF909F908F9008952F923F924F925F9291
:1041A0006F927F928F929F92AF92BF92CF92DF9247
:1041B000EF92FF920F931F93CF93DF9300D00F9254
:1041C000CDB7DEB74C015B0119821A821B821C82BB
:1041D00080E0F401199503E010E0312C212C93E1EB
:1041E000692E9FE0792E25E4C22E25E0D22E32EFF3
:1041F000432E3EE0532E0330D9F5EE24E394F12C08
:104200001CC080EF0E946814382E1C82F0E48F17C7
:1042100089F0FF92EF921F928F937F926F9281E0CD
:104220008F93DF92CF920E94060F0FB6F894DEBFF5
:104230000FBECDBFFFEFEF1AFF0A80E4381611F171
:104240009AE0E916F104E9F61F929AE09F931F9213
:104250003F925F924F92E4E0EF93DF92CF920E9401
:10426000060F2A940FB6F894DEBF0FBECDBF0AC06A
:1042700080E00E946814E1E0F0E0EC0FFD1FE00F29
:10428000F11F80830150110908F0B5CFE980FA8051
:104290000B811C811F930F93FF92EF928EED9EE096
:1042A0009F938F9381E08F9385E495E09F938F9305
:1042B0000E94060FF501E082F1820283138381E000
:1042C000F40119950FB6F894DEBF0FBECDBF822D55
:1042D0000F900F900F900F90DF91CF911F910F9142
:1042E000FF90EF90DF90CF90BF90AF909F908F9016
:1042F0007F906F905F904F903F902F9008952F92F6
:104300003F924F925F926F927F928F929F92AF9265
:10431000BF92CF92DF92EF92FF920F931F93CF93B2
:10432000DF9300D000D00F92CDB7DEB76C837D83D2
:10433000880F8B8369837A83EE24E394F12C0EE556
:1043400015E027EA422E21E1522E38EE632E31E1AC
:10435000732E4CE7A42E41E1B42E50E6852E51E198
:10436000952E84EA8093BC008091BC0087FFFCCF2F
:104370008091B900887F80936A07803131F088335B
:1043800009F495C0883009F0A2C08AE492E19F93B5
:104390008F9381E08F931F930F930E94060F3B81B1
:1043A0003093BB0084E88093BC000F900F900F9077
:1043B0000F900F908091BC0087FFFCCF8091B900D7
:1043C000887F80936A071F928F9388E092E19F9382
:1043D0008F93DD24D394DF921F930F930E94060FD7
:1043E00080916A070FB6F894DEBF0FBECDBF803252
:1043F00009F481C0883309F496C0883109F097C068
:104400007F926F92DF921F930F930E94060F0F907F
:104410000F900F900F900F90CC24C394D12C222496
:104420002394CE82DF82E1E0F0E0EC0FFD1FEC0D83
:10443000FD1D80818093BB0024E82093BC00809107
:10444000BC0087FFFCCF8091B900887F80936A070A
:104450001F928F93BF92AF922F921F930F930E9440
:10446000060F80916A070FB6F894DEBF0FBECDBF6E
:10447000803309F488C0883309F473CF883209F097
:1044800065C03F813F938E818F939F928F922F9231
:104490001F930F930E94060F0FB6F894DEBF0FBE56
:1044A000CDBFCD2809F475C0D12CC12CBACF89E37A
:1044B00092E19F938F9381E08F931F930F930E94BC
:1044C000060F0F900F900F900F900F904ACF8BE137
:1044D00092E19F938F9384E08F938EE595E09F9375
:1044E0008F930E94060F0F900F900F900F900F90D8
:1044F00033243A942EC0FF92EF9288EB91E19F9380
:104500008F93DF921F930F930E94060F3FEFE31AE2
:10451000F30A0FB6F894DEBF0FBECDBF9BE0E916DD
:10452000F10431F31ECF5F924F92DF92C6CF8FE836
:1045300091E19F938F9384E08F931F930F930E9439
:10454000060F0F900F900F900F900F9084E98093BB
:10455000BC00832D27960FB6F894DEBF0FBECDBFEB
:10456000DF91CF911F910F91FF90EF90DF90CF904F
:10457000BF90AF909F908F907F906F905F904F9083
:104580003F902F90089580E491E19F938F932F9215
:10459000D4CF84EA8093BC008091BC0087FFFCCF1D
:1045A0008091B900887F80936A07803129F0883331
:1045B00009F4D7CE883051F683E291E19F938F932F
:1045C00081E08F931F930F930E94060F8B81816070
:1045D0008093BB0084E88093BC000F900F900F90F5
:1045E0000F900F908091BC0087FFFCCF8091B900A5
:1045F000887F80936A071F928F9380E191E19F9358
:104600008F9381E08F931F930F930E94060F8091E9
:104610006A070FB6F894DEBF0FBECDBF883309F42A
:10462000A0CE803409F092CF84E88093BC008091C2
:10463000BC0087FFFCCF8091B900887F80936A0718
:104640001F928F938DEF90E19F938F93FF24F394AC
:10465000FF920EE515E01F930F930E94060F8091C5
:104660006A070FB6F894DEBF0FBECDBF803589F064
:10467000883509F06BCF8CED90E19F938F93FF927B
:104680001F930F930E94060F0F900F900F900F90A3
:104690000F903090BB003D813F938C818F931F9290
:1046A0003F9283EC90E19F938F9381E08F938EE50F
:1046B00095E09F938F930E94060F0FB6F894DEBF8C
:1046C0000FBECDBF43CF2F923F924F925F926F921A
:1046D0007F928F929F92AF92BF92CF92DF92EF9292
:1046E000FF920F931F93CF93DF9300D000D00F92D0
:1046F0000F92CDB7DEB76C837D834B83880F8E839B
:1047000069837A83EE24E394F12C0EE515E02DE124
:10471000222E20E1322E3CE0432E30E1532E4DE498
:10472000642E40E1742E51EEA52E5FE0B52E65ECAF
:10473000862E6FE0962E84EA8093BC008091BC00A8
:1047400087FFFCCF8091B900887F80936A07803112
:1047500031F0883309F495C0883009F0A2C08FEA9F
:1047600090E19F938F9381E08F931F930F930E940B
:10477000060F3E813093BB0084E88093BC000F900D
:104780000F900F900F900F908091BC0087FFFCCF8F
:104790008091B900887F80936A071F928F938DE67E
:1047A00090E19F938F93DD24D394DF921F930F9317
:1047B0000E94060F80916A070FB6F894DEBF0FBE05
:1047C000CDBF803209F480C0883309F493C08831AA
:1047D00009F094C07F926F92DF921F930F930E9413
:1047E000060F0F900F900F900F900F90CC24C39452
:1047F000D12CCF82D886E1E0F0E0EC0FFD1FEC0D6C
:10480000FD1D80818093BB0024E82093BC00809133
:10481000BC0087FFFCCF8091B900887F80936A0736
:104820001F928F93BF92AF9231E03F931F930F93EC
:104830000E94060F80916A070FB6F894DEBF0FBE84
:10484000CDBF803309F4B5C0883309F474CF883202
:1048500009F063C038853F938F818F939F928F9229
:1048600091E09F931F930F930E94060F0FB6F89449
:10487000DEBF0FBECDBFCD2809F451C0D12CC12C55
:10488000B8CF8EE990E19F938F9381E08F931F9330
:104890000F930E94060F0F900F900F900F900F90A4
:1048A0004ACF80E890E19F938F9384E08F938EE5C9
:1048B00095E09F938F930E94060F0F900F900F909B
:1048C0000F900F908FEF79C0FF92EF923F922F924F
:1048D000DF921F930F930E94060F3FEFE31AF30A34
:1048E0000FB6F894DEBF0FBECDBF9BE0E916F10412
:1048F00049F321CF5F924F92DF92C9CF84EF9FE0BF
:104900009F938F9384E08F931F930F930E94060FC2
:104910000F900F900F900F900F908FEF4BC03B8137
:104920003093BB0084E88093BC008091BC0087FF7B
:10493000FCCF8091B900887F80936A071F928F9384
:1049400082EB9FE09F938F93DD24D394DF921F939C
:104950000F930E94060F80916A070FB6F894DEBF8E
:104960000FBECDBF803329F1883309F4E4CE8832FD
:10497000A1F61F921F9288E99FE09F938F93DF9289
:104980001F930F930E94060F3D813F938C818F935D
:104990001F929B819F938CE79FE09F938F93DF9261
:1049A0001F930F930E94060F0FB6F894DEBF0FBE41
:1049B000CDBF80E094E99093BC0028960FB6F894A0
:1049C000DEBF0FBECDBFDF91CF911F910F91FF9042
:1049D000EF90DF90CF90BF90AF909F908F907F909F
:1049E0006F905F904F903F902F900895E0E6F0E039
:1049F00080818860808388E19FE00FB6F894A89555
:104A0000809360000FBE9093600080E0089540E0C6
:104A100063E084E70E941B1C40E863E084E70C9499
:104A20001B1C813621F0823681F08FEF089580E0E3
:104A30000E944C2C61E081E70E94D91E91E0811117
:104A400001C090E0892F8195089581E0F1CF8136F2
:104A500011F40E94072580E008951F93CF93DF9300
:104A6000D62F172F0E941125C82F412F61E070E02B
:104A700080E50E9463234D2F70E060E080E50E9496
:104A800063238C2FDF91CF911F9108951F93CF93B4
:104A9000DF93D82F0E94112581112FC061E070E0B3
:104AA00080E50E947F21C82F70E060E080E50E94D1
:104AB0007F21182F682F7C2F8D2F0E94FC121F92B0
:104AC000DF93CF931F938EE592E19F938F9382E0C4
:104AD0008F9383EB93E09F938F930E94060F8DB784
:104AE0009EB709960FB6F8949EBF0FBE8DBF812F5B
:104AF0009C2FDF91CF911F91089570E060E08D2F82
:104B00000E94FC121F92DF938BE792E19F938F9399
:104B100084E08F9383EB93E09F938F930E94060F23
:104B20008DB79EB707960FB6F8949EBF0FBE8DBF88
:104B300010E0C0E0DCCFFC016081718181E60E9461
:104B40002D2587FF03C08DEF0C942F0C0C941E0CA9
:104B5000FC016081718182E60E942D2587FF03C0E0
:104B60008DEF0C942F0C0C941E0C0E94191321E055
:104B7000892B09F420E0822F0895CF9381E60E94CB
:104B8000B525882309F444C080E00E944C2CC82F2E
:104B900040EF66E084E70E941B1C40E066E084E78B
:104BA0000E941B1C40EF62E084E70E941B1C4FE741
:104BB00067E084E70E941B1C40E863E084E70E94F2
:104BC0001B1C0E94072582E60E94B5258823C9F197
:104BD00081E00E944C2CC80F40EF66E084E70E9401
:104BE0001B1C40E066E084E70E941B1C40EF62E073
:104BF00084E70E941B1C4FE767E084E70E941B1CB0
:104C000040E863E084E70E941B1C8C2FCF9108953D
:104C10001F9281E68F938FEA92E19F938F9384E0B6
:104C20008F9383EB93E09F938F930E94060F8DB732
:104C30009EB707960FB6F8949EBF0FBE8DBFCFEFFD
:104C4000C2CF1F9282E48F9385E992E19F938F9365
:104C500084E08F9383EB93E09F938F930E94060FE2
:104C6000C1508DB79EB707960FB6F8949EBF0FBE82
:104C70008DBFCBCF81E60E94B525811103C08DEF9A
:104C80000C942F0C81E60E94462529EE33E03F93D9
:104C90002F939F938F9384E895E09F938F931F9218
:104CA0000E94AB0D8DB79EB707960FB6F8949EBFC6
:104CB0000FBE8DBF089582E60E94B525811103C005
:104CC0008DEF0C942F0C82E60E94462529EE33E0EE
:104CD0003F932F939F938F9384E895E09F938F93B7
:104CE0001F920E94AB0D8DB79EB707960FB6F89432
:104CF0009EBF0FBE8DBF0895CF93DF93EB01815010
:104D00008830A0F4E82FF0E08827EA58FD4C8F4F58
:104D10000C944E2D0E940D16AE0163E082ED95E1DC
:104D20000E945C16D093E405C093E30580E0DF9118
:104D3000CF9108950E940016AE0163E082ED95E1E7
:104D40000E945C16D093E605C093E505EFCF0E9464
:104D5000E615AE0163E082ED95E10E945C16D0930A
:104D6000E805C093E705E2CF0E94F315AE0163E0CA
:104D700082ED95E10E945C16D093EA05C093E905A7
:104D8000D5CF0E940D16AE0163E08CED95E10E9437
:104D90005C16D093EC05C093EB05C8CF0E940016BB
:104DA000AE0163E08CED95E10E945C16D093EE05B8
:104DB000C093ED05BBCF0E94E615AE0163E08CED1C
:104DC00095E10E945C16D093F005C093EF05AECF3D
:104DD0000E94F315AE0163E08CED95E10E945C1634
:104DE000D093F205C093F105A1CFCF93DF93EC01EF
:104DF00081E60E94B525882349F06881798181E0A8
:104E00000E947C26DF91CF910C941E0C8DEFDF91D8
:104E1000CF910C942F0CCF93DF93EC0181E60E948D
:104E2000B525882349F06881798182E00E947C263B
:104E3000DF91CF910C941E0C8DEFDF91CF910C94EC
:104E40002F0CCF93DF93EC0181E60E94B5258823D8
:104E500049F06881798183E00E947C26DF91CF91BF
:104E60000C941E0C8DEFDF91CF910C942F0CCF93EF
:104E7000DF93EC0181E60E94B525882349F0688123
:104E8000798184E00E947C26DF91CF910C941E0CE6
:104E90008DEFDF91CF910C942F0CCF93DF93EC012A
:104EA00082E60E94B525882349F06881798185E0F2
:104EB0000E947C26DF91CF910C941E0C8DEFDF9128
:104EC000CF910C942F0CCF93DF93EC0182E60E94DC
:104ED000B525882349F06881798186E00E947C2687
:104EE000DF91CF910C941E0C8DEFDF91CF910C943C
:104EF0002F0CCF93DF93EC0182E60E94B525882327
:104F000049F06881798187E00E947C26DF91CF910A
:104F10000C941E0C8DEFDF91CF910C942F0CCF933E
:104F2000DF93EC0182E60E94B525882349F0688171
:104F3000798188E00E947C26DF91CF910C941E0C31
:104F40008DEFDF91CF910C942F0CDC01ED91FC9152
:104F5000CF010197089718F08BEF0C942F0C89EE76
:104F600093E09F938F93E150F0E0EE0FFF1FED5120
:104F7000FA4F81818F9380818F9384E895E09F938E
:104F80008F931F920E94AB0D8DB79EB707960FB6F9
:104F9000F8949EBF0FBE8DBF08958150883070F485
:104FA000E82FF0E08827E258FD4C8F4F0C944E2DEF
:104FB0000E94411682ED95E10E944B2086E69EE01C
:104FC0000197F1F7000080E008950E943416F2CFB7
:104FD0000E941A16EFCF0E942716ECCF0E944116AE
:104FE0008CED95E1E9CF0E943416FACF0E941A1693
:104FF000F7CF0E942716F4CF813649F0823671F040
:1050000086E69EE00197F1F7000080E008950E9497
:105010004E1682ED95E10E944B20F2CF0E944E1673
:105020008CED95E1F8CFCF93DF93C1E0D0E08C2FEA
:105030000E94CD27D80FCF5FC930C9F781E60E9403
:10504000FC27C82F82E60E94FC278C0F8D0FDF9172
:10505000CF910895CF93DF93EB018150883078F49E
:10506000E82FF0E08827EA57FD4C8F4F0C944E2D27
:105070000E944116BE0182ED95E10E94CC2080E0A5
:10508000DF91CF9108950E943416F4CF0E941A1632
:10509000F1CF0E942716EECF0E944116BE018CED83
:1050A00095E1EBCF0E943416F9CF0E941A16F6CF85
:1050B0000E942716F3CFCF93DF93EB01813631F0B7
:1050C000823661F080E0DF91CF9108950E944E1604
:1050D000BE0182ED95E10E94CC20F4CF0E944E16D5
:1050E000BE018CED95E1F7CF0E94132860E081E0CE
:1050F0000C947B15FC01808191818130910529F010
:10510000029719F18BEF0C942F0C89EE93E09F938B
:105110008F9380916E068F9380916D068F9380910F
:105120006C068F9380916B068F9382E995E09F9335
:105130008F931F920E94AB0D8DB79EB709960FB645
:10514000F8949EBF0FBE8DBF089589EE93E09F93A4
:105150008F93809172068F93809171068F938091C7
:1051600070068F9380916F068F9382E995E09F93ED
:105170008F931F920E94AB0DEDB7FEB739960FB615
:10518000F894FEBF0FBEEDBF0895FC0180819181B0
:105190008130910529F0029719F18BEF0C942F0CB7
:1051A00089EE93E09F938F9380911E068F93809159
:1051B0001D068F9380911C068F9380911B068F9301
:1051C00082E995E09F938F931F920E94AB0D8DB75C
:1051D0009EB709960FB6F8949EBF0FBE8DBF089577
:1051E00089EE93E09F938F93809122068F93809115
:1051F00021068F93809120068F9380911F068F93B5
:1052000082E995E09F938F931F920E94AB0DEDB7BB
:10521000FEB739960FB6F894FEBF0FBEEDBF0895E6
:10522000DC01ED91FC91CF010197089718F08BEF0D
:105230000C942F0C89EE93E09F938F93E150B4E090
:10524000EB9FF0011124ED58F94F83818F938281F8
:105250008F9381818F9380818F9382E995E09F93D3
:105260008F931F920E94AB0D8DB79EB709960FB614
:10527000F8949EBF0FBE8DBF0895DC01ED91FC91A7
:10528000CF010197089718F08BEF0C942F0C89EE43
:1052900093E09F938F93E150B4E0EB9FF0011124D2
:1052A000ED5DF94F83818F9382818F9381818F93FD
:1052B00080818F9382E995E09F938F931F920E9444
:1052C000AB0D8DB79EB709960FB6F8949EBF0FBE73
:1052D0008DBF0895AF92BF92CF92DF92EF92FF926F
:1052E0000F931F93CF93DF93CB01BA016A5979498A
:1052F000894191092DEF33E941E050E00E94AE2D44
:10530000ECECAE2EFCECBF2EACECCA2ED12CE12C7A
:10531000F12C00E010E00E940C2E8901D42FC52F43
:105320009F938F937F936F935F934F931F932F93CD
:105330008BEE92E19F938F9381E08F9389E695E0C6
:105340009F938F930E94060FB8018D2F9C2F2DB72E
:105350003EB7235F3F4F0FB6F8943EBF0FBE2DBF41
:10536000DF91CF911F910F91FF90EF90DF90CF9041
:10537000BF90AF9008958F929F92AF92BF92CF92BD
:10538000DF92EF92FF920F931F93CF93DF938150A1
:1053900000E010E09801C12CD12C7601812C912CD9
:1053A0005401883088F40DEF13E921E030E086E6FF
:1053B000C82EDC2C86EEE82EF12C9AE9892E99E98C
:1053C000992E99E1A92EB12CCB01BA01681979095E
:1053D0008A099B09A90198010E94AE2DD22FC32FE3
:1053E000C818D908EA08FB0856016701E12CF12C1E
:1053F00000E010E02D2F3C2F0E940C2E8901D42FAD
:10540000C52F9F938F937F936F935F934F931F93BA
:105410002F9389EC92E19F938F9381E08F9389E69C
:1054200095E09F938F930E94060FB8018D2F9C2FBC
:105430002DB73EB7235F3F4F0FB6F8943EBF0FBE68
:105440002DBFDF91CF911F910F91FF90EF90DF90D3
:10545000CF90BF90AF909F908F900895AF92BF92E2
:10546000CF92DF92EF92FF920F931F93CF9383E738
:10547000C82E86E0D82E9BE4E92E96E0F92E23E292
:10548000A22E26E0B22EC1E0B7018C2F0E942A285E
:10549000F60121913191419151916F01F7016081A4
:1054A000718182819381F4E0EF0EF11C0FEF1FEF09
:1054B0000E94F02AAB01BC01F6013497408351836E
:1054C000628373838C2F0E94BB29F50161937193D2
:1054D000819391935F0186E69EE00197F1F70000CA
:1054E000CF5FC93089F60E944E1663E476E082ED04
:1054F00095E10E94CC2020916B0630916C06409182
:105500006D0650916E06609143067091440680913D
:105510004506909146060E94F02A60936B067093B0
:105520006C0680936D0690936E06E6E6FEE031977A
:10553000F1F7000040916B0650916C0660916D068A
:1055400070916E0681E60E946A2960931B06709333
:105550001C0680931D0690931E0686E69EE001972A
:10556000F1F7000067E476E082E60E945B28209174
:105570006F063091700640917106509172066091ED
:105580004706709148068091490690914A060E940C
:10559000F02AAB01BC0140936F06509370066093F4
:1055A00071067093720682E60E946A2960931F0654
:1055B000709320068093210690932206E6E6FEE093
:1055C0003197F1F7000062E081E0CF911F910F91D8
:1055D000FF90EF90DF90CF90BF90AF900C947B1531
:1055E0002F923F924F925F926F927F928F929F92F3
:1055F000AF92BF92CF92DF92EF92FF920F931F93E1
:10560000CF93DF9300D000D000D00F920F92CDB790
:10561000DEB76D837E838F8398872801712C612C80
:105620008FEF9FEFA0E0B0E084199509A609B709B4
:105630007C018D01110FEE08FE2C8701E982FA82B0
:105640000B831C83890158016A01E12CF12C00E0D5
:1056500010E09C01AD016981762F862F962F0E9464
:10566000562D298339871A014B018B879A87C301ED
:10567000B2012D813E814F8158850E94AE2D305858
:105680004F4F5F4F6F4F7F4F8F4F9F4F59016A01B1
:105690007B018C0129813985A101B4018B859A8513
:1056A0000E94CD2E00E10E94B22EB901CA012B96B4
:1056B0000FB6F894DEBF0FBECDBFDF91CF911F9123
:1056C0000F91FF90EF90DF90CF90BF90AF909F90A1
:1056D0008F907F906F905F904F903F902F900895A4
:1056E00066E080E70E94D91E8823E1F083E993E118
:1056F0009F938F9384E08F9389EB93E09F938F9395
:105700000E94060F0F900F900F900F900F9061E086
:1057100083E70E94D91E91E0811101C090E0892F9A
:105720008195089581E793E19F938F9381E0E3CF83
:105730000E94702B8823C1F090E080E00E94091342
:1057400089E593E19F938F9384E08F9389EB93E0B6
:105750009F938F930E94060F0F900F900F900F90C2
:105760000F9090E080E0089581E090E00E9409139E
:1057700085E493E19F938F9382E08F9389EB93E08D
:105780009F938F930E94060F0F900F900F900F9092
:105790000F9081E090E008950E94251321E0892B6D
:1057A00009F420E0822F0895CF935D9A559A0E94C4
:1057B000CC2B882389F082E00E944C2CC82F40EC2F
:1057C00066E084E70E941B1C40EC62E084E70E94D4
:1057D0001B1C8C2FCF91089580EB93E19F938F93A7
:1057E00084E08F9389EB93E09F938F930E94060F41
:1057F0000F900F900F900F900F90CFEFEACFCF93B5
:10580000DF93D82F0E94CC2B882399F182E00E944D
:105810004C2CC82F62E084E70E94461ADD2329F150
:10582000D13029F1482F62E084E70E941B1C62E01E
:1058300084E70E94461A1F928F9385E293E19F931B
:105840008F9381E08F9389EB93E09F938F930E94D6
:10585000060F8DB79EB707960FB6F8949EBF0FBE82
:105860008DBF8C2FDF91CF9108958E7FDBCF81602C
:10587000D9CF8DE093E19F938F9384E08F9389EB51
:1058800093E09F938F930E94060F0F900F900F90BD
:105890000F900F90CFEFE5CFCF93DF93D82F8130CC
:1058A000C9F0882359F0C0E08230E1F566E080E776
:1058B0000E94D91EC82F8EED93E107C064E080E7F7
:1058C0000E94D91EC82F83E094E19F938F9381E0BB
:1058D0008F930AC065E080E70E94D91EC82F80EF31
:1058E00093E19F938F93DF9380EC93E09F938F934B
:1058F0000E94060F0F900F900F900F900F90CC23E7
:1059000089F088EC93E19F938F9384E08F9380ECF0
:1059100093E09F938F930E94060F0F900F900F902C
:105920000F900F908C2FDF91CF91089578940E9463
:10593000DE100E94F62481E00E944A110E949E140B
:105940000E94EF0D0E942E0E0E94A3150E942B14A0
:105950000E94580E8BE593E00E94B30F82E693E01D
:105960000E94B30F8CE693E00E94B30F83E793E0AD
:105970000E94B30F8BE793E00E94B30F82E893E09D
:105980000E94B30F8AE893E00E94B30F8EE893E081
:105990000E94B30F85E993E00E94B30F89E993E079
:1059A0000E94B30F81EA93E00E94B30F89EA93E06B
:1059B0000E94B30F8EEA93E00E94B30F83EB93E053
:1059C0000E94B30F89EB93E00E94B30F80EC93E049
:1059D0000E94B30F0E9498140E94E0100E94D42BE2
:1059E0000E94A9140E94BD250E94D42B8091000220
:1059F000909101020E940A0B8AEC93E09F938F938F
:105A000084EA92E09F938F9382E08F938EEA93E0F3
:105A10009F938F930E94060F0E94561140E064E10D
:105A200070E084E798E20E94081542E06FE070E0C1
:105A30008EE29AE20E9408158DB79EB707960FB6C0
:105A4000F8949EBF0FBE8DBFC0E9D2E084E0F82E6F
:105A50000EEA13E0E0913C03F0913D038381853031
:105A600088F01F928F93DF93CF93FF921F930F9332
:105A70000E94060F8DB79EB707960FB6F8949EBF8B
:105A80000FBE8DBF0E94471564E072E08091000256
:105A9000909101020E94490CA895DCCFEE0FFF1FE8
:105AA000881F8BBF0790F691E02D1994DF93CF9359
:105AB0001F930F939A9DF02D219FF00D8B9DF00D5C
:105AC0008A9DE02DF10D039FF00D029FE00DF11D69
:105AD0004E9DE00DF11D5E9DF00D4F9DF00D7F93ED
