:100000000C94B8080C94D9080C94D9080C94D9080D
:100010000C94D9080C94D9080C94D9080C94D908DC
:100020000C94D9080C94D9080C94D9080C94D908CC
:100030000C94D9080C94D9080C94D9080C94D908BC
:100040000C94D9080C94D9080C94D9080C94BB1BB7
:100050000C94D9080C94D9080C94D9080C94D9089C
:100060000C94D9080C94010A0C94D9080C94D90862
:100070000C94D9080C94D9080C94D9080C94D9087C
:100080000C94D9080C94D9080C94D9080C94D9086C
:100090000C94D9080C94D9080C94D9080C94D9085C
:1000A0000C94D9080C94D9080C94D9080C94D9084C
:1000B0000C94D9080C94D9080C94D9080C94D9083C
:1000C0000C94D9080C94D9080C94D9080C94D9082C
:1000D0000C94D9080C94D9080C94D9080C94D9081C
:1000E0000C94D9080C9477380C9467390C94042537
:1000F0000C9464250C94EC3B0C946C370C941E3FD0
:100100000C94A7190C94C7380C94FE3A0C94131F46
:100110000C949A170C94BE3E0C94EE3E0C94EF385F
:100120000C94333C0C943F390C9438110C94F03AF5
:100130000C947A3C0C9477110C94063F0C949F38E5
:100140000C94763E0C9442370C94A6160C94C5166B
:100150000C94A63E0C9417390C94B7390C948F3933
:100160000C9473150C94F5250C948E3E0C949925E3
:100170000C94DE1E0C94D6190C9468170C94741E03
:100180000C94D7100C94D63E0C9450240C94CF3C75
:10019000746F70617A5F69735F636F6E6E656374AD
:1001A00065642072657475726E73202564004669FB
:1001B000726D776172652076657273696F6E206902
:1001C00073202573004261642073797374656D2018
:1001D0007374617465202564005265636569766592
:1001E00064206120636F6D6D616E64207465726D53
:1001F000696E61746F7200436F6D6D616E64207023
:10020000726F6365737320737065656420657272C5
:100210006F72210050617273652062756666657247
:1002200020636F6E7461696E732027257327002524
:100230006320203C2D2D20636F7069656420746FEE
:100240002072656365697665206275666665722EE3
:100250002020526563656976656420636F756E74EE
:1002600020697320256400526563656976656420A2
:10027000636861726163746572206E756D62657228
:100280002061626F7665206C696D697400417267E8
:10029000756D656E742073697A65206973202564B5
:1002A00000546865207061727365206275666665CA
:1002B00072206973206C6F636B65642E00546865EF
:1002C00020636F6D6D616E6420636F6E7461696E23
:1002D0007320612073706163652E0054686520632C
:1002E0006F6D6D616E64277320617267756D656EE9
:1002F0007420697320272573272E00436F6D6D616D
:100300006E642027257327207265636F676E697A94
:1003100065642E00417267756D656E7420746F2080
:1003200027257327206973206F7574206F662072EC
:10033000616E67652E00417267756D656E7420741D
:100340006F20272573272069732077697468696E89
:10035000206C696D6974732E0049676E6F72696EE7
:100360006720617267756D656E7420666F722063B9
:100370006F6D6D616E6420272573272E00556E7298
:1003800065636F676E697A656420636F6D6D616E1A
:10039000643A20272573272E0045786563757469B4
:1003A0006E6720636F6D6D616E642077697468207D
:1003B0006E6F20617267756D656E742E004578658D
:1003C000637574696E6720636F6D6D616E6420770D
:1003D0006974682068657820617267756D656E74F0
:1003E0002E0054686520617267756D656E742076A5
:1003F000616C75652069732025752E0045786563ED
:100400007574696E6720636F6D6D616E64207769C6
:10041000746820756E7369676E656420696E7420F8
:10042000617267756D656E742E00457865637574CD
:10043000696E6720636F6D6D616E642077697468A3
:10044000207369676E656420696E742061726775D8
:100450006D656E742E004E6F2068616E646C6572FF
:100460002073706563696669656420666F72202514
:100470007320617267756D656E742E004C6F6767CF
:10048000696E672073657420746F206C6576656C87
:10049000202569004C6F67206C6576656C2025759A
:1004A000206973206E6F74207265636F676E697A5E
:1004B00065642E004C6F6767657220656E61626CC3
:1004C0006520726567697374657220736574207442
:1004D0006F2025752E0025750D0A004E6F77206C54
:1004E0006F6767696E672073797374656D20257314
:1004F0000053797374656D202573206E6F742066C8
:100500006F756E64005069636172726F2C426F7810
:1005100065722C534E25752C257300546F70617ACB
:1005200020412073657269616C206E756D62657221
:1005300020697320256900537461746520636861C4
:100540006E676520494E495420746F205354414EC4
:10055000444259005374617465206368616E676535
:1005600020434F4E54524F4C20746F205354414EF1
:1005700044425900456E746572207374616E646202
:10058000792066726F6D206261642073797374657F
:100590006D20737461746520256400537461746503
:1005A000206368616E6765205354414E4442592070
:1005B000746F20434F4E54524F4C00456E74657219
:1005C00020636F6E74726F6C2066726F6D20626153
:1005D000642073797374656D20737461746520256C
:1005E000640057726F746520256920746F20616400
:1005F0006472657373202569005265616420256902
:100600002066726F6D206164647265737320256962
:100610000057726974696E672073657269616C2036
:100620006E756D626572202575004C6F6164696E30
:10063000672073657269616C206E756D62657220EA
:1006400025750057726974696E6720736C6F74202A
:100650004944202575004C6F6164696E6720736C96
:100660006F742049442025750053504920636F6EF4
:1006700074726F6C20726567697374657220697338
:100680002030782578004661696C656420746F209D
:10069000736574206D6173746572206D6F6465009D
:1006A00057726F7465203078257800526561642038
:1006B0003078257800496E697469616C697A696E71
:1006C00067206D6574726F6E6F6D650057726F7421
:1006D00065203078257800537461727420636F6EE2
:1006E000646974696F6E2073657400417262697425
:1006F000726174696F6E206C6F737400436F756CF8
:1007000064206E6F7420736574207374617274203A
:10071000636F6E646974696F6E0054574920737417
:1007200061747573206973203078257800534C41CB
:100730002B57207472616E736D69747465642C201C
:1007400041434B20726563656976656400534C4193
:100750002B57207472616E736D69747465642C20FC
:100760004E41434B2072656365697665642061661E
:100770007465722025752074726965730041726218
:100780006974726174696F6E206C6F737400436F6B
:10079000756C64206E6F742073656C65637420647F
:1007A0006576696365005457492073746174757385
:1007B000206973203078257800536C61766520417C
:1007C000434B656420696E737472756374696F6EF0
:1007D00020307825780054574920737461747573FC
:1007E000206973203078257800536C61766520414C
:1007F000434B6564206461746120627974652025CF
:10080000752E0057726F7465203078257800546F0C
:1008100070617A202563206973206E6F7420636F86
:100820006E6E656374656400546F70617A20256331
:10083000206973206E6F7420636F6E6E65637465DC
:100840006400546F70617A202563206973206E6F95
:100850007420636F6E6E656374656400546F7061BD
:100860007A202563206973206E6F7420636F6E6E2B
:1008700065637465640053657420737461727420D9
:10088000636F6E646974696F6E004172626974723D
:100890006174696F6E206C6F737400436F756C6464
:1008A000206E6F742073657420737461727420639A
:1008B0006F6E646974696F6E005457492073746178
:1008C000747573206973203078257800534C412B60
:1008D00057207472616E736D69747465642C204165
:1008E000434B20726563656976656400534C412B08
:1008F00057207472616E736D69747465642C204E38
:1009000041434B2072656365697665642061667456
:100910006572202575207472696573004172626981
:1009200074726174696F6E206C6F737400436F75BD
:100930006C64206E6F742073656C656374206465ED
:100940007669636500545749207374617475732028
:100950006973203078257800446174612074726175
:100960006E736D69747465642C2041434B2072650D
:100970006365697665640044617461207472616EB8
:10098000736D69747465642C204E41434B2072650D
:10099000636569766564005365742072657065618E
:1009A00074656420737461727420636F6E6469741B
:1009B000696F6E00545749207374617475732069B0
:1009C000732030782578005457492073746174750A
:1009D000732069732030782578004E41434B207294
:1009E000656365697665642061667465722064611B
:1009F000746120726571756573740052656164205D
:100A000025752066726F6D207265676973746572F3
:100A100020257500537461727420636F6E6469746D
:100A2000696F6E20736574004172626974726174DB
:100A3000696F6E206C6F737400436F756C64206E09
:100A40006F742073657420737461727420636F6EA9
:100A5000646974696F6E00545749207374617475CA
:100A600073206973203078257800534C412B572030
:100A70007472616E736D69747465642C2041434BAC
:100A800020726563656976656400534C412B57207D
:100A90007472616E736D69747465642C204E414389
:100AA0004B20726563656976656420616674657262
:100AB00020257520747269657300417262697472D1
:100AC0006174696F6E206C6F737400436F756C6432
:100AD000206E6F742073656C65637420646576693D
:100AE000636500545749207374617475732069738A
:100AF000203078257800536C6176652041434B6542
:100B000064206164647265737320307825780054C2
:100B10005749207374617475732069732030782588
:100B20007800536C6176652041434B6564206461B5
:100B3000746120627974652025752E0057726F7478
:100B400065203078257820746F207265676973742A
:100B50006572203078257800436F6E74726F6C2058
:100B6000726567697374657220636F6E7461696E14
:100B70007320307825780053657420737461727423
:100B800020636F6E646974696F6E0041726269748C
:100B9000726174696F6E206C6F737400436F756C53
:100BA00064206E6F74207365742073746172742096
:100BB000636F6E646974696F6E0054574920737473
:100BC00061747573206973203078257800534C4127
:100BD0002B52207472616E736D69747465642C207D
:100BE00041434B20726563656976656400534C41EF
:100BF0002B52207472616E736D69747465642C205D
:100C00004E41434B20726563656976656420616679
:100C10007465722025752074726965730041726273
:100C20006974726174696F6E206C6F737400436FC6
:100C3000756C64206E6F742073656C6563742064DA
:100C400065766963650054574920737461747573E0
:100C50002069732030782578004E41434B2072651F
:100C60006365697665642061667465722064617489
:100C70006120726571756573740052656164202529
:100C8000752066726F6D20636F6E74726F6C207268
:100C90006567697374657200537461727420636F61
:100CA0006E646974696F6E20736574004172626965
:100CB00074726174696F6E206C6F737400436F752A
:100CC0006C64206E6F742073657420737461727429
:100CD00020636F6E646974696F6E005457492073A6
:100CE0007461747573206973203078257800534CD3
:100CF000412B57207472616E736D69747465642C36
:100D00002041434B20726563656976656400534CEE
:100D1000412B572073656E742C20676F74204E41F1
:100D2000434B2066726F6D2061646472657373203B
:100D3000307825782061667465722025752074727C
:100D4000696573004172626974726174696F6E20C3
:100D50006C6F737400436F756C64206E6F742073D6
:100D6000656C6563742064657669636500545749F2
:100D7000207374617475732069732030782578004E
:100D8000536C6176652041434B65642064617461F6
:100D900020627974652025752E0057726F74652066
:100DA0003078257820746F20636F6E74726F6C20BA
:100DB000726567697374657200496E697469616C04
:100DC000697A696E672073656E736F720050726521
:100DD000737375726520636F6465203078256C7855
:100DE0000053657420737461727420636F6E64695C
:100DF00074696F6E004172626974726174696F6EBA
:100E0000206C6F737400436F756C64206E6F742078
:100E100073657420737461727420636F6E64697497
:100E2000696F6E005457492073746174757320693B
:100E300073203078257800534C412B572074726111
:100E40006E736D69747465642C2041434B20726528
:100E500063656976656400534C412B572074726159
:100E60006E736D69747465642C204E41434B20721F
:100E700065636569766564206166746572202575B1
:100E80002074726965730041726269747261746979
:100E90006F6E206C6F737400436F756C64206E6F9F
:100EA000742073656C65637420646576696365009E
:100EB00054574920737461747573206973203078B6
:100EC000257800536C6176652041434B6564206151
:100ED00064647265737320627974652025750044BB
:100EE000617461207472616E736D69747465642CD1
:100EF000204E41434B2072656365697665640053FB
:100F000065742072657065617465642073746172C4
:100F10007420636F6E646974696F6E005457492062
:100F20007374617475732069732030782578005468
:100F30005749207374617475732069732030782564
:100F400078004E41434B2072656365697665642085
:100F50006166746572206461746120726571756583
:100F6000737400526561642025752066726F6D2070
:100F700072656769737465722025750053746172B8
:100F80007420636F6E646974696F6E20736574009A
:100F90004172626974726174696F6E206C6F7374F0
:100FA00000436F756C64206E6F74207365742073DA
:100FB0007461727420636F6E646974696F6E00543B
:100FC00057492073746174757320697320307825D4
:100FD0007800534C412B57207472616E736D6974A5
:100FE0007465642C2041434B2072656365697665A6
:100FF0006400534C412B57207472616E736D697499
:101000007465642C204E41434B207265636569769C
:101010006564206166746572202575207472696547
:1010200073004172626974726174696F6E206C6FD3
:10103000737400436F756C64206E6F742073656CFD
:10104000656374206465766963650054574920734D
:101050007461747573206973203078257800536C3F
:101060006176652041434B656420616464726573F9
:101070007320627974652025750054574920737474
:1010800061747573206973203078257800536C6122
:1010900076652041434B6564206461746120627908
:1010A00074652025752E0057726F74652030782581
:1010B0007820746F20726567697374657220307868
:1010C000257800546F70617A202563206973206E43
:1010D0006F7420636F6E6E656374656400546F7027
:1010E000617A202563206973206E6F7420636F6EB0
:1010F0006E656374656400466F756E642073657217
:1011000069616C20257520666F7220626F61726460
:10111000202563004F6C642070726573737572656F
:1011200020636F6465203078256C7800436F6E769D
:101130006572746564207072657373757265206979
:101140007320256C752050617363616C7300436F6D
:101150006E766572746564207072657373757265FE
:1011600020697320256C752050617363616C730076
:1011700011241FBECFEFD1E2DEBFCDBF00E00CBF18
:1011800016E0A0E0B2E0E2EFFDE800E00BBF02C035
:1011900007900D92AC36B107D9F728E0ACE6B6E07F
:1011A00001C01D92AF33B207E1F70E94DB080C9437
:1011B000EF460C940000CF93DF9300D00F920F9274
:1011C000CDB7DEB778940E9427150E94BE3581E026
:1011D0000E94B1150E94F21A0E94E20F0E948C1028
:1011E0000E94001E0E94001A0E943E1287E393E0B4
:1011F0000E94A6118EE393E00E94A61188E493E07A
:101200000E94A6118FE493E00E94A61187E593E067
:101210000E94A6118BE593E00E94A61182E693E05E
:101220000E94A6118AE693E00E94A6118EE693E042
:101230000E94A61187E793E00E94A61182E893E03E
:101240000E94A61189E893E00E94A6118DE893E020
:101250000E94A61181E993E00E94A61189E993E01A
:101260000E94A61181EA93E00E94A61186EA93E00B
:101270000E94A6118BEA93E00E94A61181EB93E0F5
:101280000E94A6110E94E11A0E9438150E94381B84
:1012900081E60E94E53581E60E94FA3789838981DB
:1012A000282F30E080E991E0432F4F932F93292F8F
:1012B0002F938F9381E08F9386EA93E0892F8F930A
:1012C00086EA93E08F930E944F128DB79EB70796E0
:1012D0000FB6F894DEBF0FBECDBF84E79EE10E943B
:1012E000712F80910002909101020E943F0B8EEAC3
:1012F00091E02AEB33E0232F2F932AEB33E02F9357
:10130000292F2F938F9382E08F9386EA93E0892F82
:101310008F9386EA93E08F930E944F12EDB7FEB74A
:1013200037960FB6F894DEBF0FBECDBF0E94D5151D
:101330001B821A821D821C828AE090E09B838A8332
:1013400088E090E09D838C838A819B8140E0BC0192
:1013500080EF9AE30E94F11B8C819D8142E0BC01E9
:101360008EEF9AE30E94F11B80912103909122035A
:10137000FC018381882F90E08130910579F18230E2
:1013800091051CF4892B61F105C08230910551F162
:10139000039751F18091210390912203FC018381F5
:1013A000282F30E085EC91E0432F4F932F93292F86
:1013B0002F938F9384E08F9386EA93E0892F8F9306
:1013C00086EA93E08F930E944F128DB79EB70796DF
:1013D0000FB6F894DEBF0FBECDBF07C0000005C03A
:1013E000000003C0000001C0000080910002909145
:1013F000010262E072E00E94DC0B0E94041DA895CD
:10140000B3CF1F920F920FB60F9211240BB60F920B
:101410002F933F934F935F936F937F938F939F93FC
:10142000AF93BF93EF93FF93CF93DF93CDB7DEB727
:10143000F89426EC30E08091000290910102FC01CA
:1014400084899589F9012081FC0120838091000223
:1014500090910102FC0184899589FC0180818D3085
:1014600009F089C089ED91E0292F2F938F931F9266
:101470008BE593E0892F8F938BE593E08F930E9408
:101480004F120F900F900F900F900F9080910002CD
:1014900090910102FC0184A5882311F47894DAC0AC
:1014A0008091000290910102FC0185A58823E9F05A
:1014B00087EF91E0292F2F938F9384E08F938BE513
:1014C00093E0892F8F938BE593E08F930E944F12C7
:1014D0000F900F900F900F900F90809100029091BD
:1014E00001020E94BB0B7894B5C0809100029091DC
:1014F0000102FC0184899589FC011082809100021F
:10150000909101029C018091000290910102469607
:10151000B9010E949143809100029091010221E063
:10152000FC0125A780910002909101029C012A5E96
:101530003F4F84E192E0432F4F932F93292F2F9316
:101540008F931F928BE593E0892F8F938BE593E028
:101550008F930E944F128DB79EB707960FB6F894DF
:10156000DEBF0FBECDBF80910002909101020E94AC
:10157000BB0B78946FC08091000290910102FC0136
:1015800024A52F5FFC0124A7809100029091010205
:10159000FC0184A5482F50E0809100029091010247
:1015A000FC0184899589FC018081282F30E08FE23D
:1015B00092E0652F6F934F93432F4F932F93292FD3
:1015C0002F938F931F928BE593E0892F8F938BE559
:1015D00093E08F930E944F128DB79EB709960FB676
:1015E000F894DEBF0FBECDBF809100029091010242
:1015F000FC0184A5833100F187E692E0292F2F9327
:101600008F9384E08F938BE593E0892F8F938BE505
:1016100093E08F930E944F120F900F900F900F90B6
:101620000F908CEF0E94CC0E8091000290910102ED
:101630000E94BB0B78940EC0809100029091010231
:10164000FC01248935892F5F3F4FFC01358B248BAA
:1016500078940000DF91CF91FF91EF91BF91AF910E
:101660009F918F917F916F915F914F913F912F91BA
:101670000F900BBE0F900FBE0F901F901895CF9339
:10168000DF930F920F92CDB7DEB79A83898389815A
:101690009A8144E150E060E070E00E947643298145
:1016A0003A8189819A81FC01358B248B89819A81C9
:1016B000469644E150E060E070E00E947643898104
:1016C0009A819C012A5E3F4F89819A81FC0133A750
:1016D00022A789819A81FC0114A689819A81FC0143
:1016E00015A600000F900F90DF91CF910895CF9332
:1016F000DF9300D000D0CDB7DEB79C838B837E8391
:101700006D8319828B819C81FC0182A593A50E9427
:1017100098438A838A81282F30E08DE892E0432F16
:101720004F932F93292F2F938F9382E08F938AEEDD
:1017300094E0892F8F938AEE94E08F930E944F124A
:101740008DB79EB707960FB6F894DEBF0FBECDBF1C
:101750008D819E81FC0184819A81891710F48FEF1D
:101760008983898126960FB6F894DEBF0FBECDBF60
:10177000DF91CF910895CF93DF930F920F92CDB762
:10178000DEB79A83898389819A8144E150E060E0E1
:1017900070E00E94764329813A8189819A81FC0117
:1017A000358B248B89819A81FC0114A600000F904F
:1017B0000F90DF91CF910895CF93DF9300D000D0A9
:1017C000CDB7DEB79C838B837E836D838B819C81B9
:1017D000FC0185A5882309F49AC181EA92E0292FAA
:1017E0002F938F9382E08F938AEE94E0892F8F93CB
:1017F0008AEE94E08F930E944F120F900F900F90FB
:101800000F900F908B819C81469660E270E00E9461
:101810007D439C018B819C81FC0133A722A78B8196
:101820009C81FC0182A593A5892B09F460C08DEBF6
:1018300092E0292F2F938F9382E08F938AEE94E08A
:10184000892F8F938AEE94E08F930E944F120F900E
:101850000F900F900F900F908B819C81FC0182A5BF
:1018600093A5FC0110828B819C81FC0182A593A52C
:101870009C012F5F3F4F8B819C81FC0133A722A7E6
:101880000DC08B819C81FC0182A593A59C012F5FDB
:101890003F4F8B819C81FC0133A722A78B819C81C8
:1018A000FC0182A593A5FC018081803251F38B81DC
:1018B0009C81FC0122A533A58BED92E0432F4F9331
:1018C0002F93292F2F938F9382E08F938AEE94E0AA
:1018D000892F8F938AEE94E08F930E944F128DB7D9
:1018E0009EB707960FB6F894DEBF0FBECDBF8B81B3
:1018F0009C8146960E941A141982D6C08D819E81C1
:10190000FC01208131818B819C814696B9010E9426
:101910008843892B09F0C3C08D819E81FC01208101
:1019200031818BEF92E0432F4F932F93292F2F93E9
:101930008F9382E08F938AEE94E0892F8F938AEEC3
:1019400094E08F930E944F128DB79EB707960FB603
:10195000F894DEBF0FBECDBF81E089838D819E816B
:10196000FC018281938167EC73E00E948843892B9C
:1019700009F45EC02D813E818B819C81B9010E945A
:10198000770B8A838A81882321F18D819E81FC01D6
:101990002081318184E193E0432F4F932F93292FAE
:1019A0002F938F9384E08F938AEE94E0892F8F9307
:1019B0008AEE94E08F930E944F128DB79EB70796E0
:1019C0000FB6F894DEBF0FBECDBF8BEF0E94CC0EDA
:1019D0009FC08D819E81FC012081318186E393E04F
:1019E000432F4F932F93292F2F938F9382E08F9321
:1019F0008AEE94E0892F8F938AEE94E08F930E9471
:101A00004F128DB79EB707960FB6F894DEBF0FBE84
:101A1000CDBF4091DB025091DC028B819C81FC01A7
:101A200022A533A58D819E81B9010E94910D32C0FE
:101A30008B819C81FC0182A593A5892B01F18D816D
:101A40009E81FC012081318189E593E0432F4F93F2
:101A50002F93292F2F938F9383E08F938AEE94E017
:101A6000892F8F938AEE94E08F930E944F128DB747
:101A70009EB707960FB6F894DEBF0FBECDBF20917C
:101A8000DB023091DC028D819E81A90160E070E073
:101A90000E94910D8B819C81FC0115A60DC08D814A
:101AA0009E8107969E838D838D819E81FC01858119
:101AB0009681892B09F022CF8981882341F58B817A
:101AC0009C819C012A5E3F4F8DE793E0432F4F930B
:101AD0002F93292F2F938F9384E08F938AEE94E096
:101AE000892F8F938AEE94E08F930E944F128DB7C7
:101AF0009EB707960FB6F894DEBF0FBECDBF8FEF2F
:101B00000E94CC0E8B819C81FC0115A60000000078
:101B100026960FB6F894DEBF0FBECDBFDF91CF91F2
:101B20000895CF93DF9300D000D0CDB7DEB79A836E
:101B300089837C836B835E834D8389819A81FC01D9
:101B40008281938167EC73E00E948843892BF9F4CA
:101B500089E993E0292F2F938F9382E08F938AEE68
:101B600094E0892F8F938AEE94E08F930E944F1216
:101B70000F900F900F900F900F9089819A81FC0128
:101B8000258136818D819E81F9011995DDC089817C
:101B90009A81FC018281938162EF74E00E94884304
:101BA000892B09F049C08DEB93E0292F2F938F9358
:101BB00082E08F938AEE94E0892F8F938AEE94E0EF
:101BC0008F930E944F120F900F900F900F900F90D5
:101BD0008B819C810E948D139C018D819E81FC01D3
:101BE000318320838D819E81FC012081318182EEB1
:101BF00093E0432F4F932F93292F2F938F9382E0BE
:101C00008F938AEE94E0892F8F938AEE94E08F93DE
:101C10000E944F128DB79EB707960FB6F894DEBF9D
:101C20000FBECDBF89819A81FC01258136818D81CE
:101C30009E81F901199588C089819A81FC01828170
:101C4000938168ED73E00E948843892B49F58CEFFE
:101C500093E0292F2F938F9382E08F938AEE94E065
:101C6000892F8F938AEE94E08F930E944F120F90EA
:101C70000F900F900F900F908B819C810E94D11339
:101C80009C018D819E81FC013183208389819A8111
:101C9000FC01258136818D819E81F901199554C001
:101CA00089819A81FC018281938168EF74E00E94AE
:101CB0008843892B49F58AE294E0292F2F938F934B
:101CC00082E08F938AEE94E0892F8F938AEE94E0DE
:101CD0008F930E944F120F900F900F900F900F90C4
:101CE0008B819C810E94E8139C018D819E81FC0167
:101CF0003383228389819A81FC01258136818D81FC
:101D00009E81F901199520C089819A81FC01228167
:101D1000338186E594E0432F4F932F93292F2F9300
:101D20008F9384E08F938AEE94E0892F8F938AEECD
:101D300094E08F930E944F128DB79EB707960FB60F
:101D4000F894DEBF0FBECDBF000026960FB6F89404
:101D5000DEBF0FBECDBFDF91CF910895CF93DF934C
:101D6000CDB7DEB78FEF94E0892F8F938FEF94E09C
:101D70008F9381E095E0892F8F9381E095E08F9399
:101D80001F920E94F70E0F900F900F900F900F90E0
:101D90000000DF91CF910895CF93DF930F92CDB7DD
:101DA000DEB789838981082E000C990B2FEF34E070
:101DB000232F2F932FEF34E02F93292F2F938F93DF
:101DC00085E095E0892F8F9385E095E08F931F92B2
:101DD0000E94F70E8DB79EB707960FB6F894DEBF38
:101DE0000FBECDBF00000F90DF91CF910895CF932C
:101DF000DF930F920F92CDB7DEB7CE010B969A8389
:101E0000898329813A8189859A85AC0166E970E0E8
:101E100089E997E00E94E64369E977E088850E94B6
:101E2000810F80E00F900F90DF91CF910895CF93B5
:101E3000DF930F920F92CDB7DEB7CE010B969A8348
:101E4000898329813A8189859A85AC0166E970E0A8
:101E500089E997E00E941F4469E977E088850E943C
:101E6000810F80E00F900F90DF91CF910895CF9375
:101E7000DF93CDB7DEB7000080EC90E0FC018081FD
:101E80008823D4F786EC90E0FC018081DF91CF912C
:101E90000895CF93DF930F920F92CDB7DEB789836A
:101EA0006A838981882F90E0009721F0019799F04B
:101EB00022C0000080EC90E0FC018081882F90E03F
:101EC00080729927892BA9F386EC90E02A81FC0186
:101ED000208311C0000080E391E0FC018081882F05
:101EE00090E080729927892BA9F386E391E02A81FB
:101EF000FC012083000000000F900F90DF91CF9134
:101F00000895CF93DF9300D00F92CDB7DEB78A83C9
:101F10007C836B8319821BC08981882F90E02B8181
:101F20003C81820F931FFC0180818823A1F089816D
:101F300091E0980F9983882F90E02B813C81820F4C
:101F4000931FFC018081682F8A810E94490F89813B
:101F5000863910F301C0000000000F900F900F9021
:101F60000F90DF91CF910895CF93DF9300D000D0F1
:101F70000F92CDB7DEB78D837F836E8381E0898337
:101F800014C08E819F819B838A838A819B81FC01FF
:101F900084918C838C81898369818D810E94490F12
:101FA0008E819F8101969F838E838981882349F743
:101FB000000027960FB6F894DEBF0FBECDBFDF91AD
:101FC000CF910895CF93DF93CDB7DEB780EC90E04B
:101FD000FC01208180EC90E02D7FFC01208385ECCA
:101FE00090E0FC01108284EC90E029E1FC01208368
:101FF00081EC90E028E1FC01208382EC90E0FC0180
:10200000208182EC90E02F73FC01208382EC90E031
:10201000FC01208182EC90E02F7CFC01208382EC8B
:1020200090E0FC01208182EC90E0277FFC0120837E
:1020300082EC90E0FC01208182EC90E02B7FFC019F
:10204000208382EC90E0FC01208182EC90E026600D
:10205000FC01208381EC90E0FC01208181EC90E088
:102060002068FC01208380E391E0FC01208180E373
:1020700091E02D7FFC01208385E391E0FC0110823B
:1020800084E391E029E1FC01208381E391E028E1F0
:10209000FC01208382E391E0FC01208182E391E056
:1020A0002F73FC01208382E391E0FC01208182E315
:1020B00091E02F7CFC01208382E391E0FC012081F0
:1020C00082E391E0277FFC01208382E391E0FC0121
:1020D000208182E391E02B7FFC01208382E391E069
:1020E000FC01208182E391E02660FC012083000056
:1020F000DF91CF910895CF93DF93CDB7DEB785EC15
:1021000090E0FC01108284EC90E02CE0FC01208344
:102110000000DF91CF910895CF93DF93CDB7DEB765
:102120002091DD023091DE028FEF9FEFDC01F9019B
:1021300080839183A283B3838091DD029091DE023C
:1021400024E0FC0124830000DF91CF910895CF9318
:10215000DF930F92CDB7DEB789838091DD02909136
:10216000DE022981FC0124838981282F30E08CE75D
:1021700094E0432F4F932F93292F2F938F9382E037
:102180008F938AE095E0892F8F938AE095E08F9373
:102190000E944F128DB79EB707960FB6F894DEBF18
:1021A0000FBECDBF00000F90DF91CF910895CF9368
:1021B000DF9300D00F92CDB7DEB79C838B838B81EA
:1021C0009C81FC01808191819A83898389819A8194
:1021D0000297F1F089819A81039748F489819A8165
:1021E000892B71F089819A81019771F01DC08981D5
:1021F0009A81039789F089819A81049789F014C0A4
:1022000080E00E94A7102CC081E00E94A71028C087
:1022100082E00E94A71024C083E00E94A71020C083
:1022200084E00E94A7101CC084E994E02A812F93C7
:1022300029812F93292F2F938F9384E08F938AE006
:1022400095E0892F8F938AE095E08F930E944F123B
:102250008DB79EB707960FB6F894DEBF0FBECDBF01
:1022600000000F900F900F900F90DF91CF91089585
:10227000CF93DF930F920F92CDB7DEB79A83898306
:1022800089819A81FC01808191812091DD023091C8
:10229000DE02CC01A0E0B0E0F90180839183A2834B
:1022A000B38389819A81FC012081318184EB94E0A0
:1022B000432F4F932F93292F2F938F9382E08F9348
:1022C0008AE095E0892F8F938AE095E08F930E94B2
:1022D0004F128DB79EB707960FB6F894DEBF0FBEAC
:1022E000CDBF00000F900F90DF91CF910895CF9355
:1022F000DF930F920F92CDB7DEB79A8389838091D7
:10230000DD029091DE02FC0180819181A281B38186
:1023100026ED34E04B2F4F934A2F4F93492F4F9385
:102320008F93832F8F93822F8F931F920E94170F6B
:102330008DB79EB707960FB6F894DEBF0FBECDBF20
:1023400000000F900F90DF91CF910895CF93DF930E
:1023500000D00F92CDB7DEB79C838B838FED92E0D8
:102360009A8389835BC089819A81FC0120813181B4
:102370008B819C81B9010E948843892B09F049C057
:102380008091DD029091DE02FC0120813181428149
:10239000538189819A81FC018281682F70E081E0FC
:1023A00090E0A0E0B0E004C0880F991FAA1FBB1FF7
:1023B0006A95D2F76091DD027091DE02822B932B39
:1023C000A42BB52BFB0180839183A283B3838981E6
:1023D0009A81FC01208131818BED94E0432F4F9352
:1023E0002F93292F2F938F9382E08F938AE095E08C
:1023F000892F8F938AE095E08F930E944F128DB7BB
:102400009EB707960FB6F894DEBF0FBECDBF80E033
:102410002EC089819A8103969A83898389819A81C2
:10242000FC0180819181FC018081882F90E0892BC3
:1024300009F099CF81EF94E02C812F932B812F937A
:10244000292F2F938F9384E08F938AE095E0892F33
:102450008F938AE095E08F930E944F128DB79EB7BD
:1024600007960FB6F894DEBF0FBECDBF81E00F9088
:102470000F900F900F90DF91CF910895CF93DF933E
:10248000CDB7DEB78091DD029091DE02FC011082B3
:102490001182128213820000DF91CF910895CF93B1
:1024A000DF93CDB7DEB7E4970FB6F894DEBF0FBE6B
:1024B000CDBF8091DD029091DE02FC01808191818F
:1024C000A281B381892B8A2B8B2B11F18091DD02A4
:1024D0009091DE02FC0184819CAD9817D8F0CE016A
:1024E000CF969A83898329813A814DAD5EADCE0125
:1024F000039662E370E00E941F449E012D5F3F4FF0
:102500008AAD9BADA9016CAD0E949412000002C07F
:10251000000001C00000E4960FB6F894DEBF0FBEC5
:10252000CDBFDF91CF910895CF93DF93CDB7DEB7C5
:10253000E9970FB6F894DEBF0FBECDBF9EAB8DAB53
:102540006FAB59AF48AF8FED92E09A8389838CC00F
:1025500089819A81FC01208131818DA99EA9B901CF
:102560000E948843892B09F07AC08091DD02909106
:10257000DE02FC0180819181A281B38129813A81AF
:10258000F9012281222F30E004C0B695A7959795D6
:1025900087952A95D2F781709927AA27BB27892B7F
:1025A0008A2B8B2B09F45BC08FA9882F90E0823097
:1025B0009105C1F0833091052CF4009749F0019703
:1025C00061F01FC08330910591F00497A9F019C004
:1025D0008CE995E00E944A1314C080EA95E00E94BD
:1025E0004A130FC084EA95E00E944A130AC088EAA1
:1025F00095E00E944A1305C08CEA95E00E944A13B8
:10260000000089819A81FC0180819181292F2F937B
:102610008F9380EB95E0892F8F9380EB95E08F93DC
:102620001F9282E38F93CE010396292F2F938F93CE
:102630000E94A9438DB79EB708960FB6F894DEBFE7
:102640000FBECDBFCE0103960E944A1388AD99AD4F
:102650000E944A1386EB95E00E944A1311C08981BB
:102660009A8103969A83898389819A81FC0180816A
:102670009181FC018081882F90E0892B09F068CF3F
:102680000000E9960FB6F894DEBF0FBECDBFDF9114
:10269000CF910895CF93DF930F920F92CDB7DEB70E
:1026A0009A8389838A818F9389818F9388EB95E0C0
:1026B000892F8F9388EB95E08F9381E08F930E9411
:1026C000F70E0F900F900F900F900F9000000F904B
:1026D0000F90DF91CF910895CF93DF930F920F92D8
:1026E000CDB7DEB78A8319828A8180538983898135
:1026F0008A3018F08981875089838981803118F068
:102700008981805289838981803108F01982898189
:102710000F900F90DF91CF910895CF93DF9300D06A
:102720000F920F92CDB7DEB79D838C8319821B82E7
:102730001A828C819D810E949843898325C08C8157
:102740009D81FC0180810E946C13882F90E029817B
:10275000222F30E021503109220F331F220F331F67
:1027600002C0880F991F2A95E2F79C018A819B81FC
:10277000820F931F9B838A838C819D8101969D8309
:102780008C8389818150898389818823C1F68A81DC
:102790009B810F900F900F900F900F90DF91CF9132
:1027A0000895CF93DF9300D00F92CDB7DEB79C830F
:1027B0008B838B819C810E9450439A83898389817A
:1027C0009A810F900F900F900F90DF91CF91089505
:1027D000CF93DF9300D00F92CDB7DEB79C838B836E
:1027E0008B819C810E9450439A83898389819A813D
:1027F0000F900F900F900F90DF91CF910895CF938E
:10280000DF9300D0CDB7DEB78B8381E089831A8256
:1028100006C08981880F89838A818F5F8A83998125
:102820008B819817B0F38A810F900F900F90DF91F2
:10283000CF910895CF93DF930F920F92CDB7DEB76C
:102840009A83898312C089819A81FC018081882FB3
:1028500090E00E946E43282F89819A81FC01208399
:1028600089819A8101969A83898389819A81FC0161
:102870008081882341F700000F900F90DF91CF9166
:102880000895CF93DF9300D000D00F920F92CDB771
:10289000DEB7198281E690E020E8FC01208381E622
:1028A00090E023E0FC01208380E790E0FC011082AF
:1028B00086EB90E020E2FC01208383EB90E028ECA3
:1028C000FC0120838EE690E0FC01108281E890E01C
:1028D00021E0FC01208380EB90E021E0FC012083DB
:1028E000000086EB90E0FC018081882F90E09C0145
:1028F0002170332786EB90E0FC018081882F90E0E7
:1029000084709927822B932B892B59F71D821C8267
:102910000FC080E395E798878F838F819885019713
:10292000F1F798878F838C819D8101969D838C839D
:102930008C819D810A976CF36BC0F89486E390E0DC
:102940002FEFFC01208387E390E02FEFFC01208331
:1029500085E890E0FC01108284E890E0FC011082A0
:1029600082EB90E0FC011082000087E390E0FC0124
:1029700080818823D1F381E890E0FC011082789473
:1029800086E390E0FC018081882329F08FEF9FEFA0
:102990009B838A831CC084E890E0FC0180818E8345
:1029A00085E890E0FC018081882F90E09B838A83FA
:1029B0008A819B81982F88279B838A838E81882F89
:1029C00090E02A813B81820F931F9B838A838A81B7
:1029D0009B818B36984144F086E690E0FC01208193
:1029E0002150FC0120830FC08A819B81883E974142
:1029F00044F486E690E0FC0120812F5FFC012083F7
:102A000002C081E0898381E890E021E0FC0120831D
:102A10008981882309F491CF000028960FB6F89495
:102A2000DEBF0FBECDBFDF91CF910895CF93DF936F
:102A3000CDB7DEB781E690E020E8FC01208381E697
:102A400090E0FC0110820000DF91CF910895CF93B8
:102A5000DF93CDB7DEB781E690E020E8FC0120836C
:102A600081E690E0FC0110820000DF91CF91089593
:102A7000CF93DF930F920F92CDB7DEB71A821982F0
:102A800080912103909122030E94F61880912103E6
:102A9000909122030E946E1981E60E94AB369A83C0
:102AA00089838BE195E02A812F9329812F93292F08
:102AB0002F938F9382E08F938BEB95E0892F8F93E9
:102AC0008BEB95E08F930E944F128DB79EB70796C0
:102AD0000FB6F894DEBF0FBECDBF00000F900F9071
:102AE000DF91CF910895CF93DF930F920F92CDB7DF
:102AF000DEB79A8389838091210390912203FC01A0
:102B00008081918122EC35E0232F2F9322EC35E058
:102B10002F93292F2F938F9385E095E0892F8F9303
:102B200085E095E08F931F920E94170F8DB79EB797
:102B300007960FB6F894DEBF0FBECDBF89EC95E0C7
:102B4000892F8F9389EC95E08F931F920E94F70E47
:102B50000F900F900F9000000F900F90DF91CF918A
:102B60000895CF93DF930F92CDB7DEB7898380911D
:102B70002103909122032981FC0123838091210369
:102B800090912203FC0183810F90DF91CF910895F2
:102B9000CF93DF93CDB7DEB78091210390912203CD
:102BA000FC018381DF91CF910895CF93DF930F9242
:102BB000CDB7DEB7198280913708882F90E0813039
:102BC000910539F08330910501F1892B09F460C03A
:102BD00038C080E00E940D2387E395E0292F2F93D2
:102BE0008F9382E08F938BEB95E0892F8F938BEB04
:102BF00095E08F930E944F120F900F900F900F90BF
:102C00000F9080E00E94B11544C080E00E940D2327
:102C100084E595E0292F2F938F9382E08F938BEBA0
:102C200095E0892F8F938BEB95E08F930E944F1245
:102C30000F900F900F900F900F9080E00E94B115B1
:102C400028C08091210390912203FC018381282FC9
:102C500030E084E795E0432F4F932F93292F2F9354
:102C60008F9384E08F938BEB95E0892F8F938BEB81
:102C700095E08F930E944F128DB79EB707960FB6BF
:102C8000F894DEBF0FBECDBF89818150898301C01A
:102C9000000089810F90DF91CF910895CF93DF934A
:102CA0000F92CDB7DEB7198280913708882F90E058
:102CB0008130910509F442C08330910509F440C088
:102CC000892BC9F48BE995E0292F2F938F9382E00C
:102CD0008F938BEB95E0892F8F938BEB95E08F9300
:102CE0000E944F120F900F900F900F900F9083E063
:102CF0000E94B11526C080913708282F30E08BEB59
:102D000095E0432F4F932F93292F2F938F9384E098
:102D10008F938BEB95E0892F8F938BEB95E08F93BF
:102D20000E944F128DB79EB707960FB6F894DEBF7C
:102D30000FBECDBF89818150898303C0000001C0CF
:102D4000000089810F90DF91CF910895CF93DF9399
:102D50000F920F92CDB7DEB79A83898380E090E01F
:102D600088709927892B11F088E201C088E090E0F3
:102D70009770892B982F88E10FB6F894A8958093C7
:102D800060000FBE90936000FFCFCF93DF930F9250
:102D90000F92CDB7DEB79A838983809121039091FA
:102DA0002203FC018381882F90E08130910539F066
:102DB0008330910509F445C0892B11F163C089EC7A
:102DC00095E0892F8F9389EC95E08F938BEC95E0BC
:102DD000892F8F938BEC95E08F9380ED95E0892F71
:102DE0008F9380ED95E08F931F920E94F70E8DB721
:102DF0009EB707960FB6F894DEBF0FBECDBF62C078
:102E000089EC95E0892F8F9389EC95E08F9385ED80
:102E100095E0892F8F9385ED95E08F9380ED95E078
:102E2000892F8F9380ED95E08F931F920E94F70E6C
:102E3000EDB7FEB737960FB6F894DEBF0FBECDBF25
:102E400041C089EC95E0892F8F9389EC95E08F93B1
:102E50008DED95E0892F8F938DED95E08F9380ED2B
:102E600095E0892F8F9380ED95E08F931F920E94BC
:102E7000F70E8DB79EB707960FB6F894DEBF0FBE5C
:102E8000CDBF20C089EC95E0892F8F9389EC95E028
:102E90008F9385EE95E0892F8F9385EE95E08F9344
:102EA00080ED95E0892F8F9380ED95E08F931F92B1
:102EB0000E94F70EEDB7FEB737960FB6F894DEBF57
:102EC0000FBECDBF00000F900F90DF91CF910895FE
:102ED000CF93DF930F920F92CDB7DEB79A8389839A
:102EE0008091210390912203FC018281882F90E040
:102EF00029EC35E0232F2F9329EC35E02F93292F50
:102F00002F938F938AEE95E0892F8F938AEE95E029
:102F10008F931F920E94F70E8DB79EB707960FB63C
:102F2000F894DEBF0FBECDBF00000F900F90DF9171
:102F3000CF910895CF93DF9300D0CDB7DEB79B83B9
:102F40008A8319820E94D51589838981882319F47F
:102F50000E94AE0E04C08DEF0E94CC0E00000F90B8
:102F60000F900F90DF91CF910895CF93DF9300D012
:102F7000CDB7DEB789837B836A838981813639F453
:102F80008A819B81909339088093380806C08A8192
:102F90009B8190933B0880933A0880E00F900F90BC
:102FA0000F90DF91CF910895CF93DF930F920F92FF
:102FB000CDB7DEB79A83898389819A81909335084A
:102FC0008093340880E00F900F90DF91CF910895A7
:102FD000CF93DF930F92CDB7DEB78983898180933A
:102FE000360880E00F90DF91CF910895CF93DF9363
:102FF0000F92CDB7DEB789838981813629F480911C
:1030000038089091390804C080913A0890913B08A3
:103010000F90DF91CF910895CF93DF9300D0CDB77C
:10302000DEB79A8389836B83F8948FE390E0FC0189
:103030008081882F90E082709927892BB1F781E4F5
:1030400090E029813A81FC013183208380E490E083
:103050002B81FC0120838FE390E0FC0120818FE332
:1030600090E02460FC0120838FE390E0FC0120814C
:103070008FE390E02260FC01208378948B81282FDD
:1030800030E082EE95E04A814F9349814F93432F80
:103090004F932F93292F2F938F9382E08F938FEE4F
:1030A00095E0892F8F938FEE95E08F930E944F12BA
:1030B0008DB79EB709960FB6F894DEBF0FBECDBF91
:1030C00000000F900F900F90DF91CF910895CF9354
:1030D000DF930F920F92CDB7DEB79A838983F8946E
:1030E0008FE390E0FC018081882F90E08270992727
:1030F000892BB1F781E490E029813A81FC01318389
:1031000020838FE390E0FC0120818FE390E0216039
:10311000FC012083789480E490E0FC018081282FDA
:1031200030E089EF95E04A814F9349814F93432FD7
:103130004F932F93292F2F938F9382E08F938FEEAE
:1031400095E0892F8F938FEE95E08F930E944F1219
:103150008DB79EB709960FB6F894DEBF0FBECDBFF0
:1031600080E490E0FC0180810F900F90DF91CF917F
:103170000895CF93DF9300D00F92CDB7DEB79C8335
:103180008B8381E196E02C812F932B812F93292F24
:103190002F938F9381E08F938FEE95E0892F8F93FC
:1031A0008FEE95E08F930E944F128DB79EB70796D2
:1031B0000FB6F894DEBF0FBECDBF8B8189838B81A4
:1031C0009C81892F99278A83698180E090E00E9401
:1031D0000C186A8181E090E00E940C1800000F90AA
:1031E0000F900F900F90DF91CF910895CF93DF93C1
:1031F00000D00F92CDB7DEB79C838B8380E090E048
:103200000E946718898381E090E00E9467188A8392
:103210008A81882F90E0382F22278981882F90E09B
:10322000820F931F9C018B819C81FC013183208341
:103230008B819C81FC01208131818AE296E0432FC1
:103240004F932F93292F2F938F9381E08F938FEE9E
:1032500095E0892F8F938FEE95E08F930E944F1208
:103260008DB79EB707960FB6F894DEBF0FBECDBFE1
:1032700000000F900F900F900F90DF91CF91089565
:10328000CF93DF930F92CDB7DEB789838981282F43
:1032900030E083E496E0432F4F932F93292F2F9311
:1032A0008F9381E08F938FEE95E0892F8F938FEE30
:1032B00095E08F930E944F128DB79EB707960FB679
:1032C000F894DEBF0FBECDBF698182E090E00E941E
:1032D0000C1800000F90DF91CF910895CF93DF93EA
:1032E00000D0CDB7DEB79B838A8382E090E00E9456
:1032F000671889838A819B812981FC0122838A81C5
:103300009B81FC018281282F30E086E596E0432FE7
:103310004F932F93292F2F938F9381E08F938FEECD
:1033200095E0892F8F938FEE95E08F930E944F1237
:103330008DB79EB707960FB6F894DEBF0FBECDBF10
:1033400000000F900F900F90DF91CF910895CF93D1
:10335000DF9300D00F920F92CDB7DEB79D838C83A1
:103360008C819D81FC01808191819A8389831B825C
:1033700089819A810E94B91889819A810E94D41703
:10338000982F8B81890F8B838B81882319F40E945E
:10339000AE0E03C08DEF0E94CC0E00000F900F9078
:1033A0000F900F900F90DF91CF910895CF93DF93FF
:1033B00000D00F92CDB7DEB79C838B838B819C812D
:1033C000FC018081918189831A8289810E94401940
:1033D00089810E94E817982F8A81890F8A838A81C0
:1033E000882319F40E94AE0E03C08DEF0E94CC0E0C
:1033F00000000F900F900F900F90DF91CF910895E4
:10340000CF93DF93CDB7DEB784E290E0FC0120815B
:1034100084E290E02260FC01208384E290E0FC01E1
:10342000208184E290E02460FC0120838CE490E021
:10343000FC0120818CE490E02260FC0120838DE47B
:1034400090E0FC0120818DE490E02160FC0120836C
:103450008CE490E0FC0120818CE490E02061FC0190
:1034600020838CE490E0FC0120818CE490E02064D7
:10347000FC01208385E290E0FC01208185E290E060
:103480002D7FFC0120838CE490E0FC018081282FBB
:1034900030E089E696E0432F4F932F93292F2F9307
:1034A0008F9382E08F9386EF95E0892F8F9386EF3D
:1034B00095E08F930E944F128DB79EB707960FB677
:1034C000F894DEBF0FBECDBF8CE490E0FC0180819C
:1034D000882F90E080719927892BA9F486E896E0DF
:1034E000292F2F938F9384E08F9386EF95E0892F78
:1034F0008F9386EF95E08F930E944F120F900F905D
:103500000F900F900F900000DF91CF910895CF930F
:10351000DF930F920F92CDB7DEB78A838EE490E0EF
:103520002A81FC01208300008DE490E0FC01808171
:103530008823D4F78A81282F30E080EA96E0432F51
:103540004F932F93292F2F938F9381E08F9386EFA3
:1035500095E0892F8F9386EF95E08F930E944F120D
:103560008DB79EB707960FB6F894DEBF0FBECDBFDE
:103570008EE490E0FC01808189838981282F30E0EE
:103580008BEA96E0432F4F932F93292F2F938F93FE
:1035900081E08F9386EF95E0892F8F9386EF95E0FA
:1035A0008F930E944F128DB79EB707960FB6F8946F
:1035B000DEBF0FBECDBF89810F900F90DF91CF91FD
:1035C0000895CF93DF93CDB7DEB789EB90E0FC0190
:1035D000108288EB90E020E4FC0120830000DF9162
:1035E000CF910895CF93DF93CDB7DEB784E290E01B
:1035F000FC01208184E290E02068FC01208300002F
:10360000DF91CF910895CF93DF93CDB7DEB785E2F9
:1036100090E0FC01208185E290E02068FC0120839D
:103620000000DF91CF910895CF93DF93CDB7DEB740
:1036300085E290E0FC01208185E290E02F77FC019B
:1036400020830000DF91CF910895CF93DF93CDB712
:10365000DEB785E290E0FC01808188231CF40E94A3
:10366000141B02C00E94031B0000DF91CF9108953C
:10367000CF93DF9300D000D0CDB7DEB785EB96E0D7
:10368000292F2F938F9382E08F938AEF95E0892FD4
:103690008F938AEF95E08F930E944F120F900F90B7
:1036A0000F900F900F9081E890E0FC01208181E85D
:1036B00090E02460FC0120838DEB97E3A6E8B7E35C
:1036C00089839A83AB83BC8320E030E04AE754E4EB
:1036D00069817A818B819C810E94EF41DC01CB0161
:1036E0009C01AD0160E070E080E89FE30E94FD4036
:1036F000DC01CB01BC01CD010E946F41DC01CB019B
:103700009E838D838CE890E02D813E81FC01318386
:1037100020838FE690E0FC0120818FE690E0286016
:10372000FC012083000026960FB6F894DEBF0FBE82
:10373000CDBFDF91CF910895CF93DF93CDB7DEB7A3
:103740000E94613A60E081E00E949D1D0000DF91CF
:10375000CF910895CF93DF93CDB7DEB76CE676E0D7
:1037600081E60E94C33A62E081E00E949D1D000054
:10377000DF91CF9108951F920F920FB60F921124EF
:103780000BB60F922F933F934F935F936F937F935B
:103790008F939F93AF93BF93EF93FF93CF93DF9359
:1037A000CDB7DEB7F89484E890E0FC011182108276
:1037B0000E946D1C78940000DF91CF91FF91EF91F2
:1037C000BF91AF919F918F917F916F915F914F9139
:1037D0003F912F910F900BBE0F900FBE0F901F9037
:1037E0001895CF93DF9300D000D0CDB7DEB79B8381
:1037F0008A837D836C834E8384E089838C819D8161
:10380000892B29F08C819D818131974218F082E0CB
:10381000898359C08091B6068A3018F083E0898385
:1038200052C08091B606282F30E0C901880F991F39
:10383000880F991F880F991F821B930B8059994FEE
:103840002A813B81FC01318320838091B606282F99
:1038500030E0C901880F991F880F991F880F991FA1
:10386000821B930B8E58994F2C813D81FC01318333
:1038700020838091B606282F30E0C901880F991F58
:10388000880F991F880F991F821B930B8A58994F95
:103890002E81FC0120838091B606282F30E0C901DB
:1038A000880F991F880F991F880F991F821B930BF0
:1038B0008C58994FFC01118210828091B6068F5F5F
:1038C0008093B6061982898126960FB6F894DEBFDA
:1038D0000FBECDBFDF91CF910895CF93DF930F92AD
:1038E000CDB7DEB7198285C08981282F30E0C901A4
:1038F000880F991F880F991F880F991F821B930BA0
:103900008A58994FFC018081823009F46FC0898107
:10391000282F30E0C901880F991F880F991F880F41
:10392000991F821B930B8E58994FFC014081518146
:103930008981282F30E0C901880F991F880F991FAE
:10394000880F991F821B930B8C58994FFC01808123
:1039500091818417950728F18981282F30E0C901CA
:10396000880F991F880F991F880F991F821B930B2F
:103970008C58994F21E030E0FC013183208389810C
:10398000282F30E0C901880F991F880F991F880FD1
:10399000991F821B930B8A58994F21E0FC012083C9
:1039A00025C08981282F30E0C901880F991F880F11
:1039B000991F880F991F821B930B8C58994FFC01FC
:1039C000808191812981222F30E0AC014F5F5F4FD0
:1039D000C901880F991F880F991F880F991F821B93
:1039E000930B8C58994FFC015183408389818F5FE1
:1039F00089838091B6069981981708F475CF0000E5
:103A00000F90DF91CF910895CF93DF930F92CDB7B1
:103A1000DEB7198238C08981282F30E0C901880FAC
:103A2000991F880F991F880F991F821B930B8A5823
:103A3000994FFC018081813019F58981282F30E070
:103A4000C901880F991F880F991F880F991F821B22
:103A5000930B8A58994FFC0110828981282F30E0FE
:103A6000C901880F991F880F991F880F991F821B02
:103A7000930B8059994FFC0180819181FC0119952C
:103A800089818F5F89838091B6069981981718F292
:103A900000000F90DF91CF910895CF93DF930F92A5
:103AA000CDB7DEB789838981282F30E0C901880F1F
:103AB000991F880F991F880F991F821B930B8A5893
:103AC000994FFC0180810F90DF91CF910895CF93A2
:103AD000DF930F92CDB7DEB789838981282F30E03D
:103AE000C901880F991F880F991F880F991F821B82
:103AF000930B8E58994FFC01808191810F90DF913B
:103B0000CF910895CF93DF930F92CDB7DEB789831E
:103B10008981282F30E0C901880F991F880F991FCC
:103B2000880F991F821B930B8C58994FFC01808141
:103B300091810F90DF91CF910895CF93DF930F92F2
:103B40000F92CDB7DEB789836A838981282F30E051
:103B5000C901880F991F880F991F880F991F821B11
:103B6000930B8A58994F2A81FC01208300000F9003
:103B70000F90DF91CF910895CF93DF9300D0CDB711
:103B8000DEB789837B836A838981282F30E0C9016E
:103B9000880F991F880F991F880F991F821B930BFD
:103BA0008E58994F2A813B81FC013183208300008C
:103BB0000F900F900F90DF91CF910895CF93DF93E7
:103BC00000D0CDB7DEB789837B836A838981282FB4
:103BD00030E0C901880F991F880F991F880F991F1E
:103BE000821B930B8C58994F2A813B81FC013183B6
:103BF000208300000F900F900F90DF91CF910895D8
:103C0000CF93DF93CDB7DEB785E290E0FC01208152
:103C100085E290E02160FC01208384E290E0FC01D9
:103C2000208184E290E02160FC0120838EE290E01C
:103C3000FC0120818EE290E0277FFC0120838DE251
:103C400090E0FC0120818DE290E02860FC0120835F
:103C500081E390E0FC01208181E390E02160FC01A0
:103C6000208380E390E0FC01208180E390E02160EC
:103C7000FC0120838BE091E0FC0120818BE091E04E
:103C80002860FC0120838AE091E0FC0120818AE029
:103C900091E02860FC0120838EE290E0FC0120810D
:103CA0008EE290E02F7EFC0120838DE290E0FC010B
:103CB00020818DE290E02061FC01208381E390E08F
:103CC000FC01208181E390E02260FC01208380E3FD
:103CD00090E0FC01208180E390E02260FC012083E1
:103CE0000000DF91CF910895CF93DF930F92CDB76E
:103CF000DEB7898389818823A1F085E290E0FC0109
:103D0000208185E290E02160FC01208385E290E043
:103D1000FC018081882F90E081709927892BB1F375
:103D200013C085E290E0FC01208185E290E02E7FC7
:103D3000FC01208385E290E0FC018081882F90E0E7
:103D400081709927892BB1F780E00F90DF91CF9197
:103D50000895CF93DF930F92CDB7DEB78983898122
:103D60008823A1F08BE091E0FC0120818BE091E0C1
:103D70002860FC0120838BE091E0FC018081882F8A
:103D800090E088709927892BB1F313C08BE091E004
:103D9000FC0120818BE091E0277FFC0120838BE0F8
:103DA00091E0FC018081882F90E088709927892B11
:103DB000B1F780E00F90DF91CF910895CF93DF931B
:103DC0000F92CDB7DEB7898389818823A1F081E383
:103DD00090E0FC01208181E390E02160FC012083E0
:103DE00081E390E0FC018081882F90E08170992729
:103DF000892BB1F314C081E390E0FC01208181E3C1
:103E000090E02E7FFC01208381E390E0FC01808123
:103E1000882F90E081709927892BB1F700000F90CF
:103E2000DF91CF910895CF93DF930F92CDB7DEB797
:103E3000898389818823A1F081E390E0FC012081BE
:103E400081E390E02260FC01208381E390E0FC01AB
:103E50008081882F90E082709927892BB1F314C05C
:103E600081E390E0FC01208181E390E02D7FFC0163
:103E7000208381E390E0FC018081882F90E08270B4
:103E80009927892BB1F700000F90DF91CF9108950A
:103E9000CF93DF93CDB7DEB780E00E94741E80E041
:103EA0000E94871A81E00E94741E0000DF91CF916A
:103EB0000895CF93DF93CDB7DEB780E00E94741EE4
:103EC00082E00E94871A81E00E94741E0000DF9148
:103ED000CF910895CF93DF93CDB7DEB780E00E94F6
:103EE000741E84E00E94871A81E00E94741E000004
:103EF000DF91CF910895CF93DF93CDB7DEB780E008
:103F00000E94741E86E00E94871A81E00E94741E3F
:103F10000000DF91CF910895CF93DF93CDB7DEB747
:103F200080E00E94741E81E00E94871A81E00E9456
:103F3000741E0000DF91CF910895CF93DF93CDB72A
:103F4000DEB780E00E94741E83E00E94871A81E041
:103F50000E94741E0000DF91CF910895CF93DF93EC
:103F6000CDB7DEB780E00E94741E85E00E94871AFC
:103F700081E00E94741E0000DF91CF910895CF93DD
:103F8000DF93CDB7DEB780E00E94741E87E00E9409
:103F9000871A81E00E94741E0000DF91CF9108957E
:103FA000CF93DF93CDB7DEB780E00E94741E88E028
:103FB0000E94871A81E00E94741E0000DF91CF9159
:103FC0000895CF93DF93CDB7DEB780E00E94A91E9E
:103FD00088E00E94871A81E00E94A91E0000DF91FC
:103FE000CF910895CF93DF93CDB7DEB70000DF9177
:103FF000CF910895CF93DF9300D000D000D0CDB7FC
:10400000DEB79E838D836F8359874887888599851E
:104010009C838B838F818295807F8A832D813E81D3
:1040200080E0F90119958A810E94871A81E08983CD
:1040300038C08981082E000C990B9E012D5F3F4FDF
:10404000820F931FFC0180810E94871A8981082EAC
:10405000000C990B9E012D5F3F4F820F931FFC01B7
:104060008081282F30E08CEC96E0432F4F932F93E4
:10407000292F2F938F9381E08F9384E096E0892FEF
:104080008F9384E096E08F930E944F128DB79EB776
:1040900007960FB6F894DEBF0FBECDBF8981815061
:1040A0008983898188232CF62D813E8181E0F90165
:1040B000199580E029960FB6F894DEBF0FBECDBFEC
:1040C000DF91CF910895CF93DF930F92CDB7DEB7F5
:1040D000898380E00F90DF91CF910895CF93DF9394
:1040E000CDB7DEB72D970FB6F894DEBF0FBECDBFAC
:1040F00089876A874B873D872C871A8219821B82A2
:104100008985880F8D838C859D8598878F838A8587
:104110008295807F9B85890F8E838B8191E0980F9C
:104120009B838A3010F08FEF23C200008CEB90E06D
:1041300024EAFC01208300008CEB90E0FC018081EC
:104140008823D4F789EB90E0FC018081887F8093FD
:104150003C0880913C08882F90E08031910529F03F
:104160008833910519F10897B9F587ED96E0292F65
:104170002F938F9381E08F938CE096E0892F8F931C
:104180008CE096E08F930E944F120F900F900F904B
:104190000F900F9000008BEB90E02D81FC012083AD
:1041A0008CEB90E024E8FC0120832DC08BEE96E0A0
:1041B000292F2F938F9381E08F938CE096E0892FA6
:1041C0008F938CE096E08F930E944F120F900F9088
:1041D0000F900F900F90AACF8CEF96E0292F2F937E
:1041E0008F9384E08F938CE096E0892F8F938CE0FF
:1041F00096E08F930E944F120F900F900F900F90A8
:104200000F908FEFB5C18CEB90E0FC01808188238B
:10421000D4F789EB90E0FC018081887F80933C0893
:1042200080913C08282F30E08AE197E0432F4F939C
:104230002F93292F2F938F9381E08F938CE096E01B
:10424000892F8F938CE096E08F930E944F128DB749
:104250009EB707960FB6F894DEBF0FBECDBF809114
:104260003C08882F90E08032910541F18833910518
:1042700009F443C0489709F056C08DE297E0292F12
:104280002F938F9381E08F938CE096E0892F8F930B
:104290008CE096E08F930E944F120F900F900F903A
:1042A0000F900F9000008BEB90E02E81FC0120839B
:1042B0008CEB90E024E8FC0120834BC08B81282FFD
:1042C00030E08DE497E0432F4F932F93292F2F93C6
:1042D0008F9381E08F938CE096E0892F8F938CE011
:1042E00096E08F930E944F128DB79EB707960FB638
:1042F000F894DEBF0FBECDBF10CF8DE797E0292F1A
:104300002F938F9381E08F938CE096E0892F8F938A
:104310008CE096E08F930E944F120F900F900F90B9
:104320000F900F9003CF8EE897E0292F2F938F9354
:1043300084E08F938CE096E0892F8F938CE096E059
:104340008F930E944F120F900F900F900F900F902D
:104350000AC18CEB90E0FC0180818823D4F789EBC3
:1043600090E0FC018081887F80933C0880913C082C
:10437000282F30E086EA97E0432F4F932F93292F81
:104380002F938F9381E08F938CE096E0892F8F930A
:104390008CE096E08F930E944F128DB79EB70796E0
:1043A0000FB6F894DEBF0FBECDBF80913C08882FBA
:1043B00090E08033910509F4C9C08833910509F470
:1043C000B5CE889709F0CCC08E81282F30E089EBDC
:1043D00097E0432F4F932F93292F2F938F9381E0B3
:1043E0008F938CE096E0892F8F938CE096E08F93EB
:1043F0000E944F12EDB7FEB737960FB6F894DEBFA6
:104400000FBECDBF000081E08C839BC08C81282F24
:10441000880F330B8BEB90E0AE01495F5F4F240FA9
:10442000351FF9012081FC0120838CEB90E024E80A
:10443000FC01208300008CEB90E0FC01808188234C
:10444000D4F789EB90E0FC018081887F80933C0861
:1044500080913C08282F30E086ED97E0432F4F9362
:104460002F93292F2F938F9381E08F938CE096E0E9
:10447000892F8F938CE096E08F930E944F128DB717
:104480009EB707960FB6F894DEBF0FBECDBF8091E2
:104490003C08882F90E08033910509F459C0883397
:1044A000910509F443CE889709F05CC08C81282FD0
:1044B000880F330B89EE97E0432F4F932F93292FCB
:1044C0002F938F9381E08F938CE096E0892F8F93C9
:1044D0008CE096E08F930E944F12EDB7FEB73796AF
:1044E0000FB6F894DEBF0FBECDBF8C81082E000C36
:1044F000990B9E01295F3F4F820F931FFC01808122
:10450000282F30E083E098E0432F4F932F93292FFB
:104510002F938F9381E08F938CE096E0892F8F9378
:104520008CE096E08F930E944F128DB79EB707964E
:104530000FB6F894DEBF0FBECDBF00008C81815056
:104540008C838C8188230CF061CF03C0000001C0F4
:1045500000008CEB90E024E9FC012083898108C0F5
:10456000000001C000008FEF9FEF9A838983F1CF95
:104570002D960FB6F894DEBF0FBECDBFDF91CF9161
:104580000895CF93DF93CDB7DEB70000DF91CF91D1
:104590000895CF93DF9300D000D00F92CDB7DEB750
:1045A0009D838C837F836E838E819F819B838A838F
:1045B0002C813D8180E0F901199581E0898310C04B
:1045C0008981082E000C990B9E012E5F3F4F820FB0
:1045D000931FFC0180810E94871A89818150898301
:1045E000898188236CF72C813D8181E0F90119953F
:1045F00080E027960FB6F894DEBF0FBECDBFDF91E7
:10460000CF910895CF93DF93CDB7DEB780E00E94BE
:104610000D230000DF91CF910895CF93DF930F9288
:104620000F92CDB7DEB78A83198226C08A81882F80
:1046300090E02981222F30E002C0959587952A9538
:10464000E2F781709927892B59F08981882F90E0B2
:10465000880F991F8C5D9C4F21E0FC01208309C0CD
:104660008981882F90E0880F991F8C5D9C4FFC01F9
:10467000108289818F5F89838981882F90E0880FDC
:10468000991F8D5D9C4FFC018081882379F60E94E3
:104690004F2380E00F900F90DF91CF910895CF933B
:1046A000DF9300D000D00F92CDB7DEB719821D8204
:1046B0001A821B821C823FC08C81882F90E0880F59
:1046C000991F8D5D9C4FFC0180818D838C81882F8B
:1046D00090E0880F991F8C5D9C4FFC01808188239E
:1046E00099F08B818F5F8B838C81282F30E081E064
:1046F00090E002C0880F991F2A95E2F7982F9095B5
:104700008A8189238A8314C06EEE72E48D810E94AF
:10471000123889838C81282F30E081E090E002C03C
:10472000880F991F2A95E2F7982F8A81892B8A830F
:104730008C818F5F8C838C81882F90E0880F991FEC
:104740008D5D9C4FFC018081882309F0B5CF8B8162
:10475000882339F00E944E16982F8981890F89830A
:1047600003C080E00E94B1158A818E838A81829580
:104770008F708F8381E60E94FA37882331F04E8153
:1047800062E084E70E941E291EC08EE098E01F921E
:1047900021E62F93292F2F938F9384E08F9384E129
:1047A00096E0892F8F9384E196E08F930E944F12B9
:1047B0008DB79EB707960FB6F894DEBF0FBECDBF7C
:1047C00089818150898382E60E94FA37882331F0FB
:1047D0004F8162E084E70E941E291EC088E298E0B3
:1047E0001F9222E62F93292F2F938F9384E08F938C
:1047F00084E196E0892F8F9384E196E08F930E9465
:104800004F12EDB7FEB737960FB6F894DEBF0FBE66
:10481000CDBF898181508983898127960FB6F8940D
:10482000DEBF0FBECDBFDF91CF910895CF93DF9351
:1048300000D0CDB7DEB71A8219821B821FC08B81D0
:10484000882F90E0880F991F8C5D9C4FFC01808120
:10485000882389F08B81282F30E081E090E002C02E
:10486000880F991F2A95E2F79C0189819A81822BF2
:10487000932B9A8389838B818F5F8B838B81882F86
:1048800090E0880F991F8D5D9C4FFC0180818823EB
:10489000B1F680E00F900F900F90DF91CF910895C7
:1048A000CF93DF9300D000D0CDB7DEB79E838D834A
:1048B0008D819E81FC01808191819A838983898188
:1048C00081508B838091350390913603FC01808168
:1048D0008C8389819A81892B21F089819A8109971A
:1048E00020F08BEF0E94CC0E86C089819A810597BB
:1048F000A0F481E60E94FA37882379F08B81882F13
:1049000090E0880F991F8C5D9C4F21E0FC01208373
:104910000E944F230E94AE0E6EC089819A81059736
:1049200038F581E60E94FA37982F81E0892788239D
:10493000F9F082E498E01F9221E62F93292F2F931C
:104940008F9384E08F9384E196E0892F8F9384E1A5
:1049500096E08F930E944F128DB79EB707960FB6C1
:10496000F894DEBF0FBECDBF8DEF0E94CC0E43C0CA
:1049700089819A810997A0F482E60E94FA378823F8
:1049800079F08B81882F90E0880F991F8C5D9C4F68
:1049900021E0FC0120830E944F230E94AE0E2BC019
:1049A00089819A81099738F581E60E94FA37982F14
:1049B00081E089278823F9F08CE598E01F9222E6B0
:1049C0002F93292F2F938F9384E08F9384E196E088
:1049D000892F8F9384E196E08F930E944F128DB7B9
:1049E0009EB707960FB6F894DEBF0FBECDBF8DEF12
:1049F0000E94CC0E000026960FB6F894DEBF0FBEC4
:104A0000CDBFDF91CF910895CF93DF9300D00F9268
:104A10000F92CDB7DEB79D838C838C819D81FC0185
:104A2000808191819A838983898181508B83898157
:104A30009A81892B21F089819A81099720F08BEF47
:104A40000E94CC0E39C08B81882F90E0880F991F6F
:104A50008C5D9C4FFC0180818823B9F08AE196E04F
:104A6000892F8F938AE196E08F938CE196E0892FCE
:104A70008F938CE196E08F931F920E94F70E0F9018
:104A80000F900F900F900F9017C08AE196E0892F3A
:104A90008F938AE196E08F9380E296E0892F8F933F
:104AA00080E296E08F931F920E94F70E0F900F9076
:104AB0000F900F900F9000000F900F900F900F909D
:104AC0000F90DF91CF910895CF93DF9300D00F9295
:104AD0000F92CDB7DEB79D838C838C819D81FC01C5
:104AE000808191819A838983898181508B83898197
:104AF0009A81892B21F089819A81099720F08BEF87
:104B00000E94CC0E0EC08B81882F90E0880F991FD9
:104B10008C5D9C4FFC0110820E944F230E94AE0EC0
:104B200000000F900F900F900F900F90DF91CF919A
:104B30000895CF93DF9300D00F920F92CDB7DEB7D9
:104B40009D838C838C819D81FC01808191819B83DD
:104B50008A838A819B818F3F910529F020F08BEF1A
:104B60000E94CC0E3AC0198228C08981282F30E0DB
:104B700081E090E002C0880F991F2A95E2F79C011E
:104B80008A819B8182239323892B59F08981882FE5
:104B900090E0880F991F8C5D9C4F21E0FC012083E1
:104BA00009C08981882F90E0880F991F8C5D9C4FE8
:104BB000FC01108289818F5F89838981882F90E031
:104BC000880F991F8D5D9C4FFC018081882369F6B9
:104BD0000E944F230E94AE0E00000F900F900F9086
:104BE0000F900F90DF91CF910895CF93DF9300D076
:104BF0000F92CDB7DEB79C838B8319821A821CC0BB
:104C00008A81882F90E0880F991F8C5D9C4FFC0152
:104C10008081882371F08A81282F30E081E090E044
:104C200002C0880F991F2A95E2F7982F8981890F72
:104C300089838A818F5F8A838A81882F90E0880F99
:104C4000991F8D5D9C4FFC0180818823C9F6898165
:104C5000882F90E02AE136E0232F2F932AE136E0D7
:104C60002F93292F2F938F9384E296E0892F8F9390
:104C700084E296E08F931F920E94F70E8DB79EB745
:104C800007960FB6F894DEBF0FBECDBF00000F90A1
:104C90000F900F900F90DF91CF910895CF93DF93F6
:104CA00000D000D000D0CDB7DEB7888769871C82DE
:104CB0001B8219828885880F8D83898191E0980FE6
:104CC00099838A3010F08FEFB0C200008CEB90E037
:104CD00024EAFC01208300008CEB90E0FC01808141
:104CE0008823D4F789EB90E0FC018081887F809352
:104CF0003C0880913C08882F90E08031910529F094
:104D00008833910519F10897B9F586E798E0292FBE
:104D10002F938F9381E08F9389E296E0892F8F9371
:104D200089E296E08F930E944F120F900F900F90A0
:104D30000F900F9000008BEB90E02D81FC01208301
:104D40008CEB90E024E8FC0120832DC08AE898E0F9
:104D5000292F2F938F9381E08F9389E296E0892FFB
:104D60008F9389E296E08F930E944F120F900F90DD
:104D70000F900F900F90AACF8BE998E0292F2F93D7
:104D80008F9384E08F9389E296E0892F8F9389E255
:104D900096E08F930E944F120F900F900F900F90FC
:104DA0000F908FEF42C28CEB90E0FC018081882352
:104DB000D4F789EB90E0FC018081887F80933C08E8
:104DC00080913C08282F30E089EB98E0432F4F93E7
:104DD0002F93292F2F938F9381E08F9389E296E071
:104DE000892F8F9389E296E08F930E944F128DB79F
:104DF0009EB707960FB6F894DEBF0FBECDBF809169
:104E00003C08882F90E08032910541F1883391056C
:104E100009F443C0489709F056C08CEC98E0292F5C
:104E20002F938F9381E08F9389E296E0892F8F9360
:104E300089E296E08F930E944F120F900F900F908F
:104E40000F900F9000008BEB90E02985FC012083F0
:104E50008CEB90E024E8FC0120834BC08981282F53
:104E600030E08CEE98E0432F4F932F93292F2F9310
:104E70008F9381E08F9389E296E0892F8F9389E267
:104E800096E08F930E944F128DB79EB707960FB68C
:104E9000F894DEBF0FBECDBF10CF8CE199E0292F73
:104EA0002F938F9381E08F9389E296E0892F8F93E0
:104EB00089E296E08F930E944F120F900F900F900F
:104EC0000F900F9003CF8DE299E0292F2F938F93AE
:104ED00084E08F9389E296E0892F8F9389E296E0B0
:104EE0008F930E944F120F900F900F900F900F9082
:104EF00097C18CEB90E0FC0180818823D4F789EB8B
:104F000090E0FC018081887F80933C0880913C0880
:104F1000282F30E085E499E0432F4F932F93292FDA
:104F20002F938F9381E08F9389E296E0892F8F935F
:104F300089E296E08F930E944F128DB79EB7079635
:104F40000FB6F894DEBF0FBECDBF80913C08882F0E
:104F500090E08033910519F18833910509F4B6CEBC
:104F6000889709F056C188E599E0292F2F938F93F0
:104F700081E08F9389E296E0892F8F9389E296E012
:104F80008F930E944F120F900F900F900F900F90E1
:104F900000008CEB90E024EAFC01208316C087E738
:104FA00099E0292F2F938F9381E08F9389E296E0E8
:104FB000892F8F9389E296E08F930E944F120F9072
:104FC0000F900F900F900F901CC18CEB90E0FC01A4
:104FD00080818823D4F789EB90E0FC018081887F71
:104FE00080933C0880913C08882F90E080319105A7
:104FF00039F08833910509F469CE089709F00BC19F
:1050000087E999E0292F2F938F9381E08F9389E28D
:1050100096E0892F8F9389E296E08F930E944F123A
:105020000F900F900F900F900F9000008BEB90E07F
:105030002D812160FC0120838CEB90E024E8FC01B1
:1050400020838CEB90E0FC0180818823D4F789EBEE
:1050500090E0FC018081887F80933C0880913C082F
:10506000282F30E084EB99E0432F4F932F93292F83
:105070002F938F9381E08F9389E296E0892F8F930E
:1050800089E296E08F930E944F128DB79EB70796E4
:105090000FB6F894DEBF0FBECDBF80913C08882FBD
:1050A00090E08034910541F08834910509F4A8C05E
:1050B000C89709F0B2C00ACE00001A829CC08A814B
:1050C000882331F48CEB90E024E8FC01208305C0B8
:1050D0008CEB90E024ECFC01208300008CEB90E052
:1050E000FC0180818823D4F789EB90E0FC0180816A
:1050F000887F80933C0880913C08282F30E087EC23
:1051000099E0432F4F932F93292F2F938F9381E073
:105110008F9389E296E0892F8F9389E296E08F93AF
:105120000E944F128DB79EB707960FB6F894DEBF58
:105130000FBECDBF80913C08882F90E0803591054F
:10514000C9F08835910509F06AC08AED99E0292FE8
:105150002F938F9381E08F9389E296E0892F8F932D
:1051600089E296E08F930E944F120F900F900F905C
:105170000F900F902BEB30E08A81082E000C990BDA
:10518000F90140819E012A5F3F4F820F931FFC016E
:1051900040838985482F50E08A81082E000C990BA6
:1051A0009E012A5F3F4F820F931FFC018081282FB1
:1051B00030E08BEF99E0652F6F934F93432F4F9320
:1051C0002F93292F2F938F9381E08F9389E296E07D
:1051D000892F8F9389E296E08F930E944F128DB7AB
:1051E0009EB709960FB6F894DEBF0FBECDBF000084
:1051F0008A8181508A838A8188230CF060CF01C024
:1052000000008CEB90E024E9FC0120838E819F81DB
:105210000CC0000005C0000003C0000001C0000079
:105220008FEF9FEF9C838B83ECCF29960FB6F8947A
:10523000DEBF0FBECDBFDF91CF910895CF93DF9337
:1052400000D000D000D0CDB7DEB78F836887498704
:105250001A8219821B828F81880F8D8389858E83A4
:105260008B8191E0980F9B838A3010F08FEF28C2DA
:1052700000008CEB90E024EAFC01208300008CEB22
:1052800090E0FC0180818823D4F789EB90E0FC0159
:105290008081887F80933C0880913C08882F90E033
:1052A0008031910529F08833910519F10897B9F5F6
:1052B00084E19AE0292F2F938F9381E08F9389E2E5
:1052C00096E0892F8F9389E296E08F930E944F1288
:1052D0000F900F900F900F900F9000008BEB90E0CD
:1052E0002D81FC0120838CEB90E024E8FC012083DD
:1052F0002DC088E29AE0292F2F938F9381E08F931E
:1053000089E296E0892F8F9389E296E08F930E943D
:105310004F120F900F900F900F900F90AACF89E32C
:105320009AE0292F2F938F9384E08F9389E296E060
:10533000892F8F9389E296E08F930E944F120F90EE
:105340000F900F900F900F908FEFBAC18CEB90E001
:10535000FC0180818823D4F789EB90E0FC018081F7
:10536000887F80933C0880913C08282F30E087E5B7
:105370009AE0432F4F932F93292F2F938F9381E000
:105380008F9389E296E0892F8F9389E296E08F933D
:105390000E944F128DB79EB707960FB6F894DEBFE6
:1053A0000FBECDBF80913C08882F90E080329105E0
:1053B00041F18833910509F443C0489709F056C07C
:1053C0008AE69AE0292F2F938F9381E08F9389E2C9
:1053D00096E0892F8F9389E296E08F930E944F1277
:1053E0000F900F900F900F900F9000008BEB90E0BC
:1053F0002885FC0120838CEB90E024E8FC012083CD
:105400004BC08B81282F30E08AE89AE0432F4F93DE
:105410002F93292F2F938F9381E08F9389E296E02A
:10542000892F8F9389E296E08F930E944F128DB758
:105430009EB707960FB6F894DEBF0FBECDBF10CF54
:105440008AEB9AE0292F2F938F9381E08F9389E243
:1054500096E0892F8F9389E296E08F930E944F12F6
:105460000F900F900F900F900F9003CF8BEC9AE05E
:10547000292F2F938F9384E08F9389E296E0892FD1
:105480008F9389E296E08F930E944F120F900F90B6
:105490000F900F900F900FC18CEB90E0FC0180817A
:1054A0008823D4F789EB90E0FC018081887F80938A
:1054B0003C0880913C08282F30E083EE9AE0432F8F
:1054C0004F932F93292F2F938F9381E08F9389E20E
:1054D00096E0892F8F9389E296E08F930E944F1276
:1054E0008DB79EB707960FB6F894DEBF0FBECDBF3F
:1054F00080913C08882F90E08033910509F4CEC05C
:105500008833910509F4B5CE889709F0D1C0888514
:10551000282F30E086EF9AE0432F4F932F93292FC7
:105520002F938F9381E08F9389E296E0892F8F9359
:1055300089E296E08F930E944F12EDB7FEB737963F
:105540000FB6F894DEBF0FBECDBF00001C82A1C015
:105550008C81282F880F330B8BEB90E0AE014A5FD4
:105560005F4F240F351FF9012081FC0120838CEB54
:1055700090E024E8FC01208300008CEB90E0FC012B
:1055800080818823D4F789EB90E0FC018081887FBB
:1055900080933C0880913C08282F30E08FE09BE00E
:1055A000432F4F932F93292F2F938F9381E08F9326
:1055B00089E296E0892F8F9389E296E08F930E948B
:1055C0004F128DB79EB707960FB6F894DEBF0FBE89
:1055D000CDBF80913C08882F90E08033910509F47D
:1055E0005FC08833910509F444CE889709F062C002
:1055F0008C81282F880F330B82E29BE0432F4F933F
:105600002F93292F2F938F9381E08F9389E296E038
:10561000892F8F9389E296E08F930E944F12EDB706
:10562000FEB737960FB6F894DEBF0FBECDBF8885A4
:10563000482F50E08C81082E000C990B9E012A5FA8
:105640003F4F820F931FFC018081282F30E08CE3B5
:105650009BE0652F6F934F93432F4F932F93292FE9
:105660002F938F9381E08F9389E296E0892F8F9318
:1056700089E296E08F930E944F128DB79EB70996EC
:105680000FB6F894DEBF0FBECDBF00008C818150F5
:105690008C838C8188230CF05BCF03C0000001C099
:1056A00000008CEB90E024E9FC012083898108C094
:1056B000000001C000008FEF9FEF9A838983F1CF34
:1056C00029960FB6F894DEBF0FBECDBFDF91CF9104
:1056D0000895CF93DF930F920F92CDB7DEB78A83F1
:1056E00060E08A810E948F2D84E70E94BD2B898310
:1056F0008981282F30E088E59BE0432F4F932F933B
:10570000292F2F938F9381E08F9381E396E0892F48
:105710008F9381E396E08F930E944F128DB79EB7CF
:1057200007960FB6F894DEBF0FBECDBF80E00F9096
:105730000F90DF91CF910895CF93DF9300D00F9218
:10574000CDB7DEB78B836C8319828C81282F30E034
:1057500081E090E002C0880F991F2A95E2F78A83C2
:105760006A818B810E948F2D898389810F900F9090
:105770000F900F90DF91CF910895CF93DF9300D0DA
:1057800000D0CDB7DEB78E8319828E81880F8B83D0
:10579000898191E0980F99838A3018F08FEF9FEFFD
:1057A000B5C100008CEB90E024EAFC0120830000EE
:1057B0008CEB90E0FC0180818823D4F789EB90E0AA
:1057C000FC018081887F80933C0880913C08882F71
:1057D00090E08031910529F08833910521F10897F7
:1057E000C1F587E79BE0292F2F938F9381E08F935B
:1057F00081E396E0892F8F9381E396E08F930E9457
:105800004F120F900F900F900F900F9000008BEBA6
:1058100090E02B812160FC0120838CEB90E024E858
:10582000FC0120832EC08BE89BE0292F2F938F93C0
:1058300081E08F9381E396E0892F8F9381E396E057
:105840008F930E944F120F900F900F900F900F9018
:10585000A9CF8CE99BE0292F2F938F9384E08F931E
:1058600081E396E0892F8F9381E396E08F930E94E6
:105870004F120F900F900F900F900F908FEF9FEFA0
:1058800045C18CEB90E0FC0180818823D4F789EB43
:1058900090E0FC018081887F80933C0880913C08E7
:1058A000282F30E08AEB9BE0432F4F932F93292F33
:1058B0002F938F9381E08F9381E396E0892F8F93CD
:1058C00081E396E08F930E944F128DB79EB70796A3
:1058D0000FB6F894DEBF0FBECDBF80913C08882F75
:1058E00090E08034910531F088349105D9F0C89763
:1058F000C1F14DC08DEC9BE0292F2F938F9381E058
:105900008F9381E396E0892F8F9381E396E08F93C5
:105910000E944F120F900F900F900F900F90000069
:105920001A82E1C08981282F30E08DEE9BE0432F61
:105930004F932F93292F2F938F9381E08F9381E3A0
:1059400096E0892F8F9381E396E08F930E944F1208
:10595000EDB7FEB737960FB6F894DEBF0FBECDBFDA
:1059600017CF8DE19CE0292F2F938F9381E08F93A8
:1059700081E396E0892F8F9381E396E08F930E94D5
:105980004F120F900F900F900F900F900BCF8EE251
:105990009CE0292F2F938F9384E08F9381E396E0EF
:1059A000892F8F9381E396E08F930E944F120F907F
:1059B0000F900F900F900F90A4C08A81882331F42C
:1059C0008CEB90E024E8FC01208305C08CEB90E098
:1059D00024ECFC01208300008CEB90E0FC01808132
:1059E0008823D4F789EB90E0FC018081887F809345
:1059F0003C0880913C08282F30E086E49CE0432F4F
:105A00004F932F93292F2F938F9381E08F9381E3CF
:105A100096E0892F8F9381E396E08F930E944F1237
:105A20008DB79EB707960FB6F894DEBF0FBECDBFF9
:105A300080913C08882F90E080359105C9F0883529
:105A4000910509F05DC089E59CE0292F2F938F9384
:105A500081E08F9381E396E0892F8F9381E396E035
:105A60008F930E944F120F900F900F900F900F90F6
:105A70002BEB30E08A81082E000C990BF901408154
:105A80009E012C5F3F4F820F931FFC0140838A8150
:105A9000082E000C990B9E012C5F3F4F820F931F25
:105AA000FC018081282F30E08AE79CE0432F4F9350
:105AB0002F93292F2F938F9381E08F9381E396E08B
:105AC000892F8F9381E396E08F930E944F128DB7B9
:105AD0009EB707960FB6F894DEBF0FBECDBF00008D
