:101300001201000200000040EF0301100000010282
:1013100000010A06000200000040010009022E0040
:10132000010100C0000904000004FF0000000705DF
:1013300002020002000705040200020007058602FF
:101340000002000705880200020009022E000101C8
:1013500000C0320904000004FF000000070502027B
:101360004000000705040240000007058602400017
:101370000007058802400000040309041003500020
:10138000690063006100720072006F001803500072
:10139000690063006100720072006F002D0055004B
:0613A000530042000000B2
:0A1A6C000001020203030404050553
:10084C00901F10120C0900000000C203C200C2026B
:10085C00C201120F777E137F00901F34EEF0A3EFCE
:10086C00F0901F3C7413F0A37412F0901F327413A9
:10087C00F0A3741CF0901F3A7413F0A3744AF09018
:10088C001F3E7413F0A37478F0EE54E07003020A68
:10089C0006901F14E4F0A37480F0A3EEF0A3EFF025
:1008AC00C374A49FFF74139ECF2402CF3400FEE4C4
:1008BC00FCFD901F0C120BFD901F08120C09000080
:1008CC000000901F0CE0FCA3E0FDA3E0FEA3E0FF02
:1008DC00901F08E0F8A3E0F9A3E0FAA3E0FBC31231
:1008EC000BEC503A901F0AE0FEA3E0FF901F14E0BF
:1008FC00FCA3E02FF582EC3EF58374CDF0901F083D
:10090C00E0FCA3E0FDA3E0FEA3E02401FFE43EFE37
:10091C00E43DFDE43CFC901F08120BFD80A4901FED
:10092C0008120C0900000000901F0CE0FCA3E0FD75
:10093C00A3E0FEA3E0FF901F08E0F8A3E0F9A3E01A
:10094C00FAA3E0FBC3120BEC5049901F0AE0FEA384
:10095C00E0FF901F16E0FCA3E02FF582EC3EF58340
:10096C00E0FD901F14E0FAA3E02FF582EA3EF58338
:10097C00EDF0901F08E0FCA3E0FDA3E0FEA3E02453
:10098C0001FFE43EFEE43DFDE43CFC901F08120B2D
:10099C00FD8095901F14E0FFA3E0901F34CFF0A3CF
:1009AC00EFF074002480FF741334FFFEC3901F3DDE
:1009BC00E09FF0901F3CE09EF0C3901F37E09FF04B
:1009CC00901F36E09EF0C3901F39E09FF0901F38C7
:1009DC00E09EF0C3901F33E09FF0901F32E09EF03A
:1009EC00C3901F3BE09FF0901F3AE09EF0C3901F16
:1009FC003FE09FF0901F3EE09EF0D2E843D820905D
:100A0C00E668E04409F090E65CE0443DF0D2AF903B
:100A1C00E680E020E105D20512183D90E680E05416
:100A2C00F7F0538EF8C203300105120618C20130DC
:100A3C000329121A9A5024C20312191E2000169070
:100A4C00E682E030E704E020E1EF90E682E030E679
:100A5C0004E020E0E41218C9121A9C1203BF80C7EC
:1006180090E6B9E070030206D91470030207562465
:10062800FE70030207D924FB70030206D31470037B
:100638000206CD1470030206C11470030206C72413
:10064800056003020838121A9E400302084490E627
:10065800BBE024FE602814604024FD601414602B65
:1006680024067052901F34E090E6B3F0901F358056
:1006780025901F3CE090E6B3F0901F3D8018901F36
:1006880036E090E6B3F0901F37800B901F38E0906B
:10069800E6B3F0901F39E0801690E6BAE0FF121832
:1006A8006CAA06A907EA49600DEE90E6B3F0EF9050
:1006B800E6B4F002084402083D121A3A020844124D
:1006C8001A76020844121634020844121A2602083E
:1006D80044121AA0400302084490E6B8E0247F6060
:1006E8001514601924027063A200E43325E0FFA208
:1006F80002E4334F8041E490E740F0803F90E6BC4D
:10070800E0547EFF7E00E0D394807C0040047D01AD
:1007180080027D00EC4EFEED4F246CF582741A3E8B
:10072800F583E493FF3395E0FEEF24A1FFEE34E672
:100738008F82F583E0540190E740F0E4A3F090E65F
:100748008AF090E68B7402F002084402083D121AFF
:10075800A2400302084490E6B8E024FE6016240292
:10076800600302084490E6BAE0B40105C20002083A
:100778004402083D90E6BAE0705590E6BCE0547E2D
:10078800FF7E00E0D394807C0040047D0180027DE0
:1007980000EC4EFEED4F246CF582741A3EF583E4AE
:1007A80093FF3395E0FEEF24A1FFEE34E68F82F548
:1007B80083E054FEF090E6BCE05480131313541FFA
:1007C800FFE0540F2F90E683F0E04420F0806D8026
:1007D80064121AA4506690E6B8E024FE6019240258
:1007E800705A90E6BAE0B40104D200804F90E6BA9D
:1007F800E064026047803E90E6BCE0547EFF7E00E5
:10080800E0D394807C0040047D0180027D00EC4EA2
:10081800FEED4F246CF582741A3EF583E493FF33A2
:1008280095E0FEEF24A1FFEE34E68F82F583800881
:10083800120080500790E6A0E04401F090E6A0E0A6
:030848004480F0F9
:01084B00228A
:03003300021A9618
:041A960053D8EF3200
:100D8A0060801E3D2101013F01013F070100000370
:100D9A000000030007030103070507070900000015
:100DAA000000003F2101013F01013F07010002014C
:100DBA0000020100070200020604060709000000FB
:100DCA000000003F02021302022EB80700000102CF
:100DDA0000010300030101070505070700000000E1
:100DEA0000002D3F02021302022E380700020304FC
:100DFA0002030500020000060404070700000000C1
:100E0A0000002D3F60241EC4000000000000000006
:100E1A0000000000000000000000000000000000C8
:100E2A00000000000000000000000000471EBDE0B6
:060E3A00000007EA4E0073
:1010510090E60174EAF090E6F574FFF0901EBDE0B1
:1010610090E6F3F0901EBEE090E6C3F0901EBFE064
:1010710090E6C1F0901EC0E090E6C2F0901EC2E082
:1010810090E6C0F0901EC3E090E6F4F075AF0774EF
:101091001EF59A743DF59B759DE4E4F59EFF90E67F
:1010A1007BE090E67CF00FEFB480F3E490E671F022
:1010B100F5B490E672E0547FF053B67F000000E48F
:1010C10090E6C4F000000090E6C5F0901EC4E090E8
:1010D100E6C6F0901EC5E090E6C7F0901EC6E0900F
:1010E100E6C8F0901EC7E090E6C9F0901EC8E090F7
:1010F100E6CAF0901EC9E090E6CBF0901ECAE090DF
:0B110100E6CCF0901ECBE090E6CDF0B5
:01110C0022C0
:100E4000421EF30000411EF200501EF6C0F9A4B08D
:100E5000999282F880988883C6A1868E421EE90006
:100E600000C104421F060000421EEF0000421EEDBA
:0E0E70000000411EE800411EEC00411EF10092
:1014CC00C0E0C0F0C083C082C0D075D000C000C0E6
:1014DC0001C002C003C004C005C006C007901EEDC9
:1014EC00E07002A3E07F0860051216D48003121688
:1014FC0085901EEDE0FEA3E0F4FFEEF4901EEDF0FF
:10150C00A3EFF0C2CFC2CED007D006D005D004D006
:10151C0003D002D001D000D0D0D082D083D0F0D074
:02152C00E032AB
:0C19AA0090E741E090E740FEE0FDEDFF1B
:1019B600AD07AC06E5BB30E7FBEC90E6F0F0ED904A
:0419C600E6F1F02234
:0B180E00901F1AE0FBA3E0FAA3E0F932
:10181900E5BB30E7FB90E6F1E0901EE8F0E5BB3070
:10182900E7FB90E6F2E0FE90E6F0E0FDEDFFEE8FDB
:04183900F0020BA00E
:100F770000000090E600E054E74410F00000009005
:100F8700E605E054FDF0D20090E61074A0F090E67C
:100F970011F000000090E61274A2F000000090E645
:100FA7001374A0F000000090E61474E0F000000055
:100FB700E490E615F000000090E6047480F000006D
:100FC700007402F00000007404F00000007406F0E2
:100FD700000000E4F000000090E61804F0000000B4
:100FE7007411F0000000E490E619F000000090E6AC
:100FF7001A7409F0000000E490E68DF000000090FC
:10100700E6957480F0000000F00000001210519087
:10101700E6727408F075B693E4F5B1538EDFD2CA61
:10102700C2CCC2CDC2C8C2BDC2CFC2CE75CB63755A
:10103700CAC0D2ADF59890E67004F043B29E7580B1
:0A1047008143AF01000000021A808F
:1003BF00E4901F18F0A3F0A3F0E5BB20E7030204BD
:1003CF00C3E5AA20E24C7AF4790074F4F59A74002C
:1003DF00F59B90E694E0FE90E695E07C002400FF0C
:1003EF00EC3EFEE4FDC3ED9FEC9E501490E67BE0E7
:1003FF00FB901F18E4F0A3EBF00DBD00010C80E59E
:10040F00901F1A7401F000000090E6957480F000C0
:10041F000000E5AB30E1030204C390E6F4E07004A2
:10042F007F0180027F00EF20E0F090E6ABE0FE90CE
:10043F00E6ACE0FDAC06ECC313FCED1324FEFD743B
:10044F00FF3CFCD3ED9400EC94004023758089ECC5
:10045F0090E6D0F0000000AF05EF90E6D1F000007D
:10046F0000E4F5BB000000E5BB30E7FB00000090A7
:10047F00E6F4E070047F0180027F00EF20E0F0756A
:10048F00808DE490E6D0F000000090E6D17402F089
:10049F00000000E4F5BB000000E5BB30E7FB000007
:1004AF000090E6F4E070047F0180027F00EF20E00F
:1004BF00F0000000901EE9E07002A3E07003020557
:1004CF00C1E5BB20E7030205C1E5AC30E00302053F
:1004DF00C190E6F4E070047F0180027F00EF20E01E
:1004EF00F0901EEAE024FEF0901EE9E034FFF0D316
:1004FF00A3E09400901EE9E06480948040387580FA
:10050F0089E490E6CEF000000090E6CFF000000006
:10051F00901EE9E0FCA3E0FDEC90E6D0F0000000B7
:10052F00ED90E6D1F000000075BB06000000E5BBC2
:10053F0030E7FB00000075808DE490E6CEF0000000
:10054F000090E6CFF000000090E6D0F000000090A1
:10055F00E6D17402F000000075BB06000000E5BB99
:10056F0030E7FB00000090E6AFE0FE90E6B0E0FD64
:10057F00EDFF901EEFEEF0A3EFF0901F06E0FEA34D
:10058F00E0FFC3901EF0E09F901EEFE09E5006909C
:10059F00E6487406F0E4901EE9F0A3F075808D90A4
:1005AF00E6F4E070047F0180027F00EF20E0F000AE
:1005BF000000901EF3E475F001120B49AFF0FEBE80
:1005CF002722BF101F901EF2E004F0E05407FF1225
:1005DF0016D4901EF2E0F45407FF121685E4901E15
:1005EF00F3F0A3F0901F1AE0601E7E00901F19E039
:1005FF00540F24F6F582EE341EAB82FA7D017F2173
:08060F00121988E4901F1AF093
:0106170022C0
:021A9A00D32255
:021A9C00D32253
:021A9E00D32251
:1016340090E680E030E72100000090E6247402F098
:10164400000000E490E625F0000000D204901F069C
:101654007404F0A3E4F0801F000000E490E624F09A
:1016640000000090E6257440F0000000C204901FC2
:1016740006E4F0A37440F090E6BAE0901EF5F0D3CF
:011684002243
:101A2600901EF5E090E740F0E490E68AF090E68BB1
:041A360004F0D322C3
:0A1A760090E6BAE0901EEBF0D322D8
:101A3A00901EEBE090E740F0E490E68AF090E68BA7
:041A4A0004F0D322AF
:021AA000D3224F
:021AA200D3224D
:021AA400D3224B
:1000800090E6BBE0FE90E6BAE0FDEDFF901F18EEB3
:10009000F0A3EFF090E6BFE0FE90E6BEE0FDEDFFDE
:1000A000E4901F1DF0A3F090E6B9E02450603324E3
:1000B000F0B4090040030203BB9000C775F003A42D
:1000C000C58325F0C583730200F902020B02025CAE
:1000D00002029E0202EF02033202035E02019F024D
:1000E000038390E74074E9F0A37403F0E490E68A98
:1000F000F090E68B74020203B1901F18E0FCA3E0BD
:10010000FDEC600302019DED24FE603B146066245B
:1001100002600302019D75B69375B11000000000E6
:100120000000000053B1EF00000000000000004399
:10013000B11075B68390E7407401F0E490E68AF060
:1001400090E68B040203B1E490E68BF0E5BA20E080
:10015000FBE4FDFCC3ED9FEC9E40030203BD744035
:100160002DF582E434E7F583E0F5995398FD0DBD54
:1001700000010C80DFAFB1EF30E6047E0280027E2A
:1001800000EF30E5047F0180027F00EF4E90E740F2
:10019000F0E490E68AF090E68B040203B1D322905B
:1001A0001F18E0FEA3E0FFEE705FEF24FE601B145B
:1001B000602A24027053A204E43390E740F0E490F4
:1001C000E68AF090E68B040203B190E740E5BBF0CD
:1001D000E490E68AF090E68B040203B190E6D1E069
:1001E00090E740F090E6D0E090E741F090E6CFE075
:1001F00090E742F090E6CEE090E743F0E490E68AA4
:10020000F090E68B74040203B1D32290E6F4E07020
:10021000047F0180027F00EF20E0F0901F1A74013C
:10022000F0A374E7F0A37440F07580810000001221
:10023000180EE5BB30E7FB901F1BE475F002120BB4
:100240004975808300000012180EE5BB30E7FBE41F
:1002500090E68AF090E68B74040203B1E490E68B9A
:10026000F0E5BA20E0FB90E6F4E070047F01800244
:100270007F00EF20E0F07580810000001219AAE5F0
:10028000BB30E7FB75808300000090E743E090E718
:10029000421219B1E5BB30E7030203BD80F690E6D8
:1002A000F4E070047F0180027F00EF20E0F0901FF7
:1002B0001A7401F0A374E7F0A37440F07580850010
:1002C000000012180EE5BB30E7FB901F1BE475F031
:1002D00002120B4975808700000012180EE5BB3032
:1002E000E7FBE490E68AF090E68B74040203B1E445
:1002F00090E68BF0E5BA20E0FB90E6F4E070047F36
:100300000180027F00EF20E0F07580850000001280
:1003100019AAE5BB30E7FB75808700000090E74332
:10032000E0FE90E7421219B2E5BB30E7030203BDDD
:1003300080F6E490E68BF0E5BA20E0FB90E741E040
:10034000FE90E740E0FDEDFF901EE9EEF0A3EFF038
:10035000901EE9E0A2E713F0A3E013F0805F90E6BF
:10036000047480F00000007406F0000000E4F00067
:10037000000090E74004F0E490E68AF090E68B04F9
:10038000F0803A901F18A3E0FF30E00553807F8093
:1003900003438080EF30E1055380FE8003438001FA
:1003A000901F19E090E740F0E490E68AF090E68B29
:0E03B00004F090E6A0E04480F08002D322C367
:0103BE00221C
:1019CA00C0E0C083C082D2015391EF90E65D7401FA
:0819DA00F0D082D083D0E0328E
:1019FA00C0E0C083C0825391EF90E65D7404F0D0DA
:061A0A0082D083D0E0321F
:101A1000C0E0C083C0825391EF90E65D7402F0D0C5
:061A200082D083D0E03209
:10158A00C0E0C083C082C0D075D000C006C007903A
:10159A001F3AE0FEA3E0FF901F36EEF0A3EFF0F54E
:1015AA00828E83A37402F0901F32E0FEA3E0FF90C4
:1015BA001F38EEF0A3EFF0F5828E83A37407F05381
:1015CA0091EF90E65D7410F0D007D006D0D0D082AB
:0515DA00D083D0E032D7
:1019E200C0E0C083C082D2035391EF90E65D7408D9
:0819F200F0D082D083D0E03276
:10152E00C0E0C083C082C0D075D000C006C0079096
:10153E00E680E030E730901F32E0FEA3E0FF901F20
:10154E0036EEF0A3EFF0F5828E83A37402F0901FB7
:10155E003AE0FEA3E0FF901F38EEF0A3EFF0F58225
:10156E008E83A37407F05391EF90E65D7420F0D054
:0C157E0007D006D0D0D082D083D0E0325D
:011AA600320D
:011AA700320C
:011AA800320B
:011AA900320A
:011AAA003209
:011AAB003208
:011AAC003207
:011AAD003206
:011AAE003205
:011AAF003204
:011AB0003203
:011AB1003202
:011AB2003201
:011AB3003200
:011AB40032FF
:011AB50032FE
:011AB60032FD
:011AB70032FC
:011AB80032FB
:011AB90032FA
:011ABA0032F9
:011ABB0032F8
:011ABC0032F7
:011ABD0032F6
:011ABE0032F5
:011ABF0032F4
:011AC00032F3
:011AC10032F2
:011AC20032F1
:011AC30032F0
:011AC40032EF
:011AC50032EE
:011AC60032ED
:011AC70032EC
:011AC80032EB
:011AC90032EA
:10168500AD07EF30E00F908100E0901EECF0901E6A
:10169500F1E054FEF0ED30E10F909100E0901EEC8A
:1016A500F0901EF1E054FDF0ED30E20F90A100E066
:1016B500901EECF0901EF1E054FBF0ED30E30F903E
:0F16C500B100E0901EECF0901EF1E054F7F0221F
:1016D400AD07EF30E00F908000E0901EECF0901E1C
:1016E400F1E04401F0ED30E10F909000E0901EEC49
:1016F400F0901EF1E04402F0ED30E20F90A000E023
:10170400901EECF0901EF1E04404F0ED30E30F90F5
:0F171400B000E0901EECF0901EF1E04408F022CF
:03002B000214CCF0
:0C0E7E00411E2B00411E3C00411E1A00CA
:011ACA0022F9
:011ACB0022F8
:011ACC0022F7
:0C1A6000901F55EFF0A3ECF0A3EDF02276
:061A8A00901E2BE0FF227C
:061A9000901E3CE0FF2265
:101943007C007D43120B3774002FF9741C3EFA7B25
:1019530001900002E4120B15900001E4120B15E450
:03196300020B0371
:0B110D00901F40EFF0A3ECF0A3EDF00A
:10111800901F40E075F043A42400F9741C35F0FAE0
:101128007B01901F43EBF0A3EAF0A3E9F0900002E3
:10113800120A6CB4201D901E3CE0FF901F40E0FE98
:101148007401A806088002C333D8FC4F901E3CF0F7
:101158007F0022901F41E0FEA3E0FFA3E0FBA3E095
:10116800FAA3E02403F9E43AFAC003C002C00190EC
:101178001F43A3E0FAA3E0F99000017401120A9951
:1011880075F002A4F58285F083D001D002D003EE79
:101198008FF0120BBF901F43E0FBA3E0FAA3E0F926
:1011A800900001120A6CB42007900001E4120B159C
:0A11B8009000027401120AD07F01BA
:0111C200220A
:0E12B800901F51EFF0A3EBF0A3EAF0A3E9F0D2
:1012C600901F51E075F043A42400F9741C35F0FA20
:1012D6007B01900002120A6C701D901E2BE0FF909D
:1012E6001F51E0FE7401A806088002C333D8FC4FE4
:0A12F600901E2BF07F00227F0022E3
:1018F500E4901E1AF0901E2BF0901E3CF0901F5B9A
:10190500F0901F5BE0FFC39408500D7E0012194351
:08191500901F5BE004F080E983
:01191D0022A7
:10189B00E4901E1AF0FFEF25E0242CF582E4341EB1
:1018AB00F583E4F0A3F0EF25E0241BF582E4341E6E
:0E18BB00F583E4F0A3F00FEFB408DB0218F59C
:10179D00901E1AE07032121ACB901E19E02401FF30
:1017AD00901E18E03400FEE4FDED25E0241BF582CB
:1017BD00E4341EF583EEF0A3EFF00DEDB408EA90DE
:0817CD001E1A7401F0121ACC7F
:0117D50022F1
:101A4E00EF25E0242CF582E4341EF583ECF0A3EDB3
:021A5E00F02274
:0813A600901F4CEEF0A3EFF0E4
:1013AE00E4A3F0901F4EE0FFC39408400302143FE5
:1013BE00EF25E0242CF582E4341EF583E0FEA3E055
:1013CE004E6065901F4EE025E0241BF582E4341E2E
:1013DE00F583E0FCA3E0FD901F4CE0FAA3E0FBEDEB
:1013EE006B7002EC6A70417B017A1F794F1212B852
:1013FE00EF600E901F4EE0FFA3E0FCA3E0FD121A7B
:10140E0060901F4EE0FF25E0242CF582E4341EF59B
:10141E0083E0FCA3E0FDEF25E0241BF582E4341EFF
:10142E00F583EC8DF0120B49901F4EE004F0021381
:01143E00B1FC
:01143F00228A
:0B0E8B00901F20EBF0A3EAF0A3E9F0B9
:100E9600E4901F2EF0EF7003020F76E4901F2DF002
:100EA600901F2DE0FEC394085021EF30E011A3E01F
:100EB600FD04F074252DF582E4341FF583EEF0EF82
:100EC600C313FF901F2DE004F080D5E4901F2DF092
:100ED600901F2FF0A3F0901F23E0FEA3E0FFC39026
:0E0EE6001F30E09F901F2FE09E4003020F760A
:100EF400901F2DE02425F582E4341FF583E0901F34
:100F040031F025E0242CF582E4341EF583E0FEA3C1
:100F1400E04E901F31601DE0FF901F20E0FBA3E432
:100F240075F002120B5FA9F0FA120B75FDACF0120A
:100F3400110D801BE0FF901F20E0FBA3E475F0027D
:100F4400120B5FA9F0FA120B75FDACF0121A609047
:100F54001F2DE004F0A3E0FF901F2DE0B50702E48D
:010F6400F09C
:100F6500901F30E004F07006901F2FE004F0020E91
:010F7500DC9F
:010F76002258
:0B172300901F58EBF0A3EAF0A3E9F0E0
:10172E00121ACAE4FF75F043EFA42402F582E5F025
:10173E00341CF583E0FEC374209EFE901F58E0FB20
:10174E00A3E0FAA3E0F98F82758300EE120B150F5A
:04175E00EFB408D10B
:011762002264
:03004300021200A6
:0300530002120096
:101200000219CA00021A10000219FA000219E200BB
:1012100002158A0002152E00021AA600021AA70063
:10122000021AA800021AA900021AAA00021AAB00A8
:10123000021AAC00021AAD00021AAE00021AAF0088
:10124000021AB000021AA700021AB100021AB20074
:10125000021AB300021AB400021AB500021AB6004C
:10126000021AB700021AA700021AA700021AA70062
:10127000021AB800021AB900021ABA00021ABB0018
:10128000021ABC00021ABD00021ABE00021ABF00F8
:10129000021AC000021AC100021AC200021AC300D8
:1012A000021AC400021AC500021AC600021AC700B8
:0812B000021AC800021AC9006D
:1018C90090E682E030E004E020E60B90E682E0302A
:1018D900E119E030E71590E680E04401F07F147EDD
:0C18E900001215DF90E680E054FEF022B3
:10191E0090E682E044C0F090E681F043870100003B
:04192E000000002293
:10183D0030050990E680E0440AF0800790E680E0EC
:10184D004408F07FDC7E051215DF90E65D74FFF035
:0F185D0090E65FF05391EF90E680E054F7F022B1
:0A1A8000E4901F4BF0D2E9D2AF2230
:1017D600AD0790E678E020E6F9C2E990E678E044C5
:1017E60080F0ED25E090E679F090E678E030E0F9DB
:1017F60090E678E04440F090E678E020E6F990E65E
:0818060078E030E1D6D2E922BE
:10176300AC0790E678E020E6F9901F4BE0702990F3
:10177300E678E04480F0AF04EF25E090E679F0905E
:101783001F46EDF0AF03A9077B01A3120C43E490BE
:0A1793001F4AF0A304F0D322C32282
:1011C300AC0790E678E020E6F9901F4BE0702C9096
:1011D300E678E04480F0AF04EF25E0440190E6793F
:1011E300F0901F46EDF0AF03A9077B01A3120C4358
:0D11F300E4901F4AF0A37403F0D322C3223E
:03004B00020C4C58
:100C4C00C0E0C083C082C085C084C086758600C0E9
:100C5C00D075D000C000C001C002C003C00790E630
:100C6C0078E030E209901F4B7406F0020D6E90E6AE
:100C7C0078E020E10E901F4BE0640260067407F0F0
:100C8C00020D6E901F4BE024FE607614604424FE2F
:100C9C007003020D5B24FC7003020D6924086003D1
:100CAC00020D6E901F47120C3A901F4AE0FF04F0A1
:100CBC008F82758300120A6C90E679F0901F46E0E3
:100CCC00FF901F4AE06F6003020D6EA37405F002E3
:100CDC000D6E90E679E0FF901F47120C3A901F4A78
:100CEC00E0F582758300EF120B15901F4B7402F028
:100CFC00901F46E06401706A90E678E04420F08032
:100D0C0061901F46E024FEFF901F4AE0B507079054
:100D1C00E678E04420F0901F46E014FF901F4AE074
:100D2C00B5070C90E678E04440F0901F4BE4F0904F
:100D3C00E679E0FF901F47120C3A901F4AE0F582CB
:100D4C00758300EF120B15901F4AE004F08013908E
:100D5C00E678E04440F0901F4BE4F08005901F4B88
:100D6C00E4F05391DFD007D003D002D001D000D0F3
:0E0D7C00D0D086D084D085D082D083D0E03213
:02186C00A907CA
:10186E00901F3EE0FEA3E0FF8F828E83A3E0640311
:10187E007017AD0119ED7001228F828E83E07C000E
:0C188E002FFDEC3EFEAF0580DFE4FEFF06
:01189A00222B
:101966001211C3901F4BE024FA601014600624077E
:1019760070F1D322E4901F4BF0D322E4901F4BF07A
:02198600D3226A
:10198800121763901F4BE024FA60101460062407B6
:1019980070F1D322E4901F4BF0D322E4901F4BF058
:0219A800D32248
:1015DF00901F18EEF0A3EFF090E600E05418701A89
:1015EF00901F19E02401FF901F18E03400C313FE71
:1015FF00EF13FFEEF0A3EFF0801790E600E0541822
:10160F00FFBF100D901F19E025E0F0901F18E03379
:10161F00F0901F1874FFF5F0120B5F45F060051284
:05162F00193280ED22DC
:101932007400F58690FDA57C05A3E582458370F9C8
:011942002282
:03000000021440A7
:0C144000787FE4F6D8FD75812002148747
:100A6C00BB010CE58229F582E5833AF583E022503F
:100A7C0006E92582F8E622BBFE06E92582F8E22289
:0D0A8C00E58229F582E5833AF583E49322A3
:100A9900BB0111F8E58229F582E5833AF583E0C8BF
:100AA90028F0E8225009C58229F8C58226C622BB4A
:100AB900FE0DC58229F8E2C5822582F2E58222EA85
:070AC9002583F583E9932268
:100AD000BB010FF8E58229F582E5833AF583E0282A
:100AE000F0225009C58229F8E58226F622BBFE09CC
:100AF000C58229F8E22582F222F8EA2583F583E906
:030B000093282215
:100B0300BB010689828A83F0225002F722BBFE01D1
:020B1300F322CB
:100B1500F8BB010DE58229F582E5833AF583E8F016
:100B2500225006E92582C8F622BBFE05E92582C8C2
:020B3500F222AA
:100B3700EF8DF0A4A8F0CF8CF0A428CE8DF0A42ED2
:020B4700FE228C
:100B4900C5F0F8A3E028F0C5F0F8E5821582700237
:060B59001583E038F022D4
:100B5F00A3F8E0C5F025F0F0E58215827002158349
:060B6F00E0C838F0E822A6
:100B7500BB010A89828A83E0F5F0A3E0225006874B
:100B8500F009E71922BBFE07E3F5F009E31922890D
:0B0B9500828A83E493F5F07401932240
:100BA000BB010A89828A83F0E5F0A3F0225006F7A0
:0F0BB00009A7F01922BBFE06F3E5F009F319229D
:100BBF00F8BB0111E58229F582E5833AF583E8F068
:100BCF00E5F0A3F0225009E92582C8F608A6F02225
:0D0BDF00BBFE09E92582C8F2E5F008F2220C
:100BEC00EB9FF5F0EA9E42F0E99D42F0E89C45F05F
:010BFC0022D6
:0C0BFD00ECF0A3EDF0A3EEF0A3EFF0226B
:100C0900A8828583F0D083D082120C20120C201286
:100C19000C20120C20E473E493A3C583C5F0C583AB
:100C2900C8C582C8F0A3C583C5F0C583C8C582C835
:010C39002298
:090C3A00E0FBA3E0FAA3E0F922BB
:090C4300EBF0A3EAF0A3E9F022B2
:10144C0002084CE493A3F8E493A34003F68001F262
:10145C0008DFF48029E493A3F85407240CC8C333A1
:10146C00C4540F4420C8834004F456800146F6DF70
:10147C00E4800B0102040810204080900D8AE47E69
:10148C00019360BCA3FF543F30E509541FFEE49365
:10149C00A360010ECF54C025E060A840B8E493A32C
:1014AC00FAE493A3F8E493A3C8C582C8CAC583CA57
:1014BC00F0A3C8C582C8CAC583CADFE9DEE780BE0F
:010E8A000067
:00000001FF
