:100000000C94FD0D0C941E0E0C941E0E0C941E0EE2
:100010000C941E0E0C941E0E0C941E0E0C941E0EB0
:100020000C941E0E0C941E0E0C941E0E0C941E0EA0
:100030000C941E0E0C941E0E0C941E0E0C941E0E90
:100040000C941E0E0C941E0E0C941E0E0C94D91AB9
:100050000C941E0E0C941E0E0C941E0E0C941E0E70
:100060000C941E0E0C94200E0C941E0E0C941E0E5E
:100070000C941E0E0C941E0E0C941E0E0C941E0E50
:100080000C941E0E0C941E0E0C941E0E0C941E0E40
:100090000C941E0E0C941E0E0C941E0E0C941E0E30
:1000A0000C941E0E0C941E0E0C941E0E0C941E0E20
:1000B0000C941E0E0C941E0E0C941E0E0C941E0E10
:1000C0000C941E0E0C941E0E0C941E0E0C941E0E00
:1000D0000C941E0E0C941E0E0C941E0E0C941E0EF0
:1000E0000C941E0E0C94F6170C9488310C94702FFF
:1000F0000C94692C0C940C190C94612F0C94CB1F4C
:100100000C94182E0C94FF190C944C2E0C942E1257
:100110000C9411180C94A11F0C94D42E0C94981FBD
:100120000C946F320C94D11F0C945C2C0C947C2E8C
:100130000C9409300C9454300C945B310C94951F42
:100140000C947E2F0C94BE2E0C948F1F0C94B22016
:100150000C94921F0C94BC1F0C94A82E0C949B1F03
:100160000C9491310C945D300C94922E0C94CC2014
:100170000C942C170C94EA2E0C94C81F0C94603726
:100180000C94C51F0C94C21F0C9483200C94371739
:100190000C94782F0C94FB2D0C94662E0C94592EF5
:1001A0000C94282D0C9480130C94211C0C946A2F11
:1001B0000C94162F0C942E310C942A370C947B2F10
:1001C0000C9451300C944C130C94B5360C949E1F27
:1001D0000C9442300C942C180C9423180C94CE1FC1
:1001E0000C94E3300C9460300C948B1F0C94E3203F
:1001F0000C94322E0C9417200C9448370C94002F3A
:100200000C943F2E0C9498300C944E300C94492D45
:100210000C9463300C9457300C941A180C940B2ED9
:100220000C946D2F0C94171C0C94732F0C94151AAE
:100230000C94D2140C94E63F0C94252E0C94BF1F02
:100240006E616E00696E660000407A10F35A00A07D
:10025000724E18090010A5D4E80000E8764817008F
:1002600000E40B54020000CA9A3B000000E1F505CF
:10027000000080969800000040420F000000A08619
:1002800001000000102700000000E803000000004B
:100290006400000000000A000000000001000000EF
:1002A00000002C76D888DC674F0823DFC1DFAE5909
:1002B000E1B1B796E5E3E453C63AE651997696E89C
:1002C000E6C28426EB898C9B62ED407C6FFCEFBC20
:1002D0009C9F40F2BAA56FA5F490055A2AF75C934B
:1002E0006B6CF9676DC11BFCE0E40D47FEF520E681
:1002F000B500D0ED902E0300943577050080841E64
:10030000080000204E0A000000C80C333333330FBE
:10031000986E12831141EF8D2114893BE65516CF5B
:10032000FEE6DB18D1844B381BF77C1D901DA4BB67
:10033000E424203284725E228100C9F124ECA1E51C
:100340003D27526563656976656420636861726103
:1003500063746572206E756D6265722061626F767E
:1003600065206C696D697400256320203C2D2D206B
:10037000636F7069656420746F2072656365697668
:1003800065206275666665722E2020526563656918
:1003900076656420636F756E742069732025640030
:1003A00050617273652062756666657220636F6E58
:1003B0007461696E73202725732700436F6D6D612B
:1003C0006E642070726F636573732073706565640B
:1003D000206572726F72210052656365697665648B
:1003E000206120636F6D6D616E64207465726D694C
:1003F0006E61746F72004261642073797374656D0D
:10040000207374617465202564004669726D77619C
:1004100072652076657273696F6E2069732025732B
:10042000004E6F2068616E646C6572207370656346
:10043000696669656420666F722025732061726742
:10044000756D656E742E00457865637574696E67A9
:1004500020636F6D6D616E642077697468207369C5
:10046000676E656420696E7420617267756D656E74
:10047000742E00457865637574696E6720636F6DCF
:100480006D616E64207769746820756E7369676E3C
:10049000656420696E7420617267756D656E742E77
:1004A0000054686520617267756D656E74207661B1
:1004B0006C75652069732025752E00457865637518
:1004C00074696E6720636F6D6D616E642077697407
:1004D000682068657820617267756D656E742E009E
:1004E000457865637574696E6720636F6D6D616EC5
:1004F000642077697468206E6F20617267756D651E
:100500006E742E00556E7265636F676E697A6564EE
:1005100020636F6D6D616E643A20272573272E006E
:1005200049676E6F72696E6720617267756D656E7F
:100530007420666F7220636F6D6D616E6420272575
:1005400073272E00417267756D656E7420746F207D
:10055000272573272069732077697468696E206C7A
:10056000696D6974732E00417267756D656E7420D4
:10057000746F2027257327206973206F7574206F8F
:10058000662072616E67652E00436F6D6D616E64EB
:100590002027257327207265636F676E697A65640B
:1005A0002E0054686520636F6D6D616E6427732043
:1005B000617267756D656E742069732027257327D6
:1005C0002E0054686520636F6D6D616E6420636FEB
:1005D0006E7461696E7320612073706163652E00B3
:1005E0005468652070617273652062756666657215
:1005F000206973206C6F636B65642E0041726775B0
:100600006D656E742073697A6520697320256400B6
:1006100053797374656D202573206E6F7420666F37
:10062000756E64004E6F77206C6F6767696E672028
:1006300073797374656D2025730025750D0A004C60
:100640006F6767657220656E61626C6520726567B1
:1006500069737465722073657420746F2025752E1C
:10066000004C6F67206C6576656C2025752069737A
:10067000206E6F74207265636F676E697A65642E91
:10068000004C6F6767696E672073657420746F2014
:100690006C6576656C202569004E6F20636F6E6E09
:1006A000656374696F6E00456E746572207368755A
:1006B00074646F776E2066726F6D20626164207360
:1006C000797374656D2073746174652025640053BB
:1006D00074617465206368616E6765205354414E90
:1006E00044425920746F2053485554444F574E008C
:1006F000456E746572204944454E544946592066FA
:10070000726F6D206261642073797374656D2073FC
:100710007461746520256400537461746520636896
:10072000616E6765205354414E44425920746F20D6
:100730004944454E544946592E414D4249454E542F
:1007400000456E74657220636C65616E2066726F21
:100750006D206261642073797374656D20737461B8
:10076000746520256400466F7262696464656E205A
:100770007374617465206368616E676520534855C2
:1007800054444F574E20746F20434F4E54524F4C99
:10079000005374617465206368616E676520434F20
:1007A0004E54524F4C20746F20434C45414E0053E1
:1007B00074617465206368616E6765205354414EAF
:1007C00044425920746F20434C45414E00456E749D
:1007D000657220636F6E74726F6C2066726F6D202D
:1007E0006261642073797374656D207374617465DC
:1007F000202564005374617465206368616E6765C9
:1008000020434C45414E20746F20434F4E54524F6D
:100810004C005374617465206368616E6765205392
:1008200054414E44425920746F20434F4E54524F0E
:100830004C00466F7262696464656E207374617403
:1008400065206368616E67652053485554444F576F
:100850004E20746F20434F4E54524F4C00456E74DF
:100860006572207374616E6462792066726F6D20A8
:100870006261642073797374656D2073746174654B
:10088000202564005374617465206368616E676538
:10089000204944454E5449465920746F20535441D1
:1008A0004E444259005374617465206368616E67F9
:1008B0006520434C45414E20746F205354414E44B3
:1008C0004259005374617465206368616E676520E6
:1008D000434F4E54524F4C20746F205354414E445A
:1008E000425900466F7262696464656E2073746178
:1008F0007465206368616E67652053485554444FA2
:10090000574E20746F205354414E44425900537443
:10091000617465206368616E676520494E495420A3
:10092000746F205354414E44425900436F6D6D2003
:10093000636865636B207461736B206964206E6FFC
:100940007420666F756E6400436F6D6D206368651B
:10095000636B207461736B2069642069732025695F
:10096000005665726E6F6E2073657269616C206EE1
:10097000756D62657220697320256900546F70611E
:100980007A20422073657269616C206E756D6265B4
:100990007220697320256900546F70617A204120AC
:1009A00073657269616C206E756D62657220697322
:1009B000202569005069636172726F2C426F7865FF
:1009C000722C534E25752C2573004C6F6164696E33
:1009D0006720736C6F742049442025750057726935
:1009E00074696E6720736C6F74204944202575000C
:1009F0004C6F6164696E672073657269616C206E0B
:100A0000756D6265722025750057726974696E672D
:100A10002073657269616C206E756D626572202548
:100A20007500526561642025692066726F6D2061D2
:100A30006464726573732025690057726F74652052
:100A4000256920746F206164647265737320256961
:100A5000005265616420307825780057726F7465A4
:100A60002030782578004661696C656420746F20B9
:100A7000736574206D6173746572206D6F646500B9
:100A800053504920636F6E74726F6C207265676992
:100A900073746572206973203078257800496E6917
:100AA0007469616C697A696E67206D6574726F6EC6
:100AB0006F6D650057726F74652030782578005728
:100AC000726F7465203078257800536C61766520EC
:100AD00041434B65642064617461206279746520D0
:100AE00025752E00545749207374617475732069FD
:100AF00073203078257800536C6176652041434B34
:100B0000656420696E737472756374696F6E2030EA
:100B1000782578005457492073746174757320697F
:100B200073203078257800436F756C64206E6F7485
:100B30002073656C65637420646576696365004144
:100B400072626974726174696F6E206C6F73740085
:100B5000534C412B57207472616E736D69747465C8
:100B6000642C204E41434B20726563656976656451
:100B70002061667465722025752074726965730042
:100B8000534C412B57207472616E736D6974746598
:100B9000642C2041434B207265636569766564006F
:100BA00054574920737461747573206973203078C9
:100BB000257800436F756C64206E6F7420736574C4
:100BC00020737461727420636F6E646974696F6EF0
:100BD000004172626974726174696F6E206C6F7328
:100BE0007400537461727420636F6E646974696F0A
:100BF0006E2073657400546F70617A2025632069DC
:100C000073206E6F7420636F6E6E6563746564002D
:100C1000546F70617A202563206973206E6F742091
:100C2000636F6E6E656374656400546F70617A20E3
:100C30002563206973206E6F7420636F6E6E656329
:100C400074656400546F70617A2025632069732095
:100C50006E6F7420636F6E6E6563746564004932F5
:100C600043206D757820746F20546F70617A204135
:100C7000004368616E6E656C2073657474696E679D
:100C80002069732025690057726F746520307825BC
:100C90007820746F2072656769737465722030788C
:100CA00025782061742061646472657373203078E4
:100CB000257800536C6176652041434B6564206460
:100CC00061746120627974652025752E005457493E
:100CD00020737461747573206973203078257800EF
:100CE000536C6176652041434B6564206164647296
:100CF00065737320307825780054574920737461E8
:100D0000747573206973203078257800436F756C93
:100D100064206E6F742073656C65637420646576FF
:100D2000696365004172626974726174696F6E20F3
:100D30006C6F737400534C412B57207472616E7347
:100D40006D69747465642C204E41434B2072656359
:100D50006569766564206166746572202575207406
:100D60007269657300534C412B57207472616E7326
:100D70006D69747465642C2041434B207265636512
:100D800069766564005457492073746174757320E3
:100D90006973203078257800436F756C64206E6F1E
:100DA000742073657420737461727420636F6E6451
:100DB0006974696F6E004172626974726174696FFF
:100DC0006E206C6F737400537461727420636F6E65
:100DD000646974696F6E2073657400526561642084
:100DE00025752066726F6D20726567697374657210
:100DF000202575004E41434B207265636569766519
:100E0000642061667465722064617461207265712A
:100E10007565737400545749207374617475732039
:100E200069732030782578005457492073746174B1
:100E300075732069732030782578005365742072AB
:100E40006570656174656420737461727420636F8A
:100E50006E646974696F6E004461746120747261BC
:100E60006E736D69747465642C204E41434B20721F
:100E700065636569766564004461746120747261BC
:100E80006E736D69747465642C2041434B207265E8
:100E9000636569766564005457492073746174759D
:100EA00073206973203078257800436F756C642057
:100EB0006E6F742073656C65637420646576696316
:100EC00065004172626974726174696F6E206C6F43
:100ED000737400534C412B57207472616E736D69AB
:100EE000747465642C204E41434B207265636569C0
:100EF0007665642061667465722025752074726958
:100F0000657300534C412B57207472616E736D6989
:100F1000747465642C2041434B2072656365697667
:100F20006564005457492073746174757320697344
:100F3000203078257800436F756C64206E6F7420C4
:100F400073657420737461727420636F6E64697466
:100F5000696F6E004172626974726174696F6E20AC
:100F60006C6F7374005365742073746172742063C2
:100F70006F6E646974696F6E0057726F74652030AC
:100F800078257820746F20636F6E74726F6C207296
:100F90006567697374657200536C617665204143BF
:100FA0004B656420646174612062797465202575E5
:100FB0002E0054574920737461747573206973202F
:100FC0003078257800436F756C64206E6F742073E1
:100FD000656C65637420646576696365004172625F
:100FE0006974726174696F6E206C6F737400534C16
:100FF000412B572073656E742C20676F74204E410F
:10100000434B2066726F6D20616464726573732058
:101010003078257820616674657220257520747299
:1010200069657300534C412B57207472616E736D68
:1010300069747465642C2041434B20726563656953
:101040007665640054574920737461747573206920
:1010500073203078257800436F756C64206E6F7450
:101060002073657420737461727420636F6E646999
:1010700074696F6E004172626974726174696F6E37
:10108000206C6F737400537461727420636F6E64AC
:101090006974696F6E207365740052656164202500
:1010A000752066726F6D20636F6E74726F6C207244
:1010B00065676973746572004E41434B20726563C6
:1010C0006569766564206166746572206461746127
:1010D000207265717565737400545749207374618B
:1010E000747573206973203078257800436F756CB0
:1010F00064206E6F742073656C656374206465761C
:10110000696365004172626974726174696F6E200F
:101110006C6F737400534C412B52207472616E7368
:101120006D69747465642C204E41434B2072656375
:101130006569766564206166746572202575207422
:101140007269657300534C412B52207472616E7347
:101150006D69747465642C2041434B20726563652E
:1011600069766564005457492073746174757320FF
:101170006973203078257800436F756C64206E6F3A
:10118000742073657420737461727420636F6E646D
:101190006974696F6E004172626974726174696F1B
:1011A0006E206C6F73740053657420737461727475
:1011B00020636F6E646974696F6E00436F6E747242
:1011C0006F6C20726567697374657220636F6E74EB
:1011D00061696E732030782578005072657373757D
:1011E000726520636F6465203078256C78004D50FF
:1011F000522072656164202D2D3E203078257820A4
:101200006166746572202569207472696573004D8A
:1012100050522072656164202D2D3E203078257853
:101220002061667465722025692074726965730097
:101230004D50522074726967676572202D2D3E20D3
:101240003078257820616674657220256920747273
:10125000696573004D50522074726967676572202A
:101260002D2D3E203078257820616674657220250A
:10127000692074726965730057726F7465203078E5
:10128000257820746F2072656769737465722030E9
:1012900078257800536C6176652041434B65642066
:1012A0006461746120627974652025752E0054573D
:1012B00049207374617475732069732030782578C0
:1012C00000536C6176652041434B65642061646422
:1012D00072657373206279746520257500545749CF
:1012E00020737461747573206973203078257800D9
:1012F000436F756C64206E6F742073656C656374E6
:101300002064657669636500417262697472617414
:10131000696F6E206C6F737400534C412B572074AF
:1013200072616E736D69747465642C204E41434B19
:1013300020726563656976656420616674657220F4
:10134000257520747269657300534C412B572074C6
:1013500072616E736D69747465642C2041434B2017
:1013600072656365697665640054574920737461DA
:10137000747573206973203078257800436F756C1D
:1013800064206E6F742073657420737461727420AE
:10139000636F6E646974696F6E0041726269747222
:1013A0006174696F6E206C6F737400537461727432
:1013B00020636F6E646974696F6E20736574005288
:1013C0006561642025752066726F6D20726567699E
:1013D00073746572202575004E41434B207265631E
:1013E0006569766564206166746572206461746104
:1013F0002072657175657374005457492073746168
:10140000747573206973203078257800545749200B
:101410007374617475732069732030782578005374
:10142000657420726570656174656420737461729F
:101430007420636F6E646974696F6E0044617461D7
:10144000207472616E736D69747465642C204E41F2
:10145000434B20726563656976656400536C617601
:10146000652041434B656420616464726573732039
:10147000627974652025750054574920737461742E
:101480007573206973203078257800436F756C641C
:10149000206E6F742073656C656374206465766973
:1014A0006365004172626974726174696F6E206C69
:1014B0006F737400534C412B57207472616E736DBF
:1014C00069747465642C204E41434B2072656365DA
:1014D0006976656420616674657220257520747272
:1014E00069657300534C412B57207472616E736DA4
:1014F00069747465642C2041434B2072656365698F
:10150000766564005457492073746174757320695B
:1015100073203078257800436F756C64206E6F748B
:101520002073657420737461727420636F6E6469D4
:1015300074696F6E004172626974726174696F6E72
:10154000206C6F737400536574207374617274201F
:10155000636F6E646974696F6E00466F756E6420A8
:1015600073657269616C20257520666F7220626FE9
:1015700061726420256300546F70617A20256320B6
:101580006973206E6F7420636F6E6E65637465643B
:1015900000546F70617A202563206973206E6F7428
:1015A00020636F6E6E656374656400546F70617A5A
:1015B000202563206973206E6F7420636F6E6E65E3
:1015C0006374656400436F6E766572746564207041
:1015D0007265737375726520697320256C75205070
:1015E000617363616C7300436F6E766572746564DA
:1015F00020707265737375726520697320256C7530
:101600002050617363616C7300536B697070696E15
:101610006720756E636F6E6E656374656420546FCA
:1016200070617A20256320726561647300536B6971
:101630007070696E6720756E636F6E6E656374653A
:101640006420546F70617A20256320726561647331
:101650000052656164696E6720546F70617A20255D
:1016600063206F75746C65740052656164696E67A0
:10167000206368616E6E656C20257520696E6C65EF
:101680007400536B697070696E6720756E636F6E5E
:101690006E656374656420546F70617A20256320E1
:1016A000747269676765727300536B697070696EF5
:1016B0006720756E636F6E6E656374656420546F2A
:1016C00070617A20256320747269676765727300A0
:1016D00054726967676572696E6720546F70617ACA
:1016E000202563206F75746C657400547269676798
:1016F0006572696E67206368616E6E656C20257522
:1017000020696E6C65740050726573737572652024
:1017100072656164207461736B206964206E6F74FC
:1017200020666F756E640050726573737572652004
:1017300072656164207461736B2069642069732031
:1017400025690050726573737572652074726967DC
:10175000676572207461736B206964206E6F7420FA
:10176000666F756E64005072657373757265207470
:10177000726967676572207461736B2069642069A0
:1017800073202569005665726E6F6E206973206E36
:101790006F7420636F6E6E65637465640056657266
:1017A0006E6F6E204750494F206F757470757420AE
:1017B00062797465206973203078257800436F6EF4
:1017C0006E656374656420746F205665726E6F6E0B
:1017D000005665726E6F6E206973206E6F742063A1
:1017E0006F6E6E65637465640057686974666965D9
:1017F0006C64204932432073776974636820746F86
:10180000206368616E6E656C20320057686974668B
:1018100069656C642049324320737769746368207A
:1018200070726F626C656D005665726E6F6E2074BB
:10183000656D702069732025692043005665726EBE
:101840006F6E206973206E6F7420636F6E6E6563B8
:10185000746564004661696C656420746F2073650B
:101860007420493243206D757800493243206D75EC
:101870007820746F205665726E6F6E004932432077
:101880006D757820746F20546F70617A2042004922
:101890003243206D757820746F20546F70617A2008
:1018A000410057726F7465203078257800436C656D
:1018B0006172696E6720626C7565204C45447300E7
:1018C00055435352324320697320307825780055B0
:1018D000435352324220697320307825780045788E
:1018E0006974207461736B206964206E6F74206664
:1018F0006F756E640045786974207461736B20693C
:10190000642069732025690057726F7465203078F0
:10191000257820746F207265676973746572203052
:101920007825782061742061646472657373203057
:1019300078257800536C6176652041434B656420BF
:101940006461746120627974652025752E00545796
:101950004920737461747573206973203078257819
:1019600000536C6176652041434B6564206164647B
:10197000726573732030782578005457492073744A
:1019800061747573206973203078257800436F7512
:101990006C64206E6F742073656C6563742064657D
:1019A00076696365004172626974726174696F6E11
:1019B000206C6F737400534C412B57207472616E0E
:1019C000736D69747465642C204E41434B207265BD
:1019D000636569766564206166746572202575208B
:1019E000747269657300534C412B57207472616E99
:1019F000736D69747465642C2041434B2072656378
:101A00006569766564005457492073746174757311
:101A1000206973203078257800436F756C64206EE0
:101A20006F742073657420737461727420636F6EB9
:101A3000646974696F6E004172626974726174697D
:101A40006F6E206C6F737400537461727420636FD7
:101A50006E646974696F6E207365740052656164A9
:101A60002025752066726F6D2072656769737465D5
:101A700072202575004E41434B207265636569767F
:101A800065642061667465722064617461207265AA
:101A9000717565737400545749207374617475735C
:101AA0002069732030782578005457492073746179
:101AB000747573206973203078257800536574201D
:101AC00072657065617465642073746172742063FB
:101AD0006F6E646974696F6E004461746120747222
:101AE000616E736D69747465642C204E41434B20A4
:101AF000726563656976656400446174612074721F
:101B0000616E736D69747465642C2041434B20725F
:101B10006563656976656400545749207374617420
:101B20007573206973203078257800436F756C6475
:101B3000206E6F742073656C6563742064657669CC
:101B40006365004172626974726174696F6E206CC2
:101B50006F737400534C412B57207472616E736D18
:101B600069747465642C204E41434B207265636533
:101B700069766564206166746572202575207472CB
:101B800069657300534C412B57207472616E736DFD
:101B900069747465642C2041434B207265636569E8
:101BA00076656400545749207374617475732069B5
:101BB00073203078257800436F756C64206E6F74E5
:101BC0002073657420737461727420636F6E64692E
:101BD00074696F6E004172626974726174696F6ECC
:101BE000206C6F7374005365742073746172742079
:101BF000636F6E646974696F6E0011241FBECFEF4E
:101C0000D1E2DEBFCDBF00E00CBF16E0A0E0B2E045
:101C1000E4E0F7E800E00BBF02C007900D92A633A6
:101C2000B107D9F728E0A6E3B6E001C01D92A731BD
:101C3000B207E1F70E94213B0C9458430C9400003A
:101C40001F920F920FB60F9211240BB60F92EF92C4
:101C5000FF920F931F932F933F934F935F936F9335
:101C60007F938F939F93AF93BF93CF93DF93EF9324
:101C7000FF93F894E0910002F09101020488F58945
:101C8000E02D8091C6008083E0910002F091010276
:101C9000A489B5898C918D3009F078C088ED93E0E6
:101CA0009F938F931F92CAEBD3E0DF93CF930E9451
:101CB000F812E0910002F09101020F900F900F9046
:101CC0000F900F9084A5811102C0789446C085A51D
:101CD0008823B9F08BEB93E09F938F9384E08F93ED
:101CE000DF93CF930E94F81280910002909101023D
:101CF0000E94480F78940F900F900F900F900F90C4
:101D00002CC00488F589E02D1082E0900002F0904C
:101D1000010287010A5E1F4FB701C8010E940142FC
:101D200081E0F70185A71F930F9380EA93E09F93CB
:101D30008F931F92DF93CF930E94F812809100023D
:101D4000909101020E94480F7894EDB7FEB7379644
:101D50000FB6F894FEBF0FBEEDBFFF91EF91DF917C
:101D6000CF91BF91AF919F918F917F916F915F9133
:101D70004F913F912F911F910F91FF90EF900F90F6
:101D80000BBE0F900FBE0F901F90189584A58F5F0C
:101D900084A71F928F938C911F928F9388E693E074
:101DA0009F938F931F92CAEBD3E0DF93CF930E9450
:101DB000F812E0910002F09101028DB79EB70996EA
:101DC0000FB6F8949EBF0FBE8DBF84A5833170F00F
:101DD00082E493E09F938F9384E08F93DF93CF937C
:101DE0000E94F8128CEF0E9421107ECF8489958981
:101DF0000196958B848B69CFCF93DF93FC0184E1AF
:101E0000DF01C82F1D92CA95E9F7F58BE48BDF013E
:101E10005696ED0119928A95E9F7B3A7A2A714A6E1
:101E200015A6DF91CF9108950F931F93CF93DF9362
:101E30008B01FC01A2A5B3A5ED0109900020E9F7F3
:101E40002197CA1BDB0BCE0199279F938F938CEFB1
:101E500095E09F938F9382E08F9381EC93E09F9323
:101E60008F930E94F81281E02DB73EB7295F3F4F54
:101E70000FB6F8943EBF0FBE2DBFF80194819C179A
:101E800008F080E08195DF91CF911F910F91089527
:101E9000FC0184E1DF011D928A95E9F7F58BE48B63
:101EA00014A60895BF92CF92DF92EF92FF920F9304
:101EB0001F93CF93DF938C016B01EA01DC01129633
:101EC000FC9012971396EC906CE174E08F2D9E2D90
:101ED0000E94F841892B91F480EE94E09F938F93B8
:101EE00082E08F9381EC93E09F938F930E94F8128E
:101EF0000F900F900F900F900F902FC061E274E041
:101F00008F2D9E2D0E94F841892BB1F58BEB94E02B
:101F10009F938F9382E0B82EBF9291ECE92E93E0CD
:101F2000F92EFF92EF920E94F812C6010E9422142D
:101F3000888399839F938F9381EA94E09F938F93F3
:101F4000BF92FF92EF920E94F812EDB7FEB73C9657
:101F50000FB6F894FEBF0FBEEDBFD8011596ED91F8
:101F6000FC91CE01DF91CF911F910F91FF90EF90E7
:101F7000DF90CF90BF90199467E274E08F2D9E2D73
:101F80000E94F841892B91F483E794E09F938F930B
:101F900082E08F9381EC93E09F938F930E94F812DD
:101FA000C6010E94531499838883A2CF6EE274E025
:101FB0008F2D9E2D0E94F841892B91F487E494E0A7
:101FC0009F938F9382E08F9381EC93E09F938F9305
:101FD0000E94F812C6010E9455149B838A8388CF01
:101FE000EF92FF9281E294E09F938F9384E08F932E
:101FF00081EC93E09F938F930E94F812EDB7FEB7A8
:1020000037960FB6F894FEBF0FBEEDBFDF91CF91AC
:102010001F910F91FF90EF90DF90CF90BF900895A8
:1020200085E394E09F938F9387E394E09F938F934E
:102030001F920E949D110F900F900F900F900F9084
:10204000089525E334E03F932F93282F082E000CAA
:10205000330B3F938F938BE394E09F938F931F9267
:102060000E949D118DB79EB707960FB6F8949EBF3C
:102070000FBE8DBF0895BF92CF92DF92EF92FF9275
:102080000F931F93CF93DF93EC018B018DA58823D2
:1020900009F4F0C080EE95E09F938F9322E0B22E7A
:1020A000BF9231ECC32E33E0D32EDF92CF920E9449
:1020B000F8127E0126E1E20EF11C60E270E0C70139
:1020C0000E94ED419BA78AA70F900F900F900F9051
:1020D0000F90892B89F182EC95E09F938F93BF92AB
:1020E000DF92CF920E94F812EAA5FBA510828AA582
:1020F0009BA501969BA78AA70F900F900F900F901A
:102100000F90EAA5FBA580818032D1F1FF93EF9378
:1021100082EA95E09F938F9382E08F9381EC93E026
:102120009F938F930E94F8128DB79EB707960FB6B4
:10213000F8949EBF0FBE8DBFC7010E946014F801C6
:1021400085819681892B01F5FF92EF9284E095E0DD
:102150009F938F9384E08F9381EC93E09F938F9371
:102160000E94F8128FEF0E9421101DA62DB73EB7D6
:10217000295F3F4F0FB6F8943EBF0FBE2DBF7AC008
:102180003196FBA7EAA7BDCFF801D080C1806D2DA5
:102190007C2DC7010E94F841892B09F09BC0CF928A
:1021A000DF9289E895E09F938F9382E0D82EDF92AB
:1021B00091ECE92E93E0F92EFF92EF920E94F81233
:1021C0006CE174E0F801828193810E94F8412DB79F
:1021D0003EB7295F3F4F0FB6F8943EBF0FBE2DBFED
:1021E000892B09F451C0B801CE010E94140FF801E7
:1021F00021819081882309F12F939F9387E695E0B1
:102200009F938F9384E08F93FF92EF920E94F81236
:102210002DB73EB7295F3F4F0FB6F8943EBF0FBEB4
:102220002DBF8BEFDF91CF911F910F91FF90EF901A
:10223000DF90CF90BF900C9421102F939F9384E454
:1022400095E09F938F93DF92FF92EF920E94F81296
:1022500040910202509103026AA57BA5C8010E9429
:10226000520F8DB79EB707960FB6F8949EBF0FBE5C
:102270008DBF1DA6DF91CF911F910F91FF90EF9021
:10228000DF90CF90BF9008958AA59BA5892BC1F0C0
:10229000F80181818F9380818F9380E295E09F93F5
:1022A0008F9383E08F93FF92EF920E94F8122DB7E5
:1022B0003EB7295F3F4F0FB6F8943EBF0FBE2DBF0C
:1022C000409102025091030270E060E0C8010E9458
:1022D000520FCFCF095F1F4F32CF8091C00087FFD1
:1022E000FCCF8091C6000895882319F0813041F019
:1022F00008958091C00085FFFCCF6093C6000895CB
:102300008091300185FFFCCF6093360108950F93D3
:102310001F93CF93DF93082FC62FD72F16E9160FE1
:102320006991662329F0802F0E9474111C13F8CF45
:10233000DF91CF911F910F910895CF93DF93CDB788
:10234000DEB79E01275F3F4F4F81588566E970E0F9
:1023500083E697E00E94884263E677E08E810E94E0
:10236000871180E0DF91CF910895CF93DF93CDB7B0
:10237000DEB79E01275F3F4F4F81588566E970E0C9
:1023800083E697E00E94C14263E677E08E810E9477
:10239000871180E0DF91CF9108950F931F93CF9322
:1023A000DF93082FEB01FE011491612F802F0E9413
:1023B000741121961111F7CFDF91CF911F910F91D9
:1023C0000895E0ECF0E080818D7F80831092C5005D
:1023D00023E02093C400A1ECB0E098E19C93E2ECF0
:1023E000F0E080818F73808380818F7C8083808107
:1023F000877F808380818B7F8083808186608083DC
:102400008C9180688C93E0E3F1E080818D7F808304
:10241000109235012093340190933101E2E3F1E011
:1024200080818F73808380818F7C80838081877F90
:10243000808380818B7F8083808186608083089504
:10244000E0917103F09172038FEF9FEFDC018083C5
:102450009183A283B38384E084830895E091710320
:10246000F091720383818F9382818F9381818F9307
:1024700080818F938AE396E09F938F931F920E94AF
:10248000B5118DB79EB707960FB6F8949EBF0FBED5
:102490008DBF0895E0917103F09172031082118253
:1024A0001282138208959F938F9388E394E09F9301
:1024B0008F9381E08F930E949D110F900F900F904A
:1024C0000F900F9008958F929F92AF92BF92CF92EC
:1024D000DF92FF920F931F93CF93DF93CDB7DEB7B9
:1024E000E2970FB6F894DEBF0FBECDBF5C01F62EAB
:1024F0004A01C0907103D090720303E213E0F80127
:1025000060817181FB018081882309F445C0C50188
:102510000E94F841892B09F068C0F8012281F60178
:1025200080819181A281B38104C0B695A7959795CA
:1025300087952A95D2F780FF58C0F2E0FF1609F47C
:102540004EC0FF15D8F1FF2009F443C081E0F81612
:1025500009F442C0F80181818F9380818F938EEBC3
:1025600095E09F938F931F9282E38F938E010F5F6D
:102570001F4F1F930F930E944B42C8010E9453129A
:10258000C4010E94531285E394E00E9453120FB6D7
:10259000F894DEBF0FBECDBFE2960FB6F894DEBF53
:1025A0000FBECDBFDF91CF911F910F91FF90DF90B4
:1025B000CF90BF90AF909F908F90089593E0F916C1
:1025C00089F0E4E08AEB95E0FE12C4CF0E9453123A
:1025D000C1CF8AEA95E0FACF8EEA95E0F7CF82EB99
:1025E00095E0F4CF86EB95E0F1CF0D5F1F4F87CFDD
:1025F0001F93CF93DF93CDB7DEB7E2970FB6F89472
:10260000DEBF0FBECDBF1BADE0917103F091720331
:1026100080819181A281B381892B8A2B8B2BB1F090
:102620008481181798F09E01225C3F4F4CAD5DAD40
:1026300062E370E0CE0101960E94C142AE014F5F9D
:102640005F4F612F89AD9AAD0E946312E2960FB67B
:10265000F894DEBF0FBECDBFDF91CF911F910895DB
:10266000E0917103F091720384831F928F9381E84C
:1026700096E09F938F9382E08F9386E993E09F93F8
:102680008F930E94F8128DB79EB707960FB6F894F5
:102690009EBF0FBE8DBF0895FC0180819181823065
:1026A000910551F1E0F4009711F18130910511F19C
:1026B0009F938F9381E696E09F938F9384E08F930F
:1026C00086E993E09F938F930E94F8128DB79EB78F
:1026D00007960FB6F8949EBF0FBE8DBF0895833046
:1026E000910561F08430910519F784E001C080E024
:1026F0000C94301381E0FCCF82E0FACF83E0F8CF76
:10270000FC0180819181E0917103F0917203AC0131
:1027100070E060E040835183628373839F938F9363
:102720008FE396E09F938F9382E08F9386E993E007
:102730009F938F930E94F8128DB79EB707960FB69E
:10274000F8949EBF0FBE8DBF0895EF92FF920F9336
:102750001F93CF93DF93F82EE92E03E213E0D80105
:10276000CD91DC918881811118C0EF92FF9280E1B8
:1027700096E09F938F9384E08F9386E993E09F93F5
:102780008F930E94F812EDB7FEB737960FB6F89404
:10279000FEBF0FBEEDBF81E03CC0BE018F2D9E2D60
:1027A0000E94F841892BE1F5E0917103F0917203E9
:1027B000D80112962C9181E090E0A0E0B0E004C036
:1027C000880F991FAA1FBB1F2A95D2F740815181FC
:1027D00062817381842B952BA62BB72B80839183E9
:1027E000A283B383DF93CF9384E296E09F938F938A
:1027F00082E08F9386E993E09F938F930E94F81273
:102800008DB79EB707960FB6F8949EBF0FBE8DBFCB
:1028100080E0DF91CF911F910F91FF90EF9008958D
:102820000D5F1F4F9CCF982F80ED890F8A3048F0A5
:1028300089EC890F803128F089EA890F803108F00E
:1028400080E00895EF92FF920F931F93CF93DF9351
:10285000EC0109900020E9F72197C81BD90B8C01E6
:10286000DD27CC0FDD1FCC0FDD1FF12CE12C2497D1
:10287000CC3F2FEFD20741F4C701DF91CF911F91D9
:102880000F91FF90EF900895F80181918F010E94C0
:10289000131490E00C2E02C0880F991F0A94E2F7DF
:1028A000E80EF91EE4CF0C94E4400C94E440282F89
:1028B00080E091E0921708F00895990F8F5FFACFAA
:1028C000CF93DF93EC018991811103C0DF91CF9108
:1028D000089590E00E94DA41FE0131978083F3CFA2
:1028E00080E88093610083E0809361001092700023
:1028F00080E28093B60088EC8093B30010926E0063
:1029000081E0809381008093B0009091B600809127
:10291000B60084709170892BC1F78AE090E020E3C3
:1029200035E7F9013197F1F70197D9F73FEF41E02A
:10293000F89436BB37BB1092850010928400109239
:10294000B20087B38823E9F310928100789486B3AC
:1029500081111CC0209184008091850090E0982F07
:102960008827820F911D8B3628E1920744F08091D1
:10297000660081508093660040938100D9CF883EE5
:10298000974124F081E08093810008958091660052
:102990008F5FF0CFE1E6F0E080E880831082089559
:1029A0000C94CA1486E194E09F938F93E091730393
:1029B000F091740381818F9380818F9384EB99E0F0
:1029C0009F938F931F920E94B51185E394E09F938C
:1029D0008F931F920E949D118DB79EB70A960FB6D6
:1029E000F8949EBF0FBE8DBF0895E0917303F091E0
:1029F000740383830895E0917303F09174038381DA
:102A00000895CF93C0910108C23009F448C010F571
:102A1000CC2309F460C0C13009F463C0E0917303B2
:102A2000F091740383811F928F938DE598E09F93BB
:102A30008F9384E08F9387EA93E09F938F930E9414
:102A4000F8128DB79EB707960FB6F8949EBF0FBECB
:102A50008DBF58C0C53009F457C0C63009F469C0ED
:102A6000C430E1F680E00E94E31F80E00E94C4349D
:102A700060E070E0CB010E941037E0917303F091A9
:102A80007403138283EC98E09F938F9382E08F937B
:102A900087EA93E09F938F930E94F81216C080E01C
:102AA0000E94E31F80E00E94C4348EE099E09F936F
:102AB0008F93CF9387EA93E09F938F930E94F812AE
:102AC000E0917303F091740313820F900F900F90B5
:102AD0000F900F9003C080E00E94E31F80E0CF9131
:102AE000089583EE98E09F938F9384E08F9387EA15
:102AF00093E09F938F930E94F8120F900F900F9086
:102B00000F900F908FEFEBCF80E00E94E31F80E0EB
:102B10000E94C43460E070E0CB010E9410370E9434
:102B20005836E0917303F0917403138285EA98E0BC
:102B3000ABCF80E00E94E31F60E070E0CB010E9419
:102B40001037E0917303F0917403138284E898E0E6
:102B50009BCFCF93C0E080910108823029F1E0F44F
:102B6000882331F1813009F11F928F9387EA96E033
:102B70009F938F9384E08F9387EA93E09F938F9343
:102B80000E94F812C1508DB79EB707960FB6F89401
:102B90009EBF0FBE8DBF09C09CEF980F923020F7EB
:102BA0000E940115C82FD7CFC1508C2FCF91089507
:102BB00080E00E94C11E80E00E94C43460E070E0AA
:102BC000CB010E947E358FEC96E09F938F9382E03D
:102BD0008F9387EA93E09F938F930E94F812E0917E
:102BE0007303F091740381E083830F900F900F9033
:102BF0000F900F90DACF80910108823009F447C01E
:102C0000E0F4882309F445C0813081F11F928F934D
:102C10008DEC97E09F938F9384E08F9387EA93E006
:102C20009F938F930E94F8128DB79EB707960FB6A9
:102C3000F8949EBF0FBE8DBF2AC0843009F446C0F1
:102C4000853021F780E00E94C4340E94583660E04D
:102C500070E080E292E40E941037E0917303F091FB
:102C6000740384E0838384EF97E021C082E398E0DB
:102C70009F938F9384E08F9387EA93E09F938F9342
:102C80000E94F8120F900F900F900F900F908FEFFF
:102C9000089560E070E080E292E40E941037E091D5
:102CA0007303F091740384E0838382E198E09F933F
:102CB0008F9382E08F9387EA93E09F938F930E9494
:102CC000F8120F900F900F900F900F9080E00895E2
:102CD000CF9380910108823041F118F5882339F1B2
:102CE000813009F461C0C0E0809101081F928F9388
:102CF00081E497E09F938F9384E08F9387EA93E03A
:102D00009F938F930E94F8128FEF8C0F2DB73EB7D1
:102D1000295F3F4F0FB6F8943EBF0FBE2DBFCF9136
:102D20000895843051F18530F1F680E0F8CF80E0ED
:102D30000E94E31F81E00E94C4340E94893660E053
:102D400070E080E292E40E941037E0917303F0910A
:102D5000740385E083838FEA97E09F938F9382E0EB
:102D60008F9387EA93E09F938F930E94F8120F90BE
:102D70000F900F900F900F90D8CF80E00E94E31F2C
:102D800081E00E94C4340E94893660E070E080E2F5
:102D900092E40E941037E0917303F091740385E090
:102DA000838381E997E0D9CF86E697E09F938F935D
:102DB00084E08F9387EA93E09F938F930E94F812A9
:102DC0000F900F900F900F900F90CFEF8DCF8091BD
:102DD0000108833020F48823F9F08FEF08958430C0
:102DE00020F08630D0F3863099F11F928F9380EFD8
:102DF00096E09F938F9384E08F9387EA93E09F936D
:102E00008F930E94F8128DB79EB707960FB6F8946D
:102E10009EBF0FBE8DBFE1CFE0917303F0917403AD
:102E200086E0838380E00E9423370E94043788E194
:102E300097E09F938F9382E08F9387EA93E09F932D
:102E40008F930E94F8120F900F900F900F900F9099
:102E500080E008950C94A91588E198E00FB6F894E5
:102E6000A895809360000FBE90936000FFCFE09123
:102E70007303F09174038381823009F43FC0F0F44E
:102E8000882309F453C0813009F480C085E394E0BD
:102E90009F938F938CE194E09F938F938BEF95E0BA
:102EA0009F938F931F920E949D118DB79EB7079697
:102EB0000FB6F8949EBF0FBE8DBF0895853009F4FC
:102EC0004DC0863009F47AC0843001F785E394E080
:102ED0009F938F9380E096E09F938F938BEF95E085
:102EE0009F938F931F920E949D118DB79EB7079657
:102EF0000FB6F8949EBF0FBE8DBF089585E394E092
:102F00009F938F9386EF95E09F938F938BEF95E040
:102F10009F938F931F920E949D118DB79EB7079626
:102F20000FB6F8949EBF0FBE8DBF089585E394E061
:102F30009F938F9383E695E09F938F938BEF95E01C
:102F40009F938F931F920E949D118DB79EB70796F6
:102F50000FB6F8949EBF0FBE8DBF089585E394E031
:102F60009F938F938BE695E09F938F938BEF95E0E4
:102F70009F938F931F920E949D118DB79EB70796C6
:102F80000FB6F8949EBF0FBE8DBF089585E394E001
:102F90009F938F9381E795E09F938F938BEF95E0BD
:102FA0009F938F931F920E949D118DB79EB7079696
:102FB0000FB6F8949EBF0FBE8DBF089585E394E0D1
:102FC0009F938F9384ED93E09F938F938BEF95E086
:102FD0009F938F931F920E949D118DB79EB7079666
:102FE0000FB6F8949EBF0FBE8DBF089585E394E0A1
:102FF0009F938F93E0917303F091740382811F92EA
:103000008F9388E096E09F938F931F920E949D116B
:103010008DB79EB707960FB6F8949EBF0FBE8DBFB3
:1030200008950E940115811102C00C9410108DEFBB
:103030000C9421100E94E716811102C00C9410100C
:103040008DEF0C9421100E94A915811102C00C94DF
:1030500010108DEF0C9421100E946816811102C08F
:103060000C9410108DEF0C942110813631F4709374
:1030700003086093020880E0089570930508609348
:103080000408F9CF909307088093060880E008951C
:103090009093FF078093FE0780E0089580930008D7
:1030A00080E00895813629F4809102089091030808
:1030B0000895809104089091050808958091010871
:1030C0000895809106089091070808956093080874
:1030D0007093090880930A0890930B0880E0089584
:1030E000609108087091090880910A0890910B0876
:1030F00008958FB18095881F8827881F08951F9392
:10310000CF93DF9380917303909174030E94911980
:1031100080917303909174030E94DE1981E60E94EE
:10312000072C9F938F9388E999E09F938F9312E0E8
:103130001F93C7EAD3E0DF93CF930E94F81282E691
:103140000E94072C9F938F938CE799E09F938F9316
:103150001F93DF93CF930E94F8120E9444349F93F1
:103160008F9381E699E09F938F931F93DF93CF9383
:103170000E94F81287980E94AD3640E068EE73E036
:103180008CE099E10E94071B8CE099E10E94971B5B
:103190002DB73EB72B5E3F4F0FB6F8943EBF0FBE24
:1031A0002DBF87FD24C080930C08282F082E000C0B
:1031B000330B3F938F9388E499E09F938F9381E043
:1031C0008F93DF93CF930E94F8122DB73EB7295FFC
:1031D0003F4F0FB6F8943EBF0FBE2DBF0E94791827
:1031E0008823A9F0DF91CF911F910C949D368BE23B
:1031F00099E09F938F9384E08F93DF93CF930E9406
:10320000F8120F900F900F900F900F90E7CFDF9173
:10321000CF911F910C9495360E947918811115C099
:1032200089E996E09F938F9381E08F9387EA93E0FB
:103230009F938F930E94F8120E9495360F900F90E3
:103240000F900F900F900C9401150895F894F99930
:10325000FECF92BD81BD60BDFA9AF99A78949F9392
:103260008F931F926F938AE39AE09F938F9382E0EC
:103270008F938DEC93E09F938F930E94F8128DB7FC
:103280009EB709960FB6F8949EBF0FBE8DBF0895E6
:10329000F894F999FECF92BD81BDF89A789420B543
:1032A0009F938F931F922F9382E29AE09F938F9325
:1032B00082E08F938DEC93E09F938F930E94F8129E
:1032C00080B52DB73EB7275F3F4F0FB6F8943EBF8E
:1032D0000FBE2DBF0895CF93DF93D82FC92F9F9393
:1032E0008F9389E09AE09F938F9381E08F938DEC89
:1032F00093E09F938F930E94F8126D2F90E080E0EF
:103300000E9426198DB79EB707960FB6F8949EBFF8
:103310000FBE8DBF6C2F81E090E0DF91CF910C94B8
:1033200026190F931F93CF938C0190E080E00E94A9
:103330004819C82F81E090E00E94481990E0982F2A
:1033400088278C0F911DF801918380839F938F9321
:1033500080EF99E09F938F9381E08F938DEC93E0C2
:103360009F938F930E94F8128DB79EB707960FB662
:10337000F8949EBF0FBE8DBFCF911F910F910895FE
:10338000CF93C82F1F928F938DED99E09F938F93CA
:1033900081E08F938DEC93E09F938F930E94F812BE
:1033A0008DB79EB707960FB6F8949EBF0FBE8DBF20
:1033B0006C2F82E090E0CF910C942619CF93DF938D
:1033C000EC0182E090E00E9448198A831F928F935B
:1033D0008AEC99E09F938F9381E08F938DEC93E03B
:1033E0009F938F930E94F8128DB79EB707960FB6E2
:1033F000F8949EBF0FBE8DBFDF91CF910895CF93FC
:10340000DF93FC01C081D181CE010E946B19CE01F6
:103410000E944818811104C0DF91CF910C941010C4
:103420008DEFDF91CF910C942110CF93FC01C081DF
:103430008C2F0E94C0198C2F0E944E18811103C03E
:10344000CF910C9410108DEFCF910C942110CF934D
:10345000DF93219A229A8CB582608CBD8DB58160F4
:103460008DBD8CB58F7D8CBD8CB580618CBD8CB5D0
:1034700080648CBD29988CB51F928F9380E89AE068
:103480009F938F9382E08F93CFEDD5E0DF93CF931F
:103490000E94F8128DB79EB707960FB6F8949EBF9C
:1034A0000FBE8DBF0CB404FC0FC086E69AE09F935C
:1034B0008F9384E08F93DF93CF930E94F8120F9045
:1034C0000F900F900F900F90DF91CF9108950F9371
:1034D0001F93CF93DF938EBD0DB407FEFDCF1F92D8
:1034E0008F938BE59AE09F938F9301E00F93CFED3D
:1034F000D5E0DF93CF930E94F8121EB51F921F9361
:1035000081E59AE09F938F930F93DF93CF930E946F
:10351000F8128DB79EB70E960FB6F8949EBF0FBEE9
:103520008DBF812FDF91CF911F910F910895109240
:10353000B90080E48093B8000895279A08952F9ADF
:1035400008952F9808952F990C94A11A0C949F1AFE
:103550008DE99AE09F938F9382E08F938DE993E0BA
:103560009F938F930E94F812E1E8F0E080818460DD
:10357000808389E390E090938D0080938C00EFE648
:10358000F0E08081886080830F900F900F900F9003
:103590000F90089560E070E080E090E10C947E353B
:1035A00066E376E081E60E94663062E081E00C949A
:1035B0007A1B1F920F920FB60F9211240BB60F9227
:1035C0002F933F934F935F936F937F938F939F932B
:1035D000AF93BF93EF93FF93F894109285001092EE
:1035E00084000E94271B7894FF91EF91BF91AF91C7
:1035F0009F918F917F916F915F914F913F912F910B
:103600000F900BBE0F900FBE0F901F9018959C014E
:10361000CB01019780319742B0F490913A069A30ED
:10362000A0F487E0989FF0011124E55CF94F318305
:103630002083738362834683158214829F5F9093F5
:103640003A0680E0089582E0089583E0089530917D
:103650003A06EBE3F6E020E041E050E061E03213AF
:1036600001C008958681823051F084819581A281C4
:10367000B3818A179B0730F05583448366832F5F9D
:103680003796EDCF019695838483F9CFCF93DF935F
:10369000C0E0D7E080913A06C81718F0DF91CF91CB
:1036A0000895DC9FF0011124E55CF94F868181309B
:1036B00029F416820190F081E02D1995CF5FEACFB1
:1036C00097E0899FF0011124E55CF94F8681089508
:1036D00097E0899FF0011124E55CF94F8281938185
:1036E000089597E0899FF0011124E55CF94F8481EA
:1036F0009581089597E0899FF0011124E55CF94FC9
:103700006683089597E0899FF0011124E55CF94FE5
:1037100073836283089597E0899FF0011124E55C2B
:10372000F94F75836483089580913A060895BC012A
:1037300040913A062BE336E090E0491302C08FEF48
:103740000895295F3F4FF90137970190F081E02DEF
:10375000E617F70711F4892F08959F5FEECF289A97
:10376000289BFECF089580910B01886080930B0108
:1037700080910B0183FFFCCF0895882329F0739A71
:10378000739BFECF80E0089573987399FECFFACFB4
:10379000882329F0749A749BFECF80E00895749872
:1037A0007499FECFFACF882321F00E94AF1B80E0EE
:1037B000089528982899FECFFACF882321F00E94F7
:1037C000B31B80E0089580910B01877F80930B01EC
:1037D00080910B0183FDFCCFF4CF289A209A739A35
:1037E0006B9A80E00E94D31B8FEF0E94671A0E94A1
:1037F000AF1B889A809A80E00E94BD1BEBE0F1E04D
:10380000808188608083EAE0F1E080818860808345
:10381000749A6C9A80E00E94DD1B8FEF0E94671AF9
:103820000E94B31B899A819A80E00C94C81B88235C
:1038300021F0889A889BFECF089588988899FECFBA
:103840000895882321F0899A899BFECF089589984D
:103850008999FECF089580E00E94D31B80E00E94EA
:10386000DD1B80E00E94671A0E94AF1B0C94B31B03
:1038700080E00E94D31B80E00E94DD1B82E00E945A
:10388000671A0E94AF1B0C94B31B80E00E94D31BED
:1038900080E00E94DD1B84E00E94671A0E94AF1B3B
:1038A0000C94B31B80E00E94D31B80E00E94DD1BC0
:1038B00086E00E94671A0E94AF1B0C94B31B80E045
:1038C0000E94D31B80E00E94DD1B81E00E94671AEA
:1038D0000E94AF1B0C94B31B80E00E94D31B80E0BE
:1038E0000E94DD1B83E00E94671A0E94AF1B0C94AC
:1038F000B31B80E00E94D31B80E00E94DD1B85E0AB
:103900000E94671A0E94AF1B0C94B31B80E00E94B8
:10391000D31B80E00E94DD1B87E00E94671A0E9493
:10392000AF1B0C94B31B80E00E94D31B80E00E946D
:10393000DD1B88E00E94671A0E94AF1B0C94B31B2A
:103940000895BF92CF92DF92EF92FF920F931F9351
:10395000CF93DF936C01162FEA0180E0F6011995F1
:10396000812F8295807F0E94671A8D2F0E94671A8F
:103970001F92DF9384EBE82E8AE0F82EFF92EF92FD
:10398000BB24B394BF9203EE15E01F930F930E94E4
:10399000F8128C2F0E94671ADD27DF93CF93FF92D6
:1039A000EF92BF921F930F930E94F81281E0F601ED
:1039B00019958DB79EB70E960FB6F8949EBF0FBEA1
:1039C0008DBF80E0DF91CF911F910F91FF90EF901D
:1039D000DF90CF90BF90089580E008952F923F929E
:1039E0004F925F926F927F928F929F92AF92BF920F
:1039F000CF92DF92EF92FF920F931F93CF93DF93BB
:103A00000F920F92CDB7DEB7382E330C3A8329834D
:103A10006295607F762E740EEE24E394F12C0DED0A
:103A200013E034E1832E3BE0932E84EA8093BC00C4
:103A30008091BC0087FFFCCF8091B900887F809384
:103A40000D08803131F0883309F4F6C0883009F070
:103A500003C122EE3BE03F932F9381E08F931F93AE
:103A60000F930E94F8123092BB0084E88093BC0050
:103A70000F900F900F900F900F908091BC0087FFD8
:103A8000FCCF8091B900887F80930D081F928F939F
:103A9000E0EAFBE0FF93EF93DD24D394DF921F93E2
:103AA0000F930E94F81280910D080FB6F894DEBFB4
:103AB0000FBECDBF803209F4E2C0883309F4F7C0ED
:103AC000883109F0FAC020E83BE03F932F93DF9262
:103AD0001F930F930E94F8127092BB0084E88093AA
:103AE000BC000F900F900F900F900F908091BC0032
:103AF00087FFFCCF8091B900887F80930D081F92CB
:103B00008F939F928F92DD24D394DF921F930F9314
:103B10000E94F81280910D080FB6F894DEBF0FBE18
:103B2000CDBF803309F46FC0883309F47ECF88326B
:103B300009F0D2C01F927F9287EF9AE09F938F93F4
:103B4000DF921F930F930E94F8129E012F5F3F4F49
:103B500059010FB6F894DEBF0FBECDBFCC24C3947D
:103B6000D12C94E8292E662463945C2C4D2CF5010D
:103B700081818093BB002092BC008091BC0087FFB4
:103B8000FCCF8091B900887F80930D081F928F939E
:103B900024EE3AE03F932F936F921F930F930E946E
:103BA000F81280910D080FB6F894DEBF0FBECDBF9E
:103BB000803349F1883309F438CF883209F08CC05A
:103BC0004F925F922AEC3AE03F932F936F921F93AC
:103BD0000F930E94F812F50181811F928F932FEBB2
:103BE0003AE03F932F936F921F930F930E94F81226
:103BF00091E0A91AB1080FB6F894DEBF0FBECDBF91
:103C0000CD2809F06BC080E094E99093BC000F9040
:103C10000F90DF91CF911F910F91FF90EF90DF9068
:103C2000CF90BF90AF909F908F907F906F905F905C
:103C30004F903F902F90089581ED9BE09F938F933D
:103C400081E08F931F930F930E94F8120F900F90B3
:103C50000F900F900F90E9CE83EB9BE09F938F9393
:103C600084E08F938DED93E09F938F930E94F812E1
:103C70000F900F900F900F900F908FEFC8CFFF9283
:103C8000EF92E0E5FBE0FF93EF93DF921F930F933A
:103C90000E94F8123FEFE31AF30A0FB6F894DEBF62
:103CA0000FBECDBF9BE0E916F10439F3BECEEFE3C2
:103CB000FBE0FF93EF93DF92C5CF87E29BE09F93FA
:103CC0008F9384E08F931F930F930E94F8120F90AD
:103CD0000F900F900F900F908FEF96CFD12CC12C9B
:103CE00044CF08950F931F93CF93DF93EC01162FCA
:103CF000072F80E0FE011995802F0E94671A812FFF
:103D00000E94671A81E0FE01199580E0DF91CF9152
:103D10001F910F910895CF9320E0C0E041E050E063
:103D2000822F90E0FC01EE0FFF1FE80FF91FE9580A
:103D3000FC4F3081311119C01F92CF9381E79CE075
:103D40009F938F9381E08F938EEA93E09F938F935D
:103D50000E94F8128DB79EB707960FB6F8949EBFD3
:103D60000FBE8DBF8C2FCF9108953181332339F051
:103D7000BA0102C0660F771F8A95E2F7C60F2F5F60
:103D8000CFCFCF93DF93D82F81E60E94762C882364
:103D900081F164E080E70E94A825C82F8EE59CE0B1
:103DA0009F938F9381E08F9386E094E09F938F930E
:103DB0000E94F8124D2F62E084E70E94EA220F90E1
:103DC0000F900F900F900F9082E60E94762C882320
:103DD00049F165E080E70E94A825C80F4D2F429564
:103DE0004F7062E084E70E94EA228C2FDF91CF912E
:103DF00008951F9281E68F9384E49CE09F938F93B4
:103E000084E08F9380EF93E09F938F930E94F8124A
:103E10008DB79EB707960FB6F8949EBF0FBE8DBFA5
:103E2000CFEFD2CF1F9282E68F938AE29CE09F93DE
:103E30008F9384E08F9380EF93E09F938F930E9402
:103E4000F812C1508DB79EB707960FB6F8949EBF73
:103E50000FBE8DBFCACF7F928F929F92AF92BF92BB
:103E6000CF92DF92EF92FF920F931F93CF93DF9346
:103E70000E9470186B017C01712C812C912CA12C5B
:103E800001E010E0872D90E0EC01CC0FDD1FC80FA2
:103E9000D91FC958DC4F888181111CC0882009F4C2
:103EA00089C00E945E18863009F47EC00E94FB150E
:103EB00087FF7AC0AA948A2DDF91CF911F910F912D
:103EC000FF90EF90DF90CF90BF90AF909F908F903A
:103ED0007F9008959981BB24BA94B80E9923A1F1DB
:103EE000839470E060E00E94ED2DA82E8A819801F5
:103EF00002C0220F331F8A95E2F7C90180959822EC
:103F000037E03B1550F0EB2DF0E08827E65AFC4BEC
:103F10008F4F0C944D3F6894E0F87394B3CF68943E
:103F2000E3F8FBCF6894E6F8F8CF6894F1F8F5CFA2
:103F30006894C0F8F2CF6894C3F8EFCF6894C6F8DD
:103F4000ECCF6894D1F8E9CF6EEE72E40E94ED2DCB
:103F5000A82E8A81980102C0220F331F8A95E2F7AA
:103F6000922A37E03B15C8F2EB2DF0E08827EE5996
:103F7000FC4B8F4F0C944D3FE894E0F8CECFE89483
:103F8000E3F8CBCFE894E6F8C8CFE894F1F8C5CFD2
:103F9000E894C0F8C2CFE894C3F8BFCFE894C6F85D
:103FA000BCCFE894D1F8B9CFC701B6010E947935EA
:103FB0006B017C01892D0E94C11EA80EC701B601AC
:103FC0000E947E3578CF90E0282F30E061E0492FC5
:103FD00050E0FA01EE0FFF1FE40FF51FE958FC4F08
:103FE0008081811102C00C942B1FA901092E02C0EF
:103FF000559547950A94E2F740FF03C061839F5FA0
:10400000E6CF1182FCCF80E00C94E31F80E0282FE4
:1040100030E0F901EE0FFF1FE20FF31FE958FC4FEC
:104020009081911102C080E008958F5FF0CFCF930F
:10403000DF93FC0180819181CFEFC80F9C0121505B
:1040400031092830310528F08BEFDF91CF910C94A6
:1040500021100597A8F481E60E94762C882391F11F
:10406000D0E0FE01EE0FFF1FEC0FFD1FE958FC4FE3
:1040700081E081830E942B1FDF91CF910C9410105F
:1040800082E60E94762C8111EBCF81E60E94762C8D
:10409000811136C01F9282E68F9386EF9BE09F933B
:1040A0008F9384E08F9380EF93E09F938F930E9490
:1040B000F812EDB7FEB737960FB6F894FEBF0FBEF5
:1040C000EDBF1CC081E60E94762C8111D9CF1F92D2
:1040D00081E68F9380E19CE09F938F9384E08F93A0
:1040E00080EF93E09F938F930E94F8128DB79EB755
:1040F00007960FB6F8949EBF0FBE8DBF8DEFA5CF6C
:10410000DF91CF910895FC0180819181EFEFE80F5D
:104110000197089718F08BEF0C9421108E2F90E0E8
:10412000FC01EE0FFF1FE80FF91FE958FC4F8181DA
:10413000882389F085E394E09F938F938DE096E048
:104140009F938F931F920E949D110F900F900F903D
:104150000F900F90089585E394E09F938F9387E3EA
:1041600094E0EECFFC01808191819C0121503109C6
:104170002830310518F08BEF0C942110815090E01D
:10418000FC01EE0FFF1FE80FF91FE958FC4F1182E9
:104190000E942B1F0C941010FC01808191818F3F95
:1041A000910521F018F08BEF0C942110009731F459
:1041B0000E94011587FF05C08DEFF6CF0E94E31F17
:1041C000F9CF0C94101090E080E061E070E0292FAE
:1041D00030E0F901EE0FFF1FE20FF31FE958FC4F2B
:1041E0004081411116C025E334E03F932F931F9285
:1041F0008F9381E196E09F938F931F920E949D1170
:104200008DB79EB707960FB6F8949EBF0FBE8DBFB1
:1042100008954181442339F0AB0102C0440F551F7A
:104220002A95E2F7840F9F5FD2CF2F923F924F9251
:104230005F926F927F928F929F92AF92BF92CF9236
:10424000DF92EF92FF920F931F93CF93DF93562E3F
:10425000482E440C01E010E084EA382ECAECD5E088
:1042600097E9892E9EE0992E28E7E22E2EE0F22E85
:104270003BE3C32E3EE0D32E242C689420F844E583
:10428000A42E4FE0B42E3092BC008091BC0087FF7A
:10429000FCCF8091B900887F80930D08803131F088
:1042A000883309F427C1883009F032C125E63FE0A0
:1042B0003F932F9381E08F93DF93CF930E94F81267
:1042C0004092BB0084E88093BC000F900F900F9049
:1042D0000F900F908091BC0087FFFCCF8091B900B8
:1042E000887F80930D081F928F9323E23FE03F93D6
:1042F0002F93662463946F92DF93CF930E94F812FA
:1043000080910D082DB73EB7295F3F4F0FB6F89447
:104310003EBF0FBE2DBF803209F40DC1883309F4B2
:1043200023C1883109F028C183E09FE09F938F93D8
:104330006F92DF93CF930E94F8125092BB0084E8F3
:104340008093BC000F900F900F900F900F90809172
:10435000BC0087FFFCCF8091B900887F80930D0857
:104360001F928F939F928F92662463946F92DF9334
:10437000CF930E94F81280910D082DB73EB7295FA8
:104380003F4F0FB6F8943EBF0FBE2DBF803309F4E8
:1043900019C1883309F477CF883209F0FCC0FF9245
:1043A000EF926F92DF93CF930E94F8123092BC008D
:1043B0000F900F900F900F900F908091BC0087FF8F
:1043C000FCCF8091B900887F80930D08803131F057
:1043D000883309F458CF883009F0DDC0DF92CF92DE
:1043E00081E08F93DF93CF930E94F8122092BB005D
:1043F00084E88093BC000F900F900F900F900F9067
:104400008091BC0087FFFCCF8091B900887F8093AA
:104410000D081F928F9328E23EE03F932F9381E097
:104420008F93DF93CF930E94F81280910D082DB7E0
:104430003EB7295F3F4F0FB6F8943EBF0FBE2DBF6A
:10444000883309F420CF803409F0A5C084E8809334
:10445000BC008091BC0087FFFCCF8091B900887FB1
:1044600080930D081F928F9385E19EE09F938F9319
:1044700011E01F93CAECD5E0DF93CF930E94F812AE
:1044800080910D082DB73EB7295F3F4F0FB6F894C6
:104490003EBF0FBE2DBF803589F0883509F07BC047
:1044A00084EF9DE09F938F931F93DF93CF930E94A0
:1044B000F8120F900F900F900F900F907090BB001C
:1044C0001F925F921F927F928BED9DE09F938F933F
:1044D00081E08F938AEC95E09F938F930E94F8126E
:1044E0002DB73EB7275F3F4F0FB6F8943EBF0FBEC4
:1044F0002DBF51C0BF92AF9281E08F93DF93CF93D6
:104500000E94F8120F900F900F900F900F90BBCE5B
:1045100086E39FE09F938F9384E08F938AEC95E0EE
:104520009F938F930E94F8120F900F900F900F900F
:104530000F908FEF34C01F930F9323ED3EE03F9316
:104540002F936F92DF93CF930E94F8120F5F1F4F4C
:104550008DB79EB707960FB6F8949EBF0FBE8DBF5E
:104560000B30110531F38FCE22EC3EE03F932F93B9
:104570006F92DF93CF93C4CF8AEA9EE09F938F938D
:1045800084E08F93DF93CF930E94F8120F900F90E7
:104590000F900F900F9084E98093BC00872DDF91DE
:1045A000CF911F910F91FF90EF90DF90CF90BF9030
:1045B000AF909F908F907F906F905F904F903F90C3
:1045C0002F90089588E59EE09F938F936F92DF93DD
:1045D000CF93DACF2F923F924F925F926F927F925A
:1045E0008F929F92AF92BF92CF92DF92EF92FF9203
:1045F0000F931F93CF93DF93482E662E542E382EA1
:10460000330C01E010E084EA282E77247394CAEC7E
:10461000D5E099EF892E9CE0992EE62EF12C2DEC19
:10462000C22E2CE0D22E36EBA32E3DE0B32E2092EC
:10463000BC008091BC0087FFFCCF8091B900887FCF
:1046400080930D08803131F0883309F4EEC0883052
:1046500009F0F8C027EC3DE03F932F937F92DF9362
:10466000CF930E94F8123092BB0084E88093BC0084
:104670000F900F900F900F900F908091BC0087FFCC
:10468000FCCF8091B900887F80930D081F928F9393
:1046900025E83DE03F932F937F92DF93CF930E94D5
:1046A000F81280910D082DB73EB7295F3F4F0FB626
:1046B000F8943EBF0FBE2DBF803209F4D6C08833B8
:1046C00009F4ECC0883109F0F1C085E69DE09F93C4
:1046D0008F937F92DF93CF930E94F8126092BB007A
:1046E00084E88093BC000F900F900F900F900F9074
:1046F0008091BC0087FFFCCF8091B900887F8093B8
:104700000D081F928F939F928F927F92DF93CF938A
:104710000E94F81280910D082DB73EB7295F3F4FD8
:104720000FB6F8943EBF0FBE2DBF803309F466C0AC
:10473000883309F47CCF883209F0C7C01F926F928A
:1047400080EE9CE09F938F937F92DF93CF930E94A4
:10475000F8125092BB0084E88093BC002DB73EB79E
:10476000295F3F4F0FB6F8943EBF0FBE2DBF80911B
:10477000BC0087FFFCCF8091B900887F80930D0833
:104780001F928F93DF92CF927F92DF93CF930E94FD
:10479000F81280910D082DB73EB7295F3F4F0FB635
:1047A000F8943EBF0FBE2DBF803341F1883309F42A
:1047B0003ECF883209F089C01F921F9283EB9CE0A4
:1047C0009F938F937F92DF93CF930E94F8121F9253
:1047D0004F92FF92EF921F925F9287E89CE09F9327
:1047E0008F937F92DF93CF930E94F8128DB79EB77D
:1047F00042960FB6F8949EBF0FBE8DBF80E094E93D
:104800009093BC00DF91CF911F910F91FF90EF909B
:10481000DF90CF90BF90AF909F908F907F906F90E0
:104820005F904F903F902F900895BF92AF927F92EC
:10483000DF93CF930E94F8120F900F900F900F907C
:104840000F90F5CE88E99DE09F938F9384E08F933E
:104850008AEC95E09F938F930E94F8120F900F902F
:104860000F900F900F908FEFCDCF1F930F9325E3F5
:104870003DE03F932F937F92DF93CF930E94F812F6
:104880000F5F1F4F8DB79EB707960FB6F8949EBF68
:104890000FBE8DBF0B30110531F3C9CE24E23DE0D0
:1048A0003F932F937F92DF93CF93C4CF8CE09DE013
:1048B0009F938F9384E08F93DF93CF930E94F8129E
:1048C0000F900F900F900F900F908FEF98CF2F9227
:1048D0003F924F925F926F927F928F929F92AF9290
:1048E000BF92CF92DF92EF92FF920F931F93CF93DD
:1048F000DF93880F01E010E094EA392E27EA822E38
:1049000021E1922E55245394C6EDD5E0482E6894AB
:1049100040F834E8232E45E6E42E41E1F42E55E13B
:10492000C52E51E1D52E64E0662E61E1762E76E942
:10493000A72E71E1B72E3092BC008091BC0087FF9A
:10494000FCCF8091B900887F80930D08803129F0D9
:104950008833F1F1883009F048C09F928F925F92BE
:10496000DF93CF930E94F8124092BB002092BC00CC
:104970000F900F900F900F900F908091BC0087FFC9
:10498000FCCF8091B900887F80930D081F928F9390
:10499000FF92EF925F92DF93CF930E94F812809183
:1049A0000D082DB73EB7295F3F4F0FB6F8943EBFB5
:1049B0000FBE2DBF803461F1883409F4A0C0883364
:1049C00009F0B5C07F926F925F92DF93CF9305C0DD
:1049D000BF92AF925F92DF93CF930E94F8120F9035
:1049E0000F900F900F900F90A6CF88E791E19F93C3
:1049F0008F9384E08F9386ED95E09F938F930E9431
:104A0000F8120F900F900F900F900F908FEF63C0E0
:104A100085E491E19F938F935F92DF93CF930E9400
:104A2000F81284E88093BC000F900F900F900F90C5
:104A30000F908091BC0087FFFCCF8091B900887FE8
:104A400080930D081F928F9389ED90E19F938F9330
:104A500011E01F93C6EDD5E0DF93CF930E94F812CB
:104A600080910D082DB73EB7295F3F4F0FB6F894E0
:104A70003EBF0FBE2DBF803589F0883509F066C076
:104A800088EB90E19F938F931F93DF93CF930E94C6
:104A9000F8120F900F900F900F900F90C091BB00E5
:104AA0001F92CF938AE990E19F938F9381E08F9338
:104AB00086ED95E09F938F930E94F8122DB73EB735
:104AC000295F3F4F0FB6F8943EBF0FBE2DBF84E95C
:104AD0008093BC008C2F9FEFDF91CF911F910F919E
:104AE000FF90EF90DF90CF90BF90AF909F908F900E
:104AF0007F906F905F904F903F902F9008951F93FD
:104B00000F93DF92CF925F92DF93CF930E94F812C0
:104B10000F5F1F4F8DB79EB707960FB6F8949EBFD5
:104B20000FBE8DBF0B30110509F470CF04CF8CEE92
:104B300090E19F938F9384E08F93DF93CF930E94B4
:104B4000F8120F900F900F900F900F90CFEFBFCFF4
:104B50002F923F924F925F926F927F928F929F928D
:104B6000AF92BF92CF92DF92EF92FF920F931F937B
:104B7000CF93DF930F920F92CDB7DEB78983E62EE6
:104B8000880F8A8301E010E086E8282E80E1382E25
:104B9000FF24F39494E4492E90E1592E2EEE622ED8
:104BA0002FE0722E3DED832E3FE0932E42EBC42E7C
:104BB0004FE0D42E55E7A52E50E1B52E24EA2093E0
:104BC000BC008091BC0087FFFCCF8091B900887F3A
:104BD00080930D08803131F0883309F4ABC0883000
:104BE00009F0B7C03F922F92FF9286ED95E09F9318
:104BF0008F930E94F8123A813093BB0084E880932F
:104C0000BC000F900F900F900F900F908091BC0000
:104C100087FFFCCF8091B900887F80930D081F9299
:104C20008F935F924F92FF9226ED35E03F932F9343
:104C30000E94F81280910D080FB6F894DEBF0FBEE7
:104C4000CDBF803209F498C0883309F4AEC08831F2
:104C500009F0B3C084E290E19F938F93FF9286EDB9
:104C600095E09F938F930E94F812E092BB0034E886
:104C70003093BC000F900F900F900F900F90809189
:104C8000BC0087FFFCCF8091B900887F80930D081E
:104C90001F928F93DF92CF92FF9286ED95E09F93C4
:104CA0008F930E94F81280910D080FB6F894DEBF22
:104CB0000FBECDBF803329F1883309F47FCF88320E
:104CC00009F08CC01F921F9288E99FE09F938F93F9
:104CD000FF9286ED95E09F938F930E94F8121F92AA
:104CE000EF9289E79FE09F938F93FF9286ED95E087
:104CF0009F938F930E94F8120FB6F894DEBF0FBEF9
:104D0000CDBF80E094E99093BC000F900F90DF91AD
:104D1000CF911F910F91FF90EF90DF90CF90BF90B8
:104D2000AF909F908F907F906F905F904F903F904B
:104D30002F900895BF92AF92FF9226ED35E03F93FA
:104D40002F930E94F8120F900F900F900F900F90DA
:104D500035CF87E590E19F938F9384E08F9386ED25
:104D600095E09F938F930E94F8120F900F900F90F1
:104D70000F900F908FEFC9CF1F930F931F928981D0
:104D80008F937F926F92FF9226ED35E03F932F93A2
:104D90000E94F8120F5F1F4F0FB6F894DEBF0FBED0
:104DA000CDBF0B30110531F309CF9F928F92FF9247
:104DB00086ED95E09F938F93C4CF85EC9FE09F9302
:104DC0008F9384E08F9386ED95E09F938F930E945D
:104DD000F8120F900F900F900F900F908FEF92CFCF
:104DE00060E00E94A82584E70E94672499279F938A
:104DF0008F938BEB91E19F938F9381E08F9386ED5F
:104E000095E09F938F930E94F8128DB79EB70796F7
:104E10000FB6F8949EBF0FBE8DBF80E0089521E0CD
:104E200030E0A90102C0440F551F6A95E2F7BA01AC
:104E30000C94A8258F929F92AF92BF92CF92DF924F
:104E4000EF92FF920F931F93CF93DF9300D0CDB7D4
:104E5000DEB76C018AEA89831A821B8280E0F60140
:104E60001995FFE0FA95F1F7F12CE12C10E001E043
:104E700084E5A82E82E1B82E96EB892E93E0992E38
:104E8000E1104AC089810E94671A182F803481F08E
:104E90001F920F931F928F93BF92AF920F939F9287
:104EA0008F920E94F8120FB6F894DEBF0FBECDBFEE
:104EB0009FEFE91AF90AE3E0EE16F10409F781E041
:104EC000F601199580E01034B9F01F9281E08F93BC
:104ED0001F921F9380E392E19F938F9384E08F93BF
:104EE00086EB93E09F938F930E94F8120FB6F8948D
:104EF000DEBF0FBECDBF8FEF0F900F900F90DF91F1
:104F0000CF911F910F91FF90EF90DF90CF90BF90C6
:104F1000AF909F908F900895E1E0F0E0EC0FFD1FBF
:104F2000EE0DFF1D80810E94671AC2CF6F927F92A3
:104F30008F929F92AF92BF92CF92DF92EF92FF92A9
:104F40000F931F93CF93DF9300D00F920F92CDB7A3
:104F5000DEB76C017B0119821A821B821C8280E001
:104F6000F6011995FFE0FA95F1F703E010E021E072
:104F70002D83712C662463949FE0A92E92E1B92EB3
:104F800026EB822E23E0922E033009F07EC030E41F
:104F9000731609F472C080EF0E94671A782E1C8283
:104FA00080E4781609F46EC01F926F921F927F9270
:104FB000BF92AF926F929F928F920E94F8120FB69B
:104FC000F894DEBF0FBECDBFF2E0FD8301501109A2
:104FD000D8F681E0F60119950981DA80CB80BC8092
:104FE000F7010083D182C282B382F0E410E07F1621
:104FF000D1F02D812150330BC9019F932F931F9224
:105000007F928EEE91E19F938F9384E08F9386EB56
:1050100093E09F938F930E94F8120FB6F894DEBF2F
:105020000FBECDBF1FEFBF92CF92DF920F938AEDDD
:1050300091E19F938F9381E08F9386EB93E09F9311
:105040008F930E94F8120FB6F894DEBF0FBECDBF4B
:10505000812F0F900F900F900F900F90DF91CF91B5
:105060001F910F91FF90EF90DF90CF90BF90AF9086
:105070009F908F907F906F90089521E02D8380E422
:10508000782EA4CF32E03D83FACF80E00E94671AE9
:10509000E1E0F0E0EC0FFD1FE00FF11F808396CF01
:1050A0002F923F924F925F926F927F928F929F9238
:1050B000AF92BF92CF92DF92EF92FF920F931F9326
:1050C000CF93DF9300D000D00F92CDB7DEB76C83C3
:1050D0007D83880F8B8369837A83EE24E394F12C9C
:1050E0000BEE15E023EA422E24E1522E34EE632E1D
:1050F00034E1732E48E7A42E44E1B42E5CE5852EFE
:1051000054E1952E84EA8093BC008091BC0087FF17
:10511000FCCF8091B900887F80930D08803131F0F9
:10512000883309F495C0883009F0A2C086E495E17F
:105130009F938F9381E08F931F930F930E94F81298
:105140003B813093BB0084E88093BC000F900F90AC
:105150000F900F900F908091BC0087FFFCCF809143
:10516000B900887F80930D081F928F9384E095E1AA
:105170009F938F93DD24D394DF921F930F930E940C
:10518000F81280910D080FB6F894DEBF0FBECDBFA8
:10519000803209F481C0883309F496C0883109F05F
:1051A00097C07F926F92DF921F930F930E94F81225
:1051B0000F900F900F900F900F90CC24C394D12C90
:1051C00022242394CE82DF82E1E0F0E0EC0FFD1F89
:1051D000EC0DFD1D80818093BB0024E82093BC0072
:1051E0008091BC0087FFFCCF8091B900887F8093BD
:1051F0000D081F928F93BF92AF922F921F930F9320
:105200000E94F81280910D080FB6F894DEBF0FBE11
:10521000CDBF803309F488C0883309F473CF883256
:1052200009F065C03F813F938E818F939F928F924B
:105230002F921F930F930E94F8120FB6F894DEBFBF
:105240000FBECDBFCD2809F475C0D12CC12CBACF6B
:1052500085E395E19F938F9381E08F931F930F9345
:105260000E94F8120F900F900F900F900F904ACF5E
:1052700087E195E19F938F9384E08F938BEE95E088
:105280009F938F930E94F8120F900F900F900F90A2
:105290000F9033243A942EC0FF92EF9284EB94E166
:1052A0009F938F93DF921F930F930E94F8123FEF0B
:1052B000E31AF30A0FB6F894DEBF0FBECDBF9BE032
:1052C000E916F10431F31ECF5F924F92DF92C6CF01
:1052D0008BE894E19F938F9384E08F931F930F93B8
:1052E0000E94F8120F900F900F900F900F9084E98A
:1052F0008093BC00832D27960FB6F894DEBF0FBEB7
:10530000CDBFDF91CF911F910F91FF90EF90DF9074
:10531000CF90BF90AF909F908F907F906F905F9055
:105320004F903F902F9008958CE394E19F938F933B
:105330002F92D4CF84EA8093BC008091BC0087FF79
:10534000FCCF8091B900887F80930D08803129F0CF
:10535000883309F4D7CE883051F68FE194E19F93DA
:105360008F9381E08F931F930F930E94F8128B818C
:1053700081608093BB0084E88093BC000F900F9005
:105380000F900F900F908091BC0087FFFCCF809111
:10539000B900887F80930D081F928F938CE094E171
:1053A0009F938F9381E08F931F930F930E94F81226
:1053B00080910D080FB6F894DEBF0FBECDBF8833C5
:1053C00009F4A0CE803409F092CF84E88093BC0029
:1053D0008091BC0087FFFCCF8091B900887F8093CB
:1053E0000D081F928F9389EF93E19F938F93FF2472
:1053F000F394FF920BEE15E01F930F930E94F812A7
:1054000080910D080FB6F894DEBF0FBECDBF80357A
:1054100089F0883509F06BCF88ED93E19F938F93E6
:10542000FF921F930F930E94F8120F900F900F900E
:105430000F900F903090BB003D813F938C818F93F4
:105440001F923F928FEB93E19F938F9381E08F9315
:105450008BEE95E09F938F930E94F8120FB6F8940D
:10546000DEBF0FBECDBF43CF2F923F924F925F92D0
:105470006F927F928F929F92AF92BF92CF92DF9264
:10548000EF92FF920F931F93CF93DF9300D000D042
:105490000F920F92CDB7DEB76C837D834B83880F5D
:1054A0008E8369837A83EE24E394F12C0BEE15E06E
:1054B00029E1222E23E1322E38E0432E33E1532E10
:1054C00049E4642E43E1742E5DEDA52E52E1B52E24
:1054D00061EC862E62E1962E84EA8093BC00809176
:1054E000BC0087FFFCCF8091B900887F80930D08B6
:1054F000803131F0883309F495C0883009F0A2C0BA
:105500008BEA93E19F938F9381E08F931F930F9387
:105510000E94F8123E813093BB0084E88093BC0067
:105520000F900F900F900F900F908091BC0087FF0D
:10553000FCCF8091B900887F80930D081F928F93D4
:1055400089E693E19F938F93DD24D394DF921F9399
:105550000F930E94F81280910D080FB6F894DEBFE9
:105560000FBECDBF803209F480C0883309F493C0E8
:10557000883109F094C07F926F92DF921F930F934E
:105580000E94F8120F900F900F900F900F90CC2464
:10559000C394D12CCF82D886E1E0F0E0EC0FFD1F60
:1055A000EC0DFD1D80818093BB0024E82093BC009E
:1055B0008091BC0087FFFCCF8091B900887F8093E9
:1055C0000D081F928F93BF92AF9231E03F931F93CC
:1055D0000F930E94F81280910D080FB6F894DEBF69
:1055E0000FBECDBF803309F4B5C0883309F474CF42
:1055F000883209F063C038853F938F818F939F92E3
:105600008F9291E09F931F930F930E94F8120FB611
:10561000F894DEBF0FBECDBFCD2809F451C0D12C08
:10562000C12CB8CF8AE993E19F938F9381E08F9348
:105630001F930F930E94F8120F900F900F900F90EE
:105640000F904ACF8CE793E19F938F9384E08F93E1
:105650008BEE95E09F938F930E94F8120F900F901E
:105660000F900F900F908FEF79C0FF92EF923F92C3
:105670002F92DF921F930F930E94F8123FEFE31ACD
:10568000F30A0FB6F894DEBF0FBECDBF9BE0E9165C
:10569000F10449F321CF5F924F92DF92C9CF80EF9F
:1056A00092E19F938F9384E08F931F930F930E94B7
:1056B000F8120F900F900F900F900F908FEF4BC03C
:1056C0003B813093BB0084E88093BC008091BC0098
:1056D00087FFFCCF8091B900887F80930D081F92CF
:1056E0008F938EEA92E19F938F93DD24D394DF9280
:1056F0001F930F930E94F81280910D080FB6F89433
:10570000DEBF0FBECDBF803329F1883309F4E4CE6C
:105710008832A1F61F921F9284E992E19F938F93A2
:10572000DF921F930F930E94F8123D813F938C816B
:105730008F931F929B819F9388E792E19F938F9312
:10574000DF921F930F930E94F8120FB6F894DEBFFA
:105750000FBECDBF80E094E99093BC0028960FB6B1
:10576000F894DEBF0FBECDBFDF91CF911F910F9197
:10577000FF90EF90DF90CF90BF90AF909F908F9071
:105780007F906F905F904F903F902F900895E0E64C
:10579000F0E080818860808388E19FE00FB6F89414
:1057A000A895809360000FBE9093600080E00895FC
:1057B000813621F0823681F08FEF089580E00E94DB
:1057C000113561E081E70E94A82591E0811101C0B7
:1057D00090E0892F8195089581E0F1CF1F93CF93B9
:1057E000DF93D62F172F0E94D82BC82F412F61E0AF
:1057F00070E080E50E94342A4D2F70E060E080E583
:105800000E94342A8C2FDF91CF911F9108951F930E
:10581000CF93DF93D82F0E94D82B81112FC061E046
:1058200070E080E50E945028C82F70E060E080E5BD
:105830000E945028182F682F7C2F8D2F0E9435181A
:105840001F92DF93CF931F938AE595E19F938F93E8
:1058500082E08F9380EF93E09F938F930E94F812E2
:105860008DB79EB709960FB6F8949EBF0FBE8DBF39
:10587000812F9C2FDF91CF911F91089570E060E000
:105880008D2F0E9435181F92DF9387E795E19F9334
:105890008F9384E08F9380EF93E09F938F930E9488
:1058A000F8128DB79EB707960FB6F8949EBF0FBE3D
:1058B0008DBF10E0C0E0DCCFFC016081718181E62A
:1058C0000E94EE2B87FF03C08DEF0C9421100C94E7
:1058D0001010FC016081718182E60E94EE2B87FF2F
:1058E00003C08DEF0C9421100C9410100E945218DC
:1058F00021E0892B09F420E0822F0895CF9381368F
:1059000049F0CFEF823699F481E00E941135C82F1B
:1059100082E605C080E00E941135C82F81E60E9412
:10592000762C811104C0CFEF8C2FCF91089540E0E9
:1059300063E084E70E94EA2286E69EE00197F1F7A1
:10594000000040E863E084E70E94EA22EDCFCF93B5
:1059500081E60E94762C882309F448C080E00E94EA
:105960001135C82F40EF66E084E70E94EA2240E04C
:1059700066E084E70E94EA2240EF62E084E70E944A
:10598000EA224FE767E084E70E94EA2240E863E00A
:1059900084E70E94EA2281E60E947E2C82E60E9431
:1059A000762C8823E1F181E00E941135C80F40EF89
:1059B00066E084E70E94EA2240E066E084E70E9415
:1059C000EA2240EF62E084E70E94EA224FE767E0C4
:1059D00084E70E94EA2240E863E084E70E94EA222A
:1059E00082E60E947E2C8C2FCF9108951F9281E633
:1059F0008F938BEA95E19F938F9384E08F9380EF51
:105A000093E09F938F930E94F8128DB79EB70796ED
:105A10000FB6F8949EBF0FBE8DBFCFEFBFCF1F92C2
:105A200082E48F9381E995E19F938F9384E08F9334
:105A300080EF93E09F938F930E94F812C1508DB72F
:105A40009EB707960FB6F8949EBF0FBE8DBFCBCF03
:105A500081E60E94762C811103C08DEF0C942110F9
:105A600081E60E94072C25E334E03F932F939F9318
:105A70008F9388E096E09F938F931F920E949D11D1
:105A80008DB79EB707960FB6F8949EBF0FBE8DBF19
:105A9000089582E60E94762C811103C08DEF0C944C
:105AA000211082E60E94072C25E334E03F932F93D8
:105AB0009F938F9388E096E09F938F931F920E940D
:105AC0009D118DB79EB707960FB6F8949EBF0FBE77
:105AD0008DBF0895CF9340E06AE070E089E090E3E5
