:100000000C94130E0C94340E0C94340E0C94340E89
:100010000C94340E0C94340E0C94340E0C94340E58
:100020000C94340E0C94340E0C94340E0C94340E48
:100030000C94340E0C94340E0C94340E0C94340E38
:100040000C94340E0C94340E0C94340E0C94471C07
:100050000C94340E0C94340E0C94340E0C94340E18
:100060000C94340E0C94360E0C94340E0C94340E06
:100070000C94340E0C94340E0C94340E0C94340EF8
:100080000C94340E0C94340E0C94340E0C94340EE8
:100090000C94340E0C94340E0C94340E0C94340ED8
:1000A0000C94340E0C94340E0C94340E0C94340EC8
:1000B0000C94340E0C94340E0C94340E0C94340EB8
:1000C0000C94340E0C94340E0C94340E0C94340EA8
:1000D0000C94340E0C94340E0C94340E0C94340E98
:1000E0000C94340E0C945F390C9465310C940021FF
:1000F0000C943A220C944F320C94F9200C94553203
:100100000C9468310C94F32F0C9430210C94C81883
:100110000C940E310C9485210C9462310C94513066
:100120000C94B21A0C94DC170C9444120C94F12128
:100130000C94412F0C94F8300C9436210C942633F7
:100140000C94D62D0C9444300C94E12E0C940C217C
:100150000C94CD120C9477150C945B320C94931B79
:100160000C94112F0C9433210C9473310C94B61809
:100170000C94E32D0C942D210C94B8190C94FD20B3
:100180000C943F210C943C210C94022F0C940132CE
:100190000C948A300C9437300C9477390C94CC3012
:1001A0000C9458320C94202F0C9490320C941030F4
:1001B0000C942A300C948F1D0C94B6300C940F378D
:1001C0000C945B1B0C94BF180C9480330C94D118C6
:1001D0000C9451220C9467340C9423140C94771BC8
:1001E0000C9441390C941D300C9449320C94032129
:1001F0000C94EF130C94A0300C940F210C942A2132
:100200000C9403300C94D1170C949B180C94392146
:100210000C94C02E0C9459310C9474300C94CC383E
:100220000C9446320C9476310C945E300C944C3223
:100230000C94E2300C946B310C9420220C94062127
:100240000C9453330C94851D0C94FD410C94C81AE6
:100250000C9475150C94AF1B0C94DB320C943A3251
:100260000C9409210C9470310C9489336E616E00EA
:10027000696E660000407A10F35A00A0724E1809A9
:100280000010A5D4E80000E87648170000E40B54FD
:10029000020000CA9A3B000000E1F50500008096CC
:1002A0009800000040420F000000A08601000000FE
:1002B000102700000000E8030000000064000000B8
:1002C00000000A00000000000100000000002C7681
:1002D000D888DC674F0823DFC1DFAE59E1B1B7969C
:1002E000E5E3E453C63AE651997696E8E6C28426F9
:1002F000EB898C9B62ED407C6FFCEFBC9C9F40F2D5
:10030000BAA56FA5F490055A2AF75C936B6CF96750
:100310006DC11BFCE0E40D47FEF520E6B500D0ED15
:10032000902E0300943577050080841E080000207D
:100330004E0A000000C80C333333330F986E12831B
:100340001141EF8D2114893BE65516CFFEE6DB18EF
:10035000D1844B381BF77C1D901DA4BBE4242032B4
:1003600084725E228100C9F124ECA1E53D2752652B
:100370006365697665642063686172616374657240
:10038000206E756D6265722061626F7665206C69A2
:100390006D697400256320203C2D2D20636F7069EA
:1003A000656420746F207265636569766520627587
:1003B000666665722E2020526563656976656420E5
:1003C000636F756E742069732025640050617273C9
:1003D000652062756666657220636F6E7461696E12
:1003E00073202725732700436F6D6D616E64207045
:1003F000726F6365737320737065656420657272D4
:100400006F722100526563656976656420612063BF
:100410006F6D6D616E64207465726D696E61746F6D
:1004200072004261642073797374656D2073746126
:100430007465202564004669726D77617265207667
:10044000657273696F6E206973202573004E6F208B
:1004500068616E646C657220737065636966696556
:100460006420666F7220257320617267756D656EFA
:10047000742E00457865637574696E6720636F6DCF
:100480006D616E642077697468207369676E656456
:1004900020696E7420617267756D656E742E0045FB
:1004A0007865637574696E6720636F6D6D616E64E6
:1004B000207769746820756E7369676E656420695A
:1004C0006E7420617267756D656E742E0054686578
:1004D00020617267756D656E742076616C7565203C
:1004E00069732025752E00457865637574696E679C
:1004F00020636F6D6D616E64207769746820686534
:100500007820617267756D656E742E00457865633D
:100510007574696E6720636F6D6D616E64207769B5
:100520007468206E6F20617267756D656E742E0041
:10053000556E7265636F676E697A656420636F6D6F
:100540006D616E643A20272573272E0049676E6F10
:1005500072696E6720617267756D656E7420666F73
:100560007220636F6D6D616E6420272573272E00E6
:10057000417267756D656E7420746F20272573272F
:100580002069732077697468696E206C696D69747D
:10059000732E00417267756D656E7420746F20272D
:1005A000257327206973206F7574206F6620726130
:1005B0006E67652E00436F6D6D616E642027257335
:1005C00027207265636F676E697A65642E005468D0
:1005D0006520636F6D6D616E64277320617267754E
:1005E0006D656E7420697320272573272E0054686B
:1005F0006520636F6D6D616E6420636F6E746169F9
:100600006E7320612073706163652E0054686520ED
:100610007061727365206275666665722069732009
:100620006C6F636B65642E00417267756D656E74E7
:100630002073697A65206973202564005379737487
:10064000656D202573206E6F7420666F756E640073
:100650004E6F77206C6F6767696E6720737973746C
:10066000656D2025730025750D0A004C6F67676561
:100670007220656E61626C6520726567697374656E
:10068000722073657420746F2025752E004C6F677F
:10069000206C6576656C202575206973206E6F74FB
:1006A000207265636F676E697A65642E004C6F67B0
:1006B00067696E672073657420746F206C6576655A
:1006C0006C202569004E6F20636F6E6E65637469E0
:1006D0006F6E00456E7465722073687574646F7711
:1006E0006E2066726F6D2062616420737973746529
:1006F0006D207374617465202564005374617465A2
:10070000206368616E6765205354414E444259200E
:10071000746F2053485554444F574E00456E7465CE
:1007200072204944454E544946592066726F6D20E7
:100730006261642073797374656D2073746174658C
:10074000202564005374617465206368616E676579
:10075000205354414E44425920746F204944454E21
:10076000544946592E414D4249454E5400456E74F8
:10077000657220636C65616E2066726F6D206261C8
:10078000642073797374656D2073746174652025BA
:100790006400466F7262696464656E20737461748C
:1007A00065206368616E67652053485554444F5710
:1007B0004E20746F20434F4E54524F4C005374617F
:1007C0007465206368616E676520434F4E54524FD5
:1007D0004C20746F20434C45414E00537461746546
:1007E000206368616E6765205354414E444259202E
:1007F000746F20434C45414E00456E746572206312
:100800006F6E74726F6C2066726F6D20626164200F
:1008100073797374656D2073746174652025640049
:100820005374617465206368616E676520434C454D
:10083000414E20746F20434F4E54524F4C0053741E
:10084000617465206368616E6765205354414E444E
:10085000425920746F20434F4E54524F4C00466F04
:100860007262696464656E20737461746520636884
:10087000616E67652053485554444F574E20746F3E
:1008800020434F4E54524F4C00456E746572207396
:1008900074616E6462792066726F6D20626164209B
:1008A00073797374656D20737461746520256400B9
:1008B0005374617465206368616E676520494445BF
:1008C0004E5449465920746F205354414E44425966
:1008D000005374617465206368616E676520434CE2
:1008E00045414E20746F205354414E4442590053A9
:1008F00074617465206368616E676520434F4E5470
:10090000524F4C20746F205354414E44425900467C
:100910006F7262696464656E2073746174652063CC
:1009200068616E67652053485554444F574E207494
:100930006F205354414E44425900537461746520F2
:100940006368616E676520494E495420746F205377
:1009500054414E44425900436F6D6D206368656396
:100960006B207461736B206964206E6F7420666FF6
:10097000756E6400436F6D6D20636865636B2074F2
:1009800061736B2069642069732025690056657264
:100990006E6F6E2073657269616C206E756D626535
:1009A0007220697320256900546F70617A2042209B
:1009B00073657269616C206E756D62657220697312
:1009C00020256900546F70617A2041207365726937
:1009D000616C206E756D62657220697320256900F7
:1009E0005069636172726F2C426F7865722C534E3E
:1009F00025752C2573004C6F6164696E6720736CDC
:100A00006F742049442025750057726974696E67B8
:100A100020736C6F74204944202575004C6F61640D
:100A2000696E672073657269616C206E756D6265B1
:100A3000722025750057726974696E67207365723C
:100A400069616C206E756D62657220257500526556
:100A500061642025692066726F6D2061646472652F
:100A600073732025690057726F746520256920749F
:100A70006F2061646472657373202569005265613B
:100A80006420307825780057726F7465203078259F
:100A900078004661696C656420746F20736574200A
:100AA0006D6173746572206D6F64650053504920E9
:100AB000636F6E74726F6C207265676973746572B0
:100AC000206973203078257800496E697469616CFB
:100AD000697A696E67206D6574726F6E6F6D6500FF
:100AE00057726F746520307825780057726F74657F
:100AF000203078257800536C6176652041434B6542
:100B000064206461746120627974652025752E000B
:100B10005457492073746174757320697320307859
:100B2000257800536C6176652041434B65642069EC
:100B30006E737472756374696F6E203078257800F7
:100B40005457492073746174757320697320307829
:100B5000257800436F756C64206E6F742073656C2C
:100B600065637420646576696365004172626974C7
:100B7000726174696F6E206C6F737400534C412BFB
:100B800057207472616E736D69747465642C204EA5
:100B900041434B20726563656976656420616674C4
:100BA000657220257520747269657300534C412B62
:100BB00057207472616E736D69747465642C204182
:100BC000434B20726563656976656400545749201C
:100BD00073746174757320697320307825780043CD
:100BE0006F756C64206E6F7420736574207374610C
:100BF000727420636F6E646974696F6E0041726213
:100C00006974726174696F6E206C6F7374005374D1
:100C100061727420636F6E646974696F6E207365AE
:100C20007400546F70617A202563206973206E6FA1
:100C30007420636F6E6E656374656400546F7061D9
:100C40007A202563206973206E6F7420636F6E6E47
:100C5000656374656400546F70617A202563206950
:100C600073206E6F7420636F6E6E656374656400CD
:100C7000546F70617A202563206973206E6F742031
:100C8000636F6E6E656374656400493243206D75F1
:100C90007820746F20546F70617A2041004368613E
:100CA0006E6E656C2073657474696E67206973205D
:100CB00025690057726F7465203078257820746F2D
:100CC00020726567697374657220307825782061B9
:100CD00074206164647265737320307825780053E2
:100CE0006C6176652041434B6564206461746120CA
:100CF000627974652025752E0054574920737461FC
:100D0000747573206973203078257800536C617690
:100D1000652041434B656420616464726573732090
:100D200030782578005457492073746174757320A6
:100D30006973203078257800436F756C64206E6F7E
:100D4000742073656C6563742064657669636500FF
:100D50004172626974726174696F6E206C6F737432
:100D600000534C412B57207472616E736D6974741B
:100D700065642C204E41434B20726563656976653E
:100D800064206166746572202575207472696573CC
:100D900000534C412B57207472616E736D697474EB
:100DA00065642C2041434B207265636569766564F8
:100DB000005457492073746174757320697320302F
:100DC00078257800436F756C64206E6F74207365AE
:100DD0007420737461727420636F6E646974696FD8
:100DE0006E004172626974726174696F6E206C6F1B
:100DF000737400537461727420636F6E64697469F4
:100E00006F6E2073657400526561642025752066DD
:100E1000726F6D2072656769737465722025750045
:100E20004E41434B20726563656976656420616657
:100E30007465722064617461207265717565737484
:100E4000005457492073746174757320697320309E
:100E5000782578005457492073746174757320693C
:100E60007320307825780053657420726570656151
:100E700074656420737461727420636F6E64697446
:100E8000696F6E0044617461207472616E736D6984
:100E9000747465642C204E41434B20726563656910
:100EA0007665640044617461207472616E736D696B
:100EB000747465642C2041434B20726563656976C8
:100EC00065640054574920737461747573206973A5
:100ED000203078257800436F756C64206E6F742025
:100EE00073656C656374206465766963650041723F
:100EF000626974726174696F6E206C6F73740053F1
:100F00004C412B57207472616E736D697474656403
:100F10002C204E41434B20726563656976656420E1
:100F2000616674657220257520747269657300535B
:100F30004C412B57207472616E736D6974746564D3
:100F40002C2041434B2072656365697665640054CB
:100F50005749207374617475732069732030782544
:100F60007800436F756C64206E6F74207365742015
:100F7000737461727420636F6E646974696F6E005C
:100F80004172626974726174696F6E206C6F737400
:100F90000053657420737461727420636F6E6469AA
:100FA00074696F6E0057726F7465203078257820F1
:100FB000746F20636F6E74726F6C207265676973F3
:100FC00074657200536C6176652041434B65642003
:100FD0006461746120627974652025752E00545710
:100FE0004920737461747573206973203078257893
:100FF00000436F756C64206E6F742073656C65635D
:101000007420646576696365004172626974726117
:1010100074696F6E206C6F737400534C412B5720B2
:1010200073656E742C20676F74204E41434B2066AD
:10103000726F6D20616464726573732030782578F7
:10104000206166746572202575207472696573006D
:10105000534C412B57207472616E736D69747465C3
:10106000642C2041434B207265636569766564009A
:1010700054574920737461747573206973203078F4
:10108000257800436F756C64206E6F7420736574EF
:1010900020737461727420636F6E646974696F6E1B
:1010A000004172626974726174696F6E206C6F7353
:1010B0007400537461727420636F6E646974696F35
:1010C0006E20736574005265616420257520667218
:1010D0006F6D20636F6E74726F6C207265676973D9
:1010E000746572004E41434B207265636569766595
:1010F0006420616674657220646174612072657138
:101100007565737400545749207374617475732046
:101110006973203078257800436F756C64206E6F9A
:10112000742073656C65637420646576696365001B
:101130004172626974726174696F6E206C6F73744E
:1011400000534C412B52207472616E736D6974743C
:1011500065642C204E41434B20726563656976655A
:1011600064206166746572202575207472696573E8
:1011700000534C412B52207472616E736D6974740C
:1011800065642C2041434B20726563656976656414
:10119000005457492073746174757320697320304B
:1011A00078257800436F756C64206E6F74207365CA
:1011B0007420737461727420636F6E646974696FF4
:1011C0006E004172626974726174696F6E206C6F37
:1011D00073740053657420737461727420636F6E4E
:1011E000646974696F6E00436F6E74726F6C207205
:1011F0006567697374657220636F6E7461696E737D
:10120000203078257800507265737375726520639D
:101210006F6465203078256C78004D5052207265DF
:101220006164202D2D3E203078257820616674651C
:1012300072202569207472696573004D50522072C6
:10124000656164202D2D3E203078257820616674FC
:101250006572202569207472696573004D505220B3
:1012600074726967676572202D2D3E20307825786D
:101270002061667465722025692074726965730047
:101280004D50522074726967676572202D2D3E2083
:101290003078257820616674657220256920747223
:1012A0006965730057726F746520307825782074F3
:1012B0006F207265676973746572203078257800D5
:1012C000536C6176652041434B65642064617461B1
:1012D00020627974652025752E0054574920737457
:1012E00061747573206973203078257800536C61C0
:1012F00076652041434B6564206164647265737355
:1013000020627974652025750054574920737461F3
:10131000747573206973203078257800436F756C7D
:1013200064206E6F742073656C65637420646576E9
:10133000696365004172626974726174696F6E20DD
:101340006C6F737400534C412B57207472616E7331
:101350006D69747465642C204E41434B2072656343
:1013600065697665642061667465722025752074F0
:101370007269657300534C412B57207472616E7310
:101380006D69747465642C2041434B2072656365FC
:1013900069766564005457492073746174757320CD
:1013A0006973203078257800436F756C64206E6F08
:1013B000742073657420737461727420636F6E643B
:1013C0006974696F6E004172626974726174696FE9
:1013D0006E206C6F737400537461727420636F6E4F
:1013E000646974696F6E207365740052656164206E
:1013F00025752066726F6D207265676973746572FA
:10140000202575004E41434B207265636569766502
:101410006420616674657220646174612072657114
:101420007565737400545749207374617475732023
:10143000697320307825780054574920737461749B
:101440007573206973203078257800536574207295
:101450006570656174656420737461727420636F74
:101460006E646974696F6E004461746120747261A6
:101470006E736D69747465642C204E41434B207209
:101480006563656976656400536C617665204143E8
:101490004B6564206164647265737320627974655E
:1014A0002025750054574920737461747573206941
:1014B00073203078257800436F756C64206E6F74EC
:1014C0002073656C656374206465766963650041AB
:1014D00072626974726174696F6E206C6F737400EC
:1014E000534C412B57207472616E736D697474652F
:1014F000642C204E41434B207265636569766564B8
:1015000020616674657220257520747269657300A8
:10151000534C412B57207472616E736D69747465FE
:10152000642C2041434B20726563656976656400D5
:10153000545749207374617475732069732030782F
:10154000257800436F756C64206E6F74207365742A
:1015500020737461727420636F6E646974696F6E56
:10156000004172626974726174696F6E206C6F738E
:10157000740053657420737461727420636F6E64B9
:101580006974696F6E00466F756E64207365726969
:10159000616C20257520666F7220626F6172642015
:1015A000256300546F70617A202563206973206E73
:1015B0006F7420636F6E6E656374656400546F7042
:1015C000617A202563206973206E6F7420636F6ECB
:1015D0006E656374656400546F70617A20256320C2
:1015E0006973206E6F7420636F6E6E6563746564DB
:1015F00000436F6E766572746564207072657373F4
:1016000075726520697320256C7520506173636164
:101610006C7300436F6E76657274656420707265DA
:10162000737375726520697320256C752050617322
:1016300063616C7300536B697070696E6720756EBF
:10164000636F6E6E656374656420546F70617A2099
:10165000256320726561647300536B697070696EF5
:101660006720756E636F6E6E656374656420546F7A
:1016700070617A2025632072656164730052656130
:1016800064696E6720546F70617A202563206F75DE
:10169000746C65740052656164696E67206368618B
:1016A0006E6E656C20257520696E6C657400536BD9
:1016B000697070696E6720756E636F6E6E656374B6
:1016C000656420546F70617A2025632074726967A5
:1016D0006765727300536B697070696E6720756E11
:1016E000636F6E6E656374656420546F70617A20F9
:1016F0002563207472696767657273005472696745
:10170000676572696E6720546F70617A2025632067
:101710006F75746C65740054726967676572696E81
:1017200067206368616E6E656C20257520696E6C3C
:1017300065740050726573737572652072656164BB
:10174000207461736B206964206E6F7420666F75FE
:101750006E640050726573737572652072656164A2
:10176000207461736B2069642069732025690050BF
:10177000726573737572652074726967676572202C
:101780007461736B206964206E6F7420666F756E70
:10179000640050726573737572652074726967674F
:1017A0006572207461736B206964206973202569F8
:1017B000005665726E6F6E206973206E6F742063C1
:1017C0006F6E6E6563746564005665726E6F6E2031
:1017D0004750494F206F7574707574206279746535
:1017E000206973203078257800436F6E6E656374CE
:1017F000656420746F205665726E6F6E0056657258
:101800006E6F6E206973206E6F7420636F6E6E65ED
:101810006374656400576869746669656C6420491F
:1018200032432073776974636820746F2063686142
:101830006E6E656C203200576869746669656C6409
:1018400020493243207377697463682070726F6235
:101850006C656D005665726E6F6E2074656D7020DC
:1018600069732025692043005665726E6F6E20698A
:1018700073206E6F7420636F6E6E656374656400B1
:101880004661696C656420746F2073657420493209
:1018900043206D757800493243206D757820746F50
:1018A000205665726E6F6E00493243206D75782048
:1018B000746F20546F70617A204200493243206D6A
:1018C000757820746F20546F70617A2041005772D0
:1018D0006F7465203078257800436C656172696E9D
:1018E0006720626C7565204C454473005543535224
:1018F00032432069732030782578005543535232A3
:101900004220697320307825780045786974207406
:1019100061736B206964206E6F7420666F756E64EE
:101920000045786974207461736B20696420697361
:101930002025690057726F746520307825782074EF
:101940006F2072656769737465722030782578201E
:101950006174206164647265737320307825780047
:10196000536C6176652041434B656420646174610A
:1019700020627974652025752E00545749207374B0
:1019800061747573206973203078257800536C6119
:1019900076652041434B65642061646472657373AE
:1019A000203078257800545749207374617475731A
:1019B000206973203078257800436F756C64206E41
:1019C0006F742073656C6563742064657669636504
:1019D000004172626974726174696F6E206C6F731A
:1019E0007400534C412B57207472616E736D69748F
:1019F0007465642C204E41434B20726563656976A3
:101A0000656420616674657220257520747269654D
:101A10007300534C412B57207472616E736D69745F
:101A20007465642C2041434B20726563656976655B
:101A3000640054574920737461747573206973206E
:101A40003078257800436F756C64206E6F74207356
:101A5000657420737461727420636F6E6469746955
:101A60006F6E004172626974726174696F6E206C8E
:101A70006F737400537461727420636F6E64697461
:101A8000696F6E207365740052656164202575204E
:101A900066726F6D20726567697374657220257553
:101AA000004E41434B207265636569766564206131
:101AB0006674657220646174612072657175657306
:101AC00074005457492073746174757320697320CE
:101AD00030782578005457492073746174757320E9
:101AE00069732030782578005365742072657065BD
:101AF0006174656420737461727420636F6E6469CD
:101B000074696F6E0044617461207472616E736DEC
:101B100069747465642C204E41434B207265636583
:101B2000697665640044617461207472616E736DDE
:101B300069747465642C2041434B20726563656948
:101B40007665640054574920737461747573206915
:101B500073203078257800436F756C64206E6F7445
:101B60002073656C65637420646576696365004104
:101B700072626974726174696F6E206C6F73740045
:101B8000534C412B57207472616E736D6974746588
:101B9000642C204E41434B20726563656976656411
:101BA0002061667465722025752074726965730002
:101BB000534C412B57207472616E736D6974746558
:101BC000642C2041434B207265636569766564002F
:101BD0005457492073746174757320697320307889
:101BE000257800436F756C64206E6F742073657484
:101BF00020737461727420636F6E646974696F6EB0
:101C0000004172626974726174696F6E206C6F73E7
:101C1000740053657420737461727420636F6E6412
:101C20006974696F6E0011241FBECFEFD1E2DEBF71
:101C3000CDBF00E00CBF16E0A0E0B2E0E2E3FBE8BD
:101C400000E00BBF02C007900D92A03BB107D9F78F
:101C50002BE0A0EBB6E001C01D92A031B207E1F786
:101C60000E94383D0C946F450C9400001F920F9217
:101C70000FB60F9211240BB60F92EF92FF920F93B3
:101C80001F932F933F934F935F936F937F938F9304
:101C90009F93AF93BF93CF93DF93EF93FF93F8940A
:101CA000E0910002F09101020488F589E02D809115
:101CB000C6008083E0910002F0910102A489B589F9
:101CC0008C918D3009F078C084E094E09F938F93DD
:101CD0001F92C4EED3E0DF93CF930E949B13E09159
:101CE0000002F09101020F900F900F900F900F9053
:101CF00084A5811102C0789446C085A58823B9F0D7
:101D000087EE93E09F938F9384E08F93DF93CF933D
:101D10000E949B1380910002909101020E945E0F2D
:101D200078940F900F900F900F900F902CC0048814
:101D3000F589E02D1082E0900002F0900102870109
:101D40000A5E1F4FB701C8010E94184481E0F701E5
:101D500085A71F930F938CEC93E09F938F931F9213
:101D6000DF93CF930E949B13809100029091010218
:101D70000E945E0F7894EDB7FEB737960FB6F894D1
:101D8000FEBF0FBEEDBFFF91EF91DF91CF91BF91ED
:101D9000AF919F918F917F916F915F914F913F9103
:101DA0002F911F910F91FF90EF900F900BBE0F900E
:101DB0000FBE0F901F90189584A58F5F84A71F9268
:101DC0008F938C911F928F9384E993E09F938F93CD
:101DD0001F92C4EED3E0DF93CF930E949B13E09158
:101DE0000002F09101028DB79EB709960FB6F894E4
:101DF0009EBF0FBE8DBF84A5833170F08EE693E049
:101E00009F938F9384E08F93DF93CF930E949B13D4
:101E10008CEF0E9437107ECF848995890196958B2F
:101E2000848B69CFCF93DF93FC0184E1DF01C82F5E
:101E30001D92CA95E9F7F58BE48BDF015696ED010B
:101E400019928A95E9F7B3A7A2A714A615A6DF9160
:101E5000CF9108950F931F93CF93DF938B01FC01D4
:101E6000A2A5B3A5ED0109900020E9F72197CA1BAF
:101E7000DB0BCE0199279F938F9388E296E09F9387
:101E80008F9382E08F938BEE93E09F938F930E94CA
:101E90009B1381E02DB73EB7295F3F4F0FB6F894F3
:101EA0003EBF0FBE2DBFF80194819C1708F080E063
:101EB0008195DF91CF911F910F910895FC0184E1ED
:101EC000DF011D928A95E9F7F58BE48B14A608953E
:101ED000BF92CF92DF92EF92FF920F931F93CF9317
:101EE000DF938C016B01EA01DC011296FC901297E2
:101EF0001396EC9066E474E08F2D9E2D0E940F44A3
:101F0000892B91F48CE095E09F938F9382E08F93DF
:101F10008BEE93E09F938F930E949B130F900F90F3
:101F20000F900F900F902FC06BE474E08F2D9E2DBB
:101F30000E940F44892BB1F587EE94E09F938F9315
:101F400082E0B82EBF929BEEE92E93E0F92EFF922D
:101F5000EF920E949B13C6010E94C5148883998347
:101F60009F938F938DEC94E09F938F93BF92FF92FA
:101F7000EF920E949B13EDB7FEB73C960FB6F89414
:101F8000FEBF0FBEEDBFD8011596ED91FC91CE01BD
:101F9000DF91CF911F910F91FF90EF90DF90CF9045
:101FA000BF90199461E574E08F2D9E2D0E940F441F
:101FB000892B91F48FE994E09F938F9382E08F9324
:101FC0008BEE93E09F938F930E949B13C6010E9418
:101FD000F61499838883A2CF68E574E08F2D9E2D37
:101FE0000E940F44892B91F483E794E09F938F9391
:101FF00082E08F938BEE93E09F938F930E949B13CD
:10200000C6010E94F8149B838A8388CFEF92FF92C7
:102010008DE494E09F938F9384E08F938BEE93E015
:102020009F938F930E949B13EDB7FEB737960FB621
:10203000F894FEBF0FBEEDBFDF91CF911F910F91BE
:10204000FF90EF90DF90CF90BF9008958FE594E0E0
:102050009F938F9381E694E09F938F931F920E94AA
:10206000B3110F900F900F900F900F9008952FE5E0
:1020700034E03F932F93282F082E000C330B3F930F
:102080008F9385E694E09F938F931F920E94B311E4
:102090008DB79EB707960FB6F8949EBF0FBE8DBF43
:1020A0000895BF92CF92DF92EF92FF920F931F930A
:1020B000CF93DF93EC018B018DA5882309F4F0C049
:1020C0008CE096E09F938F9322E0B22EBF923BEE7E
:1020D000C32E33E0D32EDF92CF920E949B137E015A
:1020E00026E1E20EF11C60E270E0C7010E940444A8
:1020F0009BA78AA70F900F900F900F900F90892B9E
:1021000089F18EEE95E09F938F93BF92DF92CF92ED
:102110000E949B13EAA5FBA510828AA59BA50196A8
:102120009BA78AA70F900F900F900F900F90EAA592
:10213000FBA580818032D1F1FF93EF938EEC95E087
:102140009F938F9382E08F938BEE93E09F938F9377
:102150000E949B138DB79EB707960FB6F8949EBF4B
:102160000FBE8DBFC7010E940315F80185819681BE
:10217000892B01F5FF92EF9280E395E09F938F9377
:1021800084E08F938BEE93E09F938F930E949B1339
:102190008FEF0E9437101DA62DB73EB7295F3F4F26
:1021A0000FB6F8943EBF0FBE2DBF7AC03196FBA785
:1021B000EAA7BDCFF801D080C1806D2D7C2DC7016D
:1021C0000E940F44892B09F09BC0CF92DF9285EBD0
:1021D00095E09F938F9382E0D82EDF929BEEE92EBD
:1021E00093E0F92EFF92EF920E949B1366E474E055
:1021F000F801828193810E940F442DB73EB7295F79
:102200003F4F0FB6F8943EBF0FBE2DBF892B09F488
:1022100051C0B801CE010E942A0FF801218190819E
:10222000882309F12F939F9383E995E09F938F93E0
:1022300084E08F93FF92EF920E949B132DB73EB7DD
:10224000295F3F4F0FB6F8943EBF0FBE2DBF8BEFF7
:10225000DF91CF911F910F91FF90EF90DF90CF9082
:10226000BF900C9437102F939F9380E795E09F9336
:102270008F93DF92FF92EF920E949B134091020294
:10228000509103026AA57BA5C8010E94680F8DB713
:102290009EB707960FB6F8949EBF0FBE8DBF1DA6C2
:1022A000DF91CF911F910F91FF90EF90DF90CF9032
:1022B000BF9008958AA59BA5892BC1F0F801818163
:1022C0008F9380818F938CE495E09F938F9383E02D
:1022D0008F93FF92EF920E949B132DB73EB7295F19
:1022E0003F4F0FB6F8943EBF0FBE2DBF4091020284
:1022F0005091030270E060E0C8010E94680FCFCFE8
:10230000095F1F4F32CF8091C00087FFFCCF8091C3
:10231000C6000895882319F0813041F00895809116
:10232000C00085FFFCCF6093C60008958091300106
:1023300085FFFCCF6093360108950F931F93CF93D1
:10234000DF93082FC62FD72F16E9160F6991662342
:1023500029F0802F0E948A111C13F8CFDF91CF91B2
:102360001F910F910895CF93DF93CDB7DEB79E01F4
:10237000275F3F4F4F81588566E970E083E59AE01B
:102380000E949F4463E57AE08E810E949D1180E067
:10239000DF91CF910895CF93DF93CDB7DEB79E0144
:1023A000275F3F4F4F81588566E970E083E59AE0EB
:1023B0000E94D84463E57AE08E810E949D1180E0FE
:1023C000DF91CF9108950F931F93CF93DF93082F41
:1023D000EB01FE011491612F802F0E948A1121963A
:1023E0001111F7CFDF91CF911F910F910895E0EC7C
:1023F000F0E080818D7F80831092C50023E02093E0
:10240000C400A1ECB0E098E19C93E2ECF0E08081A4
:102410008F73808380818F7C80838081877F80839E
:1024200080818B7F80838081866080838C918068AF
:102430008C93E0E3F1E080818D7F80831092350101
:102440002093340190933101E2E3F1E080818F73B6
:10245000808380818F7C80838081877F808380815F
:102460008B7F80838081866080830895E0919B03C9
:10247000F0919C038FEF9FEFDC0180839183A28317
:10248000B38384E0848308958091ED0A8230E9F17A
:1024900028F4882351F0813001F10895833009F444
:1024A0004CC0843009F461C008958FE594E09F9397
:1024B0008F9387E096E09F938F938BE096E09F93B6
:1024C0008F931F920E94B3118DB79EB707960FB6D8
:1024D000F8949EBF0FBE8DBF08958FE594E09F9343
:1024E0008F9380E196E09F938F938BE096E09F938C
:1024F0008F931F920E94B3118DB79EB707960FB6A8
:10250000F8949EBF0FBE8DBF08958FE594E09F9312
:102510008F9386E196E09F938F938BE096E09F9355
:102520008F931F920E94B3118DB79EB707960FB677
:10253000F8949EBF0FBE8DBF08958FE594E09F93E2
:102540008F938BE196E09F938F938BE096E09F9320
:102550008F931F920E94B3118DB79EB707960FB647
:10256000F8949EBF0FBE8DBF08958FE594E09F93B2
:102570008F9383E296E09F938F938BE096E09F93F7
:102580008F931F920E94B3118DB79EB707960FB617
:10259000F8949EBF0FBE8DBF0895E0919B03F0910C
:1025A0009C0383818F9382818F9381818F9380811C
:1025B0008F9386E696E09F938F931F920E94CB1194
:1025C0008DB79EB707960FB6F8949EBF0FBE8DBF0E
:1025D0000895E0919B03F0919C0310821182128276
:1025E000138208959F938F9382E694E09F938F9335
:1025F00081E08F930E94B3110F900F900F900F9076
:102600000F9008958F929F92AF92BF92CF92DF92D8
:10261000FF920F931F93CF93DF93CDB7DEB7E2976F
:102620000FB6F894DEBF0FBECDBF5C01F62E4A0197
:10263000C0909B03D0909C030DE413E0F8016081EF
:102640007181FB018081882309F445C0C5010E9486
:102650000F44892B09F06CC0F8012281F6018081BA
:102660009181A281B38104C0B695A795979587956E
:102670002A95D2F780FF5CC0F2E0FF1609F452C041
:10268000FF15D8F1FF2009F445C081E0F81609F4E0
:1026900046C0F80181818F9380818F938DE396E00E
:1026A0009F938F931F9282E38F938E010F5F1F4F33
:1026B0001F930F930E946244C8010E94F212C4014A
:1026C0000E94F2128FE594E00E94F2120FB6F89485
:1026D000DEBF0FBECDBFE2960FB6F894DEBF0FBED1
:1026E000CDBFDF91CF911F910F91FF90DF90CF90E1
:1026F000BF90AF909F908F90089593E0F916A9F046
:10270000E4E0FE12C6CF89E396E00E94F2120E9436
:10271000631BBFCF89E296E00E94F212BACF8DE22E
:1027200096E0FACF81E396E0F7CF85E396E0F4CF29
:102730000D5F1F4F83CF1F93CF93DF93CDB7DEB7CE
:10274000E2970FB6F894DEBF0FBECDBF1BADE09190
:102750009B03F0919C0380819181A281B381892B9D
:102760008A2B8B2BB1F08481181798F09E01225C84
:102770003F4F4CAD5DAD62E370E0CE0101960E942B
:10278000D844AE014F5F5F4F612F89AD9AAD0E9473
:102790000213E2960FB6F894DEBF0FBECDBFDF91F5
:1027A000CF911F910895E0919B03F0919C03848346
:1027B0001F928F938DEA96E09F938F9382E08F9381
:1027C00080EC93E09F938F930E949B138DB79EB7ED
:1027D00007960FB6F8949EBF0FBE8DBF0895FC01FB
:1027E000808191818230910551F1E0F4009711F1DF
:1027F0008130910511F19F938F938DE896E09F931F
:102800008F9384E08F9380EC93E09F938F930E944B
:102810009B138DB79EB707960FB6F8949EBF0FBE59
:102820008DBF08958330910561F08430910519F7CB
:1028300084E001C080E00C94D31381E0FCCF82E0FF
:10284000FACF83E0F8CFFC0180819181E0919B0376
:10285000F0919C03AC0170E060E04083518362839F
:1028600073839F938F938BE696E09F938F9382E081
:102870008F9380EC93E09F938F930E949B138DB76F
:102880009EB707960FB6F8949EBF0FBE8DBF0895F2
:10289000EF92FF920F931F93CF93DF93F82EE92EC1
:1028A0000DE413E0D801CD91DC918881811118C02D
:1028B000EF92FF928CE396E09F938F9384E08F9347
:1028C00080EC93E09F938F930E949B13EDB7FEB72C
:1028D00037960FB6F894FEBF0FBEEDBF81E03CC047
:1028E000BE018F2D9E2D0E940F44892BE1F5E091B2
:1028F0009B03F0919C03D80112962C9181E090E00B
:10290000A0E0B0E004C0880F991FAA1FBB1F2A9542
:10291000D2F74081518162817381842B952BA62B44
:10292000B72B80839183A283B383DF93CF9380E51A
:1029300096E09F938F9382E08F9380EC93E09F9338
:102940008F930E949B138DB79EB707960FB6F8948E
:102950009EBF0FBE8DBF80E0DF91CF911F910F9181
:10296000FF90EF9008950D5F1F4F9CCF982F80ED43
:10297000890F8A3048F089EC890F803128F089EA84
:10298000890F803108F080E00895EF92FF920F9355
:102990001F93CF93DF93EC0109900020E9F7219773
:1029A000C81BD90B8C01DD27CC0FDD1FCC0FDD1F21
:1029B000F12CE12C2497CC3F2FEFD20741F4C70133
:1029C000DF91CF911F910F91FF90EF900895F80143
:1029D00081918F010E94B61490E00C2E02C0880FE6
:1029E000991F0A94E2F7E80EF91EE4CF0C94FB421B
:1029F0000C94FB42282F80E091E0921708F0089594
:102A0000990F8F5FFACFCF93DF93EC0189918111FA
:102A100003C0DF91CF91089590E00E94F143FE0141
:102A200031978083F3CF80E88093610083E08093C7
:102A300061001092700080E28093B60088EC809371
:102A4000B30010926E0081E0809381008093B0000B
:102A50009091B6008091B60084709170892BC1F777
:102A60008AE090E020E335E7F9013197F1F701972B
:102A7000D9F73FEF41E0F89436BB37BB10928500A1
:102A8000109284001092B20087B38823E9F3109269
:102A90008100789486B381111CC0209184008091BC
:102AA000850090E0982F8827820F911D8B3628E1B2
:102AB000920744F0809166008150809366004093B5
:102AC0008100D9CF883E974124F081E08093810036
:102AD0000895809166008F5FF0CFE1E6F0E080E836
:102AE0008083108208950C946D150C94B71B80E4BC
:102AF00094E09F938F93E0919D03F0919E038181D9
:102B00008F9380818F9380EE99E09F938F931F9294
:102B10000E94CB118FE594E09F938F931F920E94A8
:102B2000B3118DB79EB70A960FB6F8949EBF0FBE2D
:102B30008DBF0895E0919D03F0919E0383830895D6
:102B4000E0919D03F0919E0383810895CF93C091FE
:102B5000F10AC23009F448C010F5CC2309F460C072
:102B6000C13009F463C0E0919D03F0919E0383811D
:102B70001F928F9389E898E09F938F9384E08F93BF
:102B800081ED93E09F938F930E949B138DB79EB727
:102B900007960FB6F8949EBF0FBE8DBF58C0C530C4
:102BA00009F457C0C63009F469C0C430E1F680E0CA
:102BB0000E94512180E00E94C23660E070E0CB01AB
:102BC0000E942739E0919D03F0919E0313828FEEBE
:102BD00098E09F938F9382E08F9381ED93E09F9392
:102BE0008F930E949B1316C080E00E94512180E0C9
:102BF0000E94C2368AE399E09F938F93CF9381ED31
:102C000093E09F938F930E949B13E0919D03F0911B
:102C10009E0313820F900F900F900F900F9003C0A0
:102C200080E00E94512180E0CF9108958FE099E0EB
:102C30009F938F9384E08F9381ED93E09F938F9385
:102C40000E949B130F900F900F900F900F908FEF9B
:102C5000EBCF80E00E94512180E00E94C23660E00C
:102C600070E0CB010E9427390E946F38E0919D03EC
:102C7000F0919E03138281ED98E0ABCF80E00E943B
:102C8000512160E070E0CB010E942739E0919D0363
:102C9000F0919E03138280EB98E09BCFCF93C0E02E
:102CA0008091F10A823029F1E0F4882331F18130FA
:102CB00009F11F928F9383ED96E09F938F9384E0A9
:102CC0008F9381ED93E09F938F930E949B13C1504C
:102CD0008DB79EB707960FB6F8949EBF0FBE8DBFF7
:102CE00009C09CEF980F923020F70E94A615C82FBC
:102CF000D7CFC1508C2FCF91089580E00E942F2014
:102D000080E00E94C23660E070E0CB010E949537FF
:102D10008BEF96E09F938F9382E08F9381ED93E00A
:102D20009F938F930E949B13E0919D03F0919E03CC
:102D300081E083830F900F900F900F900F90DACF68
:102D40008091F10A823009F447C0E0F4882309F445
:102D500045C0813081F11F928F9389EF97E09F9357
:102D60008F9384E08F9381ED93E09F938F930E94E4
:102D70009B138DB79EB707960FB6F8949EBF0FBEF4
:102D80008DBF2AC0843009F446C0853021F780E029
:102D90000E94C2360E946F3860E070E080E292E4E8
:102DA0000E942739E0919D03F0919E0384E0838384
:102DB00080E298E021C08EE598E09F938F9384E0B5
:102DC0008F9381ED93E09F938F930E949B130F90BD
:102DD0000F900F900F900F908FEF089560E070E0CC
:102DE00080E292E40E942739E0919D03F0919E03D6
:102DF00084E083838EE398E09F938F9382E08F93A8
:102E000081ED93E09F938F930E949B130F900F90FF
:102E10000F900F900F9080E00895CF938091F10A6A
:102E2000823041F118F5882339F1813009F461C00D
:102E3000C0E08091F10A1F928F938DE697E09F93F7
:102E40008F9384E08F9381ED93E09F938F930E9403
:102E50009B138FEF8C0F2DB73EB7295F3F4F0FB6F7
:102E6000F8943EBF0FBE2DBFCF910895843051F12D
:102E70008530F1F680E0F8CF80E00E94512181E0BA
:102E80000E94C2360E94A03860E070E080E292E4C6
:102E90000E942739E0919D03F0919E0385E0838392
:102EA0008BED97E09F938F9382E08F9381ED93E07A
:102EB0009F938F930E949B130F900F900F900F90F2
:102EC0000F90D8CF80E00E94512181E00E94C2364D
:102ED0000E94A03860E070E080E292E40E9427390E
:102EE000E0919D03F0919E0385E083838DEB97E055
:102EF000D9CF82E997E09F938F9384E08F9381ED00
:102F000093E09F938F930E949B130F900F900F90CD
:102F10000F900F90CFEF8DCF8091F10A833020F486
:102F20008823F9F08FEF0895843020F08630D0F3B5
:102F3000863099F11F928F938CE197E09F938F9346
:102F400084E08F9381ED93E09F938F930E949B1376
:102F50008DB79EB707960FB6F8949EBF0FBE8DBF74
:102F6000E1CFE0919D03F0919E0386E0838380E0B2
:102F70000E943A390E941B3984E497E09F938F9313
:102F800082E08F9381ED93E09F938F930E949B1338
:102F90000F900F900F900F900F9080E008950C9479
:102FA0004E1688E198E00FB6F894A89580936000DB
:102FB0000FBE90936000FFCFE0919D03F0919E03C0
:102FC0008381823009F43FC0F0F4882309F453C0B0
:102FD000813009F480C08FE594E09F938F9386E45D
:102FE00094E09F938F938BE096E09F938F931F9233
:102FF0000E94B3118DB79EB707960FB6F8949EBF87
:103000000FBE8DBF0895853009F44DC0863009F498
:103010007AC0843001F78FE594E09F938F938AE71D
:1030200096E09F938F938BE096E09F938F931F92F0
:103030000E94B3118DB79EB707960FB6F8949EBF46
:103040000FBE8DBF08958FE594E09F938F9385E722
:1030500096E09F938F938BE096E09F938F931F92C0
:103060000E94B3118DB79EB707960FB6F8949EBF16
:103070000FBE8DBF08958FE594E09F938F9385E9F0
:1030800095E09F938F938BE096E09F938F931F9291
:103090000E94B3118DB79EB707960FB6F8949EBFE6
:1030A0000FBE8DBF08958FE594E09F938F938DE9B8
:1030B00095E09F938F938BE096E09F938F931F9261
:1030C0000E94B3118DB79EB707960FB6F8949EBFB6
:1030D0000FBE8DBF08958FE594E09F938F9383EA91
:1030E00095E09F938F938BE096E09F938F931F9231
:1030F0000E94B3118DB79EB707960FB6F8949EBF86
:103100000FBE8DBF08958FE594E09F938F938EEF50
:1031100093E09F938F938BE096E09F938F931F9202
:103120000E94B3118DB79EB707960FB6F8949EBF55
:103130000FBE8DBF08958FE594E09F938F93E0912C
:103140009D03F0919E0382811F928F9382E896E007
:103150009F938F931F920E94B3118DB79EB70796CE
:103160000FB6F8949EBF0FBE8DBF08950E94A6159E
:10317000811102C00C9426108DEF0C9437100E9420
:103180008C17811102C00C9426108DEF0C9437100F
:103190000E944E16811102C00C9426108DEF0C94E3
:1031A00037100E940D17811102C00C9426108DEF6C
:1031B0000C943710813631F47093F30A6093F20A5D
:1031C00080E008957093F50A6093F40AF9CF909324
:1031D000F70A8093F60A80E008959093EF0A8093AF
:1031E000EE0A80E008958093F00A80E00895813629
:1031F00029F48091F20A9091F30A08958091F40ADB
:103200009091F50A08958091F10A08958091F60A47
:103210009091F70A08956093F80A7093F90A8093E1
:10322000FA0A9093FB0A80E008956091F80A709181
:10323000F90A8091FA0A9091FB0A08958FB180955E
:10324000881F8827881F08951F93CF93DF9380914D
:103250009D0390919E030E94441A80919D0390913A
:103260009E030E94911A81E60E94812D9F938F9365
:1032700084EC99E09F938F9312E01F93C1EDD3E00C
:10328000DF93CF930E949B1382E60E94812D9F9330
:103290008F9388EA99E09F938F931F93DF93CF9347
:1032A0000E949B130E9442369F938F938DE899E072
:1032B0009F938F931F93DF93CF930E949B138798C5
:1032C0000E94C43840E068EE73E088EB99E10E9408
:1032D000751C88EB99E10E94051D2DB73EB72B5E4A
:1032E0003F4F0FB6F8943EBF0FBE2DBF87FD2BC0DA
:1032F0008093FC0A282F082E000C330B3F938F93EA
:1033000084E799E09F938F9381E08F93DF93CF932E
:103310000E949B132DB73EB7295F3F4F0FB6F8941D
:103320003EBF0FBE2DBF40E068EE73E085E795E13C
:103330000E94751C0E941E198823A9F0DF91CF916D
:103340001F910C94B43887E599E09F938F9384E0A4
:103350008F93DF93CF930E949B130F900F900F904A
:103360000F900F90E0CFDF91CF911F910C94AC386C
:103370000E947F1B0E941E1981111AC085EC96E0E5
:103380009F938F9381E08F9381ED93E09F938F9331
:103390000E949B130E94AC380E94A6150F900F90BC
:1033A0000F900F900F9062E08091FC0A0C94E81C43
:1033B0000895F894F999FECF92BD81BD60BDFA9A47
:1033C000F99A78949F938F931F926F9386E69AE071
:1033D0009F938F9382E08F9387EF93E09F938F93D8
:1033E0000E949B138DB79EB709960FB6F8949EBFA7
:1033F0000FBE8DBF0895F894F999FECF92BD81BD9F
:10340000F89A789420B59F938F931F922F938EE410
:103410009AE09F938F9382E08F9387EF93E09F933F
:103420008F930E949B1380B52DB73EB7275F3F4F08
:103430000FB6F8943EBF0FBE2DBF0895CF93DF9314
:10344000D82FC92F9F938F9385E39AE09F938F93F3
:1034500081E08F9387EF93E09F938F930E949B135C
:103460006D2F90E080E00E94D9198DB79EB7079626
:103470000FB6F8949EBF0FBE8DBF6C2F81E090E019
:10348000DF91CF910C94D9190F931F93CF938C0197
:1034900090E080E00E94FB19C82F81E090E00E943C
:1034A000FB1990E0982F88278C0F911DF8019183CC
:1034B00080839F938F938CE19AE09F938F9381E019
:1034C0008F9387EF93E09F938F930E949B138DB709
:1034D0009EB707960FB6F8949EBF0FBE8DBFCF91D3
:1034E0001F910F910895CF93C82F1F928F9389E05A
:1034F0009AE09F938F9381E08F9387EF93E09F9360
:103500008F930E949B138DB79EB707960FB6F894C2
:103510009EBF0FBE8DBF6C2F82E090E0CF910C94C8
:10352000D919CF93DF93EC0182E090E00E94FB1960
:103530008A831F928F9386EF99E09F938F9381E008
:103540008F9387EF93E09F938F930E949B138DB788
:103550009EB707960FB6F8949EBF0FBE8DBFDF9142
:10356000CF910895CF93DF93FC01C081D181CE012B
:103570000E941E1ACE010E94ED18811104C0DF9135
:10358000CF910C9426108DEFDF91CF910C943710D2
:10359000CF93FC01C0818C2F0E94731A8C2F0E9444
:1035A000F318811103C0CF910C9426108DEFCF91A9
:1035B0000C943710CF93DF93219A229A8CB58260B6
:1035C0008CBD8DB581608DBD8CB58F7D8CBD8CB56E
:1035D00080618CBD8CB580648CBD29988CB51F92A0
:1035E0008F938CEA9AE09F938F9382E08F93CEE53E
:1035F000D6E0DF93CF930E949B138DB79EB70796BB
:103600000FB6F8949EBF0FBE8DBF0CB404FC0FC064
:1036100082E99AE09F938F9384E08F93DF93CF9317
:103620000E949B130F900F900F900F900F90DF91BF
:10363000CF9108950F931F93CF93DF938EBD0DB459
:1036400007FEFDCF1F928F9387E89AE09F938F9399
:1036500001E00F93CEE5D6E0DF93CF930E949B135A
:103660001EB51F921F938DE79AE09F938F930F9340
:10367000DF93CF930E949B138DB79EB70E960FB624
:10368000F8949EBF0FBE8DBF812FDF91CF911F9108
:103690000F9108951092B90080E48093B8000895C6
:1036A000882329F0409881E08093020B0895409A86
:1036B0001092020B089580E00E94501B62E08091FE
:1036C000FD0A0C94E81C4098EDEFFAE081E0858358
:1036D00060E080810C94E81C882329F02F9881E019
:1036E0008093010B08952F9A1092010B089580E0AA
:1036F0000E946C1B62E08091FE0A0C94E81C2F98DB
:10370000EDEFFAE081E0848360E081810C94E81CB5
:10371000882329F0449881E08093030B0895449A0C
:103720001092030B089580E00E94881B62E0809154
:10373000FF0A0C94E81C4498EDEFFAE081E08683E0
:1037400060E082810C94E81C882329F0429881E093
:103750008093040B0895429A1092040B089580E020
:103760000E94A41B62E08091000B0C94E81C42981C
:10377000EDEFFAE081E0878360E083810C94E81C40
:10378000882329F0419881E08093050B0895419AA0
:103790001092050B0895CF93DF93279A80E00E9443
:1037A0006C1B42E068EC70E087E79BE10E94751CAF
:1037B00087E79BE10E94051DCDEFDAE089833C9A03
:1037C00080E00E94881B42E068EC70E083E99BE1A6
:1037D0000E94751C83E99BE10E94051D8A833A9A29
:1037E00080E00E94A41B42E062E370E08FEA9BE16C
:1037F0000E94751C8FEA9BE10E94051D8B83399AFC
:1038000080E00E94C01B389A80E00E94501B42E07A
:1038100068EC70E08BE59BE10E94751C8BE59BE1F9
:103820000E94051D8883DF91CF91089589EC9AE06D
:103830009F938F9382E08F9387EC93E09F938F9376
:103840000E949B13E1E8F0E080818460808389E33B
:1038500090E090938D0080938C00EFE6F0E0808103
:10386000886080830F900F900F900F900F900895B5
:1038700060E070E080E090E10C94953760EB76E0DA
:1038800081E60E945E3262E081E00C94E81C1F92A7
:103890000F920FB60F9211240BB60F922F933F93F6
:1038A0004F935F936F937F938F939F93AF93BF9348
:1038B000EF93FF93F89410928500109284000E9479
:1038C000951C7894FF91EF91BF91AF919F918F914B
:1038D0007F916F915F914F913F912F910F900BBE10
:1038E0000F900FBE0F901F9018959C01CB01019770
:1038F00080319742B0F49091B4069436A0F487E0FA
:10390000989FF0011124EB54F94F31832083738386
:1039100062834683158214829F5F9093B40680E091
:10392000089582E0089583E008953091B406E5EBB0
:10393000F6E020E041E050E061E0321301C008957C
:103940008681823051F084819581A281B3818A176A
:103950009B0730F05583448366832F5F3796EDCF06
:10396000019695838483F9CFCF93DF93C0E0D7E0AE
:103970008091B406C81718F0DF91CF910895DC9FAD
:10398000F0011124EB54F94F8681813029F416821D
:103990000190F081E02D1995CF5FEACF97E0899FE4
:1039A000F0011124EB54F94F8681089597E0899F27
:1039B000F0011124EB54F94F82819381089597E02F
:1039C000899FF0011124EB54F94F8481958108956A
:1039D00097E0899FF0011124EB54F94F6683089515
:1039E00097E0899FF0011124EB54F94F73836283B0
:1039F000089597E0899FF0011124EB54F94F7583E6
:103A0000648308958091B4060895BC014091B40682
:103A100025EB36E090E0491302C08FEF0895295F4F
:103A20003F4FF90137970190F081E02DE617F70736
:103A300011F4892F08959F5FEECF289A289BFECF1F
:103A4000089580910B01886080930B0180910B0198
:103A500083FFFCCF0895882329F0739A739BFECFD0
:103A600080E0089573987399FECFFACF882329F0E8
:103A7000749A749BFECF80E0089574987499FECF79
:103A8000FACF882321F00E941D1D80E00895289818
:103A90002899FECFFACF882321F00E94211D80E0D3
:103AA000089580910B01877F80930B0180910B011A
:103AB00083FDFCCFF4CF289A209A739A6B9A80E00A
:103AC0000E94411D8FEF0E941A1B0E941D1D889AA3
:103AD000809A80E00E942B1DEBE0F1E080818860FD
:103AE0008083EAE0F1E0808188608083749A6C9A38
:103AF00080E00E944B1D8FEF0E941A1B0E94211D27
:103B0000899A819A80E00C94361D882321F0889A46
:103B1000889BFECF089588988899FECF08958823C2
:103B200021F0899A899BFECF089589988999FECFC3
:103B3000089580E00E94411D80E00E944B1D80E0BE
:103B40000E941A1B0E941D1D0C94211D80E00E94E2
:103B5000411D80E00E944B1D82E00E941A1B0E94C2
:103B60001D1D0C94211D80E00E94411D80E00E94DB
:103B70004B1D84E00E941A1B0E941D1D0C94211DE8
:103B800080E00E94411D80E00E944B1D86E00E9463
:103B90001A1B0E941D1D0C94211D80E00E94411DD6
:103BA00080E00E944B1D81E00E941A1B0E941D1D97
:103BB0000C94211D80E00E94411D80E00E944B1D5D
:103BC00083E00E941A1B0E941D1D0C94211D80E0A1
:103BD0000E94411D80E00E944B1D85E00E941A1B3F
:103BE0000E941D1D0C94211D80E00E94411D80E05B
:103BF0000E944B1D87E00E941A1B0E941D1D0C9401
:103C0000211D80E00E94411D80E00E944B1D88E044
:103C10000E941A1B0E941D1D0C94211D0895BF9225
:103C2000CF92DF92EF92FF920F931F93CF93DF9388
:103C30006C01162FEA0180E0F6011995812F82951B
:103C4000807F0E941A1B8D2F0E941A1B1F92DF93E8
:103C500080EEE82E8AE0F82EFF92EF92BB24B39418
:103C6000BF9202E616E01F930F930E949B138C2FC6
:103C70000E941A1BDD27DF93CF93FF92EF92BF9232
:103C80001F930F930E949B1381E0F60119958DB746
:103C90009EB70E960FB6F8949EBF0FBE8DBF80E004
:103CA000DF91CF911F910F91FF90EF90DF90CF9018
:103CB000BF90089580E008952F923F924F925F92B7
:103CC0006F927F928F929F92AF92BF92CF92DF922C
:103CD000EF92FF920F931F93CF93DF930F920F9268
:103CE000CDB7DEB7382E330C3A8329836295607FD7
:103CF000762E740EEE24E394F12C07E014E030E409
:103D0000832E3BE0932E84EA8093BC008091BC001C
:103D100087FFFCCF8091B900887F8093060B8031AC
:103D200031F0883309F4F6C0883009F003C12EE081
:103D30003CE03F932F9381E08F931F930F930E945A
:103D40009B133092BB0084E88093BC000F900F90CF
:103D50000F900F900F908091BC0087FFFCCF809157
:103D6000B900887F8093060B1F928F93ECECFBE0E9
:103D7000FF93EF93DD24D394DF921F930F930E9460
:103D80009B138091060B0FB6F894DEBF0FBECDBF1C
:103D9000803209F4E2C0883309F4F7C0883109F0B1
:103DA000FAC02CEA3BE03F932F93DF921F930F93CF
:103DB0000E949B137092BB0084E88093BC000F901C
:103DC0000F900F900F900F908091BC0087FFFCCF59
:103DD0008091B900887F8093060B1F928F939F92EA
:103DE0008F92DD24D394DF921F930F930E949B1335
:103DF0008091060B0FB6F894DEBF0FBECDBF8033A7
:103E000009F46FC0883309F47ECF883209F0D2C03C
:103E10001F927F9283E29BE09F938F93DF921F9389
:103E20000F930E949B139E012F5F3F4F59010FB6C6
:103E3000F894DEBF0FBECDBFCC24C394D12C94E840
:103E4000292E662463945C2C4D2CF501818180938E
:103E5000BB002092BC008091BC0087FFFCCF80910A
:103E6000B900887F8093060B1F928F9320E13BE07F
:103E70003F932F936F921F930F930E949B138091F8
:103E8000060B0FB6F894DEBF0FBECDBF803349F1ED
:103E9000883309F438CF883209F08CC04F925F9292
:103EA00026EF3AE03F932F936F921F930F930E9458
:103EB0009B13F50181811F928F932BEE3AE03F9384
:103EC0002F936F921F930F930E949B1391E0A91A57
:103ED000B1080FB6F894DEBF0FBECDBFCD2809F0F4
:103EE0006BC080E094E99093BC000F900F90DF913D
:103EF000CF911F910F91FF90EF90DF90CF90BF90E7
:103F0000AF909F908F907F906F905F904F903F9079
:103F10002F9008958DEF9BE09F938F9381E08F9377
:103F20001F930F930E949B130F900F900F900F9071
:103F30000F90E9CE8FED9BE09F938F9384E08F935A
:103F400087E094E09F938F930E949B130F900F90B4
:103F50000F900F900F908FEFC8CFFF92EF92ECE78A
:103F6000FBE0FF93EF93DF921F930F930E949B134D
:103F70003FEFE31AF30A0FB6F894DEBF0FBECDBFD2
:103F80009BE0E916F10439F3BECEEBE6FBE0FF93CC
:103F9000EF93DF92C5CF83E59BE09F938F9384E0FF
:103FA0008F931F930F930E949B130F900F900F906E
:103FB0000F900F908FEF96CFD12CC12C44CF089546
:103FC0000F931F93CF93DF93EC01162F072F80E001
:103FD000FE011995802F0E941A1B812F0E941A1B27
:103FE00081E0FE01199580E0DF91CF911F910F9143
:103FF0000895CF9320E0C0E041E050E0822F90E0B0
:10400000FC01EE0FFF1FE80FF91FEF55FC4F308149
:10401000311119C01F92CF938DE99CE09F938F932C
:1040200081E08F9388ED93E09F938F930E949B1381
:104030008DB79EB707960FB6F8949EBF0FBE8DBF83
:104040008C2FCF9108953181332339F0BA0102C00A
:10405000660F771F8A95E2F7C60F2F5FCFCFCF93FA
:10406000DF93D82F81E60E94F02D882381F164E050
:1040700080E70E941627C82F8AE89CE09F938F93C1
:1040800081E08F9380E394E09F938F930E949B1332
:104090004D2F62E084E70E9458240F900F900F90FC
:1040A0000F900F9082E60E94F02D882349F165E081
:1040B00080E70E941627C80F4D2F42954F7062E08F
:1040C00084E70E9458248C2FDF91CF9108951F928E
:1040D00081E68F9380E79CE09F938F9384E08F939A
:1040E0008AE194E09F938F930E949B138DB79EB7B4
:1040F00007960FB6F8949EBF0FBE8DBFCFEFD2CFFD
:104100001F9282E68F9386E59CE09F938F9384E0D5
:104110008F938AE194E09F938F930E949B13C150E9
:104120008DB79EB707960FB6F8949EBF0FBE8DBF92
:10413000CACF7F928F929F92AF92BF92CF92DF921F
:10414000EF92FF920F931F93CF93DF930E94151965
:104150006B017C01712C812C912CA12C01E010E0D1
:10416000872D90E0EC01CC0FDD1FC80FD91FCF5574
:10417000DC4F888181111CC0882009F489C00E940D
:104180000319863009F47EC00E94A01687FF7AC00A
:10419000AA948A2DDF91CF911F910F91FF90EF90FC
:1041A000DF90CF90BF90AF909F908F907F900895B9
:1041B0009981BB24BA94B80E9923A1F1839470E03D
:1041C00060E00E94E52FA82E8A81980102C0220F8C
:1041D000331F8A95E2F7C9018095982237E03B1595
:1041E00050F0EB2DF0E08827EF58FA4B8F4F0C94EE
:1041F00064416894E0F87394B3CF6894E3F8FBCF1C
:104200006894E6F8F8CF6894F1F8F5CF6894C0F8B0
:10421000F2CF6894C3F8EFCF6894C6F8ECCF6894F7
:10422000D1F8E9CF6EEE72E40E94E52FA82E8A81C4
:10423000980102C0220F331F8A95E2F7922A37E0D5
:104240003B15C8F2EB2DF0E08827E758FA4B8F4F6B
:104250000C946441E894E0F8CECFE894E3F8CBCF37
:10426000E894E6F8C8CFE894F1F8C5CFE894C0F830
:10427000C2CFE894C3F8BFCFE894C6F8BCCFE894A7
:10428000D1F8B9CFC701B6010E9490376B017C010C
:10429000892D0E942F20A80EC701B6010E949537D4
:1042A00078CF90E0282F30E061E0492F50E0FA010C
:1042B000EE0FFF1FE40FF51FEF55FC4F80818111BA
:1042C00002C00C949920A901092E02C0559547956A
:1042D0000A94E2F740FF03C061839F5FE6CF11823B
:1042E000FCCF80E00C94512180E0282F30E0F901D0
:1042F000EE0FFF1FE20FF31FEF55FC4F908191115E
:1043000002C080E008958F5FF0CFCF93DF93FC0170
:1043100080819181CFEFC80F9C0121503109283055
:10432000310528F08BEFDF91CF910C943710059772
:10433000A8F481E60E94F02D882391F1D0E0FE01DF
:10434000EE0FFF1FEC0FFD1FEF55FC4F81E0818347
:104350000E949920DF91CF910C94261082E60E9452
:10436000F02D8111EBCF81E60E94F02D811136C036
:104370001F9282E68F9382E29CE09F938F9384E06A
:104380008F938AE194E09F938F930E949B13EDB7E4
:10439000FEB737960FB6F894FEBF0FBEEDBF1CC038
:1043A00081E60E94F02D8111D9CF1F9281E68F9373
:1043B0008CE39CE09F938F9384E08F938AE194E059
:1043C0009F938F930E949B138DB79EB707960FB64E
:1043D000F8949EBF0FBE8DBF8DEFA5CFDF91CF911B
:1043E0000895FC0180819181EFEFE80F0197089714
:1043F00018F08BEF0C9437108E2F90E0FC01EE0F2D
:10440000FF1FE80FF91FEF55FC4F8181882389F0CA
:104410008FE594E09F938F9387E896E09F938F9327
:104420001F920E94B3110F900F900F900F900F905A
:1044300008958FE594E09F938F9381E694E0EECF0B
:10444000FC01808191819C01215031092830310586
:1044500018F08BEF0C943710815090E0FC01EE0FB8
:10446000FF1FE80FF91FEF55FC4F11820E949920A2
:104470000C942610FC01808191818F3F910521F0E1
:1044800018F08BEF0C943710009731F40E94A615AA
:1044900087FF05C08DEFF6CF0E945121F9CF0C9414
:1044A000261090E080E061E070E0292F30E0F90113
:1044B000EE0FFF1FE20FF31FEF55FC4F408141113C
:1044C00016C02FE534E03F932F931F928F938BE814
:1044D00096E09F938F931F920E94B3118DB79EB762
:1044E00007960FB6F8949EBF0FBE8DBF0895418109
:1044F000442339F0AB0102C0440F551F2A95E2F75F
:10450000840F9F5FD2CF2F923F924F925F926F9214
:104510007F928F929F92AF92BF92CF92DF92EF9253
:10452000FF920F931F93CF93DF93562E482E440C88
:1045300001E010E084EA382EC9E4D6E093EC892E3D
:104540009EE0992E24EAE22E2EE0F22E37E6C32ECC
:104550003EE0D32E242C689420F840E8A42E4FE0AF
:10456000B42E3092BC008091BC0087FFFCCF8091BC
:10457000B900887F8093060B803131F0883309F4CD
:1045800027C1883009F032C121E93FE03F932F93E2
:1045900081E08F93DF93CF930E949B134092BB00E7
:1045A00084E88093BC000F900F900F900F900F90B5
:1045B0008091BC0087FFFCCF8091B900887F8093F9
:1045C000060B1F928F932FE43FE03F932F936624B7
:1045D00063946F92DF93CF930E949B138091060B9D
:1045E0002DB73EB7295F3F4F0FB6F8943EBF0FBEC1
:1045F0002DBF803209F40DC1883309F423C18831FD
:1046000009F028C18FE29FE09F938F936F92DF9311
:10461000CF930E949B135092BB0084E88093BC0010
:104620000F900F900F900F900F908091BC0087FF1C
:10463000FCCF8091B900887F8093060B1F928F93E7
:104640009F928F92662463946F92DF93CF930E9420
:104650009B138091060B2DB73EB7295F3F4F0FB6D6
:10466000F8943EBF0FBE2DBF803309F419C18833C3
:1046700009F477CF883209F0FCC0FF92EF926F9275
:10468000DF93CF930E949B133092BC000F900F904A
:104690000F900F900F908091BC0087FFFCCF80910E
:1046A000B900887F8093060B803131F0883309F49C
:1046B00058CF883009F0DDC0DF92CF9281E08F9330
:1046C000DF93CF930E949B132092BB0084E88093DA
:1046D000BC000F900F900F900F900F908091BC0036
:1046E00087FFFCCF8091B900887F8093060B1F92D3
:1046F0008F9324E53EE03F932F9381E08F93DF93E8
:10470000CF930E949B138091060B2DB73EB7295F74
:104710003F4F0FB6F8943EBF0FBE2DBF883309F44C
:1047200020CF803409F0A5C084E88093BC0080913C
:10473000BC0087FFFCCF8091B900887F8093060B77
:104740001F928F9381E49EE09F938F9311E01F93BC
:10475000C9E4D6E0DF93CF930E949B138091060BB0
:104760002DB73EB7295F3F4F0FB6F8943EBF0FBE3F
:104770002DBF803589F0883509F07BC080E29EE04E
:104780009F938F931F93DF93CF930E949B130F9060
:104790000F900F900F900F907090BB001F925F9240
:1047A0001F927F9287E09EE09F938F9381E08F938B
:1047B00089E496E09F938F930E949B132DB73EB799
:1047C000275F3F4F0FB6F8943EBF0FBE2DBF51C0BD
:1047D000BF92AF9281E08F93DF93CF930E949B13A0
:1047E0000F900F900F900F900F90BBCE82E69FE03E
:1047F0009F938F9384E08F9389E496E09F938F93A8
:104800000E949B130F900F900F900F900F908FEFBF
:1048100034C01F930F932FEF3EE03F932F936F927F
:10482000DF93CF930E949B130F5F1F4F8DB79EB7EF
:1048300007960FB6F8949EBF0FBE8DBF0B301105C3
:1048400031F38FCE2EEE3EE03F932F936F92DF93A6
:10485000CF93C4CF86ED9EE09F938F9384E08F9398
:10486000DF93CF930E949B130F900F900F900F90A8
:104870000F9084E98093BC00872DDF91CF911F9129
:104880000F91FF90EF90DF90CF90BF90AF909F90EF
:104890008F907F906F905F904F903F902F900895F2
:1048A00084E89EE09F938F936F92DF93CF93DACF4C
:1048B0002F923F924F925F926F927F928F929F9230
:1048C000AF92BF92CF92DF92EF92FF920F931F931E
:1048D000CF93DF93482E662E542E382E330C01E0F2
:1048E00010E084EA282E77247394C9E4D6E095E298
:1048F000892E9DE0992EE62EF12C29EFC22E2CE078
:10490000D22E32EEA32E3DE0B32E2092BC00809139
:10491000BC0087FFFCCF8091B900887F8093060B95
:10492000803131F0883309F4EEC0883009F0F8C0E6
:1049300023EF3DE03F932F937F92DF93CF930E942D
:104940009B133092BB0084E88093BC000F900F90C3
:104950000F900F900F908091BC0087FFFCCF80914B
:10496000B900887F8093060B1F928F9321EB3DE067
:104970003F932F937F92DF93CF930E949B1380915D
:10498000060B2DB73EB7295F3F4F0FB6F8943EBFD9
:104990000FBE2DBF803209F4D6C0883309F4ECC0B5
:1049A000883109F0F1C081E99DE09F938F937F9258
:1049B000DF93CF930E949B136092BB0084E88093A7
:1049C000BC000F900F900F900F900F908091BC0043
:1049D00087FFFCCF8091B900887F8093060B1F92E0
:1049E0008F939F928F927F92DF93CF930E949B131E
:1049F0008091060B2DB73EB7295F3F4F0FB6F89455
:104A00003EBF0FBE2DBF803309F466C0883309F462
:104A10007CCF883209F0C7C01F926F928CE09DE076
:104A20009F938F937F92DF93CF930E949B1350921B
:104A3000BB0084E88093BC002DB73EB7295F3F4F91
:104A40000FB6F8943EBF0FBE2DBF8091BC0087FF0C
:104A5000FCCF8091B900887F8093060B1F928F93C3
:104A6000DF92CF927F92DF93CF930E949B1380912E
:104A7000060B2DB73EB7295F3F4F0FB6F8943EBFE8
:104A80000FBE2DBF803341F1883309F43ECF883209
:104A900009F089C01F921F928FED9CE09F938F9326
:104AA0007F92DF93CF930E949B131F924F92FF92AE
:104AB000EF921F925F9283EB9CE09F938F937F9284
:104AC000DF93CF930E949B138DB79EB742960FB68C
:104AD000F8949EBF0FBE8DBF80E094E99093BC0018
:104AE000DF91CF911F910F91FF90EF90DF90CF90CA
:104AF000BF90AF909F908F907F906F905F904F90FE
:104B00003F902F900895BF92AF927F92DF93CF9303
:104B10000E949B130F900F900F900F900F90F5CE67
:104B200084EC9DE09F938F9384E08F9389E496E0DB
:104B30009F938F930E949B130F900F900F900F9055
:104B40000F908FEFCDCF1F930F9321E63DE03F9362
:104B50002F937F92DF93CF930E949B130F5F1F4F82
:104B60008DB79EB707960FB6F8949EBF0FBE8DBF48
:104B70000B30110531F3C9CE20E53DE03F932F9373
:104B80007F92DF93CF93C4CF88E39DE09F938F9371
:104B900084E08F93DF93CF930E949B130F900F902D
:104BA0000F900F900F908FEF98CF2F923F924F92D0
:104BB0005F926F927F928F929F92AF92BF92CF92AD
:104BC000DF92EF92FF920F931F93CF93DF93880FA3
:104BD00001E010E094EA392E23ED822E21E1922E9D
:104BE00055245394C5E5D6E0482E689440F834E83F
:104BF000232E41E9E42E41E1F42E51E4C52E51E18A
:104C0000D52E60E3662E61E1762E72ECA72E71E15F
:104C1000B72E3092BC008091BC0087FFFCCF809102
:104C2000B900887F8093060B803129F08833F1F139
:104C3000883009F048C09F928F925F92DF93CF93A4
:104C40000E949B134092BB002092BC000F900F90DB
:104C50000F900F900F908091BC0087FFFCCF809148
:104C6000B900887F8093060B1F928F93FF92EF927B
:104C70005F92DF93CF930E949B138091060B2DB719
:104C80003EB7295F3F4F0FB6F8943EBF0FBE2DBF12
:104C9000803461F1883409F4A0C0883309F0B5C0CC
:104CA0007F926F925F92DF93CF9305C0BF92AF92D6
:104CB0005F92DF93CF930E949B130F900F900F9002
:104CC0000F900F90A6CF84EA91E19F938F9384E099
:104CD0008F9385E596E09F938F930E949B130F908F
:104CE0000F900F900F900F908FEF63C081E791E1CD
:104CF0009F938F935F92DF93CF930E949B1384E8DF
:104D00008093BC000F900F900F900F900F908091A8
:104D1000BC0087FFFCCF8091B900887F8093060B91
:104D20001F928F9385E091E19F938F9311E01F93E2
:104D3000C5E5D6E0DF93CF930E949B138091060BCD
:104D40002DB73EB7295F3F4F0FB6F8943EBF0FBE59
:104D50002DBF803589F0883509F066C084EE90E17A
:104D60009F938F931F93DF93CF930E949B130F907A
:104D70000F900F900F900F90C091BB001F92CF9398
:104D800086EC90E19F938F9381E08F9385E596E089
:104D90009F938F930E949B132DB73EB7295F3F4F80
:104DA0000FB6F8943EBF0FBE2DBF84E98093BC00C0
:104DB0008C2F9FEFDF91CF911F910F91FF90EF907C
:104DC000DF90CF90BF90AF909F908F907F906F902B
:104DD0005F904F903F902F9008951F930F93DF9215
:104DE000CF925F92DF93CF930E949B130F5F1F4F71
:104DF0008DB79EB707960FB6F8949EBF0FBE8DBFB6
:104E00000B30110509F470CF04CF88E191E19F9335
:104E10008F9384E08F93DF93CF930E949B130F9027
:104E20000F900F900F900F90CFEFBFCF2F923F9228
:104E30004F925F926F927F928F929F92AF92BF92AA
:104E4000CF92DF92EF92FF920F931F93CF93DF9356
:104E50000F920F92CDB7DEB78983E62E880F8A8333
:104E600001E010E082EB282E80E1382EFF24F3943D
:104E700090E7492E90E1592E2AE1622E20E1722E10
:104E800039E0832E30E1932E4EEDC42E4FE0D42E28
:104E900051EAA52E50E1B52E24EA2093BC00809162
:104EA000BC0087FFFCCF8091B900887F8093060B00
:104EB000803131F0883309F4ABC0883009F0B7C0D5
:104EC0003F922F92FF9285E596E09F938F930E94E9
:104ED0009B133A813093BB0084E88093BC000F9011
:104EE0000F900F900F900F908091BC0087FFFCCF28
:104EF0008091B900887F8093060B1F928F935F92F9
:104F00004F92FF9225E536E03F932F930E949B132B
:104F10008091060B0FB6F894DEBF0FBECDBF803276
:104F200009F498C0883309F4AEC0883109F0B3C0E1
:104F300080E590E19F938F93FF9285E596E09F93A4
:104F40008F930E949B13E092BB0034E83093BC0027
:104F50000F900F900F900F900F908091BC0087FFE3
:104F6000FCCF8091B900887F8093060B1F928F93AE
:104F7000DF92CF92FF9285E596E09F938F930E94F8
:104F80009B138091060B0FB6F894DEBF0FBECDBF0A
:104F9000803329F1883309F47FCF883209F08CC03F
:104FA0001F921F9284EC9FE09F938F93FF9285E561
:104FB00096E09F938F930E949B131F92EF9285EA36
:104FC0009FE09F938F93FF9285E596E09F938F9349
:104FD0000E949B130FB6F894DEBF0FBECDBF80E0DA
:104FE00094E99093BC000F900F90DF91CF911F91A7
:104FF0000F91FF90EF90DF90CF90BF90AF909F9078
:105000008F907F906F905F904F903F902F9008957A
:10501000BF92AF92FF9225E536E03F932F930E9417
:105020009B130F900F900F900F900F9035CF83E848
:1050300090E19F938F9384E08F9385E596E09F9313
:105040008F930E949B130F900F900F900F900F90D3
:105050008FEFC9CF1F930F931F9289818F937F92F8
:105060006F92FF9225E536E03F932F930E949B13AA
:105070000F5F1F4F0FB6F894DEBF0FBECDBF0B30D2
:10508000110531F309CF9F928F92FF9285E596E04B
:105090009F938F93C4CF81EF9FE09F938F9384E082
:1050A0008F9385E596E09F938F930E949B130F90BB
:1050B0000F900F900F900F908FEF92CF60E00E94B3
:1050C000162784E70E94D52599279F938F9387EE13
:1050D00091E19F938F9381E08F9385E596E09F9375
:1050E0008F930E949B138DB79EB707960FB6F894C7
:1050F0009EBF0FBE8DBF80E0089521E030E0A90182
:1051000002C0440F551F6A95E2F7BA010C941627A6
:105110008F929F92AF92BF92CF92DF92EF92FF92C7
:105120000F931F93CF93DF9300D0CDB7DEB76C0101
:105130008AEA89831A821B8280E0F6011995FFE0D2
:10514000FA95F1F7F12CE12C10E001E080E8A82EAF
:1051500082E1B82E90EE892E93E0992EE1104AC09C
:1051600089810E941A1B182F803481F01F920F939F
:105170001F928F93BF92AF920F939F928F920E9434
:105180009B130FB6F894DEBF0FBECDBF9FEFE91A99
:10519000F90AE3E0EE16F10409F781E0F60119954A
:1051A00080E01034B9F01F9281E08F931F921F931B
:1051B0008CE592E19F938F9384E08F9380EE93E050
:1051C0009F938F930E949B130FB6F894DEBF0FBE80
:1051D000CDBF8FEF0F900F900F90DF91CF911F9168
:1051E0000F91FF90EF90DF90CF90BF90AF909F9086
:1051F0008F900895E1E0F0E0EC0FFD1FEE0DFF1D34
:1052000080810E941A1BC2CF6F927F928F929F92D1
:10521000AF92BF92CF92DF92EF92FF920F931F93C4
:10522000CF93DF9300D00F920F92CDB7DEB76C0112
:105230007B0119821A821B821C8280E0F60119957B
:10524000FFE0FA95F1F703E010E021E02D83712CE7
:10525000662463949BE3A92E92E1B92E20EE822E60
:1052600023E0922E033009F07EC030E4731609F477
:1052700072C080EF0E941A1B782E1C8280E4781680
:1052800009F46EC01F926F921F927F92BF92AF92ED
:105290006F929F928F920E949B130FB6F894DEBF7D
:1052A0000FBECDBFF2E0FD8301501109D8F681E0B9
:1052B000F60119950981DA80CB80BC80F701008363
:1052C000D182C282B382F0E410E07F16D1F02D814A
:1052D0002150330BC9019F932F931F927F928AE134
:1052E00092E19F938F9384E08F9380EE93E09F935E
:1052F0008F930E949B130FB6F894DEBF0FBECDBFF5
:105300001FEFBF92CF92DF920F9386E092E19F93BF
:105310008F9381E08F9380EE93E09F938F930E9411
:105320009B130FB6F894DEBF0FBECDBF812F0F9039
:105330000F900F900F900F90DF91CF911F910F91D1
:10534000FF90EF90DF90CF90BF90AF909F908F90A5
:105350007F906F90089521E02D8380E4782EA4CF74
:1053600032E03D83FACF80E00E941A1BE1E0F0E0DA
:10537000EC0FFD1FE00FF11F808396CF2F923F921D
:105380004F925F926F927F928F929F92AF92BF9255
:10539000CF92DF92EF92FF920F931F93CF93DF9301
:1053A00000D000D00F92CDB7DEB76C837D83880F1D
:1053B0008B8369837A83EE24E394F12C0AE616E06A
:1053C0002FEC422E24E1522E30E1632E35E1732E74
:1053D00044EAA42E44E1B42E58E8852E54E1952EDB
:1053E00084EA8093BC008091BC0087FFFCCF809151
:1053F000B900887F8093060B803131F0883309F43F
:1054000095C0883009F0A2C082E795E19F938F9301
:1054100081E08F931F930F930E949B133B813093E6
:10542000BB0084E88093BC000F900F900F900F900A
:105430000F908091BC0087FFFCCF8091B900887FDE
:105440008093060B1F928F9380E395E19F938F9338
:10545000DD24D394DF921F930F930E949B138091BE
:10546000060B0FB6F894DEBF0FBECDBF803209F435
:1054700081C0883309F496C0883109F097C07F92C3
:105480006F92DF921F930F930E949B130F900F90C8
:105490000F900F900F90CC24C394D12C22242394EE
:1054A000CE82DF82E1E0F0E0EC0FFD1FEC0DFD1D90
:1054B00080818093BB0024E82093BC008091BC00D5
:1054C00087FFFCCF8091B900887F8093060B1F92E5
:1054D0008F93BF92AF922F921F930F930E949B13B3
:1054E0008091060B0FB6F894DEBF0FBECDBF8033A0
:1054F00009F488C0883309F473CF883209F065C095
:105500003F813F938E818F939F928F922F921F9313
:105510000F930E949B130FB6F894DEBF0FBECDBF52
:10552000CD2809F475C0D12CC12CBACF81E695E104
:105530009F938F9381E08F931F930F930E949B13F0
:105540000F900F900F900F900F904ACF83E495E14A
:105550009F938F9384E08F938AE696E09F938F9337
:105560000E949B130F900F900F900F900F90332479
:105570003A942EC0FF92EF9280EE94E19F938F9326
:10558000DF921F930F930E949B133FEFE31AF30ADE
:105590000FB6F894DEBF0FBECDBF9BE0E916F10455
:1055A00031F31ECF5F924F92DF92C6CF87EB94E12B
:1055B0009F938F9384E08F931F930F930E949B136D
:1055C0000F900F900F900F900F9084E98093BC0084
:1055D000832D27960FB6F894DEBF0FBECDBFDF91A7
:1055E000CF911F910F91FF90EF90DF90CF90BF90E0
:1055F000AF909F908F907F906F905F904F903F9073
:105600002F90089588E694E19F938F932F92D4CFA3
:1056100084EA8093BC008091BC0087FFFCCF80911E
:10562000B900887F8093060B803129F0883309F414
:10563000D7CE883051F68BE494E19F938F9381E02D
:105640008F931F930F930E949B138B818160809394
:10565000BB0084E88093BC000F900F900F900F90D8
:105660000F908091BC0087FFFCCF8091B900887FAC
:105670008093060B1F928F9388E394E19F938F93FF
:1056800081E08F931F930F930E949B138091060BD1
:105690000FB6F894DEBF0FBECDBF883309F4A0CE9D
:1056A000803409F092CF84E88093BC008091BC00E4
:1056B00087FFFCCF8091B900887F8093060B1F92F3
:1056C0008F9385E294E19F938F93FF24F394FF924D
:1056D0000AE616E01F930F930E949B138091060B1E
:1056E0000FB6F894DEBF0FBECDBF803589F0883588
:1056F00009F06BCF84E094E19F938F93FF921F9307
:105700000F930E949B130F900F900F900F900F908C
:105710003090BB003D813F938C818F931F923F92CD
:105720008BEE93E19F938F9381E08F938AE696E0CF
:105730009F938F930E949B130FB6F894DEBF0FBE0A
:10574000CDBF43CF2F923F924F925F926F927F9245
:105750008F929F92AF92BF92CF92DF92EF92FF9281
:105760000F931F93CF93DF9300D000D00F920F922F
:10577000CDB7DEB76C837D834B83880F8E836983BF
:105780007A83EE24E394F12C0AE616E025E4222E37
:1057900023E1322E34E3432E33E1532E45E7642ECA
:1057A00043E1742E59E0A52E53E1B52E6DEE862E01
:1057B00062E1962E84EA8093BC008091BC0087FF52
:1057C000FCCF8091B900887F8093060B803131F047
:1057D000883309F495C0883009F0A2C087ED93E1C1
:1057E0009F938F9381E08F931F930F930E949B133E
:1057F0003E813093BB0084E88093BC000F900F90F3
:105800000F900F900F908091BC0087FFFCCF80918C
:10581000B900887F8093060B1F928F9385E993E1EF
:105820009F938F93DD24D394DF921F930F930E9455
:105830009B138091060B0FB6F894DEBF0FBECDBF51
:10584000803209F480C0883309F493C0883109F0AC
:1058500094C07F926F92DF921F930F930E949B13CD
:105860000F900F900F900F900F90CC24C394D12CD9
:10587000CF82D886E1E0F0E0EC0FFD1FEC0DFD1DBE
:1058800080818093BB0024E82093BC008091BC0001
:1058900087FFFCCF8091B900887F8093060B1F9211
:1058A0008F93BF92AF9231E03F931F930F930E946B
:1058B0009B138091060B0FB6F894DEBF0FBECDBFD1
:1058C000803309F4B5C0883309F474CF883209F005
:1058D00063C038853F938F818F939F928F9291E021
:1058E0009F931F930F930E949B130FB6F894DEBFF4
:1058F0000FBECDBFCD2809F451C0D12CC12CB8CFDB
:1059000086EC93E19F938F9381E08F931F930F9386
:105910000E949B130F900F900F900F900F904ACF03
:1059200088EA93E19F938F9384E08F938AE696E0D1
:105930009F938F930E949B130F900F900F900F9047
:105940000F908FEF79C0FF92EF923F922F92DF92EC
:105950001F930F930E949B133FEFE31AF30A0FB6B6
:10596000F894DEBF0FBECDBF9BE0E916F10449F30A
:1059700021CF5F924F92DF92C9CF8CE193E19F9349
:105980008F9384E08F931F930F930E949B130F902C
:105990000F900F900F900F908FEF4BC03B81309383
:1059A000BB0084E88093BC008091BC0087FFFCCFE3
:1059B0008091B900887F8093060B1F928F938AEDA8
:1059C00092E19F938F93DD24D394DF921F930F93E3
:1059D0000E949B138091060B0FB6F894DEBF0FBE9A
:1059E000CDBF803329F1883309F4E4CE8832A1F6A3
:1059F0001F921F9280EC92E19F938F93DF921F93EF
:105A00000F930E949B133D813F938C818F931F9234
:105A10009B819F9384EA92E19F938F93DF921F93E0
:105A20000F930E949B130FB6F894DEBF0FBECDBF3D
:105A300080E094E99093BC0028960FB6F894DEBFFE
:105A40000FBECDBFDF91CF911F910F91FF90EF90CF
:105A5000DF90CF90BF90AF909F908F907F906F908E
:105A60005F904F903F902F900895E0E6F0E08081A6
:105A70008860808388E19FE00FB6F894A8958093B2
:105A800060000FBE9093600080E00895813621F0A1
:105A9000823681F08FEF089580E00E94283761E020
:105AA00081E70E94162791E0811101C090E0892FC3
:105AB0008195089581E0F1CF1F93CF93DF93D62F87
:105AC000172F0E94462DC82F412F61E070E080E51E
:105AD0000E94A22B4D2F70E060E080E50E94A22B77
