:100000000C94FF0D0C94200E0C94200E0C94200EDA
:100010000C94200E0C94200E0C94200E0C94200EA8
:100020000C94200E0C94200E0C94200E0C94200E98
:100030000C94200E0C94200E0C94200E0C94200E88
:100040000C94200E0C94200E0C94200E0C94641B27
:100050000C94200E0C94200E0C94200E0C94200E68
:100060000C94200E0C94220E0C94200E0C94200E56
:100070000C94200E0C94200E0C94200E0C94200E48
:100080000C94200E0C94200E0C94200E0C94200E38
:100090000C94200E0C94200E0C94200E0C94200E28
:1000A0000C94200E0C94200E0C94200E0C94200E18
:1000B0000C94200E0C94200E0C94200E0C94200E08
:1000C0000C94200E0C94200E0C94200E0C94200EF8
:1000D0000C94200E0C94200E0C94200E0C94200EE8
:1000E0000C94200E0C940B140C9481180C94133265
:1000F0000C94FB2F0C94F42C0C9497190C94EC2F6B
:100100000C9456200C94A32E0C948A1A0C94D72E7F
:100110000C9430120C949C180C942C200C945F2F8F
:100120000C9423200C94FA320C945C200C94E72C51
:100130000C94072F0C9494300C94DF300C94E6311F
:100140000C9420200C94B9120C9409300C94492F73
:100150000C941A200C943D210C941D200C944720E3
:100160000C94332F0C9426200C941C320C94E83001
:100170000C941D2F0C9457210C94B7170C94752FC9
:100180000C9453200C94EB370C9450200C944D207D
:100190000C940E210C94C2170C9403300C94862EF0
:1001A0000C94F12E0C94E42E0C94B32D0C94AC1CF6
:1001B0000C94F52F0C94A12F0C94B9310C94B537F5
:1001C0000C9406300C94DC300C9440370C942920AD
:1001D0000C94CD300C94B7180C94AE180C94592094
:1001E0000C946E310C94EB300C9416200C946E2110
:1001F0000C94BD2E0C94A2200C94D3370C948B2F0E
:100200000C94CA2E0C9423310C94D9300C94D42D18
:100210000C94EE300C94E2300C94A5180C94962EAD
:100220000C94F82F0C94A21C0C94FE2F0C94A01A82
:100230000C945D150C94D7130C9471400C94B02E53
:100240000C944A206E616E00696E660000407A1060
:10025000F35A00A0724E18090010A5D4E80000E877
:100260007648170000E40B54020000CA9A3B0000D5
:1002700000E1F505000080969800000040420F0064
:100280000000A08601000000102700000000E80325
:10029000000000006400000000000A0000000000F0
:1002A0000100000000002C76D888DC674F0823DFAF
:1002B000C1DFAE59E1B1B796E5E3E453C63AE65182
:1002C000997696E8E6C28426EB898C9B62ED407CA9
:1002D0006FFCEFBC9C9F40F2BAA56FA5F490055A45
:1002E0002AF75C936B6CF9676DC11BFCE0E40D476A
:1002F000FEF520E6B500D0ED902E0300943577058D
:100300000080841E080000204E0A000000C80C3344
:100310003333330F986E12831141EF8D2114893BD3
:10032000E65516CFFEE6DB18D1844B381BF77C1D53
:10033000901DA4BBE424203284725E228100C9F1A6
:1003400024ECA1E53D275265636569766564206309
:100350006861726163746572206E756D626572208A
:1003600061626F7665206C696D6974002563202079
:100370003C2D2D20636F7069656420746F20726559
:100380006365697665206275666665722E20205207
:100390006563656976656420636F756E7420697343
:1003A000202564005061727365206275666665720F
:1003B00020636F6E7461696E732027257327004375
:1003C0006F6D6D616E642070726F636573732073FF
:1003D00070656564206572726F7221005265636595
:1003E00069766564206120636F6D6D616E64207451
:1003F00065726D696E61746F720042616420737919
:100400007374656D2073746174652025640046699A
:10041000726D776172652076657273696F6E20699F
:1004200073202573004E6F2068616E646C657220C6
:1004300073706563696669656420666F72202573F1
:1004400020617267756D656E742E00457865637501
:1004500074696E6720636F6D6D616E642077697477
:1004600068207369676E656420696E7420617267C5
:10047000756D656E742E00457865637574696E6779
:1004800020636F6D6D616E64207769746820756E8E
:100490007369676E656420696E7420617267756D3B
:1004A000656E742E0054686520617267756D656EA7
:1004B000742076616C75652069732025752E004562
:1004C0007865637574696E6720636F6D6D616E64C6
:1004D00020776974682068657820617267756D653A
:1004E0006E742E00457865637574696E6720636F5E
:1004F0006D6D616E642077697468206E6F20617223
:1005000067756D656E742E00556E7265636F676EEC
:10051000697A656420636F6D6D616E643A2027258A
:1005200073272E0049676E6F72696E67206172676C
:10053000756D656E7420666F7220636F6D6D616E90
:100540006420272573272E00417267756D656E74D0
:1005500020746F20272573272069732077697468BA
:10056000696E206C696D6974732E00417267756DD8
:10057000656E7420746F2027257327206973206FA0
:100580007574206F662072616E67652E00436F6D13
:100590006D616E642027257327207265636F676E17
:1005A000697A65642E0054686520636F6D6D616EB5
:1005B00064277320617267756D656E74206973209E
:1005C000272573272E0054686520636F6D6D616E5B
:1005D0006420636F6E7461696E7320612073706153
:1005E00063652E00546865207061727365206275C2
:1005F00066666572206973206C6F636B65642E009C
:10060000417267756D656E742073697A65206973D0
:100610002025640053797374656D202573206E6FF7
:100620007420666F756E64004E6F77206C6F67671D
:10063000696E672073797374656D20257300257565
:100640000D0A004C6F6767657220656E61626C65AC
:100650002072656769737465722073657420746FA6
:100660002025752E004C6F67206C6576656C202503
:1006700075206973206E6F74207265636F676E6991
:100680007A65642E004C6F6767696E6720736574C6
:1006900020746F206C6576656C202569004E6F2094
:1006A000636F6E6E656374696F6E00456E7465721C
:1006B0002073687574646F776E2066726F6D206248
:1006C00061642073797374656D207374617465203F
:1006D0002564005374617465206368616E676520EA
:1006E0005354414E44425920746F2053485554444A
:1006F0004F574E00456E746572204944454E54492B
:1007000046592066726F6D2062616420737973743C
:10071000656D207374617465202564005374617481
:1007200065206368616E6765205354414E444259A9
:1007300020746F204944454E544946592E414D423C
:1007400049454E5400456E74657220636C65616E58
:100750002066726F6D206261642073797374656DB9
:1007600020737461746520256400466F7262696449
:1007700064656E207374617465206368616E67657B
:100780002053485554444F574E20746F20434F4ECA
:1007900054524F4C005374617465206368616E67F6
:1007A0006520434F4E54524F4C20746F20434C45AC
:1007B000414E005374617465206368616E67652003
:1007C0005354414E44425920746F20434C45414E8E
:1007D00000456E74657220636F6E74726F6C206674
:1007E000726F6D206261642073797374656D20731C
:1007F00074617465202564005374617465206368B6
:10080000616E676520434C45414E20746F20434F15
:100810004E54524F4C005374617465206368616E8E
:100820006765205354414E44425920746F20434F12
:100830004E54524F4C00466F7262696464656E207C
:100840007374617465206368616E676520534855F1
:1008500054444F574E20746F20434F4E54524F4CC8
:1008600000456E746572207374616E6462792066EF
:10087000726F6D206261642073797374656D20738B
:100880007461746520256400537461746520636825
:10089000616E6765204944454E5449465920746F3E
:1008A000205354414E44425900537461746520638F
:1008B00068616E676520434C45414E20746F20533C
:1008C00054414E4442590053746174652063686119
:1008D0006E676520434F4E54524F4C20746F205327
:1008E00054414E44425900466F7262696464656EB9
:1008F000207374617465206368616E676520534876
:100900005554444F574E20746F205354414E444227
:1009100059005374617465206368616E676520498E
:100920004E495420746F205354414E444259004361
:100930006F6D6D20636865636B207461736B2069F4
:1009400064206E6F7420666F756E6400436F6D6D0A
:1009500020636865636B207461736B206964206930
:1009600073202569005665726E6F6E20736572691B
:10097000616C206E756D6265722069732025690057
:10098000546F70617A20422073657269616C206EC9
:10099000756D62657220697320256900546F7061FE
:1009A0007A20412073657269616C206E756D626595
:1009B00072206973202569005069636172726F2C1F
:1009C000426F7865722C534E25752C2573004C6F41
:1009D0006164696E6720736C6F74204944202575CB
:1009E0000057726974696E6720736C6F7420494494
:1009F000202575004C6F6164696E672073657269AC
:100A0000616C206E756D6265722025750057726984
:100A100074696E672073657269616C206E756D62B2
:100A20006572202575005265616420256920667213
:100A30006F6D20616464726573732025690057725D
:100A40006F746520256920746F206164647265731A
:100A5000732025690052656164203078257800573D
:100A6000726F74652030782578004661696C656422
:100A700020746F20736574206D6173746572206DCE
:100A80006F64650053504920636F6E74726F6C2001
:100A90007265676973746572206973203078257890
:100AA00000496E697469616C697A696E67206D6569
:100AB00074726F6E6F6D650057726F746520307859
:100AC00025780057726F7465203078257800536C54
:100AD0006176652041434B656420646174612062E6
:100AE0007974652025752E005457492073746174FC
:100AF0007573206973203078257800536C617665B2
:100B00002041434B656420696E7374727563746928
:100B10006F6E2030782578005457492073746174C3
:100B20007573206973203078257800436F756C6485
:100B3000206E6F742073656C6563742064657669DC
:100B40006365004172626974726174696F6E206CD2
:100B50006F737400534C412B57207472616E736D28
:100B600069747465642C204E41434B207265636543
:100B700069766564206166746572202575207472DB
:100B800069657300534C412B57207472616E736D0D
:100B900069747465642C2041434B207265636569F8
:100BA00076656400545749207374617475732069C5
:100BB00073203078257800436F756C64206E6F74F5
:100BC0002073657420737461727420636F6E64693E
:100BD00074696F6E004172626974726174696F6EDC
:100BE000206C6F737400537461727420636F6E6451
:100BF0006974696F6E2073657400546F70617A2038
:100C00002563206973206E6F7420636F6E6E656359
:100C100074656400546F70617A20256320697320C5
:100C20006E6F7420636F6E6E656374656400546FDD
:100C300070617A202563206973206E6F7420636F62
:100C40006E6E656374656400546F70617A2025630D
:100C5000206973206E6F7420636F6E6E65637465B8
:100C60006400493243206D757820746F20546F7092
:100C7000617A2041004368616E6E656C2073657413
:100C800074696E672069732025690057726F7465F7
:100C9000203078257820746F2072656769737465D9
:100CA00072203078257820617420616464726573E5
:100CB00073203078257800536C6176652041434B72
:100CC0006564206461746120627974652025752EE5
:100CD0000054574920737461747573206973203010
:100CE00078257800536C6176652041434B6564201C
:100CF00061646472657373203078257800545749B5
:100D000020737461747573206973203078257800BE
:100D1000436F756C64206E6F742073656C656374CB
:100D200020646576696365004172626974726174FA
:100D3000696F6E206C6F737400534C412B57207495
:100D400072616E736D69747465642C204E41434BFF
:100D500020726563656976656420616674657220DA
:100D6000257520747269657300534C412B572074AC
:100D700072616E736D69747465642C2041434B20FD
:100D800072656365697665640054574920737461C0
:100D9000747573206973203078257800436F756C03
:100DA00064206E6F74207365742073746172742094
:100DB000636F6E646974696F6E0041726269747208
:100DC0006174696F6E206C6F737400537461727418
:100DD00020636F6E646974696F6E2073657400526E
:100DE0006561642025752066726F6D207265676984
:100DF00073746572202575004E41434B2072656304
:100E000065697665642061667465722064617461E9
:100E1000207265717565737400545749207374614D
:100E200074757320697320307825780054574920F1
:100E3000737461747573206973203078257800535A
:100E40006574207265706561746564207374617285
:100E50007420636F6E646974696F6E0044617461BD
:100E6000207472616E736D69747465642C204E41D8
:100E7000434B207265636569766564004461746103
:100E8000207472616E736D69747465642C204143C3
:100E90004B20726563656976656400545749207319
:100EA0007461747573206973203078257800436FFE
:100EB000756C64206E6F742073656C656374206458
:100EC0006576696365004172626974726174696F05
:100ED0006E206C6F737400534C412B5720747261F9
:100EE0006E736D69747465642C204E41434B20729F
:100EF0006563656976656420616674657220257531
:100F000020747269657300534C412B5720747261D1
:100F10006E736D69747465642C2041434B20726557
:100F2000636569766564005457492073746174750C
:100F300073206973203078257800436F756C6420C6
:100F40006E6F742073657420737461727420636FA4
:100F50006E646974696F6E00417262697472617463
:100F6000696F6E206C6F73740053657420737461C5
:100F7000727420636F6E646974696F6E0057726F6C
:100F80007465203078257820746F20636F6E7472DA
:100F90006F6C20726567697374657200536C61765B
:100FA000652041434B6564206461746120627974FB
:100FB000652025752E00545749207374617475732C
:100FC000206973203078257800436F756C64206E3B
:100FD0006F742073656C65637420646576696365FE
:100FE000004172626974726174696F6E206C6F7314
:100FF0007400534C412B572073656E742C20676F1F
:1010000074204E41434B2066726F6D2061646472A0
:1010100065737320307825782061667465722025A9
:101020007520747269657300534C412B572074729C
:10103000616E736D69747465642C2041434B20723A
:1010400065636569766564005457492073746174FB
:101050007573206973203078257800436F756C6450
:10106000206E6F74207365742073746172742063D2
:101070006F6E646974696F6E004172626974726147
:1010800074696F6E206C6F73740053746172742096
:10109000636F6E646974696F6E2073657400526566
:1010A00061642025752066726F6D20636F6E7472A7
:1010B0006F6C207265676973746572004E41434BB3
:1010C0002072656365697665642061667465722067
:1010D0006461746120726571756573740054574959
:1010E00020737461747573206973203078257800DB
:1010F000436F756C64206E6F742073656C656374E8
:101100002064657669636500417262697472617416
:10111000696F6E206C6F737400534C412B522074B6
:1011200072616E736D69747465642C204E41434B1B
:1011300020726563656976656420616674657220F6
:10114000257520747269657300534C412B522074CD
:1011500072616E736D69747465642C2041434B2019
:1011600072656365697665640054574920737461DC
:10117000747573206973203078257800436F756C1F
:1011800064206E6F742073657420737461727420B0
:10119000636F6E646974696F6E0041726269747224
:1011A0006174696F6E206C6F737400536574207383
:1011B0007461727420636F6E646974696F6E00434A
:1011C0006F6E74726F6C20726567697374657220DC
:1011D000636F6E7461696E73203078257800507289
:1011E00065737375726520636F6465203078256C54
:1011F00078004D50522072656164202D2D3E2030C4
:10120000782578206166746572202569207472697A
:101210006573004D50522072656164202D2D3E2073
:101220003078257820616674657220256920747293
:10123000696573004D50522074726967676572204A
:101240002D2D3E203078257820616674657220252A
:1012500069207472696573004D5052207472696719
:10126000676572202D2D3E203078257820616674C8
:1012700065722025692074726965730057726F74F6
:1012800065203078257820746F20726567697374E3
:101290006572203078257800536C61766520414373
:1012A0004B656420646174612062797465202575E2
:1012B0002E0054574920737461747573206973202C
:1012C0003078257800536C6176652041434B656426
:1012D000206164647265737320627974652025757A
:1012E00000545749207374617475732069732030FA
:1012F00078257800436F756C64206E6F7420736579
:101300006C65637420646576696365004172626927
:1013100074726174696F6E206C6F737400534C410A
:101320002B57207472616E736D69747465642C2020
:101330004E41434B20726563656976656420616642
:1013400074657220257520747269657300534C4171
:101350002B57207472616E736D69747465642C20F0
:1013600041434B2072656365697665640054574953
:101370002073746174757320697320307825780048
:10138000436F756C64206E6F742073657420737482
:1013900061727420636F6E646974696F6E0041726C
:1013A000626974726174696F6E206C6F737400533C
:1013B0007461727420636F6E646974696F6E2073F8
:1013C000657400526561642025752066726F6D201A
:1013D0007265676973746572202575004E41434BD1
:1013E0002072656365697665642061667465722044
:1013F0006461746120726571756573740054574936
:1014000020737461747573206973203078257800B7
:101410005457492073746174757320697320307850
:101420002578005365742072657065617465642069
:10143000737461727420636F6E646974696F6E0097
:1014400044617461207472616E736D697474656453
:101450002C204E41434B20726563656976656400BC
:10146000536C6176652041434B656420616464720E
:10147000657373206279746520257500545749207F
:101480007374617475732069732030782578004314
:101490006F756C64206E6F742073656C6563742067
:1014A000646576696365004172626974726174692A
:1014B0006F6E206C6F737400534C412B5720747205
:1014C000616E736D69747465642C204E41434B20CA
:1014D000726563656976656420616674657220254E
:1014E0007520747269657300534C412B57207472D8
:1014F000616E736D69747465642C2041434B207276
:101500006563656976656400545749207374617436
:101510007573206973203078257800436F756C648B
:10152000206E6F742073657420737461727420630D
:101530006F6E646974696F6E004172626974726182
:1015400074696F6E206C6F737400536574207374CC
:1015500061727420636F6E646974696F6E00466FA8
:10156000756E642073657269616C20257520666FE5
:101570007220626F61726420256300546F70617A1B
:10158000202563206973206E6F7420636F6E6E6513
:101590006374656400546F70617A202563206973F9
:1015A000206E6F7420636F6E6E65637465640054A3
:1015B0006F70617A202563206973206E6F742063D9
:1015C0006F6E6E656374656400436F6E76657274EA
:1015D0006564207072657373757265206973202568
:1015E0006C752050617363616C7300436F6E766538
:1015F00072746564207072657373757265206973A7
:1016000020256C752050617363616C7300536B69A6
:101610007070696E6720756E636F6E6E656374655A
:101620006420546F70617A20256320726561647351
:1016300000536B697070696E6720756E636F6E6EB4
:10164000656374656420546F70617A20256320722D
:10165000656164730052656164696E6720546F70E0
:10166000617A202563206F75746C65740052656122
:1016700064696E67206368616E6E656C20257520F5
:10168000696E6C657400536B697070696E67207564
:101690006E636F6E6E656374656420546F70617AFB
:1016A00020256320747269676765727300536B69E4
:1016B0007070696E6720756E636F6E6E65637465BA
:1016C0006420546F70617A202563207472696767A3
:1016D0006572730054726967676572696E6720543A
:1016E0006F70617A202563206F75746C6574005487
:1016F000726967676572696E67206368616E6E659F
:101700006C20257520696E6C65740050726573736A
:101710007572652072656164207461736B20696401
:10172000206E6F7420666F756E64005072657373FF
:101730007572652072656164207461736B206964E1
:101740002069732025690050726573737572652076
:1017500074726967676572207461736B20696420B5
:101760006E6F7420666F756E64005072657373756A
:1017700072652074726967676572207461736B208B
:101780006964206973202569005665726E6F6E204A
:101790006973206E6F7420636F6E6E656374656429
:1017A000005665726E6F6E204750494F206F7574FA
:1017B000707574206279746520697320307825789B
:1017C00000436F6E6E656374656420746F205665A8
:1017D000726E6F6E005665726E6F6E206973206E4A
:1017E0006F7420636F6E6E6563746564005768691B
:1017F000746669656C642049324320737769746349
:101800006820746F206368616E6E656C20320057CB
:101810006869746669656C6420493243207377692E
:101820007463682070726F626C656D005665726ECD
:101830006F6E2074656D70206973202569204300E8
:101840005665726E6F6E206973206E6F7420636FC1
:101850006E6E6563746564004661696C65642074CE
:101860006F2073657420493243206D7578004932CA
:1018700043206D757820746F205665726E6F6E0010
:10188000493243206D757820746F20546F70617AEF
:10189000204200493243206D757820746F20546FC8
:1018A00070617A20410057726F7465203078257816
:1018B00000436C656172696E6720626C7565204CCF
:1018C00045447300554353523243206973203078A6
:1018D00025780055435352324220697320307825D1
:1018E000780045786974207461736B206964206E98
:1018F0006F7420666F756E6400457869742074613A
:10190000736B2069642069732025690057726F74B6
:1019100065203078257820746F207265676973744C
:101920006572203078257820617420616464726566
:101930007373203078257800536C617665204143BD
:101940004B6564206461746120627974652025753B
:101950002E00545749207374617475732069732085
:101960003078257800536C6176652041434B65647F
:101970002061646472657373203078257800545751
:1019800049207374617475732069732030782578E9
:1019900000436F756C64206E6F742073656C6563B3
:1019A000742064657669636500417262697472616E
:1019B00074696F6E206C6F737400534C412B572009
:1019C0007472616E736D69747465642C204E41434A
:1019D0004B20726563656976656420616674657223
:1019E00020257520747269657300534C412B572074
:1019F0007472616E736D69747465642C2041434B1D
:101A00002072656365697665640054574920737474
:101A100061747573206973203078257800436F7581
:101A20006C64206E6F7420736574207374617274BB
:101A300020636F6E646974696F6E004172626974CD
:101A4000726174696F6E206C6F737400537461728D
:101A50007420636F6E646974696F6E2073657400BF
:101A6000526561642025752066726F6D207265670E
:101A70006973746572202575004E41434B20726571
:101A8000636569766564206166746572206461745B
:101A900061207265717565737400545749207374C1
:101AA0006174757320697320307825780054574924
:101AB0002073746174757320697320307825780001
:101AC0005365742072657065617465642073746118
:101AD000727420636F6E646974696F6E0044617420
:101AE00061207472616E736D69747465642C204E2C
:101AF00041434B2072656365697665640044617497
:101B000061207472616E736D69747465642C204118
:101B1000434B2072656365697665640054574920BC
:101B2000737461747573206973203078257800436D
:101B30006F756C64206E6F742073656C65637420C0
:101B40006465766963650041726269747261746983
:101B50006F6E206C6F737400534C412B572074725E
:101B6000616E736D69747465642C204E41434B2023
:101B700072656365697665642061667465722025A7
:101B80007520747269657300534C412B5720747231
:101B9000616E736D69747465642C2041434B2072CF
:101BA0006563656976656400545749207374617490
:101BB0007573206973203078257800436F756C64E5
:101BC000206E6F7420736574207374617274206367
:101BD0006F6E646974696F6E0041726269747261DC
:101BE00074696F6E206C6F73740053657420737426
:101BF00061727420636F6E646974696F6E00112482
:101C00001FBECFEFD1E2DEBFCDBF00E00CBF16E0BC
:101C1000A0E0B2E0EAE1F8E800E00BBF02C0079004
:101C20000D92A236B107D9F728E0A2E6B6E001C0CE
:101C30001D92A334B207E1F70E94AC3B0C94E3433E
:101C40000C9400001F920F920FB60F9211240BB646
:101C50000F92EF92FF920F931F932F933F934F9307
:101C60005F936F937F938F939F93AF93BF93CF9324
:101C7000DF93EF93FF93F894E0910002F09101025B
:101C80000488F589E02D8091C6008083E0910002F0
:101C9000F0910102A489B5898C918D3009F078C04A
:101CA0008CED93E09F938F931F92C1ECD3E0DF9371
:101CB000CF930E948313E0910002F09101020F90F4
:101CC0000F900F900F900F9084A5811102C078940F
:101CD00046C085A58823B9F08FEB93E09F938F933F
:101CE00084E08F93DF93CF930E948313809100024F
:101CF000909101020E944A0F78940F900F900F90DC
:101D00000F900F902CC00488F589E02D1082E09090
:101D10000002F090010287010A5E1F4FB701C8015F
:101D20000E948C4281E0F70185A71F930F9384EAFC
:101D300093E09F938F931F92DF93CF930E9483131F
:101D400080910002909101020E944A0F7894EDB7B1
:101D5000FEB737960FB6F894FEBF0FBEEDBFFF91EA
:101D6000EF91DF91CF91BF91AF919F918F917F9133
:101D70006F915F914F913F912F911F910F91FF9024
:101D8000EF900F900BBE0F900FBE0F901F90189505
:101D900084A58F5F84A71F928F938C911F928F933E
:101DA0008CE693E09F938F931F92C1ECD3E0DF9377
:101DB000CF930E948313E0910002F09101028DB74E
:101DC0009EB709960FB6F8949EBF0FBE8DBF84A52F
:101DD000833170F086E493E09F938F9384E08F9338
:101DE000DF93CF930E9483138CEF0E9423107ECF4A
:101DF000848995890196958B848B69CFCF93DF93E6
:101E0000FC0184E1DF01C82F1D92CA95E9F7F58B2B
:101E1000E48BDF015696ED0119928A95E9F7B3A795
:101E2000A2A714A615A6DF91CF9108950F931F9333
:101E3000CF93DF938B01FC01A2A5B3A5ED0109901F
:101E40000020E9F72197CA1BDB0BCE0199279F934E
:101E50008F9380E096E09F938F9382E08F9388EC3E
:101E600093E09F938F930E94831381E02DB73EB739
:101E7000295F3F4F0FB6F8943EBF0FBE2DBFF8014C
:101E800094819C1708F080E08195DF91CF911F919C
:101E90000F910895FC0184E1DF011D928A95E9F715
:101EA000F58BE48B14A60895BF92CF92DF92EF9248
:101EB000FF920F931F93CF93DF938C016B01EA0185
:101EC000DC011296FC9012971396EC9063E274E09A
:101ED0008F2D9E2D0E948342892B91F484EE94E0F5
:101EE0009F938F9382E08F9388EC93E09F938F93DF
:101EF0000E9483130F900F900F900F900F902FC0A0
:101F000068E274E08F2D9E2D0E948342892BB1F5EB
:101F10008FEB94E09F938F9382E0B82EBF9298EC62
:101F2000E92E93E0F92EFF92EF920E948313C601EF
:101F30000E94AD14888399839F938F9385EA94E0E0
:101F40009F938F93BF92FF92EF920E948313EDB7FE
:101F5000FEB73C960FB6F894FEBF0FBEEDBFD8019A
:101F60001596ED91FC91CE01DF91CF911F910F91CC
:101F7000FF90EF90DF90CF90BF9019946EE274E0E5
:101F80008F2D9E2D0E948342892B91F487E794E048
:101F90009F938F9382E08F9388EC93E09F938F932E
:101FA0000E948313C6010E94DE1499838883A2CF06
:101FB00065E374E08F2D9E2D0E948342892B91F45E
:101FC0008BE494E09F938F9382E08F9388EC93E06F
:101FD0009F938F930E948313C6010E94E0149B83FA
:101FE0008A8388CFEF92FF9285E294E09F938F934C
:101FF00084E08F9388EC93E09F938F930E948313E8
:10200000EDB7FEB737960FB6F894FEBF0FBEEDBF23
:10201000DF91CF911F910F91FF90EF90DF90CF90C4
:10202000BF9008958CE394E09F938F938EE394E0A8
:102030009F938F931F920E949F110F900F900F906C
:102040000F900F9008952CE334E03F932F93282FA7
:10205000082E000C330B3F938F9382E494E09F9300
:102060008F931F920E949F118DB79EB707960FB650
:10207000F8949EBF0FBE8DBF0895BF92CF92DF929E
:10208000EF92FF920F931F93CF93DF93EC018B019D
:102090008DA5882309F4F0C084EE95E09F938F937B
:1020A00022E0B22EBF9238ECC32E33E0D32EDF9263
:1020B000CF920E9483137E0126E1E20EF11C60E2C2
:1020C00070E0C7010E9478429BA78AA70F900F90EB
:1020D0000F900F900F90892B89F186EC95E09F93DC
:1020E0008F93BF92DF92CF920E948313EAA5FBA544
:1020F00010828AA59BA501969BA78AA70F900F9097
:102100000F900F900F90EAA5FBA580818032D1F14E
:10211000FF93EF9386EA95E09F938F9382E08F93EE
:1021200088EC93E09F938F930E9483138DB79EB7A3
:1021300007960FB6F8949EBF0FBE8DBFC7010E94D1
:10214000EB14F80185819681892B01F5FF92EF92BE
:1021500088E095E09F938F9384E08F9388EC93E0E1
:102160009F938F930E9483138FEF0E9423101DA6CD
:102170002DB73EB7295F3F4F0FB6F8943EBF0FBE55
:102180002DBF7AC03196FBA7EAA7BDCFF801D0805A
:10219000C1806D2D7C2DC7010E948342892B09F0DF
:1021A0009BC0CF92DF928DE895E09F938F9382E062
:1021B000D82EDF9298ECE92E93E0F92EFF92EF9261
:1021C0000E94831363E274E0F801828193810E948C
:1021D00083422DB73EB7295F3F4F0FB6F8943EBFFD
:1021E0000FBE2DBF892B09F451C0B801CE010E944A
:1021F000160FF80121819081882309F12F939F9375
:102200008BE695E09F938F9384E08F93FF92EF92FC
:102210000E9483132DB73EB7295F3F4F0FB6F89446
:102220003EBF0FBE2DBF8BEFDF91CF911F910F915E
:10223000FF90EF90DF90CF90BF900C9423102F93DE
:102240009F9388E495E09F938F93DF92FF92EF92A4
:102250000E94831340910202509103026AA57BA55C
:10226000C8010E94540F8DB79EB707960FB6F89419
:102270009EBF0FBE8DBF1DA6DF91CF911F910F9105
:10228000FF90EF90DF90CF90BF9008958AA59BA517
:10229000892BC1F0F80181818F9380818F9384E233
:1022A00095E09F938F9383E08F93FF92EF920E942C
:1022B00083132DB73EB7295F3F4F0FB6F8943EBF4B
:1022C0000FBE2DBF409102025091030270E060E00A
:1022D000C8010E94540FCFCF095F1F4F32CF8091AA
:1022E000C00087FFFCCF8091C6000895882319F0B5
:1022F000813041F008958091C00085FFFCCF60934C
:10230000C60008958091300185FFFCCF60933601AF
:1023100008950F931F93CF93DF93082FC62FD72FC6
:1023200016E9160F6991662329F0802F0E94761115
:102330001C13F8CFDF91CF911F910F910895CF9388
:10234000DF93CDB7DEB79E01275F3F4F4F815885A2
:1023500066E970E08FE897E00E9413436FE877E04A
:102360008E810E94891180E0DF91CF910895CF93F3
:10237000DF93CDB7DEB79E01275F3F4F4F81588572
:1023800066E970E08FE897E00E944C436FE877E0E1
:102390008E810E94891180E0DF91CF9108950F9383
:1023A0001F93CF93DF93082FEB01FE011491612F50
:1023B000802F0E94761121961111F7CFDF91CF91D6
:1023C0001F910F910895E0ECF0E080818D7F808374
:1023D0001092C50023E02093C400A1ECB0E098E186
:1023E0009C93E2ECF0E080818F73808380818F7C0E
:1023F00080838081877F808380818B7F80838081C1
:10240000866080838C9180688C93E0E3F1E080812A
:102410008D7F808310923501209334019093310198
:10242000E2E3F1E080818F73808380818F7C808301
:102430008081877F808380818B7F8083808186609D
:1024400080830895E0917803F09179038FEF9FEFF7
:10245000DC0180839183A283B38384E08483089525
:10246000809129088230E9F128F4882351F08130E5
:1024700001F10895833009F44CC0843009F461C03F
:1024800008958CE394E09F938F9389EB95E09F935D
:102490008F938DEB95E09F938F931F920E949F11D6
:1024A0008DB79EB707960FB6F8949EBF0FBE8DBF2F
:1024B00008958CE394E09F938F9382EC95E09F9333
:1024C0008F938DEB95E09F938F931F920E949F11A6
:1024D0008DB79EB707960FB6F8949EBF0FBE8DBFFF
:1024E00008958CE394E09F938F9388EC95E09F93FD
:1024F0008F938DEB95E09F938F931F920E949F1176
:102500008DB79EB707960FB6F8949EBF0FBE8DBFCE
:1025100008958CE394E09F938F938DEC95E09F93C7
:102520008F938DEB95E09F938F931F920E949F1145
:102530008DB79EB707960FB6F8949EBF0FBE8DBF9E
:1025400008958CE394E09F938F9385ED95E09F939E
:102550008F938DEB95E09F938F931F920E949F1115
:102560008DB79EB707960FB6F8949EBF0FBE8DBF6E
:102570000895E0917803F091790383818F938281AC
:102580008F9381818F9380818F938EE396E09F93C9
:102590008F931F920E94B7118DB79EB707960FB603
:1025A000F8949EBF0FBE8DBF0895E0917803F0911F
:1025B0007903108211821282138208959F938F9360
:1025C0008FE394E09F938F9381E08F930E949F11FC
:1025D0000F900F900F900F900F9008958F929F92F1
:1025E000AF92BF92CF92DF92FF920F931F93CF9340
:1025F000DF93CDB7DEB7E2970FB6F894DEBF0FBE1C
:10260000CDBF5C01F62E4A01C0907803D0907903CB
:102610000AE213E0F80160817181FB018081882367
:1026200009F445C0C5010E948342892B09F068C0A6
:10263000F8012281F60180819181A281B38104C0D9
:10264000B695A795979587952A95D2F780FF58C09C
:10265000F2E0FF1609F44EC0FF15D8F1FF2009F48F
:1026600043C081E0F81609F442C0F80181818F93DC
:1026700080818F938FEE95E09F938F931F9282E3DB
:102680008F938E010F5F1F4F1F930F930E94D642AF
:10269000C8010E94DE12C4010E94DE128CE394E0A5
:1026A0000E94DE120FB6F894DEBF0FBECDBFE296D9
:1026B0000FB6F894DEBF0FBECDBFDF91CF911F9153
:1026C0000F91FF90DF90CF90BF90AF909F908F9031
:1026D000089593E0F91689F0E4E08BEE95E0FE12A0
:1026E000C4CF0E94DE12C1CF8BED95E0FACF8FED03
:1026F00095E0F7CF83EE95E0F4CF87EE95E0F1CF4C
:102700000D5F1F4F87CF1F93CF93DF93CDB7DEB7FA
:10271000E2970FB6F894DEBF0FBECDBF1BADE091C0
:102720007803F091790380819181A281B381892B13
:102730008A2B8B2BB1F08481181798F09E01225CB4
:102740003F4F4CAD5DAD62E370E0CE0101960E945B
:102750004C43AE014F5F5F4F612F89AD9AAD0E9430
:10276000EE12E2960FB6F894DEBF0FBECDBFDF913A
:10277000CF911F910895E0917803F09179038483BC
:102780001F928F9385E896E09F938F9382E08F93BB
:102790008DE993E09F938F930E9483138DB79EB72B
:1027A00007960FB6F8949EBF0FBE8DBF0895FC012B
:1027B000808191818230910551F1E0F4009711F10F
:1027C0008130910511F19F938F9385E696E09F9359
:1027D0008F9384E08F938DE993E09F938F930E9472
:1027E00083138DB79EB707960FB6F8949EBF0FBEA2
:1027F0008DBF08958330910561F08430910519F7FC
:1028000084E001C080E00C94BB1381E0FCCF82E047
:10281000FACF83E0F8CFFC0180819181E0917803C9
:10282000F0917903AC0170E060E0408351836283F2
:1028300073839F938F9383E496E09F938F9382E0BB
:102840008F938DE993E09F938F930E9483138DB7AD
:102850009EB707960FB6F8949EBF0FBE8DBF089522
:10286000EF92FF920F931F93CF93DF93F82EE92EF1
:102870000AE213E0D801CD91DC918881811118C062
:10288000EF92FF9284E196E09F938F9384E08F9381
:102890008DE993E09F938F930E948313EDB7FEB76A
:1028A00037960FB6F894FEBF0FBEEDBF81E03CC077
:1028B000BE018F2D9E2D0E948342892BE1F5E09170
:1028C0007803F0917903D80112962C9181E090E081
:1028D000A0E0B0E004C0880F991FAA1FBB1F2A9573
:1028E000D2F74081518162817381842B952BA62B75
:1028F000B72B80839183A283B383DF93CF9388E246
:1029000096E09F938F9382E08F938DE993E09F935E
:102910008F930E9483138DB79EB707960FB6F894D6
:102920009EBF0FBE8DBF80E0DF91CF911F910F91B1
:10293000FF90EF9008950D5F1F4F9CCF982F80ED73
:10294000890F8A3048F089EC890F803128F089EAB4
:10295000890F803108F080E00895EF92FF920F9385
:102960001F93CF93DF93EC0109900020E9F72197A3
:10297000C81BD90B8C01DD27CC0FDD1FCC0FDD1F51
:10298000F12CE12C2497CC3F2FEFD20741F4C70163
:10299000DF91CF911F910F91FF90EF900895F80173
:1029A00081918F010E949E1490E00C2E02C0880F2E
:1029B000991F0A94E2F7E80EF91EE4CF0C946F41D8
:1029C0000C946F41282F80E091E0921708F0089551
:1029D000990F8F5FFACFCF93DF93EC01899181112B
:1029E00003C0DF91CF91089590E00E946542FE01FF
:1029F00031978083F3CF80E88093610083E08093F8
:102A000061001092700080E28093B60088EC8093A1
:102A1000B30010926E0081E0809381008093B0003B
:102A20009091B6008091B60084709170892BC1F7A7
:102A30008AE090E020E335E7F9013197F1F701975B
:102A4000D9F73FEF41E0F89436BB37BB10928500D1
:102A5000109284001092B20087B38823E9F3109299
:102A60008100789486B381111CC0209184008091EC
:102A7000850090E0982F8827820F911D8B3628E1E2
:102A8000920744F0809166008150809366004093E5
:102A90008100D9CF883E974124F081E08093810066
:102AA0000895809166008F5FF0CFE1E6F0E080E866
:102AB0008083108208950C9455158DE194E09F93C6
:102AC0008F93E0917A03F0917B0381818F938081D2
:102AD0008F9388EB99E09F938F931F920E94B71179
:102AE0008CE394E09F938F931F920E949F118DB768
:102AF0009EB70A960FB6F8949EBF0FBE8DBF08957D
:102B0000E0917A03F0917B0383830895E0917A0347
:102B1000F0917B0383810895CF93C0912D08C2303B
:102B200009F448C010F5CC2309F460C0C13009F4A1
:102B300063C0E0917A03F0917B0383811F928F93AE
:102B400081E698E09F938F9384E08F938EEA93E0E1
:102B50009F938F930E9483138DB79EB707960FB6EE
:102B6000F8949EBF0FBE8DBF58C0C53009F457C042
:102B7000C63009F469C0C430E1F680E00E946E20DE
:102B800080E00E944F3560E070E0CB010E949B37EF
:102B9000E0917A03F0917B03138287EC98E09F9396
:102BA0008F9382E08F938EEA93E09F938F930E949E
:102BB000831316C080E00E946E2080E00E944F3593
:102BC00082E199E09F938F93CF938EEA93E09F9356
:102BD0008F930E948313E0917A03F0917B03138219
:102BE0000F900F900F900F900F9003C080E00E9405
:102BF0006E2080E0CF91089587EE98E09F938F93A9
:102C000084E08F938EEA93E09F938F930E948313C7
:102C10000F900F900F900F900F908FEFEBCF80E001
:102C20000E946E2080E00E944F3560E070E0CB0192
:102C30000E949B370E94E336E0917A03F0917B0378
:102C4000138289EA98E0ABCF80E00E946E2060E0BA
:102C500070E0CB010E949B37E0917A03F0917B03F7
:102C6000138288E898E09BCFCF93C0E080912D0835
:102C7000823029F1E0F4882331F1813009F11F928B
:102C80008F938BEA96E09F938F9384E08F938EEAE5
:102C900093E09F938F930E948313C1508DB79EB78B
:102CA00007960FB6F8949EBF0FBE8DBF09C09CEF6C
:102CB000980F923020F70E948C15C82FD7CFC150A3
:102CC0008C2FCF91089580E00E944C1F80E00E94DD
:102CD0004F3560E070E0CB010E94093683ED96E04D
:102CE0009F938F9382E08F938EEA93E09F938F93CD
:102CF0000E948313E0917A03F0917B0381E0838348
:102D00000F900F900F900F900F90DACF80912D08B9
:102D1000823009F447C0E0F4882309F445C08130CB
:102D200081F11F928F9381ED97E09F938F9384E0C1
:102D30008F938EEA93E09F938F930E9483138DB7B6
:102D40009EB707960FB6F8949EBF0FBE8DBF2AC0E0
:102D5000843009F446C0853021F780E00E944F3569
:102D60000E94E33660E070E080E292E40E949B37CC
:102D7000E0917A03F0917B0384E0838388EF97E00E
:102D800021C086E398E09F938F9384E08F938EEA2F
:102D900093E09F938F930E9483130F900F900F9057
:102DA0000F900F908FEF089560E070E080E292E462
:102DB0000E949B37E0917A03F0917B0384E0838348
:102DC00086E198E09F938F9382E08F938EEA93E061
:102DD0009F938F930E9483130F900F900F900F90EB
:102DE0000F9080E00895CF9380912D08823041F1BB
:102DF00018F5882339F1813009F461C0C0E0809171
:102E00002D081F928F9385E497E09F938F9384E022
:102E10008F938EEA93E09F938F930E9483138FEF9B
:102E20008C0F2DB73EB7295F3F4F0FB6F8943EBFCA
:102E30000FBE2DBFCF910895843051F18530F1F64A
:102E400080E0F8CF80E00E946E2081E00E944F3544
:102E50000E94143760E070E080E292E40E949B37A9
:102E6000E0917A03F0917B0385E0838383EB97E025
:102E70009F938F9382E08F938EEA93E09F938F933B
:102E80000E9483130F900F900F900F900F90D8CF48
:102E900080E00E946E2081E00E944F350E9414372E
:102EA00060E070E080E292E40E949B37E0917A0358
:102EB000F0917B0385E0838385E997E0D9CF8AE6AB
:102EC00097E09F938F9384E08F938EEA93E09F9394
:102ED0008F930E9483130F900F900F900F900F907D
:102EE000CFEF8DCF80912D08833020F48823F9F027
:102EF0008FEF0895843020F08630D0F3863099F13A
:102F00001F928F9384EF96E09F938F9384E08F932B
:102F10008EEA93E09F938F930E9483138DB79EB7A1
:102F200007960FB6F8949EBF0FBE8DBFE1CFE0911C
:102F30007A03F0917B0386E0838380E00E94AE37C2
:102F40000E948F378CE197E09F938F9382E08F935D
:102F50008EEA93E09F938F930E9483130F900F90BC
:102F60000F900F900F9080E008950C94341688E134
:102F700098E00FB6F894A895809360000FBE9093E8
:102F80006000FFCFE0917A03F0917B038381823070
:102F900009F43FC0F0F4882309F453C0813009F4E8
:102FA00080C08CE394E09F938F9383E294E09F939F
:102FB0008F938DEB95E09F938F931F920E949F11AB
:102FC0008DB79EB707960FB6F8949EBF0FBE8DBF04
:102FD0000895853009F44DC0863009F47AC08430F4
:102FE00001F78CE394E09F938F938CE296E09F939C
:102FF0008F938DEB95E09F938F931F920E949F116B
:103000008DB79EB707960FB6F8949EBF0FBE8DBFC3
:1030100008958CE394E09F938F9387E296E09F93CB
:103020008F938DEB95E09F938F931F920E949F113A
:103030008DB79EB707960FB6F8949EBF0FBE8DBF93
:1030400008958CE394E09F938F9382E795E09F939C
:103050008F938DEB95E09F938F931F920E949F110A
:103060008DB79EB707960FB6F8949EBF0FBE8DBF63
:1030700008958CE394E09F938F938AE795E09F9364
:103080008F938DEB95E09F938F931F920E949F11DA
:103090008DB79EB707960FB6F8949EBF0FBE8DBF33
:1030A00008958CE394E09F938F9380E895E09F933D
:1030B0008F938DEB95E09F938F931F920E949F11AA
:1030C0008DB79EB707960FB6F8949EBF0FBE8DBF03
:1030D00008958CE394E09F938F938BED93E09F93FF
:1030E0008F938DEB95E09F938F931F920E949F117A
:1030F0008DB79EB707960FB6F8949EBF0FBE8DBFD3
:1031000008958CE394E09F938F93E0917A03F0917C
:103110007B0382811F928F9384E396E09F938F932A
:103120001F920E949F118DB79EB707960FB6F89415
:103130009EBF0FBE8DBF08950E948C15811102C0E5
:103140000C9412108DEF0C9423100E9472178111B1
:1031500002C00C9412108DEF0C9423100E943416B0
:10316000811102C00C9412108DEF0C9423100E9458
:10317000F316811102C00C9412108DEF0C942310E1
:10318000813631F470932F0860932E0880E0089503
:103190007093310860933008F9CF9093330880938F
:1031A000320880E0089590932B0880932A0880E0ED
:1031B000089580932C0880E00895813629F4809149
:1031C0002E0890912F080895809130089091310831
:1031D000089580912D0808958091320890913308C8
:1031E000089560933408709335088093360890935F
:1031F000370880E008956091340870913508809117
:1032000036089091370808958FB18095881F8827D8
:10321000881F08951F93CF93DF9380917A03909135
:103220007B030E941C1A80917A0390917B030E9479
:10323000691A81E60E94922C9F938F938CE999E002
:103240009F938F9312E01F93CEEAD3E0DF93CF9347
:103250000E94831382E60E94922C9F938F9380E8B2
:1032600099E09F938F931F93DF93CF930E948313D3
:103270000E94CF349F938F9385E699E09F938F931D
:103280001F93DF93CF930E94831387980E94383750
:1032900040E068EE73E087E999E10E94921B87E9BC
:1032A00099E10E94221C2DB73EB72B5E3F4F0FB60F
:1032B000F8943EBF0FBE2DBF87FD24C08093380811
:1032C000282F082E000C330B3F938F938CE499E04A
:1032D0009F938F9381E08F93DF93CF930E9483130B
:1032E0002DB73EB7295F3F4F0FB6F8943EBF0FBED4
:1032F0002DBF0E9404198823A9F0DF91CF911F915F
:103300000C9428378FE299E09F938F9384E08F93FA
:10331000DF93CF930E9483130F900F900F900F9025
:103320000F90E7CFDF91CF911F910C9420370E942F
:103330000419811115C08DE996E09F938F9381E068
:103340008F938EEA93E09F938F930E9483130E9442
:1033500020370F900F900F900F900F900C948C15BA
:103360000895F894F999FECF92BD81BD60BDFA9A97
:10337000F99A78949F938F931F926F938EE39AE0BC
:103380009F938F9382E08F9384ED93E09F938F932D
:103390000E9483138DB79EB709960FB6F8949EBF0F
:1033A0000FBE8DBF0895F894F999FECF92BD81BDEF
:1033B000F89A789420B59F938F931F922F9386E26B
:1033C0009AE09F938F9382E08F9384ED93E09F9395
:1033D0008F930E94831380B52DB73EB7275F3F4F71
:1033E0000FB6F8943EBF0FBE2DBF0895CF93DF9365
:1033F000D82FC92F9F938F938DE09AE09F938F933F
:1034000081E08F9384ED93E09F938F930E948313C9
:103410006D2F90E080E00E94B1198DB79EB707969E
:103420000FB6F8949EBF0FBE8DBF6C2F81E090E069
:10343000DF91CF910C94B1190F931F93CF938C010F
:1034400090E080E00E94D319C82F81E090E00E94B4
:10345000D31990E0982F88278C0F911DF801918344
:1034600080839F938F9384EF99E09F938F9381E064
:103470008F9384ED93E09F938F930E9483138DB776
:103480009EB707960FB6F8949EBF0FBE8DBFCF9123
:103490001F910F910895CF93C82F1F928F9381EEA4
:1034A00099E09F938F9381E08F9384ED93E09F93B6
:1034B0008F930E9483138DB79EB707960FB6F8942B
:1034C0009EBF0FBE8DBF6C2F82E090E0CF910C9419
:1034D000B119CF93DF93EC0182E090E00E94D31901
:1034E0008A831F928F938EEC99E09F938F9381E054
:1034F0008F9384ED93E09F938F930E9483138DB7F6
:103500009EB707960FB6F8949EBF0FBE8DBFDF9192
:10351000CF910895CF93DF93FC01C081D181CE017B
:103520000E94F619CE010E94D318811104C0DF91C8
:10353000CF910C9412108DEFDF91CF910C9423104A
:10354000CF93FC01C0818C2F0E944B1A8C2F0E94BC
:10355000D918811103C0CF910C9412108DEFCF9127
:103560000C942310CF93DF93219A229A8CB582601A
:103570008CBD8DB581608DBD8CB58F7D8CBD8CB5BE
:1035800080618CBD8CB580648CBD29988CB51F92F0
:103590008F9384E89AE09F938F9382E08F93C0E1AA
:1035A000D6E0DF93CF930E9483138DB79EB7079623
:1035B0000FB6F8949EBF0FBE8DBF0CB404FC0FC0B5
:1035C0008AE69AE09F938F9384E08F93DF93CF9363
:1035D0000E9483130F900F900F900F900F90DF9128
:1035E000CF9108950F931F93CF93DF938EBD0DB4AA
:1035F00007FEFDCF1F928F938FE59AE09F938F93E5
:1036000001E00F93C0E1D6E0DF93CF930E948313D4
:103610001EB51F921F9385E59AE09F938F930F939A
:10362000DF93CF930E9483138DB79EB70E960FB68C
:10363000F8949EBF0FBE8DBF812FDF91CF911F9158
:103640000F9108951092B90080E48093B800089516
:10365000279A08952F9A08952F9808952F990C94DA
:103660002C1B0C942A1B81EA9AE09F938F9382E093
:103670008F9384EA93E09F938F930E948313E1E8F2
:10368000F0E080818460808389E390E090938D00F6
:1036900080938C00EFE6F0E08081886080830F905B
:1036A0000F900F900F900F90089560E070E080E011
:1036B00090E10C94093662E676E081E60E94F130F2
:1036C00062E081E00C94051C1F920F920FB60F92DE
:1036D00011240BB60F922F933F934F935F936F93E9
:1036E0007F938F939F93AF93BF93EF93FF93F89440
:1036F00010928500109284000E94B21B7894FF9172
:10370000EF91BF91AF919F918F917F916F915F9159
:103710004F913F912F910F900BBE0F900FBE0F90C6
:103720001F9018959C01CB01019780319742B0F40E
:10373000909166069A30A0F487E0989FF0011124DA
:10374000E959F94F3183208373836283468315825D
:1037500014829F5F9093660680E0089582E008954A
:1037600083E0089530916606E7E6F6E020E041E068
:1037700050E061E0321301C008958681823051F03B
:1037800084819581A281B3818A179B0730F055838C
:10379000448366832F5F3796EDCF019695838483AC
:1037A000F9CFCF93DF93C0E0D7E080916606C817CA
:1037B00018F0DF91CF910895DC9FF0011124E959B1
:1037C000F94F8681813029F416820190F081E02D35
:1037D0001995CF5FEACF97E0899FF0011124E9594D
:1037E000F94F8681089597E0899FF0011124E959E6
:1037F000F94F82819381089597E0899FF001112408
:10380000E959F94F84819581089597E0899FF001E6
:103810001124E959F94F6683089597E0899FF001D3
:103820001124E959F94F73836283089597E0899FC2
:10383000F0011124E959F94F75836483089580914B
:1038400066060895BC014091660627E636E090E0E2
:10385000491302C08FEF0895295F3F4FF901379751
:103860000190F081E02DE617F70711F4892F0895F4
:103870009F5FEECF289A289BFECF089580910B0181
:10388000886080930B0180910B0183FFFCCF08952A
:10389000882329F0739A739BFECF80E00895739874
:1038A0007399FECFFACF882329F0749A749BFECFC8
:1038B00080E0089574987499FECFFACF882321F0A0
:1038C0000E943A1C80E0089528982899FECFFACFEC
:1038D000882321F00E943E1C80E0089580910B0116
:1038E000877F80930B0180910B0183FDFCCFF4CF88
:1038F000289A209A739A6B9A80E00E945E1C8FEF40
:103900000E94F21A0E943A1C889A809A80E00E94D3
:10391000481CEBE0F1E0808188608083EAE0F1E020
:10392000808188608083749A6C9A80E00E94681C11
:103930008FEF0E94F21A0E943E1C899A819A80E0C1
:103940000C94531C882321F0889A889BFECF0895FD
:1039500088988899FECF0895882321F0899A899BB9
:10396000FECF089589988999FECF089580E00E943E
:103970005E1C80E00E94681C80E00E94F21A0E9497
:103980003A1C0C943E1C80E00E945E1C80E00E9469
:10399000681C82E00E94F21A0E943A1C0C943E1CA1
:1039A00080E00E945E1C80E00E94681C84E00E940F
:1039B000F21A0E943A1C0C943E1C80E00E945E1C8D
:1039C00080E00E94681C86E00E94F21A0E943A1C65
:1039D0000C943E1C80E00E945E1C80E00E94681CEB
:1039E00081E00E94F21A0E943A1C0C943E1C80E076
:1039F0000E945E1C80E00E94681C83E00E94F21A14
:103A00000E943A1C0C943E1C80E00E945E1C80E0E8
:103A10000E94681C85E00E94F21A0E943A1C0C94D5
:103A20003E1C80E00E945E1C80E00E94681C87E0D3
:103A30000E94F21A0E943A1C0C943E1C80E00E94E4
:103A40005E1C80E00E94681C88E00E94F21A0E94BE
:103A50003A1C0C943E1C0895BF92CF92DF92EF92D5
:103A6000FF920F931F93CF93DF936C01162FEA0100
:103A700080E0F6011995812F8295807F0E94F21ACD
:103A80008D2F0E94F21A1F92DF9388EBE82E8AE0B6
:103A9000F82EFF92EF92BB24B394BF9204E116E09C
:103AA0001F930F930E9483138C2F0E94F21ADD271D
:103AB000DF93CF93FF92EF92BF921F930F930E94D9
:103AC000831381E0F60119958DB79EB70E960FB658
:103AD000F8949EBF0FBE8DBF80E0DF91CF911F9104
:103AE0000F91FF90EF90DF90CF90BF90089580E00E
:103AF00008952F923F924F925F926F927F928F9292
:103B00009F92AF92BF92CF92DF92EF92FF920F936C
:103B10001F93CF93DF930F920F92CDB7DEB7382E5E
:103B2000330C3A8329836295607F762E740EEE24DF
:103B3000E394F12C04EE13E038E1832E3BE0932E66
:103B400084EA8093BC008091BC0087FFFCCF809109
:103B5000B900887F80933908803131F0883309F4C7
:103B6000F6C0883009F003C126EE3BE03F932F9367
:103B700081E08F931F930F930E9483133092BB00B9
:103B800084E88093BC000F900F900F900F900F90DF
:103B90008091BC0087FFFCCF8091B900887F809323
:103BA00039081F928F93E4EAFBE0FF93EF93DD2443
:103BB000D394DF921F930F930E948313809139084F
:103BC0000FB6F894DEBF0FBECDBF803209F4E2C05D
:103BD000883309F4F7C0883109F0FAC024E83BE0E3
:103BE0003F932F93DF921F930F930E948313709242
:103BF000BB0084E88093BC000F900F900F900F9053
:103C00000F908091BC0087FFFCCF8091B900887F26
:103C1000809339081F928F939F928F92DD24D394C3
:103C2000DF921F930F930E948313809139080FB680
:103C3000F894DEBF0FBECDBF803309F46FC0883368
:103C400009F47ECF883209F0D2C01F927F928BEFA9
:103C50009AE09F938F93DF921F930F930E94831399
:103C60009E012F5F3F4F59010FB6F894DEBF0FBE84
:103C7000CDBFCC24C394D12C94E8292E6624639420
:103C80005C2C4D2CF50181818093BB002092BC00FF
:103C90008091BC0087FFFCCF8091B900887F809322
:103CA00039081F928F9328EE3AE03F932F936F923B
:103CB0001F930F930E948313809139080FB6F894D5
:103CC000DEBF0FBECDBF803349F1883309F438CF52
:103CD000883209F08CC04F925F922EEC3AE03F930D
:103CE0002F936F921F930F930E948313F50181818D
:103CF0001F928F9323EC3AE03F932F936F921F9381
:103D00000F930E94831391E0A91AB1080FB6F8949B
:103D1000DEBF0FBECDBFCD2809F06BC080E094E9B7
:103D20009093BC000F900F90DF91CF911F910F9156
:103D3000FF90EF90DF90CF90BF90AF909F908F90CB
:103D40007F906F905F904F903F902F90089585EDFA
:103D50009BE09F938F9381E08F931F930F930E941B
:103D600083130F900F900F900F900F90E9CE87EB79
:103D70009BE09F938F9384E08F9384EE93E09F93D7
:103D80008F930E9483130F900F900F900F900F90BE
:103D90008FEFC8CFFF92EF92E4E5FBE0FF93EF9344
:103DA000DF921F930F930E9483133FEFE31AF30AEE
:103DB0000FB6F894DEBF0FBECDBF9BE0E916F1044D
:103DC00039F3BECEE3E4FBE0FF93EF93DF92C5CF80
:103DD0008BE29BE09F938F9384E08F931F930F93CD
:103DE0000E9483130F900F900F900F900F908FEF02
:103DF00096CFD12CC12C44CF08950F931F93CF930E
:103E0000DF93EC01162F072F80E0FE011995802F1C
:103E10000E94F21A812F0E94F21A81E0FE01199588
:103E200080E0DF91CF911F910F910895CF9320E013
:103E3000C0E041E050E0822F90E0FC01EE0FFF1F58
:103E4000E80FF91FE258FC4F3081311119C01F9261
:103E5000CF9385E79CE09F938F9381E08F9385EBD1
:103E600093E09F938F930E9483138DB79EB707961D
:103E70000FB6F8949EBF0FBE8DBF8C2FCF910895C3
:103E80003181332339F0BA0102C0660F771F8A955A
:103E9000E2F7C60F2F5FCFCFCF93DF93D82F81E606
:103EA0000E94012D882381F164E080E70E9433267F
:103EB000C82F82E69CE09F938F9381E08F938DE0E3
:103EC00094E09F938F930E9483134D2F62E084E7C9
:103ED0000E9475230F900F900F900F900F9082E625
:103EE0000E94012D882349F165E080E70E94332676
:103EF000C80F4D2F42954F7062E084E70E947523F2
:103F00008C2FDF91CF9108951F9281E68F9388E4E3
:103F10009CE09F938F9384E08F9387EF93E09F9330
:103F20008F930E9483138DB79EB707960FB6F894B0
:103F30009EBF0FBE8DBFCFEFD2CF1F9282E68F9371
:103F40008EE29CE09F938F9384E08F9387EF93E0C2
:103F50009F938F930E948313C1508DB79EB707968E
:103F60000FB6F8949EBF0FBE8DBFCACF7F928F92BF
:103F70009F92AF92BF92CF92DF92EF92FF920F93F8
:103F80001F93CF93DF930E94FB186B017C01712C70
:103F9000812C912CA12C01E010E0872D90E0EC0108
:103FA000CC0FDD1FC80FD91FC258DC4F888181118B
:103FB0001CC0882009F489C00E94E918863009F4E1
:103FC0007EC00E94861687FF7AC0AA948A2DDF9150
:103FD000CF911F910F91FF90EF90DF90CF90BF9006
:103FE000AF909F908F907F9008959981BB24BA9451
:103FF000B80E9923A1F1839470E060E00E94782EBE
:10400000A82E8A81980102C0220F331F8A95E2F7F9
:10401000C9018095982237E03B1550F0EB2DF0E078
:104020008827EB51FC4B8F4F0C94D83F6894E0F8F5
:104030007394B3CF6894E3F8FBCF6894E6F8F8CFB5
:104040006894F1F8F5CF6894C0F8F2CF6894C3F89B
:10405000EFCF6894C6F8ECCF6894D1F8E9CF6EEE54
:1040600072E40E94782EA82E8A81980102C0220F45
:10407000331F8A95E2F7922A37E03B15C8F2EB2D01
:10408000F0E08827E351FC4B8F4F0C94D83FE89425
:10409000E0F8CECFE894E3F8CBCFE894E6F8C8CFC9
:1040A000E894F1F8C5CFE894C0F8C2CFE894C3F81B
:1040B000BFCFE894C6F8BCCFE894D1F8B9CFC70118
:1040C000B6010E9404366B017C01892D0E944C1FB1
:1040D000A80EC701B6010E94093678CF90E0282FBC
:1040E00030E061E0492F50E0FA01EE0FFF1FE40FCE
:1040F000F51FE258FC4F8081811102C00C94B61F5D
:10410000A901092E02C0559547950A94E2F740FF90
:1041100003C061839F5FE6CF1182FCCF80E00C94E7
:104120006E2080E0282F30E0F901EE0FFF1FE20F34
:10413000F31FE258FC4F9081911102C080E0089576
:104140008F5FF0CFCF93DF93FC0180819181CFEF20
:10415000C80F9C01215031092830310528F08BEF20
:10416000DF91CF910C9423100597A8F481E60E946B
:10417000012D882391F1D0E0FE01EE0FFF1FEC0F1F
:10418000FD1FE258FC4F81E081830E94B61FDF9142
:10419000CF910C94121082E60E94012D8111EBCF79
:1041A00081E60E94012D811136C01F9282E68F9315
:1041B0008AEF9BE09F938F9384E08F9387EF93E048
:1041C0009F938F930E948313EDB7FEB737960FB678
:1041D000F894FEBF0FBEEDBF1CC081E60E94012D0A
:1041E0008111D9CF1F9281E68F9384E19CE09F9348
:1041F0008F9384E08F9387EF93E09F938F930E9438
:1042000083138DB79EB707960FB6F8949EBF0FBE67
:104210008DBF8DEFA5CFDF91CF910895FC018081F7
:104220009181EFEFE80F0197089718F08BEF0C944E
:1042300023108E2F90E0FC01EE0FFF1FE80FF91FF7
:10424000E258FC4F8181882389F08CE394E09F93AE
:104250008F9389E396E09F938F931F920E949F1103
:104260000F900F900F900F900F9008958CE394E0B3
:104270009F938F938EE394E0EECFFC018081918138
:104280009C01215031092830310518F08BEF0C9436
:104290002310815090E0FC01EE0FFF1FE80FF91F83
:1042A000E258FC4F11820E94B61F0C941210FC01C0
:1042B000808191818F3F910521F018F08BEF0C9454
:1042C0002310009731F40E948C1587FF05C08DEFF5
:1042D000F6CF0E946E20F9CF0C94121090E080E08F
:1042E00061E070E0292F30E0F901EE0FFF1FE20FCF
:1042F000F31FE258FC4F4081411116C02CE334E01B
:104300003F932F931F928F938DE396E09F938F930C
:104310001F920E949F118DB79EB707960FB6F89413
:104320009EBF0FBE8DBF08954181442339F0AB017C
:1043300002C0440F551F2A95E2F7840F9F5FD2CF2A
:104340002F923F924F925F926F927F928F929F92A5
:10435000AF92BF92CF92DF92EF92FF920F931F9393
:10436000CF93DF93562E482E440C01E010E084EAF0
:10437000382ECBEFD5E09BE9892E9EE0992E2CE7D5
:10438000E22E2EE0F22E3FE3C32E3EE0D32E242C6D
:10439000689420F848E5A42E4FE0B42E3092BC007B
:1043A0008091BC0087FFFCCF8091B900887F80930B
:1043B0003908803131F0883309F427C1883009F099
:1043C00032C129E63FE03F932F9381E08F93DF9343
:1043D000CF930E9483134092BB0084E88093BC007B
:1043E0000F900F900F900F900F908091BC0087FF5F
:1043F000FCCF8091B900887F809339081F928F93FA
:1044000027E23FE03F932F93662463946F92DF93FC
:10441000CF930E948313809139082DB73EB7295F4F
:104420003F4F0FB6F8943EBF0FBE2DBF803209F448
:104430000DC1883309F423C1883109F028C187E010
:104440009FE09F938F936F92DF93CF930E9483138C
:104450005092BB0084E88093BC000F900F900F90A7
:104460000F900F908091BC0087FFFCCF8091B90026
:10447000887F809339081F928F939F928F92662432
:1044800063946F92DF93CF930E94831380913908D6
:104490002DB73EB7295F3F4F0FB6F8943EBF0FBE12
:1044A0002DBF803309F419C1883309F477CF8832DE
:1044B00009F0FCC0FF92EF926F92DF93CF930E94BE
:1044C00083133092BC000F900F900F900F900F90BD
:1044D0008091BC0087FFFCCF8091B900887F8093DA
:1044E0003908803131F0883309F458CF883009F029
:1044F000DDC0DF92CF9281E08F93DF93CF930E9454
:1045000083132092BB0084E88093BC000F900F902F
:104510000F900F900F908091BC0087FFFCCF80918F
:10452000B900887F809339081F928F932CE23EE078
:104530003F932F9381E08F93DF93CF930E94831358
:10454000809139082DB73EB7295F3F4F0FB6F894D9
:104550003EBF0FBE2DBF883309F420CF803409F051
:10456000A5C084E88093BC008091BC0087FFFCCF8D
:104570008091B900887F809339081F928F9389E1D9
:104580009EE09F938F9311E01F93CBEFD5E0DF93D5
:10459000CF930E948313809139082DB73EB7295FCE
:1045A0003F4F0FB6F8943EBF0FBE2DBF803589F048
:1045B000883509F07BC088EF9DE09F938F931F9310
:1045C000DF93CF930E9483130F900F900F900F9063
:1045D0000F907090BB001F925F921F927F928FEDA1
:1045E0009DE09F938F9381E08F938BEF95E09F9356
:1045F0008F930E9483132DB73EB7275F3F4F0FB6AF
:10460000F8943EBF0FBE2DBF51C0BF92AF9281E064
:104610008F93DF93CF930E9483130F900F900F908F
:104620000F900F90BBCE8AE39FE09F938F9384E01F
:104630008F938BEF95E09F938F930E9483130F903E
:104640000F900F900F900F908FEF34C01F930F9328
:1046500027ED3EE03F932F936F92DF93CF930E941D
:1046600083130F5F1F4F8DB79EB707960FB6F89451
:104670009EBF0FBE8DBF0B30110531F38FCE26ECE0
:104680003EE03F932F936F92DF93CF93C4CF8EEA98
:104690009EE09F938F9384E08F93DF93CF930E944C
:1046A00083130F900F900F900F900F9084E98093D9
:1046B000BC00872DDF91CF911F910F91FF90EF905C
:1046C000DF90CF90BF90AF909F908F907F906F9032
:1046D0005F904F903F902F9008958CE59EE09F93C0
:1046E0008F936F92DF93CF93DACF2F923F924F92B7
:1046F0005F926F927F928F929F92AF92BF92CF9272
:10470000DF92EF92FF920F931F93CF93DF93482E88
:10471000662E542E382E330C01E010E084EA282E49
:1047200077247394CBEFD5E09DEF892E9CE0992EF2
:10473000E62EF12C21EDC22E2CE0D22E3AEBA32E48
:104740003DE0B32E2092BC008091BC0087FFFCCFDF
:104750008091B900887F80933908803131F08833A7
:1047600009F4EEC0883009F0F8C02BEC3DE03F932F
:104770002F937F92DF93CF930E9483133092BB00DD
:1047800084E88093BC000F900F900F900F900F90D3
:104790008091BC0087FFFCCF8091B900887F809317
:1047A00039081F928F9329E83DE03F932F937F9222
:1047B000DF93CF930E948313809139082DB73EB7C2
:1047C000295F3F4F0FB6F8943EBF0FBE2DBF80321A
:1047D00009F4D6C0883309F4ECC0883109F0F1C07F
:1047E00089E69DE09F938F937F92DF93CF930E9402
:1047F00083136092BB0084E88093BC000F900F90FD
:104800000F900F900F908091BC0087FFFCCF80919C
:10481000B900887F809339081F928F939F928F925F
:104820007F92DF93CF930E948313809139082DB735
:104830003EB7295F3F4F0FB6F8943EBF0FBE2DBF66
:10484000803309F466C0883309F47CCF883209F0DC
:10485000C7C01F926F9284EE9CE09F938F937F92CC
:10486000DF93CF930E9483135092BB0084E8809320
:10487000BC002DB73EB7295F3F4F0FB6F8943EBF3F
:104880000FBE2DBF8091BC0087FFFCCF8091B90087
:10489000887F809339081F928F93DF92CF927F9207
:1048A000DF93CF930E948313809139082DB73EB7D1
:1048B000295F3F4F0FB6F8943EBF0FBE2DBF803328
:1048C00041F1883309F43ECF883209F089C01F9244
:1048D0001F9287EB9CE09F938F937F92DF93CF9300
:1048E0000E9483131F924F92FF92EF921F925F924A
:1048F0008BE89CE09F938F937F92DF93CF930E94EE
:1049000083138DB79EB742960FB6F8949EBF0FBE25
:104910008DBF80E094E99093BC00DF91CF911F910F
:104920000F91FF90EF90DF90CF90BF90AF909F904E
:104930008F907F906F905F904F903F902F90089551
:10494000BF92AF927F92DF93CF930E9483130F9019
:104950000F900F900F900F90F5CE8CE99DE09F93F4
:104960008F9384E08F938BEF95E09F938F930E94BA
:1049700083130F900F900F900F900F908FEFCDCF6C
:104980001F930F9329E33DE03F932F937F92DF9393
:10499000CF930E9483130F5F1F4F8DB79EB707966B
:1049A0000FB6F8949EBF0FBE8DBF0B30110531F3CB
:1049B000C9CE28E23DE03F932F937F92DF93CF93C0
:1049C000C4CF80E19DE09F938F9384E08F93DF932A
:1049D000CF930E9483130F900F900F900F900F9022
:1049E0008FEF98CF2F923F924F925F926F927F926C
:1049F0008F929F92AF92BF92CF92DF92EF92FF92EF
:104A00000F931F93CF93DF93880F01E010E094EA98
:104A1000392E2BEA822E21E1922E55245394C7E0A1
:104A2000D6E0482E689440F834E8232E49E6E42E78
:104A300041E1F42E59E1C52E51E1D52E68E0662EF4
:104A400061E1762E7AE9A72E71E1B72E3092BC0093
:104A50008091BC0087FFFCCF8091B900887F809354
:104A60003908803129F08833F1F1883009F048C0E5
:104A70009F928F925F92DF93CF930E948313409215
:104A8000BB002092BC000F900F900F900F900F90E2
:104A90008091BC0087FFFCCF8091B900887F809314
:104AA00039081F928F93FF92EF925F92DF93CF931B
:104AB0000E948313809139082DB73EB7295F3F4F7D
:104AC0000FB6F8943EBF0FBE2DBF803461F188341D
:104AD00009F4A0C0883309F0B5C07F926F925F924D
:104AE000DF93CF9305C0BF92AF925F92DF93CF93D6
:104AF0000E9483130F900F900F900F900F90A6CFEE
:104B00008CE791E19F938F9384E08F9387E096E009
:104B10009F938F930E9483130F900F900F900F908D
:104B20000F908FEF63C089E491E19F938F935F9221
:104B3000DF93CF930E94831384E88093BC000F908F
:104B40000F900F900F900F908091BC0087FFFCCFCB
:104B50008091B900887F809339081F928F938DEDE3
:104B600090E19F938F9311E01F93C7E0D6E0DF930E
:104B7000CF930E948313809139082DB73EB7295FE8
:104B80003F4F0FB6F8943EBF0FBE2DBF803589F062
:104B9000883509F066C08CEB90E19F938F931F934B
:104BA000DF93CF930E9483130F900F900F900F907D
:104BB0000F90C091BB001F92CF938EE990E19F931D
:104BC0008F9381E08F9387E096E09F938F930E946D
:104BD00083132DB73EB7295F3F4F0FB6F8943EBF02
:104BE0000FBE2DBF84E98093BC008C2F9FEFDF9117
:104BF000CF911F910F91FF90EF90DF90CF90BF90DA
:104C0000AF909F908F907F906F905F904F903F906C
:104C10002F9008951F930F93DF92CF925F92DF93AF
:104C2000CF930E9483130F5F1F4F8DB79EB70796D8
:104C30000FB6F8949EBF0FBE8DBF0B30110509F45F
:104C400070CF04CF80EF90E19F938F9384E08F9398
:104C5000DF93CF930E9483130F900F900F900F90CC
:104C60000F90CFEFBFCF2F923F924F925F926F92F4
:104C70007F928F929F92AF92BF92CF92DF92EF92EC
:104C8000FF920F931F93CF93DF930F920F92CDB7A5
:104C9000DEB78983E62E880F8A8301E010E08AE878
:104CA000282E80E1382EFF24F39498E4492E90E1D9
:104CB000592E22EF622E2FE0722E31EE832E3FE02E
:104CC000932E46EBC42E4FE0D42E59E7A52E50E18B
:104CD000B52E24EA2093BC008091BC0087FFFCCF56
:104CE0008091B900887F80933908803131F0883312
:104CF00009F4ABC0883009F0B7C03F922F92FF9201
:104D000087E096E09F938F930E9483133A813093BC
:104D1000BB0084E88093BC000F900F900F900F9021
:104D20000F908091BC0087FFFCCF8091B900887FF5
:104D3000809339081F928F935F924F92FF9227E0E2
:104D400036E03F932F930E948313809139080FB66A
:104D5000F894DEBF0FBECDBF803209F498C088330F
:104D600009F4AEC0883109F0B3C088E290E19F93A6
:104D70008F93FF9287E096E09F938F930E94831317
:104D8000E092BB0034E83093BC000F900F900F907E
:104D90000F900F908091BC0087FFFCCF8091B900ED
:104DA000887F809339081F928F93DF92CF92FF9272
:104DB00087E096E09F938F930E9483138091390838
:104DC0000FB6F894DEBF0FBECDBF803329F1883314
:104DD00009F47FCF883209F08CC01F921F928CE9B2
:104DE0009FE09F938F93FF9287E096E09F938F932E
:104DF0000E9483131F92EF928DE79FE09F938F9302
:104E0000FF9287E096E09F938F930E9483130FB6E3
:104E1000F894DEBF0FBECDBF80E094E99093BC0054
:104E20000F900F90DF91CF911F910F91FF90EF9016
:104E3000DF90CF90BF90AF909F908F907F906F90BA
:104E40005F904F903F902F900895BF92AF92FF9246
:104E500027E036E03F932F930E9483130F900F902B
:104E60000F900F900F9035CF8BE590E19F938F932C
:104E700084E08F9387E096E09F938F930E94831343
:104E80000F900F900F900F900F908FEFC9CF1F933F
:104E90000F931F9289818F937F926F92FF9227E0E9
:104EA00036E03F932F930E9483130F5F1F4F0FB67F
:104EB000F894DEBF0FBECDBF0B30110531F309CF23
:104EC0009F928F92FF9287E096E09F938F93C4CF3B
:104ED00089EC9FE09F938F9384E08F9387E096E027
:104EE0009F938F930E9483130F900F900F900F90BA
:104EF0000F908FEF92CF60E00E94332684E70E94EC
:104F0000F22499279F938F938FEB91E19F938F9337
:104F100081E08F9387E096E09F938F930E948313A5
:104F20008DB79EB707960FB6F8949EBF0FBE8DBF84
:104F300080E0089521E030E0A90102C0440F551F30
:104F40006A95E2F7BA010C9433268F929F92AF9242
:104F5000BF92CF92DF92EF92FF920F931F93CF9366
:104F6000DF9300D0CDB7DEB76C018AEA89831A825D
:104F70001B8280E0F6011995FFE0FA95F1F7F12C1C
:104F8000E12C10E001E088E5A82E82E1B82E9DEB2F
:104F9000892E93E0992EE1104AC089810E94F21A6D
:104FA000182F803481F01F920F931F928F93BF921E
:104FB000AF920F939F928F920E9483130FB6F89433
:104FC000DEBF0FBECDBF9FEFE91AF90AE3E0EE1690
:104FD000F10409F781E0F601199580E01034B9F089
:104FE0001F9281E08F931F921F9384E392E19F931E
:104FF0008F9384E08F938DEB93E09F938F930E9428
:1050000083130FB6F894DEBF0FBECDBF8FEF0F90A6
:105010000F900F90DF91CF911F910F91FF90EF9024
:10502000DF90CF90BF90AF909F908F900895E1E078
:10503000F0E0EC0FFD1FEE0DFF1D80810E94F21AC3
:10504000C2CF6F927F928F929F92AF92BF92CF9278
:10505000DF92EF92FF920F931F93CF93DF9300D0D5
:105060000F920F92CDB7DEB76C017B0119821A82C5
:105070001B821C8280E0F6011995FFE0FA95F1F79A
:1050800003E010E021E02D83712C6624639493E10A
:10509000A92E92E1B92E2DEB822E23E0922E033021
:1050A00009F07EC030E4731609F472C080EF0E94EC
:1050B000F21A782E1C8280E4781609F46EC01F92D2
:1050C0006F921F927F92BF92AF926F929F928F9238
:1050D0000E9483130FB6F894DEBF0FBECDBFF2E07F
:1050E000FD8301501109D8F681E0F6011995098177
:1050F000DA80CB80BC80F7010083D182C282B38288
:10510000F0E410E07F16D1F02D812150330BC9015E
:105110009F932F931F927F9282EF91E19F938F93A2
:1051200084E08F938DEB93E09F938F930E94831382
:105130000FB6F894DEBF0FBECDBF1FEFBF92CF9268
:10514000DF920F938EED91E19F938F9381E08F9388
:105150008DEB93E09F938F930E9483130FB6F89487
:10516000DEBF0FBECDBF812F0F900F900F900F901D
:105170000F90DF91CF911F910F91FF90EF90DF90F3
:10518000CF90BF90AF909F908F907F906F90089539
:1051900021E02D8380E4782EA4CF32E03D83FACF46
:1051A00080E00E94F21AE1E0F0E0EC0FFD1FE00F5A
:1051B000F11F808396CF2F923F924F925F926F9212
:1051C0007F928F929F92AF92BF92CF92DF92EF9297
:1051D000FF920F931F93CF93DF9300D000D00F92D5
:1051E000CDB7DEB76C837D83880F8B8369837A8329
:1051F000EE24E394F12C0CE116E027EA422E24E1A0
:10520000522E38EE632E34E1732E4CE7A42E44E187
:10521000B42E50E6852E54E1952E84EA8093BC008E
:105220008091BC0087FFFCCF8091B900887F80937C
:105230003908803131F0883309F495C0883009F09D
:10524000A2C08AE495E19F938F9381E08F931F938F
:105250000F930E9483133B813093BB0084E88093BB
:10526000BC000F900F900F900F900F908091BC009A
:1052700087FFFCCF8091B900887F809339081F9207
:105280008F9388E095E19F938F93DD24D394DF92F1
:105290001F930F930E948313809139080FB6F894DF
:1052A000DEBF0FBECDBF803209F481C0883309F460
:1052B00096C0883109F097C07F926F92DF921F935A
:1052C0000F930E9483130F900F900F900F900F90E9
:1052D000CC24C394D12C22242394CE82DF82E1E01B
:1052E000F0E0EC0FFD1FEC0DFD1D80818093BB00F5
:1052F00024E82093BC008091BC0087FFFCCF809104
:10530000B900887F809339081F928F93BF92AF9224
:105310002F921F930F930E948313809139080FB629
:10532000F894DEBF0FBECDBF803309F488C0883348
:1053300009F473CF883209F065C03F813F938E81B5
:105340008F939F928F922F921F930F930E9483139C
:105350000FB6F894DEBF0FBECDBFCD2809F475C0DF
:10536000D12CC12CBACF89E395E19F938F9381E033
:105370008F931F930F930E9483130F900F900F90A2
:105380000F900F904ACF8BE195E19F938F9384E02C
:105390008F938CE196E09F938F930E9483130F90DD
:1053A0000F900F900F900F9033243A942EC0FF92DD
:1053B000EF9288EB94E19F938F93DF921F930F936B
:1053C0000E9483133FEFE31AF30A0FB6F894DEBF8F
:1053D0000FBECDBF9BE0E916F10431F31ECF5F9203
:1053E0004F92DF92C6CF8FE894E19F938F9384E032
:1053F0008F931F930F930E9483130F900F900F9022
:105400000F900F9084E98093BC00832D27960FB6F0
:10541000F894DEBF0FBECDBFDF91CF911F910F91EA
:10542000FF90EF90DF90CF90BF90AF909F908F90C4
:105430007F906F905F904F903F902F90089580E401
:1054400094E19F938F932F92D4CF84EA8093BC00F2
:105450008091BC0087FFFCCF8091B900887F80934A
:105460003908803129F0883309F4D7CE883051F6D5
:1054700083E294E19F938F9381E08F931F930F9327
:105480000E9483138B8181608093BB0084E88093AA
:10549000BC000F900F900F900F900F908091BC0068
:1054A00087FFFCCF8091B900887F809339081F92D5
:1054B0008F9380E194E19F938F9381E08F931F936B
:1054C0000F930E948313809139080FB6F894DEBFC2
:1054D0000FBECDBF883309F4A0CE803409F092CF3F
:1054E00084E88093BC008091BC0087FFFCCF809152
:1054F000B900887F809339081F928F938DEF93E1D5
:105500009F938F93FF24F394FF920CE116E01F9377
:105510000F930E948313809139080FB6F894DEBF71
:105520000FBECDBF803589F0883509F06BCF8CED8B
:1055300093E19F938F93FF921F930F930E94831386
:105540000F900F900F900F900F903090BB003D8107
:105550003F938C818F931F923F9283EC93E19F93B3
:105560008F9381E08F938CE196E09F938F930E94BD
:1055700083130FB6F894DEBF0FBECDBF43CF2F927B
:105580003F924F925F926F927F928F929F92AF92D3
:10559000BF92CF92DF92EF92FF920F931F93CF9320
:1055A000DF9300D000D00F920F92CDB7DEB76C839F
:1055B0007D834B83880F8E8369837A83EE24E39403
:1055C000F12C0CE116E02DE1222E23E1322E3CE0FD
:1055D000432E33E1532E4DE4642E43E1742E51EEFD
:1055E000A52E52E1B52E65EC862E62E1962E84EA58
:1055F0008093BC008091BC0087FFFCCF8091B900F4
:10560000887F80933908803131F0883309F495C060
:10561000883009F0A2C08FEA93E19F938F9381E0D5
:105620008F931F930F930E9483133E813093BB008F
:1056300084E88093BC000F900F900F900F900F9014
:105640008091BC0087FFFCCF8091B900887F809358
:1056500039081F928F938DE693E19F938F93DD24FA
:10566000D394DF921F930F930E9483138091390884
:105670000FB6F894DEBF0FBECDBF803209F480C0F4
:10568000883309F493C0883109F094C07F926F92F7
:10569000DF921F930F930E9483130F900F900F9030
:1056A0000F900F90CC24C394D12CCF82D886E1E008
:1056B000F0E0EC0FFD1FEC0DFD1D80818093BB0021
:1056C00024E82093BC008091BC0087FFFCCF809130
:1056D000B900887F809339081F928F93BF92AF9251
:1056E00031E03F931F930F930E94831380913908F9
:1056F0000FB6F894DEBF0FBECDBF803309F4B5C03E
:10570000883309F474CF883209F063C038853F9339
:105710008F818F939F928F9291E09F931F930F930E
:105720000E9483130FB6F894DEBF0FBECDBFCD2805
:1057300009F451C0D12CC12CB8CF8EE993E19F93CD
:105740008F9381E08F931F930F930E9483130F9089
:105750000F900F900F900F904ACF80E893E19F93A6
:105760008F9384E08F938CE196E09F938F930E94B8
:1057700083130F900F900F900F900F908FEF79C0C1
:10578000FF92EF923F922F92DF921F930F930E940E
:1057900083133FEFE31AF30A0FB6F894DEBF0FBE90
:1057A000CDBF9BE0E916F10449F321CF5F924F9200
:1057B000DF92C9CF84EF92E19F938F9384E08F9320
:1057C0001F930F930E9483130F900F900F900F90D1
:1057D0000F908FEF4BC03B813093BB0084E88093E8
:1057E000BC008091BC0087FFFCCF8091B900887F0E
:1057F000809339081F928F9382EB92E19F938F934E
:10580000DD24D394DF921F930F930E948313809122
:1058100039080FB6F894DEBF0FBECDBF803329F133
:10582000883309F4E4CE8832A1F61F921F9288E9EA
:1058300092E19F938F93DF921F930F930E948313A4
:105840003D813F938C818F931F929B819F938CE727
:1058500092E19F938F93DF921F930F930E94831384
:105860000FB6F894DEBF0FBECDBF80E094E99093F1
:10587000BC0028960FB6F894DEBF0FBECDBFDF91F7
:10588000CF911F910F91FF90EF90DF90CF90BF903D
:10589000AF909F908F907F906F905F904F903F90D0
:1058A0002F900895E0E6F0E080818860808388E1B1
:1058B0009FE00FB6F894A895809360000FBE909378
:1058C000600080E00895813621F0823681F08FEF0C
:1058D000089580E00E949C3561E081E70E943326B4
:1058E00091E0811101C090E0892F8195089581E0B8
:1058F000F1CF1F93CF93DF93D62F172F0E94632CE6
:10590000C82F412F61E070E080E50E94BF2A4D2F33
:1059100070E060E080E50E94BF2A8C2FDF91CF917C
:105920001F9108951F93CF93DF93D82F0E94632C6C
:1059300081112FC061E070E080E50E94DB28C82F54
:1059400070E060E080E50E94DB28182F682F7C2F34
:105950008D2F0E94C0181F92DF93CF931F938EE567
:1059600095E19F938F9382E08F9387EF93E09F93CE
:105970008F930E9483138DB79EB709960FB6F89444
:105980009EBF0FBE8DBF812F9C2FDF91CF911F91A6
:10599000089570E060E08D2F0E94C0181F92DF9381
:1059A0008BE795E19F938F9384E08F9387EF93E04C
:1059B0009F938F930E9483138DB79EB707960FB660
:1059C000F8949EBF0FBE8DBF10E0C0E0DCCFFC019D
:1059D0006081718181E60E94792C87FF03C08DEF81
:1059E0000C9423100C941210FC016081718182E6EA
:1059F0000E94792C87FF03C08DEF0C9423100C9428
:105A000012100E94DD1821E0892B09F420E0822F7A
:105A10000895CF93813649F0CFEF823699F481E033
:105A20000E949C35C82F82E605C080E00E949C350C
:105A3000C82F81E60E94012D811104C0CFEF8C2F69
:105A4000CF91089540E063E084E70E94752386E6E5
:105A50009EE00197F1F7000040E863E084E70E94D0
:105A60007523EDCFCF9381E60E94012D882309F4A1
:105A700048C080E00E949C35C82F40EF66E084E774
:105A80000E94752340E066E084E70E94752340EFA2
:105A900062E084E70E9475234FE767E084E70E9495
:105AA000752340E863E084E70E94752381E60E9445
:105AB000092D82E60E94012D8823E1F181E00E94F8
:105AC0009C35C80F40EF66E084E70E94752340E0F4
:105AD00066E084E70E94752340EF62E084E70E945D
