:100D00001201000200000040EF0301100000010288
:100D100000010A06000200000040010009022E0046
:100D200001010040320904000004FF000000070533
:100D30000202000200070504020002000705860205
:100D40000002000705880200020009022E000101CE
:100D50000040320904000004FF0000000705020201
:100D6000400000070504024000000705860240001D
:100D70000007058802400000040309041003500026
:100D8000690063006100720072006F001803500078
:100D9000690063006100720072006F002D00550051
:060DA000530042000000B8
:0A1099000001020203030404050530
:1007E200E4F513F512F511F510C203C200C202C2FC
:1007F20001120B217E0D7F008E238F24752B0D7528
:100802002C1275210D75221C75290D752A4A752D1C
:100812000D752E78EE54E0700302092675140075EA
:1008220015808E168F17C374A49FFF740D9ECF245C
:1008320002CF3400FEE48F0F8E0EF50DF50CF50B92
:10084200F50AF509F508AF0FAE0EAD0DAC0CAB0B0A
:10085200AA0AA909A808C3120E675026E515250B96
:10086200F582E514350AF58374CDF0E50B2401F524
:100872000BE4350AF50AE43509F509E43508F5080B
:1008820080C4E4F50BF50AF509F508AF0FAE0EAD1D
:100892000DAC0CAB0BAA0AA909A808C3120E67502B
:1008A20031AE0AAF0BE5172FF582E5163EF583E070
:1008B200FDE5152FF582E5143EF583EDF0EF2401F9
:1008C200F50BE43EF50AE43509F509E43508F508C7
:1008D20080B985142385152474002480FF740D3497
:1008E200FFFEC3E52C9FF52CE52B9EF52BC3E526D9
:1008F2009FF526E5259EF525C3E5289FF528E527E2
:100902009EF527C3E5229FF522E5219EF521C3E549
:100912002A9FF52AE5299EF529C3E52E9FF52EE5A6
:100922002D9EF52DD2E843D82090E668E04409F0E8
:1009320090E65CE0443DF0D2AF90E680E020E10535
:10094200D205120EEB90E680E054F7F0538EF8C217
:10095200033001051203F1C201300329120CFE50CB
:1009620024C203120F9A20001690E682E030E704B8
:10097200E020E1EF90E682E030E604E020E0E412DD
:0A0982000F1A1210AF12061280C700
:1003F10090E6B9E0700302049F14700302051C2407
:10040100FE700302059F24FB70030204991470031C
:10041100020493146070146073240560030205FEE6
:100421001210B1400302060A90E6BBE024FE6022EE
:1004310014603324FD601114602224067045E52305
:1004410090E6B3F0E5248034E52B90E6B3F0E52C9B
:10045100802AE52590E6B3F0E5268020E52790E6A1
:10046100B3F0E528801690E6BAE0FF120F46AA061F
:10047100A907EA49600DEE90E6B3F0EF90E6B4F01B
:1004810002060A02060312108702060A1210A302CC
:10049100060A120BB902060A12107502060A121098
:1004A100B3400302060A90E6B8E0247F60151460A9
:1004B1001924027063A200E43325E0FFA202E433B1
:1004C1004F8041E490E740F0803F90E6BCE0547EED
:1004D100FF7E00E0D394807C0040047D0180027D9A
:1004E10000EC4EFEED4F2499F58274103EF583E445
:1004F10093FF3395E0FEEF24A1FFEE34E68F82F502
:1005010083E0540190E740F0E4A3F090E68AF09094
:10051100E68B7402F002060A0206031210B54003CC
:1005210002060A90E6B8E024FE6016240260030287
:10053100060A90E6BAE0B40105C20002060A020604
:100541000390E6BAE0705590E6BCE0547EFF7E0071
:10055100E0D394807C0040047D0180027D00EC4E5C
:10056100FEED4F2499F58274103EF583E493FF3339
:1005710095E0FEEF24A1FFEE34E68F82F583E0548F
:10058100FEF090E6BCE05480131313541FFFE054B7
:100591000F2F90E683F0E04420F0806D806412100C
:1005A100B7506690E6B8E024FE60192402705A90B4
:1005B100E6BAE0B40104D200804F90E6BAE06402EA
:1005C1006047803E90E6BCE0547EFF7E00E0D3941D
:1005D100807C0040047D0180027D00EC4EFEED4FE9
:1005E1002499F58274103EF583E493FF3395E0FE80
:1005F100EF24A1FFEE34E68F82F58380081200809C
:10060100500790E6A0E04401F090E6A0E04480F0BD
:0106110022C6
:030033000210AB0D
:0410AB0053D8EF32F5
:10098C00608018002101013F01013F0701000003B5
:10099C000000030007030103070507070900000017
:1009AC000000003F2101013F01013F07010002014E
:1009BC0000020100070200020604060709000000FD
:1009CC000000003F02021302022EB80700000102D1
:1009DC0000010300030101070505070700000000E3
:1009EC0000002D3F02021302022E380700020304FE
:1009FC0002030500020000060404070700000000C3
:100A0C0000002D3F6024188700000000000000004B
:100A1C0000000000000000000000000000000000CA
:100A2C00000000000000000000000000471880E0FB
:060A3C00000007EA4E0075
:100A660090E60174EAF090E6F574FFF0901880E0E5
:100A760090E6F3F0901881E090E6C3F0901882E0DB
:100A860090E6C1F0901883E090E6C2F0901885E0F9
:100A960090E6C0F0901886E090E6F4F075AF077423
:100AA60018F59A7400F59B759DE4E4F59EFF90E6B3
:100AB6007BE090E67CF00FBF80F4E490E671F0F501
:100AC600B490E672E0547FF053B67F000000E490E5
:100AD600E6C4F000000090E6C5F0901887E090E6C6
:100AE600C6F0901888E090E6C7F0901889E090E686
:100AF600C8F090188AE090E6C9F090188BE090E66E
:100B0600CAF090188CE090E6CBF090188DE090E655
:0A0B1600CCF090188EE090E6CDF0D0
:010B200022B2
:100A42004218B000004118AF004218AB0000C104C8
:100A52000234000002310000012F004118AD0041B4
:030A620018AE00CB
:0C0FBF0090E741E090E740FEE0FDEDFF10
:100FCB00AD07AC06E5BB30E7FB90E6F0ECF0ED903F
:040FDB00E6F1F02229
:060F7200AB1AAA1BA91C2A
:100F7800E5BB30E7FB90E6F1E0F52FE5BB30E7FB9A
:100F880090E6F2E0FE90E6F0E0FDEDFFEE8FF00275
:020F98000E4801
:100B210000000090E600E054E74410F0000000905F
:100B3100E605E054FDF0D20090E61074A0F090E6D6
:100B410011F000000090E612F0000000E490E613BE
:100B5100F000000090E61474E0F0000000E490E67C
:100B610015F000000090E6047480F00000007402AB
:100B7100F00000007406F0000000E4F000000090B6
:100B8100E61804F00000007411F000000090E61A6D
:100B91007409F0000000E490E68DF0120A6690E618
:100BA100727408F075B693E4F5B1F59890E67004A7
:080BB100F043B2BE7580812201
:10061200E5BB20E7030206BEE5AB30E1030206BEFE
:1006220090E6F4E070047F0180027F00EF20E0F0AA
:1006320090E6ABE0FE90E6ACE0FDAC06ECC313FC4A
:10064200ED1324FEFD74FF3CFCD3ED9400EC94000A
:100652004025758089AF0490E6D0EFF0000000AF2E
:1006620005EF90E6D1F0000000E4F5BB000000E5E4
:10067200BB30E7FB00000090E6F4E070047F0180ED
:10068200027F00EF20E0F075808DE490E6D0F0006C
:10069200000090E6D17402F0000000E4F5BB000017
:1006A20000E5BB30E7FB00000090E6F4E070047F59
:1006B2000180027F00EF20E0F00000009018ABE024
:1006C2007002A3E070030207ACE5BB20E703020758
:1006D200ACE5AC30E0030207AC90E6F4E070047FD6
:1006E2000180027F00EF20E0F09018ACE024FEF0E1
:1006F2009018ABE034FFF0D3A3E094009018ABE085
:10070200648094804038758089E490E6CEF00000E1
:100712000090E6CFF00000009018ABE0FCA3E0FDF3
:10072200EC90E6D0F0000000ED90E6D1F000000081
:1007320075BB06000000E5BB30E7FB0000007580DA
:100742008DE490E6CEF000000090E6CFF0000000CD
:1007520090E6D0F000000090E6D17402F0000000B4
:1007620075BB06000000E5BB30E7FB00000090E629
:10077200AFE0FE90E6B0E0FDEEF531EDF532C39567
:1007820035E5319534500690E6487406F0E4901849
:10079200ABF0A3F075808D90E6F4E070047F0180E9
:1007A200027F00EF20E0F00000009018B0E475F046
:1007B20001120E32AFF0FEBE2725BF10229018AFF5
:1007C200E07F01600A120FDFE49018AFF080091297
:0F07D2000FFC9018AF7401F0E49018B0F0A3F092
:0107E10022F5
:020CFE00D322FF
:0210AF00D3224A
:0210B100D32248
:100BB90090E680E030E71D00000090E6247402F022
:100BC900000000E490E625F0000000D2047534022C
:100BD900F535801B000000E490E624F00000009049
:100BE900E6257440F0000000C204753400F5359024
:070BF900E6BAE0F533D32258
:1010750090E740E533F0E490E68AF090E68B04F0E3
:02108500D32274
:0810A30090E6BAE0F530D3221B
:1010870090E740E530F0E490E68AF090E68B04F0D4
:02109700D32262
:0210B300D32246
:0210B500D32244
:0210B700D32242
:1000800090E6BBE0FE90E6BAE0FDEEF518EDF5195E
:1000900090E6BFE0FE90E6BEE0FDEDFFE4F51DF565
:1000A0001E90E6B9E02450603624F0B40A00400304
:1000B0000203ED9000C175F003A4C58325F0C5834C
:1000C000730200F60201FC02024902028B0202D80E
:1000D00002031B02034802019602036E0203999079
:1000E000E74074E9F0A37403F0E490E68AF090E648
:1000F0008B74020203E3E5186003020194E51924FE
:10010000FE603B1460662402600302019475B6939E
:1001100075B110000000000000000053B1EF0000B6
:1001200000000000000043B11075B68390E74074F2
:1001300001F0E490E68AF090E68B040203E3E49099
:10014000E68BF0E5BA20E0FBE4FDFCC3ED9FEC9EFE
:1001500040030203EF74402DF582E434E7F583E0B9
:10016000F5995398FD0DBD00010C80DFAFB1EF3064
:10017000E6047E0280027E00EF30E5047F0180020B
:100180007F00EF4E90E740F0E490E68AF090E68B37
:10019000040203E3D322E5187060E51924FE601B16
:1001A00014602A24027053A204E43390E740F0E480
:1001B00090E68AF090E68B040203E390E740E5BB0B
:1001C000F0E490E68AF090E68B040203E390E6D137
:1001D000E090E740F090E6D0E090E741F090E6CF85
:1001E000E090E742F090E6CEE090E743F0E490E65E
:1001F0008AF090E68B74040203E3D32290E6F4E0E5
:1002000070047F0180027F00EF20E0F0751A017515
:100210001BE7751C40758081000000120F72E5BB62
:1002200030E7FB7402251CF51CE4351BF51B7580BB
:1002300083000000120F72E5BB30E7FBE490E68A12
:10024000F090E68B74040203E3E490E68BF0E5BAE9
:1002500020E0FB90E6F4E070047F0180027F00EF75
:1002600020E0F0758081000000120FBFE5BB30E791
:10027000FB75808300000090E743E090E742120F97
:10028000C6E5BB30E7030203EF80F690E6F4E070CA
:10029000047F0180027F00EF20E0F0751A01751BDA
:1002A000E7751C40758085000000120F72E5BB30B9
:1002B000E7FB7402251CF51CE4351BF51B758087D4
:1002C000000000120F72E5BB30E7FBE490E68AF015
:1002D00090E68B74040203E3E490E68BF0E5BA2029
:1002E000E0FB90E6F4E070047F0180027F00EF20E5
:1002F000E0F0758085000000120FBFE5BB30E7FB22
:1003000075808700000090E743E0FE90E742120FFF
:10031000C7E5BB30E7030203EF80F6E490E68BF01D
:10032000E5BA20E0FB90E741E0FE90E740E0FDED1C
:10033000FF9018ABEEF0A3EFF09018ABE0A2E7133C
:10034000F0A3E013F00203EF90E6047480F00000E5
:10035000007406F0000000E4F000000090E74004A4
:10036000F0E490E68AF090E68B04F00203EFE519E2
:1003700030E00553807F8003438080E51930E1053C
:100380005380FE800343800190E740E519F0E4903C
:10039000E68AF090E68B04804A90E680E04408F01C
:1003A000E4FFFEE4FDFCEF2DFBEE3CFAEB251EF531
:1003B0001EEA351DF51D0DBD00010CED64644C7089
:1003C000E50FBF00010EBE03DABFE8D700000090C2
:1003D000E680E054F7F0E490E740F090E68AF09091
:1003E000E68B04F090E6A0E04480F08002D322C3C4
:0103F00022EA
:10101900C0E0C083C082D2015391EF90E65D7401B4
:08102900F0D082D083D0E03248
:10104900C0E0C083C0825391EF90E65D7404F0D094
:0610590082D083D0E032DA
:10105F00C0E0C083C0825391EF90E65D7402F0D080
:06106F0082D083D0E032C4
:100EB500C0E0C083C082852925852A2685268285AE
:100EC5002583A37402F0852127852228852882851C
:100ED5002783A37407F05391EF90E65D7410F0D06B
:060EE50082D083D0E03250
:10103100C0E0C083C082D2035391EF90E65D740893
:08104100F0D082D083D0E03230
:100E7800C0E0C083C08290E680E030E7208521256D
:100E8800852226852682852583A37402F085292755
:100E9800852A28852882852783A37407F05391EF34
:0D0EA80090E65D7420F0D082D083D0E0325F
:0110B9003204
:0110BA003203
:0110BB003202
:0110BC003201
:0110BD003200
:0110BE0032FF
:0110BF0032FE
:0110C00032FD
:0110C10032FC
:0110C20032FB
:0110C30032FA
:0110C40032F9
:0110C50032F8
:0110C60032F7
:0110C70032F6
:0110C80032F5
:0110C90032F4
:0110CA0032F3
:0110CB0032F2
:0110CC0032F1
:0110CD0032F0
:0110CE0032EF
:0110CF0032EE
:0110D00032ED
:0110D10032EC
:0110D20032EB
:0110D30032EA
:0110D40032E9
:0110D50032E8
:0110D60032E7
:0110D70032E6
:0110D80032E5
:0110D90032E4
:0110DA0032E3
:0110DB0032E2
:0110DC0032E1
:100FDF00EF30E00353B1FEEF30E10353B1FDEF30DB
:0D0FEF00E20353B17FEF30E3035380EF22A4
:100FFC00EF30E00343B101EF30E10343B102EF30D6
:0D100C00E20343B180EF30E3034380102284
:100F1A0090E682E030E004E020E60B90E682E030E2
:100F2A00E119E030E71590E680E04401F07F147E95
:0C0F3A0000120CB890E680E054FEF0229B
:100F9A0090E682E044C0F090E681F04387010000C9
:040FAA000000002221
:100EEB0030050990E680E0440AF0800790E680E048
:100EFB004408F07FDC7E05120CB890E65D74FFF0C1
:0F0F0B0090E65FF05391EF90E680E054F7F0220C
:020F4600A907F9
:100F4800AE2DAF2E8F828E83A3E064037017AD01A0
:100F580019ED7001228F828E83E07C002FFDEC3E1C
:090F6800FEAF0580DF7E007F0072
:010F7100225D
:100CB8008E188F1990E600E054187012E519240177
:100CC800FFE43518C313F518EF13F519801590E6EE
:100CD80000E05418FFBF100BE51925E0F519E518D9
:100CE80033F518E5191519AE18700215184E600578
:060CF800120FAE80EE2297
:100FAE007400F58690FDA57C05A3E582458370F956
:010FBE002210
:03004300020C00AC
:03005300020C009C
:100C00000210190002105F000210490002103100AA
:100C1000020EB500020E78000210B9000210BA00F0
:100C20000210BB000210BC000210BD000210BE008A
:100C30000210BF000210C0000210C1000210C2006A
:100C40000210C3000210BA000210C4000210C50056
:100C50000210C6000210C7000210C8000210C9002E
:100C60000210CA000210BA000210BA000210BA0044
:100C70000210CB000210CC000210CD000210CE00FA
:100C80000210CF000210D0000210D1000210D200DA
:100C90000210D3000210D4000210D5000210D600BA
:100CA0000210D7000210D8000210D9000210DA009A
:080CB0000210DB000210DC0061
:03000000020DA648
:0C0DA600787FE4F6D8FD758135020DED74
:100E3200C5F0F8A3E028F0C5F0F8E582158270024B
:060E42001583E038F022E8
:100E4800BB010A89828A83F0E5F0A3F0225006F7F5
:0F0E580009A7F01922BBFE06F3E5F009F31922F2
:100E6700EB9FF5F0EA9E42F0E99D42F0E89C45F0E1
:010E77002258
:100DB2000207E2E493A3F8E493A34003F68001F26E
:100DC20008DFF48029E493A3F85407240CC8C33342
:100DD200C4540F4420C8834004F456800146F6DF11
:100DE200E4800B010204081020408090098CE47E0C
:100DF200019360BCA3FF543F30E509541FFEE49306
:100E0200A360010ECF54C025E060A840B8E493A3CC
:100E1200FAE493A3F8E493A3C8C582C8CAC583CAF7
:100E2200F0A3C8C582C8CAC583CADFE9DEE780BEAF
:010A65000090
:00000001FF
