:100C00001201000200000040EF0301100000010289
:100C100000010A06000200000040010009022E0047
:100C200001010080320904000004FF0000000705F4
:100C30000202000200070504020002000705860206
:100C40000002000705880200020009022E000101CF
:100C50000080320904000004FF00000007050202C2
:100C6000400000070504024000000705860240001E
:100C70000007058802400000040309041003500027
:100C8000690063006100720072006F001803500079
:100C9000690063006100720072006F002D00550052
:060CA000530042000000B9
:0A100A0000010202030304040505BF
:1005A800E4F513F512F511F510C203C200C202C238
:1005B80001120CA67E0C7F008E238F24752B0C75E0
:1005C8002C1275210C75221C75290C752A4A752D5B
:1005D8000C752E78EE54E070030206EC7514007565
:1005E80015808E168F17C374A49FFF740C9ECF249A
:1005F80002CF3400FEE48F0F8E0EF50DF50CF50BCF
:10060800F50AF509F508AF0FAE0EAD0DAC0CAB0B46
:10061800AA0AA909A808C3120DFD5026E515250B3D
:10062800F582E514350AF58374CDF0E50B2401F560
:100638000BE4350AF50AE43509F509E43508F50847
:1006480080C4E4F50BF50AF509F508AF0FAE0EAD59
:100658000DAC0CAB0BAA0AA909A808C3120DFD50D2
:1006680031AE0AAF0BE5172FF582E5163EF583E0AC
:10067800FDE5152FF582E5143EF583EDF0EF240135
:10068800F50BE43EF50AE43509F509E43508F50803
:1006980080B985142385152474002480FF740C34D4
:1006A800FFFEC3E52C9FF52CE52B9EF52BC3E52615
:1006B8009FF526E5259EF525C3E5289FF528E5271E
:1006C8009EF527C3E5229FF522E5219EF521C3E586
:1006D8002A9FF52AE5299EF529C3E52E9FF52EE5E3
:1006E8002D9EF52DD2E843D82090E668E04409F025
:1006F80090E65CE0443DF0D2AF90E680E020E10572
:10070800D205120E8190E680E054F7F0538EF8C2BD
:1007180003300105120387C201300329120AFE5073
:1007280024C203120AD920001690E682E030E704BA
:10073800E020E1EF90E682E030E604E020E0E41219
:0A0748000EB0120BFE12075280C71C
:1003870090E6B9E070030204351470030204B22446
:10039700FE700302053524FB700302042F1470035B
:1003A7000204291460701460732405600302059425
:1003B70012102040030205A090E6BBE024FE602255
:1003C70014603324FD601114602224067045E52370
:1003D70090E6B3F0E5248034E52B90E6B3F0E52C06
:1003E700802AE52590E6B3F0E5268020E52790E60C
:1003F700B3F0E528801690E6BAE0FF120EDCAA06F5
:10040700A907EA49600DEE90E6B3F0EF90E6B4F085
:100417000205A0020599120FF80205A01210140296
:1004270005A0120A920205A0120FE60205A01210FB
:100437002240030205A090E6B8E0247F601514600F
:100447001924027063A200E43325E0FFA202E4331B
:100457004F8041E490E740F0803F90E6BCE0547E57
:10046700FF7E00E0D394807C0040047D0180027D04
:1004770000EC4EFEED4F240AF58274103EF583E43E
:1004870093FF3395E0FEEF24A1FFEE34E68F82F56C
:1004970083E0540190E740F0E4A3F090E68AF090FF
:1004A700E68B7402F00205A002059912102440039E
:1004B7000205A090E6B8E024FE601624026003025D
:1004C70005A090E6BAE0B40105C2000205A0020546
:1004D7009990E6BAE0705590E6BCE0547EFF7E0046
:1004E700E0D394807C0040047D0180027D00EC4EC7
:1004F700FEED4F240AF58274103EF583E493FF3333
:1005070095E0FEEF24A1FFEE34E68F82F583E054F9
:10051700FEF090E6BCE05480131313541FFFE05421
:100527000F2F90E683F0E04420F0806D8064121076
:1005370026506690E6B8E024FE60192402705A90AF
:10054700E6BAE0B40104D200804F90E6BAE0640254
:100557006047803E90E6BCE0547EFF7E00E0D39487
:10056700807C0040047D0180027D00EC4EFEED4F53
:10057700240AF58274103EF583E493FF3395E0FE79
:10058700EF24A1FFEE34E68F82F583800812008006
:10059700500790E6A0E04401F090E6A0E04480F028
:0105A7002231
:0300330002101C9C
:04101C0053D8EF3284
:1008FC00608018002101013F01013F070100000346
:10090C0000000300070301030705070709000000A7
:10091C000000003F2101013F01013F0701000201DE
:10092C00000201000702000206040607090000008D
:10093C000000003F02021302022EB8070000010261
:10094C000001030003010107050507070000000073
:10095C0000002D3F02021302022E3807000203048E
:10096C000203050002000006040407070000000053
:10097C0000002D3F602418870000000000000000DC
:10098C00000000000000000000000000000000005B
:10099C00000000000000000000000000471880E08C
:0609AC00000007EA4E0006
:1009D60090E60174EAF090E6F574FFF0901880E076
:1009E60090E6F3F0901881E090E6C3F0901882E06C
:1009F60090E6C1F0901883E090E6C2F0901885E08A
:100A060090E6C0F0901886E090E6F4F075AF0774B3
:100A160018F59A7400F59B759DE4E4F59EFF90E643
:100A26007BE090E67CF00FBF80F490E67174FFF0F7
:100A3600F5B490E672E04480F043B680000000E42E
:100A460090E6C4F000000090E6C5F0901887E090AC
:100A5600E6C6F0901888E090E6C7F0901889E09016
:100A6600E6C8F090188AE090E6C9F090188BE090FE
:100A7600E6CAF090188CE090E6CBF090188DE090E6
:0B0A8600E6CCF090188EE090E6CDF07A
:010A91002242
:1009B2004218B000004118AF004218AB0000C10459
:1009C2000234000002310000012F004118AD004145
:0309D20018AE005C
:0C0F300090E741E090E740FEE0FDEDFF9F
:100F3C00AD07AC06E5BB30E7FB90E6F0ECF0ED90CE
:040F4C00E6F1F022B8
:060F0800AB1AAA1BA91C94
:100F0E00E5BB30E7FB90E6F1E0F52FE5BB30E7FB04
:100F1E0090E6F2E0FE90E6F0E0FDEDFFEE8FF002DF
:020F2E000DDED6
:100CA60090E600E054E74410F000000090E605E00E
:100CB60054FDF0D20090E61074A0F090E611F0001A
:100CC600000090E612F0000000E490E613F0000049
:100CD6000090E61474E0F0000000E490E615F000E1
:100CE600000090E6047480F00000007402F000003A
:100CF600007406F0000000E4F000000090E618041E
:100D0600F00000007411F000000090E61A7409F07B
:100D1600000000E490E68DF01209D690E6727408A1
:100D2600F075B69375B110E4F59890E67004F0434B
:060D3600B2FE758081226F
:10075200E5BB20E7030207EBE5AB30E1030207EB61
:1007620090E6F4E070047F0180027F00EF20E0F069
:1007720090E6ABE0FE90E6ACE0FDAC06ECC313FC09
:10078200ED1324FEFD74FF3CFCD3ED9400EC9400C9
:100792004025758089AF0490E6D0EFF0000000AFED
:1007A20005EF90E6D1F0000000E4F5BB000000E5A3
:1007B200BB30E7FB00000090E6F4E070047F0180AC
:1007C200027F00EF20E0F075808DE490E6D0F0002B
:1007D200000090E6D17402F0000000E4F5BB0000D6
:1007E20000E5BB30E7FB0000009018ABE07002A30D
:1007F200E070030208C6E5BB20E7030208C6E5ACC9
:1008020030E0030208C690E6F4E070047F01800243
:100812007F00EF20E0F09018ACE024FEF09018ABDF
:10082200E034FFF0D3A3E094009018ABE06480942E
:10083200804038758089E490E6CEF000000090E6B2
:10084200CFF00000009018ABE0FCA3E0FDEC90E6D6
:10085200D0F0000000ED90E6D1F000000075BB067C
:10086200000000E5BB30E7FB00000075808DE490DE
:10087200E6CEF000000090E6CFF000000090E6D057
:10088200F000000090E6D17402F000000075BB0693
:10089200000000E5BB30E7FB00000090E6AFE0FEA1
:1008A20090E6B0E0FDEEF531EDF532C39535E53178
:1008B2009534500690E6487406F0E49018ABF0A325
:1008C200F075808D9018B0E475F001120DC8AFF08C
:1008D200FEBE2725BF10229018AFE07F01600A12EA
:1008E2000F50E49018AFF08009120F6D9018AF749A
:0908F20001F0E49018B0F0A3F04D
:0108FB0022DA
:020AFE00D32201
:020BFE00D32200
:02102000D322D9
:100A920090E680E030E71D00000090E6247402F04A
:100AA200000000E490E625F0000000D20475340254
:100AB200F535801B000000E490E624F00000009071
:100AC200E6257440F0000000C204753400F535904C
:070AD200E6BAE0F533D32280
:100FE60090E740E533F0E490E68AF090E68B04F073
:020FF600D32204
:0810140090E6BAE0F530D322AA
:100FF80090E740E530F0E490E68AF090E68B04F064
:02100800D322F1
:02102200D322D7
:02102400D322D5
:02102600D322D3
:1000800090E6BBE0FE90E6BAE0FDEEF518EDF5195E
:1000900090E6BFE0FE90E6BEE0FDEDFF90E6B9E041
:1000A0002450603324F0B40900400302038390001D
:1000B000BC75F003A4C58325F0C583730200EE026E
:1000C00001E002022D02026F0202BC0202FF0203E3
:1000D0002B02017A02035090E74074E9F0A3740305
:1000E000F0E490E68AF090E68B7402020379E5185A
:1000F0006003020178E51924FE602714605224028F
:10010000707653B1EF000000000000000043B11012
:1001100090E7407401F0E490E68AF090E68B0402E8
:100120000379E490E68BF0E5BA20E0FBE4FDFCC344
:10013000ED9FEC9E400302038574402DF582E4346C
:10014000E7F583E0F5995398FD0DBD00010C80DFC4
:10015000AFB1EF30E6047E0280027E00EF30E504AE
:100160007F0180027F00EF4E90E740F0E490E68A46
:10017000F090E68B04020379D322E5187060E5194C
:1001800024FE601B14602A24027053A204E43390FE
:10019000E740F0E490E68AF090E68B040203799061
:1001A000E740E5BBF0E490E68AF090E68B040203BA
:1001B0007990E6D1E090E740F090E6D0E090E7411A
:1001C000F090E6CFE090E742F090E6CEE090E74393
:1001D000F0E490E68AF090E68B7404020379D3226F
:1001E00090E6F4E070047F0180027F00EF20E0F0F1
:1001F000751A01751BE7751C40758081000000129F
:100200000F08E5BB30E7FB7402251CF51CE4351B29
:10021000F51B758083000000120F08E5BB30E7FB7B
:10022000E490E68AF090E68B7404020379E490E6A9
:100230008BF0E5BA20E0FB90E6F4E070047F0180EB
:10024000027F00EF20E0F0758081000000120F3087
:10025000E5BB30E7FB75808300000090E743E0904A
:10026000E742120F37E5BB30E70302038580F690C3
:10027000E6F4E070047F0180027F00EF20E0F0757B
:100280001A01751BE7751C40758085000000120F70
:1002900008E5BB30E7FB7402251CF51CE4351BF5B3
:1002A0001B758087000000120F08E5BB30E7FBE4F8
:1002B00090E68AF090E68B7404020379E490E68B72
:1002C000F0E5BA20E0FB90E6F4E070047F018002E4
:1002D0007F00EF20E0F0758085000000120F30E510
:1002E000BB30E7FB75808700000090E743E0FE909D
:1002F000E742120F38E5BB30E70302038580F6E4DE
:1003000090E68BF0E5BA20E0FB90E741E0FE90E755
:1003100040E0FDEDFF9018ABEEF0A3EFF09018ABCE
:10032000E0A2E713F0A3E013F0805A90E604748093
:10033000F00000007406F0000000E4F000000090FF
:10034000E74004F0E490E68AF090E68B04F0803514
:10035000E51930E00553807F8003438080E5193044
:10036000E1055380FE800343800190E740E519F0EA
:10037000E490E68AF090E68B04F090E6A0E04480FA
:06038000F08002D322C34D
:010386002254
:100F8A00C0E0C083C082D2015391EF90E65D740144
:080F9A00F0D082D083D0E032D8
:100FBA00C0E0C083C0825391EF90E65D7404F0D024
:060FCA0082D083D0E0326A
:100FD000C0E0C083C0825391EF90E65D7402F0D010
:060FE00082D083D0E03254
:100E4B00C0E0C083C082852925852A268526828518
:100E5B002583A37402F08521278522288528828586
:100E6B002783A37407F05391EF90E65D7410F0D0D5
:060E7B0082D083D0E032BA
:100FA200C0E0C083C082D2035391EF90E65D740823
:080FB200F0D082D083D0E032C0
:100E0E00C0E0C083C08290E680E030E720852125D7
:100E1E00852226852682852583A37402F0852927BF
:100E2E00852A28852882852783A37407F05391EF9E
:0D0E3E0090E65D7420F0D082D083D0E032C9
:011028003295
:011029003294
:01102A003293
:01102B003292
:01102C003291
:01102D003290
:01102E00328F
:01102F00328E
:01103000328D
:01103100328C
:01103200328B
:01103300328A
:011034003289
:011035003288
:011036003287
:011037003286
:011038003285
:011039003284
:01103A003283
:01103B003282
:01103C003281
:01103D003280
:01103E00327F
:01103F00327E
:01104000327D
:01104100327C
:01104200327B
:01104300327A
:011044003279
:011045003278
:011046003277
:011047003276
:011048003275
:011049003274
:01104A003273
:01104B003272
:100F5000EF30E00353B1FEEF30E10353B1FDEF306A
:0D0F6000E20353B17FEF30E3035380EF2233
:100F6D00EF30E00343B101EF30E10343B102EF3065
:0D0F7D00E20343B180EF30E3034380102214
:100EB00090E682E030E004E020E60B90E682E0304D
:100EC000E119E030E71590E680E04401F07F147E00
:0C0ED00000120BB890E680E054FEF02207
:100AD90090E682E044C0F090E681F043870100008F
:040AE90000000022E7
:100E810030050990E680E0440AF0800790E680E0B2
:100E91004408F07FDC7E05120BB890E65D74FFF02C
:0F0EA10090E65FF05391EF90E680E054F7F02277
:020EDC00A90764
:100EDE00AE2DAF2E8F828E83A3E064037017AD010B
:100EEE0019ED7001228F828E83E07C002FFDEC3E87
:090EFE00FEAF0580DF7E007F00DD
:010F070022C7
:100BB8008E188F1990E600E054187012E519240178
:100BC800FFE43518C313F518EF13F519801590E6EF
:100BD80000E05418FFBF100BE51925E0F519E518DA
:100BE80033F518E5191519AE18700215184E600579
:060BF800120AED80EE225E
:100AED007400F58690FDA57C05A3E582458370F91C
:010AFD0022D6
:03004300020B00AD
:03005300020B009D
:100B0000020F8A00020FD000020FBA00020FA200EB
:100B1000020E4B00020E0E000210280002102900E7
:100B200002102A0002102B0002102C0002102D00CF
:100B300002102E0002102F000210300002103100AF
:100B4000021032000210290002103300021034009B
:100B50000210350002103600021037000210380073
:100B60000210390002102900021029000210290089
:100B700002103A0002103B0002103C0002103D003F
:100B800002103E0002103F0002104000021041001F
:100B900002104200021043000210440002104500FF
:100BA00002104600021047000210480002104900DF
:080BB00002104A0002104B0084
:03000000020D3CB2
:0C0D3C00787FE4F6D8FD758135020D8348
:100DC800C5F0F8A3E028F0C5F0F8E58215827002B6
:060DD8001583E038F02253
:100DDE00BB010A89828A83F0E5F0A3F0225006F760
:0F0DEE0009A7F01922BBFE06F3E5F009F319225D
:100DFD00EB9FF5F0EA9E42F0E99D42F0E89C45F04C
:010E0D0022C2
:100D48000205A8E493A3F8E493A34003F68001F214
:100D580008DFF48029E493A3F85407240CC8C333AC
:100D6800C4540F4420C8834004F456800146F6DF7B
:100D7800E4800B01020408102040809008FCE47E07
:100D8800019360BCA3FF543F30E509541FFEE49370
:100D9800A360010ECF54C025E060A840B8E493A337
:100DA800FAE493A3F8E493A3C8C582C8CAC583CA62
:100DB800F0A3C8C582C8CAC583CADFE9DEE780BE1A
:0109D5000021
:00000001FF
