:101300001201000200000040EF0301100000010282
:1013100000010A06000200000040010009022E0040
:10132000010100C0000904000004FF0000000705DF
:1013300002020002000705040200020007058602FF
:101340000002000705880200020009022E000101C8
:1013500000C0320904000004FF000000070502027B
:101360004000000705040240000007058602400017
:101370000007058802400000040309041003500020
:10138000690063006100720072006F001803500072
:10139000690063006100720072006F002D0055004B
:0613A000530042000000B2
:0A12F60000010202030304040505D1
:100A8F00901F91120EB400000000C203C200C202F8
:100A9F00C201120FC77E137F00901FA6EEF0A3EFC7
:100AAF00F0901FAE7413F0A37412F0901FA4741380
:100ABF00F0A3741CF0901FAC7413F0A3744AF09061
:100ACF001FB07413F0A37478F0EE54E07003020CAF
:100ADF0049901F95E4F0A37480F0A3EEF0A3EFF01C
:100AEF00C374A49FFF74139ECF2402CF3400FEE47F
:100AFF00FCFD901F8D120EA8901F89120EB40000DE
:100B0F000000901F8DE0FCA3E0FDA3E0FEA3E0FF3B
:100B1F00901F89E0F8A3E0F9A3E0FAA3E0FBC3126A
:100B2F000E97503A901F8BE0FEA3E0FF901F95E0C9
:100B3F00FCA3E02FF582EC3EF58374CDF0901F8976
:100B4F00E0FCA3E0FDA3E0FEA3E02401FFE43EFEF2
:100B5F00E43DFDE43CFC901F89120EA880A4901F79
:100B6F0089120EB400000000901F8DE0FCA3E0FD81
:100B7F00A3E0FEA3E0FF901F89E0F8A3E0F9A3E054
:100B8F00FAA3E0FBC3120E975049901F8BE0FEA310
:100B9F00E0FF901F97E0FCA3E02FF582EC3EF5837A
:100BAF00E0FD901F95E0FAA3E02FF582EA3EF58372
:100BBF00EDF0901F89E0FCA3E0FDA3E0FEA3E0248D
:100BCF0001FFE43EFEE43DFDE43CFC901F89120E64
:100BDF00A88095901F95E0FFA3E0901FA6CFF0A3EC
:100BEF00EFF074002480FF741334FFFEC3901FAF27
:100BFF00E09FF0901FAEE09EF0C3901FA9E09FF022
:100C0F00901FA8E09EF0C3901FABE09FF0901FAA2B
:100C1F00E09EF0C3901FA5E09FF0901FA4E09EF010
:100C2F00C3901FADE09FF0901FACE09EF0C3901FEC
:100C3F00B1E09FF0901FB0E09EF0D2E843D8209033
:100C4F00E668E04409F090E65CE0443DF0D2AF90F6
:100C5F00E680E020E105D20512161890E680E054F8
:100C6F00F7F0538EF8C20330010512085BC2013052
:100C7F00032912181F5024C2031216A22000169027
:100C8F00E682E030E704E020E1EF90E682E030E634
:100C9F0004E020E0E412167612182112059C80C79A
:10085B0090E6B9E0700302091C1470030209992495
:10086B00FE7003020A1C24FB7003020916147003AA
:10087B0002091014700302090414700302090A24FC
:10088B00056003020A7B1218234003020A8790E6D5
:10089B00BBE024FE602814604024FD601414602B20
:1008AB0024067052901FA6E090E6B3F0901FA7802D
:1008BB0025901FAEE090E6B3F0901FAF8018901F0D
:1008CB00A8E090E6B3F0901FA9800B901FAAE090D0
:1008DB00E6B3F0901FABE0801690E6BAE0FF12167D
:1008EB0047AA06A907EA49600DEE90E6B3F0EF9030
:1008FB00E6B4F0020A87020A801217E1020A871295
:10090B0017FF020A87121598020A871217CD020ADF
:10091B00871218254003020A8790E6B8E0247F600F
:10092B001514601924027063A200E43325E0FFA2C2
:10093B0002E4334F8041E490E740F0803F90E6BC07
:10094B00E0547EFF7E00E0D394807C0040047D0168
:10095B0080027D00EC4EFEED4F24F6F58274123EC4
:10096B00F583E493FF3395E0FEEF24A1FFEE34E62D
:10097B008F82F583E0540190E740F0E4A3F090E61A
:10098B008AF090E68B7402F0020A87020A80121832
:10099B00274003020A8790E6B8E024FE6016240283
:1009AB006003020A8790E6BAE0B40105C200020AAE
:1009BB0087020A8090E6BAE0705590E6BCE0547E60
:1009CB00FF7E00E0D394807C0040047D0180027D9B
:1009DB0000EC4EFEED4F24F6F58274123EF583E4E7
:1009EB0093FF3395E0FEEF24A1FFEE34E68F82F503
:1009FB0083E054FEF090E6BCE05480131313541FB5
:100A0B00FFE0540F2F90E683F0E04420F0806D80E0
:100A1B0064121829506690E6B8E024FE601924028F
:100A2B00705A90E6BAE0B40104D200804F90E6BA57
:100A3B00E064026047803E90E6BCE0547EFF7E009F
:100A4B00E0D394807C0040047D0180027D00EC4E5D
:100A5B00FEED4F24F6F58274123EF583E493FF33DB
:100A6B0095E0FEEF24A1FFEE34E68F82F58380083C
:100A7B00120080500790E6A0E04401F090E6A0E061
:030A8B004480F0B4
:010A8E002245
:0300330002181B95
:04181B0053D8EF327D
:100EE50060801EDE2101013F01013F070100000373
:100EF50000000300070301030705070709000000B9
:100F05000000003F2101013F01013F0701000201EF
:100F1500000201000702000206040607090000009E
:100F25000000003F02021302022EB8070000010272
:100F35000001030003010107050507070000000084
:100F450000002D3F02021302022E3807000203049F
:100F55000203050002000006040407070000000064
:100F650000002D3F60241F65000000000000000008
:100F7500000000000000000000000000000000006C
:100F8500000000000000000000000000471F5EE0B8
:060F9500000007EA4E0017
:10109A0090E60174EAF090E6F574FFF0901F5EE0C6
:1010AA0090E6F3F0901F5FE090E6C3F0901F60E0D7
:1010BA0090E6C1F0901F61E090E6C2F0901F63E0F5
:1010CA0090E6C0F0901F64E090E6F4F075AF077404
:1010DA001EF59A74DEF59B759DE4E4F59EFF90E695
:1010EA007BE090E67CF00FEFB480F3E490E671F0D9
:1010FA00F5B490E672E0547FF053B67F000000E446
:10110A0090E6C4F000000090E6C5F0901F65E090FC
:10111A00E6C6F0901F66E090E6C7F0901F67E09081
:10112A00E6C8F0901F68E090E6C9F0901F69E09069
:10113A00E6CAF0901F6AE090E6CBF0901F6BE09051
:0B114A00E6CCF0901F6CE090E6CDF0CA
:011155002277
:100F9B00421ED10000411ED0004218810000C10446
:100FAB00421ED800004218860000421ED5000041A8
:0B0FBB001888004118890041188000D0
:0C16C70090E741E090E740FEE0FDEDFF01
:1016D300AD07AC06E5BB30E7FBEC90E6F0F0ED9030
:0416E300E6F1F0221A
:0B15E900901F9DE0FBA3E0FAA3E0F9D7
:1015F400E5BB30E7FB90E6F1E0901880F0E5BB3006
:10160400E7FB90E6F2E0FE90E6F0E0FDEDFFEE8F02
:04161400F0020E785A
:10175900C2AFE490188EF0A3F090188CF0A3F0902B
:08176900188AF0A3F0D2AF22B0
:1013A600E475F001120E62FE744025F0F58274E7D2
:1013B6003EF583E0FF1213D6901FA1E475F00112EB
:1013C6000E62FE744025F0F58274E73EF583E0FF79
:1013D600C2AF90188EE0B40611A3E0B4400C90188A
:1013E60088E04401F0D2AF7F002290188CE475F0BB
:1013F60001120E62FC749025F0F58274183CF58398
:10140600EFF090188CE0B4060CA3E0B44007E4902B
:10141600188CF0A3F090188FE004F0700690188EE8
:08142600E004F0D2AF7F0122C7
:0C142E00FFE4F0A3EFF07B017A1F799936
:10143A00C2AF90188EE07002A3E0700C901888E09A
:10144A004402F0D2AF7F002290188AE475F00112AC
:10145A000E62FE749025F0F58274183EF583E01250
:10146A000E1890188AE0B4060CA3E0B44007E49082
:10147A00188AF0A3F090188FE024FFF090188EE0FD
:08148A0034FFF0D2AF7F012214
:08181300E4901888F002175957
:0A17F500E4901ED5F0A3F0021813D3
:1011E200C2ADEF4430901EDAF0ECA3F0A374FFF02E
:0E11F2007A1E7BDA7D037F1012173ED2AD22EB
:100FC70000000090E600E054E74410F000000090B5
:100FD700E605E054FDF0D20090E61074A0F090E62C
:100FE70011F000000090E612F0000000E490E61314
:100FF700F000000090E61474E0F0000000E490E6D2
:1010070015F000000090E6047480F0000000740200
:10101700F00000007404F00000007406F000000007
:10102700E4F000000090E61804F00000007411F0EE
:1010370000000090E61A7409F0000000E490E68DC5
:10104700F012109A90E6727408F075B693E4F5B151
:10105700F59890E67004F043B29E758081121809E6
:1010670090E67A7401F0538EDFD2CAC2CCC2CDC2E9
:10107700C8C2CF75CB6375CAC01217F5D2AD901E23
:10108700D6E0240AFE901ED5E03400901ED3F0A3CC
:03109700CEF02276
:10059C00E5BB20E70302073CE5AB30E1030206466E
:1005AC0090E6F4E070047F0180027F00EF20E0F021
:1005BC0090E6ABE0FE90E6ACE0FDAC06ECC313FCC1
:1005CC00ED1324FEFD74FF3CFCD3ED9400EC940081
:1005DC004023758089EC90E6D0F0000000AF05EF69
:1005EC0090E6D1F0000000E4F5BB000000E5BB3064
:1005FC00E7FB00000090E6F4E070047F0180027FCE
:10060C0000EF20E0F075808DE490E6D0F000000063
:10061C0090E6D17402F0000000E4F5BB000000E5A8
:10062C00BB30E7FB00000090E6F4E070047F018033
:10063C00027F00EF20E0F0000000901881E07002D3
:10064C00A3E0700302073CE5AC30E00302073C90EA
:10065C00E6F4E070047F0180027F00EF20E0F09070
:10066C001882E024FEF0901881E034FFF0D3A3E070
:10067C009400901881E0648094804038758089E4FF
:10068C0090E6CEF000000090E6CFF000000090184D
:10069C0081E0FCA3E0FDEC90E6D0F0000000ED90D2
:1006AC00E6D1F000000075BB06000000E5BB30E7AA
:1006BC00FB00000075808DE490E6CEF00000009009
:1006CC00E6CFF000000090E6D0F000000090E6D1FC
:1006DC007402F000000075BB06000000E5BB30E7BB
:1006EC00FB00000090E6AFE0FE90E6B0E0FDEDFF11
:1006FC00901886EEF0A3EFF0901ED8E0FEA3E0FF7A
:10070C00C3901887E09F901886E09E500690E648AC
:10071C007406F0E4901881F0A3F075808D90E6F4E7
:10072C00E070047F0180027F00EF20E0F000000009
:10073C00901889E07003020827901ED5E0FEA3E014
:10074C00FFC3901ED4E09FFF901ED3E09EFED3EF1C
:10075C009400EE648094804003020827E49018898A
:10076C00F07B017A1F799A12143AEF700302082772
:10077C00901F9AE0B453EA7B017A1F799A12143ACB
:10078C00EF7003020827E4901F9CF0901F9BF090E1
:10079C001F9AE0FF604F30E034121434EF607C900D
:1007AC001F99E0901F9D12142EEF606F901F99E01F
:1007BC00FE901F9DE04EFEA3E0FF901F9DEEF0FC0F
:1007CC00A3EFF0AD07901F9CE0FF1211E2901F9C6D
:1007DC00E004F0901F9AE0FFC313F0A3E004F0E0F4
:1007EC00C3940840AAD390188FE0940090188EE020
:1007FC0094004027121434EF6021901F99E0901E52
:10080C00D312142EEF6014901F99E0FE901ED3E0CB
:10081C004EF0A3E0F09018897401F0901ED1E070B6
:10082C0002A3E0701B901ED0E07F01600A12170437
:10083C00E4901ED0F08009121721901ED07401F0A4
:0E084C00901ED2E004F07006901ED1E004F081
:01085A00227B
:02181F00D322D2
:02182100D322D0
:02182300D322CE
:1015980090E680E030E72100000090E6247402F035
:1015A800000000E490E625F0000000D204901ED868
:1015B8007404F0A3E4F0801F000000E490E624F037
:1015C80000000090E6257440F0000000C204901E60
:1015D800D8E4F0A37440F090E6BAE0901ED7F0D3B8
:0115E80022E0
:1017CD00901ED7E090E740F0E490E68AF090E68B2B
:0417DD0004F0D3221F
:0A17FF0090E6BAE0901885F0D322BE
:1017E100901885E090E740F0E490E68AF090E68B6F
:0417F10004F0D3220B
:02182500D322CC
:02182700D322CA
:02182900D322C8
:1000800090E6BBE0FE90E6BAE0FDEDFF901F99EE32
:10009000F0A3EFF090E6BFE0FE90E6BEE0FDEDFFDE
:1000A000901F9BEEF0A3EFF090E6B9E02450603F84
:1000B00024F0B40D0040030205989000C875F003C9
:1000C000A4C58325F0C5837302010602022F020234
:1000D000800202C20203130203560203830201D00C
:1000E0000203A90203DA02040E0204740204F79068
:1000F000E74074E9F0A37403F0E490E68AF090E638
:100100008B74020204EC901F99E0FEA3E0FFEE6006
:10011000030201CEEF24FE603E1470030201A1240D
:100120000260030201CE75B69375B11000000000A5
:100130000000000053B1EF00000000000000004389
:10014000B11075B68390E7407401F0E490E68AF050
:1001500090E68B040204ECE490E68BF0E5BA20E034
:10016000FBE4901FA1F0A3F0901F9BE0FEA3E0FF33
:10017000C3901FA2E09F901FA1E09E400302059A3A
:10018000A3E02440F582E434E7F583E0F599539841
:10019000FD901FA2E004F070CF901FA1E004F0805A
:1001A000C7901FA0E5B1F0E0FF30E6047E028002B8
:1001B0007E00EF30E5047F0180027F00EF4E90E784
:1001C00040F0E490E68AF090E68B040204ECD3223F
:1001D000901F99E0FEA3E0FFEE704BEF24FE60104D
:1001E00014601B2402703FA204E43390E7408005B2
:1001F00090E740E5BBF090E68B7401F0802A90E632
:10020000D1E090E740F090E6D0E090E741F090E652
:10021000CFE090E742F090E6CEE090E743F090E642
:100220008B7404F08002D322E490E68A0204EC90FE
:10023000E6F4E070047F0180027F00EF20E0F090A0
:100240001F9D7401F0A374E7F0A37440F0758081E2
:100250000000001215E9E5BB30E7FB901F9EE47536
:10026000F002120E4C7580830000001215E9E5BB08
:1002700030E7FBE490E68AF090E68B74040204EC2D
:10028000E490E68BF0E5BA20E0FB90E6F4E0700441
:100290007F0180027F00EF20E0F075808100000088
:1002A0001216C7E5BB30E7FB75808300000090E7BE
:1002B00043E090E7421216CEE5BB30E70302059A11
:1002C00080F690E6F4E070047F0180027F00EF206A
:1002D000E0F0901F9D7401F0A374E7F0A37440F068
:1002E0007580850000001215E9E5BB30E7FB901F23
:1002F0009EE475F002120E4C758087000000121506
:10030000E9E5BB30E7FBE490E68AF090E68B740405
:100310000204ECE490E68BF0E5BA20E0FB90E6F412
:10032000E070047F0180027F00EF20E0F07580859F
:100330000000001216C7E5BB30E7FB7580870000A0
:100340000090E743E0FE90E7421216CFE5BB30E7AE
:100350000302059A80F6E490E68BF0E5BA20E0FB14
:1003600090E741E0FE90E740E0FDEDFF901881EE60
:10037000F0A3EFF0901881E0A2E713F0A3E013F0F0
:1003800002059A90E6047480F00000007406F00004
:100390000000E4F000000090E74004F0E490E68AFA
:1003A000F090E68B04F002059A901F99A3E0FF30CD
:1003B000E00553807F8003438080EF30E105538068
:1003C000FE8003438001901F9AE090E740F0E490A4
:1003D000E68AF090E68B040204ECE490E68BF0E50C
:1003E000BA20E0FB90E6BAE054074430901EDAF001
:1003F00090E740E0901EDBF090E741E0901EDCF0DB
:100400007A1E7BDA7D037F1012173E02059AE49074
:10041000E68BF0E5BA20E0FB901F99E0FEA3E0FF39
:10042000EE600302059AEF24FC601014603524048A
:10043000600302059A12181302059A90E741E0FE44
:1004400090E740E0FDEDFF901ED5EEF0A3EFF0E069
:10045000240AFE901ED5E03400901ED3F0A3CEF007
:1004600002059AC2AD90E740E0F5CAA3E0F5CBD211
:10047000AD02059A901F99E0FEA3E0FFEE7069EFD0
:1004800014602A14605424FE601704705B901ED61A
:10049000E090E740F0901ED5E090E741F0D2AD80CB
:1004A0003190E740E5CAF0A3E5CBF0802590188EA7
:1004B000E0FEA3E0FFC374409F901FA2F074069E6D
:1004C000901FA1F0A3E090E740F0901FA1E090E71B
:1004D00041F090E68B7402F0800E901888E090E76F
:1004E00040F090E68B7401F0E490E68AF090E6A08C
:1004F000E04480F002059AE490E68BF0E5BA20E053
:10050000FBE4901FA1F0A3F0901F9BE0FEA3E0FF8F
:0D051000C3901FA2E09F901FA1E09E5040ED
:10051D001213A67F531213D6901FA1E475F001128A
:10052D000E62FE744025F0F58274E73EF583E0FF20
:10053D00901FA3F01213D6901FA3E060BE30E0060B
:10054D00901FA11213A6901FA3E0FFC313F080E725
:10055D00901889E070377B017A1F79A012143AEF59
:10056D00602B901FA0E0FF901ED3E4F0A3EFF012DC
:10057D00143AEF6018901FA0E0FE901ED3E04EF0ED
:0E058D00A3E0F09018897401F08002D322C31D
:01059B00223D
:1016E700C0E0C083C082901ED6E004F07006901E52
:0D16F700D5E004F0C2CFD082D083D0E03225
:10177100C0E0C083C082D2015391EF90E65D740155
:08178100F0D082D083D0E032E9
:1017A100C0E0C083C0825391EF90E65D7404F0D035
:0617B10082D083D0E0327B
:1017B700C0E0C083C0825391EF90E65D7402F0D021
:0617C70082D083D0E03265
:1014EE00C0E0C083C082C0D075D000C006C00790D7
:1014FE001FACE0FEA3E0FF901FA8EEF0A3EFF0F507
:10150E00828E83A37402F0901FA4E0FEA3E0FF90EE
:10151E001FAAEEF0A3EFF0F5828E83A37407F053AB
:10152E0091EF90E65D7410F0D007D006D0D0D08247
:05153E00D083D0E03273
:10178900C0E0C083C082D2035391EF90E65D740834
:08179900F0D082D083D0E032D1
:10149200C0E0C083C082C0D075D000C006C0079033
:1014A200E680E030E730901FA4E0FEA3E0FF901F4B
:1014B200A8EEF0A3EFF0F5828E83A37402F0901FE2
:1014C200ACE0FEA3E0FF901FAAEEF0A3EFF0F582DE
:1014D2008E83A37407F05391EF90E65D7420F0D0F1
:0C14E20007D006D0D0D082D083D0E032FA
:01182B00328A
:01182C003289
:01182D003288
:01182E003287
:01182F003286
:011830003285
:011831003284
:011832003283
:011833003282
:011834003281
:011835003280
:01183600327F
:01183700327E
:01183800327D
:01183900327C
:01183A00327B
:01183B00327A
:01183C003279
:01183D003278
:01183E003277
:01183F003276
:011840003275
:011841003274
:011842003273
:011843003272
:011844003271
:011845003270
:01184600326F
:01184700326E
:01184800326D
:01184900326C
:01184A00326B
:01184B00326A
:01184C003269
:01184D003268
:01184E003267
:10170400EF30E00353B1FEEF30E10353B1FDEF30AE
:0D171400E20353B17FEF30E3035380EF2277
:10172100EF30E00343B101EF30E10343B102EF30A9
:0D173100E20343B180EF30E3034380102258
:03004300021200A6
:0300530002120096
:10120000021771000217B7000217A1000217890028
:101210000214EE000214920002182B0002182C0097
:1012200002182D0002182E0002182F00021830009C
:10123000021831000218320002183300021834007C
:101240000218350002182C00021836000218370068
:10125000021838000218390002183A0002183B0040
:1012600002183C0002182C0002182C0002182C0056
:1012700002183D0002183E0002183F00021840000C
:1012800002184100021842000218430002184400EC
:1012900002184500021846000218470002184800CC
:1012A0000218490002184A0002184B0002184C00AC
:0812B00002184D0002184E0067
:03002B000216E7D3
:10173E001212B8901FB7E024FA600914600624074D
:0B174E0070F1D322E4901FB7F0D3220B
:0A180900E4901FB7F0D2E9D2AF223D
:1012B800AC0790E678E020E6F9901FB7E0702D9033
:1012C800E678E04480F0AF04EF25E090E679F0900E
:1012D8001FB2EDF0AF03A907A37401F0A3EAF0A3CE
:0E12E800E9F0E4901FB6F0A304F0D322C32275
:03004B00020CAFF5
:100CAF00C0E0C083C082C0D075D000C000C001C0FA
:100CBF0002C003C00790E678E030E209901FB774D6
:100CCF0006F0020DD590E678E020E10E901FB7E018
:100CDF00640260067407F0020DD5901FB7E024FE82
:100CEF007003020D7414604924FE7003020DC724B3
:100CFF00FC7003020DD024086003020DD5901FB3C2
:100D0F00E0FBA3E0FAA3E0F9901FB6E0FF04F08F39
:100D1F0082758300120DEB90E679F0901FB2E0FF21
:100D2F00901FB6E06F6003020DD5A37405F0020D9E
:100D3F00D590E679E0FF901FB3E0FBA3E0FAA3E0C4
:100D4F00F9901FB6E0F582758300EF120E2A901FFF
:100D5F00B77402F0901FB2E06401706A90E678E019
:100D6F004420F08061901FB2E024FEFF901FB6E098
:100D7F00B5070790E678E04420F0901FB2E014FF2B
:100D8F00901FB6E0B5070C90E678E04440F0901F56
:100D9F00B7E4F090E679E0FF901FB3E0FBA3E0FA31
:100DAF00A3E0F9901FB6E0F582758300EF120E2ACB
:100DBF00901FB6E004F0800E90E678E04440F0809B
:100DCF0000901FB7E4F05391DFD007D003D002D0CB
:0C0DDF0001D000D0D0D082D083D0E03210
:1016A20090E682E044C0F090E681F04387010000BA
:0416B2000000002212
:1016B6007400F58690FDA57C05A3E582458370F947
:0116C6002201
:1016760090E682E030E004E020E60B90E682E0307F
:10168600E119E030E71590E680E04401F07F147E32
:0C1696000012154390E680E054FEF022A4
:1016180030050990E680E0440AF0800790E680E013
:101628004408F07FDC7E0512154390E65D74FFF0F8
:0F16380090E65FF05391EF90E680E054F7F022D8
:10154300901F99EEF0A3EFF090E600E05418701AA4
:10155300901F9AE02401FF901F99E03400C313FE0B
:10156300EF13FFEEF0A3EFF0801790E600E05418BE
:10157300FFBF100D901F9AE025E0F0901F99E03314
:10158300F0901F9974FFF5F0120E6245F06005129A
:0515930016B680ED22F8
:02164700A907F1
:10164900901FB0E0FEA3E0FF8F828E83A3E06403C6
:101659007017AD0119ED7001228F828E83E07C0035
:0C1669002FFDEC3EFEAF0580DFE4FEFF2D
:011675002252
:0300000002115694
:0C115600787FE4F6D8FD75812002119D21
:100DEB00BB010CE58229F582E5833AF583E02250BD
:100DFB0006E92582F8E622BBFE06E92582F8E22207
:0D0E0B00E58229F582E5833AF583E4932220
:100E1800BB010689828A83F0225002F722BBFE01B9
:020E2800F322B3
:100E2A00F8BB010DE58229F582E5833AF583E8F0FE
:100E3A00225006E92582C8F622BBFE05E92582C8AA
:020E4A00F22292
:100E4C00C5F0F8A3E028F0C5F0F8E5821582700231
:060E5C001583E038F022CE
:100E6200A3F8E0C5F025F0F0E58215827002158343
:060E7200E0C838F0E822A0
:100E7800BB010A89828A83F0E5F0A3F0225006F7C5
:0F0E880009A7F01922BBFE06F3E5F009F31922C2
:100E9700EB9FF5F0EA9E42F0E99D42F0E89C45F0B1
:010EA7002228
:0C0EA800ECF0A3EDF0A3EEF0A3EFF022BD
:100EB400A8828583F0D083D082120ECB120ECB127F
:100EC4000ECB120ECBE473E493A3C583C5F0C583A4
:100ED400C8C582C8F0A3C583C5F0C583C8C582C888
:010EE40022EB
:10116200020A8FE493A3F8E493A34003F68001F20A
:1011720008DFF48029E493A3F85407240CC8C3338E
:10118200C4540F4420C8834004F456800146F6DF5D
:10119200E4800B0102040810204080900EE5E47EFA
:1011A200019360BCA3FF543F30E509541FFEE49352
:1011B200A360010ECF54C025E060A840B8E493A319
:1011C200FAE493A3F8E493A3C8C582C8CAC583CA44
:1011D200F0A3C8C582C8CAC583CADFE9DEE780BEFC
:010FC600002A
:00000001FF
