:101400001201000200000040EF0301100000010281
:1014100000010A06000200000040010009022E003F
:10142000010100C0000904000004FF0000000705DE
:1014300002020002000705040200020007058602FE
:101440000002000705880200020009022E000101C7
:1014500000C0320904000004FF000000070502027A
:101460004000000705040240000007058602400016
:10147000000705880240000004030904100350001F
:10148000690063006100720072006F001803500071
:10149000690063006100720072006F002D0055004A
:0614A000530042000000B1
:0A12F10000010202030304040505D6
:1009E000901FD0120FA300000000C203C200C20279
:1009F000C201120FD47E147F00901FE1EEF0A3EF2E
:100A0000F0901FE97414F0A37412F0901FDF7414B7
:100A1000F0A3741CF0901FE77414F0A3744AF090D4
:100A20001FEB7414F0A37478F0EE54E07003020B23
:100A30009A901FD4E4F0A37480F0A3EEF0A3EFF03B
:100A4000C374A49FFF74149ECF2402CF3400FEE42D
:100A5000FCFD901FCC120F97901FC8120FA300002F
:100A60000000901FCCE0FCA3E0FDA3E0FEA3E0FFAC
:100A7000901FC8E0F8A3E0F9A3E0FAA3E0FBC312DB
:100A80000F86503A901FCAE0FEA3E0FF901FD4E00B
:100A9000FCA3E02FF582EC3EF58374CDF0901FC8E7
:100AA000E0FCA3E0FDA3E0FEA3E02401FFE43EFEA2
:100AB000E43DFDE43CFC901FC8120F9780A4901FFA
:100AC000C8120FA300000000901FCCE0FCA3E0FDC3
:100AD000A3E0FEA3E0FF901FC8E0F8A3E0F9A3E0C5
:100AE000FAA3E0FBC3120F865049901FCAE0FEA391
:100AF000E0FF901FD6E0FCA3E02FF582EC3EF583EB
:100B0000E0FD901FD4E0FAA3E02FF582EA3EF583E2
:100B1000EDF0901FC8E0FCA3E0FDA3E0FEA3E024FD
:100B200001FFE43EFEE43DFDE43CFC901FC8120FD3
:100B3000978095901FD4E0FFA3E0901FE1CFF0A332
:100B4000EFF074002480FF741434FFFEC3901FEA9A
:100B5000E09FF0901FE9E09EF0C3901FE4E09FF05B
:100B6000901FE3E09EF0C3901FE6E09FF0901FE52A
:100B7000E09EF0C3901FE0E09FF0901FDFE09EF04A
:100B8000C3901FE8E09FF0901FE7E09EF0C3901F26
:100B9000ECE09FF0901FEBE09EF0D2E843D820906D
:100BA000E668E04409F090E65CE0443DF0D2AF90A6
:100BB000E680E020E105D20512171C90E680E054A3
:100BC000F7F0538EF8C2033001051207ACC20130B2
:100BD00003291219335024C2031217A620001690BD
:100BE000E682E030E704E020E1EF90E682E030E6E4
:100BF00004E020E0E412177A1219351204DF80C7EE
:1007AC0090E6B9E0700302086D1470030208EA24A5
:1007BC00FE700302096D24FB7003020867147003BA
:1007CC0002086114700302085514700302085B24BC
:1007DC000560030209CC12193740030209D890E6D0
:1007EC00BBE024FE602814604024FD601414602BD0
:1007FC0024067052901FE1E090E6B3F0901FE28067
:10080C0025901FE9E090E6B3F0901FEA8018901F46
:10081C00E3E090E6B3F0901FE4800B901FE5E090CE
:10082C00E6B3F0901FE6E0801690E6BAE0FF1217F0
:10083C004BAA06A907EA49600DEE90E6B3F0EF90DB
:10084C00E6B4F00209D80209D11219030209D81230
:10085C0019170209D812169C0209D81218EF0209AE
:10086C00D812193940030209D890E6B8E0247F6009
:10087C001514601924027063A200E43325E0FFA272
:10088C0002E4334F8041E490E740F0803F90E6BCB7
:10089C00E0547EFF7E00E0D394807C0040047D0118
:1008AC0080027D00EC4EFEED4F24F1F58274123E79
:1008BC00F583E493FF3395E0FEEF24A1FFEE34E6DD
:1008CC008F82F583E0540190E740F0E4A3F090E6CA
:1008DC008AF090E68B7402F00209D80209D1121941
:1008EC003B40030209D890E6B8E024FE60162402CF
:1008FC0060030209D890E6BAE0B40105C20002090F
:10090C00D80209D190E6BAE0705590E6BCE0547E6E
:10091C00FF7E00E0D394807C0040047D0180027D4A
:10092C0000EC4EFEED4F24F1F58274123EF583E49B
:10093C0093FF3395E0FEEF24A1FFEE34E68F82F5B2
:10094C0083E054FEF090E6BCE05480131313541F64
:10095C00FFE0540F2F90E683F0E04420F0806D8090
:10096C006412193D506690E6B8E024FE601924022A
:10097C00705A90E6BAE0B40104D200804F90E6BA07
:10098C00E064026047803E90E6BCE0547EFF7E004F
:10099C00E0D394807C0040047D0180027D00EC4E0D
:1009AC00FEED4F24F1F58274123EF583E493FF3390
:1009BC0095E0FEEF24A1FFEE34E68F82F5838008EC
:1009CC00120080500790E6A0E04401F090E6A0E011
:0309DC004480F064
:0109DF0022F5
:030033000212FBBB
:0412FB0053D8EF32A3
:1010C20060801F162101013F01013F07010000035B
:1010D20000000300070301030705070709000000DA
:1010E2000000003F2101013F01013F070100020111
:1010F20000020100070200020604060709000000C0
:101102000000003F02021302022EB8070000010293
:1011120000010300030101070505070700000000A5
:1011220000002D3F02021302022E380700020304C0
:101132000203050002000006040407070000000085
:1011420000002D3F60241F9D0000000000000000F1
:10115200000000000000000000000000000000008D
:10116200000000000000000000000000471F96E0A1
:06117200000007EA4E0038
:1011A40090E60174EAF090E6F574FFF0901F96E083
:1011B40090E6F3F0901F97E090E6C3F0901F98E05C
:1011C40090E6C1F0901F99E090E6C2F0901F9BE07A
:1011D40090E6C0F0901F9CE090E6F4F075AF0774C1
:1011E4001FF59A7416F59B759DE4E4F59EFF90E651
:1011F4007BE090E67CF00FEFB480F3E490E671F0CE
:10120400F5B490E672E0547FF053B67F000000E43A
:1012140090E6C4F000000090E6C5F0901F9DE090B9
:10122400E6C6F0901F9EE090E6C7F0901F9FE09006
:10123400E6C8F0901FA0E090E6C9F0901FA1E090EE
:10124400E6CAF0901FA2E090E6CBF0901FA3E090D6
:0B125400E6CCF0901FA4E090E6CDF087
:01125F00226C
:10117800421F090000411F08004219810000C104F4
:10118800421F1000004219860000421F0D00004156
:0B1198001988004119890041198000EE
:0C17CB0090E741E090E740FEE0FDEDFFFC
:1017D700AD07AC06E5BB30E7FBEC90E6F0F0ED902B
:0417E700E6F1F02215
:0B16ED00901FDAE0FBA3E0FAA3E0F995
:1016F800E5BB30E7FB90E6F1E0901980F0E5BB3000
:10170800E7FB90E6F2E0FE90E6F0E0FDEDFFEE8FFD
:04171800F0020F6765
:10187B00C2AFE490198EF0A3F090198CF0A3F09006
:08188B00198AF0A3F0D2AF228C
:1012600090E67BE0901FC1F0901FC4E024FFF09057
:101270001FC3E034FFF0901FC1E0FF12129990E607
:101280007BE0901FC1F0901FC4E024FFF0901FC3CB
:09129000E034FFF0901FC1E0FF03
:10129900C2AF90198EE0B40511A3E0B4780C90198F
:1012A90088E04401F0D2AF7F002290198CE475F0F8
:1012B90001120F51FC749025F0F58274193CF583E5
:1012C900EFF090198CE0B4050CA3E0B47807E49032
:1012D900198CF0A3F090198FE004F0700690198E24
:0812E900E004F0D2AF7F012206
:0C153200FFE4F0A3EFF07B017A1F79D8F2
:10153E00C2AF90198EE07002A3E0700C901988E093
:10154E004402F0D2AF7F002290198AE475F00112A6
:10155E000F51FE749025F0F58274193EF583E0125A
:10156E000F0790198AE0B4050CA3E0B47807E49055
:10157E00198AF0A3F090198FE024FFF090198EE0F5
:08158E0034FFF0D2AF7F01220F
:08192B00E4901988F002187B1A
:0A13F600E4901F0DF0A3F002192B84
:1017EB00C2ADEF4430901F12F0ECA3F0A374FFF0E6
:0E17FB007A1F7B127D037F10121860D2AD2280
:100FD40000000090E600E054E74410F000000090A8
:100FE400E605E054FDF0D20090E61074A0F090E61F
:100FF40011F000000090E61274A2F000000090E6E8
:101004001374A0F000000090E61474E0F0000000F7
:10101400E490E615F000000090E6047480F000000F
:10102400007402F00000007404F00000007406F084
:10103400000000E4F000000090E61804F000000056
:101044007411F000000090E61A7409F0000000E446
:1010540090E68DF090E6957480F0000000F00000BA
:10106400001211A490E6727408F075B693E4F5B119
:10107400F59890E67004F043B29E758081121921B0
:1010840090E67A7401F0538EDFD2CAC2CCC2CDC2CC
:10109400C8C2CF75CB6375CAC0C2BDD2F91213F6EC
:1010A400D2AD90E65EE04420F0901F0EE0240AFEEC
:0E10B400901F0DE03400901F0BF0A3CEF02231
:1004DF00E5BB20E70302067FE5AB30E103020589A8
:1004EF0090E6F4E070047F0180027F00EF20E0F0DF
:1004FF0090E6ABE0FE90E6ACE0FDAC06ECC313FC7F
:10050F00ED1324FEFD74FF3CFCD3ED9400EC94003E
:10051F004023758089EC90E6D0F0000000AF05EF26
:10052F0090E6D1F0000000E4F5BB000000E5BB3021
:10053F00E7FB00000090E6F4E070047F0180027F8B
:10054F0000EF20E0F075808DE490E6D0F000000021
:10055F0090E6D17402F0000000E4F5BB000000E566
:10056F00BB30E7FB00000090E6F4E070047F0180F1
:10057F00027F00EF20E0F0000000901981E0700290
:10058F00A3E0700302067FE5AC30E00302067F9024
:10059F00E6F4E070047F0180027F00EF20E0F0902E
:1005AF001982E024FEF0901981E034FFF0D3A3E02C
:1005BF009400901981E0648094804038758089E4BC
:1005CF0090E6CEF000000090E6CFF000000090190A
:1005DF0081E0FCA3E0FDEC90E6D0F0000000ED9090
:1005EF00E6D1F000000075BB06000000E5BB30E768
:1005FF00FB00000075808DE490E6CEF000000090C7
:10060F00E6CFF000000090E6D0F000000090E6D1B9
:10061F007402F000000075BB06000000E5BB30E778
:10062F00FB00000090E6AFE0FE90E6B0E0FDEDFFCE
:10063F00901986EEF0A3EFF0901F10E0FEA3E0FFFD
:10064F00C3901987E09F901986E09E500690E64868
:10065F007406F0E4901981F0A3F075808D90E6F4A4
:10066F00E070047F0180027F00EF20E0F0000000C7
:10067F0090E65EE054DFF0901989E0700302077195
:10068F00901F0DE0FEA3E0FFC3901F0CE09FFF90B3
:10069F001F0BE09EFED3EF9400EE64809480400326
:1006AF00020771E4901989F07B017A1F79D912152D
:1006BF003EEF7003020771901FD9E0B453EA7B013C
:1006CF007A1F79D912153EEF7003020771E4901F5C
:1006DF00DBF0901FDAF0901FD9E0FF604F30E0346D
:1006EF00121538EF607C901FD8E0901FDC12153286
:1006FF00EF606F901FD8E0FE901FDCE04EFEA3E08E
:10070F00FF901FDCEEF0FCA3EFF0AD07901FDBE0D6
:10071F00FF1217EB901FDBE004F0901FD9E0FFC32F
:10072F0013F0A3E004F0E0C3940840AAD390198F0C
:10073F00E0940090198EE094004027121538EF6076
:10074F0021901FD8E0901F0B121532EF6014901FED
:10075F00D8E0FE901F0BE04EF0A3E0F090198974E3
:10076F0001F090E65EE04420F0901F09E07002A3D4
:10077F00E0701B901F08E07F01600A121826E490BA
:10078F001F08F08009121843901F087401F0901F82
:0C079F000AE004F07006901F09E004F06E
:0107AB00222B
:02193300D322BD
:02193500D322BB
:02193700D322B9
:10169C0090E680E030E72100000090E6247402F030
:1016AC00000000E490E625F0000000D204901F102A
:1016BC007404F0A3E4F0801F000000E490E624F032
:1016CC0000000090E6257440F0000000C204901F5A
:1016DC0010E4F0A37440F090E6BAE0901F0FF0D342
:0116EC0022DB
:1018EF00901F0FE090E740F0E490E68AF090E68BCF
:0418FF0004F0D322FC
:0A19170090E6BAE0901985F0D322A3
:10190300901985E090E740F0E490E68AF090E68B4A
:0419130004F0D322E7
:02193900D322B7
:02193B00D322B5
:02193D00D322B3
:1000800090E6BBE0FE90E6BAE0FDEDFF901FD8EEF3
:10009000F0A3EFF090E6BFE0FE90E6BEE0FDEDFFDE
:1000A00090E6B9E02450603C24F0B40C0040030218
:1000B00004DB9000C075F003A4C58325F0C58373ED
:1000C0000200FB0202140202650202A70202F80209
:1000D000033B0203680201B502038E0203BF020361
:1000E000F302045990E74074E9F0A37403F0E4903C
:1000F000E68AF090E68B74020204D1901FD8E0FCEF
:10010000A3E0FDEC60030201B3ED24FE603B14604C
:100110007A240260030201B375B69375B110000032
:1001200000000000000053B1EF00000000000000DC
:100130000043B11075B68390E7407401F0E490E697
:100140008AF090E68B040204D1E490E68BF0E5BAE5
:1001500020E0FBE4901FDDF0A3F0C3901FDEE09FE2
:10016000901FDDE09E40030204DDA3E02440F58201
:10017000E434E7F583E0F5995398FD901FDEE00441
:10018000F070D7901FDDE004F080CFAFB1EF30E624
:10019000047E0280027E00EF30E5047F0180027F52
:1001A00000EF4E90E740F0E490E68AF090E68B0492
:1001B0000204D1D322901FD8E0FEA3E0FFEE704BE3
:1001C000EF24FE601014601B2402703FA204E4338D
:1001D00090E740800590E740E5BBF090E68B740126
:1001E000F0802A90E6D1E090E740F090E6D0E090F1
:1001F000E741F090E6CFE090E742F090E6CEE09065
:10020000E743F090E68B7404F08002D322E490E69A
:100210008A0204D190E6F4E070047F0180027F003E
:10022000EF20E0F0901FDA7401F0A374E7F0A374FC
:1002300040F07580810000001216EDE5BB30E7FB51
:10024000901FDBE475F002120F3B75808300000005
:100250001216EDE5BB30E7FBE490E68AF090E68B02
:1002600074040204D1E490E68BF0E5BA20E0FB9040
:10027000E6F4E070047F0180027F00EF20E0F0757B
:1002800080810000001217CBE5BB30E7FB7580834F
:1002900000000090E743E090E7421217D2E5BB3040
:1002A000E7030204DD80F690E6F4E070047F01804D
:1002B000027F00EF20E0F0901FDA7401F0A374E7F2
:1002C000F0A37440F07580850000001216EDE5BBC8
:1002D00030E7FB901FDBE475F002120F3B7580875F
:1002E0000000001216EDE5BB30E7FBE490E68AF073
:1002F00090E68B74040204D1E490E68BF0E5BA201A
:10030000E0FB90E6F4E070047F0180027F00EF20C4
:10031000E0F07580850000001217CBE5BB30E7FBED
:1003200075808700000090E743E0FE90E7421217D7
:10033000D3E5BB30E7030204DD80F6E490E68BF002
:10034000E5BA20E0FB90E741E0FE90E740E0FDEDFC
:10035000FF901981EEF0A3EFF0901981E0A2E7136E
:10036000F0A3E013F00204DD90E6047480F00000D6
:10037000007406F0000000E4F000000090E7400484
:10038000F0E490E68AF090E68B04F00204DD901F22
:10039000D8A3E0FF30E00553807F8003438080EFE7
:1003A00030E1055380FE8003438001901FD9E09027
:1003B000E740F0E490E68AF090E68B040204D1E492
:1003C00090E68BF0E5BA20E0FB90E6BAE0540744F3
:1003D00030901F12F090E740E0901F13F090E7413B
:1003E000E0901F14F07A1F7B127D037F10121860BB
:1003F0000204DDE490E68BF0E5BA20E0FB901FD824
:10040000E0FEA3E0FFEE60030204DDEF24FC6010D9
:10041000146035240460030204DD12192B0204DD8C
:1004200090E741E0FE90E740E0FDEDFF901F0DEE0C
:10043000F0A3EFF0E0240AFE901F0DE03400901FBF
:100440000BF0A3CEF00204DDC2AD90E740E0F5CAA8
:10045000A3E0F5CBD2AD0204DD901FD8E0FEA3E00F
:10046000FFEE7069EF14602A14605424FE601704D4
:10047000705B901F0EE090E740F0901F0DE090E75A
:1004800041F0D2AD803190E740E5CAF0A3E5CBF072
:10049000802590198EE0FEA3E0FFC374789F901F23
:1004A000DEF074059E901FDDF0A3E090E740F09031
:1004B0001FDDE090E741F090E68B7402F0800E9033
:1004C0001988E090E740F090E68B7401F0E490E644
:0E04D0008AF090E6A0E04480F08002D322C3C0
:0104DE0022FB
:10180900C0E0C083C082901F0EE004F07006901FF4
:0D1819000DE004F0C2CFD082D083D0E032C9
:10189300C0E0C083C082D2015391EF90E65D740132
:0818A300F0D082D083D0E032C6
:1018C300C0E0C083C0825391EF90E65D7404F0D012
:0618D30082D083D0E03258
:1018D900C0E0C083C0825391EF90E65D7402F0D0FE
:0618E90082D083D0E03242
:1015F200C0E0C083C082C0D075D000C006C00790D2
:101602001FE7E0FEA3E0FF901FE3EEF0A3EFF0F58B
:10161200828E83A37402F0901FDFE0FEA3E0FF90AE
:101622001FE5EEF0A3EFF0F5828E83A37407F0536B
:1016320091EF90E65D7410F0D007D006D0D0D08242
:05164200D083D0E0326E
:1018AB00C0E0C083C082D2035391EF90E65D740811
:0818BB00F0D082D083D0E032AE
:10159600C0E0C083C082C0D075D000C006C007902E
:1015A600E680E030E730901FDFE0FEA3E0FF901F0B
:1015B600E3EEF0A3EFF0F5828E83A37402F0901FA2
:1015C600E7E0FEA3E0FF901FE5EEF0A3EFF0F58263
:1015D6008E83A37407F05391EF90E65D7420F0D0EC
:0C15E60007D006D0D0D082D083D0E032F5
:0112FF0032BC
:01193F003275
:011940003274
:011941003273
:011942003272
:011943003271
:011944003270
:100C0000C0E0C0F0C083C082C0D075D000C000C0BA
:0D0C100001C002C003C004C005C006C0073B
:100C1D005391EF90E65F7420F07AF4790074F4F557
:100C2D009A7400F59B90E694E0FE90E695E0FDED5C
:100C3D00FF901FC3EEF0A3EFF0D3901FC4E094001C
:0D0C4D00901FC3E0648094805003020D44AA
:100C5A00901FC6E4F090E67BE0901FC7F0901FC497
:100C6A00E024FFF0901FC3E034FFF0901FC7E02498
:100C7A002E60710470C690E67BE0901FC1F0901F51
:100C8A00C4E024FFF0901FC3E034FFF0901FC2E4D9
:100C9A00F0901FC2E0C3940850A2901FC1E0609C6C
:100CAA0030E02E90E67BE0FD901FC4E024FFF09038
:100CBA001FC3E034FFF090E67BE0FC901FC4E02401
:100CCA00FFF0901FC3E034FFF0901FC6E0FF121739
:100CDA00EB901FC6E004F0901FC1E0C313F0A3E03D
:100CEA0004F080AD1212607F5312129990E67BE0F5
:100CFA00901FC5F0901FC4E024FFF0901FC3E0349A
:100D0A00FFF0901FC5E0FF121299901FC2E4F09005
:100D1A001FC2E0C394084003020C46901FC5E0704E
:100D2A0003020C4630E003121260901FC5E0FFC3B5
:0A0D3A0013F0901FC2E004F080D512
:100D440000000090E6957480F0000000901989E09E
:100D5400702D7B017A1F79C112153E901FC1E0FFEF
:100D6400901F0BE4F0A3EFF012153E901FC1E0FEBC
:0F0D7400901F0BE04EF0A3E0F09019897401F08E
:100D8300D007D006D005D004D003D002D001D000C4
:0B0D9300D0D0D082D083D0F0D0E0326E
:01194500326F
:01194600326E
:01194700326D
:01194800326C
:01194900326B
:01194A00326A
:01194B003269
:01194C003268
:01194D003267
:01194E003266
:01194F003265
:011950003264
:011951003263
:011952003262
:011953003261
:011954003260
:01195500325F
:01195600325E
:01195700325D
:01195800325C
:01195900325B
:01195A00325A
:01195B003259
:01195C003258
:01195D003257
:01195E003256
:01195F003255
:011960003254
:10182600EF30E00353B1FEEF30E10353B1FDEF308B
:0D183600E20353B17FEF30E3035380EF2254
:10184300EF30E00343B101EF30E10343B102EF3086
:0D185300E20343B180EF30E3034380102235
:03004300021300A5
:0300530002130095
:10130000021893000218D9000218C3000218AB009B
:101310000215F200021596000212FF0002193F00AA
:10132000021940000219410002194200021943004B
:1013300002194400020C000002194500021946007F
:101340000219470002193F0002194800021949001A
:1013500002194A0002194B0002194C0002194D00F3
:1013600002194E0002193F0002193F0002193F0006
:1013700002194F00021950000219510002195200BF
:10138000021953000219540002195500021956009F
:1013900002195700021958000219590002195A007F
:1013A00002195B0002195C0002195D0002195E005F
:0813B00002195F000219600040
:03002B00021809AF
:101860001213B8901FF2E024FA60091460062407EE
:0B18700070F1D322E4901FF2F0D322AD
:0A192100E4901FF2F0D2E9D2AF22E9
:1013B800AC0790E678E020E6F9901FF2E0702D90F7
:1013C800E678E04480F0AF04EF25E090E679F0900D
:1013D8001FEDEDF0AF03A907A37401F0A3EAF0A392
:0E13E800E9F0E4901FF1F0A304F0D322C32239
:03004B00020D9E05
:100D9E00C0E0C083C082C0D075D000C000C001C00A
:100DAE0002C003C00790E678E030E209901FF274AB
:100DBE0006F0020EC490E678E020E10E901FF2E0FD
:100DCE00640260067407F0020EC4901FF2E024FE67
:100DDE007003020E6314604924FE7003020EB624E3
:100DEE00FC7003020EBF24086003020EC4901FEEB7
:100DFE00E0FBA3E0FAA3E0F9901FF1E0FF04F08F0F
:100E0E0082758300120EDA90E679F0901FEDE0FF06
:100E1E00901FF1E06F6003020EC4A37405F0020E82
:100E2E00C490E679E0FF901FEEE0FBA3E0FAA3E0AA
:100E3E00F9901FF1E0F582758300EF120F19901FE4
:100E4E00F27402F0901FEDE06401706A90E678E0B3
:100E5E004420F08061901FEDE024FEFF901FF1E032
:100E6E00B5070790E678E04420F0901FEDE014FF00
:100E7E00901FF1E0B5070C90E678E04440F0901F2B
:100E8E00F2E4F090E679E0FF901FEEE0FBA3E0FACB
:100E9E00A3E0F9901FF1E0F582758300EF120F19B0
:100EAE00901FF1E004F0800E90E678E04440F08070
:100EBE0000901FF2E4F05391DFD007D003D002D0A0
:0C0ECE0001D000D0D0D082D083D0E03220
:1017A60090E682E044C0F090E681F04387010000B5
:0417B600000000220D
:1017BA007400F58690FDA57C05A3E582458370F942
:0117CA0022FC
:10177A0090E682E030E004E020E60B90E682E0307A
:10178A00E119E030E71590E680E04401F07F147E2D
:0C179A000012164790E680E054FEF0229A
:10171C0030050990E680E0440AF0800790E680E00E
:10172C004408F07FDC7E0512164790E65D74FFF0EE
:0F173C0090E65FF05391EF90E680E054F7F022D3
:10164700901FD8EEF0A3EFF090E600E05418701A60
:10165700901FD9E02401FF901FD8E03400C313FE88
:10166700EF13FFEEF0A3EFF0801790E600E05418B9
:10167700FFBF100D901FD9E025E0F0901FD8E03391
:10168700F0901FD874FFF5F0120F5145F060051266
:0516970017BA80ED22EE
:02174B00A907EC
:10174D00901FEBE0FEA3E0FF8F828E83A3E0640386
:10175D007017AD0119ED7001228F828E83E07C0030
:0C176D002FFDEC3EFEAF0580DFE4FEFF28
:01177900224D
:030000000214A641
:0C14A600787FE4F6D8FD7581200214ED7B
:100EDA00BB010CE58229F582E5833AF583E02250CD
:100EEA0006E92582F8E622BBFE06E92582F8E22217
:0D0EFA00E58229F582E5833AF583E4932231
:100F0700BB010689828A83F0225002F722BBFE01C9
:020F1700F322C3
:100F1900F8BB010DE58229F582E5833AF583E8F00E
:100F2900225006E92582C8F622BBFE05E92582C8BA
:020F3900F222A2
:100F3B00C5F0F8A3E028F0C5F0F8E5821582700241
:060F4B001583E038F022DE
:100F5100A3F8E0C5F025F0F0E58215827002158353
:060F6100E0C838F0E822B0
:100F6700BB010A89828A83F0E5F0A3F0225006F7D5
:0F0F770009A7F01922BBFE06F3E5F009F31922D2
:100F8600EB9FF5F0EA9E42F0E99D42F0E89C45F0C1
:010F96002238
:0C0F9700ECF0A3EDF0A3EEF0A3EFF022CD
:100FA300A8828583F0D083D082120FBA120FBA12AF
:100FB3000FBA120FBAE473E493A3C583C5F0C583D4
:100FC300C8C582C8F0A3C583C5F0C583C8C582C898
:010FD30022FB
:1014B2000209E0E493A3F8E493A34003F68001F267
:1014C20008DFF48029E493A3F85407240CC8C3333B
:1014D200C4540F4420C8834004F456800146F6DF0A
:1014E200E4800B01020408102040809010C2E47EC8
:1014F200019360BCA3FF543F30E509541FFEE493FF
:10150200A360010ECF54C025E060A840B8E493A3C5
:10151200FAE493A3F8E493A3C8C582C8CAC583CAF0
:10152200F0A3C8C582C8CAC583CADFE9DEE780BEA8
:0111A300004B
:00000001FF
