:101700001201000200000040EF030110000001027E
:1017100000010A06000200000040010009022E003C
:10172000010100C0000904000004FF0000000705DB
:1017300002020002000705040200020007058602FB
:101740000002000705880200020009022E000101C4
:1017500000C0320904000004FF0000000705020277
:101760004000000705040240000007058602400013
:10177000000705880240000004030904100350001C
:10178000690063006100720072006F00180350006E
:10179000690063006100720072006F002D00550047
:0617A000530042000000AE
:0A1B020000010202030304040505BC
:10075C00901FC0120B6300000000C203C200C20253
:10076C00C2011211157E177F00901FD3EEF0A3EF7C
:10077C00F0901FDB7417F0A37412F0901FD1741754
:10078C00F0A3741CF0901FD97417F0A3744AF09066
:10079C001FDD7417F0A37478F0EE54E070030209B7
:1007AC0016901FC4E4F0A37480F0A3EEF0A3EFF056
:1007BC00C374A49FFF74179ECF2402CF3400FEE4B1
:1007CC00FCFD901FBC120B57901FB8120B6300005E
:1007DC000000901FBCE0FCA3E0FDA3E0FEA3E0FF43
:1007EC00901FB8E0F8A3E0F9A3E0FAA3E0FBC31272
:1007FC000B46503A901FBAE0FEA3E0FF901FC4E0F6
:10080C00FCA3E02FF582EC3EF58374CDF0901FB87D
:10081C00E0FCA3E0FDA3E0FEA3E02401FFE43EFE28
:10082C00E43DFDE43CFC901FB8120B5780A4901FD4
:10083C00B8120B6300000000901FBCE0FCA3E0FDAD
:10084C00A3E0FEA3E0FF901FB8E0F8A3E0F9A3E05B
:10085C00FAA3E0FBC3120B465049901FBAE0FEA36B
:10086C00E0FF901FC6E0FCA3E02FF582EC3EF58381
:10087C00E0FD901FC4E0FAA3E02FF582EA3EF58379
:10088C00EDF0901FB8E0FCA3E0FDA3E0FEA3E02494
:10089C0001FFE43EFEE43DFDE43CFC901FB8120B6E
:1008AC00578095901FC4E0FFA3E0901FD3CFF0A317
:1008BC00EFF074002480FF741734FFFEC3901FDC2C
:1008CC00E09FF0901FDBE09EF0C3901FD6E09FF0FE
:1008DC00901FD5E09EF0C3901FD8E09FF0901FD7DB
:1008EC00E09EF0C3901FD2E09FF0901FD1E09EF0ED
:1008FC00C3901FDAE09FF0901FD9E09EF0C3901FC9
:10090C00DEE09FF0901FDDE09EF0D2E843D820900F
:10091C00E668E04409F090E65CE0443DF0D2AF902C
:10092C00E680E020E105D20512190E90E680E05435
:10093C00F7F0538EF8C203300105120528C20130BE
:10094C0003291214FD5024C2031219C12000169061
:10095C00E682E030E704E020E1EF90E682E030E66A
:10096C0004E020E0E412196C1216FE120B9480C7FE
:1005280090E6B9E070030205E91470030206662438
:10053800FE70030206E924FB70030205E31470034E
:100548000205DD1470030205D11470030205D724D7
:10055800056003020748121B24400302075490E673
:10056800BBE024FE602814604024FD601414602B56
:1005780024067052901FD3E090E6B3F0901FD48009
:1005880025901FDBE090E6B3F0901FDC8018901FE9
:10059800D5E090E6B3F0901FD6800B901FD7E0907F
:1005A800E6B3F0901FD8E0801690E6BAE0FF121983
:1005B8003DAA06A907EA49600DEE90E6B3F0EF9070
:1005C800E6B4F002075402074D121AEE020754125D
:1005D8001B0C020754121850020754121ADA0207A9
:1005E80054121B26400302075490E6B8E0247F60AB
:1005F8001514601924027063A200E43325E0FFA2F9
:1006080002E4334F8041E490E740F0803F90E6BC3D
:10061800E0547EFF7E00E0D394807C0040047D019E
:1006280080027D00EC4EFEED4F2402F582741B3EE5
:10063800F583E493FF3395E0FEEF24A1FFEE34E663
:100648008F82F583E0540190E740F0E4A3F090E650
:100658008AF090E68B7402F002075402074D121BD1
:1006680028400302075490E6B8E024FE60162402EE
:10067800600302075490E6BAE0B40105C20002071D
:100688005402074D90E6BAE0705590E6BCE0547EFF
:10069800FF7E00E0D394807C0040047D0180027DD1
:1006A80000EC4EFEED4F2402F582741B3EF583E408
:1006B80093FF3395E0FEEF24A1FFEE34E68F82F539
:1006C80083E054FEF090E6BCE05480131313541FEB
:1006D800FFE0540F2F90E683F0E04420F0806D8017
:1006E80064121B2A506690E6B8E024FE60192402C2
:1006F800705A90E6BAE0B40104D200804F90E6BA8E
:10070800E064026047803E90E6BCE0547EFF7E00D5
:10071800E0D394807C0040047D0180027D00EC4E93
:10072800FEED4F2402F582741B3EF583E493FF33FC
:1007380095E0FEEF24A1FFEE34E68F82F583800872
:10074800120080500790E6A0E04401F090E6A0E097
:030758004480F0EA
:01075B00227B
:03003300021B208D
:041B200053D8EF3275
:10102F0060801EED2101013F01013F070100000318
:10103F00000003000703010307050707090000006D
:10104F000000003F2101013F01013F0701000201A4
:10105F000002010007020002060406070900000053
:10106F000000003F02021302022EB8070000010227
:10107F000001030003010107050507070000000039
:10108F0000002D3F02021302022E38070002030454
:10109F000203050002000006040407070000000019
:1010AF0000002D3F60241F740000000000000000AE
:1010BF000000000000000000000000000000000021
:1010CF00000000000000000000000000471F6DE05E
:0610DF00000007EA4E00CC
:1013900090E60174EAF090E6F574FFF0901F6DE0BE
:1013A00090E6F3F0901F6EE090E6C3F0901F6FE0C0
:1013B00090E6C1F0901F70E090E6C2F0901F72E0DE
:1013C00090E6C0F0901F73E090E6F4F075AF0774FC
:1013D0001EF59A74EDF59B759DE4E4F59EFF90E68D
:1013E0007BE090E67CF00FEFB480F3E490E671F0E0
:1013F000F5B490E672E0547FF053B67F000000E44D
:1014000090E6C4F000000090E6C5F0901F74E090F4
:10141000E6C6F0901F75E090E6C7F0901F76E0906A
:10142000E6C8F0901F77E090E6C9F0901F78E09052
:10143000E6CAF0901F79E090E6CBF0901F7AE0903A
:0B144000E6CCF0901F7BE090E6CDF0C2
:01144B00227E
:1010E500421ED00000411ECF00421B810000C104FA
:1010F500421EE70000421EBC0000421ED300004114
:0F1105001ED200411EE600411EBE00411B8000AD
:0C1A090090E741E090E740FEE0FDEDFFBB
:101A1500AD07AC06E5BB30E7FBEC90E6F0F0ED90EA
:041A2500E6F1F022D4
:0B18DF00901FCAE0FBA3E0FAA3E0F9B1
:1018EA00E5BB30E7FB90E6F1E0901B80F0E5BB300A
:1018FA00E7FB90E6F2E0FE90E6F0E0FDEDFFEE8F0A
:04190A00F0020AFAE3
:1019E6007C007D67120A8474842FF9741B3EFA7B8F
:1019F60001900002E4120A62900001E4120A62E415
:031A0600020A5081
:0B15B800901FB2EFF0A3ECF0A3EDF0E9
:1015C300901FB2E075F067A42484F9741B35F0FA18
:1015D3007B01901FB5EBF0A3EAF0A3E9F0900002C2
:1015E3001209B9B4321D901EE6E0FF901FB2E0FE6F
:1015F3007401A806088002C333D8FC4F901EE6F09E
:101603007F0022901FB3E0FEA3E0FFA3E0FBA3E073
:10161300FAA3E02403F9E43AFAC003C002C001903C
:101623001FB5A3E0FAA3E0F990000174011209E6E3
:1016330075F002A4F58285F083D001D002D003EEC9
:101643008FF0120B19901FB5E0FBA3E0FAA3E0F9AA
:101653009000011209B9B43207900001E4120A6242
:0A1663009000027401120A1D7F01BD
:01166D00225A
:0E12CC00901F9BEFF0A3EBF0A3EAF0A3E9F074
:1012DA00901F9BE075F067A42484F9741B35F0FA1B
:1012EA007B01901F9FEBF0A3EAF0A3E9F0900002C4
:1012FA001209B9701D901ED2E0FF901F9BE0FE7488
:10130A0001A806088002C333D8FC4F901ED2F07F92
:10131A000022901F9FE0FBA3E0FAA3E02403F9E474
:10132A003AFAC003C002C001901F9FA3E0FAA3E0EB
:10133A00F9740112099575F002A4F58285F083D03B
:10134A0001D002D003120AC2FF901F9CE0FBA3E067
:10135A00FAA3E0F9E5F08FF0120AFA901F9FE0FB7A
:10136A00A3E0FAA3E0F912097CB43204E4120A50A9
:10137A00901F9FE0FBA3E0FAA3E0F990000274FF3C
:05138A00120A1D7F01A5
:01138F00223B
:10199800E4901EBEF0901ED2F0901EE6F0901FD08C
:1019A800F0901FD0E0FFC39408500D7E001219E696
:0819B800901FD0E004F080E96B
:0119C0002204
:1016CA00E4901ED3F0A3F0901EBEF0FFEF25E024B5
:1016DA00D5F582E4341EF583E4F0A3F0EF25E02487
:1016EA00BFF582E4341EF583E4F0A3F00FEFB408EB
:0416FA00DB0219985E
:0814D800E0FFA3E0FCA3E0FD2E
:1014E000C2ADEF4430901EE9F0ECA3F0EDA3F07A2A
:0D14F0001E7BE97D037F10121A63D2AD222E
:1011150000000090E600E054E74410F00000009065
:10112500E605E054FDF0D20090E61074A0F090E6DC
:1011350011F000000090E61274A2F000000090E6A5
:101145001374A0F000000090E61474E0F0000000B5
:10115500E490E615F000000090E6047480F00000CD
:10116500007402F00000007404F00000007406F042
:10117500000000E4F000000090E61804F000000014
:101185007411F000000090E61A7409F0000000E404
:1011950090E68DF090E6957480F0000000F0000078
:1011A5000012139090E6727408F075B693E4F5B1E9
:1011B500F59890E67004F043B29E758081121B1677
:1011C50090E67A7401F0538EDFD2CAC2CCC2CDC28A
:1011D500C8C2CFC2CE75CB6375CAC0C2BDD2F91223
:0C11E50016CAD2AD90E65EE04420F02275
:100B9400E5BB20E703020D34E5AB30E103020C3E74
:100BA40090E6F4E070047F0180027F00EF20E0F023
:100BB40090E6ABE0FE90E6ACE0FDAC06ECC313FCC3
:100BC400ED1324FEFD74FF3CFCD3ED9400EC940083
:100BD4004023758089EC90E6D0F0000000AF05EF6B
:100BE40090E6D1F0000000E4F5BB000000E5BB3066
:100BF400E7FB00000090E6F4E070047F0180027FD0
:100C040000EF20E0F075808DE490E6D0F000000065
:100C140090E6D17402F0000000E4F5BB000000E5AA
:100C2400BB30E7FB00000090E6F4E070047F018035
:100C3400027F00EF20E0F0000000901B81E07002D2
:100C4400A3E07003020D34E5AC30E003020D3490F0
:100C5400E6F4E070047F0180027F00EF20E0F09072
:100C64001B82E024FEF0901B81E034FFF0D3A3E06C
:100C74009400901B81E0648094804038758089E4FE
:100C840090E6CEF000000090E6CFF0000000901B4C
:100C940081E0FCA3E0FDEC90E6D0F0000000ED90D4
:100CA400E6D1F000000075BB06000000E5BB30E7AC
:100CB400FB00000075808DE490E6CEF0000000900B
:100CC400E6CFF000000090E6D0F000000090E6D1FE
:100CD4007402F000000075BB06000000E5BB30E7BD
:100CE400FB00000090E6AFE0FE90E6B0E0FDEDFF13
:100CF400901EBCEEF0A3EFF0901EE7E0FEA3E0FF31
:100D0400C3901EBDE09F901EBCE09E500690E64836
:100D14007406F0E4901B81F0A3F075808D90E6F4E6
:100D2400E070047F0180027F00EF20E0F00000000B
:100D3400901ED0E07002A3E0701B901ECFE07F01F4
:100D4400600A121A29E4901ECFF08009121A469004
:100D54001ECF7401F0901ED1E004F07006901ED0F6
:030D6400E004F0B8
:010D67002269
:0214FD00D322F8
:0216FE00D322F5
:021B2400D322CA
:1018500090E680E030E72100000090E6247402F07A
:10186000000000E490E625F0000000D204901EE79E
:101870007404F0A3E4F0801F000000E490E624F07C
:1018800000000090E6257440F0000000C204901EA5
:10189000E7E4F0A37440F090E6BAE0901EE5F0D3E0
:0118A0002225
:101ADA00901EE5E090E740F0E490E68AF090E68B0D
:041AEA0004F0D3220F
:0A1B0C0090E6BAE0901B83F0D322AC
:101AEE00901B83E090E740F0E490E68AF090E68B5E
:041AFE0004F0D322FB
:021B2600D322C8
:021B2800D322C6
:021B2A00D322C4
:1000800090E6BBE0FE90E6BAE0FDEDFF901FC8EE03
:10009000F0A3EFF090E6BFE0FE90E6BEE0FDEDFFDE
:1000A00090E6B9E02450603C24F0B40C0040030218
:1000B00005249000C075F003A4C58325F0C58373A3
:1000C0000200FB02021902026A0202AC0202FD02F5
:1000D000034002036D0201BA0203930203C4020348
:1000E000F80204A090E74074E9F0A37403F0E490F0
:1000F000E68AF090E68B740202051A901FC8E0FCB5
:10010000A3E0FDEC60030201B8ED24FE603B146047
:100110007A240260030201B875B69375B11000002D
:1001200000000000000053B1EF00000000000000DC
:100130000043B11075B68390E7407401F0E490E697
:100140008AF090E68B0402051AE490E68BF0E5BA9B
:1001500020E0FBE4901FCEF0A3F0C3901FCFE09F00
:10016000901FCEE09E4003020526A3E02440F582C6
:10017000E434E7F583E0F5995398FD901FCFE00450
:10018000F070D7901FCEE004F080CF901FCDE5B186
:10019000F0E0FF30E6047E0280027E00EF30E504EE
:1001A0007F0180027F00EF4E90E740F0E490E68A06
:1001B000F090E68B0402051AD322901FC8E0FEA33C
:1001C000E0FFEE704BEF24FE601014601B24027001
:1001D0003FA204E43390E740800590E740E5BBF0A0
:1001E00090E68B7401F0802A90E6D1E090E740F031
:1001F00090E6D0E090E741F090E6CFE090E742F063
:1002000090E6CEE090E743F090E68B7404F0800235
:10021000D322E490E68A02051A90E6F4E070047FA7
:100220000180027F00EF20E0F0901FCA7401F0A36C
:1002300074E7F0A37440F07580810000001218DFAD
:10024000E5BB30E7FB901FCBE475F002120A967510
:1002500080830000001218DFE5BB30E7FBE490E686
:100260008AF090E68B740402051AE490E68BF0E5C0
:10027000BA20E0FB90E6F4E070047F0180027F008A
:10028000EF20E0F0758081000000121A09E5BB3014
:10029000E7FB75808300000090E743E090E742129F
:1002A0001A10E5BB30E70302052680F690E6F4E07D
:1002B00070047F0180027F00EF20E0F0901FCA747D
:1002C00001F0A374E7F0A37440F07580850000008E
:1002D0001218DFE5BB30E7FB901FCBE475F002128C
:1002E0000A967580870000001218DFE5BB30E7FB37
:1002F000E490E68AF090E68B740402051AE490E636
:100300008BF0E5BA20E0FB90E6F4E070047F01801A
:10031000027F00EF20E0F0758085000000121A09CE
:10032000E5BB30E7FB75808700000090E743E0FE07
:1003300090E742121A11E5BB30E70302052680F66A
:10034000E490E68BF0E5BA20E0FB90E741E0FE9018
:10035000E740E0FDEDFF901B81EEF0A3EFF0901B76
:1003600081E0A2E713F0A3E013F002052690E60473
:100370007480F00000007406F0000000E4F000005B
:100380000090E74004F0E490E68AF090E68B04F0F9
:10039000020526901FC8A3E0FF30E00553807F8050
:1003A00003438080EF30E1055380FE8003438001EA
:1003B000901FC9E090E740F0E490E68AF090E68B69
:1003C0000402051AE490E68BF0E5BA20E0FB90E623
:1003D000BAE054074430901EE9F090E740E0901EE8
:1003E000EAF090E741E0901EEBF07A1E7BE97D0396
:1003F0007F10121A63020526E490E68BF0E5BA201E
:10040000E0FB901FC8E0FEA3E0FFEE6003020526BC
:10041000EF24FE60101460652402600302052612BA
:100420001998020526901EBEE06003020526C2ADA3
:10043000901ED4E02401FE901ED3E03400901FCE25
:10044000F0A3CEF0E4901FCDF0901FCDE0FFC39459
:1004500008501FA3E0FCA3E0FDEF25E024BFF582D8
:10046000E4341EF583ECF0A3EDF0901FCDE004F032
:1004700080D7901EBE7401F0D2AD02052690E742EF
:10048000E0FE90E741E0FDEDFF90E740E025E0244D
:10049000D5F582E4341EF583EEF0A3EFF0020526D5
:1004A000901FC8E0FEA3E0FFEE706BEF24FE6040FB
:1004B000047063E4901FCDF0901FCDE0FF75F067EE
:1004C000A42486F582E5F0341BF583E0FEC3743284
:1004D0009EFE74402FF582E434E7F583EEF0901F22
:1004E000CDE004F0E0B408D090E68B7408F08026EC
:1004F000901ED2E090E740F0901EE6E090E741F0D9
:10050000901ED4E090E742F0901ED3E090E743F0D5
:1005100090E68B7404F0E490E68AF090E6A0E04464
:0705200080F08002D322C32A
:0105270022B1
:1011F100C0E0C0F0C083C082C0D075D000C000C0C4
:0D12010001C002C003C004C005C006C00744
:10120E00901EBEE0700302129F901F98E4F0901F94
:10121E0098E0FFC394085079EF25E024D5F582E4D9
:10122E00341EF583E0FEA3E04E605D901F98E0252E
:10123E00E024BFF582E4341EF583E0FCA3E0FD90CC
:10124E001ED3E0FAA3E0FBED6B7002EC6A70397B03
:10125E00017A1F79991212CCEF6006901F98121422
:10126E00D8901F98E0FF25E024D5F582E4341EF5D2
:10127E0083E0FCA3E0FDEF25E024BFF582E4341EFD
:10128E00F583EC8DF0120A96901F98E004F002128E
:10129E001C901ED4E004F07006901ED3E004F0C241
:0312AE00CFC2CEDE
:1012B100D007D006D005D004D003D002D001D00091
:0B12C100D0D0D082D083D0F0D0E0323B
:101A7E00C0E0C083C082D2015391EF90E65D740145
:081A8E00F0D082D083D0E032D9
:101AAE00C0E0C083C0825391EF90E65D7404F0D025
:061ABE0082D083D0E0326B
:101AC400C0E0C083C0825391EF90E65D7402F0D011
:061AD40082D083D0E03255
:1017A600C0E0C083C082C0D075D000C006C007901C
:1017B6001FD9E0FEA3E0FF901FD5EEF0A3EFF0F5F2
:1017C600828E83A37402F0901FD1E0FEA3E0FF9007
:1017D6001FD7EEF0A3EFF0F5828E83A37407F053C4
:1017E60091EF90E65D7410F0D007D006D0D0D0828D
:0517F600D083D0E032B9
:101A9600C0E0C083C082D2035391EF90E65D740824
:081AA600F0D082D083D0E032C1
:10166E00C0E0C083C082C0D075D000C006C0079055
:10167E00E680E030E730901FD1E0FEA3E0FF901F40
:10168E00D5EEF0A3EFF0F5828E83A37402F0901FD7
:10169E00D9E0FEA3E0FF901FD7EEF0A3EFF0F582A6
:1016AE008E83A37407F05391EF90E65D7420F0D013
:0C16BE0007D006D0D0D082D083D0E0321C
:0114FF0032BA
:011B2C003286
:011B2D003285
:011B2E003284
:011B2F003283
:011B30003282
:011B31003281
:100D6800C0E0C0F0C083C082C0D075D000C000C051
:0D0D780001C002C003C004C005C006C007D2
:100D8500901FABE4F05391EF90E65F7420F07AF496
:100D9500790074F4F59A7400F59B90E694E0FE9062
:100DA500E695E0FDEDFF901FACEEF0A3EFF0901F90
:0B0DB500ACE07002A3E07003020ECC63
:100DC00090E67BE0901FAEF0E07003020ECC901F27
:100DD000AAE4F0901FAAE0FFC39408502A901FAE27
:100DE000E0FE30E013901FABE0FD04F074A22DF59F
:100DF00082E4341FF583EFF0EEC313901FAEF09042
:100E00001FAAE004F080CC901FADE024FFF0901FFB
:100E1000ACE034FFF0901FAAE4F0D3901FADE09453
:0C0E200000901FACE094005003020ECCC8
:100E2C00901FAAE024A2F582E4341FF583E0901F02
:100E3C00AFF0A3E4F0A3F090E67BE0FF901FB0E4EA
:100E4C00F0A3EFF0901FADE024FFF0901FACE03466
:100E5C00FFF0D3A3E09400901FACE09400402090EE
:100E6C00E67BE0FE901FB1E02400F0901FB0E03E66
:100E7C00F0901FADE024FFF0901FACE034FFF09039
:100E8C001FAFE0FF25E024D5F582E4341EF583E0A6
:100E9C00FCA3E04C600D901FB0E0FCA3E0FD12152C
:100EAC00B88006901FAF1214D8901FAAE004F0A3CC
:0D0EBC00E0FF901FAAE06F6003020E1AF025
:030EC900020E1AFC
:0C0ECC0000000090E6957480F00000002B
:100ED800D007D006D005D004D003D002D001D0006E
:0B0EE800D0D0D082D083D0F0D0E03218
:011B32003280
:011B3300327F
:011B3400327E
:011B3500327D
:011B3600327C
:011B3700327B
:011B3800327A
:011B39003279
:011B3A003278
:011B3B003277
:011B3C003276
:011B3D003275
:011B3E003274
:011B3F003273
:011B40003272
:011B41003271
:011B42003270
:011B4300326F
:011B4400326E
:011B4500326D
:011B4600326C
:011B4700326B
:011B4800326A
:011B49003269
:011B4A003268
:011B4B003267
:011B4C003266
:011B4D003265
:101A2900EF30E00353B1FEEF30E10353B1FDEF3086
:0D1A3900E20353B17FEF30E3035380EF224F
:101A4600EF30E00343B101EF30E10343B102EF3081
:0D1A5600E20343B180EF30E3034380102230
:03004300021500A3
:0300530002150093
:10150000021A7E00021AC400021AAE00021A9600E5
:101510000217A60002166E000214FF00021B2C0028
:10152000021B2D00021B2E00021B2F00021B30008D
:10153000021B3100020D6800021B3200021B330047
:10154000021B3400021B2C00021B3500021B36005C
:10155000021B3700021B3800021B3900021B3A0035
:10156000021B3B00021B2C00021B2C00021B2C0048
:10157000021B3C00021B3D00021B3E00021B3F0001
:10158000021B4000021B4100021B4200021B4300E1
:10159000021B4400021B4500021B4600021B4700C1
:1015A000021B4800021B4900021B4A00021B4B00A1
:0815B000021B4C00021B4D0060
:03002B000211F1CE
:101A63001218A1901FE4E024FA6009146006240709
:0B1A730070F1D322E4901FE4F0D322B6
:0A1B1600E4901FE4F0D2E9D2AF2200
:1018A100AC0790E678E020E6F9901FE4E0702D9017
:1018B100E678E04480F0AF04EF25E090E679F0901F
:1018C1001FDFEDF0AF03A907A37401F0A3EAF0A3B2
:0E18D100E9F0E4901FE3F0A304F0D322C32259
:03004B00020EF3AF
:100EF300C0E0C083C082C0D075D000C000C001C0B4
:100F030002C003C00790E678E030E209901FE47462
:100F130006F002101990E678E020E10E901FE4E05D
:100F2300640260067407F0021019901FE4E024FEC7
:100F33007003020FB814604924FE700302100B24DF
:100F4300FC700302101424086003021019901FE0C0
:100F5300E0FBA3E0FAA3E0F9901FE3E0FF04F08FC6
:100F6300827583001209B990E679F0901FDFE0FFE4
:100F7300901FE3E06F6003021019A37405F00210E1
:100F83001990E679E0FF901FE0E0FBA3E0FAA3E00D
:100F9300F9901FE3E0F582758300EF120A62901F58
:100FA300E47402F0901FDFE06401706A90E678E079
:100FB3004420F08061901FDFE024FEFF901FE3E0F8
:100FC300B5070790E678E04420F0901FDFE014FFB8
:100FD300901FE3E0B5070C90E678E04440F0901FE3
:100FE300E4E4F090E679E0FF901FE0E0FBA3E0FA91
:100FF300A3E0F9901FE3E0F582758300EF120A6224
:10100300901FE3E004F0800E90E678E04440F08027
:1010130000901FE4E4F05391DFD007D003D002D057
:0C10230001D000D0D0D082D083D0E032C9
:1019C10090E682E044C0F090E681F0438701000098
:0419D10000000022F0
:1019D5007400F58690FDA57C05A3E582458370F925
:0119E50022DF
:10196C0090E682E030E004E020E60B90E682E03086
:10197C00E119E030E71590E680E04401F07F147E39
:0C198C00001217FB90E680E054FEF022F1
:10190E0030050990E680E0440AF0800790E680E01A
:10191E004408F07FDC7E051217FB90E65D74FFF045
:0F192E0090E65FF05391EF90E680E054F7F022DF
:1017FB00901FC8EEF0A3EFF090E600E05418701ABB
:10180B00901FC9E02401FF901FC8E03400C313FEF2
:10181B00EF13FFEEF0A3EFF0801790E600E0541803
:10182B00FFBF100D901FC9E025E0F0901FC8E033FB
:10183B00F0901FC874FFF5F0120AAC45F06005126A
:05184B0019D580ED221B
:02193D00A907F8
:10193F00901FDDE0FEA3E0FF8F828E83A3E06403A0
:10194F007017AD0119ED7001228F828E83E07C003C
:0C195F002FFDEC3EFEAF0580DFE4FEFF34
:01196B002259
:0300000002144C9B
:0C144C00787FE4F6D8FD7581200214932F
:10097C00BB010689828A83E0225002E722BBFE0279
:09098C00E32289828A83E49322AC
:10099500BB010B89828A83F8E0C828F0E82250035E
:1009A50027C722BBFE07F8E3C828F3E8228A838914
:0409B50082E4932223
:1009B900BB010CE58229F582E5833AF583E02250F3
:1009C90006E92582F8E622BBFE06E92582F8E2223D
:0D09D900E58229F582E5833AF583E4932257
:1009E600BB0111F8E58229F582E5833AF583E0C873
:1009F60028F0E8225009C58229F8C58226C622BBFE
:100A0600FE0DC58229F8E2C5822582F2E58222EA38
:070A16002583F583E993221B
:100A1D00BB010FF8E58229F582E5833AF583E028DD
:100A2D00F0225009C58229F8E58226F622BBFE097F
:100A3D00C58229F8E22582F222F8EA2583F583E9B9
:030A4D00932822C9
:100A5000BB010689828A83F0225002F722BBFE0185
:020A6000F3227F
:100A6200F8BB010DE58229F582E5833AF583E8F0CA
:100A7200225006E92582C8F622BBFE05E92582C876
:020A8200F2225E
:100A8400EF8DF0A4A8F0CF8CF0A428CE8DF0A42E86
:020A9400FE2240
:100A9600C5F0F8A3E028F0C5F0F8E58215827002EB
:060AA6001583E038F02288
:100AAC00A3F8E0C5F025F0F0E582158270021583FD
:060ABC00E0C838F0E8225A
:100AC200BB0110E58229F582E5833AF583E0F5F072
:100AD200A3E0225009E92582F886F008E622BBFE4F
:100AE2000AE92582F8E2F5F008E222E5832AF58395
:080AF200E993F5F0A3E993225A
:100AFA00BB010A89828A83F0E5F0A3F0225006F747
:0F0B0A0009A7F01922BBFE06F3E5F009F3192243
:100B1900F8BB0111E58229F582E5833AF583E8F00E
:100B2900E5F0A3F0225009E92582C8F608A6F022CB
:0D0B3900BBFE09E92582C8F2E5F008F222B2
:100B4600EB9FF5F0EA9E42F0E99D42F0E89C45F005
:010B5600227C
:0C0B5700ECF0A3EDF0A3EEF0A3EFF02211
:100B6300A8828583F0D083D082120B7A120B7A127B
:100B73000B7A120B7AE473E493A3C583C5F0C583A0
:100B8300C8C582C8F0A3C583C5F0C583C8C582C8DC
:010B9300223F
:1014580002075CE493A3F8E493A34003F68001F247
:1014680008DFF48029E493A3F85407240CC8C33395
:10147800C4540F4420C8834004F456800146F6DF64
:10148800E4800B010204081020408090102FE47EB5
:10149800019360BCA3FF543F30E509541FFEE49359
:1014A800A360010ECF54C025E060A840B8E493A320
:1014B800FAE493A3F8E493A3C8C582C8CAC583CA4B
:1014C800F0A3C8C582C8CAC583CADFE9DEE780BE03
:0111140000DA
:00000001FF
