:100C00001201000200000040EF0301100000010289
:100C100000010A06000200000040010009022E0047
:100C200001010040320904000004FF000000070534
:100C30000202000200070504020002000705860206
:100C40000002000705880200020009022E000101CF
:100C50000040320904000004FF0000000705020202
:100C6000400000070504024000000705860240001E
:100C70000007058802400000040309041003500027
:100C8000690063006100720072006F001803500079
:100C9000690063006100720072006F002D00550052
:060CA000530042000000B9
:0A1060000001020203030404050569
:1005FE00E4F513F512F511F510C203C200C202C2E2
:10060E0001120CA67E0C7F008E238F24752B0C7589
:10061E002C1275210C75221C75290C752A4A752D04
:10062E000C752E78EE54E0700302074275140075B7
:10063E0015808E168F17C374A49FFF740C9ECF2443
:10064E0002CF3400FEE48F0F8E0EF50DF50CF50B78
:10065E00F50AF509F508AF0FAE0EAD0DAC0CAB0BF0
:10066E00AA0AA909A808C3120E465026E515250B9D
:10067E00F582E514350AF58374CDF0E50B2401F50A
:10068E000BE4350AF50AE43509F509E43508F508F1
:10069E0080C4E4F50BF50AF509F508AF0FAE0EAD03
:1006AE000DAC0CAB0BAA0AA909A808C3120E465032
:1006BE0031AE0AAF0BE5172FF582E5163EF583E056
:1006CE00FDE5152FF582E5143EF583EDF0EF2401DF
:1006DE00F50BE43EF50AE43509F509E43508F508AD
:1006EE0080B985142385152474002480FF740C347E
:1006FE00FFFEC3E52C9FF52CE52B9EF52BC3E526BF
:10070E009FF526E5259EF525C3E5289FF528E527C7
:10071E009EF527C3E5229FF522E5219EF521C3E52F
:10072E002A9FF52AE5299EF529C3E52E9FF52EE58C
:10073E002D9EF52DD2E843D82090E668E04409F0CE
:10074E0090E65CE0443DF0D2AF90E680E020E1051B
:10075E00D205120ECA90E680E054F7F0538EF8C21E
:10076E00033001051203DDC2013003291210765049
:10077E0024C203120F7920001690E682E030E704BF
:10078E00E020E1EF90E682E030E604E020E0E412C3
:0A079E000EF91210781207A880C7A8
:1003DD0090E6B9E0700302048B1470030205082443
:1003ED00FE700302058B24FB700302048514700359
:1003FD0002047F146070146073240560030205EA23
:10040D0012107A40030205F690E6BBE024FE60224E
:10041D0014603324FD601114602224067045E52319
:10042D0090E6B3F0E5248034E52B90E6B3F0E52CAF
:10043D00802AE52590E6B3F0E5268020E52790E6B5
:10044D00B3F0E528801690E6BAE0FF120F25AA0654
:10045D00A907EA49600DEE90E6B3F0EF90E6B4F02F
:10046D000205F60205EF12104E0205F612106A0291
:10047D0005F6120BB80205F612103C0205F6121025
:10048D007C40030205F690E6B8E0247F6015146009
:10049D001924027063A200E43325E0FFA202E433C5
:1004AD004F8041E490E740F0803F90E6BCE0547E01
:1004BD00FF7E00E0D394807C0040047D0180027DAE
:1004CD0000EC4EFEED4F2460F58274103EF583E492
:1004DD0093FF3395E0FEEF24A1FFEE34E68F82F516
:1004ED0083E0540190E740F0E4A3F090E68AF090A9
:1004FD00E68B7402F00205F60205EF12107E400342
:10050D000205F690E6B8E024FE60162402600302B0
:10051D0005F690E6BAE0B40105C2000205F6020543
:10052D00EF90E6BAE0705590E6BCE0547EFF7E0099
:10053D00E0D394807C0040047D0180027D00EC4E70
:10054D00FEED4F2460F58274103EF583E493FF3386
:10055D0095E0FEEF24A1FFEE34E68F82F583E054A3
:10056D00FEF090E6BCE05480131313541FFFE054CB
:10057D000F2F90E683F0E04420F0806D8064121020
:10058D0080506690E6B8E024FE60192402705A90FF
:10059D00E6BAE0B40104D200804F90E6BAE06402FE
:1005AD006047803E90E6BCE0547EFF7E00E0D39431
:1005BD00807C0040047D0180027D00EC4EFEED4FFD
:1005CD002460F58274103EF583E493FF3395E0FECD
:1005DD00EF24A1FFEE34E68F82F5838008120080B0
:1005ED00500790E6A0E04401F090E6A0E04480F0D2
:0105FD0022DB
:0300330002107246
:0410720053D8EF322E
:10095200608018002101013F01013F0701000003EF
:100962000000030007030103070507070900000051
:100972000000003F2101013F01013F070100020188
:100982000002010007020002060406070900000037
:100992000000003F02021302022EB807000001020B
:1009A200000103000301010705050707000000001D
:1009B20000002D3F02021302022E38070002030438
:1009C20002030500020000060404070700000000FD
:1009D20000002D3F60241887000000000000000086
:1009E2000000000000000000000000000000000005
:1009F200000000000000000000000000471880E036
:060A0200000007EA4E00AF
:100A2C0090E60174EAF090E6F574FFF0901880E01F
:100A3C0090E6F3F0901881E090E6C3F0901882E015
:100A4C0090E6C1F0901883E090E6C2F0901885E033
:100A5C0090E6C0F0901886E090E6F4F075AF07745D
:100A6C0018F59A7400F59B759DE4E4F59EFF90E6ED
:100A7C007BE090E67CF00FBF80F490E67174FFF0A1
:100A8C00F5B490E672E04480F043B680000000E4D8
:100A9C0090E6C4F000000090E6C5F0901887E09056
:100AAC00E6C6F0901888E090E6C7F0901889E090C0
:100ABC00E6C8F090188AE090E6C9F090188BE090A8
:100ACC00E6CAF090188CE090E6CBF090188DE09090
:0B0ADC00E6CCF090188EE090E6CDF024
:010AE70022EC
:100A08004218B000004118AF004218AB0000C10402
:100A18000234000002310000012F004118AD0041EE
:030A280018AE0005
:0C0F9E0090E741E090E740FEE0FDEDFF31
:100FAA00AD07AC06E5BB30E7FB90E6F0ECF0ED9060
:040FBA00E6F1F0224A
:060F5100AB1AAA1BA91C4B
:100F5700E5BB30E7FB90E6F1E0F52FE5BB30E7FBBB
:100F670090E6F2E0FE90E6F0E0FDEDFFEE8FF00296
:020F77000E2743
:100CA60000000090E600E054E74410F000000090D9
:100CB600E605E054FDF0D20090E61074A0F090E650
:100CC60011F000000090E612F0000000E490E61338
:100CD600F000000090E61474E0F0000000E490E6F6
:100CE60015F000000090E6047480F0000000740225
:100CF600F00000007406F0000000E4F00000009030
:100D0600E61804F00000007411F000000090E61AE6
:100D16007409F0000000E490E68DF0120A2C90E6CB
:100D2600727408F075B69375B110E4F59890E67094
:090D360004F043B2FE7580812235
:1007A800E5BB20E703020841E5AB30E1030208415D
:1007B80090E6F4E070047F0180027F00EF20E0F013
:1007C80090E6ABE0FE90E6ACE0FDAC06ECC313FCB3
:1007D800ED1324FEFD74FF3CFCD3ED9400EC940073
:1007E8004025758089AF0490E6D0EFF0000000AF97
:1007F80005EF90E6D1F0000000E4F5BB000000E54D
:10080800BB30E7FB00000090E6F4E070047F018055
:10081800027F00EF20E0F075808DE490E6D0F000D4
:10082800000090E6D17402F0000000E4F5BB00007F
:1008380000E5BB30E7FB0000009018ABE07002A3B6
:10084800E0700302091CE5BB20E70302091CE5ACC4
:1008580030E00302091C90E6F4E070047F01800296
:100868007F00EF20E0F09018ACE024FEF09018AB89
:10087800E034FFF0D3A3E094009018ABE0648094D8
:10088800804038758089E490E6CEF000000090E65C
:10089800CFF00000009018ABE0FCA3E0FDEC90E680
:1008A800D0F0000000ED90E6D1F000000075BB0626
:1008B800000000E5BB30E7FB00000075808DE49088
:1008C800E6CEF000000090E6CFF000000090E6D001
:1008D800F000000090E6D17402F000000075BB063D
:1008E800000000E5BB30E7FB00000090E6AFE0FE4B
:1008F80090E6B0E0FDEEF531EDF532C39535E53122
:100908009534500690E6487406F0E49018ABF0A3CE
:10091800F075808D9018B0E475F001120E11AFF0EB
:10092800FEBE2725BF10229018AFE07F01600A1293
:100938000FBEE49018AFF08009120FDB9018AF7467
:0909480001F0E49018B0F0A3F0F6
:010951002283
:02107600D32283
:02107800D32281
:02107A00D3227F
:100BB80090E680E030E71D00000090E6247402F023
:100BC800000000E490E625F0000000D2047534022D
:100BD800F535801B000000E490E624F0000000904A
:100BE800E6257440F0000000C204753400F5359025
:070BF800E6BAE0F533D32259
:10103C0090E740E533F0E490E68AF090E68B04F01C
:02104C00D322AD
:08106A0090E6BAE0F530D32254
:10104E0090E740E530F0E490E68AF090E68B04F00D
:02105E00D3229B
:02107C00D3227D
:02107E00D3227B
:02108000D32279
:1000800090E6BBE0FE90E6BAE0FDEEF518EDF5195E
:1000900090E6BFE0FE90E6BEE0FDEDFFE4F51DF565
:1000A0001E90E6B9E02450603624F0B40A00400304
:1000B0000203D99000C175F003A4C58325F0C58360
:1000C000730200F60201E80202350202770202C45E
:1000D00002030702033402018202035A02038590DD
:1000E000E74074E9F0A37403F0E490E68AF090E648
:1000F0008B74020203CFE5186003020180E5192426
:10010000FE60271460522402707653B1EF000000A5
:10011000000000000043B11090E7407401F0E4904B
:10012000E68AF090E68B040203CFE490E68BF0E5DC
:10013000BA20E0FBE4FDFCC3ED9FEC9E400302030C
:10014000DB74402DF582E434E7F583E0F5995398AC
:10015000FD0DBD00010C80DFAFB1EF30E6047E0283
:1001600080027E00EF30E5047F0180027F00EF4EC9
:1001700090E740F0E490E68AF090E68B040203CF2B
:10018000D322E5187060E51924FE601B14602A2450
:10019000027053A204E43390E740F0E490E68AF062
:1001A00090E68B040203CF90E740E5BBF0E490E6D5
:1001B0008AF090E68B040203CF90E6D1E090E7400E
:1001C000F090E6D0E090E741F090E6CFE090E74293
:1001D000F090E6CEE090E743F0E490E68AF090E617
:1001E0008B74040203CFD32290E6F4E070047F0105
:1001F00080027F00EF20E0F0751A01751BE7751C87
:1002000040758081000000120F51E5BB30E7FB74A0
:1002100002251CF51CE4351BF51B758083000000CE
:10022000120F51E5BB30E7FBE490E68AF090E68BD5
:1002300074040203CFE490E68BF0E5BA20E0FB9073
:10024000E6F4E070047F0180027F00EF20E0F075AB
:100250008081000000120F9EE5BB30E7FB758083B4
:1002600000000090E743E090E742120FA5E5BB30A5
:10027000E7030203DB80F690E6F4E070047F018080
:10028000027F00EF20E0F0751A01751BE7751C4036
:10029000758085000000120F51E5BB30E7FB74024A
:1002A000251CF51CE4351BF51B758087000000122A
:1002B0000F51E5BB30E7FBE490E68AF090E68B74E3
:1002C000040203CFE490E68BF0E5BA20E0FB90E671
:1002D000F4E070047F0180027F00EF20E0F0758081
:1002E00085000000120F9EE5BB30E7FB758087009C
:1002F000000090E743E0FE90E742120FA6E5BB3016
:10030000E7030203DB80F6E490E68BF0E5BA20E039
:10031000FB90E741E0FE90E740E0FDEDFF9018AB79
:10032000EEF0A3EFF09018ABE0A2E713F0A3E01318
:10033000F00203DB90E6047480F00000007406F025
:10034000000000E4F000000090E74004F0E490E6D4
:100350008AF090E68B04F00203DBE51930E00553E8
:10036000807F8003438080E51930E1055380FE8063
:100370000343800190E740E519F0E490E68AF090AD
:10038000E68B04804A90E680E04408F0E4FFFEE457
:10039000FDFCEF2DFBEE3CFAEB251EF51EEA351DAC
:1003A000F51D0DBD00010CED64644C70E50FBF0040
:1003B000010EBE03DABFE8D700000090E680E054EB
:1003C000F7F0E490E740F090E68AF090E68B04F0D6
:0C03D00090E6A0E04480F08002D322C33D
:0103DC0022FE
:100AE800C0E0C083C082D2015391EF90E65D7401EB
:080AF800F0D082D083D0E0327F
:10101000C0E0C083C0825391EF90E65D7404F0D0CD
:0610200082D083D0E03213
:10102600C0E0C083C0825391EF90E65D7402F0D0B9
:0610360082D083D0E032FD
:100E9400C0E0C083C082852925852A2685268285CF
:100EA4002583A37402F0852127852228852882853D
:100EB4002783A37407F05391EF90E65D7410F0D08C
:060EC40082D083D0E03271
:100FF800C0E0C083C082D2035391EF90E65D7408CD
:08100800F0D082D083D0E03269
:100E5700C0E0C083C08290E680E030E7208521258E
:100E6700852226852682852583A37402F085292776
:100E7700852A28852882852783A37407F05391EF55
:0D0E870090E65D7420F0D082D083D0E03280
:010BFF0032C3
:01108200323B
:01108300323A
:011084003239
:011085003238
:011086003237
:011087003236
:011088003235
:011089003234
:01108A003233
:01108B003232
:01108C003231
:01108D003230
:01108E00322F
:01108F00322E
:01109000322D
:01109100322C
:01109200322B
:01109300322A
:011094003229
:011095003228
:011096003227
:011097003226
:011098003225
:011099003224
:01109A003223
:01109B003222
:01109C003221
:01109D003220
:01109E00321F
:01109F00321E
:0110A000321D
:0110A100321C
:0110A200321B
:0110A300321A
:0110A4003219
:100FBE00EF30E00353B1FEEF30E10353B1FDEF30FC
:0D0FCE00E20353B17FEF30E3035380EF22C5
:100FDB00EF30E00343B101EF30E10343B102EF30F7
:0D0FEB00E20343B180EF30E30343801022A6
:100EF90090E682E030E004E020E60B90E682E03004
:100F0900E119E030E71590E680E04401F07F147EB6
:0C0F190000120DCB90E680E054FEF022A8
:100F790090E682E044C0F090E681F04387010000EA
:040F89000000002242
:100ECA0030050990E680E0440AF0800790E680E069
:100EDA004408F07FDC7E05120DCB90E65D74FFF0CE
:0F0EEA0090E65FF05391EF90E680E054F7F0222E
:020F2500A9071A
:100F2700AE2DAF2E8F828E83A3E064037017AD01C1
:100F370019ED7001228F828E83E07C002FFDEC3E3D
:090F4700FEAF0580DF7E007F0093
:010F5000227E
:100DCB008E188F1990E600E054187012E519240163
:100DDB00FFE43518C313F518EF13F519801590E6DA
:100DEB0000E05418FFBF100BE51925E0F519E518C5
:100DFB0033F518E5191519AE18700215184E600564
:060E0B00120F8D80EE22A3
:100F8D007400F58690FDA57C05A3E582458370F977
:010F9D002231
:03004300020B00AD
:03005300020B009D
:100B0000020AE8000210260002101000020FF8008E
:100B1000020E9400020E5700020BFF00021082002A
:100B2000021083000210840002108500021086006B
:100B300002108700021088000210890002108A004B
:100B400002108B000210820002108C0002108D0037
:100B500002108E0002108F0002109000021091000F
:100B60000210920002108200021082000210820025
:100B700002109300021094000210950002109600DB
:100B800002109700021098000210990002109A00BB
:100B900002109B0002109C0002109D0002109E009B
:100BA00002109F000210A0000210A1000210A2007B
:080BB0000210A3000210A400D2
:03000000020D3FAF
:0C0D3F00787FE4F6D8FD758135020D8642
:100E1100C5F0F8A3E028F0C5F0F8E582158270026C
:060E21001583E038F02209
:100E2700BB010A89828A83F0E5F0A3F0225006F716
:0F0E370009A7F01922BBFE06F3E5F009F3192213
:100E4600EB9FF5F0EA9E42F0E99D42F0E89C45F002
:010E56002279
:100D4B000205FEE493A3F8E493A34003F68001F2BB
:100D5B0008DFF48029E493A3F85407240CC8C333A9
:100D6B00C4540F4420C8834004F456800146F6DF78
:100D7B00E4800B0102040810204080900952E47EAD
:100D8B00019360BCA3FF543F30E509541FFEE4936D
:100D9B00A360010ECF54C025E060A840B8E493A334
:100DAB00FAE493A3F8E493A3C8C582C8CAC583CA5F
:100DBB00F0A3C8C582C8CAC583CADFE9DEE780BE17
:010A2B0000CA
:00000001FF
