:100D00001201000200000040EF0301100000010288
:100D100000010A06000200000040010009022E0046
:100D2000010100C0000904000004FF0000000705E5
:100D30000202000200070504020002000705860205
:100D40000002000705880200020009022E000101CE
:100D500000C0320904000004FF0000000705020281
:100D6000400000070504024000000705860240001D
:100D70000007058802400000040309041003500026
:100D8000690063006100720072006F001803500078
:100D9000690063006100720072006F002D00550051
:060DA000530042000000B8
:0A11BB00000102020303040405050D
:1005F3009018B3120E0E00000000C203C200C20224
:10060300C201120E3F7E0D7F009018C4EEF0A3EFDF
:10061300F09018CC740DF0A37412F09018C2740DFE
:10062300F0A3741CF09018CA740DF0A3744AF090F0
:1006330018CE740DF0A37478F0EE54E07003020743
:10064300AD9018B7E4F0A37480F0A3EEF0A3EFF03D
:10065300C374A49FFF740D9ECF2402CF3400FEE425
:10066300FCFD9018AF120E029018AB120E0E000094
:1006730000009018AFE0FCA3E0FDA3E0FEA3E0FFC1
:100683009018ABE0F8A3E0F9A3E0FAA3E0FBC312F0
:100693000DF1503A9018ADE0FEA3E0FF9018B7E0DB
:1006A300FCA3E02FF582EC3EF58374CDF09018ABFC
:1006B300E0FCA3E0FDA3E0FEA3E02401FFE43EFE93
:1006C300E43DFDE43CFC9018AB120E0280A49018AC
:1006D300AB120E0E000000009018AFE0FCA3E0FD8B
:1006E300A3E0FEA3E0FF9018ABE0F8A3E0F9A3E0DA
:1006F300FAA3E0FBC3120DF150499018ADE0FEA33D
:10070300E0FF9018B9E0FCA3E02FF582EC3EF583FF
:10071300E0FD9018B7E0FAA3E02FF582EA3EF583F7
:10072300EDF09018ABE0FCA3E0FDA3E0FEA3E02412
:1007330001FFE43EFEE43DFDE43CFC9018AB120EE9
:100743000280959018B7E0FFA3E09018C4CFF0A300
:10075300EFF074002480FF740D34FFFEC39018CDB6
:10076300E09FF09018CCE09EF0C39018C7E09FF094
:100773009018C6E09EF0C39018C9E09FF09018C887
:10078300E09EF0C39018C3E09FF09018C2E09EF083
:10079300C39018CBE09FF09018CAE09EF0C3901866
:1007A300CFE09FF09018CEE09EF0D2E843D820909F
:1007B300E668E04409F090E65CE0443DF0D2AF9097
:1007C300E680E020E105D20512105E90E680E05459
:1007D300F7F0538EF8C2033001051203BFC2013094
:1007E3000329120BFE5024C2031210E820001690B6
:1007F300E682E030E704E020E1EF90E682E030E6D5
:1008030004E020E0E41210BC1211D312081380C7D5
:1003BF0090E6B9E070030204801470030204FD2478
:1003CF00FE700302058024FB700302047A1470038D
:1003DF0002047414700302046814700302046E2480
:1003EF000560030205DF1211D540030205EB90E60D
:1003FF00BBE024FE602814604024FD601414602BC1
:10040F00240670529018C4E090E6B3F09018C5809F
:10041F00259018CCE090E6B3F09018CD8018901886
:10042F00C6E090E6B3F09018C7800B9018C8E09024
:10043F00E6B3F09018C9E0801690E6BAE0FF12100C
:10044F008DAA06A907EA49600DEE90E6B3F0EF908A
:10045F00E6B4F00205EB0205E41211A70205EB1258
:10046F0011C50205EB12100D0205EB1211930205D7
:10047F00EB1211D740030205EB90E6B8E0247F6042
:10048F001514601924027063A200E43325E0FFA263
:10049F0002E4334F8041E490E740F0803F90E6BCA8
:1004AF00E0547EFF7E00E0D394807C0040047D0109
:1004BF0080027D00EC4EFEED4F24BBF58274113EA1
:1004CF00F583E493FF3395E0FEEF24A1FFEE34E6CE
:1004DF008F82F583E0540190E740F0E4A3F090E6BB
:1004EF008AF090E68B7402F00205EB0205E412111C
:1004FF00D940030205EB90E6B8E024FE6016240213
:10050F0060030205EB90E6BAE0B40105C2000205F4
:10051F00EB0205E490E6BAE0705590E6BCE0547E3D
:10052F00FF7E00E0D394807C0040047D0180027D3B
:10053F0000EC4EFEED4F24BBF58274113EF583E4C3
:10054F0093FF3395E0FEEF24A1FFEE34E68F82F5A3
:10055F0083E054FEF090E6BCE05480131313541F55
:10056F00FFE0540F2F90E683F0E04420F0806D8081
:10057F00641211DB506690E6B8E024FE6019240285
:10058F00705A90E6BAE0B40104D200804F90E6BAF8
:10059F00E064026047803E90E6BCE0547EFF7E0040
:1005AF00E0D394807C0040047D0180027D00EC4EFE
:1005BF00FEED4F24BBF58274113EF583E493FF33B8
:1005CF0095E0FEEF24A1FFEE34E68F82F5838008DD
:1005DF00120080500790E6A0E04401F090E6A0E002
:0305EF004480F055
:0105F20022E6
:030033000211CFE8
:0411CF0053D8EF32D0
:1009F100608018002101013F01013F070100000350
:100A010000000300070301030705070709000000B1
:100A11000000003F2101013F01013F0701000201E8
:100A21000002010007020002060406070900000097
:100A31000000003F02021302022EB807000001026B
:100A4100000103000301010705050707000000007D
:100A510000002D3F02021302022E38070002030498
:100A6100020305000200000604040707000000005D
:100A710000002D3F602418870000000000000000E6
:100A81000000000000000000000000000000000065
:100A9100000000000000000000000000471880E096
:060AA100000007EA4E0010
:100ACE0090E60174EAF090E6F574FFF0901880E07D
:100ADE0090E6F3F0901881E090E6C3F0901882E073
:100AEE0090E6C1F0901883E090E6C2F0901885E091
:100AFE0090E6C0F0901886E090E6F4F075AF0774BB
:100B0E0018F59A7400F59B759DE4E4F59EFF90E64A
:100B1E007BE090E67CF00FEFB480F3E490E671F0AA
:100B2E00F5B490E672E0547FF053B67F000000E417
:100B3E0090E6C4F000000090E6C5F0901887E090B3
:100B4E00E6C6F0901888E090E6C7F0901889E0901D
:100B5E00E6C8F090188AE090E6C9F090188BE09005
:100B6E00E6CAF090188CE090E6CBF090188DE090ED
:0B0B7E00E6CCF090188EE090E6CDF081
:010B89002249
:100AA7004218D900004118D8004218D10000C104EB
:100AB7004218DC00004218D600004118D000411847
:060AC700D3004118D50028
:0C110D0090E741E090E740FEE0FDEDFFC0
:10111900AD07AC06E5BB30E7FBEC90E6F0F0ED90EF
:04112900E6F1F022D9
:0B0CB8009018BDE0FBA3E0FAA3E0F9F8
:100CC300E5BB30E7FB90E6F1E09018D0F0E5BB30F0
:100CD300E7FB90E6F2E0FE90E6F0E0FDEDFFEE8F3D
:040CE300F0020DD23C
:100E3F0000000090E600E054E74410F0000000903E
:100E4F00E605E054FDF0D20090E61074A0F090E6B5
:100E5F0011F000000090E612F0000000E490E6139D
:100E6F00F000000090E61474E0F0000000E490E65B
:100E7F0015F000000090E6047480F000000074028A
:100E8F00F00000007406F0000000E4F00000009095
:100E9F00E61804F00000007411F000000090E61A4C
:100EAF007409F0000000E490E68DF0120ACE90E68F
:100EBF00727408F075B693E4F5B1F59890E6700486
:080ECF00F043B29E7580812200
:10081300E5BB20E7030208BDE5AB30E1030208BDF9
:1008230090E6F4E070047F0180027F00EF20E0F0A7
:1008330090E6ABE0FE90E6ACE0FDAC06ECC313FC47
:10084300ED1324FEFD74FF3CFCD3ED9400EC940007
:100853004023758089EC90E6D0F0000000AF05EFEF
:1008630090E6D1F0000000E4F5BB000000E5BB30EA
:10087300E7FB00000090E6F4E070047F0180027F54
:1008830000EF20E0F075808DE490E6D0F0000000EA
:1008930090E6D17402F0000000E4F5BB000000E52F
:1008A300BB30E7FB00000090E6F4E070047F0180BA
:1008B300027F00EF20E0F00000009018D1E070020A
:1008C300A3E070030209BBE5BB20E7030209BBE514
:1008D300AC30E0030209BB90E6F4E070047F0180D2
:1008E300027F00EF20E0F09018D2E024FEF0901891
:1008F300D1E034FFF0D3A3E094009018D1E06480FA
:1009030094804038758089E490E6CEF00000009032
:10091300E6CFF00000009018D1E0FCA3E0FDEC90DE
:10092300E6D0F0000000ED90E6D1F000000075BBCA
:1009330006000000E5BB30E7FB00000075808DE496
:1009430090E6CEF000000090E6CFF000000090E6C5
:10095300D0F000000090E6D17402F000000075BBF7
:1009630006000000E5BB30E7FB00000090E6AFE0C7
:10097300FE90E6B0E0FDEDFF9018D6EEF0A3EFF0A9
:100983009018DCE0FEA3E0FFC39018D7E09F901817
:10099300D6E09E500690E6487406F0E49018D1F035
:1009A300A3F075808D90E6F4E070047F0180027FF0
:1009B30000EF20E0F00000009018D9E475F0011278
:1009C3000DA6AFF0FEBE2725BF10229018D8E07FFA
:1009D30001600A12112DE49018D8F0800912114A0F
:0D09E3009018D87401F0E49018D9F0A3F03A
:0109F00022E4
:020BFE00D32200
:0211D300D32225
:0211D500D32223
:10100D0090E680E030E72100000090E6247402F0C5
:10101D00000000E490E625F0000000D2049018DCFA
:10102D007404F0A3E4F0801F000000E490E624F0C7
:10103D0000000090E6257440F0000000C2049018F6
:10104D00DCE4F0A37440F090E6BAE09018DBF0D346
:01105D002270
:101193009018DBE090E740F0E490E68AF090E68B6D
:0411A30004F0D3225F
:0A11C50090E6BAE09018D4F0D322AF
:1011A7009018D4E090E740F0E490E68AF090E68B60
:0411B70004F0D3224B
:0211D700D32221
:0211D900D3221F
:0211DB00D3221D
:1000800090E6BBE0FE90E6BAE0FDEDFF9018BBEE17
:10009000F0A3EFF090E6BFE0FE90E6BEE0FDEDFFDE
:1000A000E49018C0F0A3F090E6B9E0245060332447
:1000B000F0B4090040030203BB9000C775F003A42D
:1000C000C58325F0C583730200F902020B02025CAE
:1000D00002029E0202EF02033202035E02019F024D
:1000E000038390E74074E9F0A37403F0E490E68A98
:1000F000F090E68B74020203B19018BBE0FCA3E021
:10010000FDEC600302019DED24FE603B146066245B
:1001100002600302019D75B69375B11000000000E6
:100120000000000053B1EF00000000000000004399
:10013000B11075B68390E7407401F0E490E68AF060
:1001400090E68B040203B1E490E68BF0E5BA20E080
:10015000FBE4FDFCC3ED9FEC9E40030203BD744035
:100160002DF582E434E7F583E0F5995398FD0DBD54
:1001700000010C80DFAFB1EF30E6047E0280027E2A
:1001800000EF30E5047F0180027F00EF4E90E740F2
:10019000F0E490E68AF090E68B040203B1D322905B
:1001A00018BBE0FEA3E0FFEE705FEF24FE601B14BF
:1001B000602A24027053A204E43390E740F0E490F4
:1001C000E68AF090E68B040203B190E740E5BBF0CD
:1001D000E490E68AF090E68B040203B190E6D1E069
:1001E00090E740F090E6D0E090E741F090E6CFE075
:1001F00090E742F090E6CEE090E743F0E490E68AA4
:10020000F090E68B74040203B1D32290E6F4E07020
:10021000047F0180027F00EF20E0F09018BD7401A0
:10022000F0A374E7F0A37440F07580810000001221
:100230000CB8E5BB30E7FB9018BEE475F002120D78
:10024000A6758083000000120CB8E5BB30E7FBE424
:1002500090E68AF090E68B74040203B1E490E68B9A
:10026000F0E5BA20E0FB90E6F4E070047F01800244
:100270007F00EF20E0F075808100000012110DE595
:10028000BB30E7FB75808300000090E743E090E718
:1002900042121114E5BB30E7030203BD80F690E67D
:1002A000F4E070047F0180027F00EF20E0F09018FE
:1002B000BD7401F0A374E7F0A37440F0758085006D
:1002C0000000120CB8E5BB30E7FB9018BEE475F0F7
:1002D00002120DA6758087000000120CB8E5BB3035
:1002E000E7FBE490E68AF090E68B74040203B1E445
:1002F00090E68BF0E5BA20E0FB90E6F4E070047F36
:100300000180027F00EF20E0F07580850000001280
:10031000110DE5BB30E7FB75808700000090E743D7
:10032000E0FE90E742121115E5BB30E7030203BD82
:1003300080F6E490E68BF0E5BA20E0FB90E741E040
:10034000FE90E740E0FDEDFF9018D1EEF0A3EFF056
:100350009018D1E0A2E713F0A3E013F0805F90E6DD
:10036000047480F00000007406F0000000E4F00067
:10037000000090E74004F0E490E68AF090E68B04F9
:10038000F0803A9018BBA3E0FF30E00553807F80F7
:1003900003438080EF30E1055380FE8003438001FA
:1003A0009018BCE090E740F0E490E68AF090E68B8D
:0E03B00004F090E6A0E04480F08002D322C367
:0103BE00221C
:100BE600C0E0C083C082D2015391EF90E65D7401EC
:080BF600F0D082D083D0E03280
:10116700C0E0C083C0825391EF90E65D7404F0D075
:0611770082D083D0E032BB
:10117D00C0E0C083C0825391EF90E65D7402F0D061
:06118D0082D083D0E032A5
:100F6300C0E0C083C082C0D075D000C006C0079067
:100F730018CAE0FEA3E0FF9018C6EEF0A3EFF0F569
:100F8300828E83A37402F09018C2E0FEA3E0FF9068
:100F930018C8EEF0A3EFF0F5828E83A37407F05325
:100FA30091EF90E65D7410F0D007D006D0D0D082D8
:050FB300D083D0E03204
:100CE700C0E0C083C082D2035391EF90E65D7408E1
:080CF700F0D082D083D0E0327E
:100B8A00C0E0C083C082C0D075D000C006C0079044
:100B9A00E680E030E7309018C2E0FEA3E0FF90184C
:100BAA00C6EEF0A3EFF0F5828E83A37402F09018DC
:100BBA00CAE0FEA3E0FF9018C8EEF0A3EFF0F582BA
:100BCA008E83A37407F05391EF90E65D7420F0D002
:0C0BDA0007D006D0D0D082D083D0E0320B
:010CFF0032C2
:0111DD0032DF
:0111DE0032DE
:0111DF0032DD
:0111E00032DC
:0111E10032DB
:0111E20032DA
:0111E30032D9
:0111E40032D8
:0111E50032D7
:0111E60032D6
:0111E70032D5
:0111E80032D4
:0111E90032D3
:0111EA0032D2
:0111EB0032D1
:0111EC0032D0
:0111ED0032CF
:0111EE0032CE
:0111EF0032CD
:0111F00032CC
:0111F10032CB
:0111F20032CA
:0111F30032C9
:0111F40032C8
:0111F50032C7
:0111F60032C6
:0111F70032C5
:0111F80032C4
:0111F90032C3
:0111FA0032C2
:0111FB0032C1
:0111FC0032C0
:0111FD0032BF
:0111FE0032BE
:0111FF0032BD
:10112D00EF30E00353B1FEEF30E10353B1FDEF308B
:0D113D00E20353B17FEF30E3035380EF2254
:10114A00EF30E00343B101EF30E10343B102EF3086
:0D115A00E20343B180EF30E3034380102235
:1010BC0090E682E030E004E020E60B90E682E0303F
:1010CC00E119E030E71590E680E04401F07F147EF2
:0C10DC0000120FB890E680E054FEF022F5
:1010E80090E682E044C0F090E681F043870100007A
:0410F80000000022D2
:10105E0030050990E680E0440AF0800790E680E0D3
:10106E004408F07FDC7E05120FB890E65D74FFF049
:0F107E0090E65FF05391EF90E680E054F7F02298
:02108D00A907B1
:10108F009018CEE0FEA3E0FF8F828E83A3E064036F
:10109F007017AD0119ED7001228F828E83E07C00F5
:0C10AF002FFDEC3EFEAF0580DFE4FEFFED
:0110BB002212
:100FB8009018BBEEF0A3EFF090E600E05418701A1A
:100FC8009018BCE02401FF9018BBE03400C313FE66
:100FD800EF13FFEEF0A3EFF0801790E600E054184F
:100FE800FFBF100D9018BCE025E0F09018BBE0336F
:100FF800F09018BB74FFF5F0120DBC45F0600512B7
:0510080010FC80ED2248
:1010FC007400F58690FDA57C05A3E582458370F907
:01110C0022C0
:03004300020C00AC
:03005300020C009C
:100C0000020BE60002117D0002116700020CE700F2
:100C1000020F6300020B8A00020CFF000211DD00CC
:100C20000211DE000211DF000211E0000211E100FA
:100C30000211E2000211E3000211E4000211E500DA
:100C40000211E6000211DD000211E7000211E800C6
:100C50000211E9000211EA000211EB000211EC009E
:100C60000211ED000211DD000211DD000211DD00B4
:100C70000211EE000211EF000211F0000211F1006A
:100C80000211F2000211F3000211F4000211F5004A
:100C90000211F6000211F7000211F8000211F9002A
:100CA0000211FA000211FB000211FC000211FD000A
:080CB0000211FE000211FF0019
:03000000020ED716
:0C0ED700787FE4F6D8FD758120020F1E24
:100DA600C5F0F8A3E028F0C5F0F8E58215827002D8
:060DB6001583E038F02275
:100DBC00A3F8E0C5F025F0F0E582158270021583EA
:060DCC00E0C838F0E82247
:100DD200BB010A89828A83F0E5F0A3F0225006F76C
:0F0DE20009A7F01922BBFE06F3E5F009F3192269
:100DF100EB9FF5F0EA9E42F0E99D42F0E89C45F058
:010E010022CE
:0C0E0200ECF0A3EDF0A3EEF0A3EFF02263
:100E0E00A8828583F0D083D082120E25120E251271
:100E1E000E25120E25E473E493A3C583C5F0C58396
:100E2E00C8C582C8F0A3C583C5F0C583C8C582C82E
:010E3E002291
:100EE3000205F3E493A3F8E493A34003F68001F22D
:100EF30008DFF48029E493A3F85407240CC8C33310
:100F0300C4540F4420C8834004F456800146F6DFDE
:100F1300E4800B01020408102040809009F1E47E74
:100F2300019360BCA3FF543F30E509541FFEE493D3
:100F3300A360010ECF54C025E060A840B8E493A39A
:100F4300FAE493A3F8E493A3C8C582C8CAC583CAC5
:100F5300F0A3C8C582C8CAC583CADFE9DEE780BE7D
:010ACD000028
:00000001FF
