:101300001201000200000040EF0301100000010282
:1013100000010A06000200000040010009022E0040
:10132000010100C0000904000004FF0000000705DF
:1013300002020002000705040200020007058602FF
:101340000002000705880200020009022E000101C8
:1013500000C0320904000004FF000000070502027B
:101360004000000705040240000007058602400017
:101370000007058802400000040309041003500020
:10138000690063006100720072006F001803500072
:10139000690063006100720072006F002D0055004B
:0613A000530042000000B2
:0A12F20000010202030304040505D5
:10082000901FA7120E1900000000C203C200C202EE
:10083000C20112102D7E137F00901FC1EEF0A3EFB6
:10084000F0901FC97413F0A37412F0901FBF7413BB
:10085000F0A3741CF0901FC77413F0A3744AF090B7
:100860001FCB7413F0A37478F0EE54E07003020908
:10087000DA901FABE4F0A37480F0A3EEF0A3EFF0E6
:10088000C374A49FFF74139ECF2402CF3400FEE4F0
:10089000FCFD901FA3120E0D901F9F120E19000059
:1008A0000000901FA3E0FCA3E0FDA3E0FEA3E0FF97
:1008B000901F9FE0F8A3E0F9A3E0FAA3E0FBC312C6
:1008C0000DFC503A901FA1E0FEA3E0FF901FABE0AB
:1008D000FCA3E02FF582EC3EF58374CDF0901F9FD2
:1008E000E0FCA3E0FDA3E0FEA3E02401FFE43EFE64
:1008F000E43DFDE43CFC901F9F120E0D80A4901F70
:100900009F120E1900000000901FA3E0FCA3E0FD61
:10091000A3E0FEA3E0FF901F9FE0F8A3E0F9A3E0AF
:10092000FAA3E0FBC3120DFC5049901FA1E0FEA307
:10093000E0FF901FADE0FCA3E02FF582EC3EF583D5
:10094000E0FD901FABE0FAA3E02FF582EA3EF583CD
:10095000EDF0901F9FE0FCA3E0FDA3E0FEA3E024E8
:1009600001FFE43EFEE43DFDE43CFC901F9F120EBF
:100970000D8095901FABE0FFA3E0901FC1CFF0A3C7
:10098000EFF074002480FF741334FFFEC3901FCA7D
:10099000E09FF0901FC9E09EF0C3901FC4E09FF05D
:1009A000901FC3E09EF0C3901FC6E09FF0901FC54C
:1009B000E09EF0C3901FC0E09FF0901FBFE09EF04C
:1009C000C3901FC8E09FF0901FC7E09EF0C3901F28
:1009D000CCE09FF0901FCBE09EF0D2E843D820906F
:1009E000E668E04409F090E65CE0443DF0D2AF9068
:1009F000E680E020E105D2051217DC90E680E054A5
:100A0000F7F0538EF8C2033001051205ECC2013035
:100A10000329121A295024C203121892200016909A
:100A2000E682E030E704E020E1EF90E682E030E6A5
:100A300004E020E0E4121866121A2B120A4080C764
:1005EC0090E6B9E070030206AD14700302072A24EA
:1005FC00FE70030207AD24FB70030206A714700300
:10060C000206A114700302069514700302069B24C3
:10061C0005600302080C121A2D400302081890E61C
:10062C00BBE024FE602814604024FD601414602B91
:10063C0024067052901FC1E090E6B3F0901FC28068
:10064C0025901FC9E090E6B3F0901FCA8018901F48
:10065C00C3E090E6B3F0901FC4800B901FC5E090F0
:10066C00E6B3F0901FC6E0801690E6BAE0FF1218D1
:10067C000BAA06A907EA49600DEE90E6B3F0EF90DD
:10068C00E6B4F00208180208111219F70208181241
:10069C001A150208181216BA0208181219E30208E1
:1006AC0018121A2F400302081890E6B8E0247F6055
:1006BC001514601924027063A200E43325E0FFA234
:1006CC0002E4334F8041E490E740F0803F90E6BC79
:1006DC00E0547EFF7E00E0D394807C0040047D01DA
:1006EC0080027D00EC4EFEED4F24F2F58274123E3A
:1006FC00F583E493FF3395E0FEEF24A1FFEE34E69F
:10070C008F82F583E0540190E740F0E4A3F090E68B
:10071C008AF090E68B7402F0020818020811121A83
:10072C0031400302081890E6B8E024FE601624025B
:10073C00600302081890E6BAE0B40105C200020892
:10074C001802081190E6BAE0705590E6BCE0547EB1
:10075C00FF7E00E0D394807C0040047D0180027D0C
:10076C0000EC4EFEED4F24F2F58274123EF583E45C
:10077C0093FF3395E0FEEF24A1FFEE34E68F82F574
:10078C0083E054FEF090E6BCE05480131313541F26
:10079C00FFE0540F2F90E683F0E04420F0806D8052
:1007AC0064121A33506690E6B8E024FE60192402F5
:1007BC00705A90E6BAE0B40104D200804F90E6BAC9
:1007CC00E064026047803E90E6BCE0547EFF7E0011
:1007DC00E0D394807C0040047D0180027D00EC4ECF
:1007EC00FEED4F24F2F58274123EF583E493FF3351
:1007FC0095E0FEEF24A1FFEE34E68F82F5838008AE
:10080C00120080500790E6A0E04401F090E6A0E0D2
:03081C004480F025
:01081F0022B6
:030033000212FCBA
:0412FC0053D8EF32A2
:100F470060801EF42101013F01013F0701000003FA
:100F57000000030007030103070507070900000056
:100F67000000003F2101013F01013F07010002018D
:100F7700000201000702000206040607090000003C
:100F87000000003F02021302022EB8070000010210
:100F97000001030003010107050507070000000022
:100FA70000002D3F02021302022E3807000203043D
:100FB7000203050002000006040407070000000002
:100FC70000002D3F60241F7B000000000000000090
:100FD700000000000000000000000000000000000A
:100FE700000000000000000000000000471F74E040
:060FF700000007EA4E00B5
:1010FF0090E60174EAF090E6F574FFF0901F74E04B
:10110F0090E6F3F0901F75E090E6C3F0901F76E045
:10111F0090E6C1F0901F77E090E6C2F0901F79E063
:10112F0090E6C0F0901F7AE090E6F4F075AF077488
:10113F001EF59A74F4F59B759DE4E4F59EFF90E619
:10114F007BE090E67CF00FEFB480F3E490E671F073
:10115F00F5B490E672E0547FF053B67F000000E4E0
:10116F0090E6C4F000000090E6C5F0901F7BE09081
:10117F00E6C6F0901F7CE090E6C7F0901F7DE090F0
:10118F00E6C8F0901F7EE090E6C9F0901F7FE090D8
:10119F00E6CAF0901F80E090E6CBF0901F81E090C0
:0B11AF00E6CCF0901F82E090E6CDF04F
:0111BA002212
:100FFD00421EE60000411EE500421A890000C104B0
:10100D00421EEE0000421A8E0000421EEA00004110
:0F101D001A9000411A9100411A8800411A92005E
:05166600E490E68BF0AA
:10166B00E4FFFE901FBAF0A304F0901FBAE0FCA3B6
:10167B00E0FD4C601EE5BA30E0190FBF00010EEF24
:10168B004E70E7901FBBE024FFF0901FBAE034FFD1
:10169B00F080D7ED4C70057F02121952901FBAE003
:0E16AB007002A3E07E0060047F0180027F00D9
:0116B900220E
:10170B00E4FFFE901FBDF0A304F0901FBDE0FCA30F
:10171B00E0FD4C601EE5BB20E7190FBF00010EEF8B
:10172B004E70E7901FBEE024FFF0901FBDE034FF2A
:10173B00F080D7ED4C70057F04121952901FBDE05D
:0E174B007002A3E07E0060047F0180027F0038
:01175900226D
:10156200E4FFFE901FBAF0A304F0901FBAE0FCA3C0
:10157200E0FD4C602990E6F4E070047B0180027B80
:1015820000EB30E0190FBF00010EEF4E70DC901F30
:10159200BBE024FFF0901FBAE034FFF080CCED4CAA
:1015A20070057F08121952901FBAE07002A3E07E04
:0915B2000060047F0180027F004B
:0115BB00220D
:0C183A0090E741E090E740FEE0FDEDFF8C
:10184600901FBAEEF0A3EFF012170BEF4E60109058
:101856001FBAE090E6F0F0901FBBE090E6F1F022B0
:0B175A00901FB3E0FBA3E0FAA3E0F94E
:0B176500901FBAEBF0A3EAF0A3E9F03C
:1017700012170BEF4E602C90E6F1E0901A88F012F1
:10178000170BEF4E601D90E6F2E0FE90E6F0E0FDF4
:10179000EDFF901FBAE0FBA3E0FAA3E0F9EE8FF0B3
:0317A000120DDD4A
:0117A3002223
:10196F00C2AFE4901A97F0A3F0901A95F0A3F090FD
:08197F001A93F0A3F0D2AF228D
:10143200901FB7E475F001120DC7FE744025F0F558
:081442008274E73EF583E0FF30
:10144A00C2AF901A97E0B40411A3E0B44C0C901AFE
:10145A0090E04401F0D2AF7F0022901A95E475F033
:10146A0001120DC7FC749925F0F582741A3CF583B4
:10147A00EFF0901A95E0B4040CA3E0B44C07E490A2
:10148A001A95F0A3F0901A98E004F07006901A9753
:08149A00E004F0D2AF7F012253
:0C14A200FFE4F0A3EFF07B017A1F79AFAC
:1014AE00C2AF901A97E07002A3E0700C901A90E011
:1014BE004402F0D2AF7F0022901A93E475F001122D
:1014CE000DC7FE749925F0F582741A3EF583E0126D
:1014DE000D7D901A93E0B4040CA3E0B44C07E49095
:1014EE001A93F0A3F0901A98E024FFF0901A97E068
:0814FE0034FFF0D2AF7F0122A0
:0811F800E4901A90F002196F57
:0A1A0B00E4901EEAF0A3F00211F8C7
:1018FB00C2ADEF4430901EF0F0ECA3F0EDA3F07A04
:0D190B001E7BF07D037F101212B8D2AD22BA
:10102D0000000090E600E054E74410F0000000904E
:10103D00E605E054FDF0D20090E61074A0F090E6C5
:10104D0011F000000090E612F0000000E490E613AD
:10105D00F000000090E61474E0F0000000E490E66B
:10106D0015F000000090E6047480F000000074029A
:10107D00F00000007406F0000000E4F000000090A5
:10108D00E61804F00000007411F000000090E61A5C
:10109D007409F0000000E490E68DF01210FF90E668
:1010AD00727408F075B693E4F5B1F59890E6700496
:1010BD00F075B2DEE58054704481F580121A1F90F0
:1010CD00E67A7401F0538EDFD2CAC2CCC2CDC2C84B
:1010DD00C2CF75CB6375CAC0121A0BD2AD901EEB81
:1010ED00E0240AFE901EEAE03400901EE8F0A3CE44
:0210FD00F022DF
:100E5C00901A92E0704D901A91E06047901EEAE073
:100E6C00FEA3E0FFC3901EE9E09FFF901EE8E09E0A
:100E7C00FED3EF9400EE648094804003020F461280
:100E8C0014A8EF7003020F46901FAFE0B453F07B31
:100E9C00017A1A79921214AEEF7003020F46E490A5
:100EAC001EECF0901A92E0FF600E20E00BC313F0E2
:100EBC00901EECE004F080EB901A92E0607C12142F
:100ECC00A8EF6076901FAFE0A31214A2EF606B90B6
:100EDC001FAFE0FEA3E04EFEA3E0FF901FB0EEF0CC
:100EEC00FCA3EFF0AD07901EECE0FF1218FB901A7C
:100EFC0092E0C313FFF0901EECE004F0EF703BE4C3
:100F0C00901A91F0D3901A98E09400901A97E0946C
:100F1C000040271214A8EF6021901FAFE0901EE84C
:100F2C001214A2EF6014901FAFE0FE901EE8E04E8A
:0A0F3C00F0A3E0F0901A917401F0A8
:010F46002288
:100A4000E5BB20E703020BD5E5AB30E103020AE288
:100A5000121562EF4E7003020C1190E6ABE0FE90AF
:100A6000E6ACE0FDAC06ECC313FCED1324FEFD7414
:100A7000FF3CFCD3ED9400EC94004028E5805470DA
:100A80004489F580EC90E6D0F0000000AF05EF90CF
:100A9000E6D1F0000000E4F5BB000000E5BB30E764
:100AA000FB000000121562EF4E7003020C117580FE
:100AB0008DE490E6D0F000000090E6D17402F000E2
:100AC0000000E4F5BB00000012170BEF4E700302AC
:100AD0000C11000000121562EF4E7003020C1100A1
:100AE0000000901A89E07002A3E07003020BD5E5C4
:100AF000AC30E003020BD5121562EF4E7003020C0E
:100B000011901A8AE024FEF0901A89E034FFF0E098
:100B1000FCA3E0FDD39400EC64809480403AE5802F
:100B200054704489F580E490E6CEF000000090E631
:100B3000CFF0000000EC90E6D0F0000000ED90E671
:100B4000D1F000000075BB0600000012170BEF4E3D
:100B50007003020C1100000075808DE490E6CEF069
:100B600000000090E6CFF000000090E6D0F000001A
:100B70000090E6D17402F000000075BB0600000092
:100B800012170BEF4E7003020C1100000090E6AF3D
:100B9000E0FE90E6B0E0FDEDFF901A8EEEF0A3EFE0
:100BA000F0901EEEE0FEA3E0FFC3901A8FE09F904E
:100BB0001A8EE09E500690E6487406F0E4901A897A
:100BC000F0A3F0E5805470448DF580121562EF4E6D
:100BD000603F000000901FD2E07003120E5C901E78
:100BE000E6E07002A3E0701B901EE5E07F01600A62
:100BF000121935E4901EE5F08009121952901EE595
:100C00007401F0901EE7E004F07006901EE6E00428
:010C1000F0F3
:010C110022C0
:021A2900D322C6
:021A2B00D322C4
:021A2D00D322C2
:1016BA0090E680E030E72100000090E6247402F012
:1016CA00000000E490E625F0000000D204901EEE2F
:1016DA007404F0A3E4F0801F000000E490E624F014
:1016EA0000000090E6257440F0000000C204901E3D
:1016FA00EEE4F0A37440F090E6BAE0901EEDF0D369
:01170A0022BC
:1019E300901EEDE090E740F0E490E68AF090E68BFD
:0419F30004F0D32207
:0A1A150090E6BAE0901A8DF0D3229B
:1019F700901A8DE090E740F0E490E68AF090E68B4D
:041A070004F0D322F2
:021A2F00D322C0
:021A3100D322BE
:021A3300D322BC
:1000800090E6BBE0FE90E6BAE0FDEDFF901FAFEE1C
:10009000F0A3EFF090E6BFE0FE90E6BEE0FDEDFFDE
:1000A000901FB1EEF0A3EFF090E6B9E0245060426B
:1000B00024F0B40E0040030205E89000C875F00378
:1000C000A4C58325F0C5837302010902023102022F
:1000D000900202DA0203360203810203AD0201D26A
:1000E0000203D202041802044B0204B002053302D8
:1000F000040390E74074E9F0A37403F0E490E68A07
:10010000F090E68B7402020528901FAFE0FEA3E09A
:10011000FFEE60030201D0EF24FE603E1470030284
:1001200001A3240260030201D075B69375B11000DB
:100130000000000000000053B1EF000000000000CC
:10014000000043B11075B68390E7407401F0E4906D
:10015000E68AF090E68B04020528121666EF4E70D0
:1001600002D322E4901FB7F0A3F0901FB1E0FEA3EA
:10017000E0FFC3901FB8E09F901FB7E09E400302CE
:1001800005EAA3E02440F582E434E7F583E0F5993D
:100190005398FD901FB8E004F070CF901FB7E004B3
:1001A000F080C7901FB6E5B1F0E0FF30E6047E02B4
:1001B00080027E00EF30E5047F0180027F00EF4E79
:1001C00090E740F0E490E68AF090E68B0402052880
:1001D000D322901FAFE0FEA3E0FFEE704BEF24FEB2
:1001E000601014601B2402703FA204E43390E740C7
:1001F000800590E740E5BBF090E68B7401F0802A23
:1002000090E6D1E090E740F090E6D0E090E741F052
:1002100090E6CFE090E742F090E6CEE090E743F042
:1002200090E68B7404F08002D322E490E68A020503
:1002300028121562EF4E7002D322000000901FB307
:100240007401F0A374E7F0A37440F0E580547044A7
:1002500081F58000000012175A12170BEF4E700242
:10026000D322901FB4E475F002120DB1E5805470F2
:100270004483F58000000012175A12170BEF4E70DE
:1002800002D322E490E68AF090E68B7404020528FB
:10029000121666EF4E7002D322121562EF4E7002F4
:1002A000D322E58054704481F58000000012183A92
:1002B00012170BEF4E7002D322E58054704483F581
:1002C0008000000090E743E090E7421218411217C7
:1002D0000BEF4E60030205EAD322121562EF4E7057
:1002E00002D322901FB37401F0A374E7F0A374400B
:1002F000F0E58054704485F58000000012175A1212
:10030000170BEF4E7002D322901FB4E475F0021267
:100310000DB1E58054704487F58000000012175A33
:1003200012170BEF4E7002D322E490E68AF090E6AB
:100330008B7404020528121666EF4E7002D3221247
:100340001562EF4E7002D322E58054704485F5802B
:1003500000000012183A12170BEF4E7002D322E57C
:100360008054704487F58000000090E743E0FE90E1
:10037000E74212184212170BEF4E60030205EAD350
:1003800022121666EF4E7002D32290E741E0FE90F3
:10039000E740E0FDEDFF901A89EEF0A3EFF0901A30
:1003A00089E0A2E713F0A3E013F00205EA90E60467
:1003B0007480F00000007406F0000000E4F000001B
:1003C0000090E74004F0E490E68AF090E68B0402A7
:1003D0000528901FAFA3E0FF30E00553807F800326
:1003E000438080EF30E1055380FE8003438001901D
:1003F0001FB0E090E740F0E490E68AF090E68B04CE
:1004000002052863804090E7407401F0E490E68A9A
:10041000F090E68B04020528121666EF4E7002D3A8
:100420002290E6BAE054074430901EF0F090E74086
:10043000E0901EF1F090E741E0901EF2F07A1E7B12
:10044000F07D037F101218D90205EA121666EF4EEE
:100450007002D322901FAFE0FEA3E0FFEE60030224
:1004600005EAEF24FC6010146035240460030205E3
:10047000EA1211F80205EA90E741E0FE90E740E059
:10048000FDEDFF901EEAEEF0A3EFF0E0240AFE90EF
:100490001EEAE03400901EE8F0A3CEF00205EAC2A6
:1004A000AD90E740E0F5CAA3E0F5CBD2AD0205EA96
:1004B000901FAFE0FEA3E0FFEE7069EF14602A1416
:1004C000605424FE601704705B901EEBE090E740E0
:1004D000F0901EEAE090E741F0D2AD803190E74025
:1004E000E5CAF0A3E5CBF08025901A97E0FEA3E0E3
:1004F000FFC3744C9F901FB8F074049E901FB7F018
:10050000A3E090E740F0901FB7E090E741F090E65D
:100510008B7402F0800E901A90E090E740F090E625
:100520008B7401F0E490E68AF090E6A0E04480F05D
:100530000205EA121666EF4E7002D322E4901FB74E
:10054000F0A3F0901FB1E0FEA3E0FFC3901FB8E05E
:080550009F901FB7E09E50557B
:10055800121435EF604F121432EF60497F531214B2
:100568004AEF6041901FB7E475F001120DC7FE74A1
:100578004025F0F58274E73EF583E0FF901FB9F05F
:1005880012144AEF601F901FB9E060AF30E00C1200
:100598001432EF60A6121432EF60A0901FB9E0FF8A
:0505A800C313F080E127
:1005AD00901A91E070377B017A1F79B61214AEEF75
:1005BD00602B901FB6E0FF901EE8E4F0A3EFF01261
:1005CD0014AEEF6018901FB6E0FE901EE8E04EF0FE
:0E05DD00A3E0F0901A917401F08002D322C3C3
:0105EB0022ED
:10191800C0E0C083C082901EEBE004F07006901E09
:0D192800EAE004F0C2CFD082D083D0E032DC
:10198700C0E0C083C082D2015391EF90E65D74013D
:08199700F0D082D083D0E032D1
:1019B700C0E0C083C0825391EF90E65D7404F0D01D
:0619C70082D083D0E03263
:1019CD00C0E0C083C0825391EF90E65D7402F0D009
:0619DD0082D083D0E0324D
:1015BC00C0E0C083C082C0D075D000C006C0079008
:1015CC001FC7E0FEA3E0FF901FC3EEF0A3EFF0F502
:1015DC00828E83A37402F0901FBFE0FEA3E0FF9005
:1015EC001FC5EEF0A3EFF0F5828E83A37407F053C2
:1015FC0091EF90E65D7410F0D007D006D0D0D08279
:05160C00D083D0E032A4
:10199F00C0E0C083C082D2035391EF90E65D74081C
:0819AF00F0D082D083D0E032B9
:10150600C0E0C083C082C0D075D000C006C00790BE
:10151600E680E030E730901FBFE0FEA3E0FF901FBB
:10152600C3EEF0A3EFF0F5828E83A37402F0901F52
:10153600C7E0FEA3E0FF901FC5EEF0A3EFF0F58233
:101546008E83A37407F05391EF90E65D7420F0D07C
:0C15560007D006D0D0D082D083D0E03285
:011A3500327E
:011A3600327D
:011A3700327C
:011A3800327B
:011A3900327A
:011A3A003279
:011A3B003278
:011A3C003277
:011A3D003276
:011A3E003275
:011A3F003274
:011A40003273
:011A41003272
:011A42003271
:011A43003270
:011A4400326F
:011A4500326E
:011A4600326D
:011A4700326C
:011A4800326B
:011A4900326A
:011A4A003269
:011A4B003268
:011A4C003267
:011A4D003266
:011A4E003265
:011A4F003264
:011A50003263
:011A51003262
:011A52003261
:011A53003260
:011A5400325F
:011A5500325E
:011A5600325D
:011A5700325C
:011A5800325B
:10193500EF30E00353B1FEEF30E10353B1FDEF307B
:0D194500E20353B17FEF30E3035380EF2244
:10195200EF30E00343B101EF30E10343B102EF3076
:0D196200E20343B180EF30E3034380102225
:03004300021200A6
:0300530002120096
:10120000021987000219CD000219B70002199F00C8
:101210000215BC0002150600021A3500021A36003B
:10122000021A3700021A3800021A3900021A3A006C
:10123000021A3B00021A3C00021A3D00021A3E004C
:10124000021A3F00021A3600021A4000021A410038
:10125000021A4200021A4300021A4400021A450010
:10126000021A4600021A3600021A3600021A360026
:10127000021A4700021A4800021A4900021A4A00DC
:10128000021A4B00021A4C00021A4D00021A4E00BC
:10129000021A4F00021A5000021A5100021A52009C
:1012A000021A5300021A5400021A5500021A56007C
:0812B000021A5700021A58004F
:03002B000219189F
:1018920090E682E044C0F090E681F04387010000C8
:0418A2000000002220
:10161100901FAFEEF0A3EFF090E600E05418701ABF
:10162100901FB0E02401FF901FAFE03400C313FE10
:10163100EF13FFEEF0A3EFF0801790E600E05418EF
:10164100FFBF100D901FB0E025E0F0901FAFE03319
:10165100F0901FAF74FFF5F0120DC745F060051251
:0516610018A680ED2237
:1018A6007400F58690FDA57C05A3E582458370F955
:0118B600220F
:1017DC0030050990E680E0440AF0800790E680E04E
:1017EC004408F07FDC7E0512161190E65D74FFF064
:0F17FC0090E65FF05391EF90E680E054F7F02213
:02180B00A9072B
:10180D00901FCBE0FEA3E0FF8F828E83A3E06403E5
:10181D007017AD0119ED7001228F828E83E07C006F
:0C182D002FFDEC3EFEAF0580DFE4FEFF67
:01183900228C
:0A1A1F00E4901FD2F0D2E9D2AF220A
:1017A400AD0790E678E020E6F9C2E990E678E044F7
:1017B40080F0ED25E090E679F090E678E030E0F90D
:1017C40090E678E04440F090E678E020E6F990E690
:0817D40078E030E1D6D2E922F1
:1012B800AC0790E678E020E6F9901FD2E07029901C
:1012C800E678E04480F0AF04EF25E090E679F0900E
:1012D8001FCDEDF0AF03A9077B01A3120E53E490D5
:0A12E8001FD1F0A304F0D322C322AB
:1011BB00AC0790E678E020E6F9901FD2E0702C9017
:1011CB00E678E04480F0AF04EF25E0440190E67947
:1011DB00F0901FCDEDF0AF03A9077B01A3120E53C7
:0D11EB00E4901FD1F0A37403F0D322C322BF
:03004B00020C1292
:100C1200C0E0C083C082C085C084C086758600C023
:100C2200D075D000C000C001C002C003C00790E66A
:100C320078E030E209901FD27406F0020D3490E69B
:100C420078E020E10E901FD2E0640260067407F0A3
:100C5200020D34901FD2E024FE607614604424FE1C
:100C62007003020D2124FC7003020D2F240860037F
:100C7200020D34901FCE120E4A901FD1E0FF04F0F5
:100C82008F82758300120D5090E679F0901FCDE0AF
:100C9200FF901FD1E06F6003020D34A37405F002D0
:100CA2000D3490E679E0FF901FCE120E4A901FD1CC
:100CB200E0F582758300EF120D8F901FD27402F05F
:100CC200901FCDE06401706A90E678E04420F080E5
:100CD20061901FCDE024FEFF901FD1E0B507079081
:100CE200E678E04420F0901FCDE014FF901FD1E0A1
:100CF200B5070C90E678E04440F0901FD2E4F09003
:100D0200E679E0FF901FCE120E4A901FD1E0F582E5
:100D1200758300EF120D8F901FD1E004F0801390C5
:100D2200E678E04440F0901FD2E4F08005901FD2B4
:100D3200E4F05391DFD007D003D002D001D000D02D
:0E0D4200D0D086D084D085D082D083D0E0324D
:1018B7001211BB901FD2E024FA60101460062407AF
:1018C70070F1D322E4901FD2F0D322E4901FD2F01C
:0218D700D3221A
:1018D9001212B8901FD2E024FA601014600624078F
:1018E90070F1D322E4901FD2F0D322E4901FD2F0FA
:0218F900D322F8
:1018660090E682E030E004E020E60B90E682E0308D
:10187600E119E030E71590E680E04401F07F147E40
:0C1886000012161190E680E054FEF022E3
:030000000213A642
:0C13A600787FE4F6D8FD7581200213ED7D
:100D5000BB010CE58229F582E5833AF583E0225058
:100D600006E92582F8E622BBFE06E92582F8E222A2
:0D0D7000E58229F582E5833AF583E49322BC
:100D7D00BB010689828A83F0225002F722BBFE0155
:020D8D00F3224F
:100D8F00F8BB010DE58229F582E5833AF583E8F09A
:100D9F00225006E92582C8F622BBFE05E92582C846
:020DAF00F2222E
:100DB100C5F0F8A3E028F0C5F0F8E58215827002CD
:060DC1001583E038F0226A
:100DC700A3F8E0C5F025F0F0E582158270021583DF
:060DD700E0C838F0E8223C
:100DDD00BB010A89828A83F0E5F0A3F0225006F761
:0F0DED0009A7F01922BBFE06F3E5F009F319225E
:100DFC00EB9FF5F0EA9E42F0E99D42F0E89C45F04D
:010E0C0022C3
:0C0E0D00ECF0A3EDF0A3EEF0A3EFF02258
:100E1900A8828583F0D083D082120E30120E301250
:100E29000E30120E30E473E493A3C583C5F0C58375
:100E3900C8C582C8F0A3C583C5F0C583C8C582C823
:010E49002286
:090E4A00E0FBA3E0FAA3E0F922A9
:090E5300EBF0A3EAF0A3E9F022A0
:1013B200020820E493A3F8E493A34003F68001F229
:1013C20008DFF48029E493A3F85407240CC8C3333C
:1013D200C4540F4420C8834004F456800146F6DF0B
:1013E200E4800B0102040810204080900F47E47E45
:1013F200019360BCA3FF543F30E509541FFEE49300
:10140200A360010ECF54C025E060A840B8E493A3C6
:10141200FAE493A3F8E493A3C8C582C8CAC583CAF1
:10142200F0A3C8C582C8CAC583CADFE9DEE780BEA9
:01102C0000C3
:00000001FF
